:100000000C9457030C9474030C9474030C947403B1
:100010000C9474030C9474030C9474030C94740384
:100020000C9474030C9474030C9438190C94741885
:100030000C94F4100C9474030C9474030C947403D7
:100040000C9474030C9474030C9474030C94740354
:100050000C9474030C94631B0C9474030C9474033D
:100060000C9474030C9474030C9474030C94740334
:100070000C9474030C9474030C9474030C94740324
:100080000C9474030C9474030C9474030C94740314
:100090000C9474030C9474030C9474030C94740304
:1000A0000C9474030C9474030C94740300070007FD
:1000B0003C073C079407E2097109E209B607940876
:1000C000A708A7087E09AD098609890994098E0940
:1000D00097090B0B0E0B110B140B170B1A0B1D0BA7
:1000E0008F16B6164C18B6164C18FE1621174C185B
:1000F000101823187F1D7F1D921D921D881D921DB3
:10010000921D921D7F1D7F1D8D1D921D921D8D1DA7
:1001100029002B003962E000135000001E0014007B
:1001200004001D00E20028001F001A0016001B003A
:10013000E3004C00200008000700060050002A00E1
:1001400021001500090019004F002C0022001700A3
:100150000A00050000004A00025830000000015863
:1001600000001550025832000000015800001350E2
:1001700023001C000B00110000004D00240018009B
:100180000D00100051004B0025000C000E00360041
:1001900052002C00260012000F003700E700280054
:1001A0002700130033003800E6004E0049002F00FE
:1001B0003972E40034000000010001005300010026
:1001C000010000003A00241464002514010001001D
:1001D0003B00201464023702010001003C0021149E
:1001E00022002214010001003D002E142D002D14C8
:1001F000010001003E0023142E002714000001001E
:100200003F0008140000010000000100400037001A
:10021000000001000000010041005600570063008B
:100220000000010042005F005C0059000100010075
:10023000430060005D005A000100010044006100BD
:100240005E005B00010001004500550054006200A3
:1002500001000100010034025300010035000000DC
:10026000010001000100010065000000A8004B0032
:100270004E00160101000100AA004A0050001B01B7
:1002800001000100A9005200510006010100010017
:10029000BE004D004F00190101000100BD002903FF
:1002A000160A1A01000001000100295D00001C016E
:1002B00000002B5D0100B3000000B200000001004F
:1002C0000100010001000100000001000100010027
:1002D0000100010001000100010001000100010016
:1002E0000100010001000100010001000100010006
:1002F00001000100010001000100010001000100F6
:10030000010001000100000029002B00E100E000D5
:10031000E20000001E00140004001D000B004E004F
:100320001F001A0016001B000D00045120000800D9
:10033000070006000E002C0021001500090019001E
:100340000F004B00220017000A00050000001100FA
:1003500023002400000025000000155000000000CC
:10036000000000000000035300000000570063007D
:100370000000000000005F005C0059005100000018
:10038000000060005D005A005200000000006100A3
:100390005E005B00E70000000000550054006200B2
:1003A000E600000000000000000000000000000067
:1003B00001000100010001001C0000003A000100E2
:1003C00001000100180001003B00010001000100D4
:1003D0000C0001003C0001000100010012000100BE
:1003E0003D00010001000100130001003E0001007A
:1003F00001000100000001003F00010000000100B9
:1004000000000100400001000000010000000100A8
:100410004100010001000100000001004200010054
:100420000100010001000100430001000100010082
:100430000100010044000100010001000100010071
:100440004500010001000100010001000100010060
:10045000010001000100000029002B00E100E00084
:10046000000000001E00140004001D000000000039
:100470001F001A0016001B000000000020000800EA
:100480000700060011002C002100150009001900CA
:100490000651000022002300240025000000000077
:1004A00000001000000000000000055300000000E4
:1004B00000000000000013500000000000000000D9
:1004C000000000000000000000000000000000002C
:1004D000000000000000000000000000000000001C
:1004E000000000000000000000000000000000000C
:1004F00000000000000000000000000000000000FC
:100500000100010001000100010000003A000100AB
:1005100001000100010001003B0001000100010099
:10052000010001003C000100010001000100010088
:100530003D00010001000100010001000100010077
:1005400001000100000001000100010000000100A5
:100550000000010001000100000001000000010096
:100560000100010001000100000001000100010084
:100570000100010001000100010001000100010073
:100580000100010001000100010001000100010063
:100590000100010001000100010001000100010053
:1005A000010001000100000005010980A10185038F
:1005B00019012AB700150126B700950175108100B1
:1005C000C0050C0901A101850419012AA002150129
:1005D00026A002950175108100C005010906A10140
:1005E000050719E029E71500250195087501810225
:1005F0009501750881010507190029FF150026FFDF
:1006000000950675088100050819012905950575ED
:10061000019102950175039101C009023B0002019D
:1006200000A0FA09040000010301010009211101E1
:1006300000012240000705810308000A09040100A7
:100640000103000000092111010001223200070509
:10065000820320000A120110010000000897327482
:100660004901000102000116034500720067006F96
:100670000044006F007800200045005A0000002868
:10068000035A0053004100200054006500630068D5
:10069000006E006F006C006F006700790020004C56
:1006A00000610062007300000004030904001124CB
:1006B0001FBECFEFDAE0DEBFCDBF11E0A0E0B1E0BA
:1006C000EAEEF1E402C005900D92AC3EB107D9F715
:1006D00022E0ACEEB1E001C01D92AB3EB207E1F703
:1006E0000E94891B0C94F3200C9400004F925F929F
:1006F0006F927F928F929F92AF92BF92CF92DF9232
:10070000EF92FF920F931F93CF93DF93CDB7DEB796
:100710002A970FB6F894DEBF0FBECDBFFC01008153
:10072000D18083819481892B41F044244A94D41050
:1007300006C091E00F3F19F403C091E001C090E0C2
:1007400090FDA4C67F0185E0DE01169601900D9212
:100750008A95E1F7F70122818E819F81222349F05A
:100760000E940312182F682F8E819F810E94A5126C
:1007700003C00E947812182F24E5129FF001112463
:1007800086E0D89EE00DF11D1124E00FF11DEE0F63
:10079000FF1FE05FFE4F0591149109329DE5190797
:1007A00009F040C0F70182818823E1F19091AE0207
:1007B00081E0890F8770987F853020F4892B8093A2
:1007C000AE0202C09093AE028091AE028770FFEF3E
:1007D0008F9FC001112495958795959587959927A9
:1007E000909389008093880090938B0080938A0077
:1007F00090938D0080938C004091AE025091AF0297
:100800006091B0027091B1028FE090E00E94961F5B
:100810006091C0027091C1028091C2029091C302A6
:100820000E94330EF7018281882369F0C801825E3D
:100830009C45059740F46EE1600F6093AA028CE03E
:1008400090E00E94841F17FF75C0F7018281882302
:1008500009F470C0809187028093EC0110928702A6
:100860008091AA02813071F048F08230A1F084308A
:10087000C1F486EE0E94A71E88E111C082EE0E949C
:100880000B1E0FC088E193E00E941D0E88E193E0EB
:100890000E94070E06C082EE0E940B1E87E50E9492
:1008A000A71E8FE39CE90197F1F700C00000480103
:1008B000E89497F89CE0A92EB12CC4010A2C02C040
:1008C000969587950A94E2F78F7061F0C82ED12C27
:1008D0008A3020F49DE1C90ED11C07C0E6E0CE1A93
:1008E000D10803C087E2C82ED12CC6010E941D0E7C
:1008F000C6010E94070EF4E0AF1AB1082CEFA21651
:100900002FEFB206D1F68091AA02813039F040F083
:10091000823031F0843051F488E206C08CE204C0A9
:1009200082EE0E94AF1D02C00E94A71E8091EC01C2
:1009300080938702043F8CE5180741F190F4093D4C
:10094000ECE51E07E9F00A3DFCE51F0789F1083DCB
:100950002CE51207B1F506E221EE41EE68ED7CE5EB
:100960002CC0063F8CE51807E9F0B0F0073FECE536
:100970001E0739F507E225EE46EE67EF7CE51DC060
:1009800007E225EE45EE69ED7CE517C006E221EEB3
:1009900040EE64EF7CE511C007E225EE44EE65EF22
:1009A0007CE50BC006E221EE42EE66EF7CE505C079
:1009B00008E221E045EE6AED7CE5C7010E94710F77
:1009C0009CC1F7018281882309F43FC11092ED0197
:1009D0000230FCE51F0708F422C106312CE512079E
:1009E00038F098012B5F3C452930310508F017C1DC
:1009F0000E9444119093C5028093C40200318CE59B
:100A0000180709F4C3C008F041C00830ECE51E0720
:100A100009F49AC0F0F404302CE5120709F487C0F9
:100A200068F402309CE5190709F477C003301C45CF
:100A300009F0E5C08091C402826076C00630FCE512
:100A40001F0709F46EC008F07BC08091C402886063
:100A50006BC00C308CE5180709F485C068F40A30C7
:100A6000ECE51E0709F474C008F079C00E94A41DCB
:100A70008091C402806858C00E302CE5120709F43A
:100A800076C008F07FC08091C4028BC00C3F9CE50B
:100A9000190709F44FC018F50331FCE51F0709F4E5
:100AA0007DC078F401318CE5180709F473C0023178
:100AB0001C4509F0A4C00E94A41D8091C4028F7738
:100AC00033C00531ECE51E0709F472C008F486C096
:100AD0000B3F1C4509F093C08091C5023EC0011533
:100AE0008DE5180709F45FC058F40E3FECE51E07CA
:100AF00009F444C008F43FC08091C50282602DC053
:100B000002302DE5120709F475C008F45DC003300A
:100B10001D4509F074C060E06EC08091C402816020
:100B200003C08091C40280618093C40268C0809138
:100B3000C40211C08091C50282608093C5025FC06B
:100B40008091C4028062F0CF8091C4028064ECCFB7
:100B50008091C40288608460E7CF8160EECF80918D
:100B6000C4028E7FE1CF8091C4028D7FDDCF809162
:100B7000C402877FD9CF8091C50218C08091C50279
:100B80008D7FDBCF8091C4028F7ECECF8091C40257
:100B90008F7DCACF8091C4028F7BC6CF8091C40263
:100BA000877F8B7FC1CF8091C5028D7F8E7FC5CF20
:100BB0008091C40282FB222720F991E0922790FBCA
:100BC00082F990FB83F9B0CF8091C502982F909560
:100BD00091708E7F892B90FB81F9AFCF0E94A41D6D
:100BE0008091C40287FB222720F991E0922790FB95
:100BF00087F99ACF61E08EE090E00E94841F6091B7
:100C0000C4021091C50284E090E00E94841F612F0D
:100C100081E290E00E94841F0E94A41D6EC00631F4
:100C20009CE5190719F5809187028A7A91E009F409
:100C300090E09093EE01882311F065E301C069E232
:100C40008BE092E00E942A110EC006311C4509F08B
:100C500077C08091EE01882309F416C465E38BE028
:100C600092E00E941D110E94D61147C00115ECE5CB
:100C70001E0739F00F3D1C4509F062C00E94551156
:100C80003CC00E94A41D2FEF84E39CE021508040D3
:100C90009040E1F700C00000F89481E08093E0000C
:100CA00080E28093D8001092C900EFE1FEE4319712
:100CB000F1F700C000001DBA109268001CBC10BE05
:100CC0001FBA10927A0010926E0010926F0010926C
:100CD0007100109272001092C9001092BC0014B8FA
:100CE00017B81AB81DB810BA1092BC0015B818B8C9
:100CF0001BB81EB811BA0C94003F80918402877013
:100D000009F4C4C3F7018281882309F4BFC382E0D8
:100D10002A960FB6F894DEBF0FBECDBFDF91CF91FC
:100D20001F910F91FF90EF90DF90CF90BF90AF9009
:100D30009F908F907F906F905F904F900C940213D4
:100D4000F7010081D180882359F0802F9D2D0E94CA
:100D50000312182F682F802F9D2D0E94A51205C009
:100D6000802F9D2D0E947812182F24E5129FF001EC
:100D7000112486E0D89EE00DF11D1124E00FF11D35
:100D8000EE0FFF1FE05FFE4F859194910E946B0C68
:100D9000082FD92EB82EF701C580C294BFE0CB2210
:100DA0001281111110928602809184028770C1F025
:100DB0001123B1F08D2D807F803449F090E2900FA7
:100DC000983070F0803619F4F6EFBF1649F082E0E3
:100DD0000E940213809184028770AA24A394811137
:100DE000A12C9D2C92947FE09722892D90E08C304D
:100DF000910508F0E7C2FC01EA5AFF4F0C94CC1FA2
:100E00009D2D9F708D2D807FC92E19F0C29460EFAB
:100E1000C6221123B9F0CC2009F450C280E2800F21
:100E2000883010F0B11006C080918702C82AC092A5
:100E3000870205C080918602C82AC09286020E945D
:100E4000D6113CC2802F0E94AF1DCC2009F411C3E3
:100E5000005EC094083010F0B11006C08091870287
:100E6000C822C092870205C080918602C822C09223
:100E700086020E94D611FDC29D2D9F708D2D807F10
:100E8000892E803219F0829450EF8522BB2029F000
:100E900044244394B414F1F028C0112389F08091C4
:100EA0008802CC2059F055245394C51007C0882AD5
:100EB000881609F4E3C280928802E0C2882920C023
:100EC000CC2029F066246394C61409F4D2C20E948F
:100ED000D01126C0112331F0772473947C1408F4C8
:100EE000CDC20DC0C110C5C21BC0112361F0CC2002
:100EF00031F0F701858180FFE1C18F708583882DF6
:100F00000E94601DBBC2CC2059F0F9E3BF12E5C1BD
:100F10002FEF87EE93E0215080409040E1F7DBC156
:100F2000882D0E94551DA5C28D2D869586958370AE
:100F300019F0813071F046C2112331F0802F9D2DC0
:100F400093700E94490C48C280E090E00E94490CD6
:100F500059C2112331F0802F9D2D93700E94330CC4
:100F60003BC280E090E00E94330C4CC28D2D837018
:100F700009F069C011112AC2902F92959695977029
:100F8000990F990F802F8F70482E512C612C712C46
:100F9000092E04C0440C551C661C771C0A94D2F719
:100FA00004FF12C04FE050E060E070E004C0440F66
:100FB000551F661F771F9A95D2F7DB01CA018095EE
:100FC0009095A095B09503C080E090E0DC016D2D78
:100FD000669566956370623019F1C8F420918902B4
:100FE00030918A0240918B0250918C02613059F00D
:100FF00084299529A629B729BC01CD016223732331
:10100000842395230AC0422A532A642A752ABC01E4
:10101000CD0164297529862997290E943C13D6C1E0
:1010200084299529A629B7294090890250908A02DF
:1010300060908B0270908C02BC01CD0164257525F7
:1010400086259725EACF112319F08D2D817001C0D7
:101050008695882309F4BAC1902F9295969597703A
:10106000990F990F802F8F70482E512C612C712C65
:10107000092E04C0440C551C661C771C0A94D2F738
:1010800004FF12C04FE050E060E070E004C0440F85
:10109000551F661F771F9A95D2F7DB01CA0180950D
:1010A0009095A095B09503C080E090E0DC016D2D97
:1010B0006695669563706230D9F068F52091C0023C
:1010C0003091C1024091C2025091C302613059F087
:1010D00084299529A629B729BC01CD016223732350
:1010E000842395231EC0422A532A642A752A13C0DA
:1010F00084299529A629B7294090C0025090C102A1
:101100006090C2027090C302BC01CD0164257525B8
:101110008625972506C0BC01CD016429752986293D
:1011200097290E94D11252C1ED2DEF70CE2E1123BE
:1011300039F08E2F0E941B13802F0E94601D46C124
:10114000802F0E94551D8C2D0E94DD123FC1802FE3
:10115000F2EFBF1609F46EC0FB1550F040EF442EBD
:10116000B41489F031EF532EB51409F455C059C0A9
:1011700023EF622EB61409F467C094EF792EB714EA
:1011800009F47CC04EC0112311F1C11077C12D2D7F
:101190002F7181E090E0A0E0B0E0AC01BD0104C09F
:1011A000440F551F661F771F2A95D2F78091C00202
:1011B0009091C102A091C202B091C3022A013B01E9
:1011C000482659266A267B26C301B2014EC0552403
:1011D00053945C1408F44DC12D2D2F7181E090E0E3
:1011E000A0E0B0E0AC01BD0104C0440F551F661F74
:1011F000771F2A95D2F78091C0029091C102A091E9
:10120000C202B091C3022A013B01482659266A2630
:101210007B26C301B2012FC0112339F08D2D8F71B0
:101220003CC0111148C0C1104DC08D2D8F710E945E
:10123000DD121FC18D2D8F71112319F00E94DD1257
:101240001DC10E941B1315C1112391F02D2D2F716B
:1012500081E090E0A0E0B0E0BC01CD0104C0660FE9
:10126000771F881F991F2A95D2F70E94D11206C1B5
:1012700060E070E0CB010E94D112FBC0112381F02D
:101280000D2D0F71802F0E941B1328E0029FC001BB
:101290001124836080938402802F0E941B13EEC070
:1012A00081E00E94021381E08C1508F0E2C082E028
:1012B0000E940213DEC0CC2009F4B0CF802F0E9420
:1012C0000B1EDCC0893349F49FEFE7EEF3E0915049
:1012D000E040F040E1F700C00000802F0E94AF1D09
:1012E000C8C08B2D90E0FC01E05FF109E730F1050B
:1012F00008F03FC0EE59FF4F0C94CC1F112309F4A6
:1013000081C09091140281E0892705C010931402D6
:1013100061C081E08127809314025CC011115AC022
:1013200081E0809314026EC0111154C069C0112372
:1013300039F082E08093EF0181E0809314024CC089
:101340008091EF01823019F481E08093EF01809168
:10135000EF01833009F056C051C0112339F080915C
:101360001302882371F21092130236C0CC2049F286
:1013700049C080911302CC20C1F0882341F09091A4
:10138000140281E089278093140210921302802FA7
:10139000112319F00E940B1E1FC00E94AF1D86E092
:1013A000F70111928A95E9F72DC0882399F0111160
:1013B00011C09091140281E0892780931402109249
:1013C000130220C088EF890D843020F40E945F0C46
:1013D0000E94FF0D1123B1F08D2D807F803619F40E
:1013E000F6EFBF1679F08091EF01823019F483E0B7
:1013F0008093EF018091EF01813021F41092EF0191
:1014000010921402AA20A9F08091840280FD11C0DC
:10141000F70112828595859585950E941B13C7015A
:101420000E947603809184028595859585950E941A
:10143000DD1285E0F701DE01119601900D928A958B
:10144000E1F789819A810E9478129A8124E5829F2E
:10145000F001112486E0989FE00DF11D112489818F
:10146000E80FF11DEE0FFF1FE05FFE4F8591949195
:101470000DC088EF890D843028F6A8CF88EF890D3C
:10148000843008F0A9CFA2CF69E2E9CB2A960FB643
:10149000F894DEBF0FBECDBFDF91CF911F910F91AA
:1014A000FF90EF90DF90CF90BF90AF909F908F9084
:1014B0007F906F905F904F9008959091C40292FF3B
:1014C0000DC0282F2871283019F4877F846006C04A
:1014D000282F2471243011F48B7F886093FF0DC076
:1014E000282F2871283119F4877E846106C0282F9F
:1014F0002471243111F48B7E88612091C50220FF74
:101500000DC0382F3871383019F4877F816006C0DC
:10151000382F3171313011F48E7F886021FF0DC07A
:10152000282F2871283119F4877E816106C0282F61
:101530002171213111F48E7E886194FD877E08959A
:101540009C013A9521153F4138F5DC01AA27B2707C
:10155000AC01442754709C012227387094FF0FC0BF
:1015600090FF02C080E101C080E0AB2B09F08062F7
:10157000452B09F08064232B69F080680BC0892F0C
:101580008170AB2B09F08260452B09F08460232B1E
:1015900009F08860FB0109940895CF93E82F873004
:1015A00080F58091070190910801892B09F047C0CF
:1015B000CE2F64E670E080E40E94C01E9093080184
:1015C00080930701892BD1F464E670E082E10E94E8
:1015D000171F9093080180930701892B79F481E00C
:1015E00090E001C0880FCA95EAF764E670E0809544
:1015F0000E94171F9093080180930701CF910C94CC
:101600006C1F90E0FC013797E730F105C0F4E75913
:10161000FF4F0C94CC1F209A289811C0219A29982A
:101620000EC0229A2A980BC0239A2B9808C0529A6F
:101630005A9805C0539A5B9802C03E9A4698CF913B
:101640000895CF93873040F580910701909108016C
:10165000892B59F564E670E081E40E94C01E9093E6
:10166000080180930701892B11F0C0E011C084E6C6
:1016700090E00E94471F97FF05C090930801809358
:101680000701F3CFC82FC0951092080110920701EF
:101690000E946C1F8C2F0AC09FB18FB1807F8695EE
:1016A00086959370892B809501C080E0CF91089535
:1016B0000F931F93CF93DF93CDB7DEB767970FB626
:1016C000F894DEBF0FBECDBF4B8B5C8B6D8B7E8BDA
:1016D0008F8B0E891F890115110531F05F3F31F4A1
:1016E00081E04F3F19F403C081E001C080E080FD3C
:1016F00032C0242F30E0A1E0B0E0042E01C0AA0FD8
:101700000A94EAF7852F90E0662319F0709114028D
:1017100005C0FC01E350FE4F70817A237723A1F0CE
:1017200046E0489FF001499FF00D1124E20FF31F9E
:10173000EE0FFF1FED5EFE4F40815181FC01E35033
:10174000FE4F9081A92B06C0FC01E350FE4FA095EF
:101750008081A823A08386E0FE013D96DF01982FBB
:101760001D929A95E9F74D875E876F87198B088BD5
:10177000DE01179601900D928A95E1F7CE0107964A
:101780000E94BC1381113EC086E0FE013796DE0147
:10179000119601900D928A95E1F7FF81E8856A859F
:1017A0007B856115710531F0EF3F31F481E0FF3F3A
:1017B00019F403C081E001C080E080FD23C02091C6
:1017C0001B0230E0C90101968770992740914C02B5
:1017D00050E08417950779F1F983EA837D836C8360
:1017E00096E0929FD001939FB00D1124A45EBD4F4F
:1017F000FE01319601900D929A95E1F780931B02BC
:101800000E94461316E080914C0290911B028917AA
:10181000F9F0189FC0011124845E9D4F0E94BC13F3
:101820008823B1F080914C0290E00196877099274F
:1018300080934C02E8CF0E94A41D10921B021092CC
:101840004C02E5E1F2E086E0DF011D928A95E9F7BE
:1018500067960FB6F894DEBF0FBECDBFDF91CF9174
:101860001F910F9108952091FB013091FC012817E1
:10187000390771F09093FC018093FB01E091C6025F
:10188000F091C702309721F00084F185E02D099492
:1018900008952091F9013091FA012817390771F064
:1018A0009093FA018093F901E091C602F091C7028A
:1018B000309721F00680F781E02D09940895E0919A
:1018C000C602F091C702309721F00190F081E02D1F
:1018D000099480E00895CF93DF938238910569F1F0
:1018E000B0F48133910509F46FC048F48932910551
:1018F00009F465C08A32910509F46BC08AC085334A
:10190000910509F457C089339105B9F082C0833E2F
:10191000910571F138F4803E9105B1F0823E910558
:1019200011F177C0863E9105B9F1873E9105C9F165
:10193000843E910509F06DC024C02091C40220FDB1
:1019400053C021FD51C065C08091C40280FD46C0D6
:101950008091C50280FF48C08091C40284FD4AC1C5
:1019600083EE90E049C18091C40282FF3AC0F4CF77
:101970008091C40282FD35C08091C50280FD34C0D3
:10198000EBCF8091C50281FF35C08091C40284FDF8
:1019900031C187EE90E030C18091C40283FF27C03F
:1019A000F4CF8091C40283FD22C08091C50281FDE5
:1019B00021C0EBCF8091C40285FD1FC021C0809162
:1019C000C40285FD1DC019C08091C40286FD1BC0E4
:1019D0001DC08091C40286FD19C015C089E390E046
:1019E0000BC182EE90E008C180EE90E005C186EE6A
:1019F00090E002C184EE90E0FFC089E290E0FCC07C
:101A000085E390E0F9C08AE290E0F6C081E390E0DF
:101A1000F3C0811532E5930708F069C0811541E5EF
:101A2000940728F0982F8827816F906AE5C0883E38
:101A3000910568F5803E910508F0DEC0883A910571
:101A4000B8F4853A910548F0855AE82FF0E0E5545E
:101A5000FE4F808190E09064CFC08130910509F401
:101A6000C6C008F4C7C08430910508F4C3C0C4C020
:101A70008F3B910508F0BEC0885AE82FF0E0EE0FCA
:101A8000FF1FE254FE4F808191819464B5C081159F
:101A900020E59207F0F09C0174E0369527957A9541
:101AA000E1F7922F9370482F437021E030E002C09D
:101AB000220F331F4A95E2F73C68392B8F70982F1D
:101AC0009695969540E2949FC0011124822B932B0A
:101AD00093C0811530E4930718F09F70906A8CC012
:101AE0009C013A9521153F4108F486C083C0EC0162
:101AF000C11586E5D807E8F5C11525E5D20748F0F8
:101B00008C2F0E945D0A8F7190E0982F8827906239
:101B100073C0C11534E5D30728F09C2F8827846F44
:101B2000906A6AC0AE01437055272C2F26952695E2
:101B3000C115D34578F481E090E002C0880F991F69
:101B40004A95E2F740E2249F90011124822B932BC7
:101B50009C6852C081E090E002C0880F991F4A95AE
:101B6000E2F740E2249F90011124822B932B9A6884
:101B700043C0C1152AE5D207F8F4C11539E5D307EA
:101B800090F08C2F8F700E945D0A94E0D695C795D7
:101B90009A95E1F7CF70D0E0DC2FCC27D0699E0179
:101BA000282BC90129C0C11548E5D40718F19C2F7D
:101BB0008827806F906A20C0C1158BE5D807D0F0C8
:101BC000CE01C1152CE5D20718F49927906614C0F0
:101BD00090568115904270F48D2F8F710E945D0A8E
:101BE000282F2F71CE0199279062922B05C081E09A
:101BF00090E002C080E090E0DF91CF91089581FFF6
:101C000003C0279A2F9A089527982F980895CF9365
:101C1000DF93EC010E94AF1DCE01805E9109089711
:101C200010F0209719F465E57DE102C060E47DE1E4
:101C3000CE01DF91CF910C94A00ACF93DF93EC01FA
:101C4000805E9109089710F0209719F460E67DE115
:101C500002C06BE47DE1CE010E94A00A8C2FDF91CF
:101C6000CF910C940B1E25982D9826982E989B01A9
:101C700022703327232B41F022E330E03093890098
:101C800020938800259A2D9A9B0124703327232BBB
:101C900041F022E330E030938B0020938A00269AB3
:101CA0002E9A9B0128703327232B41F025E030E04A
:101CB00030938B0020938A00269A2E9A9B012071E4
:101CC0003327232B41F025E030E030938900209327
:101CD0008800259A2D9A9B0120723327232B41F0EF
:101CE00025E030E03093890020938800259A2D9AD2
:101CF0009B0120743327232B41F025E030E0309303
:101D00008B0020938A00269A2E9A089580E290E014
:101D100090930801809307018091F00181110EC01A
:101D20000E94BA1E81E08093F0012FEF83ED90E3D3
:101D3000215080409040E1F700C0000064E670E070
:101D400080E40E94C01E9093080180930701892BB4
:101D500009F04EC064E670E080E00E94171F909387
:101D6000080180930701892B09F042C064E670E006
:101D700080E00E94171F9093080180930701892B30
:101D8000B9F564E670E08FE30E94171F9093080195
:101D900080930701892B61F50E946C1F64E670E057
:101DA00080E40E94C01E9093080180930701892B54
:101DB000F9F464E670E08CE00E94171F909308012C
:101DC00080930701892BA1F464E670E080E00E9413
:101DD000171F9093080180930701892B49F464E64B
:101DE00070E08FE30E94171F909308018093070112
:101DF0000E946C1F80910701089556985E9825985F
:101E00002D9826982E9827982F988FEF90E09093F2
:101E100089008093880090938B0080938A00909330
:101E20008D0080938C00259A2D9A2FEF80E792E009
:101E3000215080409040E1F700C00000269A2E9A81
:101E40002FEF80E792E0215080409040E1F700C002
:101E50000000279A2F9A2FEF80E792E021508040D0
:101E60009040E1F700C0000025982D982FEF80E703
:101E700092E0215080409040E1F700C00000269899
:101E80002E982FEF80E792E0215080409040E1F7BC
:101E900000C0000027982F9856985E9825982D9896
:101EA00026982E9827982F9808952098289821985A
:101EB000299822982A9823982B9852985A985398A0
:101EC0005B983E98469808958098889A8198899A58
:101ED00084988C9A85988D9A86988E9A87988F9AEE
:101EE00008950F931F93CF93DF93C42F122FFC01FC
:101EF00082818823C9F04093ED010E94E8109093FD
:101F0000F8018093F70180E28C0F883008F063C0FD
:101F1000C77081E001C0880FCA95EAF7DF91CF91C1
:101F20001F910F910C94601D8091ED0148133CC0EE
:101F30002091F7013091F8014FB7F8948091A402F5
:101F40009091A502A091A602B091A7024FBF821B5B
:101F5000930B883C910540F5D0E2D10FC117B9F041
:101F600080E28C0F883040F4C77081E001C0880F98
:101F7000CA95EAF70E94551DD83030F581E0912FBF
:101F8000977001C0880F9A95EAF70E94601D802F14
:101F90000E94A71ED830F8F4212F277081E001C0DD
:101FA000880F2A95EAF70AC080E28C0F883098F4EF
:101FB000C77081E001C0880FCA95EAF7DF91CF9121
:101FC0001F910F910C94551D802FDF91CF911F9180
:101FD0000F910C94A71EDF91CF911F910F9108953F
:101FE000CF92DF92EF92FF920F931F93CF93DF93E5
:101FF0008091070190910801892B91F08091F10166
:102000008F5F8093F10181110BC00E94860E90E0DA
:102010009093080180930701892B11F40E94FD0E13
:10202000C2EBD2E07E0100E010E057E0C52EC10E09
:10203000812F0E94CD0A8C2D0E94CD0A812F0E94F3
:10204000210BF7019081891721F08083DD24D3943F
:1020500001C0D12C8C2D0E94210BF701978189178B
:1020600019F0878381E001C080E0D82A0D290E9401
:10207000550F1F5FFFEFEF1AFF0A1730B1F60E94EE
:10208000E810AC016091F3017091F4019093F401B8
:102090008093F3019091F201292F30E0261B370B3A
:1020A000C901840F951F6BEF70E00E94B81FF82ED6
:1020B0008093F2012091F601222309F443C010928B
:1020C000F601E091A802F091A9029F01225F3F4F23
:1020D00010E04BEFE42EABEFB0E040814B3FC9F096
:1020E000642F70E0F41620F0AC01461B570B05C0BE
:1020F000AD01461B570B480F591F052E000C660BF0
:10210000770B4E3151056105710510F0E08201C079
:1021100011E03196E217F30701F71093F601011170
:1021200002C0111111C01092F501E091A802F091C6
:10213000A9029091F601A9ECB2E0AF01425F5F4FB6
:1021400080E007C00111EFCF8091F5018111EBCF45
:1021500015C029913C91321741F030813B3F21F469
:10216000F0822C9391E001C081E031961196E41742
:10217000F50779F79093F6018093F501802FDF91B1
:10218000CF911F910F91FF90EF90DF90CF90089526
:1021900020914C0290911B0256E02917A9F030E0E3
:1021A000529FF001539FF00D1124E45EFD4F7181A9
:1021B000761306C07081781303C07281741306C051
:1021C0002F5F3F4F2770E9CF80E0089581E00895A9
:1021D0002FB7F8948091A4029091A502A091A60235
:1021E000B091A7022FBF08951F920F920FB60F92C2
:1021F00011248F939F93AF93BF938091C802811155
:1022000013C08091A4029091A502A091A602B09162
:10221000A7024196A11DB11D8093A4029093A5022F
:10222000A093A602B093A702BF91AF919F918F9107
:102230000F900FBE0F901F9018959C012A5F3F4F83
:10224000FC014281461301C0128201968217930756
:10225000B9F708959C01FC0132969FEF80E041910F
:10226000461789F09F3F19F4411101C0982F8F5FE5
:102270008630A9F79F3F39F0F901E90FF11D97FD6D
:10228000FA95628308950895CF9384E090E00E94C8
:10229000701FC82F81E290E00E94701F2C2F30E049
:1022A000A901582BCA01CF9108956CEE7EEF80E012
:1022B00090E00E94A21F60E082E090E00E94841FF4
:1022C00060E083E090E00E94841F109289021092E7
:1022D0008A0210928B0210928C0260E084E090E0FF
:1022E0000E94841F60E081E290E00E94841F60E011
:1022F00085E090E00E94841F60E086E090E00E940C
:10230000841F6FEF87E090E00E94841F40E050E060
:10231000BA0188E090E00E94961F60E08DE090E0B6
:102320000E94841F40E050E0BA0188E190E00E94E2
:10233000961F60E087E190E00E94841F40E050E03B
:10234000BA018CE190E00E94961F60E080E290E08C
:102350000E94841F40E050E0BA0188E190E00E94B2
:10236000961F1092AE021092AF021092B00210921D
:10237000B10284E080618093AE024091AE02509140
:10238000AF026091B0027091B1028FE090E00E94C4
:10239000961F40E050E0BA0183E190E00C94961F54
:1023A000809188028111109288020895909187028D
:1023B00080918602892B20918502982F922B9093F1
:1023C0000B0280918802882389F0892B80930B026D
:1023D000EDE0F2E097E080E0915029F02191222396
:1023E000D9F38F5FF9CF81110E94D011E091C6021D
:1023F000F091C702309731F00280F381E02D8BE03D
:1024000092E0099408958F929F92AF92BF92DF92CB
:10241000EF92FF920F931F93CF93DF938090C002B0
:102420009090C102A090C202B090C3024091890274
:1024300050918A0260918B0270918C02842A952AB5
:10244000A62AB72ACFE1D0E026E0929F700111249E
:1024500094E5D92E082F10E0D501C4010C2E04C03C
:10246000B695A795979587950A94D2F780FD04C0F5
:10247000219790F780E014C0DC9EF001DD9EF00D06
:102480001124EE0DFF1DE00FF11FEE0FFF1FE05FA7
:10249000FE4F859194910E946B0C019749F38C2F0C
:1024A000DF91CF911F910F91FF90EF90DF90BF9040
:1024B000AF909F908F900895CF93DF93EC010E948F
:1024C000031224E5829FC0011124FC0126E0D29F63
:1024D000E00DF11D1124EC0FF11DEE0FFF1FE05F69
:1024E000FE4F859194910E946B0CDF91CF910895DE
:1024F000292F220F920F990F890F682F66956695E5
:102500006695982F977085E0689FB001112440E090
:1025100050E080E0FB01E40FF51FE35BFD4F2081FD
:1025200030E0092E02C0369527950A94E2F7217013
:102530003327042E01C0220F0A94EAF7822B4F5F43
:102540005F4F4530510531F70895292F220F920F23
:10255000990F890FE82FE695E695E695877051E08B
:1025600001C0550F8A95EAF785E0E89FF001112434
:10257000E35BFD4F20E030E070E04081CB01022EB4
:1025800002C0969587950A94E2F781708195842719
:102590008523842781932F5F3F4F2530310569F7CD
:1025A00008950E94330E6093C0027093C10280931D
:1025B000C2029093C3020C94961D0F931F9341E0A7
:1025C00050E060E070E004C0440F551F661F771FA5
:1025D0008A95D2F740955095609570958091C0028C
:1025E0009091C102A091C202B091C3028A019B01E5
:1025F000082319232A233B23C901B8011F910F91F6
:102600000C94D112209184028095822380938402BD
:10261000982F977079F430E0482F082E000C550B56
:102620002417350739F08595859585950E94DD122B
:102630001092840208950F931F9341E050E060E0F0
:1026400070E004C0440F551F661F771F8A95D2F7AC
:102650008091C0029091C102A091C202B091C302C8
:102660008A019B01082B192B2A2B3B2BC901B8018E
:102670001F910F910C94D1126093890270938A027A
:1026800080938B0290938C020C94961D80914C0247
:1026900090911B02891719F08F5F8770FBCF089507
:1026A0000F931F93CF93DF9380911A0282958F70BF
:1026B00009F05DC080911702882309F458C0809109
:1026C0004C0210911B026091150270911602C0918C
:1026D0001802D091190291E06F3F09F090E0292F84
:1026E00006E0811709F443C0209721F07F3F21F0D5
:1026F00030E003C031E001C0322F90E030FD34C043
:10270000089FF001099FF00D1124DF01A45EBD4F69
:1027100011963C911197371327C03C91361324C072
:1027200012963C91129731111FC013964D915C91F6
:1027300014974C1B5D0B483C5105B0F480911A0274
:102740008F70806180931A02EF5DFD4F80818F70E2
:102750008061808385E192E00E947603DF91CF91D2
:102760001F910F910C94461301968770BACFDF9199
:10277000CF911F910F9108958F929F92AF92BF9228
:10278000CF92DF92EF92FF920F931F93CF93DF933D
:10279000CDB7DEB761970FB6F894DEBF0FBECDBFE1
:1027A0008C0185E0F801DE011D9601900D928A955D
:1027B000E1F7D8011296EC90909115022091160243
:1027C00040911802509119024115510531F02F3FE7
:1027D00031F481E09F3F19F403C081E001C080E043
:1027E00080FD51C1F801D080C180A380B48085E113
:1027F000882E82E0982EF0901702B501641B750BAD
:10280000FF2009F4FDC080911A02382F307F683C08
:10281000710508F0C7C0311188C02C1112C09D117C
:1028200010C0FE2CE1100DC08F70806180931A02E1
:10283000C4010E94760380911A02D80115968C93E8
:102840004AC1A114B10439F0BFEFCB1206C081E038
:10285000DB1203C003C081E001C080E080FD03C043
:1028600081E08E2502C080E090E080FF10C04E2DF8
:102870006C2D8D2D0E94C810882349F085E192E0CF
:102880000E947603E5E1F2E086E0DF0193C0AB2829
:1028900039F0BFEFCB1206C081E0DB1203C003C0EA
:1028A00081E001C080E080FD03C081E08E2502C090
:1028B00080E090E0E82FE170BE2E80FF2CC04E2D0E
:1028C0006C2D8D2D0E94C810F82E811124C0DD863C
:1028D000CE868D859E850E945C12292F22952F70B1
:1028E000223018F0243090F405C09F7059F0811107
:1028F00009C0F1C09F7031F0D80115969C91907F6E
:1029000009F4E9C0805E883008F4E5C0C8010E947F
:102910007603FB2CE0C0FE2CEE2009F4DCC0809195
:102920001A02816080931A0248C02C1106C09D11C2
:1029300004C0E11002C0F80185C0C8010E946A1DF0
:10294000882351F1EE2041F120911A02822F8295C5
:102950008F7090E0029774F08091150290911602AA
:1029600098878F831986BB86AA862C87CE01079607
:102970000E94760386E0F801A5E1B2E001900D9295
:102980008A95E1F70E9450130AC02C15C1F0C801C6
:102990000E946A1D81111DC0C8010E947603FF2498
:1029A000F39499C03111F1CF85E192E00E94760352
:1029B00086E0D4011D928A95E9F7F12C8CC09D1117
:1029C000E6CFE110E4CFF8018583C8010E947603C9
:1029D00054C0EE2009F320911A02822F82958F7045
:1029E00090E002973CF280911502909116029A8332
:1029F00089831B82BD82AC822E83CE010196B8CF23
:102A0000683C7105D0F5FE2CEE2031F22C1127C068
:102A10009D1125C020911A0220FD18C0822F829599
:102A20008F70482F50E04115510581F0F801258342
:102A30004F30510541F08F5F982F9295907F822FF4
:102A40008F70892B8583C8010E94760386E0F80188
:102A5000A5E1B2E001900D928A95E1F73CC0C80172
:102A60000E946A1D811186CF80911A028160809335
:102A70001A02C8010E9476032EC086E0D4011D927E
:102A80008A95E9F728C0EE2009F486CFC8010E9494
:102A90006A1DF82E882309F47FCF86E0F801A5E1AE
:102AA000B2E001900D928A95E1F780911502909124
:102AB00016020E945C1292959F70963051F4863FE8
:102AC00041F08091140291E0892780931402909341
:102AD00013020E9450138F2D61960FB6F894DEBF3B
:102AE0000FBECDBFDF91CF911F910F91FF90EF905F
:102AF000DF90CF90BF90AF909F908F900895EF920E
:102B0000FF920F931F93CF93DF937C018B010E9461
:102B10007E1A811119C0E70101151105A1F08091FC
:102B2000E80085FD0AC08091E8008E778093E80078
:102B30000E947E1A882381F307C089918093F10057
:102B400001501109E9CF80E0DF91CF911F910F91E2
:102B5000FF90EF9008951F93CF93DF93CDB7DEB72B
:102B6000AA970FB6F894DEBF0FBECDBFECE9F2E036
:102B70008091F100819322E0E43AF207C9F7809155
:102B80009D02833009F460C030F4813071F08230EE
:102B900009F49AC0B1C08A3009F486C08B3009F4B8
:102BA0006BC0893009F0A8C020C080919C02813A96
:102BB00009F0A2C08091E800877F8093E8008091AF
:102BC000A0029091A102892B21F468E080E992E0B3
:102BD00003C060E080E090E070E00E94051B8091FF
:102BE000E8008B778093E80087C080919C02813257
:102BF00009F082C08091A0029091A102029708F092
:102C00007BC08091E800877F8093E8008091E80096
:102C100082FD05C080919A028111F8CF6DC020918C
:102C2000F3008091F20090E0922B029729F48091BA
:102C3000F1008B7F813021F48091F10080938F022D
:102C40008091E8008B7754C080919C02813A09F012
:102C500053C08091A0029091A102892B09F04CC031
:102C60008091E800877F8093E8008091E80080FFF2
:102C7000FCCF8091060137C080919C028132E1F542
:102C80008091A0029091A102892BB1F58091E8007A
:102C9000877F8093E8000E94B11A80919E02809302
:102CA00006010E94A41D28C080919C02813221F55A
:102CB0008091E800877F8093E8000E94B11A80919C
:102CC0009F0280938E0218C080919C02813AA1F4E9
:102CD0008091E800877F8093E8008091E80080FF82
:102CE000FCCF80918E028093F1008091E8008E7776
:102CF0008093E8000E94B11A8091E80083FFCCC164
:102D000080919C0290919D02492F50E04A305105DC
:102D100008F0C2C1FA01E059FF4F0C94CC1F803873
:102D200021F0823809F0B8C108C0809198029091D2
:102D30009902992389F082600FC08091A0028F7060
:102D4000873008F0A9C18093E9008091EB0085FBF2
:102D5000882780F91092E9009091E800977F90937E
:102D6000E8008093F1001092F10065C1282F2D7FBB
:102D700009F092C1882319F0823061F08DC18091F1
:102D80009E02813009F088C1933009F080E0809381
:102D900099022EC080919E0281112AC08091A002CA
:102DA0008F702FEF280F263008F076C18093E9004E
:102DB0002091EB0020FF1CC0933021F48091EB00A8
:102DC000806214C09091EB0090619093EB0021E041
:102DD00030E0A90102C0440F551F8A95E2F74093E5
:102DE000EA001092EA008091EB0088608093EB008B
:102DF0001092E9008091E800877F20C181114CC1C9
:102E000010919E021F778091E3008078812B809340
:102E1000E3008091E800877F8093E8000E94B11A68
:102E20008091E80080FFFCCF8091E3008068809370
:102E3000E300111102C082E001C083E080939A0296
:102E40002BC18058823008F027C180919E0290915A
:102E50009F028C3D53E0950779F583E08A838AE2EF
:102E600089834FB7F894DE01139620E03EE051E2EB
:102E7000E32FF0E050935700E49120FF03C0E29568
:102E8000EF703F5FEF708E2F90E0EA3010F0C79642
:102E900001C0C0968D939D932F5F243149F74FBF9A
:102EA0008091E800877F8093E8006AE270E0CE01BD
:102EB00001960E94051BAEC04091A0025091A10254
:102EC000292F332723303105A9F068F4213031054B
:102ED00009F4F1C02230310509F0DEC08BE390E047
:102EE000EAE1F6E044C02132310521F12232310518
:102EF00071F1D2C0992781309105A1F058F0029765
:102F000009F0CAC0E7E6F6E0E4918E2F90E0E7E62C
:102F1000F6E02AC0E9EAF6E0E4918E2F90E0E9EAD3
:102F2000F6E022C0EFE7F6E0E4918E2F90E0EFE7C5
:102F3000F6E01AC04115510509F4C2C041305105EF
:102F400009F0AAC089E090E0E5E4F6E010C0411580
:102F5000510509F4BAC04130510509F09DC082E322
:102F600090E0E8EAF5E003C0009709F495C02091ED
:102F7000E800277F2093E8002091A2023091A3026D
:102F80008217930708F49C0140E02115310589F16F
:102F900080919A02882309F43DC08530D9F180914F
:102FA000E80083FD37C08091E80082FD2FC080914A
:102FB000E80080FFEACF4091F3008091F20090E0BA
:102FC000942B2115310559F08830910540F4449136
:102FD0004093F1003196215031090196F2CF41E042
:102FE000089709F040E08091E8008E778093E80030
:102FF000CCCF4111CDCF0AC080919A02882351F0E5
:10300000853041F08091E80083FD04C08091E800A4
:1030100082FFF2CF8091E8008B778093E8003CC07C
:103020008038D1F58091E800877F8093E800809117
:103030009B028093F1008091E8008E778093E800F6
:103040000E94B11A29C0811127C080919E029091DF
:103050009F029927029704F58091E800877F80936B
:10306000E80010919E0210939B020E94B11A111168
:1030700006C08091E30087FD02C081E001C084E0CA
:1030800080939A0242E061EC81E00E94D01A42E211
:1030900061EC82E00E94D01A8091E80083FF1AC0A0
:1030A0008091E800877F8093E8008091EB00806248
:1030B0008093EB000FC082E190E0E5E5F6E057CFAA
:1030C00089E090E0ECE2F6E052CF80E490E0EAEDB7
:1030D000F5E04DCFAA960FB6F894DEBF0FBECDBF78
:1030E000DF91CF911F9108951F920F920FB60F920B
:1030F00011242F933F934F935F936F937F938F93FD
:103100009F93AF93BF93CF93DF93EF93FF93C091C0
:10311000E900CF708091EC00D82FD17080FDD0E80D
:103120001092E9008091F000877F8093F0007894FE
:103130000E94AB151092E9008091F00088608093A6
:10314000F000CD2BCF70C093E900FF91EF91DF919C
:10315000CF91BF91AF919F918F917F916F915F912F
:103160004F913F912F910F900FBE0F901F90189588
:10317000E8EDF0E080818E7F80831092E200109273
:10318000DA001092E100A0EEB0E08C9181608C93A7
:1031900080818F77808319BCA7EDB0E08C918E7F02
:1031A0008C9380818F7E808310928D020895CF92C0
:1031B000DF92EF92FF920F931F93CF93DF93C8EDAF
:1031C000D0E088818F7E8883E7EDF0E080818160A8
:1031D000808384E082BF81E080938D0288818E7F2E
:1031E000888302EE10E0F80110821092DA0081EE7E
:1031F000C82ED12CF601108288818F778883888130
:103200008068888388818F7D888319BC10929A0298
:1032100010929B02109299021092980290EEE92E61
:10322000F12CF70180818B7F808388818160888386
:1032300042E060E080E00E94D01AF60180818E7F3B
:103240008083F801808181608083808188608083B1
:10325000F70180818E7F8083888180618883DF9100
:10326000CF911F910F91FF90EF90DF90CF90089535
:103270001F920F920FB60F9211242F933F934F93EB
:103280005F936F937F938F939F93AF93BF93EF93CE
:10329000FF938091E10082FF09C08091E20082FFEC
:1032A00005C08091E1008B7F8093E1008091DA007E
:1032B00080FF2AC08091D80080FF26C08091DA006C
:1032C0008E7F8093DA008091D90080FF18C080E162
:1032D00089BD82E189BD09B400FEFDCF81E0809304
:1032E0009A0280918D0281110FC00E94B8180E942D
:1032F000D7188091E20084608093E20005C019BC79
:1033000010929A0210928D028091E10080FF17C006
:103310008091E20080FF13C08091E2008E7F809355
:10332000E2008091E20080618093E2008091D80009
:1033300080628093D80019BC85E080939A028091C6
:10334000E10084FF34C08091E20084FF30C080E15E
:1033500089BD82E189BD09B400FEFDCF8091D8000E
:103360008F7D8093D8008091E1008F7E8093E10073
:103370008091E2008F7E8093E2008091E200816084
:103380008093E20080919B02882311F084E007C0C3
:103390008091E30087FD02C081E001C083E080935B
:1033A0009A020E94A41D0E945F0C0E94FF0D809152
:1033B000E10083FF27C08091E20083FF23C080915A
:1033C000E100877F8093E10082E080939A0210926F
:1033D0009B028091E1008E7F8093E1008091E2006A
:1033E0008E7F8093E2008091E20080618093E20012
:1033F00042E060E080E00E94D01A8091F000886096
:103400008093F000FF91EF91BF91AF919F918F91C9
:103410007F916F915F914F913F912F910F900FBED0
:103420000F901F901895089580918F020895CF9363
:10343000DF9300D01F92CDB7DEB790919A029430FF
:1034400019F589837B836A8382E08093E9008FEF9B
:103450009091E800815095FD06C095ED9A95F1F7A1
:1034600000008111F5CF8091E80085FF0DC040E09C
:1034700050E063E070E0CE0101960E947F158091DC
:10348000E8008E778093E8000F900F900F90DF9107
:10349000CF910895BC0184E00C94171ABC0183E01D
:1034A0000C94171ACF93DF9321E02093E9002FEFBC
:1034B0003091E800215035FD06C035ED3A95F1F721
:1034C00000002111F5CF2091E80025FF14C0EC0188
:1034D00040E050E068E070E00E947F158091E800D5
:1034E0008E778093E80088E0FE01A0E9B2E00190C9
:1034F0000D928A95E1F7DF91CF9108952091E40034
:103500003091E50095E64091EC00842F817040FFFA
:1035100023C08091E80080FD1DC080919A0288231D
:1035200099F0853099F08091EB0085FD11C04091B4
:10353000E4005091E5002417350729F3915011F06C
:103540009A01E1CF84E0089582E0089583E0089530
:1035500081E0089580E008954091E80042FFDDCFCA
:10356000089580919C0287FF11C08091E80082FD40
:1035700005C080919A028111F8CF11C08091E800B6
:103580008B770BC080919A02882349F08091E800E4
:1035900080FFF8CF8091E8008E778093E80008954F
:1035A000982F973068F59093E900981739F070914B
:1035B000EC002091ED005091F00003C0242F762FF5
:1035C00050E021FD02C09F5FECCF3091EB003E7FC9
:1035D0003093EB003091ED003D7F3093ED00309162
:1035E000EB0031603093EB007093EC002093ED0022
:1035F0005093F0002091EE0027FDE5CF80E0089584
:103600008F708093E90081E008952091A2023091AB
:10361000A3022617370748F06115710539F4209188
:10362000E8002E772093E80001C0B901FC0120E0FA
:103630006115710579F180919A028823F1F1853045
:10364000F1F18091E80083FD3CC08091E80082FDAB
:103650002EC08091E80080FFEBCF2091F300809195
:10366000F20090E0922B6115710551F088309105C0
:1036700038F421912093F100615071090196F3CF44
:1036800021E0089709F020E08091E8008E77809390
:10369000E800CECF2111CFCF0AC080919A028823B3
:1036A00061F0853061F08091E80083FD0AC080916F
:1036B000E80082FFF2CF80E0089582E0089583E081
:1036C000089581E0089578941F920F920FB60F929B
:1036D00011248F939F93AF93BF938091A4029091F5
:1036E000A502A091A602B091A7020196A11DB11D4D
:1036F0008093A4029093A502A093A602B093A70280
:10370000BF91AF919F918F910F900FBE0F901F901F
:103710001895CF93DF93CDB7DEB72A970FB6F894FD
:10372000DEBF0FBECDBF84B7877F84BF0FB6F894CE
:10373000A89580916000886180936000109260007D
:103740000FBE90E080E80FB6F894809361009093EC
:1037500061000FBE85B7806885BF85B7806885BF6B
:103760000E94B8180E94D7188091E200846080936C
:10377000E200789480919A028823A1F01091E900E8
:103780001F709091EC00892F817090FD80E8182BBC
:103790001092E9008091E80083FD0E94AB151F7034
:1037A0001093E90082E084BD93E095BD9AEF97BD48
:1037B00080936E000E94860E90E0909308018093A3
:1037C00007010E94550F0E94640FE2EBF2E0A9ECA2
:1037D000B2E011921D9222E0E03CF207D1F78EE0B8
:1037E00090E00E94D21F8093A8029093A902FC014E
:1037F0000E962BEF2193E817F907E1F780E090E0B0
:103800000E947E1F8C3E9E4F11F00E9455118CE04D
:1038100090E00E94701F90E0A0E0B0E08093AA02C8
:103820009093AB02A093AC02B093AD0289EA80936F
:10383000800089E08093810024982C983F988AB179
:103840008F7C8AB96E98479A8BB180638BB9769AD0
:103850008FE090E00E94781F6093AE027093AF02F9
:103860008093B0029093B10267708FEF689FB001B0
:1038700011247595679575956795772770938900DD
:103880006093880070938B0060938A0070938D0022
:1038900060938C000E94FD0E80E090E00E947E1FED
:1038A0008C3E9E4F11F00E94551182E090E00E94E4
:1038B000701F8093D8020E9444119093C502809398
:1038C000C40283E090E00E94701F682F70E080E0E7
:1038D00090E00E943C136091C0027091C1028091FF
:1038E000C2029091C3020E94330E89E091E090934E
:1038F000C7028093C602EE24EA9487EDC82E82E0C8
:10390000D82E90E1892E22E1922E38E1A32EB12CFF
:1039100040E4742E80919A02853009F04AC080916B
:103920009A02843021F11092C8020FB6F894A8953B
:10393000A09260000FBE7092600080E00E94FF0DB8
:1039400083B7817F846083BF83B7816083BF7894AE
:10395000889583B78E7F83BF0FB6F894A895809122
:103960006000886180936000109260000FBE8091BB
:103970009902882309F4CECF0E94860E90E090939E
:103980000801809307010E94550F0E94640FE9EC23
:10399000F2E0119282E0E73DF807D9F70E94F00FBC
:1039A000E9ECF2E08191811157C0CE16DF06D1F724
:1039B000B1CF0E94F00FE9EDF2E0A9ECB2E000E037
:1039C00010E0302F2D919191922721F180E0FF247A
:1039D000F3944F2D4923D1F089833A832F2181E03D
:1039E00009F480E08B830E94E8108160782F9D832A
:1039F0008C8349815A816B818D810E94580BF8011B
:103A0000E752FD4F8081F826F08218C08F5FFF0CCF
:103A10008630F9F60F5F1F4F0E30110591F6EE82DA
:103A2000EF8218860E94E8108160782F9A87898734
:103A30004E815F8168858A850E94580B0E945F0CC9
:103A40009091D702891709F465CF0E945F0C80938B
:103A5000D7020E94FF0D5ECF89BC99BC09B400FE5D
:103A6000FDCF8091D8008F7D8093D8008091E000B9
:103A700082608093E0008091E00081FDFCCF4ACF1E
:103A8000882341F080959091860289238093860255
:103A90000C94D6110895882339F090918602892BD1
:103AA000809386020C94D6110895882341F0809566
:103AB000909187028923809387020C94D6110895F0
:103AC000882339F090918702892B809387020C9488
:103AD000D6110895FC01808191810E945C12292FEA
:103AE0002F70E92FE295EF704E2F50E0FA013297D8
:103AF000EE30F105B8F4E658FF4F0C94CC1F803F30
:103B000099F018F4883E70F40FC0843F59F40CC04B
:103B1000883E50F0813F31F407C0822F869586950C
:103B20008695089580E0089581E0089510928602B8
:103B3000109285020E94D61180E090E00E94490C0C
:103B400080E090E00C94330C1092870286E0EDE068
:103B5000F2E0DF011D928A95E9F70C94961D882307
:103B600009F458C0682F823869F40E945F0C81FF05
:103B700051C069E38BE092E00E942A110E94D611A5
:103B800069E30EC0833891F40E945F0C80FF42C04D
:103B900063E58BE092E00E942A110E94D61163E552
:103BA0008BE092E00E941D110C94D611843869F4C8
:103BB0000E945F0C82FF2EC067E48BE092E00E94BF
:103BC0002A110E94D61167E4EBCF8CEF860F813A61
:103BD00038F380E2860F883070F4677081E090E0FF
:103BE00001C0880F6A95EAF7809590918702892332
:103BF00080938702D9CF8BE5860F833020F480E055
:103C000090E00C94490C685A673120F480E090E011
:103C10000C94330C0895CF93882309F496C0C82FD1
:103C20008238B1F40E945F0C81FD8FC069E38BE0A4
:103C300092E00E942A110E94D6112FEF81EE94E0AB
:103C4000215080409040E1F700C0000069E317C0B8
:103C50008338E1F40E945F0C80FD77C063E58BE060
:103C600092E00E942A110E94D6112FEF81EE94E07B
:103C7000215080409040E1F700C0000063E58BE0F8
:103C800092E00E941D11CF910C94D6118438B1F4AA
:103C90000E945F0C82FD59C067E48BE092E00E94B5
:103CA0002A110E94D6112FEF81EE94E0215080401E
:103CB0009040E1F700C0000067E4E1CF8CEF8C0F8B
:103CC000813A80F4EDE0F2E083E192E02191C217C5
:103CD000A1F18E179F07D1F76C2F8BE092E00E9425
:103CE0002A11D1CF80E28C0F883068F4C77081E050
:103CF00090E001C0880FCA95EAF790918702892B5E
:103D000080938702C0CFEBE5EC0FE33040F4F0E0A6
:103D1000E554FE4F808190E0CF910C94490CC85A35
:103D2000C73198F4EC2FF0E0EE0FFF1FE254FE4F86
:103D300080819181CF910C94330C6C2F8BE092E0B9
:103D40000E941D110E94D611C7CFCF910895CF9325
:103D5000C82F0E940B1EC93349F42FEF87EE93E062
:103D6000215080409040E1F700C000008C2FCF919F
:103D70000C94AF1D1092B9008CE08093B8000895A8
:103D8000EF92FF920F931F93CF93DF93182FEB01C6
:103D90001092BC0084EA8093BC000E94E8107C0171
:103DA0008091BC0087FD0EC0CF3F8FEFD807C1F3D5
:103DB0000E94E8108E199F098C179D0788F38EEFDB
:103DC0009FEF2EC08091B900887F883041F08091AC
:103DD000B900887F803119F08FEF9FEF21C01093D9
:103DE000BB0084E88093BC000E94E8108C018091A5
:103DF000BC0087FD0CC0CF3F8FEFD807C1F30E94F6
:103E0000E810801B910B8C179D0788F3D8CF809109
:103E1000B900887F883111F08034F1F680E090E0BD
:103E2000DF91CF911F910F91FF90EF9008950F9325
:103E30001F93CF93DF93EB018093BB0084E88093C3
:103E4000BC000E94E8108C018091BC0087FD0EC070
:103E5000CF3F8FEFD807C1F30E94E810801B910B72
:103E60008C179D0788F38EEF9FEF0CC02091B9004F
:103E7000287F81E090E0283211F480E090E0919575
:103E800081959109DF91CF911F910F9108950F9323
:103E90001F93CF93DF93EC0184E88093BC000E94D2
:103EA000E8108C018091BC0087FD0EC0CF3F8FEFE2
:103EB000D807C1F30E94E810801B910B8C179D0757
:103EC00088F38EEF9FEF03C08091BB0090E0DF91FD
:103ED000CF911F910F91089584E98093BC000895BC
:103EE000F999FECF92BD81BDF89A992780B50895C2
:103EF000A6E1B0E044E050E00C94AA1FA8E1B0E0D5
:103F000042E050E00C94AA1F262FF999FECF92BDF3
:103F100081BDF89A019700B4021639F01FBA20BD8E
:103F20000FB6F894FA9AF99A0FBE08950396272FC0
:103F30000E94851F0E94841F252F0E94851F242F09
:103F40000C94851F0196272F0E94851F0C94841FB7
:103F5000DC01CB01FC01F999FECF06C0F2BDE1BD49
:103F6000F89A319600B40D9241505040B8F7089538
:103F7000AA1BBB1B51E107C0AA1FBB1FA617B7078F
:103F800010F0A61BB70B881F991F5A95A9F78095AB
:103F90009095BC01CD010895EE0FFF1F0590F4919F
:103FA000E02D09940F931F93CF93DF9382309105F7
:103FB00010F482E090E0E091E902F091EA0220E062
:103FC00030E0A0E0B0E0309719F1408151810281EA
:103FD000138148175907C8F08417950769F410979B
:103FE00031F012960C93129713961C9327C00093EE
:103FF000E9021093EA0222C02115310519F0421797
:10400000530718F49A01BD01EF01DF01F801DBCF7E
:1040100021153105F9F0281B390B2430310580F4C6
:104020008A819B816115710521F0FB019383828355
:1040300004C09093EA028093E902FE01329644C0E4
:10404000FE01E20FF31F81939193225031093983CE
:1040500028833AC02091E7023091E802232B41F4F3
:1040600020910201309103013093E8022093E7028E
:1040700020910001309101012115310541F42DB746
:104080003EB74091040150910501241B350BE0918E
:10409000E702F091E802E217F307A0F42E1B3F0BB2
:1040A0002817390778F0AC014E5F5F4F24173507AA
:1040B00048F04E0F5F1F5093E8024093E702819350
:1040C000919302C0E0E0F0E0CF01DF91CF911F912A
:1040D0000F910895CF93DF93009709F481C0FC01FD
:1040E000329713821282A091E902B091EA021097EE
:1040F00081F420813181820F931F2091E70230915A
:10410000E8022817390751F5F093E802E093E70237
:1041100067C0ED0120E030E0CE17DF0740F44A81B0
:104120005B819E0141155105F1F0EA01F5CFD38382
:10413000C28340815181840F951FC817D90759F454
:1041400088819981840F951F0296918380838A814B
:104150009B81938382832115310529F4F093EA0230
:10416000E093E9023DC0E901FB83EA83499159915B
:10417000C40FD51FEC17FD0761F480819181840F76
:10418000951F0296E90199838883828193819B839D
:104190008A83E0E0F0E012968D919C91139700974E
:1041A00019F0FD01DC01F7CF8D919C9111979D01D4
:1041B0002E5F3F4F820F931F2091E7023091E8025C
:1041C0002817390769F4309729F41092EA021092FF
:1041D000E90202C013821282B093E802A093E702C0
:0A41E000DF91CF910895F894FFCF0E
:1041EA000000EB022000012000141A521A131A4E82
:1041FA001A4A1A000D010D020D030D040D050D00DA
:10420A000C010C020C030C040C050C000B010B0234
:10421A000B030B040B050B000A010A020A030A042A
:10422A000A050A0009010902090309040905090026
:10423A000801080208030804080508000701070224
:10424A00070307040705070006010602060306041A
:10425A000605060005010502050305040505050016
:10426A000401040204030404040504000301030214
:10427A00030303040305030002010202020302040A
:10428A000205020001010102010301040105010006
:10429A000001000200030004000500818283E2009D
:1042AA00E900EA00B500B600B700CD008301CC00F2
:1042BA008A01920194012102230224022502260284
:0C42CA0027022A02B300B4006F0070004D
:00000001FF
