:100000000C944C040C9469040C9469040C946904D9
:100010000C9469040C9469040C9469040C946904AC
:100020000C9469040C9469040C9421200C945D1FB9
:100030000C9411170C9469040C9469040C946904D1
:100040000C9469040C9469040C9469040C9469047C
:100050000C9469040C94D0160C9469040C946904F3
:100060000C9469040C9469040C9469040C9469045C
:100070000C9469040C9469040C9469040C9469044C
:100080000C9469040C9469040C9469040C9469043C
:100090000C9469040C9469040C9469040C9469042C
:1000A0000C9469040C9469040C94690467056A054E
:1000B0006D05700573057605790509130913441359
:1000C00044139413D3156215D315B6139414A614C0
:1000D000A6146F159E1577157A1585157F15881549
:1000E000681D8F1D351F8F1D351FD71DFA1D351F2C
:1000F000E91EFD1EE424E424F724F724ED24F7246C
:10010000F724F724E424E424F224F724F724F22447
:100110000400080000001200080000004C5D2D00E3
:1001200000005A5D2D00000028002C00000000D0C7
:10013000D0D0D0D0D0010102040810204142444860
:1001400048000000484850608182848890A0C1C265
:10015000C4D0D0D0D0D0D0C8000000000000000033
:100160000000000000000000000000000000290066
:100170002B003962E000135000001E001400040040
:100180001D00E20028001F001A0016001B00E300FB
:100190004C00200008000700060050002A00210043
:1001A0001500090019004F002C00220017000A005A
:1001B000050000004A00025830000000015800000D
:1001C000175002583200000001580000165023005A
:1001D0001C000B00110000004D00240018000D0051
:1001E000100051004B0025000C000E00360052009C
:1001F0002C00260012000F003700E700280027001F
:10020000130033003800E6004E0049002F00397219
:10021000E40034000000010001005300010001006F
:1002200000003A00241464002514010001003B0082
:10023000201464023702010001003C002114220056
:100240002214010001003D002E142D002D14010088
:1002500001003E0023142E002714000001003F007F
:1002600008140000010000000100400037000000F9
:10027000010000000100410056005700630000002B
:10028000010042005F005C005900010001004300D2
:1002900060005D005A0001000100440061005E0042
:1002A0005B000100010045005500540062000100A0
:1002B000010001003402530001003500000001007C
:1002C00001000100010065000000A8004B004E0085
:1002D000160101000100AA004A0050001B010100A4
:1002E0000100A90052005100060101000100BE00FA
:1002F0004D004F00190101000100BD002903160A3D
:100300001A01000001000100295D00001C0100002D
:100310002B5D0100B3000000B200000001000100ED
:1003200001000100010000000100010001000100C6
:1003300001000100010001000100010001000100B5
:1003400001000100010001000100010001000100A5
:100350000100010001000100010001000100010095
:10036000010001000000290004583962E000035335
:1003700000003A0006000F000900E20000003B0008
:1003800013000C001C00E3004C003C0012000800AD
:10039000140050002A003D00190015000B004F000A
:1003A00000003E001A00325D3E5D000000003F008C
:1003B0000000000005580000175040000000000039
:1003C00005580000165041000D00335D4D5D0000E2
:1003D00000004200070017000A005100000043001F
:1003E00018001600050052002C0044001B000400F9
:1003F0000E00E70028004500100011001D00E60077
:100400000000490004583962E000000000000100CB
:1004100001000100010001000000010030000000A7
:1004200000000100010001002D5D2C5D00000100B5
:10043000010001002E5D3800415D01000100010056
:1004400012113400425D0100010001002B5D2A5DA4
:100450000000000001000100010000000100000098
:100460000100010001000000010000000100010086
:1004700011132E11000000000100010064000000B3
:10048000435D0100010001002F5D405D445D0100FE
:1004900001000100305D3200455D010001000100F6
:1004A00010110000371101000100010001000100DE
:1004B0000100010000000100010001000100010035
:1004C000000001004B5D3D5D475D01000100010042
:1004D0004A5D3F5D485D010001000100345D365D0D
:1004E000385D010001000100355D375D395D0100B7
:1004F000010001003C5D3B5D3A5D00000100010030
:1005000001000000010000000100010001000000E6
:1005100001000000010001005A5D2D004C5D00004B
:1005200001000100565D535D505D010001000100B6
:10053000575D545D515D010001000100585D555D3E
:10054000525D0100010001005B5D595D4F5D0100DE
:100550000100010001000100010001000000000095
:10056000000000000000000000000000000000008B
:10057000000000000000015A075A085A000000005D
:10058000105A025A095A0A5A000000000F5A035A18
:100590000B5A0C5A000000000000045A0D5A0E5A63
:1005A000000000000000055A115A00000000000081
:1005B0001050065A165A00002A0000000653235A0B
:1005C0001A5A1B5A000000000000245A1C5A1D5AD7
:1005D000000000000000255A1E5A1F5A00000000AB
:1005E000195A265A205A215A00000000185A275A30
:1005F000225A295A000000000000000000000000FC
:1006000000000000000029002B00E100E000135072
:1006100000001E00140004001D00000000001F0068
:100620001A0016001B000000000020000800070050
:10063000060011002C0021001500090019000851C6
:10064000000022002300240025000000000000001C
:100650001000000000000000075300000000000030
:100660000000000016500000000000000000000024
:10067000000000000000000000000000000000007A
:10068000000000000000000000000000000000006A
:10069000000000000000000000000000000000005A
:1006A0000000000000000000000000000000010049
:1006B000010001000100010000003A0001000100FA
:1006C0000100010001003B000100010001000100E8
:1006D00001003C00010001000100010001003D009B
:1006E0000100010001000100010001000100010002
:1006F00001000000010001000100000001000000F5
:1007000001000100010000000100000001000100E3
:1007100001000100010000000100010001000100D2
:1007200001000100010001000100010001000100C1
:1007300001000100010001000100010001000100B1
:1007400001000100010001000100010001000100A1
:1007500001000100000005010980A10185031901C4
:100760002AB700150126B700950175108100C00554
:100770000C0901A101850419012AA002150126A076
:1007800002950175108100C005010906A101050748
:1007900019E029E7150025019508750181029501E9
:1007A000750881010507190029FF150026FF00952E
:1007B000067508810005081901290595057501913F
:1007C00002950175039101C009027800040100A09F
:1007D000FA090400000103010100092111010001CF
:1007E0002240000705810308000A090401000103F3
:1007F00000000009211101000122320007058203D7
:1008000020000A080B020202020100090402000192
:10081000020201000524001001042402020524063E
:100820000203070583030800FF09040300020A000E
:1008300000000705050210000507058402100005E9
:1008400012011001EF020108973274490100010200
:10085000000116034500720067006F0044006F003E
:100860007800200045005A00000028035A00530079
:100870004100200054006500630068006E006F00B6
:100880006C006F006700790020004C00610062007E
:10089000730000000403090411241FBECFEFDAE047
:1008A000DEBFCDBF12E0A0E0B1E0E8E9F2E502C0B2
:1008B00005900D92A63FB107D9F724E0A6EFB2E06C
:1008C00001C01D92A438B207E1F70E9425220C94C2
:1008D0004A290C940000BC0140911C0380911B0329
:1008E000942F981731F1292F30E0F901EE0FFF1FF7
:1008F000EF5EFC4F0190F081E02DE617F707A1F4C1
:1009000086E0869FF001879FF00D1124E55FFE4F82
:1009100080818160808394130CC02F5F3F4F2370D0
:10092000332720931C0308952F5F3F4F922F93701E
:10093000D8CF089510921A0310921903A7E0B1E0DE
:1009400020E030E096E0929FF001939FF00D11249B
:10095000E55FFE4F808181FD05C08E7F8083159607
:100960001C9215972F5F3F4F16962530310559F78A
:10097000089590915B0492FF0DC0282F28712830B4
:1009800019F4877F846006C0282F2471243011F465
:100990008B7F886093FF0DC0282F2871283119F4B0
:1009A000877E846106C0282F2471243111F48B7E48
:1009B000886120915C0420FF0DC0382F38713830D9
:1009C00019F4877F816006C0382F3171313011F4FE
:1009D0008E7F886021FF0DC0282F2871283119F4DF
:1009E000877E816106C0282F2171213111F48E7E0E
:1009F000886194FD877E08959C013A9521153F41B9
:100A000038F5DC01AA27B270AC01442754709C0170
:100A10002227387094FF0FC090FF02C080E101C010
:100A200080E0AB2B09F08062452B09F08064232B1A
:100A300069F080680BC0892F8170AB2B09F0826050
:100A4000452B09F08460232B09F08860FB01099491
:100A50000895CF93E82F873080F58091EE01909133
:100A6000EF01892B09F047C0CE2F64E670E080E4E7
:100A70000E940B279093EF018093EE01892BD1F414
:100A800064E670E082E10E9462279093EF01809318
:100A9000EE01892B79F481E090E001C0880FCA95BE
:100AA000EAF764E670E080950E9462279093EF0178
:100AB0008093EE01CF910C94B72790E0FC0137971B
:100AC000E730F105C0F4EA5AFF4F0C942328209A2E
:100AD000289811C0219A29980EC0229A2A980BC0F2
:100AE000239A2B9808C0529A5A9805C0539A5B983B
:100AF00002C03E9A4698CF910895CF93873040F533
:100B00008091EE019091EF01892B59F564E670E038
:100B100081E40E940B279093EF018093EE01892BD3
:100B200011F0C0E011C084E690E00E94922797FF88
:100B300005C09093EF018093EE01F3CFC82FC095CD
:100B40001092EF011092EE010E94B7278C2F0AC07D
:100B50009FB18FB1807F869586959370892B809504
:100B600001C080E0CF9108952091010330910203EC
:100B70002817390771F09093020380930103E091E5
:100B80005E04F0915F04309721F00084F185E02D40
:100B9000099408952091FF02309100032817390726
:100BA00071F0909300038093FF02E0915E04F09156
:100BB0005F04309721F00680F781E02D09940895B5
:100BC000E0915E04F0915F04309721F00190F08194
:100BD000E02D099480E0089586E0E0E8F3E0DF018D
:100BE000982F1D929A95E9F7E6E8F3E0DF011D9250
:100BF0008A95E9F70895CF93C82F0E94EC05C0931A
:100C00005D046C2F8DE090E0CF910C94CF27CF93B3
:100C1000DF938238910569F1B0F48133910509F4CD
:100C20006FC048F48932910509F465C08A32910594
:100C300009F46BC08AC08533910509F457C0893324
:100C40009105B9F082C0833E910571F138F4803E80
:100C50009105B1F0823E910511F177C0863E910574
:100C6000B9F1873E9105C9F1843E910509F06DC047
:100C700024C020915B0420FD53C021FD51C065C0FC
:100C800080915B0480FD46C080915C0480FF48C079
:100C900080915B0484FD4AC183EE90E049C180915C
:100CA0005B0482FF3AC0F4CF80915B0482FD35C0C3
:100CB00080915C0480FD34C0EBCF80915C0481FFA7
:100CC00035C080915B0484FD31C187EE90E030C176
:100CD00080915B0483FF27C0F4CF80915B0483FD88
:100CE00022C080915C0481FD21C0EBCF80915B0428
:100CF00085FD1FC021C080915B0485FD1DC019C00A
:100D000080915B0486FD1BC01DC080915B0486FD45
:100D100019C015C089E390E00BC182EE90E008C1D4
:100D200080EE90E005C186EE90E002C184EE90E096
:100D3000FFC089E290E0FCC085E390E0F9C08AE260
:100D400090E0F6C081E390E0F3C0811532E59307AF
:100D500008F069C0811541E5940728F0982F88278D
:100D6000816F906AE5C0883E910568F5803E9105E7
:100D700008F0DEC0883A9105B8F4853A910548F04C
:100D8000855AE82FF0E0EB53FD4F808190E09064AE
:100D9000CFC08130910509F4C6C008F4C7C08430C3
:100DA000910508F4C3C0C4C08F3B910508F0BEC0D4
:100DB000885AE82FF0E0EE0FFF1FE853FD4F8081C7
:100DC00091819464B5C0811520E59207F0F09C01F3
:100DD00074E0369527957A95E1F7922F9370482F16
:100DE000437021E030E002C0220F331F4A95E2F742
:100DF0003C68392B8F70982F9695969540E2949F7A
:100E0000C0011124822B932B93C0811530E49307EA
:100E100018F09F70906A8CC09C013A9521153F4153
:100E200008F486C083C0EC01C11586E5D807E8F553
:100E3000C11525E5D20748F08C2F0E94B9048F71A7
:100E400090E0982F8827906273C0C11534E5D307CE
:100E500028F09C2F8827846F906A6AC0AE01437087
:100E600055272C2F26952695C115D34578F481E07A
:100E700090E002C0880F991F4A95E2F740E2249F54
:100E800090011124822B932B9C6852C081E090E04A
:100E900002C0880F991F4A95E2F740E2249F900113
:100EA0001124822B932B9A6843C0C1152AE5D207DF
:100EB000F8F4C11539E5D30790F08C2F8F700E949C
:100EC000B90494E0D695C7959A95E1F7CF70D0E034
:100ED000DC2FCC27D0699E01282BC90129C0C11560
:100EE00048E5D40718F19C2F8827806F906A20C0AE
:100EF000C1158BE5D807D0F0CE01C1152CE5D2077E
:100F000018F49927906614C090568115904270F499
:100F10008D2F8F710E94B904282F2F71CE01992730
:100F20009062922B05C081E090E002C080E090E0EA
:100F3000DF91CF91089581FF03C0279A2F9A0895DA
:100F400027982F9808951F93CF93DF9300D000D058
:100F50001F92CDB7DEB7FC0186819781009779F5A6
:100F6000CF0125E0DE01119601900D922A95E1F75F
:100F7000FC01228189819A81222359F0662349F05C
:100F80000E942018182F682F89819A810E94C21808
:100F900003C00E949518182F8A8194E5199FF001CB
:100FA000112496E0899FE00DF11D11248981E80F3D
:100FB000F11DEE0FFF1FE259FE4F859194910F90A6
:100FC0000F900F900F900F90DF91CF911F91089588
:100FD000CF93DF93EC010E941425CE01805E91092E
:100FE000089710F0209719F463EB74E202C06EE9E1
:100FF00074E2CE01DF91CF910C94FC04CF93DF9388
:10100000EC01805E9109089710F0209719F46EEBBF
:1010100074E202C069EA74E2CE010E94FC048C2FE3
:10102000DF91CF910C947025CF93DF93EC010E9458
:10103000FE07CE01DF91CF910C94E80780E290E0AB
:101040009093EF018093EE018091F60281110EC022
:101050000E94052781E08093F6022FEF83ED90E355
:10106000215080409040E1F700C0000064E670E04D
:1010700080E40E940B279093EF018093EE01892B6F
:1010800009F04EC064E670E080E00E946227909311
:10109000EF018093EE01892B09F042C064E670E015
:1010A00080E00E9462279093EF018093EE01892BEC
:1010B000B9F564E670E08FE30E9462279093EF0138
:1010C0008093EE01892B61F50E94B72764E670E0FA
:1010D00080E40E940B279093EF018093EE01892B0F
:1010E000F9F464E670E08CE00E9462279093EF01CF
:1010F0008093EE01892BA1F464E670E080E00E9409
:1011000062279093EF018093EE01892B49F464E606
:1011100070E08FE30E9462279093EF018093EE01CD
:101120000E94B7278091EE01089556985E98259801
:101130002D9826982E9827982F988FEF90E09093CF
:1011400089008093880090938B0080938A0090930D
:101150008D0080938C00259A2D9A2FEF80E792E0E6
:10116000215080409040E1F700C00000269A2E9A5E
:101170002FEF80E792E0215080409040E1F700C0DF
:101180000000279A2F9A2FEF80E792E021508040AD
:101190009040E1F700C0000025982D982FEF80E7E0
:1011A00092E0215080409040E1F700C00000269876
:1011B0002E982FEF80E792E0215080409040E1F799
:1011C00000C0000027982F9856985E9825982D9873
:1011D00026982E9827982F98089520982898219837
:1011E000299822982A9823982B9852985A9853987D
:1011F0005B983E98469808958098889A8198899A35
:1012000084988C9A85988D9A86988E9A87988F9ACA
:1012100008950F931F93CF93DF93C42FD22FFC0118
:1012200082818823C9F040938E030E940517909312
:10123000FE028093FD0280E28C0F883008F057C0D8
:10124000C77081E001C0880FCA95EAF7DF91CF919E
:101250001F910F910C94BE2480918E03481330C0CF
:101260008091FD029091FE020E94F616883C910545
:1012700038F510E21D0FCD17B9F080E28C0F8830E1
:1012800040F4C77081E001C0880FCA95EAF70E9458
:10129000B324183028F581E09D2F977001C0880F86
:1012A0009A95EAF70E94BE24802F0E940C261830DF
:1012B000F0F4D77081E001C0880FDA95EAF70AC030
:1012C00080E28C0F883098F4C77081E001C0880FED
:1012D000CA95EAF7DF91CF911F910F910C94B32437
:1012E000802FDF91CF911F910F910C940C26DF91ED
:1012F000CF911F910F910895EF92FF920F931F933B
:10130000CF93DF9380917D038823B1F110E00CE04F
:1013100080917D03181770F5E12EF12C0E9DE001F0
:101320000F9DD00D1124C35EDC4F4B815C81698120
:1013300088810E94631981111BC08E819F81892B36
:1013400021F488859985019651F4288139814A8153
:101350005B816C817D818E819F810E941F260E9D05
:10136000F0010F9DF00D1124E35EFC4F14821382F7
:101370001F5FCECF10927D03DF91CF911F910F9110
:10138000FF90EF90089510927F0310927E031092C9
:10139000060180911B0380931C030C947C09CF925F
:1013A000DF92EF92FF926B017C0125982D98269891
:1013B0002E980E94C309C60182709927892B41F09B
:1013C00082E390E09093890080938800259A2D9A7B
:1013D000C60184709927892B41F082E390E09093B5
:1013E0008B0080938A00269A2E9AC60188709927CE
:1013F000892B89F081E08093060185E090E090934D
:10140000890080938800259A2D9A90938B00809371
:101410008A00269A2E9AC60180729927892B41F05C
:101420008FEF90E09093890080938800259A2D9A01
:10143000C60180719927892B41F08FEF90E090933E
:101440008B0080938A00269A2E9AC6018074992771
:10145000892B71F08FEF90E0909389008093880042
:10146000259A2D9A90938B0080938A00269A2E9A23
:10147000C60180789927892B41F085E090E0909310
:10148000890080938800259A2D9AC601882791703B
:10149000892B41F085E090E090938B0080938A0047
:1014A000269A2E9AC701B601FF90EF90DF90CF9059
:1014B00008952F923F924F925F926F927F928F92F8
:1014C0009F92AF92BF92CF92DF92EF92FF920F93D3
:1014D0001F93CF93DF9300D000D0CDB7DEB76091DC
:1014E0001C036983E6E0FE2E01E010E0FCE0BF2E65
:1014F000AEEFEA2E80911B039981981709F48EC0F4
:101500009981892F90E09C838B83FC01EE0FFF1F54
:10151000EF5EFC4F8081918150907D03ADE1B3E09F
:1015200020E030E0A12CF89EA001F99E500D11247E
:10153000BA01655F7E4F7A836983FA01E95FFE4FE6
:101540001F01251508F060C0E981FA81408140FD46
:1015500057C01A966D907C901B97F1018080918006
:101560004FEF5FEF412CC42CD12CF601EE0FFF1F83
:10157000E80DF91D659174916616770609F4A601C8
:10158000672B11F04394EFCF4F3FFFEF5F07C1F19F
:10159000B80102C0660F771F4A95E2F7A62AA80194
:1015A00002C0440F551F4A94E2F7415051096A2D79
:1015B00070E04617570701F5B29EF001B39EF00D9B
:1015C0001124E35EFC4FF89E9001F99E300D11242A
:1015D000D901A95FBE4F12964D915C911397578325
:1015E0004683E082E18291878087F901E55FFE4FC3
:1015F00020812260208308C014961C921E921397AB
:101600002F5F3F4F1C969DCF0E946B048B819C8166
:1016100001969A838983837089836CCF0E947C09A9
:101620000F900F900F900F90DF91CF911F910F911E
:10163000FF90EF90DF90CF90BF90AF909F908F90F2
:101640007F906F905F904F903F902F900C949A04F2
:101650002F923F924F925F926F927F928F929F92C2
:10166000AF92BF92CF92DF92EF92FF920F931F93B0
:10167000CF93DF93CDB7DEB76A970FB6F894DEBF8E
:101680000FBECDBF6B8B7C8B8D8B142F052F4C89A0
:101690005D89602F812F0E946319811137C0212F2E
:1016A00030E081E090E0BC01012E01C0660F0A9499
:1016B000EAF74B89802F90E0442319F040919A0378
:1016C00005C0FC01ED5FFC4F408146234423B1F08F
:1016D00046E0489FF001499FF00D1124E20FF31FEF
:1016E000EE0FFF1FE35EFD4F10810181FC01ED5FF6
:1016F000FC4F2081922F962B908308C0FC01ED5F58
:10170000FC4F862F80959081892380837E0129E07C
:10171000E20EF11C88E0F70111928A95E9F7198B26
:101720000A8B85E0FE017196D70101900D928A9592
:10173000E1F74C855D856A8589850E946319811171
:10174000E2C161E0C7010E94A3075C01883FFCE59C
:101750009F0739F48B858823C9F081E080930601C7
:10176000D2C1893F2CE5920731F48B85882371F033
:101770000E94C309C8C18A3F9C4541F48B858823D8
:1017800029F080910601882341F3F2CF8091060170
:10179000882309F4B8C107E011E0512CC12CD12CE9
:1017A000F6E0EF2E88248394912CCE0101969F8B36
:1017B0008E8BF8014081518166246A94762C60E01A
:1017C000262F30E0F901EE0FFF1FE40FF51F859182
:1017D0009491A816B90609F43901892B11F06F5FAD
:1017E000EFCFFFEF6F167F0609F423C1EC9CF001E9
:1017F000ED9CF00D1124E55FFE4F9081492F417063
:10180000FF24F394F4264B84F8018581442009F4E5
:10181000A5C04111A3C091FD13C0940101C0220FC6
:101820006A94EAF7822B85838091190390911A03B9
:10183000C29730F482E390E090931A0380931903E7
:10184000940102C0220F331F6A95E2F7215031093B
:10185000F801858190E02817390709F0F6C08091DA
:101860007E0390917F03009779F00E94F616C3974C
:1018700058F0EC9CF001ED9CF00D1124E55FFE4F5B
:10188000808181608083E2C080911C0320911B03D2
:10189000298F982FE0E0F0E0298D821709F44AC0E3
:1018A000282F30E0F901EE0FFF1FEF5EFC4F408163
:1018B0005181E49ED001E59EB00D1124A95FBE4F79
:1018C0003C9011962C901197188E60E070E0E32DFB
:1018D000F22DE70FF11DE70FF11D65907490611473
:1018E0007104C9F0F801408041814A8F60E0E42D25
:1018F000FA8DE60FF11DE60FF11D4591549141154A
:10190000510539F06416750611F441E0488F6F5F98
:10191000EECF7F5FDCCF488D442329F0671708F4B2
:101920008AC0FD0189C0E0E0F0E02F5F3F4F822FC9
:101930008370B2CF90931C03E017F10709F485C0C0
:1019400090E0FC01EE0FFF1FEF5EFC4FD182C082E2
:1019500001968370992780931B0377C0EC9CF0015C
:10196000ED9CF00D1124E55FFE4F908191FD14C0B8
:10197000940102C0220F331F6A95E2F7215031090A
:1019800090E02817390709F048C0442309F446C0FD
:10199000C6010E946B0441C090E09C0121503109B6
:1019A00028233923062C02C0959587950A94E2F7DF
:1019B000232B79F580FF2DC0F80182819381892B3B
:1019C000D9F088E0EE89FF8911928A95E9F78EEFC8
:1019D00089838A830E9405178160582F9D838C8399
:1019E000F801828193818F83988729813A814B8185
:1019F0006D817E810E941F26EC9CF001ED9CF00D14
:101A00001124E55FFE4F80818D7F8083FF24F39456
:101A100005C0F82FF170FF2E01C0F12CC40101C0E8
:101A2000880F6A94EAF78095F80195818923858368
:101A30000CC0412C0BC0F8014481416044830E1757
:101A40001F0709F055C090931C034F2C5428FFEF3B
:101A5000CF1ADF0A0A5F1F4F25E0C216D10409F032
:101A6000A8CE8B85882381F1552071F10E9405173E
:101A700090937F0380937E0380917D03883008F0EC
:101A80004CC091E0980F90937D0398E0FE01399649
:101A9000DE01119601900D929A95E1F74CE0849F3A
:101AA000C0011124835E9C4F28E0FE013196DC01C9
:101AB00001900D922A95E1F72FEF3FEFFC0131875E
:101AC0002087B386A28629C090911C0380911B03B6
:101AD000981719F00E94590A08C00E947C091092B8
:101AE0007F0310927E030E949A04511016C00BC00F
:101AF00089131BCFAE17BF0709F017CFC901019695
:101B0000982F937012CF29853A854B855C856D851A
:101B10007E858F8598890E941F266A960FB6F89455
:101B2000DEBF0FBECDBFDF91CF911F910F91FF9010
:101B3000EF90DF90CF90BF90AF909F908F907F906D
:101B40006F905F904F903F902F900895CF92DF92CB
:101B5000EF92FF920F931F93CF93DF938091EE014B
:101B60009091EF01892B91F08091F7028F5F809324
:101B7000F70281110BC00E941E0890E09093EF01C4
:101B80008093EE01892B11F40E949508C9E4D4E0FA
:101B90007E0100E010E057E0C52EC10E812F0E94AB
:101BA00029058C2D0E942905812F0E947D05F701B2
:101BB0009081891721F08083DD24D39401C0D12C3A
:101BC0008C2D0E947D05F7019781891719F0878375
:101BD00081E001C080E0D82A0D290E94ED081F5F36
:101BE000FFEFEF1AFF0A1730B1F60E940517AC019C
:101BF0006091F9027091FA029093FA028093F902CF
:101C00009091F802292F30E0261B370BC901840F71
:101C1000951F6BEF70E00E940F28F82E8093F8025A
:101C20002091FC02222309F443C01092FC02E091AF
:101C30003F04F09140049F01225F3F4F10E04BEFC3
:101C4000E42EABEFB0E040814B3FC9F0642F70E071
:101C5000F41620F0AC01461B570B05C0AD01461B26
:101C6000570B480F591F052E000C660B770B4E3192
:101C700051056105710510F0E08201C011E0319657
:101C80002E173F0701F71093FC02011102C011113A
:101C900011C01092FB02E0913F04F091400490913A
:101CA000FC02A1E6B4E0AF01425F5F4F80E00BC0F1
:101CB0000111EFCF8091FB028111EBCF80910601E2
:101CC000811117C03EC029913C91321741F03081FB
:101CD0003B3F21F4F0822C9391E001C081E03196EA
:101CE0001196E417F50779F79093FC028093FB02B5
:101CF000E5CF80917E0390917F03009711F10E94C0
:101D0000F6162091190330911A0328173907C8F4E1
:101D100090911C0380911B03981759F00E94590A57
:101D200010921A031092190310927F0310927E03EF
:101D300008C00E947C0910927F0310927E030E94CB
:101D40009A04802FDF91CF911F910F91FF90EF9018
:101D5000DF90CF9008954F925F926F927F928F9213
:101D60009F92AF92BF92CF92DF92EF92FF920F932A
:101D70001F93CF93DF937C01FC01438154816181E8
:101D800080810E946319811177C761E0C7010E94B9
:101D9000A307EC0189329D4509F040C0F70182811B
:101DA0008823E1F19091450481E0890F8770987F45
:101DB000853020F4892B8093450402C0909345041C
:101DC000809145048770FFEF8F9FC0011124959586
:101DD000879595958795992790938900809388009A
:101DE00090938B0080938A0090938D0080938C0059
:101DF0004091450450914604609147047091480415
:101E00008FE090E00E94E1276091570470915804A0
:101E10008091590490915A040E94CF09CE018153B8
:101E20009D458C9758F5CC0FDD1FCC0FDD1FC35A95
:101E3000D34708811981CA80DB80F701828188231A
:101E4000B1F0C0911F04C23041F410921F04C601CA
:101E50000E94FE07C0931F0445C0C032B1F30E9428
:101E6000E00581FDF2CFC8010E94FE073BC0C6011C
:101E70000E94E807C8010E94E80734C0CE018952D9
:101E80009D450897D8F4F7018281882359F1CC0F3A
:101E9000DD1FCC0FDD1FC75DD247888199810A8085
:101EA000DB81C02D10911F0410921F040E941408A2
:101EB00010931F04CE010E94140814C0C0332AE5F9
:101EC000D20781F5F701C28143815481618180810C
:101ED0000E946319811123C08C2F80FF03C080E012
:101EE0000E94FB0580911C04877009F4C5C6F701A8
:101EF0008281882309F4C0C682E0DF91CF911F91CF
:101F00000F91FF90EF90DF90CF90BF90AF909F9098
:101F10008F907F906F905F904F900C941F1980E08E
:101F200090E0DBCFC1338AE5D80708F0AAC0CE0124
:101F30009A558A9708F0AAC010915D04F701438171
:101F400054810281112319F0113059F158C0F70161
:101F5000618180810E946319811102C0402F02C0FB
:101F600040E050E0FE01FF27E25DFE4FE491AE2F1E
:101F7000A295A695A695A370B0E040FF0BC0ED0119
:101F8000C058DC4F88818E2B8883AA57BC4FCC91D8
:101F9000EC2B05C0A058BC4FE095CC91EC23EC9302
:101FA0002EC0F701618180810E946319811102C0F6
:101FB000402F02C040E050E08C2F67E00E940328D1
:101FC000292FE82FF0E086E090E0821B910921E0C4
:101FD00030E001C0220F8A95EAF7DF01A058BC4F1C
:101FE00040FF09C08C91822B8C93EA57FC4F808173
:101FF000282B208304C020958C9128232C93F70153
:10200000C28143815481618180810E946319811161
:1020100002C02C2F02C020E030E080918C0320FF12
:1020200002C08F5F03C0815018161CF480938C038C
:1020300059CF10928C03112361F01130F9F4809183
:102040008603806880938603C6E8D3E00CE813E03B
:102050000FC0C6E8D3E00AE813E0899181110E941D
:10206000E9210C171D07C9F780E00E94E92106C08D
:1020700089910E94E9210C171D07D1F70E94EC05F8
:1020800031CFC1339AE5D90709F4D6C5F70182816A
:10209000882369F0CE01825E9C45059740F46C2F41
:1020A000625E609341048CE090E00E94CF27D7FFEE
:1020B00068C0F7018281882309F463C080911F04FE
:1020C00080938D0310921F0480914104813071F040
:1020D00048F0823081F08430A1F486EE0E940C2614
:1020E00088E10DC082EE0E9470250BC088E193E06C
:1020F0000E94140806C082EE0E94702587E50E94A7
:102100000C268FE39CE90197F1F700C000008E01D7
:102110001F773CE0C32ED12CC8010C2C02C0969531
:1021200087950A94E2F7282F2F7041F0822F90E0D4
:102130002A3010F44D9604C0069702C087E290E062
:102140000E94140894E0C91AD108ECEFCE16EFEF04
:10215000DE0611F780914104813039F040F0823081
:1021600031F0843051F488E206C08CE204C082EE83
:102170000E94142502C00E940C2680918D0380933A
:102180001F04C43FFCE5DF0741F190F4C93D8CE535
:10219000D807E9F0CA3D9CE5D90789F1C83DECE5CF
:1021A000DE07B1F506E221EE41EE68ED7CE52CC0DC
:1021B000C63FFCE5DF07E9F0B0F0C73F8CE5D80784
:1021C00039F507E225EE46EE67EF7CE51DC007E234
:1021D00025EE45EE69ED7CE517C006E221EE40EE06
:1021E00064EF7CE511C007E225EE44EE65EF7CE587
:1021F0000BC006E221EE42EE66EF7CE505C008E288
:1022000021E045EE6AED7CE5C7010E9409096ACE2E
:10221000F7019281992309F43FC110928E03C230D5
:10222000FCE5DF0708F422C1C6312CE5D20738F0FF
:102230009E012B5F3C452930310508F017C10E94F3
:10224000611790935C0480935B04C0318CE5D807E0
:1022500009F4C3C008F041C0C830ECE5DE0709F45A
:102260009AC0F0F4C4302CE5D20709F487C068F4B2
:10227000C2309CE5D90709F477C0C330DC4509F0CA
:10228000E5C080915B04826076C0C630FCE5DF0764
:1022900009F46EC008F07BC080915B0488606BC05D
:1022A000CC308CE5D80709F485C068F4CA30ECE579
:1022B000DE0709F474C008F079C00E9409258091F6
:1022C0005B04806858C0CE302CE5D20709F476C094
:1022D00008F07FC080915B048BC0CC3F9CE5D907A0
:1022E00009F44FC018F5C331FCE5DF0709F47DC0E0
:1022F00078F4C1318CE5D80709F473C0C231DC45EC
:1023000009F0A4C00E94092580915B048F7733C037
:10231000C531ECE5DE0709F472C008F486C0CB3F96
:10232000DC4509F093C080915C043EC0C1158DE589
:10233000D80709F45FC058F4CE3FECE5DE0709F496
:1023400044C008F43FC080915C0482602DC0C2305C
:102350002DE5D20709F475C008F45DC0C330DD4532
:1023600009F074C060E06EC080915B04816003C0BE
:1023700080915B04806180935B0468C080915B0402
:1023800011C080915C04826080935C045FC0809186
:102390005B048062F0CF80915B048064ECCF80911D
:1023A0005B0488608460E7CF8160EECF80915B043E
:1023B0008E7FE1CF80915B048D7FDDCF80915B04C8
:1023C000877FD9CF80915C0418C080915C048D7F99
:1023D000DBCF80915B048F7ECECF80915B048F7DBD
:1023E000CACF80915B048F7BC6CF80915B04877FCF
:1023F0008B7FC1CF80915C048D7F8E7FC5CF809114
:102400005B0482FB222720F991E0922790FB82F95E
:1024100090FB83F9B0CF80915C04982F90959170D8
:102420008E7F892B90FB81F9AFCF0E940925809187
:102430005B0487FB222720F991E0922790FB87F924
:102440009ACF61E08EE090E00E94CF2760915B041C
:10245000C0915C0484E090E00E94CF276C2F81E261
:1024600090E00E94CF270E9409253CCDC631FCE5B3
:10247000DF0719F580911F048A7A91E009F490E052
:1024800090938F03882311F065E301C069E281E92D
:1024900093E00E9447170EC0C631DC4509F055C0D5
:1024A00080918F03882309F4E5C365E381E993E014
:1024B0000E943A170E94F31715CDC115ECE5DE070F
:1024C00039F0CF3DDC4509F040C00E9472170ACDBB
:1024D0000E9409252FEF84E39CE02150804090402A
:1024E000E1F700C00000F89481E08093E00080E212
:1024F0008093D8001092C900EFE1FEE43197F1F724
:1025000000C000001DBA109268001CBC10BE1FBAAB
:1025100010927A0010926E0010926F00109271006B
:10252000109272001092C9001092BC0014B817B833
:102530001AB81DB810BA1092BC0015B818B81BB85C
:102540001EB811BA0C94003FCDCCF701268137811B
:102550002115310511F0C90125C0F701D081118184
:102560008D2F992351F0912F0E942018C82F682F8A
:102570008D2F912F0E94C21804C0912F0E94951890
:10258000C82F24E5C29FF001112486E0189FE00DBA
:10259000F11D1124ED0FF11DEE0FFF1FE259FE4F4B
:1025A000859194910E940706C82F192FF701058184
:1025B00002950F70D281D11110921E0480911C04DB
:1025C0008770B9F0DD23A9F0812F807F803441F03E
:1025D00090E29C0F983068F0803611F4C63F49F0C5
:1025E00082E00E941F1980911C048770DD24D3941F
:1025F0008111D12CB12EB2949FE0B9228B2D90E0A5
:102600008C30910508F0CFC2FC01E35AFF4F0C94C7
:102610002328012F0F70812F807F11F00295007FFA
:10262000DD23B9F0002309F43AC280E28C0F883030
:1026300010F0C11106C080911F04082B00931F04E5
:1026400005C080911E04082B00931E040E94F317FE
:1026500026C28C2F0E941425002309F405C300957F
:1026600080E28C0F883010F0C11106C080911F04E9
:10267000082300931F0405C080911E0408230093C3
:102680001E040E94F317F0C2912F9F70812F807F4C
:10269000C92E803219F0C29480EFC822CC2319F0E1
:1026A000C130D1F022C0DD2379F0809120040023D5
:1026B00049F0013039F4C82AC81609F4CFC2C092D3
:1026C0002004CCC28C291CC0002319F0013009F46D
:1026D000CBC20E94ED1724C0DD2321F0023008F0A8
:1026E000BDC20DC00111C0C21BC0DD2361F00023BB
:1026F00031F0F701858180FFD2C18F7085838C2DE9
:102700000E94BE24ABC2002359F0C93309F0D6C1E0
:10271000FFEF27EE83E0F15020408040E1F7CCC18D
:102720008C2D0E94B324A0C2812F8695869583703C
:1027300019F0813071F037C2DD2331F08C2F912FE9
:1027400093700E94CA0539C280E090E00E94CA05D9
:1027500048C2DD2331F08C2F912F93700E94B40575
:102760002CC280E090E00E94B4053BC2812F8370B0
:1027700009F069C0D1111BC29C2F92959695977054
:10278000990F990F8C2F8F70882E912CA12CB12C22
:10279000092E04C0880C991CAA1CBB1C0A94D2F7F1
:1027A000C4FF12C04FE050E060E070E004C0440F8E
:1027B000551F661F771F9A95D2F7DB01CA018095D6
:1027C0009095A095B09503C080E090E0DC01212FAA
:1027D000269526952370223019F1C8F440902104E3
:1027E000509022046090230470902404213059F00A
:1027F00088299929AA29BB29BC01CD016421752109
:10280000862197210AC084289528A628B728BC01CC
:10281000CD01682979298A299B290E945919C7C1A4
:1028200088299929AA29BB29809021049090220403
:10283000A0902304B0902404BC01CD016825792523
:102840008A259B25EACFDD2319F0812F817001C0F5
:102850008695882309F4ABC19C2F92959695977025
:10286000990F990F8C2F8F70882E912CA12CB12C41
:10287000092E04C0880C991CAA1CBB1C0A94D2F710
:10288000C4FF12C04FE050E060E070E004C0440FAD
:10289000551F661F771F9A95D2F7DB01CA018095F5
:1028A0009095A095B09503C080E090E0DC01212FC9
:1028B0002695269523702230D9F068F5409057046C
:1028C000509058046090590470905A04213059F087
:1028D00088299929AA29BB29BC01CD016421752128
:1028E000862197211EC084289528A628B72813C0C2
:1028F00088299929AA29BB298090570490905804C7
:10290000A0905904B0905A04BC01CD0168257925E6
:102910008A259B2506C0BC01CD01682979298A2911
:102920009B290E94EE1843C1012F0F70DD2339F05F
:10293000802F0E9438198C2F0E94BE2438C18C2F02
:102940000E94B324802F0E94FA1831C1C23F09F4BB
:1029500063C030F4C03F59F0C13F09F44FC053C0C9
:10296000C33F09F463C0C43F09F47AC04CC0DD23FF
:1029700011F1011173C1212F2F7181E090E0A0E0CE
:10298000B0E0AC01BD0104C0440F551F661F771FA6
:102990002A95D2F78091570490915804A091590438
:1029A000B0915A043A014B01682679268A269B2663
:1029B000C401B3014CC0023008F056C1212F2F7161
:1029C00081E090E0A0E0B0E0AC01BD0104C0440FA4
:1029D000551F661F771F2A95D2F780915704909153
:1029E0005804A0915904B0915A043A014B01682649
:1029F00079268A269B26C401B3012FC0DD2339F036
:102A0000812F8F713CC0D11147C001114CC0812F63
:102A10008F710E94FA1828C1812F8F71DD2319F060
:102A20000E94FA181BC10E9438191EC1DD2391F0C3
:102A3000212F2F7181E090E0A0E0B0E0BC01CD013A
:102A400004C0660F771F881F991F2A95D2F70E942E
:102A5000EE1804C160E070E0CB010E94EE1804C1E2
:102A6000DD2381F0012F0F71802F0E94381928E09B
:102A7000029FC0011124836080931C04802F0E9458
:102A80003819ECC081E00E941F19023008F4ECC034
:102A900082E00E941F19E8C0002309F4B1CF8C2FF7
:102AA0000E947025DBC0C93349F48FEF97EEE3E055
:102AB00081509040E040E1F700C000008C2F0E9460
:102AC0001425D2C08C2F90E0FC01E05FF109E730C3
:102AD000F10508F03FC0E759FF4F0C942328DD2390
:102AE00009F47FC090919A0381E0892705C0D093B3
:102AF0009A0361C081E08D2780939A035CC0D11155
:102B00005AC081E080939A036CC0D11154C067C051
:102B1000DD2339F082E08093900381E080939A0373
:102B20004CC080919003823019F481E0809390032F
:102B300080919003833009F054C04FC0DD2339F0F9
:102B400080919903882371F21092990336C0002373
:102B500049F247C0809199030023C1F0882341F0D6
:102B600090919A0381E0892780939A0310929903A8
:102B70008C2FDD2319F00E9470251FC00E941425A0
:102B800088E0F70111928A95E9F72BC0882399F024
:102B9000D11111C090919A0381E0892780939A0303
:102BA000109299031EC088EF8B0D843020F40E9490
:102BB000E0050E949B07DD23A1F0107F103611F481
:102BC000C63F79F080919003823019F483E08093BE
:102BD000900380919003813021F410929003109221
:102BE0009A03DD20A9F080911C0480FD11C0F7013B
:102BF00012828595859585950E943819C7010E9496
:102C0000AB0E80911C048595859585950E94FA18D8
:102C100060E0C701DF91CF911F910F91FF90EF907E
:102C2000DF90CF90BF90AF909F908F907F906F90EC
:102C30005F904F900C94A307F701C28143815481A8
:102C4000618180810E946319811102C08C2F02C0B2
:102C500080E090E080FF46C981E042C988EF8B0D9B
:102C6000843008F0AACFA3CF88EF8B0D843008F012
:102C7000B8CF9DCF69E21ACCDF91CF911F910F9110
:102C8000FF90EF90DF90CF90BF90AF909F908F908C
:102C90007F906F905F904F900895089580912B04DE
:102CA00008952091E4039091A3032917B1F030E037
:102CB000F90153E0EE0FFF1F5A95E1F7EC55FC4F79
:102CC0005181561306C05081581303C052815413CA
:102CD00006C02F5F3F4F2770E8CF80E0089581E066
:102CE0000895CF93DF9321E02093E9002FEF3091F7
:102CF000E800215035FD06C035ED3A95F1F70000AA
:102D00002111F5CF2091E80025FF14C0EC0140E02F
:102D100050E068E070E00E94D9268091E8008E774C
:102D20008093E80088E0FE01ACE2B4E001900D92EF
:102D30008A95E1F7DF91CF910895CF93DF9300D08B
:102D40001F92CDB7DEB790917F04943019F5898337
:102D50007B836A8382E08093E9008FEF9091E800A3
:102D6000815095FD06C095ED9A95F1F7000081110F
:102D7000F5CF8091E80085FF0DC040E050E063E0B2
:102D800070E0CE0101960E94D9268091E8008E77EE
:102D90008093E8000F900F900F90DF91CF910895EE
:102DA00078941F920F920FB60F9211248F939F93D6
:102DB000AF93BF938091250490912604A09127049E
:102DC000B09128040196A11DB11D80932504909314
:102DD0002604A0932704B0932804BF91AF919F913C
:102DE0008F910F900FBE0F901F9018959C014FB7B9
:102DF000F8948091250490912604A0912704B09125
:102E000028044FBF821B930B08952FB7F89480912D
:102E1000250490912604A0912704B09128042FBF87
:102E200008951F920F920FB60F9211248F939F93C4
:102E3000AF93BF9380916004811113C080912504EA
:102E400090912604A0912704B09128044196A11DD9
:102E5000B11D8093250490932604A0932704B0937A
:102E60002804BF91AF919F918F910F900FBE0F904B
:102E70001F9018959C012A5F3F4FFC014281461329
:102E800001C01282019682179307B9F708959C0139
:102E9000FC0132969FEF80E04191461789F09F3FF9
:102EA00019F4411101C0982F8F5F8630A9F79F3F19
:102EB00039F0F901E90FF11D97FDFA956283089544
:102EC0000895CF9384E090E00E94BB27C82F81E251
:102ED00090E00E94BB272C2F30E0A901582BCA019B
:102EE000CF9108956CEE7EEF80E090E00E94ED2798
:102EF00060E082E090E00E94CF2760E083E090E015
:102F00000E94CF27109221041092220410922304D1
:102F10001092240460E084E090E00E94CF2760E0FB
:102F200081E290E00E94CF2760E085E090E00E947F
:102F3000CF2760E086E090E00E94CF276FEF87E028
:102F400090E00E94CF2740E050E0BA0188E090E096
:102F50000E94E12760E08DE090E00E94CF2740E0F2
:102F600050E0BA0188E190E00E94E12760E087E14B
:102F700090E00E94CF2740E050E0BA018CE190E061
:102F80000E94E12760E080E290E00E94CF2740E0CD
:102F900050E0BA0188E190E00E94E12710924504D8
:102FA00010924604109247041092480484E0806115
:102FB0008093450440914504509146046091470434
:102FC000709148048FE090E00E94E12740E050E0DB
:102FD000BA0183E190E00C94E127809120048111F3
:102FE00010922004089590911F0480911E04892B53
:102FF00020911D04982F922B90939103809120048F
:10300000882389F0892B80939103E3E9F3E097E02B
:1030100080E0915029F021912223D9F38F5FF9CFDD
:1030200081110E94ED17E0915E04F0915F043097EA
:1030300031F00280F381E02D81E993E00994089555
:103040008F929F92AF92BF92DF92EF92FF920F9377
:103050001F93CF93DF938090570490905804A090D3
:103060005904B0905A044091210450912204609177
:10307000230470912404842A952AA62AB72ACFE132
:10308000D0E026E0929F7001112494E5D92E082FFC
:1030900010E0D501C4010C2E04C0B695A7959795F4
:1030A00087950A94D2F780FD04C0219790F780E0BD
:1030B00014C0DC9EF001DD9EF00D1124EE0DFF1D0D
:1030C000E00FF11FEE0FFF1FE259FE4F8591949123
:1030D0000E940706019749F38C2FDF91CF911F9132
:1030E0000F91FF90EF90DF90BF90AF909F908F90E7
:1030F0000895CF93DF93EC010E94201824E5829F6E
:10310000C0011124FC0126E0D29FE00DF11D112425
:10311000EC0FF11DEE0FFF1FE259FE4F85919491C8
:103120000E940706DF91CF910895292F220F920F59
:10313000990F890F682F669566956695982F9770F9
:1031400085E0689FB001112440E050E080E0FB0181
:10315000E40FF51FEB51FC4F208130E0092E02C037
:10316000369527950A94E2F721703327042E01C083
:10317000220F0A94EAF7822B4F5F5F4F45305105CB
:1031800031F70895292F220F920F990F890FE82FF9
:10319000E695E695E695877051E001C0550F8A9552
:1031A000EAF785E0E89FF0011124EB51FC4F20E0A5
:1031B00030E070E04081CB01022E02C096958795E9
:1031C0000A94E2F78170819584278523842781936F
:1031D0002F5F3F4F2530310569F708950E94CF09D1
:1031E00060935704709358048093590490935A0441
:1031F0000C94FB240F931F9341E050E060E070E0DB
:1032000004C0440F551F661F771F8A95D2F740955B
:103210005095609570958091570490915804A091B5
:103220005904B0915A048A019B01082319232A23C7
:103230003B23C901B8011F910F910C94EE18209106
:103240001C048095822380931C04982F977079F436
:1032500030E0482F082E000C550B2417350739F0A5
:103260008595859585950E94FA1810921C040895FD
:103270000F931F9341E050E060E070E004C0440F02
:10328000551F661F771F8A95D2F78091570490913A
:103290005804A0915904B0915A048A019B01082B4B
:1032A000192B2A2B3B2BC901B8011F910F910C94AC
:1032B000EE1860932104709322048093230490936A
:1032C00024040C94FB24452B41F06F3F41F491E022
:1032D0008F3F09F090E0892F03C081E001C080E0BA
:1032E000817008958091E4039091A303891719F0E8
:1032F0008F5F8770FBCF0895EF92FF920F931F931C
:10330000CF93DF938091A00382958F7009F059C00D
:1033100080919D03882309F454C0C091E403E09098
:10332000A303D0919B03F0909C0300919E03109106
:103330009F03CE1509F445C0A8016F2D8D2F0E9463
:1033400063192C2F30E0811137C0F90183E0EE0FB3
:10335000FF1F8A95E1F7DF01AC55BC4F11968C91A8
:1033600011978F1129C08C918D1326C012968C91C4
:103370001297811121C013968D919C911497801BF7
:10338000910B883C9105C0F48091A0038F708061FF
:103390008093A003E755FC4F80818F70806180830C
:1033A0008BE993E00E94AB0EDF91CF911F910F91BB
:1033B000FF90EF900C9472192F5F3F4FC22FC77090
:1033C000B8CFDF91CF911F910F91FF90EF900895AB
:1033D0003F924F925F926F927F928F929F92AF92A5
:1033E000BF92CF92DF92EF92FF920F931F93CF93F2
:1033F000DF93CDB7DEB765970FB6F894DEBF0FBE8B
:10340000CDBF8C0185E0F801DE01519601900D924F
:103410008A95E1F7D8011296EC908BE9A82E83E00B
:10342000B82E50909B0340909C0380909E039090F8
:103430009F03A401642D852D0E946319F82E81112C
:1034400075C1F80170806180C380D48030909D0385
:10345000960128193909332009F41BC18091A00372
:10346000982F907F283C310508F0D6C091117DC07F
:1034700046101AC0571018C04091A1035091A203E2
:10348000268137814217530779F4E1100DC08F7000
:1034900080618093A003C5010E94AB0E8091A003C0
:1034A000D80115968C936CC1A601662D872D0E94BC
:1034B0006319D82E811103C081E08E2502C080E0FF
:1034C00090E080FF13C04E2D662D872D0E9451166F
:1034D000882361F08BE993E00E94AB0EEBE9F3E007
:1034E00088E0DF011D928A95E9F74AC1D11003C037
:1034F00081E08E2502C080E090E0B82FB170DB2E15
:1035000080FF2AC04E2D662D872D0E945116C82E91
:10351000811122C0798A6A8A89899A890E947918D8
:10352000292F22952F70223018F0243078F405C00E
:103530009F7049F0811107C00DC09F7021F0F80104
:103540009581907F39F0805E883020F0C8010E941C
:10355000AB0ECD2CFC2C14C1EE2009F410C18091CF
:10356000A00381608093A0030BC146101AC05710BE
:1035700018C04091A1035091A203268137814217C0
:10358000530779F4E1100DC08583C8010E94AB0E8A
:1035900088E0F801ABE9B3E001900D928A95E1F77C
:1035A00058C0C8010E94C824882381F1EE2071F11F
:1035B0002091A003822F82958F7090E00297A4F053
:1035C00080919B0390919C039A8789871B86DD8657
:1035D000CC862E878091A1039091A203988B8F8730
:1035E000CE0109960E94AB0E88E0F801ABE9B3E08A
:1035F00001900D928A95E1F70E947C190AC0461449
:1036000091F0C8010E94C824811125C0C8010E9400
:10361000AB0EFF24F394B4C09111F1CF8BE993E08A
:103620000E94AB0E7DC05710ECCF4091A10350918A
:10363000A203268137814217530719F7E110E1CF22
:103640008583C8010E94AB0E88E0F50111928A952E
:10365000E9F7F32C95C0EE20C9F22091A003822F48
:1036600082958F7090E002970CF4BECF80919B03FF
:1036700090919C039A8389831B82DD82CC822E8366
:103680008091A1039091A20398878F83CE01019628
:10369000A9CF283C310508F043C0FE2CEE2009F4E8
:1036A000B5CF46102FC057102DC02091A1033091E7
:1036B000A203868197812817390721F59091A003ED
:1036C00090FD17C0892F82958F70282F30E021152B
:1036D000310579F095832F30310541F08F5F982FB8
:1036E0009295907F85818F70892B8583C8010E9478
:1036F000AB0E88E0F801ABE9B3E001900D928A953A
:10370000E1F73EC0C8010E94C82481116DCF8091AD
:10371000A00381608093A003C8010E94AB0E30C05B
:1037200088E0F50111928A95E9F72AC0EE2009F4A4
:103730006DCFC8010E94C824F82E882309F466CFF3
:1037400088E0F801ABE9B3E001900D928A95E1F7CA
:1037500080919B0390919C030E94791892959F7091
:10376000963051F4863F41F080919A0391E0892789
:1037700080939A03909399030E947C1901C0F12CC5
:103780008F2D65960FB6F894DEBF0FBECDBFDF91CB
:10379000CF911F910F91FF90EF90DF90CF90BF904E
:1037A000AF909F908F907F906F905F904F903F90E1
:1037B00008951F93CF93DF93CDB7DEB7AA970FB6C7
:1037C000F894DEBF0FBECDBFE7E3F4E08FE394E0F3
:1037D0002091F10021938E179F07D1F78091380433
:1037E000833009F460C030F4813071F0823009F424
:1037F0009AC0B1C08A3009F486C08B3009F46BC01E
:10380000893009F0A8C020C080913704813A09F0BE
:10381000A2C08091E800877F8093E80080913B04FC
:1038200090913C04892B21F468E08CE294E003C081
:1038300060E080E090E070E00E948B218091E800E1
:103840008B778093E80087C080913704813209F03C
:1038500082C080913B0490913C04029708F07BC0A9
:103860008091E800877F8093E8008091E80082FDE6
:1038700005C080917F048111F8CF17C12091F3001A
:103880008091F20090E0922B029729F48091F10050
:103890008B7F813021F48091F10080932B04809103
:1038A000E8008B7754C080913704813A09F053C007
:1038B00080913B0490913C04892B09F04CC080918D
:1038C000E800877F8093E8008091E80080FFFCCFCC
:1038D0008091ED0137C0809137048132E1F580910C
:1038E0003B0490913C04892BB1F58091E800877FDF
:1038F0008093E8000E943721809139048093ED0184
:103900000E94092528C080913704813221F58091D9
:10391000E800877F8093E8000E94372180913A0475
:1039200080932A0418C080913704813AA1F48091D1
:10393000E800877F8093E8008091E80080FFFCCF5B
:1039400080912A048093F1008091E8008E77809323
:10395000E8000E9437218091E80083FFA6C0809193
:10396000FA0190E020913B0430913C04281739077C
:1039700009F09BC080913804813261F020F48032DC
:1039800009F441C092C0823209F470C0833209F454
:1039900081C08BC080913704813A09F086C0809144
:1039A000E800877F8093E8008091E80080FFFCCFEB
:1039B00080910E0290910F02A0911002B09111021D
:1039C0008093F100492F5A2F6B2F77274093F100F6
:1039D000AD01662777274093F1008B2F9927AA27FF
:1039E000BB278093F100809112028093F1008091B7
:1039F00013028093F100809114028093F100809172
:103A0000E8008E774EC080913704813209F04DC0B6
:103A10008091E800877F8093E8008091E80082FD34
:103A200005C080917F048111F8CF3FC03091F10033
:103A30002091F1009091F1008091F10030930E02FD
:103A400020930F0290931002809311028091F10055
:103A5000809312028091F100809313028091F10013
:103A6000809314028091E8008B771BC0809137040B
:103A70008132D9F48091E800877F8093E8000E942A
:103A800037218091390490913A0490930B028093EE
:103A90000A020BC080913704813239F48091E8002A
:103AA000877F8093E8000E9437218091E80083FFA0
:103AB000DCC18091370490913804492F50E04A309E
:103AC000510508F0D2C1FA01E059FF4F0C942328A8
:103AD000803821F0823809F0C8C108C080913404D0
:103AE00090913504992389F082600FC080913B0446
:103AF0008F70873008F0B9C18093E9008091EB00A6
:103B000085FB882780F91092E9009091E800977F63
:103B10009093E8008093F1001092F10066C1282F85
:103B20002D7F09F0A2C1882319F0823061F09DC178
:103B300080913904813009F098C1933009F080E018
:103B4000809335042EC08091390481112AC0809160
:103B50003B048F702FEF280F263008F086C180932A
:103B6000E9002091EB0020FF1CC0933021F48091EC
:103B7000EB00806214C09091EB0090619093EB0099
:103B800021E030E0A90102C0440F551F8A95E2F7F9
:103B90004093EA001092EA008091EB0088608093E5
:103BA000EB001092E9008091E800877F21C181112C
:103BB0005CC1109139041F778091E3008078812BDC
:103BC0008093E3008091E800877F8093E8000E9463
:103BD00037218091E80080FFFCCF8091E30080686E
:103BE0008093E300111102C082E001C083E0809362
:103BF0007F043BC18058823008F037C1809139047E
:103C000090913A048C3D53E0950779F583E08A83DF
:103C10008AE289834FB7F894DE01139620E03EE0F4
:103C200051E2E32FF0E050935700E49120FF03C0EE
:103C3000E295EF703F5FEF708E2F90E0EA3010F06A
:103C4000C79601C0C0968D939D932F5F243149F78D
:103C50004FBF8091E800877F8093E8006AE270E0C0
:103C6000CE0101960E948B21AEC040913B04509141
:103C70003C04292F332723303105A9F068F4213083
:103C8000310509F401C12230310509F0EEC088E7A1
:103C900090E0E8ECF7E044C02132310521F1223216
:103CA000310571F1E2C0992781309105A1F058F0FA
:103CB000029709F0DAC0E2E5F8E0E4918E2F90E097
:103CC000E2E5F8E02AC0E4E9F8E0E4918E2F90E024
:103CD000E4E9F8E022C0EAE6F8E0E4918E2F90E013
:103CE000EAE6F8E01AC04115510509F4D2C04130A6
:103CF000510509F0BAC089E090E0E3EFF7E010C0A9
:103D00004115510509F4CAC04130510509F0ADC053
:103D100082E390E0E6E5F7E003C0009709F4A5C070
:103D20002091E800277F2093E80020913D04309106
:103D30003E048217930708F49C0140E021153105E9
:103D400089F180917F04882309F43DC08530D9F141
:103D50008091E80083FD37C08091E80082FD2FC08C
:103D60008091E80080FFEACF4091F3008091F2005B
:103D700090E0942B2115310559F08830910540F4DD
:103D800044914093F1003196215031090196F2CFD0
:103D900041E0089709F040E08091E8008E77809339
:103DA000E800CCCF4111CDCF0AC080917F04882399
:103DB00051F0853041F08091E80083FD04C080918E
:103DC000E80082FFF2CF8091E8008B778093E800D3
:103DD0004CC0803809F049C08091E800877F80930B
:103DE000E800809136048093F1008091E8008E779E
:103DF0008093E8000E94372138C0811136C080913D
:103E0000390490913A04992702977CF58091E80053
:103E1000877F8093E80010913904109336040E9444
:103E20003721111106C08091E30087FD02C081E0B7
:103E300001C084E080937F0442E061EC81E00E9455
:103E4000562142E261EC82E00E94562142E061ECA0
:103E500083E00E94562142E160E885E00E945621FD
:103E600042E161E884E00E9456218091E80083FFEE
:103E70001AC08091E800877F8093E8008091EB0072
:103E800080628093EB000FC082E190E0E0E4F8E014
:103E900047CF89E090E0EAEDF7E042CF80E490E0A0
:103EA000E8E8F7E03DCFAA960FB6F894DEBF0FBE64
:103EB000CDBFDF91CF911F9108951F920F920FB642
:103EC0000F9211242F933F934F935F936F937F93A0
:103ED0008F939F93AF93BF93CF93DF93EF93FF9312
:103EE000C091E900CF708091EC00D82FD17080FD97
:103EF000D0E81092E9008091F000877F8093F00075
:103F000078940E94D91B1092E9008091F00088609B
:103F10008093F000CD2BCF70C093E900FF91EF911B
:103F2000DF91CF91BF91AF919F918F917F916F91D1
:103F30005F914F913F912F910F900FBE0F901F9067
:103F40001895E8EDF0E080818E7F80831092E2008A
:103F50001092DA001092E100A0EEB0E08C91816046
:103F60008C9380818F77808319BCA7EDB0E08C9112
:103F70008E7F8C9380818F7E808310922904089598
:103F8000CF92DF92EF92FF920F931F93CF93DF9325
:103F9000C8EDD0E088818F7E8883E7EDF0E08081F6
:103FA0008160808384E082BF81E0809329048881DE
:103FB0008E7F888302EE10E0F80110821092DA0002
:103FC00081EEC82ED12CF601108288818F778883EC
:103FD00088818068888388818F7D888319BC10924E
:103FE0007F0410923604109235041092340490EE3F
:103FF000E92EF12CF70180818B7F8083888181609D
:10400000888342E060E080E00E945621F6018081D2
:104010008E7F8083F80180818160808380818860C9
:104020008083F70180818E7F80838881806188838F
:10403000DF91CF911F910F91FF90EF90DF90CF9084
:1040400008951F920F920FB60F9211242F933F9352
:104050004F935F936F937F938F939F93AF93BF9390
:10406000EF93FF938091E10082FF09C08091E2000D
:1040700082FF05C08091E1008B7F8093E1008091F9
:10408000DA0080FF2AC08091D80080FF26C080918E
:10409000DA008E7F8093DA008091D90080FF18C00B
:1040A00080E189BD82E189BD09B400FEFDCF81E0D8
:1040B00080937F048091290481110FC00E94A11F69
:1040C0000E94C01F8091E20084608093E20005C0DE
:1040D00019BC10927F04109229048091E10080FFA6
:1040E00017C08091E20080FF13C08091E2008E7FB4
:1040F0008093E2008091E20080618093E2008091F1
:10410000D80080628093D80019BC85E080937F043A
:104110008091E10084FF34C08091E20084FF30C0D0
:1041200080E189BD82E189BD09B400FEFDCF8091A7
:10413000D8008F7D8093D8008091E1008F7E80939E
:10414000E1008091E2008F7E8093E2008091E200A6
:1041500081608093E20080913604882311F084E02E
:1041600007C08091E30087FD02C081E001C083E0C9
:1041700080937F040E9409250E94E0050E949B070E
:104180008091E10083FF27C08091E20083FF23C07C
:104190008091E100877F8093E10082E080937F043B
:1041A000109236048091E1008E7F8093E10080912F
:1041B000E2008E7F8093E2008091E2008061809334
:1041C000E20042E060E080E00E9456218091F00031
:1041D00088608093F000FF91EF91BF91AF919F9124
:1041E0008F917F916F915F914F913F912F910F90A0
:1041F0000FBE0F901F9018952091E4003091E500BC
:1042000095E64091EC00842F817040FF23C080919F
:10421000E80080FD1DC080917F04882399F08530DF
:1042200099F08091EB0085FD11C04091E400509120
:10423000E5002417350729F3915011F09A01E1CFD9
:1042400084E0089582E0089583E0089581E0089570
:1042500080E008954091E80042FFDDCF0895BC0161
:1042600084E00C949D16BC0183E00C949D16809113
:10427000370487FF11C08091E80082FD05C080915E
:104280007F048111F8CF11C08091E8008B770BC0BB
:1042900080917F04882349F08091E80080FFF8CF67
:1042A0008091E8008E778093E8000895982F9730EA
:1042B00068F59093E900981739F07091EC0020911F
:1042C000ED005091F00003C0242F762F50E021FD27
:1042D00002C09F5FECCF3091EB003E7F3093EB004C
:1042E0003091ED003D7F3093ED003091EB00316077
:1042F0003093EB007093EC002093ED005093F000AE
:104300002091EE0027FDE5CF80E008958F70809327
:10431000E90081E0089520913D0430913E04261784
:10432000370748F06115710539F42091E8002E77C0
:104330002093E80001C0B901FC0120E0611571057E
:1043400079F180917F048823F1F18530F1F180913A
:10435000E80083FD3CC08091E80082FD2EC0809182
:10436000E80080FFEBCF2091F3008091F20090E015
:10437000922B6115710551F08830910538F4219127
:104380002093F100615071090196F3CF21E0089765
:1043900009F020E08091E8008E778093E800CECF8E
:1043A0002111CFCF0AC080917F04882361F085302E
:1043B00061F08091E80083FD0AC08091E80082FFEF
:1043C000F2CF80E0089582E0089583E0089581E0CF
:1043D0000895CF93C091E9002091EC00922F917045
:1043E00020FD90E820910A0220FF2DC0CF70C92B3C
:1043F0009091FB019F709093E9009091EB0090FFEA
:104400001FC09091EE0097FF1BC09FEF2091E80026
:10441000915025FD06C025ED2A95F1F70000911178
:10442000F5CF8093F1008AEF91E00E94A62680915B
:10443000E80080FF05C08091E8008E778093E80057
:10444000CF70C093E900CF910895CF93DF93CDB79C
:10445000DEB72D970FB6F894DEBF0FBECDBF84B781
:10446000877F84BF0FB6F894A8958091600088611B
:1044700080936000109260000FBE90E080E80FB65D
:10448000F89480936100909361000FBE85B78068B7
:1044900085BF85B7806885BF0E94A11F0E94C01F8D
:1044A0008091E20084608093E200789480917F04A0
:1044B0008823A1F01091E9001F709091EC00892FE2
:1044C000817090FD80E8182B1092E9008091E8003F
:1044D00083FD0E94D91B1F701093E90082E084BD08
:1044E00093E095BD9AEF97BD80936E000E941E08E1
:1044F00090E09093EF018093EE010E94ED080E94FE
:10450000FC08E9E4F4E0A1E6B4E011921D9224E095
:10451000E735F207D1F78EE090E00E9429288093DA
:104520003F0490934004FC010E962BEF2193E81773
:10453000F907E1F780E090E00E94C9278C3E9E4F8A
:1045400011F00E9472178CE090E00E94BB2790E06F
:10455000A0E0B0E08093410490934204A093430410
:10456000B093440489EA8093800089E080938100BD
:1045700024982C983F988AB18F7C8AB96E98479A74
:104580008BB180638BB9769A8FE090E00E94C3274D
:1045900060934504709346048093470490934804C5
:1045A00067708FEF689FB0011124759567957595B9
:1045B00067957727709389006093880070938B00CC
:1045C00060938A0070938D0060938C000E94950820
:1045D00080E00E94FB0580E090E00E94C9278C3EAD
:1045E0009E4F11F00E94721782E090E00E94BB275C
:1045F000809370040E94611790935C0480935B0425
:1046000083E090E00E94BB27682F70E080E090E09C
:104610000E9459196091570470915804809159046F
:1046200090915A040E94CF0980E090E00E94C9272F
:104630008C3E9E4F11F00E9472178DE090E00E9418
:10464000BB2780935D0480EF91E090935F0480939B
:104650005E0482E090E090930D0280930C028091C2
:104660007F04843079F580910E0290910F02A09121
:104670001002B0911102892B8A2B8B2B19F180919A
:1046800005028F708093E90088E0E5E1F2E0DE0149
:10469000119601900D928A95E1F740E050E068E0B4
:1046A00070E0CE0101960E94D92640E050E062E021
:1046B00070E08CE092E00E94D9268091E8008E772D
:1046C0008093E800BB24BA948FE6E82E84E0F82EAD
:1046D00090E1A92E22E1922E38E1C32ED12C40E4A4
:1046E000842E80917F04853009F049C080917F0439
:1046F000843021F1109260040FB6F894A895C0920E
:1047000060000FBE8092600080E00E949B0783B72C
:10471000817F846083BF83B7816083BF78948895ED
:1047200083B78E7F83BF0FB6F894A8958091600001
:10473000886180936000109260000FBE8091350404
:10474000882309F4CECF0E941E0890E09093EF01D9
:104750008093EE010E94ED080E94FC08E1E6F4E07F
:104760001192EE16FF06E1F70E94A60DE1E6F4E0D5
:1047700081918111AFC0EE16FF06D1F7B2CF0E9432
:10478000A60DE1E7F4E0A1E6B4E000E010E0302F90
:104790002D919191922721F180E077247394472DF8
:1047A0004923D1F089833A83272181E009F480E00D
:1047B0008B830E9405178160782F9D838C834981AC
:1047C0005A816B818D810E94280BF801EF58FB4FB5
:1047D00080817826708218C08F5F770C8630F9F65A
:1047E0000F5F1F4F0E30110591F6B986BA861B86F2
:1047F0000E9405178160782F9D878C8749855A858F
:104800006B858D850E94280B0E94E00590916F04B6
:10481000891731F00E94E00580936F040E949B0786
:1048200080917F04843009F069C040900E0250905E
:104830000F02609010027090110241145104610443
:10484000710409F45BC0209100022F702093E900ED
:104850008091E80082FF52C03091F3008091F20015
:1048600090E0932B892B31F48091E8008B77809333
:10487000E80044C03091F3008091F20090E0932B67
:104880000097E1F130917F04343011F54114510467
:1048900061047104E9F02093E9003091E80032FFEF
:1048A00017C03091F3004091F20050E0532B452B9C
:1048B00011F03091F1003091F3004091F20050E09E
:1048C000532B452B29F43091E8003B773093E800D7
:1048D0000197D6CFA9BC99BC09B400FEFDCF809149
:1048E000D8008F7D8093D8008091E0008260809313
:1048F000E0008091E00081FDFCCFF3CE80917F0449
:10490000843009F0EECE80910E0290910F02A091BA
:104910001002B0911102892B8A2B8B2B09F4E1CE66
:104920008091FB018F708093E9008091E80080FF07
:10493000D8CE8AEF91E00E94A626D3CE882341F0FC
:10494000809590911E04892380931E040C94F31784
:104950000895882339F090911E04892B80931E04BA
:104960000C94F3170895882341F0809590911F04CB
:10497000892380931F040C94F3170895882339F03A
:1049800090911F04892B80931F040C94F3170895B2
:10499000FC0186819781009719F00E94070604C0E8
:1049A000808191810E947918292F2F70E92FE2953B
:1049B000EF704E2F50E0FA013297EE30F105B8F467
:1049C000E658FF4F0C942328803F99F018F4883E56
:1049D00070F40FC0843F59F40CC0883E50F0813F02
:1049E00031F407C0822F869586958695089580E0DC
:1049F000089581E0089510921E0410921D040E94F3
:104A0000F31780E090E00E94CA0580E090E00C94EB
:104A1000B40510921F0486E0E3E9F3E0DF011D9284
:104A20008A95E9F70C94FB24882309F458C0682F71
:104A3000823869F40E94E00581FF51C069E381E991
:104A400093E00E9447170E94F31769E30EC0833872
:104A500091F40E94E00580FF42C063E581E993E0A4
:104A60000E9447170E94F31763E581E993E00E94D3
:104A70003A170C94F317843869F40E94E00582FF1A
:104A80002EC067E481E993E00E9447170E94F31764
:104A900067E4EBCF8CEF860F813A38F380E2860F24
:104AA000883070F4677081E090E001C0880F6A95EB
:104AB000EAF7809590911F04892380931F04D9CF32
:104AC0008BE5860F833020F480E090E00C94CA05DB
:104AD000685A673120F480E090E00C94B4050895A2
:104AE000CF93882309F496C0C82F8238B1F40E946E
:104AF000E00581FD8FC069E381E993E00E944717DB
:104B00000E94F3172FEF81EE94E0215080409040F7
:104B1000E1F700C0000069E317C08338E1F40E94A8
:104B2000E00580FD77C063E581E993E00E944717C7
:104B30000E94F3172FEF81EE94E0215080409040C7
:104B4000E1F700C0000063E581E993E00E943A17B5
:104B5000CF910C94F3178438B1F40E94E00582FDE4
:104B600059C067E481E993E00E9447170E94F31758
:104B70002FEF81EE94E0215080409040E1F700C09B
:104B8000000067E4E1CF8CEF8C0F813A80F4E3E919
:104B9000F3E089E993E02191C217A1F18E179F07F5
:104BA000D1F76C2F81E993E00E944717D1CF80E2C3
:104BB0008C0F883068F4C77081E090E001C0880FE6
:104BC000CA95EAF790911F04892B80931F04C0CFE8
:104BD000EBE5EC0FE33040F4F0E0EB53FD4F808168
:104BE00090E0CF910C94CA05C85AC73198F4EC2FC5
:104BF000F0E0EE0FFF1FE853FD4F80819181CF91D0
:104C00000C94B4056C2F81E993E00E943A170E943E
:104C1000F317C7CFCF910895CF93C82F0E94702567
:104C2000C93349F42FEF87EE93E021508040904044
:104C3000E1F700C000008C2FCF910C941425EF9267
:104C4000FF920F931F93CF93DF93CDB7DEB760979B
:104C50000FB6F894DEBF0FBECDBF29873A874B87CA
:104C60005C876D877E878F87988BCE0109960E941F
:104C7000E81981114AC088E0FE013996DE011196DB
:104C800001900D928A95E1F7E984FA840C851D85DF
:104C9000A8016F2D8E2D0E946319811136C0A0913D
:104CA000A303B0E0CD010196877099272091E4031A
:104CB00030E08217930781F1E982FA821D830C8329
:104CC00093E0AA0FBB1F9A95E1F7AC55BC4F98E053
:104CD000FE01319601900D929A95E1F78093A3031E
:104CE0000E94721912C028E0829FC00111248C55C5
:104CF0009C4F0E94E8198823E1F08091E40390E042
:104D00000196877099278093E4038091E403909142
:104D1000A3038913E8CF0DC00E9409251092A303B5
:104D20001092E403EBE9F3E088E0DF011D928A953D
:104D3000E9F760960FB6F894DEBF0FBECDBFDF91E6
:104D4000CF911F910F91FF90EF90089580917F0474
:104D5000843069F580910E0290910F02A0911002AB
:104D6000B0911102892B8A2B8B2B09F18091FB01C9
:104D70008F708093E9002091F3008091F20090E021
:104D8000922B892B91F09091E8008091E8008E772A
:104D90008093E80095FD09C00E94FC20811108C0A5
:104DA0008091E8008E778093E80080E0089582E0AB
:104DB0000895EF92FF920F931F93CF93DF937C019F
:104DC0008B010E94FC20811119C0E701011511051A
:104DD000A1F08091E80085FD0AC08091E8008E77FF
:104DE0008093E8000E94FC20882381F307C089910A
:104DF0008093F10001501109E9CF80E0DF91CF915C
:104E00001F910F91FF90EF9008951092B9008CE0E0
:104E10008093B8000895EF92FF920F931F93CF9362
:104E2000DF93182FEB011092BC0084EA8093BC0042
:104E30000E9405177C018091BC0087FD0EC0CF3F0A
:104E40008FEFD807C1F30E9405178E199F098C17A1
:104E50009D0788F38EEF9FEF2EC08091B900887F69
:104E6000883041F08091B900887F803119F08FEF50
:104E70009FEF21C01093BB0084E88093BC000E9488
:104E800005178C018091BC0087FD0CC0CF3F8FEFD0
:104E9000D807C1F30E940517801B910B8C179D0743
:104EA00088F3D8CF8091B900887F883111F08034A1
:104EB000F1F680E090E0DF91CF911F910F91FF908C
:104EC000EF9008950F931F93CF93DF93EB0180939F
:104ED000BB0084E88093BC000E9405178C01809180
:104EE000BC0087FD0EC0CF3F8FEFD807C1F30E94F3
:104EF0000517801B910B8C179D0788F38EEF9FEF92
:104F00000CC02091B900287F81E090E0283211F494
:104F100080E090E0919581959109DF91CF911F916B
:104F20000F9108950F931F93CF93DF93EC0184E8C3
:104F30008093BC000E9405178C018091BC0087FD06
:104F40000EC0CF3F8FEFD807C1F30E940517801B1B
:104F5000910B8C179D0788F38EEF9FEF03C0809114
:104F6000BB0090E0DF91CF911F910F91089584E9EC
:104F70008093BC000895F999FECF92BD81BDF89A47
:104F8000992780B50895A6E1B0E044E050E00C9484
:104F9000F527A8E1B0E042E050E00C94F527262F79
:104FA000F999FECF92BD81BDF89A019700B402161F
:104FB00039F01FBA20BD0FB6F894FA9AF99A0FBECD
:104FC00008950396272F0E94D0270E94CF27252FD0
:104FD0000E94D027242F0C94D0270196272F0E94BF
:104FE000D0270C94CF27DC01CB01FC01F999FECF2F
:104FF00006C0F2BDE1BDF89A319600B40D92415061
:105000005040B8F70895991B79E004C0991F96178E
:1050100008F0961B881F7A95C9F780950895AA1BFA
:10502000BB1B51E107C0AA1FBB1FA617B70710F093
:10503000A61BB70B881F991F5A95A9F780959095C5
:10504000BC01CD010895EE0FFF1F0590F491E02DF6
:1050500009940F931F93CF93DF938230910510F43F
:1050600082E090E0E0918204F091830420E030E05F
:10507000A0E0B0E0309719F14081518102811381A5
:1050800048175907C8F08417950769F4109731F04D
:1050900012960C93129713961C9327C000938204C8
:1050A0001093830422C02115310519F042175307CC
:1050B00018F49A01BD01EF01DF01F801DBCF2115E2
:1050C0003105F9F0281B390B2430310580F48A8131
:1050D0009B816115710521F0FB019383828304C0DC
:1050E0009093830480938204FE01329644C0FE01B3
:1050F000E20FF31F81939193225031093983288362
:105100003AC02091800430918104232B41F42091F6
:105110000201309103013093810420938004209197
:105120000001309101012115310541F42DB73EB741
:105130004091040150910501241B350BE09180043E
:10514000F0918104E217F307A0F42E1B3F0B281700
:10515000390778F0AC014E5F5F4F2417350748F0F0
:105160004E0F5F1F5093810440938004819391936D
:1051700002C0E0E0F0E0CF01DF91CF911F910F91ED
:105180000895CF93DF93009709F481C0FC01329713
:1051900013821282A0918204B0918304109781F44B
:1051A00020813181820F931F2091800430918104EE
:1051B0002817390751F5F0938104E093800467C004
:1051C000ED0120E030E0CE17DF0740F44A815B813B
:1051D0009E0141155105F1F0EA01F5CFD383C28359
:1051E00040815181840F951FC817D90759F48881D0
:1051F0009981840F951F0296918380838A819B8178
:10520000938382832115310529F4F0938304E0937D
:1052100082043DC0E901FB83EA8349915991C40F9F
:10522000D51FEC17FD0761F480819181840F951FD4
:105230000296E90199838883828193819B838A8383
:10524000E0E0F0E012968D919C911397009719F091
:10525000FD01DC01F7CF8D919C9111979D012E5F8F
:105260003F4F820F931F20918004309181042817B3
:10527000390769F4309729F410928304109282045C
:1052800002C013821282B0938104A0938004DF9144
:08529000CF910895F894FFCFBF
:105298000000840420000128012B000000220126C0
:1052A8001300001C0137130000160108110000103C
:1052B800010411000037001E0236002302241406E0
:1052C8001325141513260219132702051327142072
:1052D8000227141F020814201321021C130611218F
:1052E8001437021911360237023602051116111643
:1052F800132F0034132F0233132F1433112F1332AB
:1053080013301430130613151336141D1437141BD9
:10531800141F022002240225133514641333022EAD
:10532800002D003302301133146200331459001E6B
:10533800115A001F115B0020115C0021115D002231
:10534800115E0023115F0022136000231361002403
:10535800135500220257003613350035022C002A57
:10536800002F0008002F0208002F000C002F020C4D
:10537800002F0012002F0018002F00040001200049
:105388004E1671164D1633212F210284100000018C
:105398000510000001830800000100000000000063
:1053A8000000000000A120000000000200000D0124
:1053B8000D020D030D040D050D000C010C020C036C
:1053C8000C040C050C000B010B020B030B040B0562
:1053D8000B000A010A020A030A040A050A00090165
:1053E800090209030904090509000801080208035C
:1053F8000804080508000701070207030704070552
:105408000700060106020603060406050600050154
:10541800050205030504050505000401040204034B
:105428000404040504000301030203030304030541
:105438000300020102020203020402050200010144
:10544800010201030104010501000001000200033B
:105458000004000500818283E200E900EA00B5004B
:10546800B600B700CD008301CC008A0192019401F7
:105478002102230224022502260227022A02B3005F
:06548800B4006F0070008B
:00000001FF
