:100000000C9487020C94A4020C94A4020C94A402F5
:100010000C94A4020C94A4020C94A4020C94A402C8
:100020000C94A4020C94A4020C944D1A0C948919FB
:100030000C9474110C94A4020C94A4020C94A402C9
:100040000C94A4020C94A4020C94A4020C94A40298
:100050000C94A4020C9442110C94A4020C94A402DB
:100060000C94A4020C94A4020C94A4020C94A40278
:100070000C94A4020C94A4020C94A4020C94A40268
:100080000C94A4020C94A4020C94A4020C94A40258
:100090000C94A4020C94A4020C94A4020C94A40248
:1000A0000C94A4020C94A4020C94A4022C072C0718
:1000B00066076607B707BA095A09BA09D307B1082C
:1000C000C208C208850A880A8B0A8E0A910A940A15
:1000D000970A8817AF176119AF176119F7171A1820
:1000E000611915192919D81ED81EEB1EEB1EE11E29
:1000F000EB1EEB1EEB1ED81ED81EE61EEB1EEB1EE3
:10010000E61E29002B003962E000640000001E009A
:10011000140004001D00E20001581F001A00160020
:100120001B00E3004C002000080007000600500000
:100130002A0021001500090019004F0028002200A4
:1001400017000A00050000004A00025832000000B3
:1001500003580000650002583000000001580000FC
:10016000035823001C000B00110000004D00240068
:1001700018000D00100052004B0025000C000E006E
:10018000360051002C00260012000F003700E3005B
:1001900028002700130033003800E6004E00490015
:1001A0002F003972E400340000000100010001005A
:1001B0000100350000003A002414640025140100F9
:1001C00001003B00201464023702010001003C00E2
:1001D000211422002214010001003D002E142D00E4
:1001E0002D14010001003E0023142E0034020000F3
:1001F00001000100010000002714000001000100BF
:10020000010000000100000001003F0056005700FF
:1002100037000000010040005F005C005900010051
:100220000100410060005D005A0001000100420031
:1002300061005E005B006200010043005500540055
:10024000340263000100440045000100010008146D
:10025000000001000100010001001C010000A800D5
:100260004B004E001A0101000100AA004A00500094
:100270001B0101000100A90052005100060101000C
:100280000100BE004D004F00190101000100BD003A
:100290002903160A1601000001000100085D000094
:1002A000095D000001000100B3000000B200000081
:1002B000010046002903160A010000000100AC00FD
:1002C0004A005000010001000100AE005200510040
:1002D000010001000100AD004D004F0001000100D0
:1002E0000100AB004B004E000100010001000100C5
:1002F000010001000100010000002A0000000000D0
:1003000000000000000000000000000000000000ED
:100310000000015A075A085A00000000105A025AF9
:10032000095A0A5A000000000F5A035A0B5A0C5A75
:10033000000000000000045A0D5A0E5A0000000090
:100340000000055A115A0000010000000000065A82
:10035000165A00002A0000000100235A1A5A1B5A9C
:10036000000000000000245A1C5A1D5A0000000022
:100370000000255A1E5A1F5A00000000195A265A1A
:10038000205A215A00000000185A275A225A295A86
:10039000000000000000000000000000000000005D
:1003A000000000D0D0D0D0D0D0010102040810202D
:1003B0004142444848000000484850608182848897
:1003C00090A0C1C2C4D0D0D0D0D0D0C8000000000E
:1003D000000000000000000000000000000000001D
:1003E000000005010980A10185031A81002A83000C
:1003F000160100260300950175108100C0050C0947
:1004000001A10185041A01002A9C02160100269C04
:1004100002950175108100C005010906A1010507BB
:1004200019E029E71500250195087501810295015C
:10043000750881010507190029FF150026FF0095A1
:1004400006750881000508190129059505750191B2
:1004500002950175039101C009027800040100A012
:10046000FA09040000010301010009211101000142
:100470002240000705810308000A09040100010366
:100480000000000921110100012236000705820346
:1004900020000A080B020202020100090402000106
:1004A00002020100052400100104240202052406B2
:1004B0000203070583030800FF09040300020A0082
:1004C000000007050502100005070584021000055D
:1004D00012011001EF020108EDFE071301000102F5
:1004E000030104033000000016034500720067009A
:1004F0006F0064006F007800200045005A00000083
:1005000008035A00530041000000040309041124A9
:100510001FBECFEFDAE0DEBFCDBF12E0A0E0B1E05A
:10052000E6E9F5E402C005900D92A031B107D9F7D4
:1005300023E0A0E1B2E001C01D92A931B207E1F7CA
:100540000E94581C0C94C9220C9400004F925F9298
:100550006F927F929F92AF92BF92CF92DF92EF9273
:10056000FF920F931F93CF93DF9300D000D01F9281
:10057000CDB7DEB7FC010081F18083819481892BA6
:1005800039F01FEFF11206C091E00F3F19F403C0DC
:1005900091E001C090E090FD22C76F0185E0DE018F
:1005A000119601900D928A95E1F7F60122818981D9
:1005B0009A81222349F00E947C12182F682F89818A
:1005C0009A810E94F61203C00E94C912182F24E5D6
:1005D000129FF001112436E0F39EE00DF11D11246D
:1005E000E00FF11DEE0FFF1FEE5FFE4F059114911E
:1005F00009308DE5180709F042C0F6018281882391
:1006000009F431C19091DE0281E0890F8770987FF3
:10061000853020F4892B8093DE0202C09093DE02A5
:100620008091DE028770FFEF8F9FC00111249595A6
:100630008795959587959927909389008093880051
:1006400090938B0080938A0090938D0080938C0010
:100650004091DE025091DF026091E0027091E10270
:100660008FE090E00E9460216091B1027091B2022F
:100670008091B3029091B4020E94F00DF4C0003357
:100680002AE5120759F028F4C8019A558A97A8F16B
:10069000EAC001338AE5180771F0E5C0F601408130
:1006A00051816281738184810E941E0C882309F428
:1006B00096C680E00CC0F601408151816281738151
:1006C00084810E941E0C882309F489C681E00F9062
:1006D0000F900F900F900F90DF91CF911F910F917E
:1006E000FF90EF90DF90CF90BF90AF909F907F9062
:1006F0006F905F904F900C94120CF090F202FF20DC
:1007000021F0F1E0FF1659F156C0F6014081518108
:100710006281738184810E941E0CF801FF27EE55CF
:10072000FC4F9491A92FA295A695A695A370B0E031
:10073000882369F09D01205F3D4FF9018081892B5D
:100740008083AA5EBD4F0C91E92FE02B06C0A05F0D
:10075000BD4FE92FE0950C91E023EC932CC0F601FE
:10076000408151816281738184810E941E0C482FD7
:10077000802F67E00E948221292FE82FF0E086E099
:1007800090E0821B910921E030E001C0220F8A95A0
:10079000EAF7DF01A05FBD4F442349F08C91822B23
:1007A0008C93EA5EFD4F8081282B208304C0209526
:1007B0008C9128232C93F6014081518162817381B1
:1007C00084810E941E0C90911C02882311F09F5F6F
:1007D00003C0915019161CF490931C0200C610928D
:1007E0001C02FF2079F0F1E0FF1227C08091160271
:1007F00080688093160206E112E03CE1E32E32E0CD
:10080000F32E13C006E112E04AE1E42E42E0F42E9A
:10081000F80181918F0181110E941C1CE016F106E4
:10082000B9F780E00E941C1C08C0F80181918F017B
:100830000E941C1CE016F106C1F70F900F900F905C
:100840000F900F90DF91CF911F910F91FF90EF903C
:10085000DF90CF90BF90AF909F907F906F905F9010
:100860004F900C94030CF6018281882319F1033E0A
:10087000FCE51F07C1F050F4013E3CE5130781F091
:10088000023E8CE51807B1F481E010C0043E9CE5FF
:10089000190759F0053EECE51E0761F484E006C037
:1008A0001092DA0205C082E001C083E08093DA0290
:1008B0000E94FD0B17FF71C0F6018281882309F4A5
:1008C0006CC08091B80280931D021092B802809192
:1008D000DA02813071F048F08230C1F08430E1F406
:1008E00086EE0E94122088E115C082EE0E948E1FC3
:1008F00013C083E00E94131F88E10E948E1F88E1CD
:100900000E94321F83E00E94081F06C082EE0E94F0
:100910008E1F87E50E9412208FE39CE90197F1F773
:1009200000C000005801E894B7F82CE0E22EF12C4A
:10093000C5010E2C02C0969587950A94E2F7282FE0
:100940002F7041F0822F90E02A3010F44D9604C0B1
:10095000069702C087E290E00E94122094E0E91A14
:10096000F108ECEFEE16EFEFFE0611F78091DA02D8
:10097000813039F040F0823031F0843051F488E237
:1009800006C08CE204C082EE0E94321F02C00E94A8
:10099000122080911D028093B802033FFCE51F07DF
:1009A000C1F180F4083D3CE51307C9F0093D8CE531
:1009B0001807D9F1073D9CE51907D1F526E241EE6C
:1009C00061EE10C0053FECE51E0759F130F1063F1E
:1009D0002CE5120769F527E245EE66EE03C027E233
:1009E00045EE65EEC6010F900F900F900F900F909F
:1009F000DF91CF911F910F91FF90EF90DF90CF90FB
:100A0000BF90AF909F907F906F905F904F900C94AD
:100A1000570F26E241EE60EEE5CF27E245EE64EEA9
:100A2000E1CF26E241EE62EEDDCF28E241E0D9CF10
:100A3000F6018281882309F44CC110921E02023013
:100A4000FCE51F0708F42FC106312CE5120738F02A
:100A500098012A5F3C452730310508F024C10E94E7
:100A6000C4119093F1028093F0020F303CE513071C
:100A700009F4CFC008F042C008309CE5190709F41A
:100A8000A8C0F0F40430FCE51F0709F490C068F436
:100A900002303CE5130709F486C003301C4509F019
:100AA000DFC08091F0028260D9C006309CE5190752
:100AB00009F487C008F089C08091F0028860CEC038
:100AC0000B30FCE51F0709F495C068F409303CE5DC
:100AD000130709F482C00A301C4509F0C1C0809197
:100AE000F002886080C00D309CE5190709F486C0CB
:100AF00008F087C08091F0028D7FB0C00A3FFCE50E
:100B00001F0709F457C050F502313CE5130709F4FB
:100B100088C068F400319CE5190709F47EC00131F2
:100B20001C4509F09DC08091F0028F7B97C0043175
:100B3000FCE51F0709F487C008F479C005311C459E
:100B400009F08EC08091F00282FB222720F991E00B
:100B5000922790FB82F990FB83F980C00D3F8CE5D2
:100B6000180709F452C058F40B3FECE51E0729F1B1
:100B70000C3F1C4509F074C08091F10260C00F3F2A
:100B80002CE5120709F458C080F101151D4509F044
:100B900067C08091F102982F909591708E7F892B7C
:100BA00090FB81F94DC08091F002816057C0809127
:100BB000F00219C08091F1021BC08091F1028260A5
:100BC0003FC08091F002806149C08091F002806254
:100BD00045C08091F002806441C00E94FD1E80915A
:100BE000F00280683BC0846039C08091F10282606D
:100BF000816026C08091F0028E7F30C08091F0022B
:100C000019C08091F002877F29C08091F1028D7F09
:100C100017C08091F0028F7E21C08091F0028F7DFD
:100C20001DC00E94FD1E8091F0028F7717C0809139
:100C3000F002877F8B7F12C08091F1028D7F8E7FC3
:100C40008093F1020DC00E94FD1E8091F00287FB8F
:100C5000222720F991E0922790FB87F98093F002F8
:100C60006091F0021091F10284E090E00E944E2128
:100C7000612F81E290E00E944E210F900F900F9023
:100C80000F900F90DF91CF911F910F91FF90EF90F8
:100C9000DF90CF90BF90AF909F907F906F905F90CC
:100CA0004F900C94FD1E0631FCE51F07B1F58091B5
:100CB000B8028A7A91E009F490E090931F028823A9
:100CC00011F065E301C069E288E392E00E94AA1195
:100CD0000EC006311C4509F07BC080911F0288239D
:100CE00009F47BC365E388E392E00E949D110F90B5
:100CF0000F900F900F900F90DF91CF911F910F9158
:100D0000FF90EF90DF90CF90BF90AF909F907F903B
:100D10006F905F904F900C944F1201159CE519074E
:100D2000D1F00E3D1C4509F053C00F900F900F906D
:100D30000F900F90DF91CF911F910F91FF90EF9047
:100D4000DF90CF90BF90AF909F907F906F905F901B
:100D50004F900C94D5110E94FD1EFFEF04E31CE0A0
:100D6000F15000401040E1F700C00000F89481E02D
:100D70008093E00080E28093D8001092C9008FE158
:100D80009EE40197F1F700C000001DBA10926800C0
:100D90001CBC10BE1FBA10927A0010926E00109206
:100DA0006F0010927100109272001092C9001092A0
:100DB000BC0014B817B81AB81DB810BA1092BC000D
:100DC00015B818B81BB81EB811BA0C94003F07C369
:100DD000F60100811181882349F0C8010E947C122C
:100DE000F82E682FC8010E94F61204C0C8010E94A4
:100DF000C912F82EB8018F2D0E94440C8C01B82E18
:100E0000F601E580E2949FE0E922F280F110109271
:100E1000B7028091B502877079F0FF2069F080E217
:100E2000800F883048F082E00E9453138091B50211
:100E30008770AA24A3948111A12C912E92948FE003
:100E40009822892D90E08C30910508F093C2FC0126
:100E5000EA5AFF4F0C94A221812F807F1F708823B4
:100E600011F01295107FFF20B9F0112309F40CC284
:100E700080E2800F883010F0B11006C08091B80277
:100E8000182B1093B80205C08091B702182B10934D
:100E9000B7020E944F12F8C1802F0E94321F112307
:100EA00009F468C2005E1095083010F0B11006C059
:100EB0008091B80218231093B80205C08091B70240
:100EC00018231093B7020E944F1254C2812F807FC3
:100ED0001F70803211F01295107FBB2021F0F1E0DD
:100EE000BF16E1F028C0FF2081F08091B902EE200A
:100EF00051F001E0E01207C0182B181709F43AC2AC
:100F00001093B90237C2812B10C0EE2021F021E0EE
:100F1000E21609F42FC20E94491225C0FF2041F0B9
:100F200031E03E1508F426C2812F0E94281F22C2FC
:100F3000E11020C218C0FF2049F0EE20A9F3F6010D
:100F4000858180FFA1C18F708583EECFEE2059F09F
:100F5000093309F0ABC1FFEF17EE23E0F150104069
:100F60002040E1F7A1C1812F0E941D1F03C2812FE4
:100F700086958695837019F0813059F0FBC1FF206A
:100F800019F0C801937002C080E090E00E94DB0B72
:100F9000F9C1FF2019F0C801937002C080E090E011
:100FA0000E94C50BEFC1812F837009F069C0F11059
:100FB000E5C1902F929596959770990F990F802F74
:100FC0008F70482E512C612C712C092E04C0440CBA
:100FD000551C661C771C0A94D2F704FF12C04FE020
:100FE00050E060E070E004C0440F551F661F771F9B
:100FF0009A95D2F7DB01CA0180959095A095B0959E
:1010000003C080E090E0DC0116951695412F4370F7
:10101000423019F1C8F40091BA021091BB0220913C
:10102000BC023091BD02413059F084299529A6298E
:10103000B729BC01CD0160237123822393230AC009
:10104000402A512A622A732ABC01CD0164297529DC
:10105000862997290E948D1391C184299529A62953
:10106000B7290091BA021091BB022091BC023091C5
:10107000BD02BC01CD016027712782279327EACFEB
:10108000FF2019F0812F817001C08695882309F413
:1010900075C1902F929596959770990F990F802F03
:1010A0008F70482E512C612C712C092E04C0440CD9
:1010B000551C661C771C0A94D2F704FF12C04FE03F
:1010C00050E060E070E004C0440F551F661F771FBA
:1010D0009A95D2F7DB01CA0180959095A095B095BD
:1010E00003C080E090E0DC0116951695412F437017
:1010F0004230D9F068F50091B1021091B20220910E
:10110000B3023091B402413059F084299529A629BF
:10111000B729BC01CD0160237123822393231EC014
:10112000402A512A622A732A13C084299529A629A4
:10113000B7290091B1021091B2022091B30230910F
:10114000B402BC01CD01602771278227932706C016
:10115000BC01CD0164297529862997290E94221393
:101160000DC11F70FF2039F0812F0E946C13802F5A
:101170000E94281F03C1802F0E941D1F812F0E94E3
:101180002E13FCC0802F32EFB31609F43EC03B157E
:1011900038F090EFB91661F0E1EFBE1689F16FC03B
:1011A000F3EFBF16C9F124EFB21609F44CC067C0C3
:1011B000FF2009F1E110DEC01F7181E090E0A0E0A6
:1011C000B0E0AC01BD0104C0440F551F661F771F7E
:1011D0001A95D2F78091B1029091B202A091B30218
:1011E000B091B4028A019B01082719272A273B27BF
:1011F000C901B80125C021E02E1508F4BBC0DCCF21
:10120000FF2029F0812F8F712CC0FF20D9F3812F6F
:101210008F710E942E13AEC0FF2079F01F7181E004
:1012200090E0A0E0B0E0BC01CD0104C0660F771FE4
:10123000881F991F1A95D2F703C060E070E0CB01B8
:101240000E94221397C0FF2079F01F71812F0E9406
:101250006C1338E0139FC001112483608093B502A2
:10126000812F0E946C1386C081E00E94531381E09D
:101270008E1508F07FC082E00E9453137BC0FF20D0
:1012800039F0EE2009F4BECF802F0E948E1F72C06D
:10129000EE2009F4BCCF893349F49FEFE7EEF3E089
:1012A0009150E040F040E1F700C00000802F0E9424
:1012B000321F60C012EFB116E1F01B1538F020EFBD
:1012C000B21669F031EFB31611F12BC084EFB816E6
:1012D000C9F0B81660F095EFB91671F022C0FF2082
:1012E00009F450C09091410281E0892708C081E053
:1012F000F826F092410246C0F11044C081E080938C
:10130000410240C0F1103EC0109241023BC0FF209C
:1013100029F080914002882329F329C0EE2011F39F
:1013200031C080914002EE20C1F0882341F09091BD
:10133000410281E089278093410210924002802F70
:10134000FF2019F00E948E1F1DC00E94321F86E0F0
:10135000F60111928A95E9F715C0882399F0F110EA
:1013600011C09091410281E089278093410210923F
:10137000400208C088EF890D843020F40E94F10BF0
:101380000E94E80DAA2059F18091B50280FD27C086
:10139000F60112828595859585950E946C13C6018C
:1013A0000E94A6028091B5028595859585950F903E
:1013B0000F900F900F900F90DF91CF911F910F9191
:1013C000FF90EF90DF90CF90BF90AF909F907F9075
:1013D0006F905F904F900C942E1369E284CC0F9025
:1013E0000F900F900F900F90DF91CF911F910F9161
:1013F000FF90EF90DF90CF90BF90AF909F907F9045
:101400006F905F904F9008959091F00292FF0DC001
:10141000282F2871283019F4877F846006C0282F70
:101420002471243011F48B7F886093FF0DC0282F26
:101430002871283119F4877E846106C0282F247111
:10144000243111F48B7E88612091F10220FF0DC0C0
:10145000382F3871383019F4877F816006C0382FF3
:101460003171313011F48E7F886021FF0DC0282F3B
:101470002871283119F4877E816106C0282F2171D7
:10148000213111F48E7E886194FD877E0895CF937B
:10149000E82F873080F58091070190910801892B12
:1014A00009F047C0CE2F64E670E080E40E948A20F5
:1014B0009093080180930701892BD1F464E670E0D2
:1014C00082E10E94E1209093080180930701892B1B
:1014D00079F481E090E001C0880FCA95EAF764E6EC
:1014E00070E080950E94E1209093080180930701AD
:1014F000CF910C94362190E0FC013797E730F1054D
:10150000C0F4EE59FF4F0C94A221209A289811C0E4
:10151000219A29980EC0229A2A980BC0239A2B98B8
:1015200008C0529A5A9805C0539A5B9802C03E9AD6
:101530004698CF910895CF93873008F03FC08091AF
:10154000070190910801892B09F041C064E670E021
:1015500080E40E948A209093080180930701892BE0
:1015600011F0C0E027C064E670E083E10E94E12052
:101570009093080180930701892B99F764E670E046
:1015800081E40E948A209093080180930701892BAF
:1015900041F784E690E00E94112197FF05C09093E7
:1015A000080180930701DDCFC82FC0951092080174
:1015B000109207010E9436218C2F0AC09FB18FB173
:1015C000807F869586959370892B809501C080E0F9
:1015D000CF9108950F931F93CF93DF93CDB7DEB7CD
:1015E00067970FB6F894DEBF0FBECDBF4B8B5C8BF9
:1015F0006D8B7E8B8F8B0E891F890115110531F044
:101600005F3F31F481E04F3F19F403C081E001C036
:1016100080E080FD32C0242F30E0A1E0B0E0042E55
:1016200001C0AA0F0A94EAF7852F90E0662319F00B
:101630007091410205C0FC01E65DFD4F70817A2387
:101640007723A1F046E0489FF001499FF00D112457
:10165000E20FF31FEE0FFF1FEA5CFE4F4081518146
:10166000FC01E65DFD4F9081A92B06C0FC01E65D03
:10167000FD4FA0958081A823A08386E0FE013D96C2
:10168000DF01982F1D929A95E9F74D875E876F8746
:10169000198B088BDE01179601900D928A95E1F760
:1016A000CE0107960E94091481113EC086E0FE011A
:1016B0003796DE01119601900D928A95E1F7FF8130
:1016C000E8856A857B856115710531F0EF3F31F45E
:1016D00081E0FF3F19F403C081E001C080E080FD9C
:1016E00023C02091480230E0C901019687709927F4
:1016F0004091790250E08417950779F1F983EA83E4
:101700007D836C8396E0929FD001939FB00D11244E
:10171000A75BBD4FFE01319601900D929A95E1F7BE
:10172000809348020E94971316E08091790290916D
:1017300048028917F9F0189FC0011124875B9D4F5B
:101740000E9409148823B1F08091790290E00196FB
:101750008770992780937902E8CF0E94FD1E10922E
:10176000480210927902E2E4F2E086E0DF011D9285
:101770008A95E9F767960FB6F894DEBF0FBECDBF26
:10178000DF91CF911F910F91089520912802309100
:1017900029022817390771F09093290280932802B3
:1017A000E091F302F091F402309721F00084F1858A
:1017B000E02D0994089520912602309127022817E0
:1017C000390771F09093270280932602E091F3028B
:1017D000F091F402309721F00680F781E02D099412
:1017E0000895E091F302F091F402309721F0019016
:1017F000F081E02D099480E008956091DA028CE098
:1018000090E00C944E2186E0E0E1F2E0DF01982FB9
:101810001D929A95E9F7E6E1F2E0DF011D928A95C3
:10182000E9F70895CF93C82F0E94030CC093F202EA
:101830006C2F8DE090E0CF910C944E21CF93DF93ED
:1018400000D000D01F92CDB7DEB76B837C838D8331
:101850008C819D81892B31F05F3F31F481E04F3FD6
:1018600019F403C081E001C080E080FD02C08B81DB
:1018700002C080E090E081700F900F900F900F9069
:101880000F90DF91CF910895CF93DF9324E5829F4E
:10189000C0011124FC0146E0749FE00DF11D1124EC
:1018A000E60FF11DEE0FFF1FEE5FFE4FC591D491C5
:1018B000CE01C238D10569F1B0F4C133D10509F4C4
:1018C00075C048F4C932D10509F469C0CA32D105DE
:1018D00009F473C085C0C533D10509F459C0C933B3
:1018E000D105B9F07DC0C33ED10571F138F4C03ED9
:1018F000D105B1F0C23ED10511F172C0C63ED1058D
:10190000B9F1C73ED105C9F1C43ED10509F068C09F
:1019100024C02091F00220FD5DC021FD5BC060C0AD
:101920002091F00220FD50C02091F10220FF4DC116
:101930008091F00284FD47C183EE90E046C1209182
:10194000F00222FF42C1F4CF8091F00282FD3FC03D
:101950008091F10280FD3EC0EBCF2091F10221FF8A
:1019600034C18091F00284FD2EC187EE90E02DC13C
:101970002091F00223FF29C1F4CF8091F00283FD72
:101980002CC08091F10281FFECCF84EE90E01DC16C
:101990002091F00225FF19C189E290E016C1209143
:1019A000F00225FF12C185E390E00FC12091F00203
:1019B00026FF0BC18AE290E008C12091F00226FFC9
:1019C00004C181E390E001C189E390E0FEC082EEB2
:1019D00090E0FBC080EE90E0F8C086EE90E0F5C0AD
:1019E000C11552E5D50708F06BC0C11521E5D20736
:1019F00028F09C2F8827816F906AE7C0C83ED105E8
:101A000070F5C03ED10508F0E0C0C83AD105B8F481
:101A1000C53AD10550F08C2F855AC82FD0E0C2525C
:101A2000DE4F888190E09064D0C0C130D10509F4C8
:101A3000CCC008F4C8C0249708F4C5C0C6C0CF3BCA
:101A4000D10508F0C0C08C2F885AC82FD0E0CC0F29
:101A5000DD1FCF51DE4F888199819464B6C0C115D6
:101A600040E5D407F0F0CE01F4E096958795FA951D
:101A7000E1F7282F23703C2F337081E090E002C003
:101A8000880F991F3A95E2F79C68922B2C2F2F70A4
:101A90002695269550E2259F90011124822B932BA9
:101AA00094C0C11550E4D50720F0CE019F70906A14
:101AB0008CC09E013A9521153F4108F486C083C031
:101AC000C11556E5D50708F03FC0C11585E5D80713
:101AD00048F08C2F0E94040A8F7190E0982F88277D
:101AE000906273C0C11524E5D20728F09C2F882787
:101AF000846F906A6AC09E01237033279C2F96954D
:101B00009695C115D34580F441E050E002C0440FE2
:101B1000551F2A95E2F780E2989F90011124CA018F
:101B2000822B932B9C6851C041E050E002C0440FCF
:101B3000551F2A95E2F780E2989F90011124CA016F
:101B4000822B932B9A6841C0C1155AE5D50778F5C9
:101B5000C11589E5D80710F18C2F8F700E94040AF7
:101B60009E0194E0369527959A95E1F72F7030E025
:101B7000322F22273069A901482B0EC090568115BB
:101B8000904208F58D2F8F710E94040A9E01332721
:101B900030628F71A901582BCA0117C0C11528E501
:101BA000D20788F09C2F8827806F906A0EC0C115DD
:101BB0004BE5D40740F0CE01C1155CE5D507F0F642
:101BC0009927906602C080E090E0DF91CF91089560
:101BD00081FF03C0279A2F9A089527982F98089578
:101BE0008F929F92AF92BF92CF92DF92EF92FF922D
:101BF0004C01AA24BB2481149104A104B10411F066
:101C000020E103C04B015C0120E0FF24EB2CDA2C27
:101C1000C92CC114D104E104F10419F0285F460174
:101C200057017501640154E0F694E794D794C79482
:101C30005A95D1F7C114D104E104F10419F02C5FD5
:101C4000460157017501640142E0F694E794D79488
:101C5000C7944A95D1F7C114D104E104F10419F0F5
:101C60002E5F4601570175016401F694E794D794FD
:101C7000C794CD28CE28CF2809F02F5F56985E98BC
:101C800025982D9826982E98223049F0233029F057
:101C9000213039F4259A2D9A04C0259A2D9A269A36
:101CA0002E9AFF90EF90DF90CF90BF90AF909F90D3
:101CB0008F90089580E290E090930801809307014F
:101CC0008091230281110EC00E94842081E08093C4
:101CD00023022FEF83ED90E3215080409040E1F705
:101CE00000C0000064E670E080E40E948A209093C7
:101CF000080180930701892B09F04EC064E670E06B
:101D000080E00E94E1209093080180930701892BD5
:101D100009F042C064E670E080E00E94E120909308
:101D2000080180930701892BB9F564E670E08FE321
:101D30000E94E1209093080180930701892B61F5AF
:101D40000E94362164E670E080E40E948A2090932D
:101D5000080180930701892BF9F464E670E08CE0B8
:101D60000E94E1209093080180930701892BA1F440
:101D700064E670E080E00E94E12090930801809387
:101D80000701892B49F464E670E08FE30E94E120AB
:101D900090930801809307010E94362180910701EA
:101DA0000895CF93DF9356985E9825982D9826989E
:101DB0002E9827982F98C8E8D0E08FEF90E099836D
:101DC0008883AAE8B0E011969C938E93ECE8F0E04B
:101DD00091838083259A2D9A2FEF80E792E02150FE
:101DE00080409040E1F700C00000269A2E9A2FEF25
:101DF00080E792E0215080409040E1F700C0000071
:101E0000279A2F9A2FEF80E792E021508040904050
:101E1000E1F700C0000025982D982FEF80E792E0B1
:101E2000215080409040E1F700C0000026982E9895
:101E30002FEF80E792E0215080409040E1F700C012
:101E4000000027982F988091DE0287702FEF829FE5
:101E5000C001112495958795959587959927998324
:101E6000888311969C938E939183808356985E9875
:101E700025982D9826982E9827982F98DF91CF9106
:101E8000089584B1807F84B985B1807F85B98AB196
:101E9000837F8AB98BB1837F8BB93E98469808952A
:101EA00080B38C7080BB81B3836F81BB0895CF9268
:101EB000DF92EF92FF920F931F93CF93DF93C62F82
:101EC000142F022FFC0182818823E9F060931E0207
:101ED0000E946811909325028093240280E28C0F67
:101EE000883008F07CC0C77081E001C0880FCA95B7
:101EF000EAF7DF91CF911F910F91FF90EF90DF9064
:101F0000CF900C94281F80911E02681349C0209125
:101F10002402309125024FB7F8948091BE0290912F
:101F2000BF02A091C002B091C1024FBF6C017D0100
:101F3000EE24FF24A90160E070E0821B930BC4161D
:101F4000D506E606F70608F40197883C910540F5AA
:101F5000D0E2D10FC117B9F080E28C0F883040F485
:101F6000C77081E001C0880FCA95EAF70E941D1F63
:101F7000D83050F581E0912F977001C0880F9A9565
:101F8000EAF70E94281F802F0E941220D83038F5CF
:101F9000412F477081E001C0880F4A95EAF70AC0D7
:101FA00080E28C0F8830D8F4C77081E001C0880FC0
:101FB000CA95EAF7DF91CF911F910F91FF90EF90B3
:101FC000DF90CF900C941D1F802FDF91CF911F9138
:101FD0000F91FF90EF90DF90CF900C941220DF9143
:101FE000CF911F910F91FF90EF90DF90CF900895C8
:101FF000BF92CF92DF92EF92FF920F931F93CF93F6
:10200000DF938091070190910801892B91F08091D5
:1020100022028F5F8093220281110BC00E945A0E10
:1020200090E09093080180930701892B11F40E949E
:10203000D10E92EEE92E92E0F92E8701C0E0B12C8C
:1020400087E0C82ECC0E8C2F0E94470A8C2D0E9450
:10205000470A8C2F0E949B0AF8019081891721F072
:102060008083DD24D39401C0D12C8C2D0E949B0A47
:10207000F8019781891719F0878381E001C080E01A
:10208000D82ABD280E94410FCF5F0F5F1F4FC73076
:10209000B9F60E9468116AEF70E00E948E219C01DF
:1020A000682F809121028823E9F110922102E091AA
:1020B000D802F091D902DF011E9690E07BEF0AEF83
:1020C00010E080818B3FA9F0482F50E0681728F07E
:1020D0006901C41AD50AA60106C0E801C41BD50BC4
:1020E000AE01420F531F4E31510514F0708301C0F1
:1020F00091E03196EA17FB0721F790932102B11086
:1021000002C0911111C010922002E091D802F0910A
:10211000D90290912102A6EFB2E0AF01425F5F4F7A
:1021200080E007C0B110EFCF809120028111EBCF8A
:1021300017C0E70129917E013C91321741F03081AF
:102140003B3F21F460832C9391E001C081E0319604
:102150001196E417F50769F7909321028093200206
:102160008B2DDF91CF911F910F91FF90EF90DF901A
:10217000CF90BF90089508958091C4020895209152
:1021800079029091480256E02917A9F030E0529F59
:10219000F001539FF00D1124E75BFD4F7181761321
:1021A00006C07081781303C07281741306C02F5F5C
:1021B0003F4F2770E9CF80E0089581E00895CF93E5
:1021C000DF9320911403243039F521E02093E900B6
:1021D0002FEF3091E800215035FD06C035ED3A95DE
:1021E000F1F700002111F5CF2091E80025FF14C080
:1021F000EC0140E050E068E070E00E9458208091DF
:10220000E8008E778093E80088E0FE01A5ECB2E05C
:1022100001900D928A95E1F7DF91CF910895CF93C8
:10222000DF9300D01F92CDB7DEB7909114039430A6
:1022300019F589837B836A8382E08093E9008FEFBD
:102240009091E800815095FD06C095ED9A95F1F7C3
:1022500000008111F5CF8091E80085FF0DC040E0BE
:1022600050E063E070E0CE0101960E94582080911A
:10227000E8008E778093E8000F900F900F90DF9129
:10228000CF91089578941F920F920FB60F92112458
:102290008F939F93AF93BF938091BE029091BF02A3
:1022A000A091C002B091C1020196A11DB11D809301
:1022B000BE029093BF02A093C002B093C102BF912F
:1022C000AF919F918F910F900FBE0F901F90189517
:1022D0002FB7F8948091BE029091BF02A091C002E6
:1022E000B091C1022FBF08951F920F920FB60F92A7
:1022F00011248F939F93AF93BF938091F502811127
:1023000013C08091BE029091BF02A091C002B09113
:10231000C1024196A11DB11D8093BE029093BF02E0
:10232000A093C002B093C102BF91AF919F918F91D2
:102330000F900FBE0F901F9018959C012A5F3F4F82
:10234000FC014281461301C0128201968217930755
:10235000B9F708959C01FC0132969FEF80E041910E
:10236000461789F09F3F19F4411101C0982F8F5FE4
:102370008630A9F79F3F39F0F901E90FF11D97FD6C
:10238000FA95628308950895CF9384E090E00E94C7
:102390003A21C82F81E290E00E943A212C2F30E0B0
:1023A000A901582BCA01CF9108956FEE7EEF80E00E
:1023B00090E00E946C2160E082E090E00E944E215B
:1023C00060E083E090E00E944E211092BA021092E9
:1023D000BB021092BC021092BD0260E084E090E06B
:1023E0000E944E2160E081E290E00E944E2160E078
:1023F00085E090E00E944E2160E086E090E00E943F
:102400004E216FEF87E090E00E944E2140E050E0C7
:10241000BA0188E090E00E94602160E08DE090E0E9
:102420000E944E2140E050E0BA0188E190E00E9415
:10243000602160E087E190E00E944E2140E050E0A2
:10244000BA018CE190E00E94602160E080E290E0BF
:102450000E944E211092DE021092DF021092E002E2
:102460001092E10284E080618093DE024091DE02FE
:102470005091DF026091E0027091E1028FE090E004
:102480000E94602140E050E0BA0183E190E00C94AA
:1024900060218091B90281111092B9020895909142
:1024A000B8028091B702892B2091B602982F922B07
:1024B000909338028091B902882389F0892B809308
:1024C0003802EAE3F2E097E080E0915029F02191B0
:1024D0002223D9F38F5FF9CF81110E944912E09135
:1024E000F302F091F402309731F00280F381E02D95
:1024F00088E392E009940895BF92CF92DF92EF9221
:10250000FF920F931F93CF93DF938C01C090B10282
:10251000D090B202E090B302F090B4028091BA027F
:102520009091BB02A091BC02B091BD02C82AD92AE9
:10253000EA2AFB2ACFE1D0E0D701C6010C2E04C065
:10254000B695A795979587950A94D2F780FD04C014
:10255000219790F7B12C07C0BC2EB8018C2F0E9498
:10256000440C0197A9F38B2DDF91CF911F910F910F
:10257000FF90EF90DF90CF90BF900895CF93DF93BF
:10258000EC010E947C12BE010E94440CDF91CF91AD
:102590000895292F220F920F990F890F682F6695A2
:1025A00066956695982F977085E0689FB001112415
:1025B00040E050E080E0FB01E40FF51FE658FD4FDE
:1025C000208130E0092E02C0369527950A94E2F763
:1025D00021703327042E01C0220F0A94EAF7822BC0
:1025E0004F5F5F4F4530510531F70895292F220F76
:1025F000920F990F890FE82FE695E695E69587707B
:1026000051E001C0550F8A95EAF785E0E89FF00197
:102610001124E658FD4F20E030E070E04081CB010E
:10262000022E02C0969587950A94E2F781708195F3
:1026300084278523842781932F5F3F4F25303105E1
:1026400069F708950E94F00D6093B1027093B20291
:102650008093B3029093B4020C94EF1E0F931F93D8
:1026600041E050E060E070E004C0440F551F661F79
:10267000771F8A95D2F74095509560957095809117
:10268000B1029091B202A091B302B091B4028A015A
:102690009B01082319232A233B23C901B8011F9159
:1026A0000F910C9422132091B50280958223809380
:1026B000B502982F977079F430E0482F082E000C5F
:1026C000550B2417350739F08595859585950E941A
:1026D0002E131092B50208950F931F9341E050E01E
:1026E00060E070E004C0440F551F661F771F8A9595
:1026F000D2F78091B1029091B202A091B302B09151
:10270000B4028A019B01082B192B2A2B3B2BC901F0
:10271000B8011F910F910C9422136093BA02709329
:10272000BB028093BC029093BD020C94EF1E80917B
:10273000790290914802891719F08F5F8770FBCF5B
:102740000895CF938091470282958F7009F05FC002
:1027500080914402882309F45AC080917902B09193
:10276000480270914202A09143024091450250916B
:10277000460291E07F3F09F090E0692FC6E08B1799
:1027800009F445C04115510521F0AF3F21F020E08B
:1027900003C021E001C0262F90E020FD35C0C89F76
:1027A000F001C99FF00D1124E75BFD4F21812A1331
:1027B0002BC02081271328C02281211125C023810D
:1027C00034812417350710F421503109241B350BAF
:1027D000283C3105C8F4209147022F7020612093D6
:1027E000470226E0289FF001299FF00D1124E25BAB
:1027F000FD4F80818F708061808382E492E00E942F
:10280000A602CF910C94971301968770B8CFCF9101
:1028100008959F92AF92BF92CF92DF92EF92FF9274
:102820000F931F93CF93DF93CDB7DEB761970FB6AA
:10283000F894DEBF0FBECDBF7C0185E0F701DE015D
:102840001D9601900D928A95E1F7D701BC901196E3
:102850000C9111971296AC90309142024091430234
:102860008091450290914602009731F04F3F31F43C
:1028700021E03F3F19F403C021E001C020E020FD2A
:102880007CC1F701C380D48090904402992009F460
:102890001BC120914702C816D90628F0B601681B53
:1028A000790BCB0104C0809590958C0D9D1D11E096
:1028B000883C910548F010E0207F09F0CBC082E40D
:1028C00092E00E94A60251C1822F807F09F08DC044
:1028D000401313C03B1111C01A2DA1100EC02F7050
:1028E00020612093470282E492E00E94A602809138
:1028F0004702D70115968C9369C1C114D10439F0F0
:102900000F3F39F481E0BFEFBB1203C003C081E089
:1029100001C080E080FD03C081E08A2502C080E024
:1029200090E080FF13C04A2D602F8B2D0E94BF10B6
:10293000882361F082E492E00E94A602E2E4F2E0E1
:1029400086E0DF011D928A95E9F74DC0CD2839F068
:102950000F3F39F481E0BFEFBB1203C003C081E039
:1029600001C080E080FD03C081E08A2502C080E0D4
:1029700090E0E82FE170DE2E80FF2CC04A2D602F02
:102980008B2D0E94BF10182F811124C0BD860E8789
:102990008D859E850E94BE12292F22952F70223090
:1029A00018F0243090F405C09F7059F0811109C0CF
:1029B0000DC19F7031F0D70115969C91907F09F45D
:1029C00005C1805E883008F401C1C7010E94A602DB
:1029D0001D2DFCC01A2DAA2009F4F8C080914702D1
:1029E00081608093470210E0F1C0401308C03B11A2
:1029F00006C0A11004C080914702F70198C0BD86AF
:102A00000E878D859E850E94C61E882369F1AA20A7
:102A100059F120914702822F82958F7090E00297A2
:102A200074F0809142029091430298878F831986B7
:102A3000DB86CA862C87CE0107960E94A60286E016
:102A4000F701A2E4B2E001900D928A95E1F70E94AD
:102A5000A1130DC0401769F0BD860E878D859E8538
:102A60000E94C61E811119C0C7010E94A60211E072
:102A7000ADC03B11F1CFA110EFCF80914702F7011C
:102A80008583C7010E94A60286E0E2E4F2E0DF014E
:102A90001D928A95E9F7192D99C0AA2029F3209152
:102AA0004702822F82958F7090E0029744F28091C6
:102AB0004202909143029A8389831B82DD82CC82F9
:102AC0002E83CE010196B9CFC816D90638F0C81AA0
:102AD000D90AB8ECCB16D10450F007C08095909578
:102AE0008C0D9D1D883C910510F010E03EC01A2D04
:102AF000AA2009F4B9CF401327C03B1125C020916B
:102B0000470220FD18C0822F82958F70482F50E019
:102B10004115510581F0F70125834F30510541F0F2
:102B20008F5F982F9295907F822F8F70892B85834E
:102B3000C7010E94A60286E0F701A2E4B2E001907C
:102B40000D928A95E1F742C0BD860E878D859E85E0
:102B50000E94C61E811173CF8091470281608093CD
:102B60004702C7010E94A60231C0E2E4F2E086E01B
:102B7000DF011D928A95E9F729C0AA2009F474CFD4
:102B8000BD860E878D859E850E94C61E182F8823C0
:102B900009F46ACF86E0F701A2E4B2E001900D9259
:102BA0008A95E1F780914202909143020E94BE1201
:102BB00092959F70963041F48091410291E089276F
:102BC00080934102909340020E94A113812F61964D
:102BD0000FB6F894DEBF0FBECDBFDF91CF911F912E
:102BE0000F91FF90EF90DF90CF90BF90AF909F90AC
:102BF00008951F93CF93DF93CDB7DEB7AA970FB693
:102C0000F894DEBF0FBECDBFE0EDF2E088ED92E0BC
:102C10002091F10021938E179F07D1F78091D10267
:102C2000833009F460C030F4813071F0823009F4EF
:102C30009AC0B1C08A3009F486C08B3009F46BC0E9
:102C4000893009F0A8C020C08091D002813A09F0F3
:102C5000A2C08091E800877F8093E8008091D40231
:102C60009091D502892B21F468E085EC92E003C0B5
:102C700060E080E090E070E00E94BE1B8091E80080
:102C80008B778093E80087C08091D002813209F071
:102C900082C08091D4029091D502029708F07BC047
:102CA0008091E800877F8093E8008091E80082FDB2
:102CB00005C0809114038111F8CF17C12091F30052
:102CC0008091F20090E0922B029729F48091F1001C
:102CD0008B7F813021F48091F1008093C402809138
:102CE000E8008B7754C08091D002813A09F053C03C
:102CF0008091D4029091D502892B09F04CC080912B
:102D0000E800877F8093E8008091E80080FFFCCF97
:102D10008091060137C08091D0028132E1F5809127
:102D2000D4029091D502892BB1F58091E800877F7C
:102D30008093E8000E946A1B8091D2028093060172
:102D40000E94FD1E28C08091D002813221F5809121
:102D5000E800877F8093E8000E946A1B8091D3027D
:102D60008093C30218C08091D002813AA1F480916F
:102D7000E800877F8093E8008091E80080FFFCCF27
:102D80008091C3028093F1008091E8008E77809358
:102D9000E8000E946A1B8091E80083FFA6C0809132
:102DA000130190E02091D4023091D5022817390701
:102DB00009F09BC08091D102813261F020F4803211
:102DC00009F441C092C0823209F470C0833209F420
:102DD00081C08BC08091D002813A09F086C0809179
:102DE000E800877F8093E8008091E80080FFFCCFB7
:102DF0008091270190912801A0912901B0912A0189
:102E00008093F100492F5A2F6B2F77274093F100C1
:102E1000AD01662777274093F1008B2F9927AA27CA
:102E2000BB278093F10080912B018093F10080916A
:102E30002C018093F10080912D018093F10080910D
:102E4000E8008E774EC08091D002813209F04DC0EB
:102E50008091E800877F8093E8008091E80082FD00
:102E600005C0809114038111F8CF3FC03091F1006B
:102E70002091F1009091F1008091F10030932701B1
:102E8000209328019093290180932A018091F100D9
:102E900080932B018091F10080932C018091F100AF
:102EA00080932D018091E8008B771BC08091D00228
:102EB0008132D9F48091E800877F8093E8000E94F6
:102EC0006A1B8091D2029091D30290932401809347
:102ED00023010BC08091D002813239F48091E80047
:102EE000877F8093E8000E946A1B8091E80083FF3F
:102EF000E8C18091D0029091D102492F50E04A3030
:102F0000510508F0DEC1FA01E759FF4F0C94A221E8
:102F1000803821F0823809F0D4C108C08091CD02F8
:102F20009091CE02992389F082600FC08091D402E3
:102F30008F70873008F0C5C18093E9008091EB0065
:102F400085FB882780F91092E9009091E800977F2F
:102F50009093E8008093F1001092F10072C1282F45
:102F60002D7F09F0AEC1882319F0823061F0A9C12C
:102F70008091D202813009F0A4C1933009F080E041
:102F80008093CE022EC08091D20281112AC08091FE
:102F9000D4028F702FEF280F263008F092C1809353
:102FA000E9002091EB0020FF1CC0933021F48091B8
:102FB000EB00806214C09091EB0090619093EB0065
:102FC00021E030E0A90102C0440F551F8A95E2F7C5
:102FD0004093EA001092EA008091EB0088608093B1
:102FE000EB001092E9008091E800877F2DC18111EC
:102FF00068C11091D2021F778091E3008078812B05
:103000008093E3008091E800877F8093E8000E942E
:103010006A1B8091E80080FFFCCF8091E30080680C
:103020008093E300111102C082E001C083E080932D
:10303000140347C18058823008F043C18091D20206
:103040009091D3028C3D53E0950779F583E08A8314
:103050008AE289834FB7F894DE01139620E03EE0C0
:1030600051E2E32FF0E050935700E49120FF03C0BA
:10307000E295EF703F5FEF708E2F90E0EA3010F036
:10308000C79601C0C0968D939D932F5F243149F759
:103090004FBF8091E800877F8093E8006AE270E08C
:1030A000CE0101960E94BE1BBAC04091D40250913D
:1030B000D502292F332723303105B1F068F42130B0
:1030C000310509F40DC12230310509F0FAC088E755
:1030D00090E0E8E5F4E050C02132310581F1223280
:1030E000310509F439C0EDC0992781309105B9F057
:1030F00070F082309105D9F0039709F0E2C0E2EE5A
:10310000F4E0E4918E2F90E0E2EEF4E032C0EAE0E9
:10311000F5E0E4918E2F90E0EAE0F5E02AC0E0E0EF
:10312000F5E0E4918E2F90E0E0E0F5E022C0E8EEDB
:10313000F4E0E4918E2F90E0E8EEF4E01AC041153F
:10314000510509F4D2C04130510509F0BAC089E0F7
:1031500090E0E3E8F4E010C04115510509F4CAC05D
:103160004130510509F0ADC086E390E0E2EEF3E0B6
:1031700003C0009709F4A5C02091E800277F2093A1
:10318000E8002091D6023091D7028217930708F405
:103190009C0140E02115310589F1809114038823B9
:1031A00009F43DC08530D9F18091E80083FD37C036
:1031B0008091E80082FD2FC08091E80080FFEACF77
:1031C0004091F3008091F20090E0942B211531059D
:1031D00059F08830910540F444914093F1003196C4
:1031E000215031090196F2CF41E0089709F040E003
:1031F0008091E8008E778093E800CCCF4111CDCF4D
:103200000AC080911403882351F0853041F08091E9
:10321000E80083FD04C08091E80082FFF2CF809136
:10322000E8008B778093E8004CC0803809F049C0F3
:103230008091E800877F8093E8008091CF0280939F
:10324000F1008091E8008E778093E8000E946A1B6D
:1032500038C0811136C08091D2029091D302992753
:1032600002977CF58091E800877F8093E8001091B9
:10327000D2021093CF020E946A1B111106C08091E6
:10328000E30087FD02C081E001C084E08093140365
:1032900042E061EC81E00E94891B42E261EC82E045
:1032A0000E94891B42E061EC83E00E94891B42E19D
:1032B00060E885E00E94891B42E161E884E00E94A9
:1032C000891B8091E80083FF1AC08091E800877F06
:1032D0008093E8008091EB0080628093EB000FC048
:1032E00082E190E0E0EDF4E047CF89E090E0EAE6AB
:1032F000F4E042CF80E490E0E8E1F4E03DCFAA962C
:103300000FB6F894DEBF0FBECDBFDF91CF911F91F6
:1033100008951F920F920FB60F9211242F933F938F
:103320004F935F936F937F938F939F93AF93BF93CD
:10333000CF93DF93EF93FF93C091E900CF7080911B
:10334000EC00D82FD17080FDD0E81092E900809178
:10335000F000877F8093F00078940E94F915109216
:10336000E9008091F00088608093F000CD2BCF7051
:10337000C093E900FF91EF91DF91CF91BF91AF91A1
:103380009F918F917F916F915F914F913F912F917D
:103390000F900FBE0F901F901895E8EDF0E0808120
:1033A0008E7F80831092E2001092DA001092E1008A
:1033B000A0EEB0E08C9181608C9380818F778083C8
:1033C00019BCA7EDB0E08C918E7F8C9380818F7EAD
:1033D00080831092C2020895CF92DF92EF92FF9203
:1033E0000F931F93CF93DF93C8EDD0E088818F7E3A
:1033F0008883E7EDF0E080818160808384E082BF94
:1034000081E08093C20288818E7F888302EE10E083
:10341000F80110821092DA0081EEC82ED12CF6014C
:10342000108288818F7788838881806888838881EB
:103430008F7D888319BC109214031092CF021092D2
:10344000CE021092CD0290EEE92EF12CF701808190
:103450008B7F808388818160888342E060E080E0A8
:103460000E94891BF60180818E7F8083F801808114
:1034700081608083808188608083F70180818E7F76
:103480008083888180618883DF91CF911F910F9124
:10349000FF90EF90DF90CF9008951F920F920FB69C
:1034A0000F9211242F933F934F935F936F937F93CA
:1034B0008F939F93AF93BF93EF93FF938091E1001E
:1034C00082FF09C08091E20082FF05C08091E10087
:1034D0008B7F8093E1008091DA0080FF2AC0809189
:1034E000D80080FF26C08091DA008E7F8093DA00BA
:1034F0008091D90080FF18C080E189BD82E189BD3B
:1035000009B400FEFDCF81E0809314038091C202D4
:1035100081110FC00E94CD190E94EC198091E20028
:1035200084608093E20005C019BC109214031092CD
:10353000C2028091E10080FF17C08091E20080FF0D
:1035400013C08091E2008E7F8093E2008091E200C0
:1035500080618093E2008091D80080628093D800DF
:1035600019BC85E0809314038091E10084FF34C08E
:103570008091E20084FF30C080E189BD82E189BD95
:1035800009B400FEFDCF8091D8008F7D8093D800D4
:103590008091E1008F7E8093E1008091E2008F7E38
:1035A0008093E2008091E20081608093E20080914C
:1035B000CF02882311F084E007C08091E30087FDEB
:1035C00002C081E001C083E0809314030E94FD1ECD
:1035D0000E94F10B0E94E80D8091E10083FF27C05B
:1035E0008091E20083FF23C08091E100877F809378
:1035F000E10082E0809314031092CF028091E100F9
:103600008E7F8093E1008091E2008E7F8093E200C4
:103610008091E20080618093E20042E060E080E01F
:103620000E94891B8091F00088608093F000FF91D8
:10363000EF91BF91AF919F918F917F916F915F912A
:103640004F913F912F910F900FBE0F901F901895A3
:103650002091E4003091E50095E64091EC00842F44
:10366000817040FF23C08091E80080FD1DC08091E3
:103670001403882399F0853099F08091EB0085FD43
:1036800011C04091E4005091E5002417350729F35B
:10369000915011F09A01E1CF84E0089582E00895FD
:1036A00083E0089581E0089580E008954091E80066
:1036B00042FFDDCF089520911403243021F4BC0192
:1036C00084E00C940F110895BC016058710983E0E7
:1036D0000C940F118091D00287FF11C08091E800F7
:1036E00082FD05C0809114038111F8CF11C0809133
:1036F000E8008B770BC080911403882349F08091F8
:10370000E80080FFF8CF8091E8008E778093E80092
:103710000895982F973068F59093E900981739F03D
:103720007091EC002091ED005091F00003C0242F27
:10373000762F50E021FD02C09F5FECCF3091EB006F
:103740003E7F3093EB003091ED003D7F3093ED00F4
:103750003091EB0031603093EB007093EC002093DC
:10376000ED005093F0002091EE0027FDE5CF80E0C2
:1037700008958F708093E90081E008952091D6022A
:103780003091D7022617370748F06115710539F4D3
:103790002091E8002E772093E80001C0B901FC01D8
:1037A00020E06115710579F1809114038823F1F10E
:1037B0008530F1F18091E80083FD3CC08091E80004
:1037C00082FD2EC08091E80080FFEBCF2091F300B6
:1037D0008091F20090E0922B6115710551F08830D4
:1037E000910538F421912093F100615071090196FF
:1037F000F3CF21E0089709F020E08091E8008E7770
:103800008093E800CECF2111CFCF0AC0809114035E
:10381000882361F0853061F08091E80083FD0AC063
:103820008091E80082FFF2CF80E0089582E0089561
:1038300083E0089581E00895CF93C091E90020913D
:10384000EC00922F917020FD90E82091230120FF41
:103850002DC0CF70C92B909114019F709093E900F7
:103860009091EB0090FF1FC09091EE0097FF1BC05E
:103870009FEF2091E800915025FD06C025ED2A9587
:10388000F1F700009111F5CF8093F10083E191E011
:103890000E9425208091E80080FF05C08091E8000B
:1038A0008E778093E800CF70C093E900CF910895A0
:1038B000CF93DF93CDB7DEB72D970FB6F894DEBF69
:1038C0000FBECDBF84B7877F84BF0FB6F894A8958D
:1038D00080916000886180936000109260000FBE4C
:1038E00090E080E80FB6F8948093610090936100B7
:1038F0000FBE85B7806885BF85B7806885BF0E9489
:10390000CD190E94EC198091E20084608093E2005E
:103910007894809114038823A1F01091E9001F701E
:103920009091EC00892F817090FD80E8182B109207
:10393000E9008091E80083FD0E94F9151F70109343
:10394000E90082E084BD93E095BD9AEF97BD809336
:103950006E000E945A0E90E0909308018093070138
:103960000E94410F0E94500FA2EEB2E0E6EFF2E09B
:1039700011921D9223E0E430F207D1F78EE090E03F
:103980000E94A8218093D8029093D902FC010E9640
:103990002BEF2193E817F907E1F780E090E00E9410
:1039A00048218F3E9E4F11F00E94D5118CE090E08F
:1039B0000E943A2190E0A0E0B0E08093DA02909378
:1039C000DB02A093DC02B093DD0289EA80938000E1
:1039D00089E08093810024982C983F988AB18F7C4D
:1039E0008AB96E98479A8BB180638BB9769A8FE0CB
:1039F00090E00E9442216093DE027093DF02809388
:103A0000E0029093E10267708FEF689FB00111248C
:103A1000759567957595679577277093890060937D
:103A2000880070938B0060938A0070938D00609380
:103A30008C000E94D10E80E00E94120C80E090E089
:103A40000E9448218F3E9E4F11F00E94D51182E0C6
:103A500090E00E943A21809305030E94C411909344
:103A6000F1028093F00283E090E00E943A21682FF7
:103A700070E080E090E00E948D1380E090E00E9472
:103A800048218F3E9E4F11F00E94D5118DE090E0AD
:103A90000E943A218093F20289E091E09093F4022F
:103AA0008093F30282E090E09093260180932501B9
:103AB00080911403843079F5809127019091280139
:103AC000A0912901B0912A01892B8A2B8B2B19F106
:103AD00080911E018F708093E90088E0EEE2F1E0B2
:103AE000DE01119601900D928A95E1F740E050E0D9
:103AF00068E070E0CE0101960E94582040E050E05E
:103B000062E070E085E291E00E9458208091E80038
:103B10008E778093E800DD24DA9480E1C82E92E16C
:103B2000B92E28E1E22EF12C30E4A32E809114036B
:103B3000853009F04BC080911403843021F110923C
:103B4000F5020FB6F894A895E09260000FBEA0921F
:103B5000600080E00E94E80D83B7817F846083BFAE
:103B600083B7816083BF7894889583B78E7F83BF46
:103B70000FB6F894A89580916000886180936000EA
:103B8000109260000FBE8091CE02882309F4CECF40
:103B90000E945A0E90E090930801809307010E94C2
:103BA000410F0E94500FE6EFF2E0119283E0E43003
:103BB000F807D9F70E94F80FE6EFF2E08191811142
:103BC000B1C023E0E430F207C9F7B0CF0E94F80F8C
:103BD000A6E0B3E0E6EFF2E000E010E0302F219144
:103BE0009D91922721F180E099249394492D4923B6
:103BF000D1F089833A83292181E009F480E08B8325
:103C00000E9468118160782F9D838C8349815A813D
:103C10006B818D810E94EA0AF801EA5FFC4F808186
:103C20009826908218C08F5F990C8630F9F60F5F46
:103C30001F4F0E30110591F6D986DA861B860E9439
:103C400068118160782F9D878C8749855A856B859F
:103C50008D850E94EA0A0E94F10B90910403891756
:103C600031F00E94F10B809304030E94E80D8091D3
:103C70001403843009F06AC0409127015091280153
:103C80006091290170912A01411551056105710565
:103C900009F45CC0209119012F702093E9008091F4
:103CA000E80082FF53C03091F3008091F20090E071
:103CB000932B892B31F48091E8008B778093E80077
:103CC00045C03091F3008091F20090E0932BE22FF9
:103CD0000097E1F120911403243011F541155105AD
:103CE00061057105E9F0E093E9002091E80022FF09
:103CF00017C0F091F3002091F20030E03F2B232B0E
:103D000011F02091F100F091F3002091F20030E0E9
:103D10003F2B232B29F42091E8002B772093E800F8
:103D20000197D6CFC9BCB9BC09B400FEFDCF8091C4
:103D3000D8008F7D8093D8008091E00082608093CE
:103D4000E0008091E00081FDFCCFF0CE8091140373
:103D5000843009F0EBCE8091270190912801A09149
:103D60002901B0912A01892B8A2B8B2B09F4DECEF5
:103D7000809114018F708093E9008091E80080FFAA
:103D8000D5CE83E191E00E942520D0CE0E94BE12C4
:103D9000292F2F70E92FE295EF704E2F50E0FA0196
:103DA0003297EE30F105B8F4ED58FF4F0C94A22194
:103DB000803F99F018F4883E70F40FC0843F59F4A6
:103DC0000CC0883E50F0813F31F407C0822F8695A9
:103DD00086958695089580E0089581E00895109273
:103DE000B7021092B6020E944F1280E090E00E944B
:103DF000DB0B80E090E00C94C50B1092B80286E0DB
:103E0000EAE3F2E0DF011D928A95E9F70C94EF1ED8
:103E1000882341F080959091B70289238093B7025F
:103E20000C944F120895882339F09091B702892B92
:103E30008093B7020C944F120895882341F0809527
:103E40009091B80289238093B8020C944F12089580
:103E5000882339F09091B802892B8093B8020C9492
:103E60004F120895882309F458C0682F823869F4E6
:103E70000E94F10B81FF51C069E388E392E00E9448
:103E8000AA110E944F1269E30EC0833891F40E9478
:103E9000F10B80FF42C063E588E392E00E94AA1123
:103EA0000E944F1263E588E392E00E949D110C94FA
:103EB0004F12843869F40E94F10B82FF2EC067E430
:103EC00088E392E00E94AA110E944F1267E4EBCFB0
:103ED0008CEF860F813A38F380E2860F883070F4D9
:103EE000677081E090E001C0880F6A95EAF78095DD
:103EF0009091B80289238093B802D9CF8BE5860FC1
:103F0000833020F480E090E00C94DB0B685A67313A
:103F100020F480E090E00C94C50B0895882309F408
:103F200080C0682F8238B1F40E94F10B81FD79C006
:103F300069E388E392E00E94AA110E944F122FEFDA
:103F400081EE94E0215080409040E1F700C00000F5
:103F500069E317C08338D9F40E94F10B80FD61C07A
:103F600063E588E392E00E94AA110E944F122FEFAE
:103F700081EE94E0215080409040E1F700C00000C5
:103F800063E588E392E00E949D110C944F128438FF
:103F9000B1F40E94F10B82FD44C067E488E392E033
:103FA0000E94AA110E944F122FEF81EE94E021503F
:103FB00080409040E1F700C0000067E4E2CF8CEF62
:103FC000860F813A28F488E392E00E94AA11DDCF9F
:103FD00080E2860F883068F4677081E090E001C06D
:103FE000880F6A95EAF79091B802892B8093B802FE
:103FF000CCCFEBE5E60FE33038F4F0E0E252FE4FD1
:10400000808190E00C94DB0B685A673150F4E62F06
:10401000F0E0EE0FFF1FEF51FE4F808191810C9475
:10402000C50B0895CF93C82F0E948E1FC93349F442
:104030002FEF87EE93E0215080409040E1F700C0E1
:1040400000008C2FCF910C94321F80911403843088
:1040500069F58091270190912801A0912901B091E3
:104060002A01892B8A2B8B2B09F1809114018F70E7
:104070008093E9002091F3008091F20090E0922B70
:10408000892B91F09091E8008091E8008E778093E1
:10409000E80095FD09C00E94281B811108C080918D
:1040A000E8008E778093E80080E0089582E008952C
:1040B000EF92FF920F931F93CF93DF937C018B01BD
:1040C0000E94281B811119C0E70101151105A1F0FB
:1040D0008091E80085FD0AC08091E8008E7780938A
:1040E000E8000E94281B882381F307C089918093F0
:1040F000F10001501109E9CF80E0DF91CF911F91CC
:104100000F91FF90EF9008951092B9008CE080938A
:10411000B8000895EF92FF920F931F93CF93DF9310
:10412000182FEB011092BC0084EA8093BC000E941F
:1041300068117C018091BC0087FD0EC0CF3F8FEFDE
:10414000D807C1F30E9468118E199F098C179D072B
:1041500088F38EEF9FEF2EC08091B900887F883062
:1041600041F08091B900887F803119F08FEF9FEF87
:1041700021C01093BB0084E88093BC000E946811AA
:104180008C018091BC0087FD0CC0CF3F8FEFD8071A
:10419000C1F30E946811801B910B8C179D0788F357
:1041A000D8CF8091B900887F883111F08034F1F642
:1041B00080E090E0DF91CF911F910F91FF90EF9001
:1041C00008950F931F93CF93DF93EB018093BB0070
:1041D00084E88093BC000E9468118C018091BC002F
:1041E00087FD0EC0CF3F8FEFD807C1F30E94681143
:1041F000801B910B8C179D0788F38EEF9FEF0CC0EF
:104200002091B900287F81E090E0283211F480E00D
:1042100090E0919581959109DF91CF911F910F9138
:1042200008950F931F93CF93DF93EC0184E880935D
:10423000BC000E9468118C018091BC0087FD0EC0FB
:10424000CF3F8FEFD807C1F30E946811801B910BFD
:104250008C179D0788F38EEF9FEF03C08091BB0002
:1042600090E0DF91CF911F910F91089584E98093A1
:10427000BC000895F999FECF92BD81BDF89A9927A7
:1042800080B50895A6E1B0E044E050E00C947421BC
:10429000A8E1B0E042E050E00C947421262FF99997
:1042A000FECF92BD81BDF89A019700B4021639F095
:1042B0001FBA20BD0FB6F894FA9AF99A0FBE089566
:1042C0000396272F0E944F210E944E21252F0E94E6
:1042D0004F21242F0C944F210196272F0E944F210C
:1042E0000C944E21DC01CB01FC01F999FECF06C0F4
:1042F000F2BDE1BDF89A319600B40D9241505040A4
:10430000B8F70895991B79E004C0991F961708F033
:10431000961B881F7A95C9F780950895AA1BBB1B29
:1043200051E107C0AA1FBB1FA617B70710F0A61BB5
:10433000B70B881F991F5A95A9F780959095BC01D6
:10434000CD010895EE0FFF1F0590F491E02D099423
:104350000F931F93CF93DF938230910510F482E087
:1043600090E0E0911703F091180320E030E0A0E026
:10437000B0E0309719F140815181028113814817D3
:104380005907C8F08417950769F4109731F0129611
:104390000C93129713961C9327C000931703109346
:1043A000180322C02115310519F04217530718F4DC
:1043B0009A01BD01EF01DF01F801DBCF21153105C5
:1043C000F9F0281B390B2430310580F48A819B8158
:1043D0006115710521F0FB019383828304C09093E2
:1043E000180380931703FE01329644C0FE01E20FCA
:1043F000F31F8193919322503109398328833AC066
:104400002091150330911603232B41F420910201D2
:10441000309103013093160320931503209100017E
:10442000309101012115310541F42DB73EB740917E
:10443000040150910501241B350BE0911503F09107
:104440001603E217F307A0F42E1B3F0B28173907BA
:1044500078F0AC014E5F5F4F2417350748F04E0FE0
:104460005F1F50931603409315038193919302C0ED
:10447000E0E0F0E0CF01DF91CF911F910F9108951F
:10448000CF93DF93009709F481C0FC013297138228
:104490001282A0911703B0911803109781F4208124
:1044A0003181820F931F2091150330911603281735
:1044B000390751F5F0931603E093150367C0ED013A
:1044C00020E030E0CE17DF0740F44A815B819E0197
:1044D00041155105F1F0EA01F5CFD383C283408144
:1044E0005181840F951FC817D90759F48881998184
:1044F000840F951F0296918380838A819B81938389
:1045000082832115310529F4F0931803E0931703F2
:104510003DC0E901FB83EA8349915991C40FD51F3E
:10452000EC17FD0761F480819181840F951F02963D
:10453000E90199838883828193819B838A83E0E068
:10454000F0E012968D919C911397009719F0FD0160
:10455000DC01F7CF8D919C9111979D012E5F3F4F0C
:10456000820F931F209115033091160328173907E6
:1045700069F4309729F4109218031092170302C0BF
:1045800013821282B0931603A0931503DF91CF918B
:064590000895F894FFCF2E
:10459600000019032000012000BC10DF10BB1064CE
:1045A6001B5B1B028410000001051000000183083C
:1045B6000000010000000000000000000000A12033
:1045C600000000000200000D010D020D030D040D98
:1045D600050D000C010C020C030C040C050C000B61
:1045E600010B020B030B040B050B000A010A020A5E
:1045F600030A040A050A0009010902090309040954
:104606000509000801080208030804080508000750
:10461600010702070307040705070006010602064D
:104626000306040605060005010502050305040543
:104636000505000401040204030404040504000340
:10464600010302030303040305030002010202023D
:104656000302040205020001010102010301040133
:10466600050100000100020003000400050081822C
:1046760083E200E900EA00B500B600B700CD00838A
:1046860001CC008A01920194012102230224022511
:1046960002260227022A02B300B4006F007000004F
:00000001FF
