:100000000C9475030C9492030C9492030C94920339
:100010000C9492030C9492030C9492030C9492030C
:100020000C9492030C9492030C94DB1A0C94171A00
:100030000C9410120C9492030C9492030C9492035F
:100040000C9492030C9492030C9492030C949203DC
:100050000C9492030C94DE110C9492030C94920372
:100060000C9492030C9492030C9492030C949203BC
:100070000C9492030C9492030C9492030C949203AC
:100080000C9492030C9492030C9492030C9492039C
:100090000C9492030C9492030C9492030C9492038C
:1000A0000C9492030C9492030C9492034D0452040A
:1000B00057045C04610466046B04700475047A04DC
:1000C0007F044307430781078107CA07D5097C09D5
:1000D000D509EA07D608E808E8088E0A910A940AC2
:1000E000970A9A0A9D0AA00A5B0E600E6A0E5E0EBF
:1000F000630E680E660E5C188318EF198318EF19EB
:10010000CB18EE18EF19AD19C119D01FD01FE31F7E
:10011000E31FD91FE31FE31FE31FD01FD01FDE1F04
:10012000E31FE31FDE1F29002B003900E100E00080
:1001300000001E00140004001D00E20001581F0012
:100140001A0016001B00E3004C0020000800070006
:10015000060050002A0021001500090019004F0078
:100160006400220017000A00050000004A0002583F
:1001700030000000000F00004D0002583100000068
:10018000000700004B0023001C000B0011000000C2
:100190004E00240018000D001000520065002500DC
:1001A0000C000E00360051002C00260012000F003B
:1001B0003700E30028002700130033003800E60072
:1001C000015849002F003400E500E4000000010060
:1001D000010001000100010000003A00640020005D
:1001E0001E00010001003B006402210024140100F4
:1001F00001003C00211422002214010001003D00F6
:100200002E142D002D14010001003E0023142E0099
:100210003000000001000100251400002714000038
:1002200001000100010000000100000001003F008A
:100230005600570001000000010040005F005C0014
:10024000590062000100410060005D005A00630037
:100250000100420061005E005B00010001004300FC
:10026000550054002E00010001004400450001002B
:100270000100010000000100010001000100010077
:100280000000010001001401A800AD000100010000
:1002900001001B01AA00AE00010001001A010601C5
:1002A000A900AC00010001001C011903BE00AB0055
:1002B000010001002903160ABD0000000100010031
:1002C000085D0000010000000100010001000000C5
:1002D0000100000001000C5D0E5D125D135D000069
:1002E00001000D5D01001F00145D0100010001000F
:1002F0000F5D2400155D010001000100105D270065
:10030000165D010001000100115D340001000100D3
:1003100001000100010001000100010000000102D4
:10032000E501012F0103E501043130307C0102E5D4
:100330000101120103E5000102E501012F0103E5BE
:1003400001043130307C0101120001012F01043120
:1003500030307C0101120001012F01043130307C6A
:100360000102E50101120103E50001012F01043141
:1003700030307C010108000102E60101240103E69E
:1003800001043130307C0102E50101180103E50070
:100390000102E60101240103E601043130307C0151
:1003A00002E50101140103E5000102E60101240157
:1003B00003E601043130307C0102E501010801034C
:1003C000E50001012F01043130307C0102E501011B
:1003D000080103E5000102E501012F0103E5010425
:1003E0003130307C010108000102E501012F0103D9
:1003F000E501043130307C0102E50101080103E52B
:1004000000000000000000000000000000000000EC
:1004100000000000007E0F00D4FFFFFFC7000000B7
:100420007800000000000000002A2B2800000000D7
:100430000000000000000000000000002900000093
:10044000002C1E3420212224342627252E362D3739
:1004500038271E1F202122232425263333362E370A
:10046000381F0405060708090A0B0C0D0E0F1011A2
:1004700012131415161718191A1B1C1D2F313023AF
:100480002D350405060708090A0B0C0D0E0F101177
:1004900012131415161718191A1B1C1D2F3130357D
:1004A0004C0A00000000000306B200080001000032
:1004B00000A800080002000200A00014000300577A
:1004C000494E555342000000000000000000008427
:1004D00000040007002A00440065007600690063FC
:1004E00000650049006E00740065007200660061DE
:1004F0000063006500470055004900440073000098
:100500000050007B003900440042003700460031B3
:1005100000460044002D0037004500370041002D03
:100520000034003000300038002D00390033003630
:100530000042002D003600420041003600430031E9
:10054000003900410033003000380063007D0000B6
:100550000000001B0301636F6E6669677572652E8C
:100560006572676F646F782D657A2E636F6D000515
:10057000010980A10185031A81002A830016010068
:10058000260300950175108100C0050C0901A10129
:1005900085041A01002A9C02160100269C0295017E
:1005A00075108100C005010906A10185050507191F
:1005B000E029E71500250195087501810205071955
:1005C0000029EF1500250195F07501810205081934
:1005D000012905950575019102950175039101C0E9
:1005E00005010906A101050719E029E71500250104
:1005F00095087501810295017508810105071900AB
:1006000029FF150026FF00950675088100050819C9
:10061000012905950575019102950175039101C0A8
:1006200009025200030100A0FA09040000010301BD
:100630000100092111010001224000070581030882
:10064000000A090401000103000000092111010052
:10065000012271000705820320000A09040200023A
:10066000FF00000007058303400005070504034061
:1006700000051201100200000008EDFE0713010042
:10068000010203010403300000001603450072005C
:1006900067006F0064006F007800200045005A007A
:1006A000000008035A00530041000000040309043D
:1006B000050F3900021C100500DF60DDD88945C731
:1006C0004C9CD2659D9E648A9F00000306B2004543
:1006D000001810050038B60834A909A0478BFDA002
:1006E000768815B665000142000011241FBECFEFC9
:1006F000DAE0DEBFCDBF12E0A0E0B1E0ECEDF6E461
:1007000002C005900D92AA32B107D9F723E0AAE200
:10071000B2E001C01D92AB35B207E1F70E94441D63
:100720000C946C230C9400008F929F92AF92BF9216
:10073000CF92DF92EF92FF920F931F93CF93DF93AD
:10074000CDB7DEB72D970FB6F894DEBF0FBECDBF85
:10075000FC01F080118183819481892B09F44AC6C0
:100760001F3F21F40FEFF01609F444C66F0185E036
:10077000DE01169601900D928A95E1F7F60122812D
:100780008E819F81222349F00E94BD13082F682F7C
:100790008E819F810E94361403C00E940914082F85
:1007A00026E0129FF001112434E5039FE00DF11DB6
:1007B0001124EF0DF11DEE0FFF1FEA5DFE4F0591B5
:1007C0001491809154038823B9F0809155038823B4
:1007D00099F01982F6018281811108C682E18A832B
:1007E000F60180818B8381818C838EEF8D8365E020
:1007F000CE0101960E94C611F60182810930FDE505
:100800001F0709F040C0882309F47FC090911B03A3
:1008100081E0890F8770987F853020F4892B809341
:100820001B0302C090931B0380911B0387702FEF63
:10083000829FC00111249595879595958795992755
:10084000909389008093880090938B0080938A0016
:1008500090938D0080938C0040911B0350911C035A
:1008600060911D0370911E038FE090E00E940322AF
:100870006091500370915103809152039091530302
:100880000E94410E42C0F801EC50FD45EB30F105ED
:10089000E0F5EA5AFF4F0C9439228823B1F188EE33
:1008A00093E031C0882389F185ED93E02CC0882343
:1008B00061F182EC93E027C0882339F189EA93E063
:1008C00022C0882311F180E993E01DC08823E9F05C
:1008D00087E793E018C08823C1F08AE693E013C04D
:1008E000882399F087E593E00EC0882371F08AE4AD
:1008F00093E009C0882349F087E393E004C088238C
:1009000021F08EE193E00E94A40DF60182818823FC
:1009100019F1033EFCE51F07C1F050F4013E3CE530
:10092000130781F0023E8CE51807B1F481E010C096
:10093000043E9CE5190759F0053EECE51E0761F4FD
:1009400084E006C01092170305C082E001C083E076
:10095000809317030E94FF0B17FF71C0F60182817D
:10096000882309F46CC08091DC0280932A021092E3
:10097000DC0280911703813071F048F08230C1F0C1
:100980008430E1F486EE0E94142188E115C082EEE5
:100990000E94902013C083E00E94152088E10E94ED
:1009A000902088E10E94342083E00E940A2006C043
:1009B00082EE0E94902087E50E9414218FE39CE93B
:1009C0000197F1F700C000007801E894F7F85CE0C7
:1009D000A52EB12CC7010A2C02C0969587950A94C2
:1009E000E2F7282F2F7041F0822F90E02A3010F488
:1009F0004D9604C0069702C087E290E00E94142141
:100A000094E0A91AB108ECEFAE16EFEFBE0611F7AD
:100A100080911703813039F040F0823031F084301A
:100A200051F488E206C08CE204C082EE0E943420B9
:100A300002C00E94142180912A028093DC02033FAD
:100A4000FCE51F0729F180F4083D3CE51307C9F0D8
:100A5000093D8CE5180741F1073D9CE5190739F57B
:100A600026E241EE61EE10C0053FECE51E07C1F045
:100A700098F0063F2CE51207D1F427E245EE66EE2A
:100A800003C027E245EE65EEC6010E94700FB2C4B6
:100A900026E241EE60EEF8CF27E245EE64EEF4CFB9
:100AA00026E241EE62EEF0CF28E241E0ECCFF60123
:100AB0008281882309F439C110922B020230FCE5AF
:100AC0001F0708F41CC106312CE5120738F0980105
:100AD0002A5F3C452730310508F011C10E949C1265
:100AE00090932E0380932D030F303CE5130709F4F8
:100AF000CFC008F042C008309CE5190709F4A8C02F
:100B0000F0F40430FCE51F0709F490C068F40230EB
:100B10003CE5130709F486C003301C4509F0DFC02B
:100B200080912D038260D9C006309CE5190709F435
:100B300087C008F089C080912D038860CEC00B303B
:100B4000FCE51F0709F495C068F409303CE513077C
:100B500009F482C00A301C4509F0C1C080912D0300
:100B6000886080C00D309CE5190709F486C008F044
:100B700087C080912D038D7FB0C00A3FFCE51F0721
:100B800009F457C050F502313CE5130709F488C059
:100B900068F400319CE5190709F47EC001311C4559
:100BA00009F09DC080912D038F7B97C00431FCE537
:100BB0001F0709F487C008F479C005311C4509F006
:100BC0008EC080912D0382FB222720F991E092278D
:100BD00090FB82F990FB83F980C00D3F8CE51807EC
:100BE00009F452C058F40B3FECE51E0729F10C3F05
:100BF0001C4509F074C080912E0360C00F3F2CE5A6
:100C0000120709F458C080F101151D4509F067C0AD
:100C100080912E03982F909591708E7F892B90FB59
:100C200081F94DC080912D03816057C080912D03C3
:100C300019C080912E031BC080912E0382603FC09B
:100C400080912D03806149C080912D03806245C051
:100C500080912D03806441C00E94F51F80912D0377
:100C600080683BC0846039C080912E0382608160BF
:100C700026C080912D038E7F30C080912D0319C036
:100C800080912D03877F29C080912E038D7F17C00F
:100C900080912D038F7E21C080912D038F7D1DC0FB
:100CA0000E94F51F80912D038F7717C080912D032F
:100CB000877F8B7F12C080912E038D7F8E7F8093E4
:100CC0002E030DC00E94F51F80912D0387FB222764
:100CD00020F991E0922790FB87F980932D03609192
:100CE0002D0310912E0384E090E00E94F121612FEA
:100CF00081E290E00E94F1210E94F51F7BC3063142
:100D0000FCE51F0711F59091DC029A7A81E009F465
:100D100080E080932C02811102C069E201C065E38A
:100D200088E492E00E9464120DC006311C4509F06F
:100D300061C080912C0281115BC369E288E492E07A
:100D40000E9439120E94771355C30E3D9CE5190786
:100D500009F446C00830EDE51E0709F444C001154A
:100D60001C4509F047C00E94F51F0FEF14E32CE06B
:100D7000015010402040E1F700C00000F89481E0ED
:100D80008093E00080E28093D8001092C9008FE148
:100D90009EE40197F1F700C000001DBA10926800B0
:100DA0001CBC10BE1FBA10927A0010926E001092F6
:100DB0006F0010927100109272001092C900109290
:100DC000BC0014B817B81AB81DB810BA1092BC00FD
:100DD00015B818B81BB81EB811BA0C94003F0AC356
:100DE0000E94AD1207C39091560381E0892780933A
:100DF000560300C3F60100811181882349F0C80120
:100E00000E94BD13F82E682FC8010E94361404C03A
:100E1000C8010E940914F82EB8018F2D0E94050CFC
:100E2000182F382FF601258122952F70028101118C
:100E30001092DB028091D9028770A9F0002399F00B
:100E400080E2810F883078F082E02C873D879B8795
:100E50000E94C6148091D9028770EE24E3942C85F9
:100E60003D859B858111E12CA92EA2944FE0A422FF
:100E7000B12CFCE0AF16B10408F097C2F501EF59B0
:100E8000FF4F0C943922892F807F9F70F92E882381
:100E900019F0F29480EFF8220023B9F0FF2009F452
:100EA00015C280E2810F883010F0311106C0909198
:100EB000DC02F92AF092DC0205C09091DB02F92AEB
:100EC000F092DB020E94771301C2812F3D870E94BE
:100ED00034203D85FF2009F468C2105EF09418307C
:100EE00010F0311106C09091DC02F922F092DC0280
:100EF00005C09091DB02F922F092DB020E94771389
:100F000054C2492F407F892F8F70403211F0829553
:100F1000807F332319F03130E9F025C0002381F0C0
:100F20003091DD02222351F0213041F4982F932B90
:100F3000391709F43AC29093DD0237C2832B17C0E8
:100F4000222319F0213009F430C28B870E947113DB
:100F50008B851DC0002321F0223008F026C207C077
:100F6000211123C214C0002329F02111AFC10E9416
:100F70002A201BC2222359F0193309F0B9C10FEFFF
:100F800027EE33E0015020403040E1F7AFC10E942E
:100F90001F200BC2292F26952695237030E021159E
:100FA000310521F02130310559F0FFC1002319F03E
:100FB000812F937002C080E090E00E94DD0BFEC1A3
:100FC000002319F0812F937002C080E090E00E940E
:100FD000C70BF4C1892F837009F070C00111ECC1F7
:100FE000812F829586958770880F880F412F4F70CB
:100FF00050E060E070E04A015B01082E04C0880CFC
:10100000991CAA1CBB1C0A94D2F714FF12C00FE053
:1010100010E020E030E004C0000F111F221F331F3A
:101020008A95D2F7B901A8014095509560957095C1
:1010300003C040E050E0BA01969596959370892FD1
:1010400090E08230910529F183309105C9F000913B
:10105000DE021091DF022091E0023091E10201975F
:1010600059F0482959296A297B29CB01BA01602303
:101070007123822393230AC0802A912AA22AB32AA9
:10108000CB01BA01682979298A299B290E94001578
:1010900093C1482959296A297B298091DE029091C0
:1010A000DF02A091E002B091E1028A019B010827D2
:1010B00019272A273B27C901B801E8CF002319F0D7
:1010C000892F817001C08695882309F475C1812F0D
:1010D000829586958770880F880F412F4F7050E05A
:1010E00060E070E04A015B01082E04C0880C991C86
:1010F000AA1CBB1C0A94D2F714FF12C00FE010E028
:1011000020E030E004C0000F111F221F331F8A951A
:10111000D2F7B901A801409550956095709503C02C
:1011200040E050E0BA01969596959370892F90E033
:1011300082309105E9F08330910579F100915003F7
:10114000109151032091520330915303019759F0AC
:10115000482959296A297B29CB01BA0160237123C7
:101160008223932320C0802A912AA22AB32A15C061
:10117000482959296A297B2980915003909151036C
:10118000A0915203B09153038A019B0108271927AC
:101190002A273B27C901B80106C0CB01BA0168293B
:1011A00079298A299B290E94661406C19F70F92E0D
:1011B000002339F0892F0E94DF14812F0E942A20FA
:1011C000FBC0812F0E941F208F2D0E94A114F4C00C
:1011D000812F323FC9F128F4303F49F0313F79F196
:1011E00070C0333FC1F1343F09F44DC06AC00023E1
:1011F00011F12111DAC0292F2F7181E090E0A0E0D8
:10120000B0E0AC01BD0104C0440F551F661F771F3D
:101210002A95D2F78091500390915103A0915203E7
:10122000B09153038A019B01082719272A273B27DE
:10123000C901B80125C0223008F0B7C0DCCF0023B7
:1012400029F0892F8F712EC00023D9F3892F8F7138
:101250000E94A114AAC0002381F0292F2F7181E0E0
:1012600090E0A0E0B0E0BC01CD0104C0660F771FA4
:10127000881F991F2A95D2F703C060E070E0CB0168
:101280000E94661492C0002381F0192F1F71812FD4
:101290000E94DF1428E0129FC00111248360809314
:1012A000D902812F0E94DF1480C081E02C870E9428
:1012B000C6142C85223008F478C082E00E94C6143F
:1012C00074C0002339F0222309F4BBCF812F0E9480
:1012D00090206BC0222309F4B9CF893349F43FEF42
:1012E00087EE93E0315080409040E1F700C000006D
:1012F000812F0E94342059C0323FB1F028F4303F92
:1013000049F0313FF9F028C0343FB9F058F0353F8B
:1013100071F022C0002309F451C09091690281E06C
:10132000892708C081E008270093690247C001119E
:1013300045C081E08093690241C001113FC0109215
:1013400069023CC0002329F080916802882329F3B8
:1013500029C0222311F332C0809168022223C1F0F8
:10136000882341F09091690281E089278093690286
:1013700010926802812F002319F00E9490201EC055
:101380000E94342086E0F60111928A95E9F716C092
:101390008823A1F0011112C09091690281E0892790
:1013A000809369021092680209C0F8E0AF1AB10890
:1013B00004E0A016B10410F40E94F30BEE20D1F06B
:1013C0008091D90280FD16C0F6011282859585951F
:1013D00085950E94DF14C6010E9494038091D90272
:1013E0008595859585950E94A11404C081E1F7C972
:1013F00065E3A4CC2D960FB6F894DEBF0FBECDBF2B
:10140000DF91CF911F910F91FF90EF90DF90CF90E0
:10141000BF90AF909F908F90089590912D0392FF71
:101420000DC0282F2871283019F4877F846006C0EA
:10143000282F2471243011F48B7F886093FF0DC016
:10144000282F2871283119F4877E846106C0282F3F
:101450002471243111F48B7E886120912E0320FFAA
:101460000DC0382F3871383019F4877F816006C07D
:10147000382F3171313011F48E7F886021FF0DC01B
:10148000282F2871283119F4877E816106C0282F02
:101490002171213111F48E7E886194FD877E08953B
:1014A000CF93E82F873080F5809107019091080154
:1014B000892B09F047C0CE2F64E670E080E40E94DB
:1014C0002D219093080180930701892BD1F464E6C4
:1014D00070E082E10E9484219093080180930701CB
:1014E000892B79F481E090E001C0880FCA95EAF772
:1014F00064E670E080950E948421909308018093B7
:101500000701CF910C94D92190E0FC013797E73087
:10151000F105C0F4E359FF4F0C943922209A289822
:1015200011C0219A29980EC0229A2A980BC0239A9A
:101530002B9808C0529A5A9805C0539A5B9802C0DB
:101540003E9A4698CF910895CF93873008F03FC0D8
:101550008091070190910801892B09F041C064E650
:1015600070E080E40E942D21909308018093070190
:10157000892B11F0C0E027C064E670E083E10E948F
:1015800084219093080180930701892B99F764E6E1
:1015900070E081E40E942D2190930801809307015F
:1015A000892B41F784E690E00E94B42197FF05C0A3
:1015B0009093080180930701DDCFC82FC09510924A
:1015C0000801109207010E94D9218C2F0AC09FB1F7
:1015D0008FB1807F869586959370892B809501C009
:1015E00080E0CF910895EF92FF920F931F93CF93D6
:1015F000DF93CDB7DEB767970FB6F894DEBF0FBEA7
:10160000CDBF4B8B5C8B6D8B7E8B8F8B0E891F8937
:1016100001151105C1F15F3F11F44F3FA1F1E42E17
:10162000F12CA1E0B0E0042E01C0AA0F0A94EAF761
:10163000852F90E0662319F02091690206C09C0175
:10164000265C3D4FF90120812A232223A9F046E0A0
:10165000489F9001499F300D1124F701E20FF31FBD
:10166000EE0FFF1FEC5BFE4F40815181FC01E65CF9
:10167000FD4F9081A92B06C0FC01E65CFD4FA095B3
:101680008081A823A08386E0FE013D96DF01982F8C
:101690001D929A95E9F74D875E876F87198B088BA6
:1016A000DE01179601900D928A95E1F7CE0107961B
:1016B0000E946F15811137C086E0FE013796DE016A
:1016C000119601900D928A95E1F7FF81E8856A8570
:1016D0007B856115710539F1EF3F11F4FF3F19F179
:1016E0002091700230E0C9010196877099274091DE
:1016F000A10250E08417950779F1F983EA837D838D
:101700006C8396E0929FD001939FB00D1124AF5847
:10171000BD4FFE01319601900D929A95E1F78093AD
:1017200070020E940A1516E08091A1029091700249
:10173000891701F1189FC00111248F589D4F0E94F5
:101740006F158823B9F08091A10290E0019687700F
:1017500099278093A102E8CF0E94F51F1092700292
:101760001092A102EAE6F2E086E0DF011D928A957E
:10177000E9F7D9CF67960FB6F894DEBF0FBECDBF9D
:10178000DF91CF911F910F91FF90EF9008952091DD
:101790003802309139028217930771F09093390221
:1017A00080933802E0912F03F0913003309721F0BD
:1017B0000084F185E02D099408952091360230913E
:1017C00037028217930771F09093370280933602A5
:1017D000E0912F03F0913003309721F00680F781DC
:1017E000E02D09940895E0912F03F0913003309794
:1017F00021F00190F081E02D099480E0089560913E
:1018000017038CE090E00C94F121CF93DF9326E056
:10181000729FF001112444E5849FE00DF11D112415
:10182000E60FF11DEE0FFF1FEA5DFE4FC591D4914B
:10183000CE01C238D10569F1B0F4C133D10509F444
:1018400075C048F4C932D10509F469C0CA32D1055E
:1018500009F473C085C0C533D10509F459C0C93333
:10186000D105B9F07DC0C33ED10571F138F4C03E59
:10187000D105B1F0C23ED10511F172C0C63ED1050D
:10188000B9F1C73ED105C9F1C43ED10509F068C020
:1018900024C040912D0340FD5DC041FD5BC060C090
:1018A00020912D0320FD50C020912E0320FF49C11F
:1018B00080912D0384FD43C183EE90E042C12091CD
:1018C0002D0322FF3EC1F4CF80912D0382FD3FC046
:1018D00080912E0380FD3EC0EBCF20912E0321FF8F
:1018E00030C180912D0384FD2AC187EE90E029C18B
:1018F00020912D0323FF25C1F4CF80912D0383FD7B
:101900002CC080912E0381FFECCF84EE90E019C1B2
:1019100020912D0325FF15C189E290E012C120918D
:101920002D0325FF0EC185E390E00BC120912D030F
:1019300026FF07C18AE290E004C120912D0326FF13
:1019400000C181E390E0FDC089E390E0FAC082EE3F
:1019500090E0F7C080EE90E0F4C086EE90E0F1C039
:10196000C11552E5D50708F06AC0C11521E5D207B7
:1019700028F09C2F8827816F906AE3C0C83ED1056C
:1019800070F5C03ED10508F0DCC0C83AD105B8F406
:10199000C53AD10550F08C2F855AE82FF0E0ED5E66
:1019A000FE4F808190E09064CCC0C130D10509F435
:1019B000C8C008F4C4C0249708F4C1C0C2C0CF3B5B
:1019C000D10508F0BCC08C2F885AE82FF0E0EE0F4C
:1019D000FF1FEA5EFE4F808191819464B2C0C11501
:1019E00040E5D407E8F04C2F437081E090E002C05E
:1019F000880F991F4A95E2F79C68AE01F4E056956E
:101A00004795FA95E1F74370942B2C2F2F7026956C
:101A1000269550E2259F90011124822B932B91C093
:101A2000C11550E4D50720F0CE019F70906A89C09F
:101A30009E013A9521153F4108F483C080C0C1152D
:101A400056E5D507E8F5C11585E5D80748F08C2F90
:101A50000E940D0A8F7190E0982F8827906271C0C4
:101A6000C11594E5D90728F09C2F8827846F906AC8
:101A700068C08C2F86958695AE0143705527C11599
:101A8000D34578F490E2899F9001112481E090E0A1
:101A900002C0880F991F4A95E2F7822B932B9C680E
:101AA00050C090E2899F9001112481E090E002C033
:101AB000880F991F4A95E2F7822B932B9A6841C0B1
:101AC000C1154AE5D40778F5C11559E5D50710F1D8
:101AD0008C2F8F700E940D0A9E0194E036952795F9
:101AE0009A95E1F72F7030E0322F22273069A90153
:101AF000482B0EC090568115904208F58D2F8F719E
:101B00000E940D0A9E01332730628F71A901582B64
:101B1000CA0117C0C11588E5D80788F09C2F88270F
:101B2000806F906A0EC0C1159BE5D90740F0CE01C9
:101B3000C1152CE5D207F0F69927906602C080E027
:101B400090E0DF91CF910895CF92DF92EF92FF92D4
:101B50000F931F93CF93DF93EC018AE0C82EFE0111
:101B60008491882309F484C0813009F041C0319602
:101B70008491813041F42296FE011491812F0E94BC
:101B80009020812F0DC0823031F42296FE01849185
:101B90000E9490206BC0833031F42296FE01849124
:101BA0000E94342063C0843009F05FC02296FE0199
:101BB000249180E090E030E0205331092A30310553
:101BC00060F4C89EA001C99E500D1124CA01820F65
:101BD000931F2196FE012491EECF009709F446C091
:101BE000EFE9FFE03197F1F700C000000197F5CF72
:101BF000E82FF0E0EF5DFB4FD490082F0695069597
:101C0000069510E0F801EF5EFB4FE4908770F12C31
:101C1000082E02C0F594E7940A94E2F7F1E0EF226F
:101C2000FF24F801EF5FFB4F049110E002C015950F
:101C300007958A95E2F701701127E114F10419F074
:101C400081EE0E9490200115110519F086EE0E9488
:101C500090208D2D0E941421012B19F086EE0E94F8
:101C60003420EF2819F081EE9BCFEF01219677CF3A
:101C7000DF91CF911F910F91FF90EF90DF90CF9068
:101C80000895CF92DF92EF92FF926B017C010E9448
:101C9000211356985E9825982D9826982E98279867
:101CA0002F9890E0FC013197E730F105A8F4EC584B
:101CB000FF4F0C943922259A2D9A0EC0259A2D9A01
:101CC000269A2E9A09C0259A2D9A04C0259A2D9AF3
:101CD000269A2E9A279A2F9AC701B601FF90EF9065
:101CE000DF90CF90089580E290E090930801809378
:101CF00007018091330281110EC00E94272181E0EB
:101D0000809333022FEF83ED90E321508040904089
:101D1000E1F700C0000064E670E080E40E942D213D
:101D20009093080180930701892B09F04EC064E667
:101D300070E080E00E948421909308018093070165
:101D4000892B09F042C064E670E080E00E948421A3
:101D50009093080180930701892BB9F564E670E040
:101D60008FE30E9484219093080180930701892BBF
:101D700061F50E94D92164E670E080E40E942D2183
:101D80009093080180930701892BF9F464E670E0D1
:101D90008CE00E9484219093080180930701892B95
:101DA000A1F464E670E080E00E9484219093080131
:101DB00080930701892B49F464E670E08FE30E9469
:101DC000842190930801809307010E94D92180917A
:101DD00007010895CF93DF9356985E9825982D9824
:101DE00026982E9827982F98C8E8D0E08FEF90E09B
:101DF00099838883AAE8B0E011969C938E93ECE8CF
:101E0000F0E091838083259A2D9A2FEF80E792E06E
:101E1000215080409040E1F700C00000269A2E9AA1
:101E20002FEF80E792E0215080409040E1F700C022
:101E30000000279A2F9A2FEF80E792E021508040F0
:101E40009040E1F700C0000025982D982FEF80E723
:101E500092E0215080409040E1F700C000002698B9
:101E60002E982FEF80E792E0215080409040E1F7DC
:101E700000C0000027982F9880911B0387702FEFD8
:101E8000829FC001112495958795959587959927EF
:101E90009983888311969C938E939183808356981F
:101EA0005E9825982D9826982E9827982F98DF9140
:101EB000CF91089584B1807F84B985B1807F85B941
:101EC0008AB1837F8AB98BB1837F8BB93E9846985C
:101ED000089580B38C7080BB81B3836F81BB0895FC
:101EE0006F927F928F929F92AF92BF92CF92DF922A
:101EF000EF92FF920F931F93CF93DF931F92CDB773
:101F0000DEB7742E622EFC018281882331F160934A
:101F10002B0269830E94041290933502809334024D
:101F2000698180E2860F883008F080C0677081E0A8
:101F300001C0880F6A95EAF70F90DF91CF911F914A
:101F40000F91FF90EF90DF90CF90BF90AF909F9058
:101F50008F907F906F900C942A2090912B02961373
:101F60004AC040913402509135028FB7F8940091E5
:101F7000E2021091E3022091E4023091E5028FBF6A
:101F800048015901AA24BB246A01E12CF12C041B4D
:101F9000150B8C149D04AE04BF0410F401501109FC
:101FA000083C110540F510E2170D9715B9F080E2D5
:101FB000890F883040F4977081E001C0880F9A95AE
:101FC000EAF70E941F20183048F481E0972D97709F
:101FD00001C0880F9A95EAF70E942A20862D0E9458
:101FE0001421183018F5972D977081E001C0880FE3
:101FF0009A95EAF70AC080E2860F8830B8F46770D5
:1020000081E001C0880F6A95EAF70F90DF91CF91C8
:102010001F910F91FF90EF90DF90CF90BF90AF9006
:102020009F908F907F906F900C941F200F90DF9166
:10203000CF911F910F91FF90EF90DF90CF90BF90C5
:10204000AF909F908F907F906F9008959F92AF92E6
:10205000BF92CF92DF92EF92FF920F931F93CF9395
:10206000DF938091070190910801892B91F0809175
:1020700032028F5F8093320281110BC00E94730E77
:1020800090E09093080180930701892B11F40E943E
:10209000EA0E0FE113E026E2E22E23E0F22E6801C1
:1020A000C0E0912C97E0A92EAC0E8C2F0E94500A14
:1020B0008A2D0E94500A8C2F0E94A40AF60190815A
:1020C000981721F08083BB24B39401C0B12C8A2DD2
:1020D0000E94A40AF7019081981719F0808381E08B
:1020E00001C080E0B82A9B280E945A0FCF5FFFEF03
:1020F000CF1ADF0A2FEFE21AF20AC73099F60E94D0
:1021000004126AEF70E00E9425229C01682F8091E2
:102110002E028823E9F110922E02E0911503F0912E
:102120001603DF011E9690E07BEF8AEFE82EF12C7C
:1021300080818B3FA9F0482F50E0681728F0E90113
:10214000C41BD50BAE0106C06701C41AD50AA6018F
:10215000420F531F4E31510514F0708301C091E0BE
:102160003196EA17FB0721F790932E02911002C0D7
:10217000911110C010922D02A0911503B091160379
:1021800090912E02E2E3F3E080E03EE03E0F0FC0CC
:102190009110F0CF80912D028111ECCF2091560348
:1021A0008091300290913102211118C056C0E8018F
:1021B00029918E014081421741F04C914B3F21F40F
:1021C0006C93208391E001C081E0119631963E131B
:1021D000EECF90932E0280932D02E0CF892B31F425
:1021E00025982D9826982E9827982F988091300220
:1021F000909131029170892B79F480912F0288237C
:1022000019F026982E9802C0269A2E9A90912F02A5
:1022100081E0892780932F028091300290913102D2
:102220008130984780F0109256036091500370916E
:10223000510380915203909153030E94410E1092DA
:102240003102109230028091300290913102019659
:10225000909331028093300210C0892B71F010925C
:1022600031021092300260915003709151038091BD
:102270005203909153030E94410E892DDF91CF911B
:102280001F910F91FF90EF90DF90CF90BF90AF9094
:102290009F90089508958091E8020895CF93DF9369
:1022A00020910B032430E1F520910601222339F01F
:1022B00020912D0327FF03C060E222E002C068E006
:1022C00021E02093E9002FEF3091E800215035FD07
:1022D00006C035ED3A95F1F700002111F5CF2091B8
:1022E000E80025FF1DC0EC0180910601811105C0A9
:1022F00040E050E068E070E003C070E040E050E093
:10230000CE010E94E61B8091E8008E778093E80062
:1023100080E2FE01A9EEB2E001900D928A95E1F70C
:10232000DF91CF910895CF93DF9300D01F92CDB767
:10233000DEB790910B03943019F589837B836A8310
:1023400082E08093E9008FEF9091E800815095FD45
:1023500006C095ED9A95F1F700008111F5CF8091B7
:10236000E80085FF0DC040E050E063E070E0CE0182
:1023700001960E94E61B8091E8008E778093E8002A
:102380000F900F900F90DF91CF91089520910B0344
:10239000243099F423E02093E90070E040E050E01D
:1023A0000E94E61B882321F01092550310925603D9
:1023B0008091E8008E778093E800089578941F92CA
:1023C0000F920FB60F9211248F939F93AF93BF93E9
:1023D0008091E2029091E302A091E402B091E502C3
:1023E0000196A11DB11D8093E2029093E302A09398
:1023F000E402B093E502BF91AF919F918F910F904E
:102400000FBE0F901F9018952FB7F8948091E2029D
:102410009091E302A091E402B091E5022FBF0895EC
:102420001F920F920FB60F9211248F939F93AF9329
:10243000BF9380913103811113C08091E20290918A
:10244000E302A091E402B091E5024196A11DB11D05
:102450008093E2029093E302A093E402B093E5023A
:10246000BF91AF919F918F910F900FBE0F901F90D2
:10247000189520910601222321F020912D0327FD9C
:1024800004C0FC013296089619C0262F2695269581
:1024900026952E31C0F4FC01E20FF11D677081E03A
:1024A00090E001C0880F6A95EAF7809592818923B0
:1024B000828308953196E817F90729F020812613C1
:1024C000F9CF1082F7CF089520910601222321F041
:1024D00020912D0327FD05C0FC0132962FEF30E03F
:1024E00019C0262F2695269526952E3120F5FC011C
:1024F000E20FF11D677081E090E001C0880F6A95DE
:10250000EAF79281892B828308952F3F39F03F5F4C
:10251000363041F041914613F8CF0DC04111F7CF4D
:10252000232FF5CF2F3F39F0FC01E20FF11D27FDDE
:10253000FA95628308950895CF9384E090E00E9415
:10254000DD21C82F81E290E00E94DD212C2F30E0B8
:10255000A901582BCA01CF9108956FEE7EEF80E05C
:1025600090E00E940F2260E082E090E00E94F12162
:1025700060E083E090E00E94F1211092DE02109270
:10258000DF021092E0021092E10260E084E090E04D
:102590000E94F12160E081E290E00E94F12160E080
:1025A00085E090E00E94F12160E086E090E00E94EA
:1025B000F1216FEF87E090E00E94F12140E050E0D0
:1025C000BA0188E090E00E94032260E08DE090E094
:1025D0000E94F12140E050E0BA0188E190E00E94C1
:1025E000032260E087E190E00E94F12140E050E0AA
:1025F000BA018CE190E00E94032260E080E290E06A
:102600000E94F12110921B0310921C0310921D03D3
:1026100010921E0384E0806180931B0340911B0392
:1026200050911C0360911D0370911E038FE090E098
:102630000E94032240E050E0BA0183E190E00C9454
:102640000322CF92DF92EF92FF926C01EE24FF24DF
:10265000C114D104E104F10421F0C701B60120E165
:1026600001C020E0C72ED82EE92EFF24C114D104CA
:10267000E104F10419F0285FC701B6016B017C0188
:1026800054E0F694E794D794C7945A95D1F7C114BF
:10269000D104E104F10419F02C5FC701B6016B010C
:1026A0007C0142E0F694E794D794C7944A95D1F719
:1026B000C114D104E104F10419F02E5FC701B60181
:1026C000DC01CB01B695A79597958795892B8A2B29
:1026D0008B2B09F02F5F822FFF90EF90DF90CF9030
:1026E00008958091DD0281111092DD02089590918C
:1026F000DB028091DC02892B2091DA02982F922B49
:10270000909348028091DD028823D9F0892B809331
:10271000480280910601882331F080912D0387FFC4
:1027200002C08EE101C086E0EAE4F2E090E0815070
:1027300028F021912223D9F39F5FF9CF91110E94B4
:102740007113E0912F03F09130033097A9F080913D
:102750000601882359F080912D0387FF07C08091DF
:1027600048028093490285E0809348020280F38109
:10277000E02D88E492E009940895BF92CF92DF9211
:10278000EF92FF920F931F93CF93DF938C01C09032
:10279000DE02D090DF02E090E002F090E102809152
:1027A000500390915103A0915203B0915303C82A52
:1027B000D92AEA2AFB2ACFE1D0E0D701C6010C2EA4
:1027C00004C0B695A795979587950A94D2F780FF90
:1027D00007C0BC2EB8018C2F0E94050C019719F47C
:1027E000219758F7B12C8B2DDF91CF911F910F912D
:1027F000FF90EF90DF90CF90BF900895CF93DF933D
:10280000EC010E94BD13BE010E94050CDF91CF9127
:102810000895292F220F920F990F890F682F66951F
:1028200066956695982F977085E0689FB001112492
:1028300040E050E080E0FA01E60FF71FEE55FD4F53
:10284000208130E0092E02C0369527950A94E2F7E0
:1028500021703327042E01C0220F0A94EAF7822B3D
:102860004F5F5F4F4530510531F70895292F220FF3
:10287000920F990F890FA82FA695A695A6958770F8
:1028800051E001C0550F8A95EAF785E0A89FD00175
:10289000112420E030E070E0F901EA0FFB1FEE5553
:1028A000FD4F4081CB01022E02C0969587950A9478
:1028B000E2F7817099278195842785238427808377
:1028C0002F5F3F4F2530310539F70895CF92DF92C2
:1028D000EF92FF92CF93DF9300D000D0CDB7DEB759
:1028E0000E94410E6B017C0180915403882321F0EA
:1028F00080915503811115C0C0925003D0925103AD
:10290000E0925203F09253030E94E71F0F900F9042
:102910000F900F90DF91CF91FF90EF90DF90CF90CD
:102920000895198282E08A83C701B6010E942113AB
:102930008B838EEF8C8364E0CE0101960E94C611DA
:10294000DBCF0F931F9341E050E060E070E004C0E4
:10295000440F551F661F771F8A95D2F740955095F3
:10296000609570958091500390915103A09152030E
:10297000B09153038A019B01082319232A233B2387
:10298000C901B8011F910F910C9466142091D902CE
:10299000809582238093D902982F977079F430E044
:1029A000482F082E000C550B2417350739F0859554
:1029B000859585950E94A1141092D90208950F93D0
:1029C0001F9341E050E060E070E004C0440F551FE9
:1029D000661F771F8A95D2F780915003909151031B
:1029E000A0915203B09153038A019B01082B192B2C
:1029F0002A2B3B2BC901B8011F910F910C9466142F
:102A00006093DE027093DF028093E0029093E10214
:102A10000C94E71F8091A10290917002891719F020
:102A20008F5F8770FBCF089580916F0282958F70C2
:102A300009F054C080916C02882309F44FC0809142
:102A4000A102A091700260916A0270916B024091A4
:102A50006D0250916E02B6E08A1709F43FC090E013
:102A600041155105C1F17F3F11F46F3FA1F1B89FAE
:102A7000F001B99FF00D1124EF58FD4F2181721321
:102A80002AC02081621327C02281211124C0238102
:102A900034812417350710F421503109241B350BDC
:102AA000283C3105C0F420916F022F7020612093E3
:102AB0006F0226E0289FF001299FF00D1124EA58AB
:102AC000FD4F80818F70806180838AE692E00E9452
:102AD00094030C940A1501968770BECF0895BF9297
:102AE000CF92DF92EF92FF920F931F93CF93DF93DA
:102AF000CDB7DEB761970FB6F894DEBF0FBECDBF7E
:102B00008C0185E0F801DE011D9601900D928A95F9
:102B1000E1F7D8013C9111962C9111971296EC9007
:102B200012971396CD90DC90149750916A026091A1
:102B30006B0280916D0290916E02009709F44FC173
:102B40006F3F19F45F3F09F44AC1B0906C02BB209B
:102B500009F4ECC040916F02C816D90628F0F601BE
:102B6000E81BF90BCF0104C0809590958C0D9D1D3D
:102B7000FF24F394883C910548F0F12C407F09F044
:102B80009FC08AE692E00E94940321C1842F807F37
:102B900009F044C0621312C0531310C0E1100EC0FC
:102BA0004F70406140936F028AE692E00E94940366
:102BB00080916F02D80115968C932EC0CD2819F103
:102BC0002F3F11F43F3FF9F0FE2CE1101CC0809123
:102BD000A1024091700256E0841709F458C090E0B9
:102BE000589FF001599FF00D1124EF58FD4F61815E
:102BF000261306C06081361303C06281611103C0D1
:102C000001968770E9CFFE2CEE2009F421C1809156
:102C10006F02816080936F02F12C1AC162130AC0A7
:102C2000531308C0E11006C080916F02D8011596B9
:102C30008C93B0C03D872E878D859E850E94C01FD6
:102C40008823D1F1EE20C1F120916F02822F82956D
:102C50008F7090E0029774F080916A0290916B02FD
:102C600098878F831986DB86CA862C87CE010796C4
:102C70000E94940386E0F801AAE6B2E001900D926A
:102C80008A95E1F70E941415FF24F394E1C03D8773
:102C90002E878D859E850E94FE13292F22952F70E9
:102CA00030E0223031050CF0C7C09F7009F0C1C080
:102CB000805E883008F4CCC0C8010E949403E4CF41
:102CC000621314C0531312C0E11010C080916F0240
:102CD000F8018583C8010E94940386E0EAE6F2E0E9
:102CE000DF011D928A95E9F7FB2CB2C03D872E8744
:102CF0008D859E850E94C01F8823F1F2EE20E1F2AF
:102D000020916F02822F82958F7090E002970CF4D1
:102D1000B1CF80916A0290916B029A8389831B8262
:102D2000DD82CC822E83CE010196A2CFC816D906B1
:102D300038F0C81AD90AB8ECCB16D10450F007C045
:102D4000809590958C0D9D1D883C910510F0F12C7F
:102D50003EC0FE2CEE2009F4AFCF621327C0531300
:102D600025C020916F0220FD18C0822F82958F70A0
:102D7000482F50E04115510581F0F80125834F306F
:102D8000510541F08F5F982F9295907F822F8F7021
:102D9000892B8583C8010E94940386E0F801AAE686
:102DA000B2E001900D928A95E1F752C03D872E87DF
:102DB0008D859E850E94C01F81115CCF80916F021E
:102DC000816080936F02C8010E94940341C0EAE6CB
:102DD000F2E086E0DF011D928A95E9F739C0EE2026
:102DE00009F46ACF3D872E878D859E850E94C01F7E
:102DF000F82E882309F460CF86E0F801AAE6B2E055
:102E000001900D928A95E1F780916A0290916B0290
:102E10000E94FE1392959F70963041F48091690252
:102E200091E0892780936902909368020E941415AB
:102E30000FC081113DCF0CC0243031050CF03CCFC8
:102E40009F7009F435CFF8019581907F09F030CF5C
:102E50008F2D61960FB6F894DEBF0FBECDBFDF9108
:102E6000CF911F910F91FF90EF90DF90CF90BF9087
:102E700008951F93CF93DF93CDB7DEB7AA970FB610
:102E8000F894DEBF0FBECDBFEDE0F3E088E08E0F1B
:102E90009091F10091938E13FBCF80910E038930B6
:102EA000B9F150F4823009F4A5C0833009F45FC051
:102EB000813009F0EEC00CC08B3009F470C008F40A
:102EC00088C0823409F4AEC0853409F4C5C0E1C0BD
:102ED00080910D03813A09F0DCC08091E800877F82
:102EE0008093E8008091110390911203892B21F4C3
:102EF00060E289EE92E003C060E080E090E070E084
:102F00000E94E11C8091E8008B778093E800C1C0AB
:102F100080910D03813209F0BCC080911103909122
:102F20001203029708F0B5C08091E800877F809374
:102F3000E8008091E80082FD05C080910B038111BB
:102F4000F8CFA7C02091F3008091F20090E0922B7F
:102F5000029729F48091F1008B7F813021F48091D8
:102F6000F1008093E8028091E8008B7758C080914F
:102F70000D03813A09F08DC08091110390911203E5
:102F8000892B09F086C08091E800877F8093E80054
:102F90008091E80080FFFCCF809106013BC08091CA
:102FA0000D03813209F075C08091110390911203D5
:102FB000892B09F06EC08091E800877F8093E8003C
:102FC0000E942C1C80910F03809306010E94F51F24
:102FD00060C080910D03813209F05BC08091E800F0
:102FE000877F8093E8000E942C1C809110038093BF
:102FF000E7024FC080910D03813A09F04AC08091E9
:10300000E800877F8093E8008091E80080FFFCCF94
:103010008091E7028093F1008091E8008E778093A1
:10302000E8002FC080910D03803C99F58091110339
:1030300090911203029741F580910F039091100334
:10304000892B11F58091E800877F8093E8006BE180
:1030500070E083E595E013C080910D03803CC9F4D6
:103060008091110390911203079771F48091E80009
:10307000877F8093E80062EB70E081EA94E00E9431
:10308000801C0E942C1C05C08091EB008062809304
:10309000EB008091E80083FFA2C180910D03909125
:1030A0000E03492F50E04A30510508F098C1FA014B
:1030B000E558FF4F0C943922803821F0823809F00E
:1030C0008EC108C08091090390910A03992389F069
:1030D00082600FC0809111038F70873008F07FC12C
:1030E0008093E9008091EB0085FB882780F910929E
:1030F000E9009091E800977F9093E8008093F100B9
:103100001092F10036C1282F2D7F09F068C1882365
:1031100019F0823061F063C180910F03813009F0B2
:103120005EC1933009F080E080930A032EC0809145
:103130000F0381112AC0809111038F702FEF280F88
:10314000263008F04CC18093E9002091EB0020FF6D
:103150001CC0933021F48091EB00806214C09091E8
:10316000EB0090619093EB0021E030E0A90102C0F8
:10317000440F551F8A95E2F74093EA001092EA0047
:103180008091EB0088608093EB001092E9008091C1
:10319000E800877FF1C0811122C110910F031F77D2
:1031A0008091E3008078812B8093E3008091E80098
:1031B000877F8093E8000E942C1C8091E80080FFAC
:1031C000FCCF8091E30080688093E300111102C07E
:1031D00082E001C083E080930B0301C180588230FC
:1031E00008F0FDC080910F03909110038C3D53E0D7
:1031F000950779F583E08A838AE289834FB7F8944B
:10320000DE01139620E03EE051E2E32FF0E0509320
:103210005700E49120FF03C0E295EF703F5FEF702D
:103220008E2F90E0EA3010F0C79601C0C0968D93C3
:103230009D932F5F243149F74FBF8091E800877F2E
:103240008093E8006AE270E0CE0101960E94E11CE2
:103250007EC04091110350911203292F3327233050
:10326000310511F16CF42130310509F4C7C0223069
:10327000310509F0B4C062E570E080E296E060C01C
:103280002132310509F43EC02232310509F447C02C
:103290002F30310509F0A3C0E2EBF6E0E4916E2F88
:1032A00070E080EB96E048C0992781309105D1F01D
:1032B0005CF4892B09F093C0ECEAF6E0E4916E2F00
:1032C00070E08CEA96E038C08230910599F003975F
:1032D00009F085C0E4E8F6E0E4916E2F70E084E840
:1032E00096E02AC0E2EAF6E0E4916E2F70E082EA0E
:1032F00096E022C0EAE8F6E0E4916E2F70E08AE8FA
:1033000096E01AC04115510509F47DC041305105C0
:1033100009F065C069E070E08BE496E011C04115EA
:10332000510509F475C04130510509F058C061E7F5
:1033300070E08FE695E004C06115710509F44FC097
:103340002091E800277F2093E8000E94801C809154
:10335000E8008B778093E80042C0803809F03FC0D6
:103360008091E800877F8093E80080910C03809330
:10337000F1008091E8008E778093E8000E942C1C79
:103380002EC081112CC010910F03123040F5809196
:10339000E800877F8093E80010930C030E942C1CA8
:1033A000111106C08091E30087FD02C081E001C0D9
:1033B00084E080930B0342E061EC81E00E944B1CAF
:1033C00042E261EC82E00E944B1C42E361EC83E04C
:1033D0000E944B1C42E360EC84E00E944B1C8091F5
:1033E000E80083FF1AC08091E800877F8093E8009F
:1033F0008091EB0080628093EB000FC062E170E08F
:1034000082E796E09DCF69E070E082E396E098CF96
:1034100060E470E080EE95E093CFAA960FB6F89442
:10342000DEBF0FBECDBFDF91CF911F9108951F92D8
:103430000F920FB60F9211242F933F934F935F93E8
:103440006F937F938F939F93AF93BF93CF93DF93AC
:10345000EF93FF93C091E900CF708091EC00D82FDB
:10346000D17080FDD0E81092E9008091F000877F54
:103470008093F00078940E9439171092E9008091AF
:10348000F00088608093F000CD2BCF70C093E900EE
:10349000FF91EF91DF91CF91BF91AF919F918F916C
:1034A0007F916F915F914F913F912F910F900FBE40
:1034B0000F901F901895E8EDF0E080818E7F80835B
:1034C0001092E2001092DA001092E100A0EEB0E05B
:1034D0008C9181608C9380818F77808319BCA7ED5C
:1034E000B0E08C918E7F8C9380818F7E8083109250
:1034F000E6020895CF92DF92EF92FF920F931F930F
:10350000CF93DF93C8EDD0E088818F7E8883E7ED8D
:10351000F0E080818160808384E082BF81E08093DD
:10352000E60288818E7F888302EE10E0F801108227
:103530001092DA0081EEC82ED12CF601108288811B
:103540008F77888388818068888388818F7D88834E
:1035500019BC10920B0310920C0310920A031092E4
:10356000090390EEE92EF12CF70180818B7F808397
:1035700088818160888342E060E080E00E944B1C8B
:10358000F60180818E7F8083F80180818160808355
:10359000808188608083F70180818E7F808388812D
:1035A00080618883DF91CF911F910F91FF90EF9001
:1035B000DF90CF9008951F920F920FB60F921124B3
:1035C0002F933F934F935F936F937F938F939F932B
:1035D000AF93BF93EF93FF938091E10082FF09C007
:1035E0008091E20082FF05C08091E1008B7F809393
:1035F000E1008091DA0080FF2AC08091D80080FF2E
:1036000026C08091DA008E7F8093DA008091D90005
:1036100080FF18C080E189BD82E189BD09B400FE48
:10362000FDCF81E080930B038091E60281110FC0F2
:103630000E945B1A0E947A1A8091E2008460809353
:10364000E20005C019BC10920B031092E6028091B3
:10365000E10080FF17C08091E20080FF13C08091DD
:10366000E2008E7F8093E2008091E200806180938F
:10367000E2008091D80080628093D80019BC85E078
:1036800080930B038091E10084FF32C08091E200BF
:1036900084FF2EC080E189BD82E189BD09B400FEAE
:1036A000FDCF8091D8008F7D8093D8008091E1007C
:1036B0008F7E8093E1008091E2008F7E8093E20014
:1036C0008091E20081608093E20080910C03882366
:1036D00011F084E007C08091E30087FD02C081E023
:1036E00001C083E080930B030E94F51F0E94F30B3F
:1036F0008091E10083FF27C08091E20083FF23C017
:103700008091E100877F8093E10082E080930B034A
:1037100010920C038091E1008E7F8093E1008091F4
:10372000E2008E7F8093E2008091E20080618093CE
:10373000E20042E060E080E00E944B1C8091F000DB
:1037400088608093F000FF91EF91BF91AF919F91BE
:103750008F917F916F915F914F913F912F910F903A
:103760000FBE0F901F9018952091E4003091E50056
:1037700095E64091EC00842F817040FF22C080913B
:10378000E80080FD1CC080910B03882391F08530F8
:1037900091F08091EB0085FD10C04091E4005091C4
:1037A000E5004217530729F39A01915011F784E07D
:1037B000089582E0089583E0089581E0089580E00F
:1037C00008954091E80042FFDECF0895CF92DF9246
:1037D000FF920F931F93CF93DF931F92CDB7DEB766
:1037E000F82E8B0199830E94B41B998181111CC012
:1037F000CF2CD92E01151105B1F08091E80085FD7F
:103800000AC08091E8008E778093E8000E94B41B84
:10381000882381F309C0F60181916F018093F10043
:1038200001501109E7CF80E00F90DF91CF911F91F8
:103830000F91FF90DF90CF90089520910B032430DB
:1038400021F4BC0184E00C9493110895BC016058EC
:10385000710983E00C94931180910D0387FF11C0CF
:103860008091E80082FD05C080910B038111F8CFA3
:1038700011C08091E8008B770BC080910B038823E7
:1038800049F08091E80080FFF8CF8091E8008E77C2
:103890008093E8000895982F973058F59093E900A9
:1038A000981739F07091EC002091ED005091F000E4
:1038B00003C0242F762F50E021FF19C03091EB0078
:1038C0003E7F3093EB003091ED003D7F3093ED0073
:1038D0003091EB0031603093EB007093EC0020935B
:1038E000ED005093F0002091EE0027FF07C09F5F8E
:1038F000D3CF8F708093E90081E0089580E0089530
:1039000020911303309114032617370748F06115EF
:10391000710539F42091E8002E772093E80001C06A
:10392000B901FC0120E06115710591F180910B0353
:10393000882309F440C0853009F43FC08091E80035
:1039400083FD3DC08091E80082FD2FC08091E8009A
:1039500080FFE9CF2091F3008091F20090E0922B5C
:103960006115710559F08830910540F42491209338
:10397000F1003196615071090196F2CF21E008976C
:1039800009F020E08091E8008E778093E800CBCFAB
:103990002111CCCF0AC080910B03882361F08530C0
:1039A00061F08091E80083FD0AC08091E80082FF09
:1039B000F2CF80E0089582E0089583E0089581E0E9
:1039C000089520911303309114032617370748F008
:1039D0006115710539F42091E8002E772093E800F5
:1039E00001C0B90140E061157105A9F120910B03F7
:1039F000222309F443C0253009F442C02091E80095
:103A000023FD40C02091E80022FD32C02091E80053
:103A100020FFE9CF4091F3002091F20030E0342BF9
:103A2000FC01CF016115710559F02830310540F4D2
:103A300081918093F100615071092F5F3F4FF1CF69
:103A400041E02830310509F040E02091E8002E7770
:103A50002093E800C8CF4111C9CF0AC080910B0361
:103A6000882361F0853061F08091E80083FD0AC011
:103A70008091E80082FFF2CF80E0089582E008950F
:103A800083E0089581E00895CF93DF93CDB7DEB74B
:103A9000C955D1090FB6F894DEBF0FBECDBF84B7AC
:103AA000877F84BF0FB6F894A895809160008861E5
:103AB00080936000109260000FBE90E080E80FB627
:103AC000F89480936100909361000FBE85B7806881
:103AD00085BF85B7806885BF0E945B1A0E947A1AED
:103AE0008091E20084608093E200789480910B03DF
:103AF0008823A1F01091E9001F709091EC00892FAC
:103B0000817090FD80E8182B1092E9008091E80008
:103B100083FD0E9439171F701093E90082E084BD75
:103B200093E095BD9AEF97BD80936E000E94730E4F
:103B300090E090930801809307010E945A0F0E9421
:103B4000690FAFE1B3E0E2E3F3E03EE0E32EEE0E17
:103B500011921D92EE12FCCF8EE090E00E943F2267
:103B60008093150390931603FC010E962BEF21937F
:103B7000E817F907E1F780E090E00E94EB218F3E23
:103B80009E4F11F00E94AD128CE090E00E94DD216A
:103B900090E0A0E0B0E08093170390931803A09307
:103BA0001903B0931A0389EA8093800089E0809317
:103BB000810024982C983F988AB18F7C8AB96E989E
:103BC000479A8BB180638BB9769A8FE090E00E9420
:103BD000E52160931B0370931C0380931D03909356
:103BE0001E0367708FEF689FB0011124759567956C
:103BF0007595679577277093890060938800709317
:103C00008B0060938A0070938D0060938C000E94FB
:103C1000EA0E80E090E00E94EB218F3E9E4F11F073
:103C20000E94AD1282E090E00E94DD21809341036A
:103C30000E949C1290932E0380932D0383E090E0CA
:103C40000E94DD21682F70E080E090E00E94001566
:103C500089E091E09093300380932F03992493940B
:103C600081E4C82ED12CCC0EDD1EF2E0CF0ED11C8B
:103C700098E1A92EB12C80910B03853009F045C045
:103C800080910B03843011F11092310380E40FB660
:103C9000F894A895A09260000FBE8093600083B74F
:103CA000817F846083BF83B7816083BF7894889568
:103CB00083B78E7F83BF0FB6F894A895809160007C
:103CC000886180936000109260000FBE80910A03AB
:103CD000882309F4D0CF0E94730E90E090930801DE
:103CE000809307010E945A0F0E94690FE2E3F3E0FC
:103CF0001192EE12FDCF0E942610E2E3F3E08191D3
:103D000081111EC1EE12FBCFB6CF0E942610E2E455
:103D1000F3E0A2E3B3E000E010E0302F2D919191A9
:103D20009227A1F180E0FF24F3944F2D492351F114
:103D300061968FAF619762963FAF62972F2181E0C6
:103D400009F480E063968FAF63970E94041281604C
:103D5000782F65969FAF8EAF659761964FAD61974F
:103D600062965FAD629763966FAD639765968FAD10
:103D700065970E94F30AF801EE5BFC4F8081F826FC
:103D8000F0822AC08F5FFF0C863079F60F5F1F4FDD
:103D90000E30110509F0C1CF8FEF66968FAF669791
:103DA00067968FAF679768961FAE68970E94041258
:103DB0008160782F6A969FAF8EAF6A9766964FADF7
:103DC000669767965FAD679768966FAD68976A96D6
:103DD0008FAD6A970E94F30A109140030E94F30B83
:103DE000181721F00E94F30B8093400380910B037E
:103DF000843009F040CF8093E9008091E80082FF91
:103E00003ACF8091E80085FF24C00E94B41B88232C
:103E100011F091E01FC000E410E0CE0101963C01DA
:103E20008091E80085FD0AC08091E8008B7780933F
:103E3000E8000E94B41B882341F0EBCF8091F10091
:103E4000F30181933F01015011090115110541F75B
:103E5000E0CF90E08091E8008B778093E800992391
:103E600009F409CF1981111114C0809156038823D8
:103E700059F1109256039092550322961FAE229745
:103E800023961FAE23978EEF24968FAF249763E07F
:103E900071C01130C9F422961FAE229723961FAF2E
:103EA00023978CE0ECEEF1E0D60101900D928A951B
:103EB000E1F78EEF60968FAF60976FE0CE018F5B7A
:103EC0009F4F0E94C611D7CE80915503882399F148
:103ED000123019F0133091F049C060915003709185
:103EE000510380915203909153030E942113229613
:103EF0001FAE229723961FAF239714C08A8181306B
:103F000031F038F0823091F59092540302C0109253
:103F1000540322961FAE229783E023968FAF2397F8
:103F20008091540324968FAF24978EEF25968FAF00
:103F3000259764E01FC08FEF22968FAF229719C09C
:103F400080E189BD82E189BD09B400FEFDCF809189
:103F5000D8008F7D8093D8008091E00082608093AC
:103F6000E0008091E00081FDFCCF85CE22969FAEDF
:103F7000229761E0CE018F5B9F4F0E94C6117BCEDE
:103F80000E94FE13292F2F7092959F70E92FF0E069
:103F90003297EE30F105B8F4EB57FF4F0C9439220D
:103FA000803F99F018F4883E70F40FC0843F59F4B4
:103FB0000CC0883E50F0813F31F407C0822F8695B7
:103FC00086958695089580E0089581E00895109281
:103FD000DB021092DA020E94771380E090E00E94E8
:103FE000DD0B80E090E00C94C70B1092DC02809116
:103FF0000601882331F080912D0387FF02C08EE1F6
:1040000001C086E0EAE4F2E0DF011D928A95E9F75B
:104010000C94E71F882341F080959091DB0289235F
:104020008093DB020C9477130895882339F09091E4
:10403000DB02892B8093DB020C947713089588238D
:1040400041F080959091DC0289238093DC020C94EE
:1040500077130895882339F09091DC02892B80939F
:10406000DC020C9477130895882309F458C0682F54
:10407000823869F40E94F30B81FF51C069E388E440
:1040800092E00E9464120E94771369E30EC08338A5
:1040900091F40E94F30B80FF42C063E588E492E054
:1040A0000E9464120E94771363E588E492E00E9404
:1040B00039120C947713843869F40E94F30B82FF51
:1040C0002EC067E488E492E00E9464120E94771395
:1040D00067E4EBCF8CEF860F813A38F380E2860FEE
:1040E000883070F4677081E090E001C0880F6A95B5
:1040F000EAF780959091DC0289238093DC02D9CF86
:104100008BE5860F833020F480E090E00C94DD0B8B
:10411000685A673120F480E090E00C94C70B089552
:10412000882309F480C0682F8238B1F40E94F30B11
:1041300081FD79C069E388E492E00E9464120E94E4
:1041400077132FEF81EE94E0215080409040E1F70B
:1041500000C0000069E317C08338D9F40E94F30B54
:1041600080FD61C063E588E492E00E9464120E94D1
:1041700077132FEF81EE94E0215080409040E1F7DB
:1041800000C0000063E588E492E00E9439120C94BC
:1041900077138438B1F40E94F30B82FD44C067E4C6
:1041A00088E492E00E9464120E9477132FEF81EE60
:1041B00094E0215080409040E1F700C0000067E4A7
:1041C000E2CF8CEF860F813A28F488E492E00E94D7
:1041D0006412DDCF80E2860F883068F4677081E07A
:1041E00090E001C0880F6A95EAF79091DC02892B74
:1041F0008093DC02CCCFEBE5E60FE33038F4F0E05F
:10420000E850FE4F808190E00C94DD0B685A6731D6
:1042100050F4E62FF0E0EE0FFF1FE550FE4F8081D7
:1042200091810C94C70B0895CF93C82F0E949020C2
:10423000C93349F42FEF87EE93E02150804090403E
:10424000E1F700C000008C2FCF910C943420109225
:10425000B9008CE08093B8000895EF92FF920F931D
:104260001F93CF93DF93182FEB011092BC0084EAC9
:104270008093BC000E9404127C019091BC0097FDC9
:104280000EC0CF3F8FEFD807C1F30E9404128E19E2
:104290009F098C179D0788F38EEF9FEF2EC090919A
:1042A000B900987F983041F09091B900987F903193
:1042B00019F08FEF9FEF21C01093BB0084E880932B
:1042C000BC000E9404128C019091BC0097FD0CC0B0
:1042D000CF3F8FEFD807C1F30E940412801B910BD0
:1042E0008C179D0788F3D8CF8091B900887F8831DB
:1042F00011F08034F1F680E090E0DF91CF911F91D2
:104300000F91FF90EF9008950F931F93CF93DF933A
:10431000EB018093BB0084E88093BC000E940412F0
:104320008C019091BC0097FD0EC0CF3F8FEFD80756
:10433000C1F30E940412801B910B8C179D0788F318
:104340008EEF9FEF0CC02091B900287F81E090E0B4
:10435000283211F480E090E0919581959109DF91E8
:10436000CF911F910F9108950F931F93CF93DF93D8
:10437000EC0184E88093BC000E9404128C019091AF
:10438000BC0097FD0EC0CF3F8FEFD807C1F30E944E
:104390000412801B910B8C179D0788F38EEF9FEF03
:1043A00003C08091BB0090E0DF91CF911F910F91EE
:1043B000089584E98093BC000895F999FECF92BDD9
:1043C00081BDF89A992780B50895A6E1B0E044E050
:1043D00050E00C941722A8E1B0E042E050E00C94C9
:1043E0001722262FF999FECF92BD81BDF89A019729
:1043F00000B4021639F01FBA20BD0FB6F894FA9A2D
:10440000F99A0FBE08950396272F0E94F2210E9469
:10441000F121252F0E94F221242F0C94F2210196E4
:10442000272F0E94F2210C94F121DC01CB01FC0129
:10443000F999FECF06C0F2BDE1BDF89A319600B4FD
:104440000D9241505040B8F70895AA1BBB1B51E193
:1044500007C0AA1FBB1FA617B70710F0A61BB70BF4
:10446000881F991F5A95A9F780959095BC01CD0199
:104470000895EE0FFF1F0590F491E02D0994CF935E
:10448000DF938230910510F482E090E0E0915903CF
:10449000F0915A0320E030E0C0E0D0E0309711F115
:1044A0004081518148175907C0F04817590761F4F6
:1044B00082819381209719F09B838A832BC09093EC
:1044C0005A038093590326C02115310519F042176C
:1044D000530718F49A01BE01DF01EF010280F38156
:1044E000E02DDCCF2115310509F1281B390B2430D3
:1044F000310590F412968D919C9113976115710579
:1045000021F0FB019383828304C090935A0380932C
:104510005903FD01329644C0FD01E20FF31F819360
:104520009193225031092D933C933AC02091570327
:1045300030915803232B41F4209102013091030163
:1045400030935803209357032091000130910101CB
:104550002115310541F42DB73EB74091040150912A
:104560000501241B350BE0915703F0915803E21726
:10457000F307A0F42E1B3F0B2817390778F0AC0186
:104580004E5F5F4F2417350748F04E0F5F1F509363
:104590005803409357038193919302C0E0E0F0E009
:1045A000CF01DF91CF9108950F931F93CF93DF93A6
:1045B000009709F48CC0FC0132971382128200919B
:1045C000590310915A030115110581F4208131819D
:1045D000820F931F209157033091580328173907F2
:1045E00079F5F0935803E093570371C0D80140E088
:1045F00050E0AE17BF0750F412962D913C911397DF
:10460000AD012115310509F1D901F3CF9D01DA0181
:104610003383228360817181860F971F82179307EE
:1046200069F4EC0128813981260F371F2E5F3F4F37
:10463000318320838A819B8193838283452B29F454
:10464000F0935A03E093590342C01396FC93EE9300
:104650001297ED01499159919E01240F351FE217E0
:10466000F30771F480819181840F951F0296119652
:104670009C938E938281938113969C938E93129731
:10468000E0E0F0E0D80112968D919C91139700978D
:1046900019F0F8018C01F6CF8D919C9198012E5F55
:1046A0003F4F820F931F20915703309158032817D3
:1046B000390769F4309729F410925A03109259037C
:1046C00002C0138212821093580300935703DF91A4
:0C46D000CF911F910F910895F894FFCF37
:1046DC0000005B0320000120004B114E114A1126F3
:1046EC001C1D1C818283E200E900EA00B500B600C3
:1046FC00B700CD008301CC008A0192019401210204
:10470C00230224022502260227022A02B300B40047
:10471C006F007000000D010D020D030D040D050D51
:10472C00000C010C020C030C040C050C000B010B0F
:10473C00020B030B040B050B000A010A020A030A05
:10474C00040A050A000901090209030904090509FB
:10475C0000080108020803080408050800070107FF
:10476C0002070307040705070006010602060306F5
:10477C0004060506000501050205030504050505EB
:10478C0000040104020403040404050400030103EF
:10479C0002030303040305030002010202020302E5
:1047AC0004020502000101010201030104010501DB
:1047BC000000010002000300040005003977476A7D
:1047CC00372F764B4F6C4C00818283E200E900EA74
:1047DC0000B500B600B700CD008301CC008A019271
:1047EC000194012102230224022502260227022A17
:0A47FC0002B300B4006F007000006B
:00000001FF
