:100000000C9467030C9484030C9484030C94840371
:100010000C9484030C9484030C9484030C94840344
:100020000C9484030C9484030C94D51A0C94111A28
:100030000C94F0110C9484030C9484030C948403AA
:100040000C9484030C9484030C9484030C94840314
:100050000C9484030C94BE110C9484030C948403BC
:100060000C9484030C9484030C9484030C948403F4
:100070000C9484030C9484030C9484030C948403E4
:100080000C9484030C9484030C9484030C948403D4
:100090000C9484030C9484030C9484030C948403C4
:1000A0000C9484030C9484030C948403620465040C
:1000B00068046B046E047104740477047A047D048C
:1000C000450745077F077F07CA07CD096D09CD0999
:1000D000E607C408D508D508860A890A8C0A8F0A5B
:1000E000920A950A980A54187B18E9197B18E9199D
:1000F000C318E618E919A219B619CD1FCD1FE01FC4
:10010000E01FD61FE01FE01FE01FCD1FCD1FDB1F2C
:10011000E01FE01FDB1F29002B00E100E000390099
:1001200000001E00140004001D00E20001581F0022
:100130001A0016001B00E3004C0020000800070016
:10014000060050002A0021001500090019004F0088
:100150006400220017000A00050000004A0002584F
:1001600032000000650000004D0002583000000021
:10017000015800004A0023001C000B001100000081
:100180004D00240018000D00100052004B00250007
:100190000C000E00360051002C00260012000F004B
:1001A0003700E30028002700130033003800E60082
:1001B0004E0049002F00E500E4003400000001007B
:1001C000010024140100010000003A006400200036
:1001D0002514010001003B006402210037020100E8
:1001E00001003C00211422002214010001003D0006
:1001F0002E142D002D14010001003E0023142E00AA
:100200003200000001000100251400002714000046
:1002100001000100010000000100000001003F009A
:100220005600570037000000010040005F005C00EE
:10023000590062000100410060005D005A00630047
:100240000100420061005E005B000100010043000C
:100250005500540034020100010044004500010033
:100260000100010000000100010001000100010087
:100270000000010001001401A800AD000100010010
:1002800016011B01AA00AE00010001001A010601BF
:10029000A900AC00010001001C011901BE00AB0067
:1002A000010001002903160ABD0000000100010041
:1002B000085D0000010000000100010001000000D5
:1002C0000100000001000100010001000100000028
:1002D0000100010001000100010001000100010016
:1002E0000100010001000100010001000100010006
:1002F00001000100010001000100010001000100F6
:1003000001000100010001000100010000000100E6
:1003100001000100010001000000010001000100D6
:1003200001000100010001000100010001000100C5
:1003300001000100010001000100010001000100B5
:1003400001000100010001000100010001000100A5
:100350000100000001000100010000000100000098
:100360000100010001000000010000000100010087
:100370000100010001000000010001000100010076
:100380000100010001000100010001000100010065
:100390000100010001000100010001000100010055
:1003A0000100010001000100010001000100010045
:1003B0000100010000000103E200010161000101F0
:1003C000600001015F0001015E0001015D000101AB
:1003D0005C0001015B0001015A00010159000101AB
:1003E00062000102E20000000000000000000000C6
:1003F000000000000000000000007E0F00D4FFFF9E
:10040000FFC70000007800000000000000002A2B59
:1004100028000000000000000000000000000000B4
:100420000029000000002C1E34202122243426271D
:10043000252E362D3738271E1F202122232425263E
:100440003333362E37381F0405060708090A0B0C0C
:100450000D0E0F101112131415161718191A1B1C54
:100460001D2F3130232D350405060708090A0B0C12
:100470000D0E0F101112131415161718191A1B1C34
:100480001D2F3130354C0A00000000000306B20079
:10049000080001000000A800080002000200A000FF
:1004A0001400030057494E5553420000000000005D
:1004B000000000008400040007002A0044006500DA
:1004C000760069006300650049006E0074006500F5
:1004D0007200660061006300650047005500490036
:1004E00044007300000050007B00390044004200CB
:1004F000370046003100460044002D00370045001B
:10050000370041002D0034003000300038002D004D
:1005100039003300360042002D0036004200410011
:10052000360043003100390041003300300038000C
:1005300063007D00000000001B0301636F6E6669AD
:10054000677572652E6572676F646F782D657A2E98
:10055000636F6D0005010980A10185031A81002ADE
:100560008300160100260300950175108100C00567
:100570000C0901A10185041A01002A9C0216010040
:10058000269C02950175108100C005010906A10194
:100590008505050719E029E715002501950875016E
:1005A00081020507190029EF1500250195F0750155
:1005B000810205081901290595057501910295012A
:1005C00075039101C005010906A101050719E0297C
:1005D000E7150025019508750181029501750881CF
:1005E000010507190029FF150026FF00950675086B
:1005F00081000508190129059505750191029501EC
:1006000075039101C009025200030100A0FA090418
:100610000000010301010009211101000122400035
:100620000705810308000A09040100010300000016
:100630000921110100012271000705820320000A2F
:100640000904020002FF00000007058303400005C3
:10065000070504034000051201100200000008ED28
:10066000FE0713010001020301040330000000161D
:10067000034500720067006F0064006F007800207F
:100680000045005A00000008035A005300410000D2
:100690000004030904050F3900021C100500DF6087
:1006A000DDD88945C74C9CD2659D9E648A9F000019
:1006B0000306B20045001810050038B60834A90931
:1006C000A0478BFDA0768815B66500014200112475
:1006D0001FBECFEFDAE0DEBFCDBF11E0A0E0B1E09A
:1006E000EEEBF6E402C005900D92AE3FB107D9F7EC
:1006F00023E0AEEFB1E001C01D92AF32B207E1F7E7
:100700000E94311D0C945D230C9400004F925F9267
:100710006F927F929F92AF92BF92CF92DF92EF92B1
:10072000FF920F931F93CF93DF93CDB7DEB72A9736
:100730000FB6F894DEBF0FBECDBFFC010081F18083
:1007400083819481892B39F01FEFF11206C091E06B
:100750000F3F19F403C091E001C090E090FD3FC647
:100760006F0185E0DE01119601900D928A95E1F707
:10077000D60112962C9189819A81222349F00E94F8
:100780009713182F682F89819A810E94111403C032
:100790000E94E413182FB4E51B9FF001112416E00A
:1007A000F19EE00DF11D1124E00FF11DEE0FFF1F72
:1007B000EA5EFE4F0591149180912803882319F079
:1007C0008091290302C080E090E080FF16C01E8265
:1007D000D60112968C91882311F081E101C082E14B
:1007E0008F83F60180818887818189878EEF8A8750
:1007F00065E0CE0106960E94A6110930FDE51F07AF
:1008000009F086C0D60112968C918823E1F190916F
:10081000EF0281E0890F8770987F853020F4892B63
:100820008093EF0202C09093EF028091EF028770F5
:10083000BFEF8B9FC001112495958795959587955E
:100840009927909389008093880090938B008093E0
:100850008A0090938D0080938C004091EF0250911C
:10086000F0026091F1027091F2028FE090E00E943C
:1008700000226091240370912503809126039091BA
:1008800027030E944D0EF6018281882309F440C09F
:1008900082EE93E00E94B00D33E1E32E31E0F32EBF
:1008A00047E1A42E41E0B42ED701ED917D018E2FBA
:1008B00090E0FC01F097EA30F10518F5EA5AFF4F95
:1008C0000C9436228EED93E01AC08AED93E017C0A7
:1008D00086ED93E014C082ED93E011C08EEC93E0BE
:1008E0000EC08AEC93E00BC086EC93E008C082EC6B
:1008F00093E005C08EEB93E002C08AEB93E00E9488
:10090000B00DAE14BF0481F686EB93E00E94B00DEB
:10091000F6018281882319F1033EFCE51F07C1F02F
:1009200050F4013E3CE5130781F0023E8CE51807C8
:10093000B1F481E010C0043E9CE5190759F0053E72
:10094000ACE51A0761F484E006C01092EB0205C022
:1009500082E001C083E08093EB020E94FE0B17FF50
:1009600071C0F6018281882309F46CC08091B002C5
:100970008093FE011092B0028091EB02813071F001
:1009800048F08230C1F08430E1F486EE0E941121FB
:1009900088E115C082EE0E948D2013C083E00E9482
:1009A000122088E10E948D2088E10E94312083E09E
:1009B0000E94072006C082EE0E948D2087E50E94DB
:1009C00011218FE39CE90197F1F700C00000580165
:1009D000E894B7F82CE0E22EF12CC5010E2C02C0F1
:1009E000969587950A94E2F7282F2F7041F0822F71
:1009F00090E02A3010F44D9604C0069702C087E2BA
:100A000090E00E94112194E0E91AF108ACEFEA1697
:100A1000AFEFFA0611F78091EB02813039F040F028
:100A2000823031F0843051F488E206C08CE204C098
:100A300082EE0E94312002C00E9411218091FE01AD
:100A40008093B002033FBCE51B0729F180F4083D09
:100A5000FCE51F07C9F0093D2CE5120741F1073DF0
:100A60003CE5130739F526E241EE61EE10C0053F83
:100A70008CE51807C1F098F0063FACE51A07D1F4F1
:100A800027E245EE66EE03C027E245EE65EEC601BD
:100A90000E946E0FA4C426E241EE60EEF8CF27E27A
:100AA00045EE64EEF4CF26E241EE62EEF0CF28E2AE
:100AB00041E0ECCFF6018281882309F439C110921C
:100AC000FF010230FCE51F0708F41CC106312CE5CC
:100AD000120738F098012A5F3C452730310508F0AD
:100AE00011C10E94761290930203809301030F308C
:100AF0003CE5130709F4CFC008F042C008309CE57C
:100B0000190709F4A8C0F0F40430BCE51B0709F488
:100B100090C068F40230FCE51F0709F486C003307A
:100B20001C4509F0DFC0809101038260D9C0063006
:100B30003CE5130709F487C008F089C080910103E0
:100B40008860CEC00B309CE5190709F495C068F4A5
:100B50000930BCE51B0709F482C00A301C4509F0C6
:100B6000C1C080910103886080C00D30FCE51F0783
:100B700009F486C008F087C0809101038D7FB0C062
:100B80000A3F3CE5130709F457C050F502319CE5D4
:100B9000190709F488C068F40031BCE51B0709F4A3
:100BA0007EC001311C4509F09DC0809101038F7BFF
:100BB00097C00431FCE51F0709F487C008F479C029
:100BC00005311C4509F08EC08091010382FB22276C
:100BD00020F991E0922790FB82F990FB83F980C085
:100BE0000D3F8CE5180709F452C058F40B3FACE5F3
:100BF0001A0729F10C3F1C4509F074C080910203CB
:100C000060C00F3FECE51E0709F458C080F10115E4
:100C10001D4509F067C080910203982F909591704F
:100C20008E7F892B90FB81F94DC0809101038160FB
:100C300057C08091010319C0809102031BC08091AD
:100C4000020382603FC080910103806149C08091AE
:100C50000103806245C080910103806441C00E940D
:100C6000F21F8091010380683BC0846039C080918D
:100C700002038260816026C0809101038E7F30C0B4
:100C80008091010319C080910103877F29C0809161
:100C900002038D7F17C0809101038F7E21C0809158
:100CA00001038F7D1DC00E94F21F809101038F7789
:100CB00017C080910103877F8B7F12C08091020350
:100CC0008D7F8E7F809302030DC00E94F21F809162
:100CD000010387FB222720F991E0922790FB87F9F7
:100CE00080930103609101031091020384E090E07E
:100CF0000E94EE21612F81E290E00E94EE210E948D
:100D0000F21F6DC30631FCE51F0719F58091B00293
:100D10008A7A91E009F490E090930002882311F020
:100D200065E301C069E28CE192E00E9441120EC0CD
:100D300006311C4509F062C080910002882309F445
:100D40004CC365E38CE192E00E9419120E9451139A
:100D500046C30E3D3CE5130709F446C008309DE547
:100D6000190709F444C001151C4509F047C00E9449
:100D7000F21FBFEFE4E3FCE0B150E040F040E1F7E8
:100D800000C00000F89481E08093E00080E280934E
:100D9000D8001092C9008FE19EE40197F1F700C0DE
:100DA00000001DBA109268001CBC10BE1FBA109241
:100DB0007A0010926E0010926F00109271001092E3
:100DC00072001092C9001092BC0014B817B81AB87B
:100DD0001DB810BA1092BC0015B818B81BB81EB8D0
:100DE00011BA0C94003FFBC20E948712F8C2909186
:100DF0002A0381E0892780932A03F1C2D6010D914D
:100E00001C91882349F0C8010E949713F82E682F7F
:100E1000C8010E94111404C0C8010E94E413F82EF6
:100E2000B8018F2D0E94040C8C01B82ED6011596A6
:100E3000EC901597E2949FE0E9221296FC90F11055
:100E40001092AF028091AD02877079F0FF2069F0B7
:100E500080E2800F883048F082E00E949F148091E9
:100E6000AD028770AA24A3948111A12C912E929493
:100E70008FE09822892D90E08C30910508F08DC28A
:100E8000FC01E05AFF4F0C943622812F807F1F70A7
:100E9000882311F01295107FFF20B9F0112309F477
:100EA00006C280E2800F883010F0B11006C0809139
:100EB000B002182B1093B00205C08091AF02182B1E
:100EC0001093AF020E945113F2C1802F0E94312073
:100ED000112309F462C2005E1095083010F0B110C1
:100EE00006C08091B00218231093B00205C0809113
:100EF000AF0218231093AF020E9451134EC2812FEC
:100F0000807F1F70803211F01295107FBB2021F07E
:100F1000B1E0BB16E1F028C0FF2081F08091B10262
:100F2000EE2051F0E1E0EE1207C0182B181709F47B
:100F300034C21093B10231C2812B10C0EE2021F0D7
:100F4000F1E0EF1609F429C20E944B131FC0FF20E5
:100F500041F001E00E1508F420C2812F0E942720E5
:100F60001CC2E1101AC212C0FF2019F0EE20A9F332
:100F70009EC1EE2059F0093309F0ABC11FEF27EEF7
:100F800033E0115020403040E1F7A1C1812F0E9491
:100F90001C2003C2812F86958695837019F08130BD
:100FA00059F0FBC1FF2019F0C801937002C080E026
:100FB00090E00E94DC0BF9C1FF2019F0C80193708A
:100FC00002C080E090E00E94C60BEFC1812F8370C9
:100FD00009F069C0F110E5C1902F92959695977030
:100FE000990F990F802F8F70482E512C612C712CE6
:100FF000092E04C0440C551C661C771C0A94D2F7B9
:1010000004FF12C04FE050E060E070E004C0440F05
:10101000551F661F771F9A95D2F7DB01CA0180958D
:101020009095A095B09503C080E090E0DC01169506
:101030001695412F4370423019F1C8F40091B20265
:101040001091B3022091B4023091B502413059F0B1
:1010500084299529A629B729BC01CD0160237123D4
:10106000822393230AC0402A512A622A732ABC0190
:10107000CD0164297529862997290E94D91491C127
:1010800084299529A629B7290091B2021091B302AB
:101090002091B4023091B502BC01CD0160277127C7
:1010A00082279327EACFFF2019F0812F817001C09A
:1010B0008695882309F475C1902F9295969597701F
:1010C000990F990F802F8F70482E512C612C712C05
:1010D000092E04C0440C551C661C771C0A94D2F7D8
:1010E00004FF12C04FE050E060E070E004C0440F25
:1010F000551F661F771F9A95D2F7DB01CA018095AD
:101100009095A095B09503C080E090E0DC01169525
:101110001695412F43704230D9F068F500912403B1
:10112000109125032091260330912703413059F077
:1011300084299529A629B729BC01CD0160237123F3
:10114000822393231EC0402A512A622A732A13C085
:1011500084299529A629B7290091240310912503F4
:101160002091260330912703BC01CD016027712710
:101170008227932706C0BC01CD01642975298629E1
:1011800097290E943D140DC11F70FF2039F0812F57
:101190000E94B814802F0E94272003C1802F0E9434
:1011A0001C20812F0E947A14FCC0802F92EFB91668
:1011B00009F43EC09B1538F0A0EFBA1661F0B1EF0C
:1011C000BB1689F16FC0E3EFBE16C9F1F4EFBF168D
:1011D00009F44CC067C0FF2009F1E110DEC01F71A7
:1011E00081E090E0A0E0B0E0AC01BD0104C0440F9C
:1011F000551F661F771F1A95D2F78091240390918F
:101200002503A0912603B09127038A019B0108279B
:1012100019272A273B27C901B80125C021E02E152F
:1012200008F4BBC0DCCFFF2029F0812F8F712CC0C8
:10123000FF20D9F3812F8F710E947A14AEC0FF2056
:1012400079F01F7181E090E0A0E0B0E0BC01CD0139
:1012500004C0660F771F881F991F1A95D2F703C025
:1012600060E070E0CB010E943D1497C0FF2079F050
:101270001F71812F0E94B81438E0139FC001112400
:1012800083608093AD02812F0E94B81486C081E0F4
:101290000E949F1481E08E1508F07FC082E00E94BA
:1012A0009F147BC0FF2039F0EE2009F4BECF802FC1
:1012B0000E948D2072C0EE2009F4BCCF893349F41E
:1012C0009FEFA7EEB3E09150A040B040E1F700C01F
:1012D0000000802F0E94312060C0E2EFBE16E1F0D6
:1012E000EB1538F0F0EFBF1669F011EFB11611F100
:1012F0002BC024EFB216C9F0B21660F035EFB3166A
:1013000071F022C0FF2009F450C090913D0281E0AD
:10131000892708C081E0F826F0923D0246C0F1100E
:1013200044C081E080933D0240C0F1103EC0109265
:101330003D023BC0FF2029F080913C02882329F325
:1013400029C0EE2011F331C080913C02EE20C1F0A3
:10135000882341F090913D0281E0892780933D02EE
:1013600010923C02802FFF2019F00E948D201DC09A
:101370000E94312086E0D6011D928A95E9F715C0BA
:10138000882399F0F11011C090913D0281E08927E6
:1013900080933D0210923C0208C088EF890D843092
:1013A00020F40E94F20B0E94A80DAA20C1F08091A7
:1013B000AD0280FD14C0F601128285958595859554
:1013C0000E94B814C6010E9486038091AD028595E3
:1013D000859585950E947A1402C069E2B3CC2A965D
:1013E0000FB6F894DEBF0FBECDBFDF91CF911F9136
:1013F0000F91FF90EF90DF90CF90BF90AF909F90B4
:101400007F906F905F904F9008959091010392FFAD
:101410000DC0282F2871283019F4877F846006C0FA
:10142000282F2471243011F48B7F886093FF0DC026
:10143000282F2871283119F4877E846106C0282F4F
:101440002471243111F48B7E88612091020320FFE6
:101450000DC0382F3871383019F4877F816006C08D
:10146000382F3171313011F48E7F886021FF0DC02B
:10147000282F2871283119F4877E816106C0282F12
:101480002171213111F48E7E886194FD877E08954B
:10149000CF93E82F873080F5809107019091080164
:1014A000892B09F047C0CE2F64E670E080E40E94EB
:1014B0002A219093080180930701892BD1F464E6D7
:1014C00070E082E10E9481219093080180930701DE
:1014D000892B79F481E090E001C0880FCA95EAF782
:1014E00064E670E080950E948121909308018093CA
:1014F0000701CF910C94D62190E0FC013797E7309B
:10150000F105C0F4E459FF4F0C943622209A289834
:1015100011C0219A29980EC0229A2A980BC0239AAA
:101520002B9808C0529A5A9805C0539A5B9802C0EB
:101530003E9A4698CF910895CF93873008F03FC0E8
:101540008091070190910801892B09F041C064E660
:1015500070E080E40E942A219093080180930701A3
:10156000892B11F0C0E027C064E670E083E10E949F
:1015700081219093080180930701892B99F764E6F4
:1015800070E081E40E942A21909308018093070172
:10159000892B41F784E690E00E94B12197FF05C0B6
:1015A0009093080180930701DDCFC82FC09510925A
:1015B0000801109207010E94D6218C2F0AC09FB10A
:1015C0008FB1807F869586959370892B809501C019
:1015D00080E0CF9108950F931F93CF93DF93CDB702
:1015E000DEB767970FB6F894DEBF0FBECDBF4B8B4B
:1015F0005C8B6D8B7E8B8F8B0E891F89011511057E
:1016000031F05F3F31F481E04F3F19F403C081E0D6
:1016100001C080E080FD32C0242F30E0A1E0B0E0C6
:10162000042E01C0AA0F0A94EAF7852F90E06623E2
:1016300019F070913D0205C0FC01E25FFD4F708121
:101640007A237723A1F046E0489FF001499FF00DEF
:101650001124E20FF31FEE0FFF1FE85EFE4F4081E3
:101660005181FC01E25FFD4F9081A92B06C0FC0176
:10167000E25FFD4FA0958081A823A08386E0FE0154
:101680003D96DF01982F1D929A95E9F74D875E8769
:101690006F87198B088BDE01179601900D928A9542
:1016A000E1F7CE0107960E94551581113EC086E0F4
:1016B000FE013796DE01119601900D928A95E1F7B1
:1016C000FF81E8856A857B856115710531F0EF3F03
:1016D00031F481E0FF3F19F403C081E001C080E0F4
:1016E00080FD23C02091440230E0C901019687703B
:1016F00099274091750250E08417950779F1F98395
:10170000EA837D836C8396E0929FD001939FB00D16
:101710001124AB5BBD4FFE01319601900D929A955D
:10172000E1F7809344020E94E31416E08091750271
:10173000909144028917F9F0189FC00111248B5B26
:101740009D4F0E9455158823B1F08091750290E05D
:1017500001968770992780937502E8CF0E94F21F47
:101760001092440210927502EEE3F2E086E0DF018F
:101770001D928A95E9F767960FB6F894DEBF0FBE03
:10178000CDBFDF91CF911F910F91089520910C0251
:1017900030910D022817390771F090930D02809354
:1017A0000C02E0910303F0910403309721F00084D0
:1017B000F185E02D0994089520910A0230910B02E1
:1017C0002817390771F090930B0280930A02E09179
:1017D0000303F0910403309721F00680F781E02D98
:1017E00009940895E0910303F0910403309721F0E8
:1017F0000190F081E02D099480E008956091EB0262
:101800008CE090E00C94EE21CF93DF9324E5829F4F
:10181000C0011124FC0146E0749FE00DF11D11246C
:10182000E60FF11DEE0FFF1FEA5EFE4FC591D4914A
:10183000CE01C238D10569F1B0F4C133D10509F444
:1018400075C048F4C932D10509F469C0CA32D1055E
:1018500009F473C085C0C533D10509F459C0C93333
:10186000D105B9F07DC0C33ED10571F138F4C03E59
:10187000D105B1F0C23ED10511F172C0C63ED1050D
:10188000B9F1C73ED105C9F1C43ED10509F068C020
:1018900024C02091010320FD5DC021FD5BC060C01C
:1018A0002091010320FD50C02091020320FF4DC173
:1018B0008091010384FD47C183EE90E046C12091F1
:1018C000010322FF42C1F4CF8091010382FD3FC09A
:1018D0008091020380FD3EC0EBCF2091020321FFE7
:1018E00034C18091010384FD2EC187EE90E02DC1AB
:1018F0002091010323FF29C1F4CF8091010383FDCF
:101900002CC08091020381FFECCF84EE90E01DC1DA
:101910002091010325FF19C189E290E016C12091B1
:10192000010325FF12C185E390E00FC1209101035F
:1019300026FF0BC18AE290E008C12091010326FF37
:1019400004C181E390E001C189E390E0FEC082EE32
:1019500090E0FBC080EE90E0F8C086EE90E0F5C02D
:10196000C11552E5D50708F06BC0C11521E5D207B6
:1019700028F09C2F8827816F906AE7C0C83ED10568
:1019800070F5C03ED10508F0E0C0C83AD105B8F402
:10199000C53AD10550F08C2F855AC82FD0E0C453DA
:1019A000DE4F888190E09064D0C0C130D10509F449
:1019B000CCC008F4C8C0249708F4C5C0C6C0CF3B4B
:1019C000D10508F0C0C08C2F885AC82FD0E0CC0FAA
:1019D000DD1FC153DE4F888199819464B6C0C11563
:1019E00040E5D407F0F0CE01F4E096958795FA959E
:1019F000E1F7282F23703C2F337081E090E002C084
:101A0000880F991F3A95E2F79C68922B2C2F2F7024
:101A10002695269550E2259F90011124822B932B29
:101A200094C0C11550E4D50720F0CE019F70906A94
:101A30008CC09E013A9521153F4108F486C083C0B1
:101A4000C11556E5D50708F03FC0C11585E5D80793
:101A500048F08C2F0E94050A8F7190E0982F8827FC
:101A6000906273C0C11524E5D20728F09C2F882707
:101A7000846F906A6AC09E01237033279C2F9695CD
:101A80009695C115D34580F441E050E002C0440F63
:101A9000551F2A95E2F780E2989F90011124CA0110
:101AA000822B932B9C6851C041E050E002C0440F50
:101AB000551F2A95E2F780E2989F90011124CA01F0
:101AC000822B932B9A6841C0C1155AE5D50778F54A
:101AD000C11589E5D80710F18C2F8F700E94050A77
:101AE0009E0194E0369527959A95E1F72F7030E0A6
:101AF000322F22273069A901482B0EC0905681153C
:101B0000904208F58D2F8F710E94050A9E013327A0
:101B100030628F71A901582BCA0117C0C11528E581
:101B2000D20788F09C2F8827806F906A0EC0C1155D
:101B30004BE5D40740F0CE01C1155CE5D507F0F6C2
:101B40009927906602C080E090E0DF91CF910895E0
:101B500081FF03C0279A2F9A089527982F980895F8
:101B6000CF92DF92EF92FF920F931F93CF93DF9369
:101B7000EC018AE0C82EFE018491882309F484C018
:101B8000813009F041C031968491813041F4229630
:101B9000FE011491812F0E948D20812F0DC0823073
:101BA00031F42296FE0184910E948D206BC0833017
:101BB00031F42296FE0184910E94312063C084306A
:101BC00009F05FC02296FE01249180E090E030E0B1
:101BD000205331092A30310560F4C89EA001C99E06
:101BE000500D1124C901840F951F2196FE012491E7
:101BF000EECF009709F446C0EFE9FFE03197F1F727
:101C000000C000000197F5CFE82FF0E0EA5FFB4F3E
:101C1000D490082F06950695069510E0F801EA5035
:101C2000FC4FE4908770F12C082E02C0F594E794E5
:101C30000A94E2F7F1E0EF22FF24F801EA51FC4FA9
:101C4000049110E002C0159507958A95E2F701709E
:101C50001127E114F10419F081EE0E948D20011585
:101C6000110519F086EE0E948D208D2D0E94112104
:101C7000012B19F086EE0E943120EF2819F081EE39
:101C80009BCFEF01219677CFDF91CF911F910F91DD
:101C9000FF90EF90DF90CF900895CF92DF92EF9278
:101CA000FF926B017C010E94FB1256985E9825986A
:101CB0002D9826982E9827982F98823049F08330B7
:101CC00029F0813039F4259A2D9A04C0259A2D9A4D
:101CD000269A2E9AC701B601FF90EF90DF90CF9021
:101CE000089580E290E0909308018093070180912D
:101CF000070281110EC00E94242181E08093070217
:101D00002FEF83ED90E3215080409040E1F700C039
:101D1000000064E670E080E40E942A2190930801AC
:101D200080930701892B09F04EC064E670E080E0E3
:101D30000E9481219093080180930701892B09F06B
:101D400042C064E670E080E00E9481219093080127
:101D500080930701892BB9F564E670E08FE30E9458
:101D600081219093080180930701892B61F50E94DE
:101D7000D62164E670E080E40E942A219093080155
:101D800080930701892BF9F464E670E08CE00E94EF
:101D900081219093080180930701892BA1F464E6C7
:101DA00070E080E00E9481219093080180930701F8
:101DB000892B49F464E670E08FE30E9481219093BF
:101DC0000801809307010E94D621809107010895A0
:101DD000CF93DF9356985E9825982D9826982E9845
:101DE00027982F98C8E8D0E08FEF90E099838883F8
:101DF000AAE8B0E011969C938E93ECE8F0E0918312
:101E00008083259A2D9A2FEF80E792E02150804021
:101E10009040E1F700C00000269A2E9A2FEF80E74D
:101E200092E0215080409040E1F700C00000279AE6
:101E30002F9A2FEF80E792E0215080409040E1F709
:101E400000C0000025982D982FEF80E792E02150E8
:101E500080409040E1F700C0000026982E982FEFB8
:101E600080E792E0215080409040E1F700C0000000
:101E700027982F988091EF0287702FEF829FC001E3
:101E800011249595879595958795992799838883AA
:101E900011969C938E939183808356985E98259893
:101EA0002D9826982E9827982F98DF91CF910895F6
:101EB00084B1807F84B985B1807F85B98AB1837F01
:101EC0008AB98BB1837F8BB93E984698089580B3C9
:101ED0008C7080BB81B3836F81BB0895CF92DF92FA
:101EE000EF92FF920F931F93CF93DF93C62F142F80
:101EF000022FFC0182818823E9F06093FF010E9498
:101F0000E411909309028093080280E28C0F8830DC
:101F100008F07CC0C77081E001C0880FCA95EAF75D
:101F2000DF91CF911F910F91FF90EF90DF90CF90B5
:101F30000C9427208091FF01681349C0209108026A
:101F4000309109024FB7F8948091B6029091B70290
:101F5000A091B802B091B9024FBF6C017D01EE248F
:101F6000FF24A90160E070E0821B930BC416D50624
:101F7000E606F70608F40197883C910540F5D0E2A3
:101F8000D10FC117B9F080E28C0F883040F4C770D0
:101F900081E001C0880FCA95EAF70E941C20D83062
:101FA00050F581E0912F977001C0880F9A95EAF75C
:101FB0000E942720802F0E941121D83038F5412F10
:101FC000477081E001C0880F4A95EAF70AC080E2B5
:101FD0008C0F8830D8F4C77081E001C0880FCA9593
:101FE000EAF7DF91CF911F910F91FF90EF90DF9073
:101FF000CF900C941C20802FDF91CF911F910F91D7
:10200000FF90EF90DF90CF900C941121DF91CF9152
:102010001F910F91FF90EF90DF90CF900895BF92A6
:10202000CF92DF92EF92FF920F931F93CF93DF93A4
:102030008091070190910801892B91F0809106020F
:102040008F5F8093060281110BC00E94710E90E099
:102050009093080180930701892B11F40E94E80EE8
:1020600093EFE92E92E0F92E8701C0E0B12C87E0D2
:10207000C82ECC0E8C2F0E94480A8C2D0E94480A34
:102080008C2F0E949C0AF8019081891721F080838F
:10209000DD24D39401C0D12C8C2D0E949C0AF80120
:1020A0009781891719F0878381E001C080E0D82AE1
:1020B000BD280E94580FCF5F0F5F1F4FC730B9F682
:1020C0000E94E4116AEF70E00E9422229C01682FB6
:1020D000809102028823E9F110920202E091E90264
:1020E000F091EA02DF011E9690E07BEF0AEF10E02C
:1020F00080818B3FA9F0482F50E0681728F06901D4
:10210000C41AD50AA60106C0E801C41BD50BAE014E
:10211000420F531F4E31510514F0708301C091E0FE
:102120003196EA17FB0721F790930202B11002C023
:10213000911111C010920102E091E902F091EA02BE
:1021400090910202A6E0B3E0AF01425F5F4F80E0F2
:102150000FC0B110EFCF809101028111EBCF209120
:102160002A038091040290910502211119C057C0E1
:10217000E70129917E013C91321741F030813B3FCC
:1021800021F460832C9391E001C081E03196119697
:10219000E417F50769F79093020280930102DFCFFD
:1021A000892B31F425982D9826982E9827982F98CA
:1021B00080910402909105029170892B79F48091AD
:1021C0000302882319F026982E9802C0269A2E9A88
:1021D0009091030281E08927809303028091040299
:1021E000909105028130984780F010922A03609107
:1021F00024037091250380912603909127030E9468
:102200004D0E1092050210920402809104029091EA
:1022100005020196909305028093040210C0892B59
:1022200071F01092050210920402609124037091E3
:10223000250380912603909127030E944D0E8B2D3C
:10224000DF91CF911F910F91FF90EF90DF90CF9092
:10225000BF90089508958091BC020895CF93DF93B5
:102260002091DF022430E1F520910601222339F08C
:102270002091010327FF03C060E222E002C068E072
:1022800021E02093E9002FEF3091E800215035FD47
:1022900006C035ED3A95F1F700002111F5CF2091F8
:1022A000E80025FF1DC0EC0180910601811105C0E9
:1022B00040E050E068E070E003C070E040E050E0D3
:1022C000CE010E94E31B8091E8008E778093E800A6
:1022D00080E2FE01ADEBB2E001900D928A95E1F74C
:1022E000DF91CF910895CF93DF9300D01F92CDB7A8
:1022F000DEB79091DF02943019F589837B836A837E
:1023000082E08093E9008FEF9091E800815095FD85
:1023100006C095ED9A95F1F700008111F5CF8091F7
:10232000E80085FF0DC040E050E063E070E0CE01C2
:1023300001960E94E31B8091E8008E778093E8006D
:102340000F900F900F90DF91CF9108952091DF02B1
:10235000243099F423E02093E90070E040E050E05D
:102360000E94E31B882321F01092290310922A0374
:102370008091E8008E778093E800089578941F920A
:102380000F920FB60F9211248F939F93AF93BF9329
:102390008091B6029091B702A091B802B091B902B3
:1023A0000196A11DB11D8093B6029093B702A09330
:1023B000B802B093B902BF91AF919F918F910F90E6
:1023C0000FBE0F901F9018952FB7F8948091B6020A
:1023D0009091B702A091B802B091B9022FBF0895B1
:1023E0001F920F920FB60F9211248F939F93AF936A
:1023F000BF9380910503811113C08091B602909123
:10240000B702A091B802B091B9024196A11DB11DC9
:102410008093B6029093B702A093B802B093B9022A
:10242000BF91AF919F918F910F900FBE0F901F9012
:102430001895209106012223C9F02091010327FF5E
:1024400015C0262F2695269526952E31C8F4FC0119
:10245000E20FF11D677081E090E001C0880F6A957E
:10246000EAF780959281892382830895FC0106967C
:102470002281621301C012823196E817F907C1F771
:102480000895209106012223C1F02091010327FF26
:1024900014C0262F2695269526952E3130F5FC0161
:1024A000E20FF11D677081E090E001C0880F6A952E
:1024B000EAF79281892B82830895FC0132962FEFEF
:1024C00030E04191641789F02F3F19F4411101C0A8
:1024D000232F3F5F3630A9F72F3F39F0FC01E20F81
:1024E000F11D27FDFA95628308950895CF9384E046
:1024F00090E00E94DA21C82F81E290E00E94DA2168
:102500002C2F30E0A901582BCA01CF9108956FEE0E
:102510007EEF80E090E00E940C2260E082E090E09C
:102520000E94EE2160E083E090E00E94EE21109294
:10253000B2021092B3021092B4021092B50260E09F
:1025400084E090E00E94EE2160E081E290E00E9451
:10255000EE2160E085E090E00E94EE2160E086E000
:1025600090E00E94EE216FEF87E090E00E94EE2164
:1025700040E050E0BA0188E090E00E94002260E074
:102580008DE090E00E94EE2140E050E0BA0188E149
:1025900090E00E94002260E087E190E00E94EE213E
:1025A00040E050E0BA018CE190E00E94002260E03F
:1025B00080E290E00E94EE211092EF021092F00271
:1025C0001092F1021092F20284E080618093EF0297
:1025D0004091EF025091F0026091F1027091F2028D
:1025E0008FE090E00E94002240E050E0BA0183E1D9
:1025F00090E00C940022CF92DF92EF92FF926C0158
:10260000EE24FF24C114D104E104F10421F0C70138
:10261000B60120E101C020E0C72ED82EE92EFF240C
:10262000C114D104E104F10419F0285FC701B60117
:102630006B017C0154E0F694E794D794C7945A95C3
:10264000D1F7C114D104E104F10419F02C5FC701E2
:10265000B6016B017C0142E0F694E794D794C794ED
:102660004A95D1F7C114D104E104F10419F02E5FA9
:10267000C701B601DC01CB01B695A7959795879563
:10268000892B8A2B8B2B09F02F5F822FFF90EF90E5
:10269000DF90CF9008958091B10281111092B10224
:1026A00008959091B0028091AF02892B2091AE02E3
:1026B000982F922B90931C028091B1028823D9F01D
:1026C000892B80931C0280910601882331F0809130
:1026D000010387FF02C08EE101C086E0EEE1F2E077
:1026E00090E0815028F021912223D9F39F5FF9CF08
:1026F00091110E944B13E0910303F0910403309772
:10270000A9F080910601882359F08091010387FF89
:1027100007C080911C0280931D0285E080931C02FB
:102720000280F381E02D8CE192E009940895BF923C
:10273000CF92DF92EF92FF920F931F93CF93DF938D
:102740008C01C0902403D0902503E0902603F090E4
:1027500027038091B2029091B302A091B402B0918C
:10276000B502C82AD92AEA2AFB2ACFE1D0E0D7014C
:10277000C6010C2E04C0B695A795979587950A9427
:10278000D2F780FD04C0219790F7B12C07C0BC2E72
:10279000B8018C2F0E94040C0197A9F38B2DDF91B7
:1027A000CF911F910F91FF90EF90DF90CF90BF904E
:1027B0000895CF93DF93EC010E949713BE010E940E
:1027C000040CDF91CF910895292F220F920F990FBA
:1027D000890F682F669566956695982F977085E0A6
:1027E000689FB001112440E050E080E0FB01E40F5D
:1027F000F51FEA58FD4F208130E0092E02C03695C2
:1028000027950A94E2F721703327042E01C0220F86
:102810000A94EAF7822B4F5F5F4F4530510531F73D
:102820000895292F220F920F990F890FE82FE6950F
:10283000E695E695877051E001C0550F8A95EAF755
:1028400085E0E89FF0011124EA58FD4F20E030E0D8
:1028500070E04081CB01022E02C0969587950A94C4
:10286000E2F78170819584278523842781932F5FE8
:102870003F4F2530310569F70895CF92DF92EF92EF
:10288000FF92CF93DF9300D000D0CDB7DEB70E9488
:102890004D0E6B017C0180912803882319F08091F3
:1028A000290302C080E090E080FF0FC0198282E01F
:1028B0008A83C701B6010E94FB128B838EEF8C8343
:1028C00064E0CE0101960E94A611C0922403D0922A
:1028D0002503E0922603F09227030E94E41F0F9045
:1028E0000F900F900F90DF91CF91FF90EF90DF90BE
:1028F000CF9008950F931F9341E050E060E070E0A7
:1029000004C0440F551F661F771F8A95D2F7409564
:102910005095609570958091240390912503A09126
:102920002603B09127038A019B01082319232A2338
:102930003B23C901B8011F910F910C943D142091C4
:10294000AD02809582238093AD02982F977079F421
:1029500030E0482F082E000C550B2417350739F0AE
:102960008595859585950E947A141092AD020895FB
:102970000F931F9341E050E060E070E004C0440F0B
:10298000551F661F771F8A95D2F780912403909177
:102990002503A0912603B09127038A019B01082BF0
:1029A000192B2A2B3B2BC901B8011F910F910C94B5
:1029B0003D146093B2027093B3028093B40290937B
:1029C000B5020C94E41F809175029091440289171E
:1029D00019F08F5F8770FBCF0895CF9380914302EA
:1029E00082958F7009F05FC080914002882309F4BE
:1029F0005AC080917502B091440270913E02A0913C
:102A00003F02409141025091420291E07F3F09F024
:102A100090E0692FC6E08B1709F445C041155105B8
:102A200021F0AF3F21F020E003C021E001C0262FBC
:102A300090E020FD35C0C89FF001C99FF00D112422
:102A4000EB5BFD4F21812A132BC02081271328C067
:102A50002281211125C0238134812417350710F4E8
:102A600021503109241B350B283C3105C8F4209135
:102A700043022F7020612093430226E0289FF0013B
:102A8000299FF00D1124E65BFD4F80818F708061DE
:102A900080838EE392E00E948603CF910C94E3142E
:102AA00001968770B8CFCF910895AF92BF92CF9221
:102AB000DF92EF92FF920F931F93CF93DF93CDB7E7
:102AC000DEB761970FB6F894DEBF0FBECDBF8C01A5
:102AD00085E0F801DE011D9601900D928A95E1F7DF
:102AE000D8013C9111962C9111971296EC9050912F
:102AF0003E0260913F028091410290914202009714
:102B000031F06F3F31F441E05F3F19F403C041E021
:102B100001C040E0B42FB170BB2E40FD43C1F801AD
:102B2000C380D480A0904002AA2009F4E2C0409162
:102B30004302C816D90628F0D601A81BB90BCD014F
:102B400004C0809590958C0D9D1DFF24F394883CC6
:102B5000910548F0F12C407F09F090C08EE392E09F
:102B60000E94860317C1842F807F09F052C0621330
:102B700012C0531310C0FE2CE1100DC04F70406105
:102B8000409343028EE392E00E94860380914302C9
:102B9000F801858354C1CD2831F02F3F31F481E015
:102BA0003F3F19F403C081E001C080E080FD03C015
:102BB00081E08E2502C080E090E0F82FF170FF2EBA
:102BC00080FF1CC0809175024091440256E084173A
:102BD00009F412C190E0589FF001599FF00D1124A3
:102BE000EB5BFD4F6181261306C06081361303C085
:102BF0006281E61203C001968770E9CFFE2CEE20B9
:102C000009F41DC180914302816080934302F12C3D
:102C100016C1621308C0531306C0E11004C08091AE
:102C20004302F80199C03D872E878D859E850E94BD
:102C3000BB1F882369F1EE2059F120914302822FB6
:102C400082958F7090E0029774F080913E0290918F
:102C50003F0298878F831986DB86CA862C87CE0130
:102C600007960E94860386E0F801AEE3B2E0019089
:102C70000D928A95E1F70E94ED140DC0621771F074
:102C80003D872E878D859E850E94BB1F81111AC0AE
:102C9000C8010E948603FF24F394D1C05313F0CFE0
:102CA000E110EECF80914302F8018583C8010E94B4
:102CB000860386E0EEE3F2E0DF011D928A95E9F7F4
:102CC000FA2CBDC0EE2021F320914302822F829581
:102CD0008F7090E002973CF280913E0290913F020B
:102CE0009A8389831B82DD82CC822E83CE0101965A
:102CF000B8CFC816D90638F0C81AD90AB8ECCB161E
:102D0000D10450F007C0809590958C0D9D1D883C96
:102D1000910510F0F12C3EC0FE2CEE2009F4B8CF46
:102D2000621327C0531325C02091430220FD18C011
:102D3000822F82958F70482F50E04115510581F008
:102D4000F80125834F30510541F08F5F982F929500
:102D5000907F822F8F70892B8583C8010E94860304
:102D600086E0F801AEE3B2E001900D928A95E1F7BA
:102D700066C03D872E878D859E850E94BB1F811171
:102D800072CF80914302816080934302C8010E9408
:102D9000860355C0EEE3F2E086E0DF011D928A95DE
:102DA000E9F74DC0EE2009F473CF3D872E878D855E
:102DB0009E850E94BB1FF82E882309F469CF86E008
:102DC000F801AEE3B2E001900D928A95E1F78091AF
:102DD0003E0290913F020E94D91392959F709630C7
:102DE00041F480913D0291E0892780933D029093C8
:102DF0003C020E94ED1423C03D872E878D859E8561
:102E00000E94D913292F22952F70223028F49F7009
:102E100039F0811105C00BC0243028F49F7049F4AB
:102E2000805E883020F0C8010E948603BF2CFB2CF6
:102E300006C0D80115969C91907F91F7F8CF8F2D01
:102E400061960FB6F894DEBF0FBECDBFDF91CF9174
:102E50001F910F91FF90EF90DF90CF90BF90AF90B8
:102E600008951F93CF93DF93CDB7DEB7AA970FB620
:102E7000F894DEBF0FBECDBFE1EEF2E08091F1002D
:102E8000819322E0E93EF207C9F78091E20289309E
:102E9000B9F150F4823009F4A5C0833009F45FC061
:102EA000813009F0EEC00CC08B3009F470C008F41A
:102EB00088C0823409F4AEC0853409F4C5C0E1C0CD
:102EC0008091E102813A09F0DCC08091E800877FBF
:102ED0008093E8008091E5029091E602892B21F42D
:102EE00060E28DEB92E003C060E080E090E070E093
:102EF0000E94D31C8091E8008B778093E800C1C0CA
:102F00008091E102813209F0BCC08091E50290918C
:102F1000E602029708F0B5C08091E800877F8093B1
:102F2000E8008091E80082FD05C08091DF028111F8
:102F3000F8CFA7C02091F3008091F20090E0922B8F
:102F4000029729F48091F1008B7F813021F48091E8
:102F5000F1008093BC028091E8008B7758C080918B
:102F6000E102813A09F08DC08091E5029091E6027C
:102F7000892B09F086C08091E800877F8093E80064
:102F80008091E80080FFFCCF809106013BC08091DA
:102F9000E102813209F075C08091E5029091E6026C
:102FA000892B09F06EC08091E800877F8093E8004C
:102FB0000E941E1C8091E302809306010E94F21F72
:102FC00060C08091E102813209F05BC08091E8002D
:102FD000877F8093E8000E941E1C8091E40280930A
:102FE000BB024FC08091E102813A09F04AC0809152
:102FF000E800877F8093E8008091E80080FFFCCFA5
:103000008091BB028093F1008091E8008E778093DD
:10301000E8002FC08091E102803C99F58091E502A3
:103020009091E602029741F58091E3029091E402CB
:10303000892B11F58091E800877F8093E8006BE190
:1030400070E088E395E013C08091E102803CC9F410
:103050008091E5029091E602079771F48091E80073
:10306000877F8093E80062EB70E086E894E00E943E
:10307000721C0E941E1C05C08091EB008062809330
:10308000EB008091E80083FFA4C18091E102909160
:10309000E202492F50E04A30510508F09AC1FA0186
:1030A000ED58FF4F0C943622803821F0823809F019
:1030B00090C108C08091DD029091DE02992389F0D1
:1030C00082600FC08091E5028F70873008F081C167
:1030D0008093E9008091EB0085FB882780F91092AE
:1030E000E9009091E800977F9093E8008093F100C9
:1030F0001092F10033C1282F2D7F09F06AC1882377
:1031000019F0823061F065C18091E302813009F0ED
:1031100060C1933009F080E08093DE022EC0809180
:10312000E30281112AC08091E5028F702FEF280FF2
:10313000263008F04EC18093E9002091EB0020FF7B
:103140001CC0933021F48091EB00806214C09091F8
:10315000EB0090619093EB0021E030E0A90102C008
:10316000440F551F8A95E2F74093EA001092EA0057
:103170008091EB0088608093EB001092E9008091D1
:10318000E800877FEEC0811124C11091E3021F7710
:103190008091E3008078812B8093E3008091E800A8
:1031A000877F8093E8000E941E1C8091E80080FFCA
:1031B000FCCF8091E30080688093E300111102C08E
:1031C00082E001C083E08093DF0203C18058823037
:1031D00008F0FFC08091E3029091E4028C3D53E03F
:1031E000950779F583E08A838AE289834FB7F8945B
:1031F000DE01139620E03EE051E2E32FF0E0509331
:103200005700E49120FF03C0E295EF703F5FEF703D
:103210008E2F90E0EA3010F0C79601C0C0968D93D3
:103220009D932F5F243149F74FBF8091E800877F3E
:103230008093E8006AE270E0CE0101960E94D31C00
:103240007BC04091E5025091E602292F33272330BD
:10325000310511F168F42130310509F4C9C022307B
:10326000310509F0B6C062E570E085E096E05DC02A
:103270002132310509F43BC02232310509F444C042
:103280002F30310509F0A5C0E7E9F6E0E4916E2F93
:1032900070E085E996E045C0992781309105B9F045
:1032A00070F082309105D9F0039709F092C0E9E6F9
:1032B000F6E0E4916E2F70E089E696E032C0E1E935
:1032C000F6E0E4916E2F70E081E996E02AC0E7E82D
:1032D000F6E0E4916E2F70E087E896E022C0EFE61A
:1032E000F6E0E4916E2F70E08FE696E01AC041158B
:1032F000510509F482C04130510509F06AC069E006
:1033000070E080E396E011C04115510509F47AC0E0
:103310004130510509F05DC061E770E084E595E05A
:1033200004C06115710509F454C02091E800277F9D
:103330002093E8000E94721C8091E8008B778093B4
:10334000E80047C0803809F044C08091E800877FDA
:103350008093E8008091E0028093F1008091E80082
:103360008E778093E8000E941E1C33C0811131C00B
:103370008091E3029091E4029927029754F580919D
:10338000E800877F8093E8001091E3021093E00249
:103390000E941E1C111106C08091E30087FD02C02F
:1033A00081E001C084E08093DF0242E061EC81E0D3
:1033B0000E943D1C42E261EC82E00E943D1C42E31F
:1033C00061EC83E00E943D1C42E360EC84E00E94DB
:1033D0003D1C8091E80083FF1AC08091E800877F40
:1033E0008093E8008091EB0080628093EB000FC037
:1033F00062E170E087E596E098CF69E070E087E1F0
:1034000096E093CF60E470E085EC95E08ECFAA96CD
:103410000FB6F894DEBF0FBECDBFDF91CF911F91E5
:1034200008951F920F920FB60F9211242F933F937E
:103430004F935F936F937F938F939F93AF93BF93BC
:10344000CF93DF93EF93FF93C091E900CF7080910A
:10345000EC00D82FD17080FDD0E81092E900809167
:10346000F000877F8093F00078940E9431171092CB
:10347000E9008091F00088608093F000CD2BCF7040
:10348000C093E900FF91EF91DF91CF91BF91AF9190
:103490009F918F917F916F915F914F913F912F916C
:1034A0000F900FBE0F901F901895E8EDF0E080810F
:1034B0008E7F80831092E2001092DA001092E10079
:1034C000A0EEB0E08C9181608C9380818F778083B7
:1034D00019BCA7EDB0E08C918E7F8C9380818F7E9C
:1034E00080831092BA020895CF92DF92EF92FF92FA
:1034F0000F931F93CF93DF93C8EDD0E088818F7E29
:103500008883E7EDF0E080818160808384E082BF82
:1035100081E08093BA0288818E7F888302EE10E07A
:10352000F80110821092DA0081EEC82ED12CF6013B
:10353000108288818F7788838881806888838881DA
:103540008F7D888319BC1092DF021092E0021092E6
:10355000DE021092DD0290EEE92EF12CF70180815F
:103560008B7F808388818160888342E060E080E097
:103570000E943D1CF60180818E7F8083F80180814E
:1035800081608083808188608083F70180818E7F65
:103590008083888180618883DF91CF911F910F9113
:1035A000FF90EF90DF90CF9008951F920F920FB68B
:1035B0000F9211242F933F934F935F936F937F93B9
:1035C0008F939F93AF93BF93EF93FF938091E1000D
:1035D00082FF09C08091E20082FF05C08091E10076
:1035E0008B7F8093E1008091DA0080FF2AC0809178
:1035F000D80080FF26C08091DA008E7F8093DA00A9
:103600008091D90080FF18C080E189BD82E189BD29
:1036100009B400FEFDCF81E08093DF028091BA0201
:1036200081110FC00E94551A0E94741A8091E20005
:1036300084608093E20005C019BC1092DF021092F2
:10364000BA028091E10080FF17C08091E20080FF04
:1036500013C08091E2008E7F8093E2008091E200AF
:1036600080618093E2008091D80080628093D800CE
:1036700019BC85E08093DF028091E10084FF34C0B3
:103680008091E20084FF30C080E189BD82E189BD84
:1036900009B400FEFDCF8091D8008F7D8093D800C3
:1036A0008091E1008F7E8093E1008091E2008F7E27
:1036B0008093E2008091E20081608093E20080913B
:1036C000E002882311F084E007C08091E30087FDC9
:1036D00002C081E001C083E08093DF020E94F21FFC
:1036E0000E94F20B0E94A80D8091E10083FF27C089
:1036F0008091E20083FF23C08091E100877F809367
:10370000E10082E08093DF021092E0028091E1000C
:103710008E7F8093E1008091E2008E7F8093E200B3
:103720008091E20080618093E20042E060E080E00E
:103730000E943D1C8091F00088608093F000FF9112
:10374000EF91BF91AF919F918F917F916F915F9119
:103750004F913F912F910F900FBE0F901F90189592
:103760002091E4003091E50095E64091EC00842F33
:10377000817040FF23C08091E80080FD1DC08091D2
:10378000DF02882399F0853099F08091EB0085FD68
:1037900011C04091E4005091E5002417350729F34A
:1037A000915011F09A01E1CF84E0089582E00895EC
:1037B00083E0089581E0089580E008954091E80055
:1037C00042FFDDCF0895EF92FF920F931F93CF93A7
:1037D000DF937C018B010E94B01B811119C0E701AE
:1037E00001151105A1F08091E80085FD0AC08091C6
:1037F000E8008E778093E8000E94B01B882381F355
:1038000007C089918093F10001501109E9CF80E050
:10381000DF91CF911F910F91FF90EF90089520912C
:10382000DF02243021F4BC0184E00C94731108956C
:10383000BC016058710983E00C9473118091E1021E
:1038400087FF11C08091E80082FD05C08091DF02F2
:103850008111F8CF11C08091E8008B770BC0809167
:10386000DF02882349F08091E80080FFF8CF809143
:10387000E8008E778093E8000895982F973068F5D8
:103880009093E900981739F07091EC002091ED00C9
:103890005091F00003C0242F762F50E021FD02C08C
:1038A0009F5FECCF3091EB003E7F3093EB00309187
:1038B000ED003D7F3093ED003091EB0031603093AF
:1038C000EB007093EC002093ED005093F0002091FA
:1038D000EE0027FDE5CF80E008958F708093E9002A
:1038E00081E008952091E7023091E802261737071A
:1038F00048F06115710539F42091E8002E77209386
:10390000E80001C0B901FC0120E06115710591F1E9
:103910008091DF02882309F440C0853009F43FC05C
:103920008091E80083FD3DC08091E80082FD2FC0BA
:103930008091E80080FFE9CF2091F3008091F200B0
:1039400090E0922B6115710559F08830910540F493
:1039500024912093F1003196615071090196F2CFC4
:1039600021E0089709F020E08091E8008E778093AD
:10397000E800CBCF2111CCCF0AC08091DF02882391
:1039800061F0853061F08091E80083FD0AC080918C
:10399000E80082FFF2CF80E0089582E0089583E09E
:1039A000089581E008952091E7023091E8022617FA
:1039B000370748F06115710539F42091E8002E773A
:1039C0002093E80001C0B901FC0120E061157105F8
:1039D00079F18091DF028823F1F18530F1F1809156
:1039E000E80083FD3CC08091E80082FD2EC08091FC
:1039F000E80080FFEBCF2091F3008091F20090E08F
:103A0000922B6115710551F08830910538F42191A0
:103A10002093F100615071090196F3CF21E00897DE
:103A200009F020E08091E8008E778093E800CECF07
:103A30002111CFCF0AC08091DF02882361F0853049
:103A400061F08091E80083FD0AC08091E80082FF68
:103A5000F2CF80E0089582E0089583E0089581E048
:103A60000895CF93DF93CDB7DEB7C955D1090FB60F
:103A7000F894DEBF0FBECDBF84B7877F84BF0FB67B
:103A8000F894A895809160008861809360001092FE
:103A900060000FBE90E080E80FB6F894809361005C
:103AA000909361000FBE85B7806885BF85B7806839
:103AB00085BF0E94551A0E94741A8091E2008460AA
:103AC0008093E20078948091DF028823A1F0109126
:103AD000E9001F709091EC00892F817090FD80E8C3
:103AE000182B1092E9008091E80083FD0E943117A5
:103AF0001F701093E90082E084BD93E095BD9AEFBA
:103B000097BD80936E000E94710E90E09093080123
:103B1000809307010E94580F0E94670FA3EFB2E045
:103B2000F4E1CF2EF3E0DF2EE6E0F3E011921D92F8
:103B300023E0E431F207D1F78EE090E00E943C22CE
:103B40008093E9029093EA02FC010E962BEF2193F9
:103B5000E817F907E1F780E090E00E94E8218F3E46
:103B60009E4F11F00E9487128CE090E00E94DA21B3
:103B700090E0A0E0B0E08093EB029093EC02A09381
:103B8000ED02B093EE0289EA8093800089E0809391
:103B9000810024982C983F988AB18F7C8AB96E98BE
:103BA000479A8BB180638BB9769A8FE090E00E9440
:103BB000E2216093EF027093F0028093F102909300
:103BC000F2026770FFEF6F9FB00111247595679542
:103BD0007595679577277093890060938800709337
:103BE0008B0060938A0070938D0060938C000E941C
:103BF000E80E80E090E00E94E8218F3E9E4F11F099
:103C00000E94871282E090E00E94DA2180931503DF
:103C10000E947612909302038093010383E090E068
:103C20000E94DA21682F70E080E090E00E94D914B1
:103C300089E091E09093040380930303EE24EA94D7
:103C40009EEFF92E23E0222E31E4A32EB12CAC0EF0
:103C5000BD1E82E0A80EB11C40E1342E52E1552E6B
:103C600068E1862E912C70E4472E8091DF0285302A
:103C700009F04AC08091DF02843021F110920503DF
:103C80000FB6F894A895809260000FBE4092600035
:103C900080E00E94A80D83B7817F846083BF83B7D3
:103CA000816083BF7894889583B78E7F83BF0FB67A
:103CB000F894A895809160008861809360001092CC
:103CC00060000FBE8091DE02882309F4CECF0E94EF
:103CD000710E90E090930801809307010E94580FA5
:103CE0000E94670FE6E0F3E0119223E0E431F2076F
:103CF000D9F70E940F10E6E0F3E0819181111CC119
:103D0000CE16DF06D1F7B1CF0E940F10E6E1F3E047
:103D1000A6E0B3E000E010E0302F2D9191919227C2
:103D2000A1F180E077247394492F472151F16196E6
:103D30008FAF619762963FAF6297272181E009F4C8
:103D400080E063968FAF63970E94E4118160782FC3
:103D500065969FAF8EAF659761964FAD61976296FE
:103D60005FAD629763966FAD639765968FAD65970C
:103D70000E94EB0AF801EA5EFC4F8081782670828F
:103D800029C08F5F770C863079F60F5F1F4F0E309A
:103D9000110509F0C1CF6696EFAE66976796EFAE54
:103DA000679768961FAE68970E94E4118160782F2C
:103DB0006A969FAF8EAF6A9766964FAD6697679685
:103DC0005FAD679768966FAD68976A968FAD6A9793
:103DD0000E94EB0A0E94F20B90911403891731F0B4
:103DE0000E94F20B809314030E94A80D8091DF02C1
:103DF000843009F03ACF8093E9008091E80082FF97
:103E000034CF8091E80085FF23C00E94B01B811150
:103E10001DC080E4682E712C8E010F5F1F4F09C0FA
:103E20008091F100F80181938F01F1E06F1A710820
:103E300069F08091E80085FDF3CF8091E8008B77F1
:103E40008093E8000E94B01B882399F391E001C0A1
:103E500090E08091E8008B778093E800992309F443
:103E600004CF1981111114C080912A03882351F1C4
:103E700010922A0381E08093290322961FAE229795
:103E800023961FAE23972496FFAE249763E06DC060
:103E90001130C1F422961FAE229723961FAF2397AD
:103EA0008CE0E0ECF1E0D50101900D928A95E1F70C
:103EB0006096FFAE60976FE0CE018F5B9F4F0E94D0
:103EC000A611D3CE80912903882391F1123019F0E5
:103ED000133091F045C060912403709125038091C7
:103EE0002603909127030E94FB1222961FAE229771
:103EF00023961FAF239714C08A81813039F040F098
:103F0000823071F581E08093280302C0109228036B
:103F100022961FAE229723962FAE239780912803D7
:103F200024968FAF24972596FFAE259764E01DC099
:103F30002296EFAE229718C039BC59BC09B400FED6
:103F4000FDCF8091D8008F7D8093D8008091E000D4
:103F500082608093E0008091E00081FDFCCF85CEFF
:103F600081E022968FAF229761E0CE018F5B9F4F59
:103F70000E94A6117ACE0E94D913292F2F70E92F03
:103F8000E295EF704E2F50E0FA013297EE30F105D6
:103F9000B8F4E358FF4F0C943622803F99F018F4A0
:103FA000883E70F40FC0843F59F40CC0883E50F036
:103FB000813F31F407C0822F8695869586950895B6
:103FC00080E0089581E008951092AF021092AE0251
:103FD0000E94511380E090E00E94DC0B80E090E0B2
:103FE0000C94C60B1092B00280910601882331F028
:103FF0008091010387FF02C08EE101C086E0EEE1FF
:10400000F2E0DF011D928A95E9F70C94E41F882302
:1040100041F080959091AF0289238093AF020C9478
:1040200051130895882339F09091AF02892B809322
:10403000AF020C9451130895882341F0809590911C
:10404000B00289238093B0020C9451130895882301
:1040500039F09091B002892B8093B0020C945113E7
:104060000895882309F458C0682F823869F40E94A3
:10407000F20B81FF51C069E38CE192E00E94411292
:104080000E94511369E30EC0833891F40E94F20B31
:1040900080FF42C063E58CE192E00E9441120E94E1
:1040A000511363E58CE192E00E9419120C945113B4
:1040B000843869F40E94F20B82FF2EC067E48CE121
:1040C00092E00E9441120E94511367E4EBCF8CEF03
:1040D000860F813A38F380E2860F883070F467707B
:1040E00081E090E001C0880F6A95EAF78095909191
:1040F000B00289238093B002D9CF8BE5860F83303D
:1041000020F480E090E00C94DC0B685A673120F4D6
:1041100080E090E00C94C60B0895882309F480C0D9
:10412000682F8238B1F40E94F20B81FD79C069E3F7
:104130008CE192E00E9441120E9451132FEF81EE18
:1041400094E0215080409040E1F700C0000069E316
:1041500017C08338D9F40E94F20B80FD61C063E57B
:104160008CE192E00E9441120E9451132FEF81EEE8
:1041700094E0215080409040E1F700C0000063E5EA
:104180008CE192E00E9419120C9451138438B1F41E
:104190000E94F20B82FD44C067E48CE192E00E9431
:1041A00041120E9451132FEF81EE94E02150804084
:1041B0009040E1F700C0000067E4E2CF8CEF860F8B
:1041C000813A28F48CE192E00E944112DDCF80E236
:1041D000860F883068F4677081E090E001C0880F36
:1041E0006A95EAF79091B002892B8093B002CCCF08
:1041F000EBE5E60FE33038F4F0E0E453FE4F808166
:1042000090E00C94DC0B685A673150F4E62FF0E034
:10421000EE0FFF1FE153FE4F808191810C94C60B7E
:104220000895CF93C82F0E948D20C93349F42FEFF2
:1042300087EE93E0215080409040E1F700C00000FD
:104240008C2FCF910C9431201092B9008CE0809388
:10425000B8000895EF92FF920F931F93CF93DF93CF
:10426000182FEB011092BC0084EA8093BC000E94DE
:10427000E4117C018091BC0087FD0EC0CF3F8FEF21
:10428000D807C1F30E94E4118E199F098C179D076E
:1042900088F38EEF9FEF2EC08091B900887F883021
:1042A00041F08091B900887F803119F08FEF9FEF46
:1042B00021C01093BB0084E88093BC000E94E411ED
:1042C0008C018091BC0087FD0CC0CF3F8FEFD807D9
:1042D000C1F30E94E411801B910B8C179D0788F39A
:1042E000D8CF8091B900887F883111F08034F1F601
:1042F00080E090E0DF91CF911F910F91FF90EF90C0
:1043000008950F931F93CF93DF93EB018093BB002E
:1043100084E88093BC000E94E4118C018091BC0071
:1043200087FD0EC0CF3F8FEFD807C1F30E94E41185
:10433000801B910B8C179D0788F38EEF9FEF0CC0AD
:104340002091B900287F81E090E0283211F480E0CC
:1043500090E0919581959109DF91CF911F910F91F7
:1043600008950F931F93CF93DF93EC0184E880931C
:10437000BC000E94E4118C018091BC0087FD0EC03E
:10438000CF3F8FEFD807C1F30E94E411801B910B40
:104390008C179D0788F38EEF9FEF03C08091BB00C1
:1043A00090E0DF91CF911F910F91089584E9809360
:1043B000BC000895F999FECF92BD81BDF89A992766
:1043C00080B50895A6E1B0E044E050E00C941422DA
:1043D000A8E1B0E042E050E00C941422262FF999B5
:1043E000FECF92BD81BDF89A019700B4021639F054
:1043F0001FBA20BD0FB6F894FA9AF99A0FBE089525
:104400000396272F0E94EF210E94EE21252F0E9464
:10441000EF21242F0C94EF210196272F0E94EF21EA
:104420000C94EE21DC01CB01FC01F999FECF06C012
:10443000F2BDE1BDF89A319600B40D924150504062
:10444000B8F70895AA1BBB1B51E107C0AA1FBB1FE9
:10445000A617B70710F0A61BB70B881F991F5A9510
:10446000A9F780959095BC01CD010895EE0FFF1F2F
:104470000590F491E02D09940F931F93CF93DF9350
:104480008230910510F482E090E0E0912D03F091EC
:104490002E0320E030E0A0E0B0E0309719F1408139
:1044A00051810281138148175907C8F08417950775
:1044B00069F4109731F012960C93129713961C938F
:1044C00027C000932D0310932E0322C02115310520
:1044D00019F04217530718F49A01BD01EF01DF01EB
:1044E000F801DBCF21153105F9F0281B390B2430F9
:1044F000310580F48A819B816115710521F0FB01F2
:104500009383828304C090932E0380932D03FE0136
:10451000329644C0FE01E20FF31F81939193225023
:104520003109398328833AC020912B0330912C0321
:10453000232B41F4209102013091030130932C038D
:1045400020932B03209100013091010121153105A9
:1045500041F42DB73EB74091040150910501241B51
:10456000350BE0912B03F0912C03E217F307A0F435
:104570002E1B3F0B2817390778F0AC014E5F5F4FB9
:104580002417350748F04E0F5F1F50932C034093BC
:104590002B038193919302C0E0E0F0E0CF01DF9123
:1045A000CF911F910F910895CF93DF93009709F456
:1045B00081C0FC01329713821282A0912D03B09129
:1045C0002E03109781F420813181820F931F209157
:1045D0002B0330912C032817390751F5F0932C0346
:1045E000E0932B0367C0ED0120E030E0CE17DF073A
:1045F00040F44A815B819E0141155105F1F0EA01C9
:10460000F5CFD383C28340815181840F951FC81792
:10461000D90759F488819981840F951F0296918357
:1046200080838A819B81938382832115310529F4BC
:10463000F0932E03E0932D033DC0E901FB83EA8351
:1046400049915991C40FD51FEC17FD0761F4808182
:104650009181840F951F0296E90199838883828155
:1046600093819B838A83E0E0F0E012968D919C9188
:104670001397009719F0FD01DC01F7CF8D919C9104
:1046800011979D012E5F3F4F820F931F20912B03A7
:1046900030912C032817390769F4309729F41092C8
:1046A0002E0310922D0302C013821282B0932C03AA
:0E46B000A0932B03DF91CF910895F894FFCFD4
:1046BE0000002F0320000120002B112E112A1118AB
:1046CE001C0F1C3031393800000D010D020D030D89
:1046DE00040D050D000C010C020C030C040C050C52
:1046EE00000B010B020B030B040B050B000A010A56
:1046FE00020A030A040A050A00090109020903094C
:10470E000409050900080108020803080408050841
:10471E000007010702070307040705070006010645
:10472E00020603060406050600050105020503053B
:10473E000405050500040104020403040404050431
:10474E000003010302030303040305030002010235
:10475E00020203020402050200010101020103012B
:10476E000401050100000100020003000400050021
:10477E003977476A372F475747626A00818283E24B
:10478E0000E900EA00B500B600B700CD008301CC09
:10479E00008A01920194012102230224022502269D
:0E47AE000227022A02B300B4006F0070000060
:00000001FF
