:100000000C94F5020C9412030C9412030C9412033A
:100010000C9412030C9412030C9412030C9412030C
:100020000C9412030C9412030C94B3190C94EF1853
:100030000C94BA100C9412030C9412030C94120337
:100040000C9412030C9412030C9412030C941203DC
:100050000C9412030C9488100C9412030C94120349
:100060000C9412030C9412030C9412030C941203BC
:100070000C9412030C9412030C9412030C941203AC
:100080000C9412030C9412030C9412030C9412039C
:100090000C9412030C9412030C9412030C9412038C
:1000A0000C9412030C9412030C9412038806880615
:1000B000C206C20613071609B60816092F070D084F
:1000C0001E081E08CF09D209D509D809DB09DE09A7
:1000D000E10932175917C7185917C718A117C417BC
:1000E000C71880189418BB1EBB1ECE1ECE1EC41E81
:1000F000CE1ECE1ECE1EBB1EBB1EC91ECE1ECE1ECB
:10010000C91E29002B003962E000640000001E00B7
:10011000140004001D00E20001581F001A00160020
:100120001B00E3004C002000080007000600500000
:100130002A0021001500090019004F0028002200A4
:1001400017000A00050000004A00025832000000B3
:10015000650000004D00025830000000015800000A
:100160004A0023001C000B00110000004D00240079
:1001700018000D00100052004B0025000C000E006E
:10018000360051002C00260012000F003700E3005B
:1001900028002700130033003800E6004E00490015
:1001A0002F003972E400340000000100010001005A
:1001B0000100350000003A002414640025140100F9
:1001C00001003B00201464023800010001003C00E3
:1001D000211422002214010001003D002E142D00E4
:1001E0002D14010001003E0023142E0034020000F3
:1001F00001000100010000002714000001000100BF
:10020000010000000814000001003F0056005700E4
:1002100037000000010040005F005C005900010051
:100220000100410060005D005A0001000100420031
:1002300061005E005B006200010043005500540055
:100240003402630001004400450001000100010088
:10025000000001000100010001001C010000A800D5
:100260004B004E001A0101000100AA004A00500094
:100270001B0101000100A90052005100060101000C
:100280000100BE004D004F00190101000100BD003A
:100290002903160A1601000001000100085D000094
:1002A000095D000001000100B3000000B200000081
:1002B000010046002903160A010000000100AC00FD
:1002C0004A005000010001000100AE005200510040
:1002D000010001000100AD004D004F0001000100D0
:1002E0000100AB004B004E000100010001000100C5
:1002F00001000100010001000000010001000100F7
:1003000001000100000001000100010001000100E6
:1003100001000100010001000100010001000100D5
:1003200001000100010001000100010001000100C5
:1003300001000100010001000100010001000000B6
:1003400001000100010000000100000001000100A7
:100350000100000001000000010001000100010097
:100360000100000001000100010001000100010086
:100370000100010001000100010001000100010075
:100380000100010001000100010001000100010065
:100390000100010001000100010001000100010055
:1003A00000000A00000000000306B200080001007F
:1003B0000000A800080002000200A00014000300D2
:1003C00057494E5553420000000000000000000055
:1003D0008400040007002A004400650076006900DC
:1003E0006300650049006E007400650072006600DD
:1003F0006100630065004700550049004400730038
:10040000000050007B0039004400420037004600E5
:100410003100460044002D00370045003700410000
:100420002D0034003000300038002D00390033003A
:10043000360042002D0036004200410036004300E5
:1004400031003900410033003000380063007D0086
:10045000000000001B0301636F6E666967757265BB
:100460002E6572676F646F782D657A2E636F6D00ED
:1004700005010980A10185031A81002A8300160164
:1004800000260300950175108100C0050C0901A12B
:100490000185041A01002A9C02160100269C02957F
:1004A0000175108100C005010906A1018505050738
:1004B00019E029E715002501950875018102050756
:1004C000190029EF1500250195F075018102050835
:1004D0001901290595057501910295017503910191
:1004E000C005010906A101050719E029E715002546
:1004F00001950875018102950175088101050719AB
:100500000029FF150026FF009506750881000508E3
:100510001901290595057501910295017503910150
:10052000C009025200030100A0FA090400000103FF
:10053000010100092111010001224000070581038A
:1005400008000A090401000103000000092111014B
:1005500000012271000705820320000A090402003D
:1005600002FF0000000705830340000507050403A0
:100570004000051201100200000008EDFE07130103
:10058000000102030104033000000016034500725D
:100590000067006F0064006F007800200045005A7B
:1005A00000000008035A0053004100000004030942
:1005B00004050F3900021C100500DF60DDD88945F5
:1005C000C74C9CD2659D9E648A9F00000306B200C2
:1005D00045001810050038B60834A909A0478BFD5E
:1005E000A0768815B6650001420011241FBECFEF2A
:1005F000DAE0DEBFCDBF11E0A0E0B1E0EAE9F4E46B
:1006000002C005900D92A83FB107D9F723E0A8EFEB
:10061000B1E001C01D92A932B207E1F70E940F1CA0
:100620000C944B220C9400004F925F926F927F9239
:100630009F92AF92BF92CF92DF92EF92FF920F9371
:100640001F93CF93DF93CDB7DEB72A970FB6F894F9
:10065000DEBF0FBECDBFFC010081F180838194819C
:10066000892B39F01FEFF11206C091E00F3F19F40A
:1006700003C091E001C090E090FDFAC56F0185E0F4
:10068000DE01119601900D928A95E1F7F601228123
:1006900089819A81222349F00E946112182F682FC4
:1006A00089819A810E94DB1203C00E94AE12182F2A
:1006B00024E5129FF001112436E0F39EE00DF11DB8
:1006C0001124E00FF11DEE0FFF1FEE5FFE4F0591AD
:1006D000149180912203882319F08091230302C092
:1006E00080E090E080FF15C01E82F60182818823A1
:1006F00011F081E101C082E18F83F601808188875A
:10070000818189878EEF8A8765E0CE0106960E94F7
:1007100070100930FDE51F0709F040C0F601828125
:100720008823E1F19091E90281E0890F8770987F39
:10073000853020F4892B8093E90202C09093E9026E
:100740008091E9028770FFEF8F9FC001112495957A
:100750008795959587959927909389008093880030
:1007600090938B0080938A0090938D0080938C00EF
:100770004091E9025091EA026091EB027091EC0223
:100780008FE090E00E94EE2060911E0370911F03A5
:1007900080912003909121030E94F90CF60182813F
:1007A000882319F1033EFCE51F07C1F050F4013E18
:1007B0003CE5130781F0023E8CE51807B1F481E0B7
:1007C00010C0043E9CE5190759F0053EECE51E07F4
:1007D00061F484E006C01092E50205C082E001C029
:1007E00083E08093E5020E94470B17FF71C0F6017A
:1007F0008281882309F46CC08091AA028093F80159
:100800001092AA028091E502813071F048F08230A6
:10081000C1F08430E1F486EE0E94FF1F88E115C02C
:1008200082EE0E947B1F13C083E00E94001F88E1BC
:100830000E947B1F88E10E941F1F83E00E94F51E1B
:1008400006C082EE0E947B1F87E50E94FF1F8FE398
:100850009CE90197F1F700C000005801E894B7F84F
:100860002CE0E22EF12CC5010E2C02C09695879546
:100870000A94E2F7282F2F7041F0822F90E02A305F
:1008800010F44D9604C0069702C087E290E00E94E3
:10089000FF1F94E0E91AF108ECEFEE16EFEFFE0609
:1008A00011F78091E502813039F040F0823031F06B
:1008B000843051F488E206C08CE204C082EE0E94CB
:1008C0001F1F02C00E94FF1F8091F8018093AA029F
:1008D000033FFCE51F0729F180F4083D3CE51307C1
:1008E000C9F0093D8CE5180741F1073D9CE5190762
:1008F00039F526E241EE61EE10C0053FECE51E073A
:10090000C1F098F0063F2CE51207D1F427E245EE3E
:1009100066EE03C027E245EE65EEC6010E94180EA2
:10092000A7C426E241EE60EEF8CF27E245EE64EE82
:10093000F4CF26E241EE62EEF0CF28E241E0ECCFC8
:10094000F6018281882309F439C11092F90102303D
:10095000FCE51F0708F41CC106312CE5120738F02E
:1009600098012A5F3C452730310508F011C10E94EB
:1009700040119093FC028093FB020F303CE513077B
:1009800009F4CFC008F042C008309CE5190709F40B
:10099000A8C0F0F40430FCE51F0709F490C068F427
:1009A00002303CE5130709F486C003301C4509F00A
:1009B000DFC08091FB028260D9C006309CE5190738
:1009C00009F487C008F089C08091FB028860CEC01E
:1009D0000B30FCE51F0709F495C068F409303CE5CD
:1009E000130709F482C00A301C4509F0C1C0809188
:1009F000FB02886080C00D309CE5190709F486C0B1
:100A000008F087C08091FB028D7FB0C00A3FFCE5F3
:100A10001F0709F457C050F502313CE5130709F4EC
:100A200088C068F400319CE5190709F47EC00131E3
:100A30001C4509F09DC08091FB028F7B97C004315B
:100A4000FCE51F0709F487C008F479C005311C458F
:100A500009F08EC08091FB0282FB222720F991E0F1
:100A6000922790FB82F990FB83F980C00D3F8CE5C3
:100A7000180709F452C058F40B3FECE51E0729F1A2
:100A80000C3F1C4509F074C08091FC0260C00F3F10
:100A90002CE5120709F458C080F101151D4509F035
:100AA00067C08091FC02982F909591708E7F892B62
:100AB00090FB81F94DC08091FB02816057C080910D
:100AC000FB0219C08091FC021BC08091FC02826075
:100AD0003FC08091FB02806149C08091FB0280622F
:100AE00045C08091FB02806441C00E94E01E80915D
:100AF000FB0280683BC0846039C08091FC02826048
:100B0000816026C08091FB028E7F30C08091FB0205
:100B100019C08091FB02877F29C08091FC028D7FE4
:100B200017C08091FB028F7E21C08091FB028F7DD8
:100B30001DC00E94E01E8091FB028F7717C080913C
:100B4000FB02877F8B7F12C08091FC028D7F8E7F9E
:100B50008093FC020DC00E94E01E8091FB0287FB87
:100B6000222720F991E0922790FB87F98093FB02DE
:100B70006091FB021091FC0284E090E00E94DC2076
:100B8000612F81E290E00E94DC200E94E01E70C391
:100B90000631FCE51F0719F58091AA028A7A91E0D7
:100BA00009F490E09093FA01882311F065E301C005
:100BB00069E286E192E00E940B110EC006311C45ED
:100BC00009F062C08091FA01882309F44FC365E3FC
:100BD00086E192E00E94E3100E941B1249C30E3D81
:100BE0009CE5190709F446C00830EDE51E0709F435
:100BF00044C001151C4509F047C00E94E01E0FEFDC
:100C000014E32CE0015010402040E1F700C0000048
:100C1000F89481E08093E00080E28093D800109205
:100C2000C9008FE19EE40197F1F700C000001DBAF2
:100C3000109268001CBC10BE1FBA10927A0010926D
:100C40006E0010926F00109271001092720010925C
:100C5000C9001092BC0014B817B81AB81DB810BA61
:100C60001092BC0015B818B81BB81EB811BA0C9475
:100C7000003FFEC20E945111FBC29091240381E00B
:100C8000892780932403F4C2F6010081118188230F
:100C900049F0C8010E946112F82E682FC8010E9415
:100CA000DB1204C0C8010E94AE12F82EB8018F2DCD
:100CB0000E944D0B8C01B82EF601E580E2949FE076
:100CC000E922F280F1101092A9028091A7028770A8
:100CD00079F0FF2069F080E2800F883048F082E0F0
:100CE0000E9469138091A7028770AA24A39481119E
:100CF000A12C912E92948FE09822892D90E08C3037
:100D0000910508F093C2FC01EA5AFF4F0C9424218C
:100D1000812F807F1F70882311F01295107FFF2094
:100D2000B9F0112309F40CC280E2800F883010F072
:100D3000B11006C08091AA02182B1093AA0205C018
:100D40008091A902182B1093A9020E941B12F8C1CE
:100D5000802F0E941F1F112309F468C2005E1095A6
:100D6000083010F0B11006C08091AA021823109329
:100D7000AA0205C08091A90218231093A9020E941B
:100D80001B1254C2812F807F1F70803211F0129588
:100D9000107FBB2021F0F1E0BF16E1F028C0FF205A
:100DA00081F08091AB02EE2051F001E0E01207C02B
:100DB000182B181709F43AC21093AB0237C2812BD3
:100DC00010C0EE2021F021E0E21609F42FC20E94AB
:100DD000151225C0FF2041F031E03E1508F426C26F
:100DE000812F0E94151F22C2E11020C218C0FF20CF
:100DF00049F0EE20A9F3F601858180FFA1C18F7033
:100E00008583EECFEE2059F0093309F0ABC1FFEF37
:100E100017EE23E0F15010402040E1F7A1C1812FEF
:100E20000E940A1F03C2812F86958695837019F050
:100E3000813059F0FBC1FF2019F0C801937002C046
:100E400080E090E00E94250BF9C1FF2019F0C80155
:100E5000937002C080E090E00E940F0BEFC1812FE1
:100E6000837009F069C0F110E5C1902F92959695B5
:100E70009770990F990F802F8F70482E512C612CED
:100E8000712C092E04C0440C551C661C771C0A9456
:100E9000D2F704FF12C04FE050E060E070E004C001
:100EA000440F551F661F771F9A95D2F7DB01CA01C1
:100EB00080959095A095B09503C080E090E0DC010E
:100EC00016951695412F4370423019F1C8F40091E0
:100ED000AC021091AD022091AE023091AF024130D0
:100EE00059F084299529A629B729BC01CD01602391
:100EF0007123822393230AC0402A512A622A732A2B
:100F0000BC01CD0164297529862997290E94A31364
:100F100091C184299529A629B7290091AC02109185
:100F2000AD022091AE023091AF02BC01CD0160272D
:100F3000712782279327EACFFF2019F0812F817034
:100F400001C08695882309F475C1902F92959695D6
:100F50009770990F990F802F8F70482E512C612C0C
:100F6000712C092E04C0440C551C661C771C0A9475
:100F7000D2F704FF12C04FE050E060E070E004C020
:100F8000440F551F661F771F9A95D2F7DB01CA01E0
:100F900080959095A095B09503C080E090E0DC012D
:100FA00016951695412F43704230D9F068F500919F
:100FB0001E0310911F032091200330912103413023
:100FC00059F084299529A629B729BC01CD016023B0
:100FD0007123822393231EC0402A512A622A732A36
:100FE00013C084299529A629B72900911E031091C1
:100FF0001F032091200330912103BC01CD01602704
:1010000071278227932706C0BC01CD016429752969
:10101000862997290E9407130DC11F70FF2039F000
:10102000812F0E948213802F0E94151F03C1802FE1
:101030000E940A1F812F0E944413FCC0802F32EFB0
:10104000B31609F43EC03B1538F090EFB91661F0C5
:10105000E1EFBE1689F16FC0F3EFBF16C9F124EFBF
:10106000B21609F44CC067C0FF2009F1E110DEC0E0
:101070001F7181E090E0A0E0B0E0AC01BD0104C0D0
:10108000440F551F661F771F1A95D2F780911E03D4
:1010900090911F03A0912003B09121038A019B012D
:1010A000082719272A273B27C901B80125C021E0B5
:1010B0002E1508F4BBC0DCCFFF2029F0812F8F71E3
:1010C0002CC0FF20D9F3812F8F710E944413AEC032
:1010D000FF2079F01F7181E090E0A0E0B0E0BC015A
:1010E000CD0104C0660F771F881F991F1A95D2F78C
:1010F00003C060E070E0CB010E94071397C0FF209F
:1011000079F01F71812F0E94821338E0139FC00174
:10111000112483608093A702812F0E94821386C0CE
:1011200081E00E94691381E08E1508F07FC082E0A3
:101130000E9469137BC0FF2039F0EE2009F4BECF76
:10114000802F0E947B1F72C0EE2009F4BCCF893330
:1011500049F49FEFE7EEF3E09150E040F040E1F713
:1011600000C00000802F0E941F1F60C012EFB11648
:10117000E1F01B1538F020EFB21669F031EFB3162D
:1011800011F12BC084EFB816C9F0B81660F095EFD6
:10119000B91671F022C0FF2009F450C090913702B7
:1011A00081E0892708C081E0F826F092370246C026
:1011B000F11044C081E08093370240C0F1103EC07E
:1011C000109237023BC0FF2029F08091360288231D
:1011D00029F329C0EE2011F331C080913602EE20B0
:1011E000C1F0882341F09091370281E089278093F4
:1011F000370210923602802FFF2019F00E947B1FC9
:101200001DC00E941F1F86E0F60111928A95E9F722
:1012100015C0882399F0F11011C09091370281E038
:101220008927809337021092360208C088EF890D13
:10123000843020F40E943B0B0E94F10CAA20C1F0E4
:101240008091A70280FD14C0F601128285958595D4
:1012500085950E948213C6010E9414038091A70203
:101260008595859585950E94441302C069E2B0CCAE
:101270002A960FB6F894DEBF0FBECDBFDF91CF9197
:101280001F910F91FF90EF90DF90CF90BF90AF90A4
:101290009F907F906F905F904F9008959091FB0288
:1012A00092FF0DC0282F2871283019F4877F8460A1
:1012B00006C0282F2471243011F48B7F886093FF9F
:1012C0000DC0282F2871283119F4877E846106C04B
:1012D000282F2471243111F48B7E88612091FC0227
:1012E00020FF0DC0382F3871383019F4877F8160A6
:1012F00006C0382F3171313011F48E7F886021FFA4
:101300000DC0282F2871283119F4877E816106C00D
:10131000282F2171213111F48E7E886194FD877E02
:101320000895CF93E82F873080F580910701909141
:101330000801892B09F047C0CE2F64E670E080E4F5
:101340000E9418209093080180930701892BD1F403
:1013500064E670E082E10E946F2090930801809320
:101360000701892B79F481E090E001C0880FCA95CC
:10137000EAF764E670E080950E946F209093080180
:1013800080930701CF910C94C42090E0FC01379723
:10139000E730F105C0F4EE59FF4F0C942421209A58
:1013A000289811C0219A29980EC0229A2A980BC019
:1013B000239A2B9808C0529A5A9805C0539A5B9862
:1013C00002C03E9A4698CF910895CF93873008F097
:1013D0003FC08091070190910801892B09F041C01D
:1013E00064E670E080E40E941820909308018093E6
:1013F0000701892B11F0C0E027C064E670E083E1AB
:101400000E946F209093080180930701892B99F720
:1014100064E670E081E40E941820909308018093B4
:101420000701892B41F784E690E00E949F2097FFF7
:1014300005C09093080180930701DDCFC82FC095A8
:1014400010920801109207010E94C4208C2F0AC03C
:101450009FB18FB1807F869586959370892B8095FB
:1014600001C080E0CF9108950F931F93CF93DF9336
:10147000CDB7DEB767970FB6F894DEBF0FBECDBF0E
:101480004B8B5C8B6D8B7E8B8F8B0E891F8901152F
:10149000110531F05F3F31F481E04F3F19F403C093
:1014A00081E001C080E080FD32C0242F30E0A1E067
:1014B000B0E0042E01C0AA0F0A94EAF7852F90E04D
:1014C000662319F07091370205C0FC01E85FFD4FFB
:1014D00070817A237723A1F046E0489FF001499F6D
:1014E000F00D1124E20FF31FEE0FFF1FED5EFE4F14
:1014F00040815181FC01E85FFD4F9081A92B06C01E
:10150000FC01E85FFD4FA0958081A823A08386E0C1
:10151000FE013D96DF01982F1D929A95E9F74D87C0
:101520005E876F87198B088BDE01179601900D92ED
:101530008A95E1F7CE0107960E941F1481113EC0E3
:1015400086E0FE013796DE01119601900D928A9594
:10155000E1F7FF81E8856A857B856115710531F0CA
:10156000EF3F31F481E0FF3F19F403C081E001C097
:1015700080E080FD23C020913E0230E0C901019649
:101580008770992740916F0250E08417950779F191
:10159000F983EA837D836C8396E0929FD001939FC9
:1015A000B00D1124A15CBD4FFE01319601900D924A
:1015B0009A95E1F780933E020E94AD1316E0809168
:1015C0006F0290913E028917F9F0189FC001112413
:1015D000815C9D4F0E941F148823B1F080916F029F
:1015E00090E001968770992780936F02E8CF0E9460
:1015F000E01E10923E0210926F02E8E3F2E086E0F5
:10160000DF011D928A95E9F767960FB6F894DEBF61
:101610000FBECDBFDF91CF911F910F910895209103
:101620000602309107022817390771F090930702DC
:1016300080930602E091FD02F091FE02309721F0C6
:101640000084F185E02D09940895209104023091E1
:1016500005022817390771F0909305028093040260
:10166000E091FD02F091FE02309721F00680F781B3
:10167000E02D09940895E091FD02F091FE0230976B
:1016800021F00190F081E02D099480E008956091AF
:10169000E5028CE090E00C94DC20CF93DF9324E50E
:1016A000829FC0011124FC0146E0749FE00DF11DF2
:1016B0001124E60FF11DEE0FFF1FEE5FFE4FC591E7
:1016C000D491CE01C238D10569F1B0F4C133D1054E
:1016D00009F475C048F4C932D10509F469C0CA32A9
:1016E000D10509F473C085C0C533D10509F459C0CB
:1016F000C933D105B9F07DC0C33ED10571F138F4CD
:10170000C03ED105B1F0C23ED10511F172C0C63E56
:10171000D105B9F1C73ED105C9F1C43ED10509F0E3
:1017200068C024C02091FB0220FD5DC021FD5BC08C
:1017300060C02091FB0220FD50C02091FC0220FFE0
:101740004DC18091FB0284FD47C183EE90E046C10C
:101750002091FB0222FF42C1F4CF8091FB0282FD67
:101760003FC08091FC0280FD3EC0EBCF2091FC0287
:1017700021FF34C18091FB0284FD2EC187EE90E0F1
:101780002DC12091FB0223FF29C1F4CF8091FB02E0
:1017900083FD2CC08091FC0281FFECCF84EE90E0B1
:1017A0001DC12091FB0225FF19C189E290E016C1FD
:1017B0002091FB0225FF12C185E390E00FC120912B
:1017C000FB0226FF0BC18AE290E008C12091FB02D8
:1017D00026FF04C181E390E001C189E390E0FEC0EF
:1017E00082EE90E0FBC080EE90E0F8C086EE90E0E4
:1017F000F5C0C11552E5D50708F06BC0C11521E54C
:10180000D20728F09C2F8827816F906AE7C0C83ED6
:10181000D10570F5C03ED10508F0E0C0C83AD10549
:10182000B8F4C53AD10550F08C2F855AC82FD0E0B6
:10183000C953DE4F888190E09064D0C0C130D1059B
:1018400009F4CCC008F4C8C0249708F4C5C0C6C0C9
:10185000CF3BD10508F0C0C08C2F885AC82FD0E0EC
:10186000CC0FDD1FC653DE4F888199819464B6C0CA
:10187000C11540E5D407F0F0CE01F4E096958795C8
:10188000FA95E1F7282F23703C2F337081E090E028
:1018900002C0880F991F3A95E2F79C68922B2C2F73
:1018A0002F702695269550E2259F90011124822BBA
:1018B000932B94C0C11550E4D50720F0CE019F7042
:1018C000906A8CC09E013A9521153F4108F486C06C
:1018D00083C0C11556E5D50708F03FC0C11585E5A1
:1018E000D80748F08C2F0E944E098F7190E0982FF6
:1018F0008827906273C0C11524E5D20728F09C2F79
:101900008827846F906A6AC09E01237033279C2FBA
:1019100096959695C115D34580F441E050E002C0FC
:10192000440F551F2A95E2F780E2989F90011124F9
:10193000CA01822B932B9C6851C041E050E002C049
:10194000440F551F2A95E2F780E2989F90011124D9
:10195000CA01822B932B9A6841C0C1155AE5D5075D
:1019600078F5C11589E5D80710F18C2F8F700E948A
:101970004E099E0194E0369527959A95E1F72F70D0
:1019800030E0322F22273069A901482B0EC0905633
:101990008115904208F58D2F8F710E944E099E018E
:1019A000332730628F71A901582BCA0117C0C115A6
:1019B00028E5D20788F09C2F8827806F906A0EC098
:1019C000C1154BE5D40740F0CE01C1155CE5D50744
:1019D000F0F69927906602C080E090E0DF91CF9109
:1019E000089581FF03C0279A2F9A089527982F986A
:1019F0000895CF92DF92EF92FF926B017C010E94DB
:101A0000C51156985E9825982D9826982E98823064
:101A100049F0833029F0813039F4259A2D9A04C099
:101A2000259A2D9A269A2E9AC701B601FF90EF901B
:101A3000DF90CF90089580E290E09093080180932A
:101A400007018091010281110EC00E94122081E0E5
:101A5000809301022FEF83ED90E32150804090406E
:101A6000E1F700C0000064E670E080E40E94182006
:101A70009093080180930701892B09F04EC064E61A
:101A800070E080E00E946F2090930801809307012E
:101A9000892B09F042C064E670E080E00E946F206C
:101AA0009093080180930701892BB9F564E670E0F3
:101AB0008FE30E946F209093080180930701892B88
:101AC00061F50E94C42064E670E080E40E94182062
:101AD0009093080180930701892BF9F464E670E084
:101AE0008CE00E946F209093080180930701892B5E
:101AF000A1F464E670E080E00E946F2090930801FA
:101B000080930701892B49F464E670E08FE30E941B
:101B10006F2090930801809307010E94C420809158
:101B200007010895CF93DF9356985E9825982D98D6
:101B300026982E9827982F98C8E8D0E08FEF90E04D
:101B400099838883AAE8B0E011969C938E93ECE881
:101B5000F0E091838083259A2D9A2FEF80E792E021
:101B6000215080409040E1F700C00000269A2E9A54
:101B70002FEF80E792E0215080409040E1F700C0D5
:101B80000000279A2F9A2FEF80E792E021508040A3
:101B90009040E1F700C0000025982D982FEF80E7D6
:101BA00092E0215080409040E1F700C0000026986C
:101BB0002E982FEF80E792E0215080409040E1F78F
:101BC00000C0000027982F988091E90287702FEFBE
:101BD000829FC001112495958795959587959927A2
:101BE0009983888311969C938E93918380835698D2
:101BF0005E9825982D9826982E9827982F98DF91F3
:101C0000CF91089584B1807F84B985B1807F85B9F3
:101C10008AB1837F8AB98BB1837F8BB93E9846980E
:101C2000089580B38C7080BB81B3836F81BB0895AE
:101C3000CF92DF92EF92FF920F931F93CF93DF9398
:101C4000C62F142F022FFC0182818823E9F06093B4
:101C5000F9010E94AE10909303028093020280E289
:101C60008C0F883008F07CC0C77081E001C0880FFD
:101C7000CA95EAF7DF91CF911F910F91FF90EF90F6
:101C8000DF90CF900C94151F8091F901681349C023
:101C900020910202309103024FB7F8948091B00274
:101CA0009091B102A091B202B091B3024FBF6C010A
:101CB0007D01EE24FF24A90160E070E0821B930BFC
:101CC000C416D506E606F70608F40197883C910588
:101CD00040F5D0E2D10FC117B9F080E28C0F883007
:101CE00040F4C77081E001C0880FCA95EAF70E94EE
:101CF0000A1FD83050F581E0912F977001C0880FEE
:101D00009A95EAF70E94151F802F0E94FF1FD83076
:101D100038F5412F477081E001C0880F4A95EAF7F6
:101D20000AC080E28C0F8830D8F4C77081E001C00F
:101D3000880FCA95EAF7DF91CF911F910F91FF901D
:101D4000EF90DF90CF900C940A1F802FDF91CF91FE
:101D50001F910F91FF90EF90DF90CF900C94FF1F99
:101D6000DF91CF911F910F91FF90EF90DF90CF9077
:101D70000895BF92CF92DF92EF92FF920F931F933D
:101D8000CF93DF938091070190910801892B91F007
:101D9000809100028F5F8093000281110BC00E942E
:101DA0001B0D90E09093080180930701892B11F49B
:101DB0000E94920D9DEEE92E92E0F92E8701C0E07F
:101DC000B12C87E0C82ECC0E8C2F0E9491098C2D4F
:101DD0000E9491098C2F0E94E509F80190818917D2
:101DE00021F08083DD24D39401C0D12C8C2D0E945E
:101DF000E509F8019781891719F0878381E001C00F
:101E000080E0D82ABD280E94020ECF5F0F5F1F4FCF
:101E1000C730B9F60E94AE106AEF70E00E94102140
:101E20009C01682F8091FC018823E9F11092FC014C
:101E3000E091E302F091E402DF011E9690E07BEF77
:101E40000AEF10E080818B3FA9F0482F50E068171F
:101E500028F06901C41AD50AA60106C0E801C41B0E
:101E6000D50BAE01420F531F4E31510514F0708354
:101E700001C091E03196EA17FB0721F79093FC012E
:101E8000B11002C0911111C01092FB01E091E30268
:101E9000F091E4029091FC01A0E0B3E0AF01425F59
:101EA0005F4F80E00FC0B110EFCF8091FB01811137
:101EB000EBCF209124038091FE019091FF0121112D
:101EC00019C057C0E70129917E013C91321741F0BA
:101ED00030813B3F21F460832C9391E001C081E08D
:101EE00031961196E417F50769F79093FC018093FA
:101EF000FB01DFCF892B31F425982D9826982E9859
:101F000027982F988091FE019091FF019170892B65
:101F100079F48091FD01882319F026982E9802C04B
:101F2000269A2E9A9091FD0181E089278093FD01E8
:101F30008091FE019091FF018130984780F01092CE
:101F4000240360911E0370911F03809120039091E0
:101F500021030E94F90C1092FF011092FE01809162
:101F6000FE019091FF0101969093FF018093FE0185
:101F700010C0892B71F01092FF011092FE01609148
:101F80001E0370911F0380912003909121030E94F2
:101F9000F90C8B2DDF91CF911F910F91FF90EF9056
:101FA000DF90CF90BF90089508958091B602089574
:101FB00020916F0290913E0256E02917A9F030E07F
:101FC000529FF001539FF00D1124E15CFD4F718190
:101FD000761306C07081781303C07281741306C033
:101FE0002F5F3F4F2770E9CF80E0089581E008958B
:101FF000CF93DF932091D9022430E1F5209106019F
:10200000222339F02091FB0227FF03C060E222E087
:1020100002C068E021E02093E9002FEF3091E80052
:10202000215035FD06C035ED3A95F1F7000021113C
:10203000F5CF2091E80025FF1DC0EC01809106013D
:10204000811105C040E050E068E070E003C070E03E
:1020500040E050E0CE010E94C11A8091E8008E77E6
:102060008093E80080E2FE01A7EBB2E001900D92C0
:102070008A95E1F7DF91CF910895CF93DF9300D058
:102080001F92CDB7DEB79091D902943019F58983AC
:102090007B836A8382E08093E9008FEF9091E80070
:1020A000815095FD06C095ED9A95F1F700008111DC
:1020B000F5CF8091E80085FF0DC040E050E063E07F
:1020C00070E0CE0101960E94C11A8091E8008E77DF
:1020D0008093E8000F900F900F90DF91CF910895BB
:1020E0002091D902243099F423E02093E90070E094
:1020F00040E050E00E94C11A882321F0109223038F
:10210000109224038091E8008E778093E800089570
:1021100078941F920F920FB60F9211248F939F9372
:10212000AF93BF938091B0029091B102A091B2029F
:10213000B091B3020196A11DB11D8093B00290939E
:10214000B102A093B202B093B302BF91AF919F913D
:102150008F910F900FBE0F901F9018952FB7F89486
:102160008091B0029091B102A091B202B091B302FD
:102170002FBF08951F920F920FB60F9211248F93C5
:102180009F93AF93BF938091FF02811113C0809101
:10219000B0029091B102A091B202B091B302419607
:1021A000A11DB11D8093B0029093B102A093B20221
:1021B000B093B302BF91AF919F918F910F900FBEDB
:1021C0000F901F901895209106012223C9F02091AD
:1021D000FB0227FF15C0262F2695269526952E3122
:1021E000C8F4FC01E20FF11D677081E090E001C0CE
:1021F000880F6A95EAF780959281892382830895F2
:10220000FC0106962281621301C012823196E81702
:10221000F907C1F70895209106012223C1F020910A
:10222000FB0227FF14C0262F2695269526952E31D2
:1022300030F5FC01E20FF11D677081E090E001C014
:10224000880F6A95EAF79281892B82830895FC01B1
:1022500032962FEF30E04191641789F02F3F19F447
:10226000411101C0232F3F5F3630A9F72F3F39F0CE
:10227000FC01E20FF11D27FDFA9562830895089590
:10228000CF9384E090E00E94C820C82F81E290E0C4
:102290000E94C8202C2F30E0A901582BCA01CF91F1
:1022A00008956FEE7EEF80E090E00E94FA2060E0FB
:1022B00082E090E00E94DC2060E083E090E00E94F9
:1022C000DC201092AC021092AD021092AE0210927D
:1022D000AF0260E084E090E00E94DC2060E081E2F8
:1022E00090E00E94DC2060E085E090E00E94DC202D
:1022F00060E086E090E00E94DC206FEF87E090E0F5
:102300000E94DC2040E050E0BA0188E090E00E94AA
:10231000EE2060E08DE090E00E94DC2040E050E0A4
:10232000BA0188E190E00E94EE2060E087E190E051
:102330000E94DC2040E050E0BA018CE190E00E9475
:10234000EE2060E080E290E00E94DC201092E90242
:102350001092EA021092EB021092EC0284E080618B
:102360008093E9024091E9025091EA026091EB0208
:102370007091EC028FE090E00E94EE2040E050E08F
:10238000BA0183E190E00C94EE20CF92DF92EF92BD
:10239000FF926C01EE24FF24C114D104E104F10486
:1023A00021F0C701B60120E101C020E0C72ED82EE0
:1023B000E92EFF24C114D104E104F10419F0285FCF
:1023C000C701B6016B017C0154E0F694E794D79401
:1023D000C7945A95D1F7C114D104E104F10419F05E
:1023E0002C5FC701B6016B017C0142E0F694E794D3
:1023F000D794C7944A95D1F7C114D104E104F104EC
:1024000019F02E5FC701B601DC01CB01B695A79587
:1024100097958795892B8A2B8B2B09F02F5F822F1D
:10242000FF90EF90DF90CF9008958091AB028111E3
:102430001092AB0208959091AA028091A902892B73
:102440002091A802982F922B909316028091AB02B4
:102450008823D9F0892B8093160280910601882366
:1024600031F08091FB0287FF02C08EE101C086E05F
:10247000E8E1F2E090E0815028F021912223D9F3A5
:102480009F5FF9CF91110E941512E091FD02F0912A
:10249000FE023097A9F080910601882359F08091BF
:1024A000FB0287FF07C0809116028093170285E028
:1024B000809316020280F381E02D86E192E0099478
:1024C0000895BF92CF92DF92EF92FF920F931F93E6
:1024D000CF93DF938C01C0901E03D0901F03E09038
:1024E0002003F09021038091AC029091AD02A09165
:1024F000AE02B091AF02C82AD92AEA2AFB2ACFE15C
:10250000D0E0D701C6010C2E04C0B695A7959795CB
:1025100087950A94D2F780FD04C0219790F7B12CDB
:1025200007C0BC2EB8018C2F0E944D0B0197A9F358
:102530008B2DDF91CF911F910F91FF90EF90DF9046
:10254000CF90BF900895CF93DF93EC010E9461126A
:10255000BE010E944D0BDF91CF910895292F220FCC
:10256000920F990F890F682F669566956695982F3B
:10257000977085E0689FB001112440E050E080E052
:10258000FB01E40FF51FE059FD4F208130E0092EDB
:1025900002C0369527950A94E2F721703327042E5E
:1025A00001C0220F0A94EAF7822B4F5F5F4F45303C
:1025B000510531F70895292F220F920F990F890F96
:1025C000E82FE695E695E695877051E001C0550F36
:1025D0008A95EAF785E0E89FF0011124E059FD4F64
:1025E00020E030E070E04081CB01022E02C09695E1
:1025F00087950A94E2F78170819584278523842743
:1026000081932F5F3F4F2530310569F70895CF92B1
:10261000DF92EF92FF92CF93DF9300D000D0CDB73F
:10262000DEB70E94F90C6B017C01809122038823A4
:1026300019F08091230302C080E090E080FF0FC07A
:10264000198282E08A83C701B6010E94C5118B837B
:102650008EEF8C8364E0CE0101960E947010C092D0
:102660001E03D0921F03E0922003F09221030E94E8
:10267000D21E0F900F900F900F90DF91CF91FF908F
:10268000EF90DF90CF9008950F931F9341E050E0BB
:1026900060E070E004C0440F551F661F771F8A95E5
:1026A000D2F7409550956095709580911E0390915A
:1026B0001F03A0912003B09121038A019B010823ED
:1026C00019232A233B23C901B8011F910F910C94B0
:1026D00007132091A702809582238093A702982F49
:1026E000977079F430E0482F082E000C550B241712
:1026F000350739F08595859585950E94441310928C
:10270000A70208950F931F9341E050E060E070E04E
:1027100004C0440F551F661F771F8A95D2F780911A
:102720001E0390911F03A0912003B09121038A0101
:102730009B01082B192B2A2B3B2BC901B8011F9198
:102740000F910C9407136093AC027093AD028093C9
:10275000AE029093AF020C94D21E80916F029091C2
:102760003E02891719F08F5F8770FBCF0895CF93D2
:1027700080913D0282958F7009F05FC080913A028E
:10278000882309F45AC080916F02B0913E02709183
:102790003802A091390240913B0250913C0291E0F5
:1027A0007F3F09F090E0692FC6E08B1709F445C020
:1027B0004115510521F0AF3F21F020E003C021E099
:1027C00001C0262F90E020FD35C0C89FF001C99FB1
:1027D000F00D1124E15CFD4F21812A132BC02081D3
:1027E000271328C02281211125C023813481241779
:1027F000350710F421503109241B350B283C3105D5
:10280000C8F420913D022F70206120933D0226E004
:10281000289FF001299FF00D1124EC5BFD4F808172
:102820008F708061808388E392E00E941403CF91CF
:102830000C94AD1301968770B8CFCF9108959F92F5
:10284000AF92BF92CF92DF92EF92FF920F931F93BE
:10285000CF93DF93CDB7DEB761970FB6F894DEBFA5
:102860000FBECDBF7C0185E0F701DE011D96019012
:102870000D928A95E1F7D701BC9011960C911197B2
:102880001296AC90309138024091390280913B020F
:1028900090913C02009731F04F3F31F421E03F3FEF
:1028A00019F403C021E001C020E020FD7CC1F70144
:1028B000C380D48090903A02992009F41BC12091E2
:1028C0003D02C816D90628F0B601681B790BCB016A
:1028D00004C0809590958C0D9D1D11E0883C91055C
:1028E00048F010E0207F09F0CBC088E392E00E941E
:1028F000140351C1822F807F09F08DC0401313C093
:102900003B1111C01A2DA1100EC02F702061209311
:102910003D0288E392E00E94140380913D02D701BA
:1029200015968C9369C1C114D10439F00F3F39F465
:1029300081E0BFEFBB1203C003C081E001C080E0B3
:1029400080FD03C081E08A2502C080E090E080FF26
:1029500013C04A2D602F8B2D0E94D80F882361F061
:1029600088E392E00E941403E8E3F2E086E0DF01EE
:102970001D928A95E9F74DC0CD2839F00F3F39F403
:1029800081E0BFEFBB1203C003C081E001C080E063
:1029900080FD03C081E08A2502C080E090E0E82F3E
:1029A000E170DE2E80FF2CC04A2D602F8B2D0E94FF
:1029B000D80F182F811124C0BD860E878D859E8566
:1029C0000E94A312292F22952F70223018F0243054
:1029D00090F405C09F7059F0811109C00DC19F701E
:1029E00031F0D70115969C91907F09F405C1805E66
:1029F000883008F401C1C7010E9414031D2DFCC0DA
:102A00001A2DAA2009F4F8C080913D0281608093BC
:102A10003D0210E0F1C0401308C03B1106C0A110F8
:102A200004C080913D02F70198C0BD860E878D8558
:102A30009E850E94A91E882369F1AA2059F1209140
:102A40003D02822F82958F7090E0029774F0809102
:102A500038029091390298878F831986DB86CA865F
:102A60002C87CE0107960E94140386E0F701A8E3A5
:102A7000B2E001900D928A95E1F70E94B7130DC064
:102A8000401769F0BD860E878D859E850E94A91E20
:102A9000811119C0C7010E94140311E0ADC03B11A0
:102AA000F1CFA110EFCF80913D02F7018583C701DF
:102AB0000E94140386E0E8E3F2E0DF011D928A95AC
:102AC000E9F7192D99C0AA2029F320913D02822F00
:102AD00082958F7090E0029744F280913802909135
:102AE00039029A8389831B82DD82CC822E83CE01B8
:102AF0000196B9CFC816D90638F0C81AD90AB8EC69
:102B0000CB16D10450F007C0809590958C0D9D1D7B
:102B1000883C910510F010E03EC01A2DAA2009F45F
:102B2000B9CF401327C03B1125C020913D0220FDA5
:102B300018C0822F82958F70482F50E041155105A3
:102B400081F0F70125834F30510541F08F5F982FB9
:102B50009295907F822F8F70892B8583C7010E9469
:102B6000140386E0F701A8E3B2E001900D928A9584
:102B7000E1F742C0BD860E878D859E850E94A91E05
:102B8000811173CF80913D02816080933D02C70126
:102B90000E94140331C0E8E3F2E086E0DF011D92F9
:102BA0008A95E9F729C0AA2009F474CFBD860E875B
:102BB0008D859E850E94A91E182F882309F46ACF4F
:102BC00086E0F701A8E3B2E001900D928A95E1F763
:102BD00080913802909139020E94A31292959F70C1
:102BE000963041F48091370291E089278093370233
:102BF000909336020E94B713812F61960FB6F89416
:102C0000DEBF0FBECDBFDF91CF911F910F91FF901F
:102C1000EF90DF90CF90BF90AF909F9008951F935B
:102C2000CF93DF93CDB7DEB7AA970FB6F894DEBF88
:102C30000FBECDBFEBEDF2E08091F100819322E079
:102C4000E33EF207C9F78091DC028930B9F150F414
:102C5000823009F4A5C0833009F45FC0813009F0E7
:102C6000EEC00CC08B3009F470C008F488C0823408
:102C700009F4AEC0853409F4C5C0E1C08091DB021F
:102C8000813A09F0DCC08091E800877F8093E800FA
:102C90008091DF029091E002892B21F460E287EBC2
:102CA00092E003C060E080E090E070E00E94B11B21
:102CB0008091E8008B778093E800C1C08091DB02AF
:102CC000813209F0BCC08091DF029091E00202974E
:102CD00008F0B5C08091E800877F8093E80080917C
:102CE000E80082FD05C08091D9028111F8CFA7C00C
:102CF0002091F3008091F20090E0922B029729F44A
:102D00008091F1008B7F813021F48091F1008093DC
:102D1000B6028091E8008B7758C08091DB02813A3F
:102D200009F08DC08091DF029091E002892B09F0BB
:102D300086C08091E800877F8093E8008091E8005A
:102D400080FFFCCF809106013BC08091DB02813285
:102D500009F075C08091DF029091E002892B09F0A3
:102D60006EC08091E800877F8093E8000E94FC1A83
:102D70008091DD02809306010E94E01E60C0809178
:102D8000DB02813209F05BC08091E800877F80938D
:102D9000E8000E94FC1A8091DE028093B5024FC0C9
:102DA0008091DB02813A09F04AC08091E800877F78
:102DB0008093E8008091E80080FFFCCF8091B5020D
:102DC0008093F1008091E8008E778093E8002FC017
:102DD0008091DB02803C99F58091DF029091E002C6
:102DE000029741F58091DD029091DE02892B11F569
:102DF0008091E800877F8093E8006BE170E084E5D4
:102E000094E013C08091DB02803CC9F48091DF0222
:102E10009091E002079771F48091E800877F80939A
:102E2000E80062EB70E082EA93E00E94501B0E948F
:102E3000FC1A05C08091EB0080628093EB008091CA
:102E4000E80083FFA4C18091DB029091DC02492F4E
:102E500050E04A30510508F09AC1FA01E759FF4F96
:102E60000C942421803821F0823809F090C108C0E8
:102E70008091D7029091D802992389F082600FC087
:102E80008091DF028F70873008F081C18093E90064
:102E90008091EB0085FB882780F91092E9009091E2
:102EA000E800977F9093E8008093F1001092F10082
:102EB00033C1282F2D7F09F06AC1882319F0823091
:102EC00061F065C18091DD02813009F060C193300D
:102ED00009F080E08093D8022EC08091DD0281113C
:102EE0002AC08091DF028F702FEF280F263008F064
:102EF0004EC18093E9002091EB0020FF1CC093306D
:102F000021F48091EB00806214C09091EB009061FD
:102F10009093EB0021E030E0A90102C0440F551F5F
:102F20008A95E2F74093EA001092EA008091EB0064
:102F300088608093EB001092E9008091E800877F21
:102F4000EEC0811124C11091DD021F778091E30052
:102F50008078812B8093E3008091E800877F8093C5
:102F6000E8000E94FC1A8091E80080FFFCCF80916D
:102F7000E30080688093E300111102C082E001C089
:102F800083E08093D90203C18058823008F0FFC0EB
:102F90008091DD029091DE028C3D53E0950779F53A
:102FA00083E08A838AE289834FB7F894DE0113961F
:102FB00020E03EE051E2E32FF0E050935700E4912F
:102FC00020FF03C0E295EF703F5FEF708E2F90E01F
:102FD000EA3010F0C79601C0C0968D939D932F5F85
:102FE000243149F74FBF8091E800877F8093E80044
:102FF0006AE270E0CE0101960E94B11B7BC0409155
:10300000DF025091E002292F33272330310511F1DF
:1030100068F42130310509F4C9C02230310509F0C6
:10302000B6C062E570E081E295E05DC02132310515
:1030300009F43BC02232310509F444C02F30310578
:1030400009F0A5C0E3EBF5E0E4916E2F70E081EBB1
:1030500095E045C0992781309105B9F070F0823034
:103060009105D9F0039709F092C0E5E8F5E0E49105
:103070006E2F70E085E895E032C0EDEAF5E0E4916E
:103080006E2F70E08DEA95E02AC0E3EAF5E0E49166
:103090006E2F70E083EA95E022C0EBE8F5E0E49162
:1030A0006E2F70E08BE895E01AC04115510509F4C8
:1030B00082C04130510509F06AC069E070E08CE4DB
:1030C00095E011C04115510509F47AC04130510510
:1030D00009F05DC061E770E080E794E004C061152D
:1030E000710509F454C02091E800277F2093E8007F
:1030F0000E94501B8091E8008B778093E80047C0C6
:10310000803809F044C08091E800877F8093E80010
:103110008091DA028093F1008091E8008E778093AD
:10312000E8000E94FC1A33C0811131C08091DD0299
:103130009091DE029927029754F58091E800877FED
:103140008093E8001091DD021093DA020E94FC1ACD
:10315000111106C08091E30087FD02C081E001C02B
:1031600084E08093D90242E061EC81E00E941B1B65
:1031700042E261EC82E00E941B1B42E361EC83E0CF
:103180000E941B1B42E360EC84E00E941B1B8091A9
:10319000E80083FF1AC08091E800877F8093E800F1
:1031A0008091EB0080628093EB000FC062E170E0E1
:1031B00083E795E098CF69E070E083E395E093CFF3
:1031C00060E470E081EE94E08ECFAA960FB6F8949A
:1031D000DEBF0FBECDBFDF91CF911F9108951F922B
:1031E0000F920FB60F9211242F933F934F935F933B
:1031F0006F937F938F939F93AF93BF93CF93DF93FF
:10320000EF93FF93C091E900CF708091EC00D82F2D
:10321000D17080FDD0E81092E9008091F000877FA6
:103220008093F00078940E940F161092E90080912C
:10323000F00088608093F000CD2BCF70C093E90040
:10324000FF91EF91DF91CF91BF91AF919F918F91BE
:103250007F916F915F914F913F912F910F900FBE92
:103260000F901F901895E8EDF0E080818E7F8083AD
:103270001092E2001092DA001092E100A0EEB0E0AD
:103280008C9181608C9380818F77808319BCA7EDAE
:10329000B0E08C918E7F8C9380818F7E80831092A2
:1032A000B4020895CF92DF92EF92FF920F931F9393
:1032B000CF93DF93C8EDD0E088818F7E8883E7EDE0
:1032C000F0E080818160808384E082BF81E0809330
:1032D000B40288818E7F888302EE10E0F8011082AC
:1032E0001092DA0081EEC82ED12CF601108288816E
:1032F0008F77888388818068888388818F7D8883A1
:1033000019BC1092D9021092DA021092D8021092CF
:10331000D70290EEE92EF12CF70180818B7F80831C
:1033200088818160888342E060E080E00E941B1B0E
:10333000F60180818E7F8083F801808181608083A7
:10334000808188608083F70180818E7F808388817F
:1033500080618883DF91CF911F910F91FF90EF9053
:10336000DF90CF9008951F920F920FB60F92112405
:103370002F933F934F935F936F937F938F939F937D
:10338000AF93BF93EF93FF938091E10082FF09C059
:103390008091E20082FF05C08091E1008B7F8093E5
:1033A000E1008091DA0080FF2AC08091D80080FF80
:1033B00026C08091DA008E7F8093DA008091D90058
:1033C00080FF18C080E189BD82E189BD09B400FE9B
:1033D000FDCF81E08093D9028091B40281110FC0AA
:1033E0000E9433190E9452198091E20084608093F8
:1033F000E20005C019BC1092D9021092B40280916B
:10340000E10080FF17C08091E20080FF13C080912F
:10341000E2008E7F8093E2008091E20080618093E1
:10342000E2008091D80080628093D80019BC85E0CA
:103430008093D9028091E10084FF34C08091E20042
:1034400084FF30C080E189BD82E189BD09B400FEFE
:10345000FDCF8091D8008F7D8093D8008091E100CE
:103460008F7E8093E1008091E2008F7E8093E20066
:103470008091E20081608093E2008091DA028823EB
:1034800011F084E007C08091E30087FD02C081E075
:1034900001C083E08093D9020E94E01E0E943B0B92
:1034A0000E94F10C8091E10083FF27C08091E2002F
:1034B00083FF23C08091E100877F8093E10082E059
:1034C0008093D9021092DA028091E1008E7F80937E
:1034D000E1008091E2008E7F8093E2008091E20023
:1034E00080618093E20042E060E080E00E941B1B6C
:1034F0008091F00088608093F000FF91EF91BF9180
:10350000AF919F918F917F916F915F914F913F917B
:103510002F910F900FBE0F901F9018952091E400EF
:103520003091E50095E64091EC00842F817040FFDA
:1035300023C08091E80080FD1DC08091D9028823BE
:1035400099F0853099F08091EB0085FD11C0409194
:10355000E4005091E5002417350729F3915011F04C
:103560009A01E1CF84E0089582E0089583E0089510
:1035700081E0089580E008954091E80042FFDDCFAA
:103580000895EF92FF920F931F93CF93DF937C01E7
:103590008B010E948E1A811119C0E70101151105D6
:1035A000A1F08091E80085FD0AC08091E8008E7747
:1035B0008093E8000E948E1A882381F307C08991C6
:1035C0008093F10001501109E9CF80E0DF91CF91A4
:1035D0001F910F91FF90EF9008952091D902243010
:1035E00021F4BC0184E00C943D100895BC016058A6
:1035F000710983E00C943D108091DB0287FF11C0BC
:103600008091E80082FD05C08091D9028111F8CF38
:1036100011C08091E8008B770BC08091D90288237C
:1036200049F08091E80080FFF8CF8091E8008E7724
:103630008093E8000895982F973068F59093E900FB
:10364000981739F07091EC002091ED005091F00046
:1036500003C0242F762F50E021FD02C09F5FECCFE6
:103660003091EB003E7F3093EB003091ED003D7FD9
:103670003093ED003091EB0031603093EB007093AC
:10368000EC002093ED005093F0002091EE0027FD18
:10369000E5CF80E008958F708093E90081E0089580
:1036A0002091E1023091E2022617370748F06115B8
:1036B000710539F42091E8002E772093E80001C0CD
:1036C000B901FC0120E06115710591F18091D902E9
:1036D000882309F440C0853009F43FC08091E80098
:1036E00083FD3DC08091E80082FD2FC08091E800FD
:1036F00080FFE9CF2091F3008091F20090E0922BBF
:103700006115710559F08830910540F4249120939A
:10371000F1003196615071090196F2CF21E00897CE
:1037200009F020E08091E8008E778093E800CBCF0D
:103730002111CCCF0AC08091D902882361F0853055
:1037400061F08091E80083FD0AC08091E80082FF6B
:10375000F2CF80E0089582E0089583E0089581E04B
:1037600008952091E1023091E2022617370748F0D0
:103770006115710539F42091E8002E772093E80057
:1037800001C0B901FC0120E06115710579F180915A
:10379000D9028823F1F18530F1F18091E80083FDB1
:1037A0003CC08091E80082FD2EC08091E80080FF3F
:1037B000EBCF2091F3008091F20090E0922B611505
:1037C000710551F08830910538F421912093F10072
:1037D000615071090196F3CF21E0089709F020E0CC
:1037E0008091E8008E778093E800CECF2111CFCF73
:1037F0000AC08091D902882361F0853061F0809100
:10380000E80083FD0AC08091E80082FFF2CF80E0EB
:10381000089582E0089583E0089581E00895CF93AC
:10382000DF93CDB7DEB7C955D1090FB6F894DEBF27
:103830000FBECDBF84B7877F84BF0FB6F894A8951D
:1038400080916000886180936000109260000FBEDC
:1038500090E080E80FB6F894809361009093610047
:103860000FBE85B7806885BF85B7806885BF0E9419
:1038700033190E9452198091E20084608093E20023
:1038800078948091D9028823A1F01091E9001F70EB
:103890009091EC00892F817090FD80E8182B109298
:1038A000E9008091E80083FD0E940F161F701093BD
:1038B000E90082E084BD93E095BD9AEF97BD8093C7
:1038C0006E000E941B0D90E0909308018093070109
:1038D0000E94020E0E94110EADEEB2E0FEE0CF2E6D
:1038E000F3E0DF2EE0E0F3E011921D9223E0EE30F2
:1038F000F207D1F78EE090E00E942A218093E30244
:103900009093E402FC010E962BEF2193E817F90740
:10391000E1F780E090E00E94D6208F3E9E4F11F0AC
:103920000E9451118CE090E00E94C82090E0A0E03D
:10393000B0E08093E5029093E602A093E702B09393
:10394000E80289EA8093800089E0809381002498CE
:103950002C983F988AB18F7C8AB96E98479A8BB120
:1039600080638BB9769A8FE090E00E94D0206093BC
:10397000E9027093EA028093EB029093EC02677085
:10398000FFEF6F9FB0011124759567957595679549
:103990007727709389006093880070938B00609301
:1039A0008A0070938D0060938C000E94920D80E0DD
:1039B00090E00E94D6208F3E9E4F11F00E94511140
:1039C00082E090E00E94C82080930F030E94401183
:1039D0009093FC028093FB0283E090E00E94C82059
:1039E000682F70E080E090E00E94A3136091FB02DA
:1039F00060686093FB021091FC0284E090E00E94FA
:103A0000DC20612F81E290E00E94DC2089E091E0DF
:103A10009093FE028093FD02EE24EA949EEFF92E2D
:103A200023E0222E31E4A32EB12CAC0EBD1E82E089
:103A3000A80EB11C40E1342E52E1552E68E1862ECD
:103A4000912C70E4472E8091D902853009F04AC04C
:103A50008091D902843021F11092FF020FB6F894C0
:103A6000A895809260000FBE4092600080E00E94A6
:103A7000F10C83B7817F846083BF83B7816083BF8C
:103A80007894889583B78E7F83BF0FB6F894A895F6
:103A900080916000886180936000109260000FBE8A
:103AA0008091D802882309F4CECF0E941B0D90E0AC
:103AB00090930801809307010E94020E0E94110E4C
:103AC000E0E0F3E0119223E0EE30F207D9F70E9434
:103AD000B90EE0E0F3E0819181111CC1CE16DF0642
:103AE000D1F7B1CF0E94B90EE0E1F3E0A0E0B3E07E
:103AF00000E010E0302F2D9191919227A1F180E00C
:103B000077247394492F472151F161968FAF6197C4
:103B100062963FAF6297272181E009F480E06396C7
:103B20008FAF63970E94AE108160782F65969FAF2C
:103B30008EAF659761964FAD619762965FAD629764
:103B400063966FAD639765968FAD65970E94340A53
:103B5000F801E05FFC4F80817826708229C08F5F7A
:103B6000770C863079F60F5F1F4F0E30110509F084
:103B7000C1CF6696EFAE66976796EFAE6797689689
:103B80001FAE68970E94AE108160782F6A969FAF33
:103B90008EAF6A9766964FAD669767965FAD6797EB
:103BA00068966FAD68976A968FAD6A970E94340ADF
:103BB0000E943B0B90910E03891731F00E943B0B42
:103BC00080930E030E94F10C8091D902843009F099
:103BD0003ACF8093E9008091E80082FF34CF809152
:103BE000E80085FF23C00E948E1A81111DC080E469
:103BF000682E712C8E010F5F1F4F09C08091F1005C
:103C0000F80181938F01F1E06F1A710869F08091DA
:103C1000E80085FDF3CF8091E8008B778093E80082
:103C20000E948E1A882399F391E001C090E0809160
:103C3000E8008B778093E800992309F404CF198179
:103C4000111114C080912403882351F11092240390
:103C500081E08093230322961FAE229723961FAE06
:103C600023972496FFAE249763E06DC01130C1F412
:103C700022961FAE229723961FAF23978CE0EBEB83
:103C8000F1E0D50101900D928A95E1F76096FFAEC3
:103C900060976FE0CE018F5B9F4F0E947010D3CE74
:103CA00080912303882391F1123019F0133091F0A1
:103CB00045C060911E0370911F0380912003909175
:103CC00021030E94C51122961FAE229723961FAF93
:103CD000239714C08A81813039F040F0823071F529
:103CE00081E08093220302C01092220322961FAE2D
:103CF000229723962FAE23978091220324968FAF8D
:103D000024972596FFAE259764E01DC02296EFAE5E
:103D1000229718C039BC59BC09B400FEFDCF809170
:103D2000D8008F7D8093D8008091E00082608093DE
:103D3000E0008091E00081FDFCCF85CE81E02296FD
:103D40008FAF229761E0CE018F5B9F4F0E94701072
:103D50007ACE0E94A312292F2F70E92FE295EF70DF
:103D60004E2F50E0FA013297EE30F105B8F4ED58DD
:103D7000FF4F0C942421803F99F018F4883E70F492
:103D80000FC0843F59F40CC0883E50F0813F31F49D
:103D900007C0822F869586958695089580E00895C0
:103DA00081E008951092A9021092A8020E941B12AD
:103DB00080E090E00E94250B80E090E00C940F0BD7
:103DC0001092AA0280910601882331F08091FB02B3
:103DD00087FF02C08EE101C086E0E8E1F2E0DF018A
:103DE0001D928A95E9F70C94D21E882341F08095A4
:103DF0009091A90289238093A9020C941B12089523
:103E0000882339F09091A902892B8093A9020C9400
:103E10001B120895882341F080959091AA0289236E
:103E20008093AA020C941B120895882339F0909174
:103E3000AA02892B8093AA020C941B12089588234E
:103E400009F458C0682F823869F40E943B0B81FF47
:103E500051C069E386E192E00E940B110E941B129F
:103E600069E30EC0833891F40E943B0B80FF42C08F
:103E700063E586E192E00E940B110E941B1263E54C
:103E800086E192E00E94E3100C941B12843869F4DE
:103E90000E943B0B82FF2EC067E486E192E00E9405
:103EA0000B110E941B1267E4EBCF8CEF860F813A57
:103EB00038F380E2860F883070F4677081E090E01C
:103EC00001C0880F6A95EAF780959091AA0289232C
:103ED0008093AA02D9CF8BE5860F833020F480E04F
:103EE00090E00C94250B685A673120F480E090E054
:103EF0000C940F0B0895882309F480C0682F823832
:103F0000B1F40E943B0B81FD79C069E386E192E048
:103F10000E940B110E941B122FEF81EE94E02150A2
:103F200080409040E1F700C0000069E317C083388B
:103F3000D9F40E943B0B80FD61C063E586E192E00D
:103F40000E940B110E941B122FEF81EE94E0215072
:103F500080409040E1F700C0000063E586E192E018
:103F60000E94E3100C941B128438B1F40E943B0BA6
:103F700082FD44C067E486E192E00E940B110E943A
:103F80001B122FEF81EE94E0215080409040E1F72A
:103F900000C0000067E4E2CF8CEF860F813A28F47E
:103FA00086E192E00E940B11DDCF80E2860F88301F
:103FB00068F4677081E090E001C0880F6A95EAF7C5
:103FC0009091AA02892B8093AA02CCCFEBE5E60F51
:103FD000E33038F4F0E0E953FE4F808190E00C9438
:103FE000250B685A673150F4E62FF0E0EE0FFF1F03
:103FF000E653FE4F808191810C940F0B0895CF936F
:10400000C82F0E947B1FC93349F42FEF87EE93E03E
:10401000215080409040E1F700C000008C2FCF91EC
:104020000C941F1F1092B9008CE08093B800089583
:10403000EF92FF920F931F93CF93DF93182FEB0113
:104040001092BC0084EA8093BC000E94AE107C01F8
:104050008091BC0087FD0EC0CF3F8FEFD807C1F322
:104060000E94AE108E199F098C179D0788F38EEF62
:104070009FEF2EC08091B900887F883041F08091F9
:10408000B900887F803119F08FEF9FEF21C0109326
:10409000BB0084E88093BC000E94AE108C0180912C
:1040A000BC0087FD0CC0CF3F8FEFD807C1F30E9443
:1040B000AE10801B910B8C179D0788F3D8CF809191
:1040C000B900887F883111F08034F1F680E090E00B
:1040D000DF91CF911F910F91FF90EF9008950F9373
:1040E0001F93CF93DF93EB018093BB0084E8809311
:1040F000BC000E94AE108C018091BC0087FD0EC0F8
:10410000CF3F8FEFD807C1F30E94AE10801B910BF9
:104110008C179D0788F38EEF9FEF0CC02091B9009C
:10412000287F81E090E0283211F480E090E09195C2
:1041300081959109DF91CF911F910F9108950F9370
:104140001F93CF93DF93EC0184E88093BC000E941F
:10415000AE108C018091BC0087FD0EC0CF3F8FEF69
:10416000D807C1F30E94AE10801B910B8C179D07DE
:1041700088F38EEF9FEF03C08091BB0090E0DF914A
:10418000CF911F910F91089584E98093BC00089509
:10419000F999FECF92BD81BDF89A992780B508950F
:1041A000A6E1B0E044E050E00C940221A8E1B0E0C8
:1041B00042E050E00C940221262FF999FECF92BDE7
:1041C00081BDF89A019700B4021639F01FBA20BDDC
:1041D0000FB6F894FA9AF99A0FBE08950396272F0E
:1041E0000E94DD200E94DC20252F0E94DD20242F4C
:1041F0000C94DD200196272F0E94DD200C94DC20FA
:10420000DC01CB01FC01F999FECF06C0F2BDE1BD96
:10421000F89A319600B40D9241505040B8F7089585
:10422000AA1BBB1B51E107C0AA1FBB1FA617B707DC
:1042300010F0A61BB70B881F991F5A95A9F78095F8
:104240009095BC01CD010895EE0FFF1F0590F491EC
:10425000E02D09940F931F93CF93DF938230910544
:1042600010F482E090E0E0912703F091280320E031
:1042700030E0A0E0B0E0309719F140815181028137
:10428000138148175907C8F08417950769F41097E8
:1042900031F012960C93129713961C9327C000933B
:1042A00027031093280322C02115310519F0421766
:1042B000530718F49A01BD01EF01DF01F801DBCFCC
:1042C00021153105F9F0281B390B2430310580F414
:1042D0008A819B816115710521F0FB0193838283A3
:1042E00004C09093280380932703FE01329644C0B4
:1042F000FE01E20FF31F819391932250310939831C
:1043000028833AC02091250330912603232B41F4C2
:10431000209102013091030130932603209325035D
:1043200020910001309101012115310541F42DB793
:104330003EB74091040150910501241B350BE091DB
:104340002503F0912603E217F307A0F42E1B3F0B81
:104350002817390778F0AC014E5F5F4F24173507F7
:1043600048F04E0F5F1F509326034093250381931F
:10437000919302C0E0E0F0E0CF01DF91CF911F9177
:104380000F910895CF93DF93009709F481C0FC014A
:10439000329713821282A0912703B09128031097BD
:1043A00081F420813181820F931F20912503309168
:1043B00026032817390751F5F0932603E0932503C8
:1043C00067C0ED0120E030E0CE17DF0740F44A81FE
:1043D0005B819E0141155105F1F0EA01F5CFD383D0
:1043E000C28340815181840F951FC817D90759F4A2
:1043F00088819981840F951F0296918380838A8199
:104400009B81938382832115310529F4F09328033E
:10441000E09327033DC0E901FB83EA834991599169
:10442000C40FD51FEC17FD0761F480819181840FC3
:10443000951F0296E90199838883828193819B83EA
:104440008A83E0E0F0E012968D919C91139700979B
:1044500019F0FD01DC01F7CF8D919C9111979D0121
:104460002E5F3F4F820F931F20912503309126032B
:104470002817390769F4309729F41092280310920D
:10448000270302C013821282B0932603A093250350
:0A449000DF91CF910895F894FFCF5B
:10449A00000029032000012000D50FF80FD40FF6E1
:1044AA001AED1A000D010D020D030D040D050D0084
:1044BA000C010C020C030C040C050C000B010B0282
:1044CA000B030B040B050B000A010A020A030A0478
:1044DA000A050A0009010902090309040905090074
:1044EA000801080208030804080508000701070272
:1044FA000703070407050700060106020603060468
:10450A000605060005010502050305040505050063
:10451A000401040204030404040504000301030261
:10452A000303030403050300020102020203020457
:10453A000205020001010102010301040105010053
:10454A0000010002000300040005003977476A37BA
:10455A002F517161626E00818283E200E900EA00F4
:10456A00B500B600B700CD008301CC008A019201E4
:10457A0094012102230224022502260227022A028A
:08458A00B300B4006F007000E3
:00000001FF
