:100000000C94A5010C94EC010C94EC010C94EC0103
:100010000C94EC010C94EC010C94EC010C94EC01AC
:100020000C94EC010C94EC010C940E220C94E02244
:100030000C94FC180C94EC010C94EC010C94EC0165
:100040000C94EC010C94EC010C94EC010C94EC017C
:100050000C94EC010C9449190C94EC010C94EC01F7
:100060000C94EC010C94EC010C94EC010C94EC015C
:100070000C94EC010C94EC010C94EC010C94EC014C
:100080000C94EC010C94EC010C94EC010C94EC013C
:100090000C94EC010C94EC010C94EC010C94EC012C
:1000A0000C94EC010C94EC010C94EC01550E550EE3
:1000B000870E870ECE0EEC0E0D100D10F70E8C0F66
:1000C0009D0F9D0FFD0F0D100D100610BB10BB10E6
:1000D000CD10CD10C410CD10CD10CD10BB10BB1065
:1000E000C910CD10CD10C9104D2374236C24742376
:1000F0006C24C023E3236C243A2449240600130013
:10010000190012001A000D00180007001B0054000F
:100110000F620C0015420800360037001600170069
:100120000400117209611C640B14146828002C006F
:1001300005780A640E741D610000000000000000D4
:1001400000000000000000000000000000000000AF
:10015000000000000000000000000000000000009F
:10016000000000000000000000000000000000008F
:100170000000000006001300190012001A005700CA
:100180005F006000610010000F620C0015000800A5
:10019000360056005C005D005E00627209611C64FE
:1001A0000B1414685800670059785A645B745561E1
:1001B00010001B000000360037000000060013008E
:1001C00000000403300000001003470068006500D1
:1001D00072006B0069006E000000200334003000E4
:1001E0002000500065007200630065006E0074001E
:1001F000200043006C007500620000000403090445
:1002000009023B00020100A0FA09040000010301F9
:1002100001000921110100012240000705810308A6
:10022000000A090401000103000000092111010076
:100230000122BC000705820320000A120110010000
:10024000000008EDFE6060010001020301050109E4
:1002500002A10185020901A100050919012905155D
:100260000025019505750181029501750381010540
:1002700001093009311581257F950275088106092C
:10028000381581257F950175088106050C0A38020D
:100290001581257F950175088106C0C0050109807B
:1002A000A101850319012AB700150126B7009501A0
:1002B00075108100C0050C0901A101850419012AEE
:1002C000A002150126A002950175108100C005014C
:1002D0000906A1018505050719E029E71500250193
:1002E0009508750181020507190029EF1500250100
:1002F00095F075018102050819012905950575011B
:100300009102950175039101C005010906A101053E
:100310000719E029E7150025019508750181029567
:1003200001750881010507190029FF150026FF0046
:1003300095067508810005081901290595057501BF
:100340009102950175039101C00011241FBECFEFEA
:10035000DAE0DEBFCDBF04B603FE27C0809186027F
:1003600090918702A0918802B09189028730904BCA
:10037000A740B04BD1F410928602109287021092DF
:1003800088021092890214BE84B7877F84BF0FB69B
:10039000F894A89580916000886180936000109225
:1003A00060000FBEE0E0F8E3099511E0A0E0B1E0E5
:1003B000ECEBFAE402C005900D92A239B107D9F72F
:1003C00022E0A2E9B1E001C01D92A638B207E1F730
:1003D0000E943D1F0C945C250C940000FB018633A9
:1003E000910531F08733910599F08C97A9F520C0DC
:1003F0008281882359F00E94771681FF02C088E32A
:100400001FC00E94771685FDFACF26C088E322C060
:100410008281882359F00E94771681FF02C08EE105
:100420000FC00E94771685FDFACF16C08EE112C06C
:100430008281882371F00E94771681FF05C08AE2CD
:100440000E94EC0C80E008950E94771685FDF7CF9E
:1004500003C08AE20E94960D81E008959C013A95BE
:1004600021153F4138F5DC01AA27B270AC014427C1
:1004700054709C012227387094FF0FC090FF02C077
:1004800080E101C080E0AB2B09F08062452B09F0D0
:100490008064232B69F080680BC0892F8170AB2B9F
:1004A00009F08260452B09F08460232B09F08860F5
:1004B000FB0109940895CF93DF93EC01805E9109CD
:1004C000089710F0209719F461E17EE002C061E81E
:1004D00070E1CE010E942E028C2FDF91CF910C94FF
:1004E000EC0CCF93DF93EC010E94960DCE01805E61
:1004F0009109089710F0209719F468E17EE002C096
:1005000068E870E1CE01DF91CF910C942E0281E07A
:1005100008950C94EE0108950C948B021F93CF93D1
:10052000DF9300D000D01F92CDB7DEB749835A8346
:100530006B833091BB0189819A81311114C066238C
:1005400059F0222349F00E94F615182F682F89814F
:100550009A810E949D1503C00E94C915182F6981B8
:100560007A81812F04C00E94F61569817A810F90EB
:100570000F900F900F900F90DF91CF911F910C94DF
:100580005003FC01262F4081518162817381848157
:100590000C948E02CF93DF93EC0160E00E94C102C5
:1005A000BE01DF91CF910C948C020E94281781111B
:1005B00002C00E94DB170E94EC070C946C050E949D
:1005C0002E0A0C94680508950C94E30281E00895C6
:1005D0000C94E602CF93C82F0E94E4028C2F0E9455
:1005E000E802CF91089508950E94A9100E94F30295
:1005F0002FEF84E39CE0215080409040E1F700C061
:1006000000000C946F190F931F93CF93DF93EC01AD
:1006100061E00E94C1028C01BE010E948902882310
:10062000A9F1BE01C8010E945507882379F1BE01D6
:10063000C8010E945B0A882349F1BE01C8010E94DB
:100640007008882319F1BE01C8010E94B1088823EF
:10065000E9F0BE01C8010E94DC098823B9F08A8153
:10066000882369F001158CE5180731F00E3D1C4513
:1006700031F40E94DB170AC00E94F40207C0CE01C9
:10068000DF91CF911F910F910C94870280E0DF9151
:10069000CF911F910F91089580E090E00895089503
:1006A0002EE1829FC0011124FC0126E0729FE00D23
:1006B000F11D1124E60FF11DEE0FFF1FE450FF4F57
:1006C000859194910895880F991FFC01EE53FE4F78
:1006D000859194910895CF93DF930E9450030E94D7
:1006E0008304EC018115904508F041C0C11580E4F8
:1006F000D80708F0D1C0C83ED10510F5C03ED105DD
:1007000008F0FDC0C83AD10578F4C53AD10508F023
:10071000A2C0C130D10509F4F2C008F4EEC0C43063
:10072000D10508F0ECC0E9C0CF3BD10508F49BC06F
:10073000C03CD10508F4E1C0CE01805C91099EC0A7
:10074000C11590E2D90758F4C11521E0D20708F08D
:10075000D6C0C03FD10508F4D0C0D065D0C0C11507
:1007600080E3D80708F08EC0CE019F7087C0C11506
:1007700095E5D90708F043C0C11524E5D20708F074
:10078000A2C0C11582E5D80708F5C11591E5D907C2
:1007900008F085C0CE0174E0969587957A95E1F7CB
:1007A00083709C2F937021E030E002C0220F331F32
:1007B0009A95E2F73C68382BCF70C695C69580E2D3
:1007C000C89FE0011124C22BD32B99C09E01237036
:1007D00033278C2F86958695C115D34508F064C0C4
:1007E000C1E0D0E002C0CC0FDD1F2A95E2F720E285
:1007F000829FC0011124C82BD92BDC6880C0C11591
:1008000029E5D207A0F4C11588E5D80708F060C033
:10081000C11596E5D90708F070C08C2F0E94170506
:100820008F71C82FD0E0DC2FCC27D06268C0C115F3
:100830002AE5D20708F451C0CE01905681159042A6
:1008400008F05BC08D2F8F710E941705DD27D062E5
:100850008F71D82B54C0C55AD0E0CD5ADE4FC88115
:10086000D0E0D0644CC0C85AD0E0CC0FDD1FCB5DC7
:10087000DE4F0990D881C02DD46441C00E9463032B
:10088000EC013DC0CE019927D3FF03C0EC01D86C29
:1008900036C0EC01D06C33C0DF70D06A30C0DC2FC2
:1008A000CC27C16FD06A2BC0C1E0D0E002C0CC0F12
:1008B000DD1F2A95E2F720E2829FC0011124C82B98
:1008C000D92BDA681CC0DC2FCC27C46FD06A17C0C4
:1008D000DC2FCC27C06FD06A12C08C2F8F700E9483
:1008E000170594E0D695C7959A95E1F7CF70D0E0BB
:1008F000DC2FCC27D069C82B02C0C0E0D0E0CE01ED
:10090000DF91CF9108958238910569F1B0F4813378
:10091000910509F46DC048F48932910509F463C06A
:100920008A32910509F469C008958533910509F467
:1009300055C089339105B9F00895833E910569F159
:1009400038F4803E9105B1F0823E910509F1089599
:10095000863E9105A9F1873E9105B9F1843E910546
:1009600009F064C023C02091770220FD4FC021FD13
:100970004DC008958091770280FD44C08091780237
:1009800080FF44C08091770284FD42C083EE4DC059
:100990008091770282FF38C0F5CF8091770282FD87
:1009A00033C08091780280FD31C0ECCF8091780215
:1009B00081FF32C08091770284FD2AC087EE35C066
:1009C0008091770283FF26C0F5CF8091770283FD67
:1009D00021C08091780281FD1FC0ECCF8091770209
:1009E00085FD1CC01DC08091770285FD19C016C011
:1009F0008091770286FD16C017C08091770286FD30
:100A000013C010C089E311C082EE0FC080EE0DC08C
:100A100080E00BC086EE09C084EE07C089E205C005
:100A200085E303C08AE201C081E390E008959091DC
:100A3000770292FF0DC0282F2871283019F4877F84
:100A4000846006C0282F2471243011F48B7F8860C5
:100A500093FF0DC0282F2871283119F4877E8461F7
:100A600006C0282F2471243111F48B7E88612091D7
:100A7000780220FF0DC0382F3871383019F4877F85
:100A8000816006C0382F3171313011F48E7F88605B
:100A900021FF0DC0282F2871283119F4877E81612C
:100AA00006C0282F2171213111F48E7E886194FDBA
:100AB000877E0895E82FF0E0E359FD4F8081089587
:100AC000089580EA8A95F1F7089508950C946505D4
:100AD0000C9466050C9465050C946A05CF93DF931E
:100AE000ACE5B1E041E651E061E070E08D91E82FC6
:100AF000E295EF70F0E021A18F70EB0102C0CC0F06
:100B0000DD1F8A95E2F7CE019C2F9095922391A349
:100B100092A1892B82A34A175B0741F7A6E5B1E0B2
:100B20004CE551E061E070E08D91E82FE295EF70C7
:100B3000F0E021A18F70EB0102C0CC0FDD1F8A9580
:100B4000E2F7CE019C2F9095922391A392A1892B3D
:100B500082A34A175B0741F7E8E6F2E0ADE6B2E0B0
:100B60008DE692E011921D928E179F07D9F785E0CE
:100B70000E944406DF91CF910C94D5026F927F9230
:100B80008F929F92AF92BF92CF92DF92EF92FF929D
:100B90000F931F93CF93DF938CE5882E81E0982EDF
:100BA00008E612E09DE6A92E92E0B92E712CCC2425
:100BB000C394D12CF40181914F01C82FC295CF70FD
:100BC000D0E099A18F70760101C0EE0C8A95EAF70A
:100BD000892F8E2989A38AA16E2C609486218AA3ED
:100BE0000E946105E6E5F1E040E050E020E031914F
:100BF000A32FA295AF70B0E090968C9190E03F70DB
:100C000002C0959587953A95E2F780FD07C08C2D37
:100C1000042E01C0880F0A94EAF701C080E0282B57
:100C20004F5F5F4F4630510511F789A1682269A2D5
:100C30008AA1E82AEAA2F8018081281719F0208306
:100C400081E001C080E0782A0F5F1F4FA016B10637
:100C500009F0B0CF272D45E06DE672E088E692E01E
:100C60000E9445060E94DF02872DDF91CF911F91E0
:100C70000F91FF90EF90DF90CF90BF90AF909F903B
:100C80008F907F906F9008950895FF920F931F9318
:100C9000CF93DF938C01F62ED72FC42F222349F058
:100CA00081E0809394010E942E1990939301809388
:100CB0009201809194018823C1F0809192019091DA
:100CC00093010E943A19069780F0EF2DFD2FD8016D
:100CD0004C2F50E0CD01801B910B841795071CF41D
:100CE0008D918193F7CF10929401DF91CF911F9155
:100CF0000F91FF9008950E942817811102C00E9451
:100D0000DB170E94631780937202282F2695269581
:100D1000269530E02430310524F087708861809377
:100D200072028091720280FF04C086958695869536
:100D300001C080E00C948A0720917202822F869570
:100D400086958695482F50E04330510554F48F5FC7
:100D5000982F990F990F990F822F8770892B809365
:100D60007202809172028160809372020E94671702
:100D7000809172028695869586950C948A0780915B
:100D80007202982F969596959695A1F0915E990F7F
:100D9000990F990F8770892B80937202887F91E059
:100DA00009F490E08091720290FB80F980937202C6
:100DB0000E946717809172028695869586950C949D
:100DC0008A078091720280FD13C081608093720255
:100DD000813019F489E080937202809172020E943E
:100DE0006717809172028695869586950C948A077E
:100DF00008958091720280FF08C08E7F80937202F6
:100E00000E94671780E00C948A070895809172020F
:100E100080FD0C94F9060C94E10690917202892FE2
:100E20008695869586958F5F8F719770843038F49C
:100E3000880F880F880F892B8093720202C09093CD
:100E4000720280917202887F91E009F490E08091B3
:100E5000720290FB80F9809372020E946717809162
:100E600072028695869586950C948A07843008F0E0
:100E700083E0909172029770282F220F220F220F89
:100E8000922B90937202987F21E009F420E09091D8
:100E9000720220FB90F9909372020C948A070E94D0
:100EA0003607809172020C9467179C01FB018281C6
:100EB000882349F12D3BFCE53F07C9F040F42B3B6B
:100EC000ECE53E0769F02C3B3C4561F008952F3B73
:100ED0009CE5390791F070F0203C3C4589F008957D
:100EE00083E001C080E00E944F0780E008950E94E7
:100EF000BF06FBCF0E949C06F8CF0E940607F5CFE5
:100F00000E940D07F2CF81E00895259A2D9808954B
:100F10002D980895CF92DF92EF92FF92CF93C82F32
:100F2000843050F4811109C0809180008F778093C4
:100F300080000E94880706C0C3E08091800080681E
:100F4000809380002C2F30E0AFEFBFEF0E94002590
:100F500023E030E040E050E00E94D824C9012C3763
:100F600064E1360728F469E070E00E94B02429C0EB
:100F7000DA01C9018A50974DAF4FBF4F6627782FCE
:100F8000892F9A2F25EF38E241E050E00E94D824C3
:100F900069017A01CA01B9010E94A0249B01AC0138
:100FA000C701B6010E94A024BB27A92F982F872F25
:100FB000009721E0A207B10511F0BC0102C06FEF5C
:100FC0007FEF7093890060938800CF91FF90EF903E
:100FD000DF90CF90089508950E94850782E880935E
:100FE000800089E1809381008FEF9FEF90938700CD
:100FF000809386000C947B060F931F93CF93DF930F
:10100000C62FD42F122FFC0182818823C9F0609350
:1010100097010E942E19909396018093950180E28A
:101020008C0F883008F057C0C77081E001C0880F6E
:10103000CA95EAF7DF91CF911F910F910C94110E91
:1010400080919701681330C080919501909196012D
:101050000E943A19883C910538F500E20D0FCD1732
:10106000B9F080E28C0F883040F4C77081E001C095
:10107000880FCA95EAF70E94180E083028F581E01B
:101080009D2F977001C0880F9A95EAF70E94110E64
:10109000812F0E94FE0D0830F0F4D77081E001C06E
:1010A000880FDA95EAF70AC080E28C0F883098F44E
:1010B000C77081E001C0880FCA95EAF7DF91CF9130
:1010C0001F910F910C94180E812FDF91CF911F91DA
:1010D0000F910C94FE0DDF91CF911F910F91089508
:1010E0009C01CB01233F4CE53407F9F078F4283D0F
:1010F000FCE53F07B9F0293D4CE5340711F1273DE8
:101100003C4531F526E241EE61EE1EC0253FFCE58F
:101110003F0799F070F0263F3C45D1F427E245EEB9
:1011200066EE12C027E245EE0EC026E241EE60EE0A
:101130000BC027E245EE64EE07C026E241EE62EE08
:1011400003C028E241E065EE0E94FC0780E00895BC
:10115000FC018281882319F010929701089581E0A3
:101160000895CF93DF93EC01FB018281882309F47A
:101170001FC1C230FCE5DF0708F41BC1C6319CE586
:10118000D90738F09E012A5F3C452930310508F027
:1011900010C10E9445179093780280937702C03166
:1011A000ECE5DE0709F4C3C008F041C0C8308CE5A7
:1011B000D80709F49AC0F0F4C430ECE5DE0709F46E
:1011C00087C068F4C2308CE5D80709F477C0C33013
:1011D000DC4509F0E3C080917702826076C0C630BA
:1011E000ECE5DE0709F46EC008F07BC08091770261
:1011F00088606BC0CC308CE5D80709F485C068F4F2
:10120000CA30ECE5DE0709F474C008F079C00E942A
:10121000A91080917702806858C0CE308CE5D8073D
:1012200009F476C008F07FC0809177028BC0CB3F75
:10123000ECE5DE0709F44FC018F5C3318CE5D8079B
:1012400009F47DC078F4C131ECE5DE0709F473C020
:10125000C231DC4509F0A2C00E94A910809177023A
:101260008F7733C0C5318CE5D80709F472C008F414
:1012700086C0CA3FDC4509F091C0809178023EC02B
:10128000CF3FFCE5DF0709F45FC058F4CD3F9CE594
:10129000D90709F444C008F43FC080917802826005
:1012A0002DC0C130FDE5DF0709F475C008F45DC04D
:1012B000C230DD4509F072C080E06EC080917702D7
:1012C000816003C08091770280618093770266C05D
:1012D0008091770211C080917802826080937802B9
:1012E0005DC0809177028062F0CF80917702806448
:1012F000ECCF8091770288608460E7CF8160EECF89
:10130000809177028E7FE1CF809177028D7FDDCF54
:1013100080917702877FD9CF8091780218C0809121
:1013200078028D7FDBCF809177028F7ECECF809148
:1013300077028F7DCACF809177028F7BC6CF809155
:101340007702877F8B7FC1CF809178028D7F8E7FE0
:10135000C5CF8091770282FB222720F991E0922766
:1013600090FB82F990FB83F9B0CF80917802982F9F
:10137000909591708E7F892B90FB81F9AFCF0E9461
:10138000A9108091770287FB222720F991E092270C
:1013900090FB87F99ACF81E00E94DD178091770258
:1013A000909178020E9456170E94A91080E001C017
:1013B00081E0DF91CF910895CF93DF9386319C45F3
:1013C00041F5EB010E947716982F8A812091100138
:1013D00030911101882379F09A7A81E009F480E054
:1013E00080939801911102C069E201C065E3C901CF
:1013F0000E9478180AC080919801811102C069E2A8
:1014000001C065E3C9010E9483180E94C51680E0EF
:1014100001C081E0DF91CF910895CF939091A90110
:101420009923C9F0882311F0C0E003C01092A901EC
:1014300012C08091A901C817C8F7EC2FF0E0EE0F99
:10144000FF1FE756FE4F808191810E945B020E9440
:10145000C516CF5FEECFCF910895089580910F010B
:101460008823A1F08091AA01882381F08091AD01A9
:101470009091AE01009751F00E943A19893C910574
:1014800028F01092AA0181E00C940D0A08951092A0
:10149000AA0110920F011092AE011092AD0181E0ED
:1014A0000C940D0A80910F0181110C94470A81E080
:1014B00080930F0108955F926F927F928F929F9217
:1014C000AF92BF92CF92DF92EF92FF920F931F9352
:1014D000CF93DF938C017B011092AB01873F2CE50A
:1014E000920741F4FB01C281CC23C9F081E08093D3
:1014F0000F010AC1883FFCE59F0739F4FB01C28157
:10150000CC2369F00E94470AFFC0893F9C4539F40B
:10151000FB01C281CC2319F00E94520AF5C08091D0
:101520000F01882309F4EFC01092AC01AA24A39400
:10153000B12C95E0992EC1E0D0E08824839480916D
:10154000AC01833008F0A1C0C82ED12C9C9CF001C6
:101550009D9CF00D1124E050FF4F40815181772474
:101560007A9490E0FA01E90FF11DE90FF11D259140
:1015700034910217130709F4792E232B11F09F5F82
:10158000F1CFFFEF7F1202C0612C66C05090AA011C
:10159000F7016280662069F19C9CF0019D9CF00D32
:1015A0001124E050FF4F9E0101C0220F7A94EAF708
:1015B0003481232B2483552039F3AE0102C0440F1C
:1015C000551F9A95E2F74150510930E042175307F1
:1015D00009F042C0228133812115310521F0C90172
:1015E0000E945B0203C061E00E942D0A8092AB0161
:1015F00033C09E0102C0220F331F9A95E2F721509B
:1016000031099C9CF0019D9CF00D1124E050FF4F8E
:10161000448150E02417350769F422813381211574
:10162000310521F0C9010E94710205C060E00E94ED
:101630002D0A01C0512C9C9CF0019D9CF00D1124A1
:10164000E050FF4FCE0101C0880F7A94EAF78095F1
:10165000948189238483652CB628AA2069F09C9CF8
:10166000F0019D9CF00D1124E050FF4F91E084812A
:10167000811190E0892F01C080E08170A82E8091B7
:10168000AC018F5F8093AC015ACF8091AB0188236E
:1016900051F00E942E199093AE018093AD0180E02D
:1016A0000E940D0A2CC0B1100DC081E00E940D0AED
:1016B000AA2029F11092AE011092AD0181E0809331
:1016C000AA011DC0F70182818823C9F08091AA0177
:1016D0008823A9F00E942E199093AE018093AD014A
:1016E000E091A901E83058F481E08E0F8093A901C0
:1016F000F0E0EE0FFF1FE756FE4F1183008381E0FD
:10170000CB2DC82701C0C1E08C2FDF91CF911F9155
:101710000F91FF90EF90DF90CF90BF90AF909F9090
:101720008F907F906F905F9008959093B401809315
:10173000B3010895E091B301F091B401309721F025
:101740000190F081E02D099480E00895E091B301CB
:10175000F091B401309799F020912401222359F09F
:101760002091770227FF07C0DC012C9111962C9362
:10177000119725E02C930280F381E02D09940895C0
:10178000E091B301F091B401309739F022E0DC012F
:101790002C930480F581E02D099408952091B101E6
:1017A0003091B2012817390771F09093B2018093FC
:1017B000B101E091B301F091B401309721F00680BE
:1017C000F781E02D099408952091AF013091B00187
:1017D0002817390771F09093B0018093AF01E09121
:1017E000B301F091B401309721F00084F185E02D30
:1017F0000994089585B7806885BF85B7806885BFDF
:10180000089508950C94010C0C94020C0C94010C96
:101810000C94010C0E94FA0B0E94060C0C94040C10
:1018200081E008950C94100C0E9425190E946E0509
:101830000E94C4190E947B060C94080CAF92BF92C0
:10184000CF92DF92EF92FF920F931F93CF93DF938C
:10185000CDB7DEB72A970FB6F894DEBF0FBECDBF67
:101860000E94BE050E94120C811111C08FEF898366
:101870008A831B820E942E198160782F9D838C831E
:1018800049815A816B818D810E94B80C40C086EBE2
:10189000A82E81E0B82E00E010E0C02E802F0E941C
:1018A0005A05E82EF501D1905F01D82631F40F5F7B
:1018B0001F4F0530110589F7D9CF8091350281FD81
:1018C0000E94600580E0FF24F3949D2D9F21D1F0BC
:1018D0008E83CF82EF2081E009F480E088870E9428
:1018E0002E198160782F9A8789874E815F8168855C
:1018F0008A850E94B80CF801EA54FE4F8081F826D0
:10190000F08205C08F5FFF0C8630F9F6D0CF0E94C1
:10191000EB070E94781C0E949A0B9091B5018917E1
:10192000B1F00E949A0B8093B5012A960FB6F894F5
:10193000DEBF0FBECDBFDF91CF911F910F91FF9002
:10194000EF90DF90CF90BF90AF900C94EA022A9670
:101950000FB6F894DEBF0FBECDBFDF91CF911F91C0
:101960000F91FF90EF90DF90CF90BF90AF900895D0
:10197000CF93DF93CDB7DEB72B970FB6F894DEBFCA
:101980000FBECDBF4F83588769877A878B87DE016B
:10199000119686E0FD0111928A95E9F785E0FE0136
:1019A000379601900D928A95E1F749815A816B81B2
:1019B0007C818D819E810E9462132B960FB6F894D4
:1019C000DEBF0FBECDBFDF91CF910895FC018081B6
:1019D00091810E9438160895CF93882309F4A4C0FA
:1019E000C82F8238C1F40E949A0B81FD9DC069E323
:1019F00080911001909111010E9478180E94C516E3
:101A00002FEF81EE94E0215080409040E1F700C03C
:101A1000000069E319C0833801F50E949A0B80FD2C
:101A200083C063E580911001909111010E947818A4
:101A30000E94C5162FEF81EE94E021508040904027
:101A4000E1F700C0000063E5809110019091110161
:101A50000E948318CF910C94C5168438C1F40E945B
:101A60009A0B82FD61C067E4809110019091110191
:101A70000E9478180E94C5162FEF81EE94E0215045
:101A800080409040E1F700C0000067E4DDCF8CEFBC
:101A90008C0F813AD0F46C2F80911001909111013C
:101AA0000E94F817882349F06C2F809110019091C3
:101AB00011010E9483180E94C5166C2F809110019D
:101AC000909111010E947818C5CF80E28C0F883068
:101AD00048F4C77081E001C0880FCA95EAF70E94F8
:101AE0007A16B8CFEBE5EC0FE33040F4F0E0E157C5
:101AF000FE4F808190E0CF910C94CE0BE8E5EC0F87
:101B0000E73150F4F0E0EE0FFF1FEF59FE4F8081F8
:101B10009181CF910C94E40BC03F30F08C2F0E9448
:101B2000801BCF910C946D1CCF910895882309F4EC
:101B300064C0823879F40E949A0B81FF5EC069E329
:101B400080911001909111010E9478180E94C51691
:101B500069E310C08338B1F40E949A0B80FF4DC036
:101B600063E580911001909111010E9478180E9404
:101B7000C51663E580911001909111010E948318B0
:101B80000C94C516843879F40E949A0B82FF35C0F4
:101B900067E480911001909111010E9478180E94D1
:101BA000C51667E4E7CF9CEF980F913A10F4682FC1
:101BB000E1CF90E2980F983050F4877091E001C027
:101BC000990F8A95EAF7892F0E948016D9CF9BE555
:101BD000980F933020F480E090E00C94CE0B98E5C1
:101BE000980F973120F480E090E00C94E40B803F54
:101BF00020F00E94E81B0C946D1C0895CF93C82F11
:101C00000E94EC0CC93349F42FEF87EE93E021508A
:101C100080409040E1F700C000008C2FCF910C94E1
:101C2000960D882321F00E947A160C94C51608950B
:101C3000882321F00E9480160C94C5160895CF9237
:101C4000DF92EF92FF920F931F93CF93DF937C016C
:101C5000062FC72FFC01158112951F70D281D1115B
:101C60000E9497160E947016882399F0DD2389F050
:101C70008C2F807F803421F080E2800F883048F004
:101C800082E00E940F170E94701691E0D82ED9268C
:101C900001C0D12CCC2EC2948FE0C8228C2D90E0B4
:101CA000FC01EA5AFF4F0C94FA248C2F807FCF70EE
:101CB000882311F0C295C07FDD2399F0CC2309F46D
:101CC00087C180E2800F883010F0011104C08C2F92
:101CD0000E947A1603C08C2F0E948A160E94C51695
:101CE00077C1802F0E94960DCC2309F496C180E223
:101CF000800F883010F0011104C08C2F0E948016D4
:101D000003C08C2F0E9490160E94C51686C18C2F8E
:101D1000807FCF70803211F0C295C07F002319F010
:101D20000130C9F025C0DD2371F0112341F01130DD
:101D300031F40E94AA168C2B0E94B2166EC10E942A
:101D4000AA168C2B0EC0112319F0113009F465C1AD
:101D50000E94BB161FC0DD2339F0163008F05DC1AC
:101D60008C2F0E94110E59C1153008F056C112C0B7
:101D7000DD2319F01123A1F32BC1112359F00933ED
:101D800009F037C1FFEF27EE83E0F150204080409B
:101D9000E1F72DC18C2F0E94180E3FC18C2F869524
:101DA0008695837019F0813061F037C1DD2321F011
:101DB000802F9C2F937002C080E090E00E94CE0B99
:101DC00034C1DD2321F0802F9C2F937002C080E06E
:101DD00090E00E94E40B29C1802FDD2319F00E94BE
:101DE000801B02C00E94E81B0E946D1C1EC18C2F2C
:101DF000837009F045C0D11114C1402F429546951A
:101E00004770440F440F602F6F70862F90E0A0E062
:101E1000B0E0042E04C0880F991FAA1FBB1F0A94AC
:101E2000D2F704FF10C00FE010E020E030E004C063
:101E3000000F111F221F331F4A95D2F700951095EE
:101E40002095309503C000E010E09801C695C69536
:101E5000C370BC01CD01602B712B822B932BC23040
:101E600049F058F4C13019F00E94B314DAC00E944E
:101E7000A114D7C00E94C514D4C00E949F14D1C021
:101E8000DD2319F08C2F817001C08695882309F419
:101E9000C8C0402F429546954770440F440F602FAD
:101EA0006F70862F90E0A0E0B0E0042E04C0880F91
:101EB000991FAA1FBB1F0A94D2F704FF10C00FE09E
:101EC00010E020E030E004C0000F111F221F331F7C
:101ED0004A95D2F7009510952095309503C000E003
:101EE00010E09801C695C695C370BC01CD01602B6A
:101EF000712B822B932BC23049F058F4C13019F06A
:101F00000E9478158EC00E9466158BC00E948A15AB
:101F100088C00E94D91485C0CF70DD2339F08C2F82
:101F20000E94FF14802F0E94110E7BC0802F0E9400
:101F3000180E8C2F0E94201574C0023F01F128F466
:101F4000003F41F0013FA1F03FC0033FF9F0043FE3
:101F500039F13AC0DD2341F0153008F05EC08C2F16
:101F60008F710E94451559C0163008F056C0F7CF42
:101F7000DD2339F08C2F8F710E94FF144EC0DD23BA
:101F8000C9F38C2F8F710E94201547C0DD2329F0E3
:101F90008C2F8F710E94EA1440C00E94E5143DC04E
:101FA000DD2349F0CF718C2F0E94FF1463E08C2F4A
:101FB0000E94FA1632C081E00E940F17123068F1B9
:101FC00082E00E940F1729C0DD2331F0112391F226
:101FD000802F0E94EC0C21C0112399F2093349F49F
:101FE0009FEFE7EEF3E09150E040F040E1F700C0F2
:101FF0000000802F0E94960D10C04C2F4F70602F54
:10200000C7010E944C030E9410140FC04C2F4F7048
:10201000602FC7010E944F0308C088EF8C0D8430E9
:1020200020F40E949A0B0E94EA02DD20C9F00E946F
:102030006C1680FD15C0F70112820E9466160E9480
:10204000FF14C7010E9451100E946616DF91CF91C4
:102050001F910F91FF90EF90DF90CF900C9420157F
:10206000DF91CF911F910F91FF90EF90DF90CF9074
:1020700008950F931F93CF93DF93EC0168817981CB
:102080008A810E9443168C010E949C150E948D1427
:10209000B801CE010E941F0EDF91CF911F910F91C9
:1020A0000895CF93DF93EC01988189812B813C8146
:1020B000232B31F08F3F31F481E09F3F19F403C0AF
:1020C00081E001C080E080FD19C0CE010E940303C1
:1020D00081110CC00E947016882381F08A818823A8
:1020E00069F082E0DF91CF910C940F17CE010E942E
:1020F0003910CE01DF91CF910C94CA02DF91CF91BC
:102100000895882321F00E948A160C94C51608951C
:10211000882321F00E9490160C94C51608950E9401
:1021200097160E94A7160E94C5160E94971D0E942E
:102130006D1C80E090E00E94CE0B80E090E00C945B
:10214000E40B80911001909111010E948E180C9463
:102150008F100E9487160C94A110E92FE295EF7062
:102160004E2F50E0FA013297EE30F105B0F4EA5903
:10217000FF4F0C94FA24803F91F018F4883E68F4E5
:102180000EC0843F51F40BC0883E48F0813F29F4D3
:1021900006C093FB882780F9089580E0089581E0C8
:1021A00008950E9438160E94AD100895CF93DF93D2
:1021B00000D000D01F92CDB7DEB70F900F900F90D8
:1021C0000F900F90DF91CF910895CF93DF9300D0C0
:1021D00000D000D0CDB7DEB726960FB6F894DEBF9C
:1021E0000FBECDBFDF91CF9108951F93CF93DF93A3
:1021F000C091BC0116E08091BD01C81799F0D0E0F4
:102200001C9FF0011D9FF00D1124E254FE4F4081F0
:10221000518162817381848195810E94E5102196AC
:10222000C770E9CFDF91CF911F9108954091EE01E2
:102230005091EF016091F0017091F1018091F201F4
:102240009091F3010C94E5100F931F93CF93DF93BC
:102250008091F30182958F7009F05DC08091F0014B
:10226000882309F458C08091BC011091BD01609190
:10227000EE017091EF01C091F101D091F20191E076
:102280006F3F09F090E0292F06E0811709F443C061
:10229000209721F07F3F21F030E003C031E001C002
:1022A000322F90E030FD34C0089FF001099FF00DFF
:1022B0001124DF01A254BE4F11963C9111973713A0
:1022C00027C03C91361324C012963C9112973111CD
:1022D0001FC013964D915C9114974C1B5D0B483CAD
:1022E0005105B0F48091F3018F7080618093F30108
:1022F000ED53FE4F80818F70806180838EEE91E080
:102300000E945110DF91CF911F910F910C94F51005
:1023100001968770BACFDF91CF911F910F910895E9
:102320009F92AF92BF92CF92DF92EF92FF920F9364
:102330001F93CF93DF93CDB7DEB761970FB6F894B5
:10234000DEBF0FBECDBF8C0185E0F801DE011D961A
:1023500001900D928A95E1F7F80140815181E28068
:102360009091EE016091EF012091F1013091F20125
:102370002115310531F06F3F31F481E09F3F19F4B1
:1023800003C081E001C080E0F82FF1709F2E80FD36
:1023900046C1F801A380B4808EEEC82E81E0D82E0D
:1023A000F090F001F501E21BF30BFF2009F4DFC010
:1023B0008091F301E83CF10508F09BC0282F207FB5
:1023C00009F052C0561313C0491311C0FE2CE1107E
:1023D0000EC08F7080618093F3010E941611C601B8
:1023E0000E9451108091F301F801858358C1AB28F8
:1023F00031F05F3F31F481E04F3F19F403C081E0D9
:1024000001C080E080FD03C081E08E2502C080E035
:1024100090E0F82FF170FF2E80FF1CC08091BC016E
:102420002091BD0136E0821709F417C190E0389F72
:10243000F001399FF00D1124E254FE4F61815613D3
:1024400006C06081461303C06281E61203C0019694
:102450008770E9CFFE2CEE2009F421C18091F301B1
:1024600081608093F3015AC0561306C0491304C01B
:10247000E11002C0F8019FC04D875E878D859E8563
:102480000E94D110882379F1EE2069F12091F301A7
:10249000822F82958F7090E0029774F08091EE0108
:1024A0009091EF0198878F831986BB86AA862C8727
:1024B000CE0107960E94511086E0F801AEEEB1E021
:1024C00001900D928A95E1F70E9424110E94161145
:1024D0000DC0561729F14D875E878D859E850E9418
:1024E000D11081112CC0C8010E945110FF24F39417
:1024F000D6C0282F207F69F77A2DB98AA88A6E2D39
:1025000089890E94D6108EEE91E00E94511086E0DB
:10251000F60111928A95E9F70E941611F12CBFC0BD
:102520004913D9CFE110D7CFF8018583C8010E94A4
:10253000511086E0F60111928A95E9F7B0C0EE20BD
:1025400091F22091F301822F82958F7090E0029793
:102550000CF4B2CF8091EE019091EF019A838983C0
:102560001B82BD82AC822E83CE010196A3CFE83CB4
:10257000F10508F047C0FE2CEE2009F4B4CF561345
:1025800030C049132EC02091F30120FD21C0822FBD
:1025900082958F70482F50E041155105C9F0F80120
:1025A00025834F30510541F08F5F982F9295907F92
:1025B000822F8F70892B8583C8010E94511086E07D
:1025C000F801AEEEB1E001900D928A95E1F742C0BC
:1025D00086E0F801AEEEB1E001900D928A95E1F748
:1025E0005EC04D875E878D859E850E94D1108111CA
:1025F00063CF8091F30181608093F301C8010E9451
:1026000051104DC07A2DB98AA88A6E2D89890E94F1
:10261000D61086E0F60111928A95E9F71BC0EE20EC
:1026200009F461CF4D875E878D859E850E94D1100C
:10263000F82E882309F457CF86E0F801AEEEB1E01A
:1026400001900D928A95E1F78EEE91E00E94E60CE2
:102650000E9424110E94161122C04D875E878D852D
:102660009E850E943816292F22952F70223028F43B
:102670009F7039F0811105C00BC0243028F49F7081
:1026800049F4805E883020F0C8010E9451109F2CD0
:10269000F92C05C0F8019581907F99F7F9CF8F2D1E
:1026A00061960FB6F894DEBF0FBECDBFDF91CF911C
:1026B0001F910F91FF90EF90DF90CF90BF90AF9060
:1026C0009F9008951F93CF93DF93CDB7DEB72C97DC
:1026D0000FB6F894DEBF0FBECDBF4F835887698712
:1026E0007A878B879C87CE0107960E94901188235A
:1026F000D1F09F8188852A853B85232B31F08F3F40
:1027000031F481E09F3F19F403C081E001C080E013
:1027100080FD47C04F81588569857A858B859C856A
:102720000E94E5103EC086E0FE013796DE0111965C
:1027300001900D928A95E1F7FF81E8856A857B8596
:102740006115710531F0EF3F31F481E0FF3F19F47D
:1027500003C081E001C080E080FD23C02091BD0165
:1027600030E0C9010196877099274091BC0150E083
:1027700084179507F1F1F983EA837D836C8396E0F2
:10278000929FD001939FB00D1124A254BE4FFE0121
:10279000319601900D929A95E1F78093BD010E94C8
:1027A000F51016E08091BC019091BD01891771F17F
:1027B000189FC001112482549E4F0E9490118823BB
:1027C00029F1E091BC011E9FF0011124E254FE4F5B
:1027D0004081518162817381848195810E94E510DD
:1027E0008091BC0190E00196877099278093BC018D
:1027F000D9CF0E94A9101092BD011092BC01EEEE3B
:10280000F1E086E0DF011D928A95E9F72C960FB67C
:10281000F894DEBF0FBECDBFDF91CF911F91089519
:10282000EF92FF920F931F93CF93DF938C01892B2D
:1028300009F46CC0F12CEE24E394E8012196F80130
:102840008491843740F4843008F051C0813081F0A5
:10285000823019F15BC0853709F444C0A8F19CE7C8
:10286000980F903708F052C08F770E94960D41C0A4
:102870000E5F1F4FFE01849190E2980F983050F444
:102880008770FE2D01C0FF0F8A95EAF78F2F0E94F7
:102890009A1614C00E94EC0C2DC00E5F1F4FFE0153
:1028A000849190E2980F983060F48770FE2D01C0FB
:1028B000FF0F8A95EAF78F2F0E94A0160E94C51677
:1028C00019C00E94960D16C00E5F1F4FFE01C491E5
:1028D000CC2381F08FE99FE00197F1F700C0000061
:1028E000C150F6CF0E5F1F4FFE01F49003C00E944F
:1028F000EC0C8E018F2D882309F49FCFEFE9FFE0C8
:102900003197F1F700C000008150F5CFDF91CF91F2
:102910001F910F91FF90EF900895089508950C94E2
:102920008E140C948F140E94911460930C02709377
:102930000D0280930E0290930F020C948F100C9452
:1029400093140F931F9300910C0210910D0220918C
:102950000E0230910F02602B712B822B932B1F9153
:102960000F910C9493140F931F9300910C021091EC
:102970000D0220910E0230910F02602371238223F9
:1029800093231F910F910C9493140F931F93009115
:102990000C0210910D0220910E0230910F0260275F
:1029A0007127822793271F910F910C9493140C94F5
:1029B0008E140E94D71460930802709309028093CA
:1029C0000A0290930B020C948F1060E070E0CB0130
:1029D0000C94D9140F931F9341E050E060E070E035
:1029E0008A019B0104C0000F111F221F331F8A950B
:1029F000D2F7C901B8011F910F910C94D9140F930C
:102A00001F9341E050E060E070E004C0440F551FA8
:102A1000661F771F8A95D2F780910802909109026C
:102A2000A0910A02B0910B028A019B01082B192B7D
:102A30002A2B3B2BC901B8011F910F910C94D9147B
:102A40000F931F9341E050E060E070E004C0440F3A
:102A5000551F661F771F8A95D2F740955095609550
:102A600070958091080290910902A0910A02B0919C
:102A70000B028A019B01082319232A233B23C90146
:102A8000B8011F910F910C94D9140F931F9341E03B
:102A900050E060E070E004C0440F551F661F771FD0
:102AA0008A95D2F78091080290910902A0910A02BA
:102AB000B0910B028A019B01082719272A273B277F
:102AC000C901B8011F910F910C94D9140F931F9352
:102AD000009108021091090220910A0230910B0224
:102AE000602B712B822B932B1F910F910C94D91477
:102AF0000F931F93009108021091090220910A027E
:102B000030910B0260237123822393231F910F9135
:102B10000C94D9140F931F9300910802109109028D
:102B200020910A0230910B02602771278227932798
:102B30001F910F910C94D9140895292F220F920FF1
:102B4000990F890FE82FE695E695E695877051E095
:102B500001C0550F8A95EAF785E0E89FF00111243E
:102B6000EC50FE4F20E030E070E04081CB01022EBF
:102B700002C0969587950A94E2F781708195842723
:102B80008523842781932F5F3F4F2530310569F7D7
:102B90000895292F220F920F990F890F682F66959C
:102BA00066956695982F977085E0689FB00111240F
:102BB00040E050E080E0FB01E40FF51FEC50FE4FD9
:102BC000208130E0092E02C0369527950A94E2F75D
:102BD00021703327042E01C0220F0A94EAF7822BBA
:102BE0004F5F5F4F4530510531F70895BF92CF9247
:102BF000DF92EF92FF920F931F93CF93DF938C019D
:102C0000C0900802D0900902E0900A02F0900B02F6
:102C100080910C0290910D02A0910E02B0910F02D2
:102C2000C82AD92AEA2AFB2ACFE1D0E0D701C60177
:102C30000C2E04C0B695A795979587950A94D2F760
:102C400080FD04C0219790F7B12C07C0BC2EB801BD
:102C50008C2F0E946B030197A9F38B2DDF91CF91ED
:102C60001F910F91FF90EF90DF90CF90BF9008954C
:102C7000CF93DF93EC010E94F615BE010E946B0317
:102C8000DF91CF9108951F93CF93DF93EB01909144
:102C9000BB01992321F0CB010E94381613C0882371
:102CA00049F0CB010E94F615182F682FCE010E9423
:102CB0009D1504C0CB010E94C915182FBE01812F9C
:102CC0000E946B03DF91CF911F91089580911002B4
:102CD0008595859585950895809110028770089552
:102CE00090911002977081E009F480E0089580913E
:102CF0003402089590913402892B80933402089510
:102D00008095909134028923809334020895109223
:102D10003402089590913302892B809333020895F1
:102D20008095909133028923809333020895109205
:102D30003302089590913202892B809332020895D4
:102D400080959091320289238093320208951092E7
:102D50003202089580911102089508950C94AD16E1
:102D60000C94AE1690911102981721F080931102E5
:102D70000C94B016089580911102882329F01092C6
:102D8000110280E00C94B0160895E0911001F091CA
:102D90001101809134028083E0911001F0911101C2
:102DA000908180913302892B8083E0911001F09112
:102DB0001101908180913202892B808380911102D0
:102DC000882381F0E0911001F09111019081892B0D
:102DD000808380911001909111010E94E21781116E
:102DE0000E94BB1680911001909111010C94A60BCA
:102DF0000C94AD1698E0899F90011124262B209306
:102E000010020E94FF14809110028595859585958A
:102E10000C94F8161092100280E00C94F816209191
:102E200010028095822380931002982F977079F476
:102E300030E0482F082E000C550B2417350739F0C9
:102E40008595859585950E9420150C940A170895FF
:102E500080E090E00E94222521E08C3E9E4F09F008
:102E600020E0822F089582E090E00C941A25682FCC
:102E700082E090E00C94282583E090E00C941A25E1
:102E8000682F83E090E00C942825CF9384E090E0B5
:102E90000E941A25C82F81E290E00E941A252C2F4B
:102EA00030E0A901582BCA01CF910895CF93C92FC3
:102EB000682F84E090E00E9428256C2F81E290E04A
:102EC000CF910C94282586E090E00C941A25682F69
:102ED00086E090E00C942825AB01BC018FE090E0E7
:102EE0000C943A25AB01BC0183E190E00C943A25A7
:102EF00060E070E0CB010C94721760E070E0CB01F1
:102F00000E946C170C9478176CEE7EEF80E090E0D6
:102F10000E94462560E082E090E00E94282560E063
:102F200083E090E00E94282510920C0210920D027E
:102F300010920E0210920F0260E084E090E00E9476
:102F4000282560E081E290E00E94282560E085E08D
:102F500090E00E94282560E086E090E00E9428250D
:102F60006FEF87E090E00E94282540E050E0BA0132
:102F700088E090E00E943A2560E08DE090E00E94B9
:102F8000282540E050E0BA0188E190E00E943A250F
:102F900060E087E190E00E94282540E050E0BA011F
:102FA0008CE190E00E943A2560E080E290E00E948F
:102FB00028250C947D170C948417682F8EE090E0E0
:102FC0000C942825FC01329680912401882331F04D
:102FD0008091770287FF02C09EE101C096E080E009
:102FE000915028F021912223D9F38F5FF9CF0895D2
:102FF000662351F1209124012223E9F020917702E8
:1030000027FF19C0462F4695469546954E31E0F468
:10301000677021E030E002C0220F331F6A95E2F7AB
:10302000FC01E40FF11D828190E02823392381E027
:10303000232B69F409C0FC0132960896219162178E
:1030400029F0E817F907D1F780E0089581E00895A5
:103050009C01FC0132969FEF80E04191461789F078
:103060009F3F19F4411101C0982F8F5F8630A9F757
:103070009F3F39F0F901E90FF11D97FDFA95628341
:10308000089508959C012A5F3F4FFC014281461339
:1030900001C01282019682179307B9F70895262F6F
:1030A0002695269526952E3168F4FC01E20FF11D38
:1030B000677021E030E001C0220F6A95EAF7828153
:1030C000282B22830895262F2695269526952E3186
:1030D00070F4FC01E20FF11D677021E030E001C0E7
:1030E000220F6A95EAF7209582812823228308958A
:1030F00020912401222329F02091770227FD0C94AE
:103100004F180C94281820912401222329F0209193
:10311000770227FD0C9463180C9442182091240127
:10312000FC013296222331F08091770287FF02C0A2
:103130008EE101C086E0DF011D928A95E9F70895CE
:1031400008950C94A0180C94A018CF930E94A31873
:103150000E94BE050E94A118C0E08C2F0E945A0553
:10316000811104C0CF5FC530C1F701C081E0CF91AC
:1031700008950C94A0180C94B9180E94BB18809163
:103180007D02843061F11092360220E488E190E003
:103190000FB6F894A895809360000FBE209360004E
:1031A00080E00E948A0780E00E94EA020E94BB1829
:1031B00083B7817F846083BF83B7816083BF789446
:1031C000889583B78E7F83BF0FB6F894A8958091BA
:1031D0006000886180936000109260000FBE0895C7
:1031E0000C94A0180E94A9100E947B060E949A0BC2
:1031F0000E94EA020C94F0181F920F920FB60F92E1
:1032000011248F939F93AF93BF93809136028111C6
:1032100013C08091730290917402A0917502B091D5
:1032200076024196A11DB11D8093730290937402A2
:10323000A0937502B0937602BF91AF919F918F9149
:103240000F900FBE0F901F90189582E084BD93E001
:1032500095BD9AEF97BD80936E0008952FB7F894AF
:103260008091730290917402A0917502B0917602E0
:103270002FBF08959C014FB7F894809173029091ED
:103280007402A0917502B09176024FBF821B930B1E
:10329000089578941F920F920FB60F9211248F9376
:1032A0009F93AF93BF938091730290917402A0910A
:1032B0007502B09176020196A11DB11D8093730233
:1032C00090937402A0937502B0937602BF91AF9170
:1032D0009F918F910F900FBE0F901F90189587E7C9
:1032E00097E790930108809300089AE088E10FB671
:1032F000F894A895809360000FBE90936000FFCF74
:10330000CF92DF92EF92FF920F931F93CF93C0E083
:10331000E82EF12C8C2F0E945A0500E010E0C82EF8
:10332000D12CC601002E02C0959587950A94E2F72C
:1033300080FD06C00F5F1F4F0630110591F70AC0D0
:10334000602F7C2F80E00E945003E816F90691F769
:1033500081E004C0CF5FC530E9F680E0CF911F91D6
:103360000F91FF90EF90DF90CF900895CF93C82FEB
:103370008CE20E948019882321F08C2FCF910C942D
:10338000801980E0CF910895CF930E942817811172
:1033900002C00E94DB17C5E6C15049F00E94BE057D
:1033A0008FE39CE90197F1F700C00000F5CF89E2B7
:1033B0000E94B619811120C18AE20E94B6198111BA
:1033C0000E94DB1785E00E94B61981110E946F19D7
:1033D0000E9433178093350287E00E94B619882334
:1033E000A9F18BE10E94B619882351F08091350232
:1033F00081FB222720F991E0922790FB81F90EC0F2
:103400008EE00E94B619882361F08091350282FB1C
:10341000222720F991E0922790FB82F980933502D0
:1034200015C080E10E94B61990913502882341F0C1
:1034300093FB222720F981E0822780FB93F904C0C7
:10344000892F809580FB90F9909335028091350209
:103450000E9437170E944517909378028093770255
:1034600080EE0E94B619882341F080917702982F50
:10347000909590FB80F98093770289E30E94B619BA
:10348000882359F08091770281FB222720F991E06F
:10349000922790FB81F98093770282EE0E94B61901
:1034A000882359F08091770282FB222720F991E04E
:1034B000922790FB82F98093770286EE0E94B619DC
:1034C000882359F08091770283FB222720F991E02D
:1034D000922790FB83F98093770283EE0E94B619BE
:1034E000882359F08091770284FB222720F991E00C
:1034F000922790FB84F98093770285E30E94B619A6
:10350000882359F08091770285FB222720F991E0EA
:10351000922790FB85F98093770281E30E94B61988
:10352000882359F08091770286FB222720F991E0C9
:10353000922790FB86F98093770281E10E94B61969
:10354000882359F08091770287FB222720F991E0A8
:10355000922790FB87F98093770280917702909170
:1035600078020E94561787E20E94B619C82F8EE192
:103570000E94B6198111C2608FE10E94B6198111B3
:10358000C46080E20E94B6198111C86081E20E9485
:10359000B6198111C06182E20E94B6198111C06220
:1035A00083E20E94B6198111C06484E20E94B619B8
:1035B000882311F0C06802C0CC2329F08C2F0E9410
:1035C00040176C2F03C00E943C17682F70E080E00A
:1035D00090E00E949F148FE00E94B619882319F092
:1035E00081E00E94DD1785E10E94B619882321F051
:1035F00080E0CF910C94DD17CF91089580913E0229
:1036000080FF0BC06091170185E0689FB001112415
:1036100075956795759567952BC081FF09C0609179
:10362000170185E0689FB00111247595679520C04A
:1036300082FF07C06091170185E0689FB0011124E7
:1036400017C090913D029923D1F060911601961711
:1036500088F72091170185E0289F90011124929FFF
:10366000A001939F500D112470E0CA010E94C42450
:103670006038710540F46115710519F406C065E004
:1036800070E0862F08958FE7089581E00895809176
:103690003E0280FF08C06091130170E07595679548
:1036A0007595679521C081FF06C06091130170E098
:1036B0007595679519C082FF04C06091130170E091
:1036C00010C090913D02992399F0609112019617D4
:1036D000A0F780911301899FC001112470E00E941E
:1036E000C4246038710540F46115710519F406C0F1
:1036F00061E070E0862F08958FE7089581E00895D6
:10370000803F21F40E94FE1A819504C0813F29F474
:103710000E94FE1A809342020895823F21F40E9483
:10372000FE1A819504C0833F29F40E94FE1A8093FB
:1037300041020895893F19F40E94471B05C08A3F42
:1037400031F40E94471B81958093430208958B3F7B
:1037500021F40E94471B819504C08C3F29F40E94EC
:10376000471B809344020895843F21F480914002D6
:10377000816017C0853F21F480914002826011C0B2
:10378000863F21F48091400284600BC0873F21F482
:1037900080914002886005C0883F31F480914002EA
:1037A00080618093400208958D3F21F480913E0214
:1037B00081600BC08E3F21F480913E02826005C083
:1037C0008F3F29F480913E02846080933E020895E9
:1037D000803F39F48091420287FF6CC01092420210
:1037E00069C0813F29F4809142021816BCF362C07F
:1037F00090914102823F29F497FF5CC010924102F0
:1038000059C0833F19F41916CCF354C0893F41F4D1
:103810008091430218160CF04DC0109243024AC02A
:103820008A3F29F48091430287FF44C0F6CF8B3F43
:1038300039F48091440287FF3DC0109244023AC09F
:103840008C3F29F4809144021816BCF333C0843FA6
:1038500021F4809140028E7F17C0853F21F4809132
:1038600040028D7F11C0863F21F4809140028B7F02
:103870000BC0873F21F480914002877F05C0883FBD
:1038800031F4809140028F7E8093400213C08D3FBF
:1038900021F480913E028E7F0BC08E3F21F48091F7
:1038A0003E028D7F05C08F3F29F480913E028B7FC1
:1038B00080933E028091410281110EC080914202AC
:1038C00081110AC080914302811106C08091440297
:1038D000811102C010923D0208958FE392E00E9490
:1038E000C00B0E942E1990933C0280933B020895D6
:1038F000CF93DF9300D000D000D0CDB7DEB786E005
:10390000EFE3F2E0DE01119601900D928A95E1F766
:1039100080914102811105C080914202882309F4FF
:103920007AC08091390290913A020E943A19AC0112
:1039300090913D02992339F02091180130E024172D
:10394000350758F068C0209119018AE0289F90013E
:1039500011242417350718F05EC09F3F19F09F5FB0
:1039600090933D02109243021092440280914102D2
:10397000181624F40E94FE1A80934102809141029D
:1039800087FF05C00E94FE1A8195809341028091B5
:103990004202181624F40E94FE1A8093420280917B
:1039A000420287FF05C00E94FE1A81958093420261
:1039B000309141023323E1F0209142022223C1F0F1
:1039C00045EB3403C0011124992319F0909341026F
:1039D00003C081E08093410235EB2303C001112431
:1039E000992319F09093420203C081E08093420230
:1039F0000E946D1C80913B0290913C0290933A0290
:103A00008093390286E0FE013196AFE3B2E0019087
:103A10000D928A95E1F780914302811105C0809152
:103A20004402882309F47AC08091370290913802C9
:103A30000E943A19AC0190913D02992339F02091EE
:103A4000140130E02417350758F068C020911501A3
:103A50008AE0289F900111242417350718F05EC0D2
:103A60009F3F19F09F5F90933D0210924102109288
:103A7000420280914302181624F40E94471B80934F
:103A800043028091430287FF05C00E94471B819536
:103A90008093430280914402181624F40E94471B2D
:103AA000809344028091440287FF05C00E94471B17
:103AB000819580934402309143023323E1F02091B9
:103AC00044022223C1F045EB3403C00111249923A1
:103AD00019F09093430203C081E08093430235EBD9
:103AE0002303C0011124992319F09093440203C0C9
:103AF00081E0809344020E946D1C80913B02909172
:103B00003C02909338028093370286E0FE013196A2
:103B1000AFE3B2E001900D928A95E1F726960FB6D9
:103B2000F894DEBF0FBECDBFDF91CF910895EFE3D4
:103B3000F2E086E0DF011D928A95E9F710923D02DE
:103B400010923E020895809165020895CF93DF930D
:103B500000D01F92CDB7DEB790917D02943019F559
:103B600089837B836A8382E08093E9008FEF909161
:103B7000E800815095FD06C095ED9A95F1F700009B
:103B80008111F5CF8091E80085FF0DC040E050E045
:103B900063E070E0CE0101960E9402208091E8006F
:103BA0008E778093E8000F900F900F90DF91CF9168
:103BB0000895CF93DF93EC010E94E51F823011F04E
:103BC000843031F4BE0184E0DF91CF910C94A61DC6
:103BD000DF91CF910895BC0183E00C94A61DCF9393
:103BE000DF93EC010E94E51F823011F08430F9F47C
:103BF00082E08093E9008FEF9091E800815095FD7D
:103C000006C095ED9A95F1F700008111F5CF8091EE
:103C1000E80085FF0CC040E050E066E070E0CE01B7
:103C20000E9402208091E8008E778093E800DF9167
:103C3000CF910895CF93DF93EC010E94E51F82306E
:103C400011F08430D9F580912401882339F08091D6
:103C5000770287FF03C060E282E002C068E081E093
:103C60008093E9008FEF9091E800815095FD06C0A8
:103C700095ED9A95F1F700008111F5CF8091E8005C
:103C800085FF1CC080912401811105C040E050E0F7
:103C900068E070E003C070E040E050E0CE010E94B8
:103CA00002208091E8008E778093E80080E2FE0198
:103CB000A5E4B2E001900D928A95E1F7DF91CF91F2
:103CC000089580917C02811109C00E9493210E9475
:103CD000F0218091E20084608093E20008951092C8
:103CE0007C020895089508950C94F21842E061EC66
:103CF00081E00E940C2142E261EC82E00C940C21F4
:103D000080917F02833009F460C030F4813071F01B
:103D1000823009F499C008958A3009F485C08B3047
:103D200009F46BC0893009F0A7C020C080917E02E1
:103D3000813A09F0A1C08091E800877F8093E80074
:103D40008091820290918302892B21F460E285E4C4
:103D500092E003C060E080E090E070E00E944D20BF
:103D60008091E8008B778093E800089580917E022F
:103D7000813209F081C08091820290918302029782
:103D800008F07AC08091E800877F8093E8008091F6
:103D9000E80082FD05C080917D028111F8CF6CC0E2
:103DA0002091F3008091F20090E0922B029729F489
:103DB0008091F1008B7F813021F48091F10080931C
:103DC00065028091E8008B7753C080917E02813A32
:103DD00009F052C08091820290918302892B09F0F0
:103DE0004BC08091E800877F8093E8008091E800D5
:103DF00080FFFCCF8091240136C080917E02813209
:103E0000D9F58091820290918302892BA9F5809146
:103E1000E800877F8093E8000E9441218091800222
:103E2000809324010C94A91080917E02813221F5A7
:103E30008091E800877F8093E8000E944121809173
:103E4000810280936602089580917E02813AA1F4F6
:103E50008091E800877F8093E8008091E80080FFF0
:103E6000FCCF809166028093F1008091E8008E770C
:103E70008093E8000C944121089584B7877F84BF24
:103E80000FB6F894A89580916000886180936000D7
:103E9000109260000FBE90E080E80FB6F894809317
:103EA0006100909361000FBE0E940A0C0E94932152
:103EB0000E94F0218091E20084608093E200789477
:103EC0000E9485240E94140C8AE191E00E94950BC7
:103ED00080917D02853069F40E94BD1880917B023B
:103EE0008823B1F30E94A518882391F30E94EC1F48
:103EF000EFCF0E941E0CECCF0C947E1F292F33278E
:103F000023303105C9F060F42130310581F02230D1
:103F1000310509F04AC08BE390E020E032E049C06F
:103F20002132310511F12232310579F13EC082E1B1
:103F300090E02BE332E03DC099278130910561F09C
:103F400040F08230910559F0039779F5E2ECF1E009
:103F500008C0ECEFF1E005C0EAEDF1E002C0E8ECEA
:103F6000F1E0849190E09F0124C06115710541F05A
:103F700061307105D1F489E090E02BE232E019C0A4
:103F800089E090E022E132E014C06115710541F052
:103F90006130710551F48CEB90E02DE432E009C002
:103FA00080E490E029E033E004C080E090E020E08D
:103FB00030E0FA0131832083089580917D028430BE
:103FC00011F081E0089582E00895809167028111E7
:103FD00002C00C94DD1F089580E189BD82E189BD96
:103FE00009B400FEFDCF8091D8008F7D8093D8006A
:103FF0008091E00082608093E0008091E00081FD8C
:10400000FCCF0895CF92DF92EF92FF920F931F9310
:10401000CF93DF93EC018B017A010E946021811123
:1040200033C0E114F10439F0F70180819181081B5C
:10403000190BC80FD91FC12CD12C0115110519F16D
:104040008091E80085FD16C08091E8008E7780930E
:10405000E800E114F10449F0F70180819181C80E74
:10406000D91ED182C08285E00FC00E9460218823C2
:1040700021F30AC089918093F10001501109FFEFEB
:10408000CF1ADF0ADACF80E0DF91CF911F910F9135
:10409000FF90EF90DF90CF900895209184023091AF
:1040A00085022617370748F06115710539F420910C
:1040B000E8002E772093E80001C0B901FC0120E060
:1040C0006115710579F180917D028823F1F18530C8
:1040D000F1F18091E80083FD3CC08091E80082FD11
:1040E0002EC08091E80080FFEBCF2091F3008091FB
:1040F000F20090E0922B6115710551F08830910526
:1041000038F421912093F100615071090196F3CFA9
:1041100021E0089709F020E08091E8008E778093F5
:10412000E800CECF2111CFCF0AC080917D02882335
:1041300061F0853061F08091E80083FD0AC08091D4
:10414000E80082FFF2CF80E0089582E0089583E0E6
:10415000089581E008952091840230918502261708
:10416000370748F06115710539F42091E8002E7782
:104170002093E80001C0B901FC0120E06115710540
:1041800091F180917D02882309F440C0853009F4C3
:104190003FC08091E80083FD3DC08091E80082FD32
:1041A0002FC08091E80080FFE9CF2091F30080913B
:1041B000F20090E0922B6115710559F0883091055D
:1041C00040F424912093F1003196615071090196D9
:1041D000F2CF21E0089709F020E08091E8008E7787
:1041E0008093E800CBCF2111CCCF0AC080917D0213
:1041F000882361F0853061F08091E80083FD0AC07A
:104200008091E80082FFF2CF80E0089582E0089577
:1042100083E0089581E00895982F973068F5909392
:10422000E900981739F07091EC002091ED00509161
:10423000F00003C0242F762F50E021FD02C09F5FC5
:10424000ECCF3091EB003E7F3093EB003091ED00EE
:104250003D7F3093ED003091EB0031603093EB0007
:104260007093EC002093ED005093F0002091EE004D
:1042700027FDE5CF80E008958F708093E90081E00D
:10428000089580917E0287FF11C08091E80082FD31
:1042900005C080917D028111F8CF11C08091E800A6
:1042A0008B770BC080917D02882349F08091E800D4
:1042B00080FFF8CF8091E8008E778093E800089522
:1042C0002091E4003091E50095E64091EC00842FC8
:1042D000817040FF23C08091E80080FD1DC0809167
:1042E0007D02882399F0853099F08091EB0085FD5F
:1042F00011C04091E4005091E5002417350729F3DF
:10430000915011F09A01E1CF84E0089582E0089580
:1043100083E0089581E0089580E008954091E800E9
:1043200042FFDDCF08950E9401220E940922E0EEA3
:10433000F0E0808181608083E8EDF0E080818F771C
:10434000808319BCA7EDB0E08C918E7F8C93808127
:104350008F7E808310927C0208950F931F93CF93DA
:10436000DF930E9401220E940922C8EDD0E08881DB
:104370008F77888388818068888388818F7D888310
:1043800019BC10927D021092790210927B02109259
:104390007A0200EE10E0F80180818B7F80838881B3
:1043A0008160888342E060E080E00E940C21E1EEC1
:1043B000F0E080818E7F8083E2EEF0E0808181609A
:1043C0008083808188608083F80180818E7F8083F4
:1043D000888180618883DF91CF911F910F9108952B
:1043E000E8EDF0E080818F7E8083E7EDF0E0808172
:1043F0008160808384E082BF81E080937C020C94A2
:10440000AD21E8EDF0E080818E7F80831092E200A4
:1044100008951092DA001092E10008951F920F9211
:104420000FB60F9211242F933F934F935F936F9387
:104430007F938F939F93AF93BF93EF93FF9380915D
:10444000E10082FF0BC08091E20082FF07C08091F3
:10445000E1008B7F8093E1000E9484248091DA0048
:1044600080FF1FC08091D80080FF1BC08091DA00C0
:104470008E7F8093DA008091D90080FF0DC080E1AB
:1044800089BD82E189BD09B400FEFDCF81E0809342
:104490007D020E94611E05C019BC10927D020E941F
:1044A0006F1E8091E10080FF19C08091E20080FFC3
:1044B00015C08091E2008E7F8093E2008091E2003F
:1044C00080618093E2008091D80080628093D80060
:1044D00019BC85E080937D020E94731E8091E100EB
:1044E00084FF30C08091E20084FF2CC080E189BD50
:1044F00082E189BD09B400FEFDCF8091D8008F7D97
:104500008093D8008091E1008F7E8093E1008091BC
:10451000E2008F7E8093E2008091E20081608093D0
:10452000E20080917902882311F084E007C0809135
:10453000E30087FD02C081E001C083E080937D023B
:104540000E94741E8091E10083FF29C08091E200E7
:1045500083FF25C08091E100877F8093E10082E0A6
:1045600080937D02109279028091E1008E7F80938A
:10457000E1008091E2008E7F8093E2008091E20072
:1045800080618093E20042E060E080E00E940C21C4
:104590008091F00088608093F0000E94721EFF916D
:1045A000EF91BF91AF919F918F917F916F915F91AB
:1045B0004F913F912F910F900FBE0F901F90189524
:1045C0001F920F920FB60F9211242F933F934F9388
:1045D0005F936F937F938F939F93AF93BF93CF938B
:1045E000DF93EF93FF93C091E900CF708091EC00CF
:1045F000D82FD17080FDD0E81092E9008091F000B2
:10460000877F8093F00078940E9424231092E90021
:104610008091F00088608093F000CD2BCF70C09324
:10462000E900FF91EF91DF91CF91BF91AF919F9101
:104630008F917F916F915F914F913F912F910F904B
:104640000FBE0F901F9018951F93CF93DF93CDB798
:10465000DEB7AA970FB6F894DEBF0FBECDBFEEE768
:10466000F2E08091F100819322E0E638F207C9F789
:104670000E94801E8091E80083FF2EC180917E02FF
:1046800090917F02492F50E04A30510508F024C133
:10469000FA01EC58FF4F0C94FA24803821F082384C
:1046A00009F01AC108C080917A0290917B02992387
:1046B00089F082600FC0809182028F70873008F08D
:1046C0000BC18093E9008091EB0085FB882780F97E
:1046D0001092E9009091E800977F9093E800809312
:1046E000F1001092F100D1C0282F2D7F09F0F4C005
:1046F000882319F0823061F0EFC080918002813010
:1047000009F0EAC0933009F080E080937B022EC06C
:104710008091800281112AC0809182028F702FEFD8
:10472000280F263008F0D8C08093E9002091EB00D4
:1047300020FF1CC0933021F48091EB00806214C0F4
:104740009091EB0090619093EB0021E030E0A901A3
:1047500002C0440F551F8A95E2F74093EA00109279
:10476000EA008091EB0088608093EB001092E900F2
:104770008091E800877F8093E8000E944121ACC0CF
:104780008111AAC0109180021F778091E300807888
:10479000812B8093E3008091E800877F8093E8007D
:1047A0000E9441218091E80080FFFCCF8091E300CE
:1047B00080688093E300111102C082E001C083E0B1
:1047C00080937D0289C08058823008F085C0809136
:1047D0008002909181028C3D53E0950779F583E04A
:1047E0008A838AE289834FB7F894DE01139620E02A
:1047F0003EE051E2E32FF0E050935700E49120FFB8
:1048000003C0E295EF703F5FEF708E2F90E0EA30CB
:1048100010F0C79601C0C0968D939D932F5F2431F1
:1048200049F74FBF8091E800877F8093E8006AE2F4
:1048300070E0CE0101960E944D2016C06091820268
:1048400070918302AE014F5F5F4F0E947C1FBC01DD
:10485000892B09F441C09091E800977F9093E8007C
:1048600089819A810E94AB208091E8008B778093A8
:10487000E80032C0803881F58091E800877F80931E
:10488000E800809179028093F1008091E8008E77B2
:1048900072CF811121C0809180029091810299276D
:1048A0000297D4F48091E800877F8093E80080919C
:1048B0008002809379020E944121809179028111C6
:1048C00006C08091E30087FD02C081E001C084E062
:1048D00080937D020E94761E8091E80083FF0AC0CB
:1048E0008091E800877F8093E8008091EB008062F0
:1048F0008093EB00AA960FB6F894DEBF0FBECDBF33
:10490000DF91CF911F9108950895CF9380917D02FB
:104910008823A1F0C091E900CF709091EC00892F1D
:10492000817090FD80E8C82B1092E9008091E8002A
:1049300083FD0E942423CF70C093E900CF91089596
:10494000DB018F939F930E940F25BF91AF91A29F90
:10495000800D911DA39F900DB29F900D112408957D
:10496000AA1BBB1B51E107C0AA1FBB1FA617B70795
:1049700010F0A61BB70B881F991F5A95A9F78095B1
:104980009095BC01CD01089597FB072E16F4009475
:1049900007D077FD09D00E94B02407FC05D03EF473
:1049A000909581959F4F0895709561957F4F0895DB
:1049B000A1E21A2EAA1BBB1BFD010DC0AA1FBB1F23
:1049C000EE1FFF1FA217B307E407F50720F0A21B95
:1049D000B30BE40BF50B661F771F881F991F1A9402
:1049E00069F760957095809590959B01AC01BD012C
:1049F000CF010895EE0FFF1F0590F491E02D09946B
:104A0000A29FB001B39FC001A39F700D811D11240F
:104A1000911DB29F700D811D1124911D08950E945A
:104A20000025A59F900DB49F900DA49F800D911D12
:104A300011240895F999FECF92BD81BDF89A992766
:104A400080B50895A8E1B0E042E050E00C944E2516
:104A5000262FF999FECF92BD81BDF89A019700B437
:104A6000021639F01FBA20BD0FB6F894FA9AF99AD7
:104A70000FBE08950396272F0E9429250E942825FE
:104A8000252F0E942925242F0C9429250196272FB4
:104A90000E9429250C942825DC01CB01FC01F99901
:104AA000FECF06C0F2BDE1BDF89A319600B40D927A
:0C4AB00041505040B8F70895F894FFCF33
:104ABC00BC01290000B601330000B0014C0000011C
:104ACC0012022808641E140A321EA31D1A1EEF1DA2
:104ADC00EB1DD91D01E200E900EA00B500B600B7F4
:104AEC0000CD008301CC008A0192019401210223A4
:104AFC000224022502260227022A02B300B4006F08
:104B0C0000700081828334C697669490F7313332FB
:104B1C0036E200E900EA00B500B600B700CD00832C
:104B2C0001CC008A01920194012102230224022566
:104B3C0002260227022A02B300B4006F0070008123
:024B4C00828362
:00000001FF
