:100000000C94A5010C94EC010C94EC010C94EC0103
:100010000C94EC010C94EC010C94EC010C94EC01AC
:100020000C94EC010C94EC010C9411220C94E3223E
:100030000C94FF180C94EC010C94EC010C94EC0162
:100040000C94EC010C94EC010C94EC010C94EC017C
:100050000C94EC010C944C190C94EC010C94EC01F4
:100060000C94EC010C94EC010C94EC010C94EC015C
:100070000C94EC010C94EC010C94EC010C94EC014C
:100080000C94EC010C94EC010C94EC010C94EC013C
:100090000C94EC010C94EC010C94EC010C94EC012C
:1000A0000C94EC010C94EC010C94EC01580E580EDD
:1000B0008A0E8A0ED10EEF0E10101010FA0E8F0F4E
:1000C000A00FA00F0010101010100910BE10BE10CD
:1000D000D010D010C710D010D010D010BE10BE104D
:1000E000CC10D010D010CC10502377236F2477235E
:1000F0006F24C323E6236F243D244C240600130001
:10010000190012001A000D00180007001B00100053
:100110000F620C00154208000A5D095D16001742C7
:100120000400117209611C640B14146828000B5D33
:1001300005780A640E741D61230220021F02240246
:10014000310257005F006000610054002F622F02EF
:1001500026022702221456005C005D005E006272D7
:10016000366137642F142F685800670059785A6435
:100170005B745561230220021F02240231025700E2
:100180005F006000610054000C620D5D0E5D0F5D4C
:10019000221456005C005D005E00627236613764B6
:1001A0002F142F685800670059785A645B745561A2
:1001B00010001B000000360037000000060013008E
:1001C00000000403300000001003470068006500D1
:1001D00072006B0069006E000000200334003000E4
:1001E0002000500065007200630065006E0074001E
:1001F000200043006C007500620000000403090445
:1002000009023B00020100A0FA09040000010301F9
:1002100001000921110100012240000705810308A6
:10022000000A090401000103000000092111010076
:100230000122BC000705820320000A120110010000
:10024000000008EDFE6060010001020301050109E4
:1002500002A10185020901A100050919012905155D
:100260000025019505750181029501750381010540
:1002700001093009311581257F950275088106092C
:10028000381581257F950175088106050C0A38020D
:100290001581257F950175088106C0C0050109807B
:1002A000A101850319012AB700150126B7009501A0
:1002B00075108100C0050C0901A101850419012AEE
:1002C000A002150126A002950175108100C005014C
:1002D0000906A1018505050719E029E71500250193
:1002E0009508750181020507190029EF1500250100
:1002F00095F075018102050819012905950575011B
:100300009102950175039101C005010906A101053E
:100310000719E029E7150025019508750181029567
:1003200001750881010507190029FF150026FF0046
:1003300095067508810005081901290595057501BF
:100340009102950175039101C00011241FBECFEFEA
:10035000DAE0DEBFCDBF04B603FE27C08091B00255
:100360009091B102A091B202B091B3028730904B4C
:10037000A740B04BD1F41092B0021092B10210928B
:10038000B2021092B30214BE84B7877F84BF0FB647
:10039000F894A89580916000886180936000109225
:1003A00060000FBEE0E0F8E3099511E0A0E0B1E0E5
:1003B000E2ECFAE402C005900D92AC3BB107D9F72C
:1003C00022E0ACEBB1E001C01D92A03BB207E1F727
:1003D0000E94401F0C945F250C9400001F93CF9344
:1003E000DF9389509D4526E0289FF001299FF00D5D
:1003F0001124E050FF4FD181C381DB0112968C9113
:10040000882359F015810E947A1681FD0DC00E9443
:100410007A1685FF14C0D5EE08C08C2F0E94990D66
:100420008D2F0E94990D0EC0D1EE112311F08C2F4B
:1004300007C08D2F0E94990D8C2F0E94EF0C8D2FDD
:100440000E94EF0C80E0DF91CF911F9108959C01F5
:1004500028503D452830310510F40C94EE0181E020
:1004600008959C013A9521153F4138F5DC01AA27F2
:10047000B270AC01442754709C012227387094FF5D
:100480000FC090FF02C080E101C080E0AB2B09F0FB
:100490008062452B09F08064232B69F080680BC0D3
:1004A000892F8170AB2B09F08260452B09F08460A5
:1004B000232B09F08860FB0109940895CF93DF9303
:1004C000EC01805E9109089710F0209719F464E11F
:1004D0007EE002C064E870E1CE010E9431028C2F00
:1004E000DF91CF910C94EF0CCF93DF93EC010E943E
:1004F000990DCE01805E9109089710F0209719F4AC
:100500006BE17EE002C06BE870E1CE01DF91CF913C
:100510000C94310281E008950C94270208950C9404
:100520008E021F93CF93DF9300D000D01F92CDB7E0
:10053000DEB749835A836B833091E50189819A81C3
:10054000311114C0662359F0222349F00E94F91595
:10055000182F682F89819A810E94A01503C00E94DC
:10056000CC15182F69817A81812F04C00E94F9155A
:1005700069817A810F900F900F900F900F90DF910B
:10058000CF911F910C945303FC01262F4081518180
:100590006281738184810C949102CF93DF93EC018B
:1005A00060E00E94C402BE01DF91CF910C948F02E3
:1005B0000E942B17811102C00E94DE170E94EF07D4
:1005C0000C946F050E94310A0C946B0508950C94ED
:1005D000E60281E008950C94E902CF93C82F0E94AF
:1005E000E7028C2F0E94EB02CF91089508950E949C
:1005F000AC100E94F6022FEF84E39CE02150804073
:100600009040E1F700C000000C9472190F931F9303
:10061000CF93DF93EC0161E00E94C4028C01BE0124
:100620000E948C028823A9F1BE01C8010E945807CC
:10063000882379F1BE01C8010E945E0A882349F12E
:10064000BE01C8010E947308882319F1BE01C801C8
:100650000E94B4088823E9F0BE01C8010E94DF09A6
:100660008823B9F08A81882369F001158CE5180781
:1006700031F00E3D1C4531F40E94DE170AC00E9485
:10068000F70207C0CE01DF91CF911F910F910C941B
:100690008A0280E0DF91CF911F910F91089580E051
:1006A00090E0089508952EE1829FC0011124FC017D
:1006B00026E0729FE00DF11D1124E60FF11DEE0FF3
:1006C000FF1FE450FF4F859194910895880F991F63
:1006D000FC01EE53FE4F859194910895CF93DF93E3
:1006E0000E9453030E948604EC018115904508F096
:1006F00041C0C11580E4D80708F0D1C0C83ED1057B
:1007000010F5C03ED10508F0FDC0C83AD10578F417
:10071000C53AD10508F0A2C0C130D10509F4F2C034
:1007200008F4EEC0C430D10508F0ECC0E9C0CF3BFE
:10073000D10508F49BC0C03CD10508F4E1C0CE014E
:10074000805C91099EC0C11590E2D90758F4C1158B
:1007500021E0D20708F0D6C0C03FD10508F4D0C0D0
:10076000D065D0C0C11580E3D80708F08EC0CE0197
:100770009F7087C0C11595E5D90708F043C0C11522
:1007800024E5D20708F0A2C0C11582E5D80708F514
:10079000C11591E5D90708F085C0CE0174E09695A2
:1007A00087957A95E1F783709C2F937021E030E074
:1007B00002C0220F331F9A95E2F73C68382BCF70A6
:1007C000C695C69580E2C89FE0011124C22BD32BA9
:1007D00099C09E01237033278C2F86958695C1156D
:1007E000D34508F064C0C1E0D0E002C0CC0FDD1FEB
:1007F0002A95E2F720E2829FC0011124C82BD92B51
:10080000DC6880C0C11529E5D207A0F4C11588E5D0
:10081000D80708F060C0C11596E5D90708F070C088
:100820008C2F0E941A058F71C82FD0E0DC2FCC27A7
:10083000D06268C0C1152AE5D20708F451C0CE01C4
:1008400090568115904208F05BC08D2F8F710E94E9
:100850001A05DD27D0628F71D82B54C0C55AD0E05D
:10086000C358DE4FC881D0E0D0644CC0C85AD0E035
:10087000CC0FDD1FC15BDE4F0990D881C02DD46441
:1008800041C00E946603EC013DC0CE019927D3FF11
:1008900003C0EC01D86C36C0EC01D06C33C0DF7003
:1008A000D06A30C0DC2FCC27C16FD06A2BC0C1E02A
:1008B000D0E002C0CC0FDD1F2A95E2F720E2829F34
:1008C000C0011124C82BD92BDA681CC0DC2FCC271F
:1008D000C46FD06A17C0DC2FCC27C06FD06A12C09B
:1008E0008C2F8F700E941A0594E0D695C7959A9523
:1008F000E1F7CF70D0E0DC2FCC27D069C82B02C045
:10090000C0E0D0E0CE01DF91CF910895823891050B
:1009100069F1B0F48133910509F46DC048F489326E
:10092000910509F463C08A32910509F469C00895FC
:100930008533910509F455C089339105B9F00895BF
:10094000833E910569F138F4803E9105B1F0823E15
:10095000910509F10895863E9105A9F1873E91051B
:10096000B9F1843E910509F064C023C02091A10231
:1009700020FD4FC021FD4DC008958091A10280FD52
:1009800044C08091A20280FF44C08091A10284FDF6
:1009900042C083EE4DC08091A10282FF38C0F5CFE6
:1009A0008091A10282FD33C08091A20280FD31C0FE
:1009B000ECCF8091A20281FF32C08091A10284FD20
:1009C0002AC087EE35C08091A10283FF26C0F5CFF3
:1009D0008091A10283FD21C08091A20281FD1FC0F0
:1009E000ECCF8091A10285FD1CC01DC08091A102A9
:1009F00085FD19C016C08091A10286FD16C017C0E2
:100A00008091A10286FD13C010C089E311C082EE5F
:100A10000FC080EE0DC080E00BC086EE09C084EEF2
:100A200007C089E205C085E303C08AE201C081E313
:100A300090E008959091A10292FF0DC0282F287197
:100A4000283019F4877F846006C0282F2471243051
:100A500011F48B7F886093FF0DC0282F28712831F7
:100A600019F4877E846106C0282F2471243111F483
:100A70008B7E88612091A20220FF0DC0382F387133
:100A8000383019F4877F816006C0382F31713130DA
:100A900011F48E7F886021FF0DC0282F2871283126
:100AA00019F4877E816106C0282F2171213111F44C
:100AB0008E7E886194FD877E0895E82FF0E0E956E8
:100AC000FD4F80810895089580EA8A95F1F7089591
:100AD00008950C9468050C9469050C9468050C94B1
:100AE0006D05CF93DF93A6E8B1E04BE851E061E0FC
:100AF00070E08D91E82FE295EF70F0E021A18F700A
:100B0000EB0102C0CC0FDD1F8A95E2F7CE019C2FCE
:100B10009095922391A392A1892B82A34A175B07F8
:100B200041F7A0E8B1E046E851E061E070E08D9166
:100B3000E82FE295EF70F0E021A18F70EB0102C089
:100B4000CC0FDD1F8A95E2F7CE019C2F9095922362
:100B500091A392A1892B82A34A175B0741F7E2E98F
:100B6000F2E0A7E9B2E087E992E011921D928E17B8
:100B70009F07D9F785E00E944706DF91CF910C943B
:100B8000D8026F927F928F929F92AF92BF92CF9234
:100B9000DF92EF92FF920F931F93CF93DF9386E83C
:100BA000882E81E0982E02E912E097E9A92E92E0C2
:100BB000B92E712CCC24C394D12CF40181914F0116
:100BC000C82FC295CF70D0E099A18F70760101C077
:100BD000EE0C8A95EAF7892F8E2989A38AA16E2CBB
:100BE000609486218AA30E946405E0E8F1E040E079
:100BF00050E020E03191A32FA295AF70B0E0909625
:100C00008C9190E03F7002C0959587953A95E2F7F8
:100C100080FD07C08C2D042E01C0880F0A94EAF7CE
:100C200001C080E0282B4F5F5F4F4630510511F720
:100C300089A1682269A28AA1E82AEAA2F801808132
:100C4000281719F0208381E001C080E0782A0F5F27
:100C50001F4FA016B10609F0B0CF272D45E067E978
:100C600072E082E992E00E9448060E94E202872D2B
:100C7000DF91CF911F910F91FF90EF90DF90CF9078
:100C8000BF90AF909F908F907F906F900895089540
:100C9000FF920F931F93CF93DF938C01F62ED72FE4
:100CA000C42F222349F081E08093BE010E943119B4
:100CB0009093BD018093BC018091BE018823C1F057
:100CC0008091BC019091BD010E943D19069780F072
:100CD000EF2DFD2FD8014C2F50E0CD01801B910B43
:100CE000841795071CF48D918193F7CF1092BE0164
:100CF000DF91CF911F910F91FF9008950E942B17C4
:100D0000811102C00E94DE170E94661780939C0228
:100D1000282F26952695269530E02430310524F09D
:100D20008770886180939C0280919C0280FF04C040
:100D300086958695869501C080E00C948D0720915C
:100D40009C02822F869586958695482F50E04330E9
:100D5000510554F48F5F982F990F990F990F822F97
:100D60008770892B80939C0280919C028160809384
:100D70009C020E946A1780919C02869586958695B2
:100D80000C948D0780919C02982F96959695969538
:100D9000A1F0915E990F990F990F8770892B80931D
:100DA0009C02887F91E009F490E080919C0290FB86
:100DB00080F980939C020E946A1780919C0286951C
:100DC000869586950C948D0780919C0280FD13C0BA
:100DD000816080939C02813019F489E080939C02A9
:100DE00080919C020E946A1780919C02869586954C
:100DF00086950C948D07089580919C0280FF08C011
:100E00008E7F80939C020E946A1780E00C948D076D
:100E1000089580919C0280FD0C94FC060C94E406DD
:100E200090919C02892F8695869586958F5F8F710C
:100E30009770843038F4880F880F880F892B80933F
:100E40009C0202C090939C0280919C02887F91E05A
:100E500009F490E080919C0290FB80F980939C02C1
:100E60000E946A1780919C028695869586950C94BF
:100E70008D07843008F083E090919C029770282FB2
:100E8000220F220F220F922B90939C02987F21E039
:100E900009F420E090919C0220FB90F990939C0231
:100EA0000C948D070E94390780919C020C946A175C
:100EB0009C01FB018281882349F12D3BFCE53F0722
:100EC000C9F040F42B3BECE53E0769F02C3B3C4578
:100ED00061F008952F3B9CE5390791F070F0203CBC
:100EE0003C4589F0089583E001C080E00E945207EC
:100EF00080E008950E94C206FBCF0E949F06F8CFB3
:100F00000E940907F5CF0E941007F2CF81E00895F3
:100F1000259A2D9808952D980895CF92DF92EF92FB
:100F2000FF92CF93C82F843050F4811109C0809173
:100F300080008F77809380000E948B0706C0C3E0FB
:100F4000809180008068809380002C2F30E0AFEF8C
:100F5000BFEF0E94032523E030E040E050E00E9414
:100F6000DB24C9012C3764E1360728F469E070E01E
:100F70000E94B32429C0DA01C9018A50974DAF4FAE
:100F8000BF4F6627782F892F9A2F25EF38E241E04F
:100F900050E00E94DB2469017A01CA01B9010E9474
:100FA000A3249B01AC01C701B6010E94A324BB2767
:100FB000A92F982F872F009721E0A207B10511F0E4
:100FC000BC0102C06FEF7FEF7093890060938800CF
:100FD000CF91FF90EF90DF90CF90089508950E94F9
:100FE000880782E88093800089E1809381008FEFF9
:100FF0009FEF90938700809386000C947E060F935A
:101000001F93CF93DF93C62FD42F122FFC01828121
:101010008823C9F06093C1010E9431199093C001E7
:101020008093BF0180E28C0F883008F057C0C770F2
:1010300081E001C0880FCA95EAF7DF91CF911F9137
:101040000F910C94140E8091C101681330C08091EF
:10105000BF019091C0010E943D19883C910538F56F
:1010600000E20D0FCD17B9F080E28C0F883040F40C
:10107000C77081E001C0880FCA95EAF70E941B0E75
:10108000083028F581E09D2F977001C0880F9A9550
:10109000EAF70E94140E812F0E94010E0830F0F42E
:1010A000D77081E001C0880FDA95EAF70AC080E2C4
:1010B0008C0F883098F4C77081E001C0880FCA9502
:1010C000EAF7DF91CF911F910F910C941B0E812FA6
:1010D000DF91CF911F910F910C94010EDF91CF9171
:1010E0001F910F9108959C01CB01233F4CE53407DC
:1010F000F9F078F4283DFCE53F07B9F0293D4CE5CF
:10110000340711F1273D3C4531F526E241EE61EE11
:101110001EC0253FFCE53F0799F070F0263F3C4597
:10112000D1F427E245EE66EE12C027E245EE0EC08E
:1011300026E241EE60EE0BC027E245EE64EE07C00A
:1011400026E241EE62EE03C028E241E065EE0E9435
:10115000FF0780E00895FC018281882319F0109236
:10116000C101089581E00895CF93DF93EC01FB0165
:101170008281882309F41FC1C230FCE5DF0708F42F
:101180001BC1C6319CE5D90738F09E012A5F3C455A
:101190002930310508F010C10E9448179093A2022F
:1011A0008093A102C031ECE5DE0709F4C3C008F06A
:1011B00041C0C8308CE5D80709F49AC0F0F4C430B7
:1011C000ECE5DE0709F487C068F4C2308CE5D80787
:1011D00009F477C0C330DC4509F0E3C08091A10277
:1011E000826076C0C630ECE5DE0709F46EC008F018
:1011F0007BC08091A10288606BC0CC308CE5D807A1
:1012000009F485C068F4CA30ECE5DE0709F474C05F
:1012100008F079C00E94AC108091A102806858C08B
:10122000CE308CE5D80709F476C008F07FC08091F5
:10123000A1028BC0CB3FECE5DE0709F44FC018F5E7
:10124000C3318CE5D80709F47DC078F4C131ECE5F1
:10125000DE0709F473C0C231DC4509F0A2C00E9468
:10126000AC108091A1028F7733C0C5318CE5D807CF
:1012700009F472C008F486C0CA3FDC4509F091C089
:101280008091A2023EC0CF3FFCE5DF0709F45FC0BA
:1012900058F4CD3F9CE5D90709F444C008F43FC099
:1012A0008091A20282602DC0C130FDE5DF0709F404
:1012B00075C008F45DC0C230DD4509F072C080E041
:1012C0006EC08091A102816003C08091A102806103
:1012D0008093A10266C08091A10211C08091A202F8
:1012E00082608093A2025DC08091A1028062F0CFF3
:1012F0008091A1028064ECCF8091A102886084601B
:10130000E7CF8160EECF8091A1028E7FE1CF809107
:10131000A1028D7FDDCF8091A102877FD9CF8091FF
:10132000A20218C08091A2028D7FDBCF8091A10222
:101330008F7ECECF8091A1028F7DCACF8091A102F6
:101340008F7BC6CF8091A102877F8B7FC1CF809199
:10135000A2028D7F8E7FC5CF8091A10282FB2227C2
:1013600020F991E0922790FB82F990FB83F9B0CFAE
:101370008091A202982F909591708E7F892B90FB7F
:1013800081F9AFCF0E94AC108091A10287FB222788
:1013900020F991E0922790FB87F99ACF81E00E9493
:1013A000E0178091A1029091A2020E9459170E9419
:1013B000AC1080E001C081E0DF91CF910895CF9320
:1013C000DF9386319C4541F5EB010E947A16982FF8
:1013D0008A8120913A0130913B01882379F09A7AF1
:1013E00081E009F480E08093C201911102C069E2BA
:1013F00001C065E3C9010E947B180AC08091C20147
:10140000811102C069E201C065E3C9010E9486182A
:101410000E94C81680E001C081E0DF91CF9108955D
:10142000CF939091D3019923C9F0882311F0C0E0A4
:1014300003C01092D30112C08091D301C817C8F71E
:10144000EC2FF0E0EE0FFF1FED53FE4F80819181F6
:101450000E945E020E94C816CF5FEECFCF91089522
:101460000895809139018823A1F08091D4018823C7
:1014700081F08091D7019091D801009751F00E949E
:101480003D19893C910528F01092D40181E00C941B
:10149000100A08951092D401109239011092D801C7
:1014A0001092D70181E00C94100A809139018111CA
:1014B0000C944A0A81E08093390108955F926F92FB
:1014C0007F928F929F92AF92BF92CF92DF92EF92D4
:1014D000FF920F931F93CF93DF938C017B011092A8
:1014E000D501873F2CE5920741F4FB01C281CC2353
:1014F000C9F081E0809339010AC1883FFCE59F076C
:1015000039F4FB01C281CC2369F00E944A0AFFC072
:10151000893F9C4539F4FB01C281CC2319F00E941C
:10152000550AF5C080913901882309F4EFC0109263
:10153000D601AA24A394B12C95E0992EC1E0D0E065
:10154000882483948091D601833008F0A1C0C82EEE
:10155000D12C9C9CF0019D9CF00D1124E65DFE4F6A
:101560004081518177247A9490E0FA01E90FF11DCE
:10157000E90FF11D259134910217130709F4792E13
:10158000232B11F09F5FF1CFFFEF7F1202C0612C80
:1015900066C05090D401F7016280662069F19C9C7E
:1015A000F0019D9CF00D1124E65DFE4F9E0101C0EF
:1015B000220F7A94EAF73481232B2483552039F3C0
:1015C000AE0102C0440F551F9A95E2F741505109F0
:1015D00030E04217530709F042C0228133812115C0
:1015E000310521F0C9010E945E0203C061E00E9442
:1015F000300A8092D50133C09E0102C0220F331FF2
:101600009A95E2F7215031099C9CF0019D9CF00DC8
:101610001124E65DFE4F448150E02417350769F43C
:10162000228133812115310521F0C9010E94740204
:1016300005C060E00E94300A01C0512C9C9CF00162
:101640009D9CF00D1124E65DFE4FCE0101C0880F78
:101650007A94EAF78095948189238483652CB6284F
:10166000AA2069F09C9CF0019D9CF00D1124E65D80
:10167000FE4F91E08481811190E0892F01C080E0CC
:101680008170A82E8091D6018F5F8093D6015ACFAA
:101690008091D501882351F00E9431199093D8018F
:1016A0008093D70180E00E94100A2CC0B1100DC0B9
:1016B00081E00E94100AAA2029F11092D80110920C
:1016C000D70181E08093D4011DC0F7018281882376
:1016D000C9F08091D4018823A9F00E943119909318
:1016E000D8018093D701E091D301E83058F481E02C
:1016F0008E0F8093D301F0E0EE0FFF1FED53FE4FEE
:101700001183008381E0CB2DC82701C0C1E08C2F5D
:10171000DF91CF911F910F91FF90EF90DF90CF90CD
:10172000BF90AF909F908F907F906F905F90089543
:101730009093DE018093DD010895E091DD01F09149
:10174000DE01309721F00190F081E02D099480E0D6
:101750000895E091DD01F091DE01309799F020913C
:101760004E01222359F02091A10227FF07C0DC017E
:101770002C9111962C93119725E02C930280F381E4
:10178000E02D09940895E091DD01F091DE0130979C
:1017900039F022E0DC012C930480F581E02D0994DE
:1017A00008952091DB013091DC012817390771F091
:1017B0009093DC018093DB01E091DD01F091DE018B
:1017C000309721F00680F781E02D0994089520914B
:1017D000D9013091DA012817390771F09093DA01B5
:1017E0008093D901E091DD01F091DE01309721F085
:1017F0000084F185E02D0994089585B7806885BF40
:1018000085B7806885BF089508950C94040C0C94E6
:10181000050C0C94040C0C94040C0E94FD0B0E940B
:10182000090C0C94070C81E008950C94130C0E9491
:1018300028190E9471050E94C7190E947E060C9407
:101840000B0CAF92BF92CF92DF92EF92FF920F9369
:101850001F93CF93DF93CDB7DEB72A970FB6F894D7
:10186000DEBF0FBECDBF0E94C1050E94150C8111C5
:1018700011C08FEF89838A831B820E943119816096
:10188000782F9D838C8349815A816B818D810E9441
:10189000BB0C40C080EEA82E81E0B82E00E010E026
:1018A000C02E802F0E945D05E82EF501D1905F01CA
:1018B000D82631F40F5F1F4F0530110589F7D9CFB6
:1018C00080915F0281FD0E94630580E0FF24F39414
:1018D0009D2D9F21D1F08E83CF82EF2081E009F4EE
:1018E00080E088870E9431198160782F9A878987E4
:1018F0004E815F8168858A850E94BB0CF801E052A9
:10190000FE4F8081F826F08205C08F5FFF0C863085
:10191000F9F6D0CF0E94EE070E947B1C0E949D0B1F
:101920009091DF018917B1F00E949D0B8093DF0138
:101930002A960FB6F894DEBF0FBECDBFDF91CF91D0
:101940001F910F91FF90EF90DF90CF90BF90AF90DD
:101950000C94ED022A960FB6F894DEBF0FBECDBFF1
:10196000DF91CF911F910F91FF90EF90DF90CF907B
:10197000BF90AF900895CF93DF93CDB7DEB72B978D
:101980000FB6F894DEBF0FBECDBF4F83588769876F
:101990007A878B87DE01119686E0FD0111928A9588
:1019A000E9F785E0FE01379601900D928A95E1F7FF
:1019B00049815A816B817C818D819E810E94651352
:1019C0002B960FB6F894DEBF0FBECDBFDF91CF913F
:1019D0000895FC01808191810E943B160895CF9368
:1019E000882309F4A4C0C82F8238C1F40E949D0B3B
:1019F00081FD9DC069E380913A0190913B010E9475
:101A00007B180E94C8162FEF81EE94E02150804091
:101A10009040E1F700C0000069E319C0833801F588
:101A20000E949D0B80FD83C063E580913A019091F7
:101A30003B010E947B180E94C8162FEF81EE94E0B4
:101A4000215080409040E1F700C0000063E58091A4
:101A50003A0190913B010E948618CF910C94C816D0
:101A60008438C1F40E949D0B82FD61C067E48091BF
:101A70003A0190913B010E947B180E94C8162FEFFB
:101A800081EE94E0215080409040E1F700C00000DA
:101A900067E4DDCF8CEF8C0F813AD0F46C2F80910E
:101AA0003A0190913B010E94FB17882349F06C2F6B
:101AB00080913A0190913B010E9486180E94C816BD
:101AC0006C2F80913A0190913B010E947B18C5CF09
:101AD00080E28C0F883048F4C77081E001C0880F25
:101AE000CA95EAF70E947D16B8CFEBE5EC0FE3301C
:101AF00040F4F0E0E754FE4F808190E0CF910C94E9
:101B0000D10BE8E5EC0FE73150F4F0E0EE0FFF1FEA
:101B1000E557FE4F80819181CF910C94E70BC03F38
:101B200030F08C2F0E94831BCF910C94701CCF91AE
:101B30000895882309F464C0823879F40E949D0BCB
:101B400081FF5EC069E380913A0190913B010E9460
:101B50007B180E94C81669E310C08338B1F40E9454
:101B60009D0B80FF4DC063E580913A0190913B0150
:101B70000E947B180E94C81663E580913A019091FB
:101B80003B010E9486180C94C816843879F40E9490
:101B90009D0B82FF35C067E480913A0190913B0133
:101BA0000E947B180E94C81667E4E7CF9CEF980F4D
:101BB000913A10F4682FE1CF90E2980F983050F4EA
:101BC000877091E001C0990F8A95EAF7892F0E94EA
:101BD0008316D9CF9BE5980F933020F480E090E0F6
:101BE0000C94D10B98E5980F973120F480E090E0A9
:101BF0000C94E70B803F20F00E94EB1B0C94701CB0
:101C00000895CF93C82F0E94EF0CC93349F42FEFEA
:101C100087EE93E0215080409040E1F700C0000043
:101C20008C2FCF910C94990D882321F00E947D1662
:101C30000C94C8160895882321F00E9483160C94F2
:101C4000C8160895CF92DF92EF92FF920F931F93E1
:101C5000CF93DF937C01062FC72FFC0115811295CE
:101C60001F70D281D1110E949A160E947316882388
:101C700099F0DD2389F08C2F807F803421F080E281
:101C8000800F883048F082E00E9412170E9473167D
:101C900091E0D82ED92601C0D12CCC2EC2948FE051
:101CA000C8228C2D90E0FC01EA5AFF4F0C94FD24D1
:101CB0008C2F807FCF70882311F0C295C07FDD23E9
:101CC00099F0CC2309F487C180E2800F883010F0AE
:101CD000011104C08C2F0E947D1603C08C2F0E941E
:101CE0008D160E94C81677C1802F0E94990DCC23B3
:101CF00009F496C180E2800F883010F0011104C011
:101D00008C2F0E94831603C08C2F0E9493160E9472
:101D1000C81686C18C2F807FCF70803211F0C2959B
:101D2000C07F002319F00130C9F025C0DD2371F018
:101D3000112341F0113031F40E94AD168C2B0E941A
:101D4000B5166EC10E94AD168C2B0EC0112319F072
:101D5000113009F465C10E94BE161FC0DD2339F0A1
:101D6000163008F05DC18C2F0E94140E59C1153039
:101D700008F056C112C0DD2319F01123A1F32BC1C5
:101D8000112359F0093309F037C1FFEF27EE83E043
:101D9000F15020408040E1F72DC18C2F0E941B0E96
:101DA0003FC18C2F86958695837019F0813061F044
:101DB00037C1DD2321F0802F9C2F937002C080E07B
:101DC00090E00E94D10B34C1DD2321F0802F9C2FA5
:101DD000937002C080E090E00E94E70B29C1802F41
:101DE000DD2319F00E94831B02C00E94EB1B0E949E
:101DF000701C1EC18C2F837009F045C0D11114C115
:101E0000402F429546954770440F440F602F6F70E6
:101E1000862F90E0A0E0B0E0042E04C0880F991F48
:101E2000AA1FBB1F0A94D2F704FF10C00FE010E0F6
:101E300020E030E004C0000F111F221F331F4A951D
:101E4000D2F7009510952095309503C000E010E082
:101E50009801C695C695C370BC01CD01602B712B4E
:101E6000822B932BC23049F058F4C13019F00E94F4
:101E7000B614DAC00E94A414D7C00E94C814D4C0FB
:101E80000E94A214D1C0DD2319F08C2F817001C0F3
:101E90008695882309F4C8C0402F4295469547701F
:101EA000440F440F602F6F70862F90E0A0E0B0E0E9
:101EB000042E04C0880F991FAA1FBB1F0A94D2F7D3
:101EC00004FF10C00FE010E020E030E004C0000F7D
:101ED000111F221F331F4A95D2F7009510952095A8
:101EE000309503C000E010E09801C695C695C37018
:101EF000BC01CD01602B712B822B932BC23049F09A
:101F000058F4C13019F00E947B158EC00E946915EB
:101F10008BC00E948D1588C00E94DC1485C0CF70D4
:101F2000DD2339F08C2F0E940215802F0E94140EA1
:101F30007BC0802F0E941B0E8C2F0E94231574C023
:101F4000023F01F128F4003F41F0013FA1F03FC002
:101F5000033FF9F0043F39F13AC0DD2341F0153079
:101F600008F05EC08C2F8F710E94481559C0163042
:101F700008F056C0F7CFDD2339F08C2F8F710E9407
:101F800002154EC0DD23C9F38C2F8F710E942315DB
:101F900047C0DD2329F08C2F8F710E94ED1440C0C3
:101FA0000E94E8143DC0DD2349F0CF718C2F0E94C0
:101FB000021563E08C2F0E94FD1632C081E00E9462
:101FC0001217123068F182E00E94121729C0DD2337
:101FD00031F0112391F2802F0E94EF0C21C01123C8
:101FE00099F2093349F49FEFE7EEF3E09150E040B6
:101FF000F040E1F700C00000802F0E94990D10C052
:102000004C2F4F70602FC7010E944F030E94131482
:102010000FC04C2F4F70602FC7010E94520308C0A1
:1020200088EF8C0D843020F40E949D0B0E94ED02FD
:10203000DD20C9F00E946F1680FD15C0F7011282E5
:102040000E9469160E940215C7010E9454100E9446
:102050006916DF91CF911F910F91FF90EF90DF9064
:10206000CF900C942315DF91CF911F910F91FF908A
:10207000EF90DF90CF9008950F931F93CF93DF934E
:10208000EC01688179818A810E9446168C010E9448
:102090009F150E949014B801CE010E94220EDF917C
:1020A000CF911F910F910895CF93DF93EC01988109
:1020B00089812B813C81232B31F08F3F31F481E0EA
:1020C0009F3F19F403C081E001C080E080FD19C08A
:1020D000CE010E94060381110CC00E947316882352
:1020E00081F08A81882369F082E0DF91CF910C949E
:1020F0001217CE010E943C10CE01DF91CF910C94BB
:10210000CD02DF91CF910895882321F00E948D1692
:102110000C94C8160895882321F00E9493160C94FD
:10212000C81608950E949A160E94AA160E94C81600
:102130000E949A1D0E94701C80E090E00E94D10BCA
:1021400080E090E00C94E70B80913A0190913B0184
:102150000E9491180C9492100E948A160C94A4105C
:10216000E92FE295EF704E2F50E0FA013297EE30F2
:10217000F105B0F4EA59FF4F0C94FD24803F91F033
:1021800018F4883E68F40EC0843F51F40BC0883EBA
:1021900048F0813F29F406C093FB882780F9089511
:1021A00080E0089581E008950E943B160E94B010DF
:1021B0000895CF93DF9300D000D01F92CDB7DEB744
:1021C0000F900F900F900F900F90DF91CF91089587
:1021D000CF93DF9300D000D000D0CDB7DEB72696E6
:1021E0000FB6F894DEBF0FBECDBFDF91CF9108953B
:1021F0001F93CF93DF93C091E60116E08091E70132
:10220000C81799F0D0E01C9FF0011D9FF00D11241C
:10221000E851FE4F408151816281738184819581B3
:102220000E94E8102196C770E9CFDF91CF911F91EE
:102230000895409118025091190260911A0270910C
:102240001B0280911C0290911D020C94E8100F93C8
:102250001F93CF93DF9380911D0282958F7009F0B9
:102260005DC080911A02882309F458C08091E6016C
:102270001091E7016091180270911902C0911B0240
:10228000D0911C0291E06F3F09F090E0292F06E009
:10229000811709F443C0209721F07F3F21F030E0FF
:1022A00003C031E001C0322F90E030FD34C0089F00
:1022B000F001099FF00D1124DF01A851BE4F1196C6
:1022C0003C911197371327C03C91361324C01296C6
:1022D0003C91129731111FC013964D915C91149748
:1022E0004C1B5D0B483C5105B0F480911D028F7072
:1022F000806180931D02E351FE4F80818F70806169
:10230000808388E192E00E945410DF91CF911F9169
:102310000F910C94F81001968770BACFDF91CF918E
:102320001F910F9108959F92AF92BF92CF92DF922B
:10233000EF92FF920F931F93CF93DF93CDB7DEB74A
:1023400061970FB6F894DEBF0FBECDBF8C0185E05C
:10235000F801DE011D9601900D928A95E1F7F801D2
:1023600040815181E2809091180260911902209180
:102370001B0230911C022115310531F06F3F31F401
:1023800081E09F3F19F403C081E001C080E0F82F95
:10239000F1709F2E80FD46C1F801A380B48088E1D2
:1023A000C82E82E0D82EF0901A02F501E21BF30B42
:1023B000FF2009F4DFC080911D02E83CF10508F020
:1023C0009BC0282F207F09F052C0561313C0491319
:1023D00011C0FE2CE1100EC08F70806180931D0231
:1023E0000E941911C6010E94541080911D02F8012B
:1023F000858358C1AB2831F05F3F31F481E04F3F16
:1024000019F403C081E001C080E080FD03C081E0D9
:102410008E2502C080E090E0F82FF170FF2E80FF43
:102420001CC08091E6012091E70136E0821709F493
:1024300017C190E0389FF001399FF00D1124E85149
:10244000FE4F6181561306C06081461303C062814E
:10245000E61203C001968770E9CFFE2CEE2009F446
:1024600021C180911D02816080931D025AC05613C4
:1024700006C0491304C0E11002C0F8019FC04D8797
:102480005E878D859E850E94D410882379F1EE2089
:1024900069F120911D02822F82958F7090E0029742
:1024A00074F0809118029091190298878F83198691
:1024B000BB86AA862C87CE0107960E94541086E020
:1024C000F801A8E1B2E001900D928A95E1F70E942F
:1024D00027110E9419110DC0561729F14D875E87EB
:1024E0008D859E850E94D41081112CC0C8010E9448
:1024F0005410FF24F394D6C0282F207F69F77A2D3B
:10250000B98AA88A6E2D89890E94D91088E192E043
:102510000E94541086E0F60111928A95E9F70E9414
:102520001911F12CBFC04913D9CFE110D7CFF80151
:102530008583C8010E94541086E0F60111928A95A5
:10254000E9F7B0C0EE2091F220911D02822F829512
:102550008F7090E002970CF4B2CF809118029091A6
:1025600019029A8389831B82BD82AC822E83CE019D
:102570000196A3CFE83CF10508F047C0FE2CEE2001
:1025800009F4B4CF561330C049132EC020911D0258
:1025900020FD21C0822F82958F70482F50E0411579
:1025A0005105C9F0F80125834F30510541F08F5F87
:1025B000982F9295907F822F8F70892B8583C801E9
:1025C0000E94541086E0F801A8E1B2E001900D925B
:1025D0008A95E1F742C086E0F801A8E1B2E00190F7
:1025E0000D928A95E1F75EC04D875E878D859E8549
:1025F0000E94D410811163CF80911D02816080936D
:102600001D02C8010E9454104DC07A2DB98AA88AB3
:102610006E2D89890E94D91086E0F60111928A9563
:10262000E9F71BC0EE2009F461CF4D875E878D85E9
:102630009E850E94D410F82E882309F457CF86E097
:10264000F801A8E1B2E001900D928A95E1F788E1E6
:1026500092E00E94E90C0E9427110E94191122C0E9
:102660004D875E878D859E850E943B16292F22957A
:102670002F70223028F49F7039F0811105C00BC0F3
:10268000243028F49F7049F4805E883020F0C8011F
:102690000E9454109F2CF92C05C0F8019581907F61
:1026A00099F7F9CF8F2D61960FB6F894DEBF0FBE64
:1026B000CDBFDF91CF911F910F91FF90EF90DF90F1
:1026C000CF90BF90AF909F9008951F93CF93DF93CB
:1026D000CDB7DEB72C970FB6F894DEBF0FBECDBFD7
:1026E0004F83588769877A878B879C87CE010796A7
:1026F0000E9493118823D1F09F8188852A853B858C
:10270000232B31F08F3F31F481E09F3F19F403C058
:1027100081E001C080E080FD47C04F815885698518
:102720007A858B859C850E94E8103EC086E0FE017C
:102730003796DE01119601900D928A95E1F7FF819F
:10274000E8856A857B856115710531F0EF3F31F4CD
:1027500081E0FF3F19F403C081E001C080E080FD0B
:1027600023C02091E70130E0C901019687709927C5
:102770004091E60150E084179507F1F1F983EA836F
:102780007D836C8396E0929FD001939FB00D1124BE
:10279000A851BE4FFE01319601900D929A95E1F736
:1027A0008093E7010E94F81016E08091E601909175
:1027B000E701891771F1189FC001112488519E4FBC
:1027C0000E949311882329F1E091E6011E9FF001F8
:1027D0001124E851FE4F40815181628173818481CF
:1027E00095810E94E8108091E60190E00196877043
:1027F00099278093E601D9CF0E94AC101092E7018F
:102800001092E601E8E1F2E086E0DF011D928A9590
:10281000E9F72C960FB6F894DEBF0FBECDBFDF915F
:10282000CF911F910895EF92FF920F931F93CF9333
:10283000DF938C01892B09F46CC0F12CEE24E39416
:10284000E8012196F8018491843740F4843008F03F
:1028500051C0813081F0823019F15BC0853709F4B5
:1028600044C0A8F19CE7980F903708F052C08F77CA
:102870000E94990D41C00E5F1F4FFE01849190E2AE
:10288000980F983050F48770FE2D01C0FF0F8A9585
:10289000EAF78F2F0E949D1614C00E94EF0C2DC0E6
:1028A0000E5F1F4FFE01849190E2980F983060F404
:1028B0008770FE2D01C0FF0F8A95EAF78F2F0E94C7
:1028C000A3160E94C81619C00E94990D16C00E5F6B
:1028D0001F4FFE01C491CC2381F08FE99FE0019747
:1028E000F1F700C00000C150F6CF0E5F1F4FFE0190
:1028F000F49003C00E94EF0C8E018F2D882309F401
:102900009FCFEFE9FFE03197F1F700C00000815061
:10291000F5CFDF91CF911F910F91FF90EF90089528
:10292000089508950C9491140C9492140E94941498
:102930006093360270933702809338029093390285
:102940000C9492100C9496140F931F9300913602DE
:10295000109137022091380230913902602B712B8F
:10296000822B932B1F910F910C9496140F931F930E
:1029700000913602109137022091380230913902CD
:1029800060237123822393231F910F910C9496143B
:102990000F931F9300913602109137022091380255
:1029A0003091390260277127822793271F910F9159
:1029B0000C9496140C9491140E94DA1460933202D1
:1029C0007093330280933402909335020C949210EA
:1029D00060E070E0CB010C94DC140F931F9341E096
:1029E00050E060E070E08A019B0104C0000F111FFD
:1029F000221F331F8A95D2F7C901B8011F910F9189
:102A00000C94DC140F931F9341E050E060E070E001
:102A100004C0440F551F661F771F8A95D2F7809117
:102A2000320290913302A0913402B09135028A01B2
:102A30009B01082B192B2A2B3B2BC901B8011F9195
:102A40000F910C94DC140F931F9341E050E060E071
:102A500070E004C0440F551F661F771F8A95D2F798
:102A60004095509560957095809132029091330217
:102A7000A0913402B09135028A019B0108231923E9
:102A80002A233B23C901B8011F910F910C94DC1438
:102A90000F931F9341E050E060E070E004C0440FEA
:102AA000551F661F771F8A95D2F780913202909149
:102AB0003302A0913402B09135028A019B010827AC
:102AC00019272A273B27C901B8011F910F910C94A0
:102AD000DC140F931F930091320210913302209166
:102AE000340230913502602B712B822B932B1F9176
:102AF0000F910C94DC140F931F93009132021091EC
:102B000033022091340230913502602371238223F5
:102B100093231F910F910C94DC140F931F9300913A
:102B20003202109133022091340230913502602735
:102B30007127822793271F910F910C94DC1408951D
:102B4000292F220F920F990F890FE82FE695E6950E
:102B5000E695877051E001C0550F8A95EAF785E048
:102B6000E89FF0011124E25EFD4F20E030E070E0CC
:102B70004081CB01022E02C0969587950A94E2F718
:102B80008170819584278523842781932F5F3F4F10
:102B90002530310569F70895292F220F920F990FDB
:102BA000890F682F669566956695982F977085E0D2
:102BB000689FB001112440E050E080E0FB01E40F89
:102BC000F51FE25EFD4F208130E0092E02C03695F0
:102BD00027950A94E2F721703327042E01C0220FB3
:102BE0000A94EAF7822B4F5F5F4F4530510531F76A
:102BF0000895BF92CF92DF92EF92FF920F931F93AF
:102C0000CF93DF938C01C0903202D0903302E090DA
:102C10003402F09035028091360290913702A091F3
:102C20003802B0913902C82AD92AEA2AFB2ACFE110
:102C3000D0E0D701C6010C2E04C0B695A795979594
:102C400087950A94D2F780FD04C0219790F7B12CA4
:102C500007C0BC2EB8018C2F0E946E030197A9F308
:102C60008B2DDF91CF911F910F91FF90EF90DF900F
:102C7000CF90BF900895CF93DF93EC010E94F91598
:102C8000BE010E946E03DF91CF9108951F93CF93F1
:102C9000DF93EB019091E501992321F0CB010E9494
:102CA0003B1613C0882349F0CB010E94F915182F59
:102CB000682FCE010E94A01504C0CB010E94CC1544
:102CC000182FBE01812F0E946E03DF91CF911F91BB
:102CD000089580913A02859585958595089580910E
:102CE0003A028770089590913A02977081E009F452
:102CF00080E0089580915E02089590915E02892B94
:102D000080935E020895809590915E02892380935E
:102D10005E02089510925E02089590915D02892BE3
:102D200080935D020895809590915D028923809340
:102D30005D02089510925D02089590915C02892BC6
:102D400080935C020895809590915C028923809322
:102D50005C02089510925C02089580913B020895F0
:102D600008950C94B0160C94B11690913B029817EC
:102D700021F080933B020C94B316089580913B029E
:102D8000882329F010923B0280E00C94B31608953A
:102D9000E0913A01F0913B0180915E028083E091E5
:102DA0003A01F0913B01908180915D02892B8083F3
:102DB000E0913A01F0913B01908180915C02892B76
:102DC000808380913B02882381F0E0913A01F09169
:102DD0003B019081892B808380913A0190913B0146
:102DE0000E94E51781110E94BE1680913A019091D0
:102DF0003B010C94A90B0C94B01698E0899F9001AC
:102E00001124262B20933A020E94021580913A0247
:102E10008595859585950C94FB1610923A0280E075
:102E20000C94FB1620913A028095822380933A02FB
:102E3000982F977079F430E0482F082E000C550B2E
:102E40002417350739F08595859585950E942315BA
:102E50000C940D17089580E090E00E94252521E054
:102E60008C3E9E4F09F020E0822F089582E090E092
:102E70000C941D25682F82E090E00C942B2583E0B4
:102E800090E00C941D25682F83E090E00C942B2596
:102E9000CF9384E090E00E941D25C82F81E290E04E
:102EA0000E941D252C2F30E0A901582BCA01CF917B
:102EB0000895CF93C92F682F84E090E00E942B25BE
:102EC0006C2F81E290E0CF910C942B2586E090E06E
:102ED0000C941D25682F86E090E00C942B25AB0107
:102EE000BC018FE090E00C943D25AB01BC0183E177
:102EF00090E00C943D2560E070E0CB010C947517D8
:102F000060E070E0CB010E946F170C947B176CEEB1
:102F10007EEF80E090E00E94492560E082E090E052
:102F20000E942B2560E083E090E00E942B25109208
:102F3000360210923702109238021092390260E085
:102F400084E090E00E942B2560E081E290E00E9406
:102F50002B2560E085E090E00E942B2560E086E074
:102F600090E00E942B256FEF87E090E00E942B25D8
:102F700040E050E0BA0188E090E00E943D2560E02A
:102F80008DE090E00E942B2540E050E0BA0188E1FE
:102F900090E00E943D2560E087E190E00E942B25B3
:102FA00040E050E0BA018CE190E00E943D2560E0F5
:102FB00080E290E00E942B250C9480170C948717D8
:102FC000682F8EE090E00C942B25FC0132968091C6
:102FD0004E01882331F08091A10287FF02C09EE15B
:102FE00001C096E080E0915028F021912223D9F38E
:102FF0008F5FF9CF0895662351F120914E0122236E
:10300000E9F02091A10227FF19C0462F4695469569
:1030100046954E31E0F4677021E030E002C0220FA7
:10302000331F6A95E2F7FC01E40FF11D828190E005
:103030002823392381E0232B69F409C0FC0132964F
:1030400008962191621729F0E817F907D1F780E077
:10305000089581E008959C01FC0132969FEF80E085
:103060004191461789F09F3F19F4411101C0982FF3
:103070008F5F8630A9F79F3F39F0F901E90FF11D05
:1030800097FDFA956283089508959C012A5F3F4F4A
:10309000FC014281461301C01282019682179307F8
:1030A000B9F70895262F2695269526952E3168F492
:1030B000FC01E20FF11D677021E030E001C0220F3A
:1030C0006A95EAF78281282B22830895262F269578
:1030D000269526952E3170F4FC01E20FF11D6770E4
:1030E00021E030E001C0220F6A95EAF72095828145
:1030F00028232283089520914E01222329F0209134
:10310000A10227FD0C9452180C942B1820914E010B
:10311000222329F02091A10227FD0C9466180C941B
:10312000451820914E01FC013296222331F0809106
:10313000A10287FF02C08EE101C086E0DF011D927F
:103140008A95E9F7089508950C94A3180C94A31890
:10315000CF930E94A6180E94C1050E94A418C0E047
:103160008C2F0E945D05811104C0CF5FC530C1F76F
:1031700001C081E0CF9108950C94A3180C94BC1861
:103180000E94BE188091A702843061F11092600203
:1031900020E488E190E00FB6F894A8958093600051
:1031A0000FBE2093600080E00E948D0780E00E94A7
:1031B000ED020E94BE1883B7817F846083BF83B70E
:1031C000816083BF7894889583B78E7F83BF0FB665
:1031D000F894A895809160008861809360001092B7
:1031E00060000FBE08950C94A3180E94AC100E94BA
:1031F0007E060E949D0B0E94ED020C94F3181F9214
:103200000F920FB60F9211248F939F93AF93BF939A
:1032100080916002811113C080919D0290919E0265
:10322000A0919F02B091A0024196A11DB11D809373
:103230009D0290939E02A0939F02B093A002BF9123
:10324000AF919F918F910F900FBE0F901F90189587
:1032500082E084BD93E095BD9AEF97BD80936E00A8
:1032600008952FB7F89480919D0290919E02A091AD
:103270009F02B091A0022FBF08959C014FB7F89410
:1032800080919D0290919E02A0919F02B091A00218
:103290004FBF821B930B089578941F920F920FB625
:1032A0000F9211248F939F93AF93BF9380919D02B0
:1032B00090919E02A0919F02B091A0020196A11D43
:1032C000B11D80939D0290939E02A0939F02B093A4
:1032D000A002BF91AF919F918F910F900FBE0F9061
:1032E0001F90189587E797E790930108809300084F
:1032F0009AE088E10FB6F894A895809360000FBE1D
:1033000090936000FFCFCF92DF92EF92FF920F93E6
:103310001F93CF93C0E0E82EF12C8C2F0E945D0507
:1033200000E010E0C82ED12CC601002E02C09595F9
:1033300087950A94E2F780FD06C00F5F1F4F0630A5
:10334000110591F70AC0602F7C2F80E00E94530383
:10335000E816F90691F781E004C0CF5FC530E9F6C1
:1033600080E0CF911F910F91FF90EF90DF90CF9071
:103370000895CF93C82F8CE20E948319882321F0EF
:103380008C2FCF910C94831980E0CF910895CF9327
:103390000E942B17811102C00E94DE17C5E6C150A2
:1033A00049F00E94C1058FE39CE90197F1F700C045
:1033B0000000F5CF89E20E94B919811120C18AE28B
:1033C0000E94B91981110E94DE1785E00E94B91987
:1033D00081110E9472190E94361780935F0287E064
:1033E0000E94B9198823A9F18BE10E94B919882399
:1033F00051F080915F0281FB222720F991E0922712
:1034000090FB81F90EC08EE00E94B919882361F00B
:1034100080915F0282FB222720F991E0922790FBA6
:1034200082F980935F0215C080E10E94B9199091E2
:103430005F02882341F093FB222720F981E0822755
:1034400080FB93F904C0892F809580FB90F99093BD
:103450005F0280915F020E943A170E944817909382
:10346000A2028093A10280EE0E94B919882341F044
:103470008091A102982F909590FB80F98093A102F2
:1034800089E30E94B919882359F08091A10281FB38
:10349000222720F991E0922790FB81F98093A102E5
:1034A00082EE0E94B919882359F08091A10282FB13
:1034B000222720F991E0922790FB82F98093A102C4
:1034C00086EE0E94B919882359F08091A10283FBEE
:1034D000222720F991E0922790FB83F98093A102A3
:1034E00083EE0E94B919882359F08091A10284FBD0
:1034F000222720F991E0922790FB84F98093A10282
:1035000085E30E94B919882359F08091A10285FBB7
:10351000222720F991E0922790FB85F98093A10260
:1035200081E30E94B919882359F08091A10286FB9A
:10353000222720F991E0922790FB86F98093A1023F
:1035400081E10E94B919882359F08091A10287FB7B
:10355000222720F991E0922790FB87F98093A1021E
:103560008091A1029091A2020E94591787E20E94C5
:10357000B919C82F8EE10E94B9198111C2608FE17B
:103580000E94B9198111C46080E20E94B9198111A9
:10359000C86081E20E94B9198111C06182E20E9473
:1035A000B9198111C06283E20E94B9198111C06406
:1035B00084E20E94B919882311F0C06802C0CC23AC
:1035C00029F08C2F0E9443176C2F03C00E943F17D5
:1035D000682F70E080E090E00E94A2148FE00E94CB
:1035E000B919882319F081E00E94E01785E10E9453
:1035F000B919882321F080E0CF910C94E017CF9186
:1036000008958091680280FF0BC06091410185E0C0
:10361000689FB001112475956795759567952BC0C6
:1036200081FF09C06091410185E0689FB0011124CC
:103630007595679520C082FF07C06091410185E0C4
:10364000689FB001112417C0909167029923D1F0AF
:1036500060914001961788F72091410185E0289FED
:1036600090011124929FA001939F500D112470E0AE
:10367000CA010E94C7246038710540F461157105C4
:1036800019F406C065E070E0862F08958FE708956D
:1036900081E008958091680280FF08C060913D013B
:1036A00070E0759567957595679521C081FF06C097
:1036B00060913D0170E07595679519C082FF04C067
:1036C00060913D0170E010C090916702992399F0DC
:1036D00060913C019617A0F780913D01899FC00140
:1036E000112470E00E94C7246038710540F4611510
:1036F000710519F406C061E070E0862F08958FE728
:10370000089581E00895803F21F40E94011B819576
:1037100004C0813F29F40E94011B80936C0208952C
:10372000823F21F40E94011B819504C0833F29F44C
:103730000E94011B80936B020895893F19F40E9437
:103740004A1B05C08A3F31F40E944A1B8195809331
:103750006D0208958B3F21F40E944A1B819504C09D
:103760008C3F29F40E944A1B80936E020895843F87
:1037700021F480916A02816017C0853F21F4809115
:103780006A02826011C0863F21F480916A028460DF
:103790000BC0873F21F480916A02886005C0883F92
:1037A00031F480916A02806180936A0208958D3FAE
:1037B00021F48091680281600BC08E3F21F48091DA
:1037C0006802826005C08F3F29F48091680284609E
:1037D000809368020895803F39F480916C0287FFDE
:1037E0006CC010926C0269C0813F29F480916C0218
:1037F0001816BCF362C090916B02823F29F497FFC8
:103800005CC010926B0259C0833F19F41916CCF3B7
:1038100054C0893F41F480916D0218160CF04DC0E0
:1038200010926D024AC08A3F29F480916D0287FF91
:1038300044C0F6CF8B3F39F480916E0287FF3DC0C4
:1038400010926E023AC08C3F29F480916E021816D5
:10385000BCF333C0843F21F480916A028E7F17C08D
:10386000853F21F480916A028D7F11C0863F21F44B
:1038700080916A028B7F0BC0873F21F480916A029E
:10388000877F05C0883F31F480916A028F7E8093E4
:103890006A0213C08D3F21F4809168028E7F0BC0B5
:1038A0008E3F21F4809168028D7F05C08F3F29F4FF
:1038B000809168028B7F8093680280916B028111F6
:1038C0000EC080916C0281110AC080916D0281113D
:1038D00006C080916E02811102C0109267020895A5
:1038E00089E692E00E94C30B0E9431199093660210
:1038F000809365020895CF93DF9300D000D000D06D
:10390000CDB7DEB786E0E9E6F2E0DE011196019080
:103910000D928A95E1F780916B02811105C080912B
:103920006C02882309F47AC080916302909164024A
:103930000E943D19AC0190916702992339F02091C2
:10394000420130E02417350758F068C02091430148
:103950008AE0289F900111242417350718F05EC0D3
:103960009F3F19F09F5F9093670210926D02109233
:103970006E0280916B02181624F40E94011B809342
:103980006B0280916B0287FF05C00E94011B81952D
:1039900080936B0280916C02181624F40E94011B24
:1039A00080936C0280916C0287FF05C00E94011B0E
:1039B000819580936C0230916B023323E1F020916A
:1039C0006C022223C1F045EB3403C001112499237A
:1039D00019F090936B0203C081E080936B0235EB8A
:1039E0002303C0011124992319F090936C0203C0A2
:1039F00081E080936C020E94701C8091650290911E
:103A00006602909364028093630286E0FE01319621
:103A1000A9E6B2E001900D928A95E1F780916D02DE
:103A2000811105C080916E02882309F47AC08091CB
:103A30006102909162020E943D19AC01909167026F
:103A4000992339F020913E0130E02417350758F0D2
:103A500068C020913F018AE0289F9001112424171B
:103A6000350718F05EC09F3F19F09F5F9093670283
:103A700010926B0210926C0280916D02181624F461
:103A80000E944A1B80936D0280916D0287FF05C0E2
:103A90000E944A1B819580936D0280916E021816D8
:103AA00024F40E944A1B80936E0280916E0287FF6D
:103AB00005C00E944A1B819580936E0230916D0271
:103AC0003323E1F020916E022223C1F045EB340351
:103AD000C0011124992319F090936D0203C081E075
:103AE00080936D0235EB2303C0011124992319F053
:103AF00090936E0203C081E080936E020E94701C5E
:103B000080916502909166029093620280936102B7
:103B100086E0FE013196A9E6B2E001900D928A9509
:103B2000E1F726960FB6F894DEBF0FBECDBFDF914A
:103B3000CF910895E9E6F2E086E0DF011D928A95D3
:103B4000E9F71092670210926802089580918F023F
:103B50000895CF93DF9300D01F92CDB7DEB7909139
:103B6000A702943019F589837B836A8382E080936E
:103B7000E9008FEF9091E800815095FD06C095ED2A
:103B80009A95F1F700008111F5CF8091E80085FF4B
:103B90000DC040E050E063E070E0CE0101960E946D
:103BA00005208091E8008E778093E8000F900F90B9
:103BB0000F90DF91CF910895CF93DF93EC010E9496
:103BC000E81F823011F0843031F4BE0184E0DF91CF
:103BD000CF910C94A91DDF91CF910895BC0183E092
:103BE0000C94A91DCF93DF93EC010E94E81F823053
:103BF00011F08430F9F482E08093E9008FEF909126
:103C0000E800815095FD06C095ED9A95F1F700000A
:103C10008111F5CF8091E80085FF0CC040E050E0B5
:103C200066E070E0CE010E9405208091E8008E776A
:103C30008093E800DF91CF910895CF93DF93EC015B
:103C40000E94E81F823011F08430D9F580914E0136
:103C5000882339F08091A10287FF03C060E282E0EF
:103C600002C068E081E08093E9008FEF9091E80066
:103C7000815095FD06C095ED9A95F1F700008111F0
:103C8000F5CF8091E80085FF1CC080914E01811125
:103C900005C040E050E068E070E003C070E040E044
:103CA00050E0CE010E9405208091E8008E7780933D
:103CB000E80080E2FE01AFE6B2E001900D928A9545
:103CC000E1F7DF91CF9108958091A602811109C09B
:103CD0000E9496210E94F3218091E20084608093EB
:103CE000E20008951092A6020895089508950C9494
:103CF000F51842E061EC81E00E940F2142E261ECA4
:103D000082E00C940F218091A902833009F460C0F5
:103D100030F4813071F0823009F499C008958A300E
:103D200009F485C08B3009F46BC0893009F0A7C055
:103D300020C08091A802813A09F0A1C08091E800DA
:103D4000877F8093E8008091AC029091AD02892B2F
:103D500021F460E28FE692E003C060E080E090E052
:103D600070E00E9450208091E8008B778093E800FB
:103D700008958091A802813209F081C08091AC023F
:103D80009091AD02029708F07AC08091E800877F99
:103D90008093E8008091E80082FD05C08091A70231
:103DA0008111F8CF6CC02091F3008091F20090E077
:103DB000922B029729F48091F1008B7F813021F4BE
:103DC0008091F10080938F028091E8008B7753C03F
:103DD0008091A802813A09F052C08091AC02909182
:103DE000AD02892B09F04BC08091E800877F80935A
:103DF000E8008091E80080FFFCCF80914E0136C042
:103E00008091A8028132D9F58091AC029091AD02E7
:103E1000892BA9F58091E800877F8093E8000E94B4
:103E200044218091AA0280934E010C94AC108091A1
:103E3000A802813221F58091E800877F8093E80015
:103E40000E9444218091AB0280939002089580915A
:103E5000A802813AA1F48091E800877F8093E8006E
:103E60008091E80080FFFCCF809190028093F10068
:103E70008091E8008E778093E8000C9444210895A7
:103E800084B7877F84BF0FB6F894A89580916000AF
:103E9000886180936000109260000FBE90E080E81F
:103EA0000FB6F89480936100909361000FBE0E945A
:103EB0000D0C0E9496210E94F3218091E200846003
:103EC0008093E20078940E9488240E94170C84E476
:103ED00091E00E94980B8091A702853069F40E94BE
:103EE000C0188091A5028823B1F30E94A8188823E6
:103EF00091F30E94EF1FEFCF0E94210CECCF0C94A6
:103F0000811F292F332723303105C9F060F4213078
:103F1000310581F02230310509F04AC08BE390E091
:103F200020E032E049C02132310511F12232310561
:103F300079F13EC082E190E02BE332E03DC0992769
:103F40008130910561F040F08230910559F003977E
:103F500079F5E2ECF1E008C0ECEFF1E005C0EAED44
:103F6000F1E002C0E8ECF1E0849190E09F0124C010
:103F70006115710541F061307105D1F489E090E07F
:103F80002BE232E019C089E090E022E132E014C077
:103F90006115710541F06130710551F48CEB90E0D1
:103FA0002DE432E009C080E490E029E033E004C071
:103FB00080E090E020E030E0FA0131832083089532
:103FC0008091A702843011F081E0089582E0089585
:103FD00080919102811102C00C94E01F089580E14C
:103FE00089BD82E189BD09B400FEFDCF8091D80072
:103FF0008F7D8093D8008091E00082608093E00004
:104000008091E00081FDFCCF0895CF92DF92EF9286
:10401000FF920F931F93CF93DF93EC018B017A01F3
:104020000E946321811133C0E114F10439F0F701DA
:1040300080819181081B190BC80FD91FC12CD12C6D
:104040000115110519F18091E80085FD16C08091D8
:10405000E8008E778093E800E114F10449F0F7015D
:1040600080819181C80ED91ED182C08285E00FC0A7
:104070000E946321882321F30AC089918093F10073
:1040800001501109FFEFCF1ADF0ADACF80E0DF918C
:10409000CF911F910F91FF90EF90DF90CF900895F7
:1040A0002091AE023091AF022617370748F0611514
:1040B000710539F42091E8002E772093E80001C0C3
:1040C000B901FC0120E06115710579F18091A70229
:1040D0008823F1F18530F1F18091E80083FD3CC047
:1040E0008091E80082FD2EC08091E80080FFEBCF38
:1040F0002091F3008091F20090E0922B6115710500
:1041000051F08830910538F421912093F1006150ED
:1041100071090196F3CF21E0089709F020E0809122
:10412000E8008E778093E800CECF2111CFCF0AC070
:104130008091A702882361F0853061F08091E800CA
:1041400083FD0AC08091E80082FFF2CF80E00895ED
:1041500082E0089583E0089581E008952091AE0201
:104160003091AF022617370748F06115710539F411
:104170002091E8002E772093E80001C0B901FC01EE
:1041800020E06115710591F18091A702882309F45F
:1041900040C0853009F43FC08091E80083FD3DC0F8
:1041A0008091E80082FD2FC08091E80080FFE9CF78
:1041B0002091F3008091F20090E0922B611571053F
:1041C00059F08830910540F424912093F100319604
:1041D000615071090196F2CF21E0089709F020E0C3
:1041E0008091E8008E778093E800CBCF2111CCCF6F
:1041F0000AC08091A702882361F0853061F0809128
:10420000E80083FD0AC08091E80082FFF2CF80E0E1
:10421000089582E0089583E0089581E00895982F3D
:10422000973068F59093E900981739F07091EC0099
:104230002091ED005091F00003C0242F762F50E024
:1042400021FD02C09F5FECCF3091EB003E7F3093A9
:10425000EB003091ED003D7F3093ED003091EB00AD
:1042600031603093EB007093EC002093ED0050939D
:10427000F0002091EE0027FDE5CF80E008958F70DB
:104280008093E90081E008958091A80287FF11C022
:104290008091E80082FD05C08091A7028111F8CFCE
:1042A00011C08091E8008B770BC08091A702882312
:1042B00049F08091E80080FFF8CF8091E8008E7788
:1042C0008093E80008952091E4003091E50095E6A0
:1042D0004091EC00842F817040FF23C08091E80062
:1042E00080FD1DC08091A702882399F0853099F048
:1042F0008091EB0085FD11C04091E4005091E500F4
:104300002417350729F3915011F09A01E1CF84E089
:10431000089582E0089583E0089581E0089580E0A3
:1043200008954091E80042FFDDCF08950E940422E5
:104330000E940C22E0EEF0E0808181608083E8ED55
:10434000F0E080818F77808319BCA7EDB0E08C917D
:104350008E7F8C9380818F7E80831092A602089539
:104360000F931F93CF93DF930E9404220E940C228D
:10437000C8EDD0E088818F778883888180688883C2
:1043800088818F7D888319BC1092A7021092A302A6
:104390001092A5021092A40200EE10E0F8018081B4
:1043A0008B7F808388818160888342E060E080E049
:1043B0000E940F21E1EEF0E080818E7F8083E2EEAB
:1043C000F0E0808181608083808188608083F80153
:1043D00080818E7F8083888180618883DF91CF9107
:1043E0001F910F910895E8EDF0E080818F7E80832A
:1043F000E7EDF0E080818160808384E082BF81E02E
:104400008093A6020C94B021E8EDF0E080818E7FCD
:1044100080831092E20008951092DA001092E10079
:1044200008951F920F920FB60F9211242F933F936E
:104430004F935F936F937F938F939F93AF93BF93AC
:10444000EF93FF938091E10082FF0BC08091E20027
:1044500082FF07C08091E1008B7F8093E1000E9482
:1044600087248091DA0080FF1FC08091D80080FFF0
:104470001BC08091DA008E7F8093DA008091D90092
:1044800080FF0DC080E189BD82E189BD09B400FED5
:10449000FDCF81E08093A7020E94641E05C019BC75
:1044A0001092A7020E94721E8091E10080FF19C045
:1044B0008091E20080FF15C08091E2008E7F8093A2
:1044C000E2008091E20080618093E2008091D80058
:1044D00080628093D80019BC85E08093A7020E9477
:1044E000761E8091E10084FF30C08091E20084FF5D
:1044F0002CC080E189BD82E189BD09B400FEFDCFF9
:104500008091D8008F7D8093D8008091E1008F7ECC
:104510008093E1008091E2008F7E8093E2008091A1
:10452000E20081608093E2008091A302882311F071
:1045300084E007C08091E30087FD02C081E001C0F4
:1045400083E08093A7020E94771E8091E10083FFA1
:1045500029C08091E20083FF25C08091E100877F20
:104560008093E10082E08093A7021092A3028091E1
:10457000E1008E7F8093E1008091E2008E7F809346
:10458000E2008091E20080618093E20042E060E01E
:1045900080E00E940F218091F00088608093F000FD
:1045A0000E94751EFF91EF91BF91AF919F918F91E6
:1045B0007F916F915F914F913F912F910F900FBE1F
:1045C0000F901F9018951F920F920FB60F92112403
:1045D0002F933F934F935F936F937F938F939F930B
:1045E000AF93BF93CF93DF93EF93FF93C091E90015
:1045F000CF708091EC00D82FD17080FDD0E8109260
:10460000E9008091F000877F8093F00078940E9409
:1046100027231092E9008091F00088608093F000D9
:10462000CD2BCF70C093E900FF91EF91DF91CF9137
:10463000BF91AF919F918F917F916F915F914F91BA
:104640003F912F910F900FBE0F901F9018951F93C1
:10465000CF93DF93CDB7DEB7AA970FB6F894DEBF3E
:104660000FBECDBFE8EAF2E08091F100819322E035
:10467000E03BF207C9F70E94831E8091E80083FFA8
:104680002EC18091A8029091A902492F50E04A3092
:10469000510508F024C1FA01EC58FF4F0C94FD2499
:1046A000803821F0823809F01AC108C08091A40234
:1046B0009091A502992389F082600FC08091AC028D
:1046C0008F70873008F00BC18093E9008091EB0078
:1046D00085FB882780F91092E9009091E800977F88
:1046E0009093E8008093F1001092F100D1C0282F40
:1046F0002D7F09F0F4C0882319F0823061F0EFC0FB
:104700008091AA02813009F0EAC0933009F080E07C
:104710008093A5022EC08091AA0281112AC08091A7
:10472000AC028F702FEF280F263008F0D8C080938E
:10473000E9002091EB0020FF1CC0933021F4809110
:10474000EB00806214C09091EB0090619093EB00BD
:1047500021E030E0A90102C0440F551F8A95E2F71D
:104760004093EA001092EA008091EB008860809309
:10477000EB001092E9008091E800877F8093E800C9
:104780000E944421ACC08111AAC01091AA021F77D7
:104790008091E3008078812B8093E3008091E80092
:1047A000877F8093E8000E9444218091E80080FF89
:1047B000FCCF8091E30080688093E300111102C078
:1047C00082E001C083E08093A70289C080588230D4
:1047D00008F085C08091AA029091AB028C3D53E015
:1047E000950779F583E08A838AE289834FB7F89445
:1047F000DE01139620E03EE051E2E32FF0E050931B
:104800005700E49120FF03C0E295EF703F5FEF7027
:104810008E2F90E0EA3010F0C79601C0C0968D93BD
:104820009D932F5F243149F74FBF8091E800877F28
:104830008093E8006AE270E0CE0101960E94502069
:1048400016C06091AC027091AD02AE014F5F5F4F38
:104850000E947F1FBC01892B09F441C09091E800A0
:10486000977F9093E80089819A810E94AE20809181
:10487000E8008B778093E80032C0803881F5809122
:10488000E800877F8093E8008091A3028093F10085
:104890008091E8008E7772CF811121C08091AA02A9
:1048A0009091AB0299270297D4F48091E800877F1A
:1048B0008093E8008091AA028093A3020E94442181
:1048C0008091A302811106C08091E30087FD02C0A0
:1048D00081E001C084E08093A7020E94791E80914C
:1048E000E80083FF0AC08091E800877F8093E8009A
:1048F0008091EB0080628093EB00AA960FB6F8944B
:10490000DEBF0FBECDBFDF91CF911F9108950895F7
:10491000CF938091A7028823A1F0C091E900CF70C6
:104920009091EC00892F817090FD80E8C82B109247
:10493000E9008091E80083FD0E942723CF70C09397
:10494000E900CF910895DB018F939F930E94122578
:10495000BF91AF91A29F800D911DA39F900DB29F1B
:10496000900D11240895AA1BBB1B51E107C0AA1F7B
:10497000BB1FA617B70710F0A61BB70B881F991F00
:104980005A95A9F780959095BC01CD01089597FBA4
:10499000072E16F4009407D077FD09D00E94B324A7
:1049A00007FC05D03EF4909581959F4F0895709532
:1049B00061957F4F0895A1E21A2EAA1BBB1BFD0132
:1049C0000DC0AA1FBB1FEE1FFF1FA217B307E407EE
:1049D000F50720F0A21BB30BE40BF50B661F771F46
:1049E000881F991F1A9469F7609570958095909526
:1049F0009B01AC01BD01CF010895EE0FFF1F059093
:104A0000F491E02D0994A29FB001B39FC001A39F30
:104A1000700D811D1124911DB29F700D811D1124F7
:104A2000911D08950E940325A59F900DB49F900DA0
:104A3000A49F800D911D11240895F999FECF92BD78
:104A400081BDF89A992780B50895A8E1B0E042E0C9
:104A500050E00C945125262FF999FECF92BD81BDCF
:104A6000F89A019700B4021639F01FBA20BD0FB6AC
:104A7000F894FA9AF99A0FBE08950396272F0E9488
:104A80002C250E942B25252F0E942C25242F0C94A9
:104A90002C250196272F0E942C250C942B25DC0118
:104AA000CB01FC01F999FECF06C0F2BDE1BDF89A39
:104AB000319600B40D9241505040B8F70895F894E3
:024AC000FFCF26
:104AC2000037003800010036001E0001002C002AC9
:104AD2000000012F00360001012F003700010126DE
:104AE200002F00000127002F0000BC01290000B6A2
:104AF20001330000B0014C0000013C022808641E92
:104B0200140A321EA61D1D1EF21DEE1DDC1D01E241
:104B120000E900EA00B500B600B700CD008301CC81
:104B2200008A019201940121022302240225022615
:104B32000227022A02B300B4006F00700081828350
:104B420034C697669490F731333236E200E900EAD0
:104B520000B500B600B700CD008301CC008A0192F7
:104B62000194012102230224022502260227022A9D
:0C4B720002B300B4006F00700081828369
:00000001FF
