:100000000C94D5010C941C020C941C020C941C0240
:100010000C941C020C941C020C941C020C941C02E8
:100020000C941C020C941C020C94CF220C94A1235F
:100030000C94BD190C941C020C941C020C941C0210
:100040000C941C020C941C020C941C020C941C02B8
:100050000C941C020C940A1A0C941C020C941C02A2
:100060000C941C020C941C020C941C020C941C0298
:100070000C941C020C941C020C941C020C941C0288
:100080000C941C020C941C020C941C020C941C0278
:100090000C941C020C941C020C941C020C941C0268
:1000A0000C941C020C941C020C941C02130F130FD2
:1000B000450F450F8C0FAA0FCB10CB10B50F4A1070
:1000C0005B105B10BB10CB10CB10C41079117911F1
:1000D0008B118B1182118B118B118B11791179116D
:1000E00087118B118B1187110E2435242D25352472
:1000F0002D258124A4242D25FB240A250600130088
:10010000190012001A000D00180007001B00100053
:100110000F620C4115420843095D0A5D1643174200
:100120000441117209611C640B74146828000B5D92
:1001300005780A640E741D613000275D255D285D19
:1001400012111113295D6400000000003962265D60
:10015000245D380034002E11125D00003200397227
:100160002513185D135D145D28000B5D155D165D8C
:10017000175D3711191105110C5D0D5D1C5D5700E0
:100180005F0060006100215D3962115D0E5D0F5DF1
:10019000105D2D005C005D005E00205DE6001E5DD0
:1001A000195D1A5D1B5D1D5D59005A005B001F5DE6
:1001B000A9004E0049004B00E200E6003A003B0077
:1001C0003C003D00AA004A0052004D00E100E00062
:1001D0003E003F00400041006500500051004F00CC
:1001E00028000B5D420043004400450057002D00ED
:1001F0000000320038000000285D380000000A5D71
:10020000095D000028000B5D000005000B5D00008B
:1002100014002800000010001B000000060013005E
:100220000000040330000000100347006800650070
:1002300072006B0069006E00000020033400300083
:100240002000500065007200630065006E007400BD
:10025000200043006C0075006200000004030904E4
:1002600009023B00020100A0FA0904000001030199
:100270000100092111010001224000070581030846
:10028000000A090401000103000000092111010016
:100290000122BC000705820320000A1201100100A0
:1002A000000008EDFE606001000102030105010984
:1002B00002A10185020901A10005091901290515FD
:1002C00000250195057501810295017503810105E0
:1002D00001093009311581257F95027508810609CC
:1002E000381581257F950175088106050C0A3802AD
:1002F0001581257F950175088106C0C0050109801B
:10030000A101850319012AB700150126B70095013F
:1003100075108100C0050C0901A101850419012A8D
:10032000A002150126A002950175108100C00501EB
:100330000906A1018505050719E029E71500250132
:100340009508750181020507190029EF150025019F
:1003500095F07501810205081901290595057501BA
:100360009102950175039101C005010906A10105DE
:100370000719E029E7150025019508750181029507
:1003800001750881010507190029FF150026FF00E6
:10039000950675088100050819012905950575015F
:1003A0009102950175039101C00011241FBECFEF8A
:1003B000DAE0DEBFCDBF04B603FE27C080918C0318
:1003C00090918D03A0918E03B0918F038730904B55
:1003D000A740B04BD1F410928C0310928D03109271
:1003E0008E0310928F0314BE84B7877F84BF0FB62D
:1003F000F894A895809160008861809360001092C5
:1004000060000FBEE0E0F8E3099512E0A0E0B1E083
:10041000EEE3FCE402C005900D92A837B107D9F7CE
:1004200023E0A8E7B2E001C01D92AC38B207E1F7C3
:100430000E94FE1F0C941D260C940000EF92FF9268
:100440000F931F93CF93880F991F880F991FFC015B
:10045000E359F24700811181E280F380FB01828140
:100460008823A1F00E943517C82F823011F0803206
:1004700049F40E944817C7010E9403038C2F0E9471
:1004800045170AC0C8010E94030306C0C7010E94A5
:100490001903C8010E94190381E0CF911F910F91A8
:1004A000FF90EF900895EF92FF921F93CF93DF9309
:1004B000FB0122812223C9F0FC01EE0FFF1FEE0F8A
:1004C000FF1FE356F347E080F180C281D3810E9491
:1004D0003517182F0E944817C7010E942F03812F3C
:1004E0000E944517CE010E942F0381E0DF91CF913A
:1004F0001F91FF90EF9008959C0128503D452A31AF
:10050000310510F40C941E029C0123523D45273006
:10051000310510F40C94530281E00895853021F1E7
:1005200028F4833041F0843091F00895863061F1F1
:100530008730B1F10895662339F08AE290E00E9495
:100540002F038CE490E00BC08CE490E02DC0662378
:1005500041F08AE290E00E942F038BE290E00C943D
:1005600003038BE290E020C0662359F08AE290E01A
:100570000E942F038AE290E00E942F0383E390E021
:10058000EECF83E390E010C0662339F08AE290E07A
:100590000E942F0388E091E1E2CF88E091E104C05E
:1005A00084E091E16111DBCF0C9419039C013A9531
:1005B00021153F4138F5DC01AA27B270AC01442770
:1005C00054709C012227387094FF0FC090FF02C026
:1005D00080E101C080E0AB2B09F08062452B09F07F
:1005E0008064232B69F080680BC0892F8170AB2B4E
:1005F00009F08260452B09F08460232B09F08860A4
:10060000FB0109940895CF93DF93EC01805E91097B
:10061000089710F0209719F46FEC7EE002C06FE3AA
:1006200071E1CE010E94D6028C2FDF91CF910C9404
:10063000AA0DCF93DF93EC010E94540ECE01805E91
:100640009109089710F0209719F466ED7EE002C03A
:1006500066E471E1CE01DF91CF910C94D602CF9385
:10066000DF93EC010E940303CE01DF91CF910C9444
:10067000190381E008950C947C0208950C943D03C5
:100680001F93CF93DF9300D000D01F92CDB7DEB77A
:1006900049835A836B833091C10289819A813111D8
:1006A00014C0662359F0222349F00E94B416182F73
:1006B000682F89819A810E945B1603C00E94871669
:1006C000182F69817A81812F04C00E94B416698134
:1006D0007A810F900F900F900F900F90DF91CF9134
:1006E0001F910C940204FC01262F408151816281EC
:1006F000738184810C944003CF93DF93EC0160E01D
:100700000E947303BE01DF91CF910C943E030E94BF
:10071000E917811102C00E949C180E949E080C9447
:100720001E060E94E80A0C941A0608950C9495037C
:1007300081E008950C949803CF93C82F0E949603EC
:100740008C2F0E949A03CF91089508950E946711FB
:100750000E94A5032FEF84E39CE02150804090404D
:10076000E1F700C000000C94301A0F931F93CF9351
:10077000DF93EC0161E00E9473038C01BE010E94D3
:100780003B038823A9F1BE01C8010E940708882302
:1007900079F1BE01C8010E94150B882349F1BE0101
:1007A000C8010E942209882319F1BE01C8010E94D4
:1007B00063098823E9F0BE01C8010E948E0A8823DC
:1007C000B9F08A81882369F001158CE5180731F0AA
:1007D0000E3D1C4531F40E949C180AC00E94A603DD
:1007E00007C0CE01DF91CF911F910F910C94390377
:1007F00080E0DF91CF911F910F91089580E090E00C
:10080000089508952EE1829FC0011124FC0126E085
:10081000729FE00DF11D1124E60FF11DEE0FFF1F79
:10082000E450FF4F859194910895880F991FFC0122
:10083000EE5DFD4F859194910895CF93DF930E94D3
:1008400002040E943505EC018115904508F041C075
:10085000C11580E4D80708F0D1C0C83ED10510F515
:10086000C03ED10508F0FDC0C83AD10578F4C53ABC
:10087000D10508F0A2C0C130D10509F4F2C008F4D6
:10088000EEC0C430D10508F0ECC0E9C0CF3BD105C3
:1008900008F49BC0C03CD10508F4E1C0CE01805CE7
:1008A00091099EC0C11590E2D90758F4C11521E005
:1008B000D20708F0D6C0C03FD10508F4D0C0D0653B
:1008C000D0C0C11580E3D80708F08EC0CE019F705C
:1008D00087C0C11595E5D90708F043C0C11524E5C7
:1008E000D20708F0A2C0C11582E5D80708F5C115E6
:1008F00091E5D90708F085C0CE0174E096958795FB
:100900007A95E1F783709C2F937021E030E002C06C
:10091000220F331F9A95E2F73C68382BCF70C695AB
:10092000C69580E2C89FE0011124C22BD32B99C049
:100930009E01237033278C2F86958695C115D3454C
:1009400008F064C0C1E0D0E002C0CC0FDD1F2A95E2
:10095000E2F720E2829FC0011124C82BD92BDC686A
:1009600080C0C11529E5D207A0F4C11588E5D807D4
:1009700008F060C0C11596E5D90708F070C08C2F4B
:100980000E94C9058F71C82FD0E0DC2FCC27D06220
:1009900068C0C1152AE5D20708F451C0CE019056AF
:1009A0008115904208F05BC08D2F8F710E94C905A0
:1009B000DD27D0628F71D82B54C0C55AD0E0C75CF8
:1009C000DD4FC881D0E0D0644CC0C85AD0E0CC0F15
:1009D000DD1FC55FDD4F0990D881C02DD46441C0B3
:1009E0000E941504EC013DC0CE019927D3FF03C03E
:1009F000EC01D86C36C0EC01D06C33C0DF70D06A2B
:100A000030C0DC2FCC27C16FD06A2BC0C1E0D0E052
:100A100002C0CC0FDD1F2A95E2F720E2829FC001C1
:100A20001124C82BD92BDA681CC0DC2FCC27C46F4B
:100A3000D06A17C0DC2FCC27C06FD06A12C08C2FB1
:100A40008F700E94C90594E0D695C7959A95E1F7F5
:100A5000CF70D0E0DC2FCC27D069C82B02C0C0E01B
:100A6000D0E0CE01DF91CF9108958238910569F1F0
:100A7000B0F48133910509F46DC048F489329105D1
:100A800009F463C08A32910509F469C00895853379
:100A9000910509F455C089339105B9F00895833E55
:100AA000910569F138F4803E9105B1F0823E9105DF
:100AB00009F10895863E9105A9F1873E9105B9F1A6
:100AC000843E910509F064C023C020917D0320FD80
:100AD0004FC021FD4DC0089580917D0380FD44C02D
:100AE00080917E0380FF44C080917D0384FD42C0DD
:100AF00083EE4DC080917D0382FF38C0F5CF809199
:100B00007D0382FD33C080917E0380FD31C0ECCF38
:100B100080917E0381FF32C080917D0384FD2AC0D5
:100B200087EE35C080917D0383FF26C0F5CF80918D
:100B30007D0383FD21C080917E0381FD1FC0ECCF2A
:100B400080917D0385FD1CC01DC080917D0385FDC6
:100B500019C016C080917D0386FD16C017C0809114
:100B60007D0386FD13C010C089E311C082EE0FC063
:100B700080EE0DC080E00BC086EE09C084EE07C099
:100B800089E205C085E303C08AE201C081E390E009
:100B9000089590917D0392FF0DC0282F2871283071
:100BA00019F4877F846006C0282F2471243011F443
:100BB0008B7F886093FF0DC0282F2871283119F48E
:100BC000877E846106C0282F2471243111F48B7E26
:100BD000886120917E0320FF0DC0382F3871383096
:100BE00019F4877F816006C0382F3171313011F4DC
:100BF0008E7F886021FF0DC0282F2871283119F4BD
:100C0000877E816106C0282F2171213111F48E7EEB
:100C1000886194FD877E0895E82FF0E0ED58FC4F41
:100C200080810895089580EA8A95F1F708950895DE
:100C30000C9417060C9418060C9417060C941C06BA
:100C4000CF93DF93A2E4B2E047E452E061E070E0CA
:100C50008D91E82FE295EF70F0E021A18F70EB010C
:100C600002C0CC0FDD1F8A95E2F7CE019C2F909534
:100C7000922391A392A1892B82A34A175B0741F784
:100C8000ACE3B2E042E452E061E070E08D91E82F25
:100C9000E295EF70F0E021A18F70EB0102C0CC0F64
:100CA000DD1F8A95E2F7CE019C2F9095922391A3A8
:100CB00092A1892B82A34A175B0741F7EEE6F3E086
:100CC000A3E7B3E083E793E011921D928E179F078D
:100CD000D9F785E00E94F606DF91CF910C94870347
:100CE0006F927F928F929F92AF92BF92CF92DF923C
:100CF000EF92FF920F931F93CF93DF9382E4882E9E
:100D000082E0982E0EE613E093E7A92E93E0B92E29
:100D1000712CCC24C394D12CF40181914F01C82FA4
:100D2000C295CF70D0E099A18F70760101C0EE0C12
:100D30008A95EAF7892F8E2989A38AA16E2C60945F
:100D400086218AA30E941306ECE3F2E040E050E023
:100D500020E03191A32FA295AF70B0E090968C91D6
:100D600090E03F7002C0959587953A95E2F780FD37
:100D700007C08C2D042E01C0880F0A94EAF701C029
:100D800080E0282B4F5F5F4F4630510511F789A156
:100D9000682269A28AA1E82AEAA2F80180812817BC
:100DA00019F0208381E001C080E0782A0F5F1F4F97
:100DB000A016B10609F0B0CF272D45E063E773E038
:100DC0008EE693E00E94F7060E949103872DDF9143
:100DD000CF911F910F91FF90EF90DF90CF90BF9038
:100DE000AF909F908F907F906F9008950895FF929D
:100DF0000F931F93CF93DF938C01F62ED72FC42F21
:100E0000222349F081E080937A020E94EF199093A7
:100E100079028093780280917A028823C1F08091D0
:100E20007802909179020E94FB19069780F0EF2DCD
:100E3000FD2FD8014C2F50E0CD01801B910B841762
:100E400095071CF48D918193F7CF10927A02DF9170
:100E5000CF911F910F91FF9008950E94E917811182
:100E600002C00E949C180E94241880937803282FA7
:100E700026952695269530E02430310524F087709C
:100E80008861809378038091780380FF04C0869501
:100E90008695869501C080E00C943C0820917803EB
:100EA000822F869586958695482F50E043305105D0
:100EB00054F48F5F982F990F990F990F822F877095
:100EC000892B8093780380917803816080937803E5
:100ED0000E942818809178038695869586950C94B3
:100EE0003C0880917803982F969596959695A1F059
:100EF000915E990F990F990F8770892B80937803D2
:100F0000887F91E009F490E08091780390FB80F96C
:100F1000809378030E94281880917803869586959F
:100F200086950C943C088091780380FD13C0816005
:100F300080937803813019F489E08093780380915D
:100F400078030E9428188091780386958695869567
:100F50000C943C0808958091780380FF08C08E7F30
:100F6000809378030E94281880E00C943C08089530
:100F70008091780380FD0C94AB070C9493079091BB
:100F80007803892F8695869586958F5F8F719770E8
:100F9000843038F4880F880F880F892B809378036A
:100FA00002C09093780380917803887F91E009F4E0
:100FB00090E08091780390FB80F9809378030E9401
:100FC0002818809178038695869586950C943C0820
:100FD000843008F083E0909178039770282F220FD7
:100FE000220F220F922B90937803987F21E009F42F
:100FF00020E09091780320FB90F9909378030C9473
:101000003C080E94E807809178030C9428189C0102
:10101000FB018281882349F12D3BFCE53F07C9F0A4
:1010200040F42B3BECE53E0769F02C3B3C4561F07E
:1010300008952F3B9CE5390791F070F0203C3C452A
:1010400089F0089583E001C080E00E94010880E0FB
:1010500008950E947107FBCF0E944E07F8CF0E94AF
:10106000B807F5CF0E94BF07F2CF81E00895259A17
:101070002D9808952D980895CF92DF92EF92FF92C8
:10108000CF93C82F843050F4811109C08091800023
:101090008F77809380000E943A0806C0C3E0809159
:1010A00080008068809380002C2F30E0AFEFBFEF8E
:1010B0000E94C12523E030E040E050E00E949925E5
:1010C000C9012C3764E1360728F469E070E00E941A
:1010D000712529C0DA01C9018A50974DAF4FBF4F22
:1010E0006627782F892F9A2F25EF38E241E050E0CC
:1010F0000E94992569017A01CA01B9010E946125FE
:101100009B01AC01C701B6010E946125BB27A92F35
:10111000982F872F009721E0A207B10511F0BC019D
:1011200002C06FEF7FEF7093890060938800CF91CA
:10113000FF90EF90DF90CF90089508950E943708B8
:1011400082E88093800089E1809381008FEF9FEF98
:1011500090938700809386000C942D070F931F9324
:10116000CF93DF93C62FD42F122FFC0182818823C7
:10117000C9F060937D020E94EF1990937C028093E6
:101180007B0280E28C0F883008F057C0C77081E086
:1011900001C0880FCA95EAF7DF91CF911F910F9197
:1011A0000C94CF0E80917D02681330C080917B0239
:1011B00090917C020E94FB19883C910538F500E271
:1011C0000D0FCD17B9F080E28C0F883040F4C77056
:1011D00081E001C0880FCA95EAF70E94D60E083058
:1011E00028F581E09D2F977001C0880F9A95EAF746
:1011F0000E94CF0E812F0E94BC0E0830F0F4D770F1
:1012000081E001C0880FDA95EAF70AC080E28C0F0E
:10121000883098F4C77081E001C0880FCA95EAF75A
:10122000DF91CF911F910F910C94D60E812FDF91FA
:10123000CF911F910F910C94BC0EDF91CF911F9114
:101240000F9108959C01CB01233F4CE53407F9F041
:1012500078F4283DFCE53F07B9F0293D4CE534071B
:1012600011F1273D3C4531F526E241EE61EE1EC00D
:10127000253FFCE53F0799F070F0263F3C45D1F44F
:1012800027E245EE66EE12C027E245EE0EC026E2EA
:1012900041EE60EE0BC027E245EE64EE07C026E2A9
:1012A00041EE62EE03C028E241E065EE0E94AE0826
:1012B00080E00895FC018281882319F010927D025C
:1012C000089581E00895CF93DF93EC01FB018281C3
:1012D000882309F41FC1C230FCE5DF0708F41BC1F5
:1012E000C6319CE5D90738F09E012A5F3C4529307C
:1012F000310508F010C10E94061890937E03809378
:101300007D03C031ECE5DE0709F4C3C008F041C03D
:10131000C8308CE5D80709F49AC0F0F4C430ECE585
:10132000DE0709F487C068F4C2308CE5D80709F4F9
:1013300077C0C330DC4509F0E3C080917D03826053
:1013400076C0C630ECE5DE0709F46EC008F07BC05D
:1013500080917D0388606BC0CC308CE5D80709F4A0
:1013600085C068F4CA30ECE5DE0709F474C008F003
:1013700079C00E94671180917D03806858C0CE308B
:101380008CE5D80709F476C008F07FC080917D0312
:101390008BC0CB3FECE5DE0709F44FC018F5C33135
:1013A0008CE5D80709F47DC078F4C131ECE5DE079F
:1013B00009F473C0C231DC4509F0A2C00E94671174
:1013C00080917D038F7733C0C5318CE5D80709F450
:1013D00072C008F486C0CA3FDC4509F091C0809114
:1013E0007E033EC0CF3FFCE5DF0709F45FC058F441
:1013F000CD3F9CE5D90709F444C008F43FC0809173
:101400007E0382602DC0C130FDE5DF0709F475C0A1
:1014100008F45DC0C230DD4509F072C080E06EC0E6
:1014200080917D03816003C080917D038061809302
:101430007D0366C080917D0311C080917E03826030
:1014400080937E035DC080917D038062F0CF8091A8
:101450007D038064ECCF80917D0388608460E7CF5A
:101460008160EECF80917D038E7FE1CF80917D03FF
:101470008D7FDDCF80917D03877FD9CF80917E03E3
:1014800018C080917E038D7FDBCF80917D038F7E9E
:10149000CECF80917D038F7DCACF80917D038F7BDE
:1014A000C6CF80917D03877F8B7FC1CF80917E03E4
:1014B0008D7F8E7FC5CF80917D0382FB222720F90F
:1014C00091E0922790FB82F990FB83F9B0CF809155
:1014D0007E03982F909591708E7F892B90FB81F9D8
:1014E000AFCF0E94671180917D0387FB222720F9EF
:1014F00091E0922790FB87F99ACF81E00E949E1895
:1015000080917D0390917E030E9417180E946711BD
:1015100080E001C081E0DF91CF910895CF93DF9308
:1015200086319C4541F5EB010E943517982F8A8141
:101530002091F6013091F701882379F09A7A81E0C1
:1015400009F480E080937E02911102C069E201C03B
:1015500065E3C9010E9439190AC080917E02811198
:1015600002C069E201C065E3C9010E9444190E94FA
:10157000861780E001C081E0DF91CF9108950F933D
:101580001F93CF93DF939091AF029923E1F08823CB
:1015900019F010E006E003C01092AF0214C0809171
:1015A000AF021817C8F7019FE0011124C158DD4FA1
:1015B000688179818A810E940117BC01CE010E9455
:1015C000DD0E1F5FECCFDF91CF911F910F9108953A
:1015D0008091F5018823A1F08091B002882381F0E9
:1015E0008091B3029091B402009751F00E94FB19D0
:1015F000893C910528F01092B00281E00C94BF0A5A
:1016000008951092B0021092F5011092B402109257
:10161000B30281E00C94BF0A8091F50181110C9412
:10162000010B81E08093F50108955F926F927F92A4
:101630008F929F92AF92BF92CF92DF92EF92FF92E2
:101640000F931F93CF93DF936C018B011092B10224
:10165000873F2CE5920741F4FB01C281CC23C9F0FE
:1016600081E08093F5010EC1883FFCE59F0739F4C6
:10167000FB01C281CC2369F00E94010B03C1893FA9
:101680009C4539F4FB01C281CC2319F00E940C0B5C
:10169000F9C08091F501882309F4F3C01092B202D9
:1016A000BB24B394A12C85E0982EC1E0D0E088241F
:1016B00083948091B202893008F0A1C0E82EF12C09
:1016C0009E9CF0019F9CF00D1124E050FF4F408143
:1016D000518177247A9490E0FA01E90FF11DE90F26
:1016E000F11D25913491C216D30609F4792E232BCE
:1016F00011F09F5FF1CFFFEF7F1202C0612C66C037
:101700005090B002F8016280662069F19E9CF00161
:101710009F9CF00D1124E050FF4F9E0101C0220F4D
:101720007A94EAF73481232B2483552039F3AE01D0
:1017300002C0440F551F9A95E2F74150510930E01D
:101740004217530709F042C0228133812115310528
:1017500021F0C9010E94030303C061E00E948E02D0
:101760008092B10233C09E0102C0220F331F9A95AE
:10177000E2F7215031099E9CF0019F9CF00D11244D
:10178000E050FF4F448150E02417350769F422816F
:1017900033812115310521F0C9010E94190305C0CB
:1017A00060E00E948E0201C0512C9E9CF0019F9C23
:1017B000F00D1124E050FF4FCE0101C0880F7A9444
:1017C000EAF78095948189238483652CA628BB2021
:1017D00069F09E9CF0019F9CF00D1124E050FF4F9A
:1017E00091E08481811190E0892F01C080E08170B7
:1017F000B82E8091B2028F5F8093B2025ACF80914F
:10180000B102882351F00E94EF199093B4028093A3
:10181000B30280E00E94BF0A30C0A1100DC081E079
:101820000E94BF0ABB2049F11092B4021092B30289
:1018300081E08093B00221C0F80182818823E9F021
:101840008091B0028823C9F00E94EF199093B402EE
:101850008093B302A091AF02A83078F481E08A0FA0
:101860008093AF0286E08A9FD0011124A158BD4F1A
:10187000F80101900D928A95E1F781E0CA2DC82701
:1018800001C0C1E08C2FDF91CF911F910F91FF908C
:10189000EF90DF90CF90BF90AF909F908F907F9010
:1018A0006F905F9008959093BA028093B902089563
:1018B000E091B902F091BA02309721F00190F081E5
:1018C000E02D099480E00895E091B902F091BA0208
:1018D000309799F020910A02222359F020917D033C
:1018E00027FF07C0DC012C9111962C93119725E05E
:1018F0002C930280F381E02D09940895E091B902C0
:10190000F091BA02309739F022E0DC012C93048088
:10191000F581E02D099408952091B7023091B80225
:101920002817390771F09093B8028093B702E091BD
:10193000B902F091BA02309721F00680F781E02DCC
:10194000099408952091B5023091B60228173907FD
:1019500071F09093B6028093B502E091B902F091D4
:10196000BA02309721F00084F185E02D09940895A2
:1019700085B7806885BF85B7806885BF089508955D
:101980000C94BF0C0C94C00C0C94BF0C0C94BF0CAA
:101990000E94B80C0E94C40C0C94C20C81E0089503
:1019A0000C94CE0C0E94E6190E9420060E94851A13
:1019B0000E942D070C94C60CAF92BF92CF92DF927B
:1019C000EF92FF920F931F93CF93DF93CDB7DEB7C4
:1019D0002A970FB6F894DEBF0FBECDBF0E947006E7
:1019E0000E94D00C811111C08FEF89838A831B82E2
:1019F0000E94EF198160782F9D838C8349815A81E1
:101A00006B818D810E94760D40C08CEBA82E82E008
:101A1000B82E00E010E0C02E802F0E940C06E82EA9
:101A2000F501D1905F01D82631F40F5F1F4F0530CB
:101A3000110589F7D9CF80913B0381FD0E941206E1
:101A400080E0FF24F3949D2D9F21D1F08E83CF82DF
:101A5000EF2081E009F480E088870E94EF1981601F
:101A6000782F9A8789874E815F8168858A850E9451
:101A7000760DF801E454FD4F8081F826F08205C010
:101A80008F5FFF0C8630F9F6D0CF0E949D080E9430
:101A9000391D0E94580C9091BB028917B1F00E9429
:101AA000580C8093BB022A960FB6F894DEBF0FBE87
:101AB000CDBFDF91CF911F910F91FF90EF90DF90FD
:101AC000CF90BF90AF900C949C032A960FB6F894D9
:101AD000DEBF0FBECDBFDF91CF911F910F91FF9061
:101AE000EF90DF90CF90BF90AF900895CF93DF93AA
:101AF000CDB7DEB72B970FB6F894DEBF0FBECDBFC4
:101B00004F83588769877A878B87DE01119686E035
:101B1000FD0111928A95E9F785E0FE013796019063
:101B20000D928A95E1F749815A816B817C818D8183
:101B30009E810E9420142B960FB6F894DEBF0FBE34
:101B4000CDBFDF91CF910895FC01808191810E94EA
:101B5000F6160895CF93882309F4A4C0C82F8238BD
:101B6000C1F40E94580C81FD9DC069E38091F6018B
:101B70009091F7010E9439190E9486172FEF81EE8C
:101B800094E0215080409040E1F700C0000069E3FC
:101B900019C0833801F50E94580C80FD83C063E5AD
:101BA0008091F6019091F7010E9439190E948617E1
:101BB0002FEF81EE94E0215080409040E1F700C08B
:101BC000000063E58091F6019091F7010E944419AD
:101BD000CF910C9486178438C1F40E94580C82FD72
:101BE00061C067E48091F6019091F7010E94391974
:101BF0000E9486172FEF81EE94E0215080409040A4
:101C0000E1F700C0000067E4DDCF8CEF8C0F813A74
:101C1000D0F46C2F8091F6019091F7010E94B918D1
:101C2000882349F06C2F8091F6019091F7010E9472
:101C300044190E9486176C2F8091F6019091F7014C
:101C40000E943919C5CF80E28C0F883048F4C770E4
:101C500081E001C0880FCA95EAF70E943817B8CF13
:101C6000EBE5EC0FE33040F4F0E0EB58FD4F808102
:101C700090E0CF910C948C0CE8E5EC0FE73150F438
:101C8000F0E0EE0FFF1FE95BFD4F80819181CF9166
:101C90000C94A20CC03F30F08C2F0E94411CCF91BD
:101CA0000C942E1DCF910895882309F464C08238C6
:101CB00079F40E94580C81FF5EC069E38091F601BF
:101CC0009091F7010E9439190E94861769E310C0AC
:101CD0008338B1F40E94580C80FF4DC063E58091B9
:101CE000F6019091F7010E9439190E94861763E569
:101CF0008091F6019091F7010E9444190C94861787
:101D0000843879F40E94580C82FF35C067E48091D2
:101D1000F6019091F7010E9439190E94861767E435
:101D2000E7CF9CEF980F913A10F4682FE1CF90E243
:101D3000980F983050F4877091E001C0990F8A9500
:101D4000EAF7892F0E943E17D9CF9BE5980F933071
:101D500020F480E090E00C948C0C98E5980F97317B
:101D600020F480E090E00C94A20C803F20F00E94D0
:101D7000A91C0C942E1D0895CF93C82F0E94AA0D64
:101D8000C93349F42FEF87EE93E021508040904013
:101D9000E1F700C000008C2FCF910C94540E8823E3
:101DA00021F00E9438170C9486170895882321F09B
:101DB0000E943E170C9486170895CF92DF92EF92FF
:101DC000FF920F931F93CF93DF937C01062FC72FB2
:101DD000FC01158112951F70D281D1110E945817F4
:101DE0000E942E17882399F0DD2389F08C2F807FA5
:101DF000803421F080E2800F883048F082E00E9439
:101E0000D0170E942E1791E0D82ED92601C0D12CD0
:101E1000CC2EC2948FE0C8228C2D90E0FC01EA5AAF
:101E2000FF4F0C94BB258C2F807FCF70882311F03F
:101E3000C295C07FDD2399F0CC2309F487C180E2ED
:101E4000800F883010F0011104C08C2F0E943817C9
:101E500003C08C2F0E944B170E94861777C1802FDA
:101E60000E94540ECC2309F496C180E2800F883082
:101E700010F0011104C08C2F0E943E1703C08C2F5C
:101E80000E9451170E94861786C18C2F807FCF70C9
:101E9000803211F0C295C07F002319F00130C9F0E3
:101EA00025C0DD2371F0112341F0113031F40E947F
:101EB0006B178C2B0E9473176EC10E946B178C2BB3
:101EC0000EC0112319F0113009F465C10E947C176E
:101ED0001FC0DD2339F0163008F05DC18C2F0E9441
:101EE000CF0E59C1153008F056C112C0DD2319F0CC
:101EF0001123A1F32BC1112359F0093309F037C184
:101F0000FFEF27EE83E0F15020408040E1F72DC144
:101F10008C2F0E94D60E3FC18C2F8695869583709C
:101F200019F0813061F037C1DD2321F0802F9C2F23
:101F3000937002C080E090E00E948C0C34C1DD23DD
:101F400021F0802F9C2F937002C080E090E00E94CF
:101F5000A20C29C1802FDD2319F00E94411C02C070
:101F60000E94A91C0E942E1D1EC18C2F837009F097
:101F700045C0D11114C1402F429546954770440F7A
:101F8000440F602F6F70862F90E0A0E0B0E0042E29
:101F900004C0880F991FAA1FBB1F0A94D2F704FF21
:101FA00010C00FE010E020E030E004C0000F111F6F
:101FB000221F331F4A95D2F7009510952095309532
:101FC00003C000E010E09801C695C695C370BC013F
:101FD000CD01602B712B822B932BC23049F058F42A
:101FE000C13019F00E947115DAC00E945F15D7C088
:101FF0000E948315D4C00E945D15D1C0DD2319F065
:102000008C2F817001C08695882309F4C8C0402FA9
:10201000429546954770440F440F602F6F70862F8E
:1020200090E0A0E0B0E0042E04C0880F991FAA1F22
:10203000BB1F0A94D2F704FF10C00FE010E020E0AD
:1020400030E004C0000F111F221F331F4A95D2F742
:10205000009510952095309503C000E010E09801A0
:10206000C695C695C370BC01CD01602B712B822B28
:10207000932BC23049F058F4C13019F00E94361643
:102080008EC00E9424168BC00E94481688C00E94F1
:10209000971585C0CF70DD2339F08C2F0E94BD15B8
:1020A000802F0E94CF0E7BC0802F0E94D60E8C2FD7
:1020B0000E94DE1574C0023F01F128F4003F41F098
:1020C000013FA1F03FC0033FF9F0043F39F13AC0AE
:1020D000DD2341F0153008F05EC08C2F8F710E9417
:1020E000031659C0163008F056C0F7CFDD2339F07B
:1020F0008C2F8F710E94BD154EC0DD23C9F38C2F2C
:102100008F710E94DE1547C0DD2329F08C2F8F715F
:102110000E94A81540C00E94A3153DC0DD2349F0D0
:10212000CF718C2F0E94BD1563E08C2F0E94BB17CE
:1021300032C081E00E94D017123068F182E00E9424
:10214000D01729C0DD2331F0112391F2802F0E9496
:10215000AA0D21C0112399F2093349F49FEFE7EE4C
:10216000F3E09150E040F040E1F700C00000802F24
:102170000E94540E10C04C2F4F70602FC7010E9458
:10218000FE030E94CE140FC04C2F4F70602FC7016A
:102190000E94010408C088EF8C0D843020F40E9456
:1021A000580C0E949C03DD20C9F00E942A1780FD74
:1021B00015C0F70112820E9424170E94BD15C701A5
:1021C0000E940F110E942417DF91CF911F910F9150
:1021D000FF90EF90DF90CF900C94DE15DF91CF91C0
:1021E0001F910F91FF90EF90DF90CF9008950F9384
:1021F0001F93CF93DF93EC01688179818A810E94DC
:1022000001178C010E945A160E944B15B801CE018D
:102210000E94DD0EDF91CF911F910F910895CF9312
:10222000DF93EC01988189812B813C81232B31F054
:102230008F3F31F481E09F3F19F403C081E001C07A
:1022400080E080FD19C0CE010E94B50381110CC051
:102250000E942E17882381F08A81882369F082E00A
:10226000DF91CF910C94D017CE010E94F710CE01D0
:10227000DF91CF910C947C03DF91CF910895882357
:1022800021F00E944B170C9486170895882321F0A3
:102290000E9451170C94861708950E9458170E94A7
:1022A00068170E9486170E94581E0E942E1D80E00B
:1022B00090E00E948C0C80E090E00C94A20C809145
:1022C000F6019091F7010E944F190C944D110E9454
:1022D00048170C945F11E92FE295EF704E2F50E0F4
:1022E000FA013297EE30F105B0F4EA59FF4F0C9441
:1022F000BB25803F91F018F4883E68F40EC0843FFF
:1023000051F40BC0883E48F0813F29F406C093FB8E
:10231000882780F9089580E0089581E008950E945B
:10232000F6160E946B110895CF93DF9300D000D072
:102330001F92CDB7DEB70F900F900F900F900F90B8
:10234000DF91CF910895CF93DF9300D000D000D0DC
:10235000CDB7DEB726960FB6F894DEBF0FBECDBF61
:10236000DF91CF9108951F93CF93DF93C091C20265
:1023700016E08091C302C81799F0D0E01C9FF001CD
:102380001D9FF00D1124EC53FD4F4081518162815E
:102390007381848195810E94A3112196C770E9CF32
:1023A000DF91CF911F9108954091F4025091F50271
:1023B0006091F6027091F7028091F8029091F90213
:1023C0000C94A3110F931F93CF93DF938091F90285
:1023D00082958F7009F05DC08091F602882309F420
:1023E00058C08091C2021091C3026091F4027091B2
:1023F000F502C091F702D091F80291E06F3F09F029
:1024000090E0292F06E0811709F443C0209721F0BE
:102410007F3F21F030E003C031E001C0322F90E077
:1024200030FD34C0089FF001099FF00D1124DF0139
:10243000AC53BD4F11963C911197371327C03C9177
:10244000361324C012963C91129731111FC0139677
:102450004D915C9114974C1B5D0B483C5105B0F4B9
:102460008091F9028F7080618093F902E753FD4FEC
:1024700080818F708061808384EF92E00E940F11D1
:10248000DF91CF911F910F910C94B311019687703A
:10249000BACFDF91CF911F910F9108959F92AF9284
:1024A000BF92CF92DF92EF92FF920F931F93CF9341
:1024B000DF93CDB7DEB761970FB6F894DEBF0FBEDE
:1024C000CDBF8C0185E0F801DE011D9601900D92D3
:1024D0008A95E1F7F80140815181E2809091F40200
:1024E0006091F5022091F7023091F8022115310533
:1024F00031F06F3F31F481E09F3F19F403C081E078
:1025000001C080E0F82FF1709F2E80FD46C1F801D8
:10251000A380B48084EFC82E82E0D82EF090F6021B
:10252000F501E21BF30BFF2009F4DFC08091F902F3
:10253000E83CF10508F09BC0282F207F09F052C02D
:10254000561313C0491311C0FE2CE1100EC08F703A
:1025500080618093F9020E94D411C6010E940F117C
:102560008091F902F801858358C1AB2831F05F3FB3
:1025700031F481E04F3F19F403C081E001C080E0F5
:1025800080FD03C081E08E2502C080E090E0F82F3E
:10259000F170FF2E80FF1CC08091C2022091C30207
:1025A00036E0821709F417C190E0389FF001399F97
:1025B000F00D1124EC53FD4F6181561306C060816C
:1025C000461303C06281E61203C001968770E9CF0B
:1025D000FE2CEE2009F421C18091F90281608093E4
:1025E000F9025AC0561306C0491304C0E11002C0D4
:1025F000F8019FC04D875E878D859E850E948F1153
:10260000882379F1EE2069F12091F902822F8295D9
:102610008F7090E0029774F08091F4029091F5022F
:1026200098878F831986BB86AA862C87CE0107964A
:102630000E940F1186E0F801A4EFB2E001900D9224
:102640008A95E1F70E94E2110E94D4110DC056173D
:1026500029F14D875E878D859E850E948F1181119E
:102660002CC0C8010E940F11FF24F394D6C0282F5C
:10267000207F69F77A2DB98AA88A6E2D89890E94F0
:10268000941184EF92E00E940F1186E0F6011192FE
:102690008A95E9F70E94D411F12CBFC04913D9CF14
:1026A000E110D7CFF8018583C8010E940F1186E0A1
:1026B000F60111928A95E9F7B0C0EE2091F22091CF
:1026C000F902822F82958F7090E002970CF4B2CFBE
:1026D0008091F4029091F5029A8389831B82BD82D6
:1026E000AC822E83CE010196A3CFE83CF10508F021
:1026F00047C0FE2CEE2009F4B4CF561330C0491366
:102700002EC02091F90220FD21C0822F82958F706A
:10271000482F50E041155105C9F0F80125834F308D
:10272000510541F08F5F982F9295907F822F8F7087
:10273000892B8583C8010E940F1186E0F801A4EF60
:10274000B2E001900D928A95E1F742C086E0F8016F
:10275000A4EFB2E001900D928A95E1F75EC04D873B
:102760005E878D859E850E948F11811163CF809138
:10277000F90281608093F902C8010E940F114DC0D7
:102780007A2DB98AA88A6E2D89890E94941186E0D3
:10279000F60111928A95E9F71BC0EE2009F461CF8A
:1027A0004D875E878D859E850E948F11F82E882328
:1027B00009F457CF86E0F801A4EFB2E001900D9242
:1027C0008A95E1F784EF92E00E94A40D0E94E21145
:1027D0000E94D41122C04D875E878D859E850E9400
:1027E000F616292F22952F70223028F49F7039F089
:1027F000811105C00BC0243028F49F7049F4805E1D
:10280000883020F0C8010E940F119F2CF92C05C0C0
:10281000F8019581907F99F7F9CF8F2D61960FB6CA
:10282000F894DEBF0FBECDBFDF91CF911F910F9106
:10283000FF90EF90DF90CF90BF90AF909F90089562
:102840001F93CF93DF93CDB7DEB72C970FB6F894D5
:10285000DEBF0FBECDBF4F83588769877A878B87CE
:102860009C87CE0107960E944E128823D1F09F814B
:1028700088852A853B85232B31F08F3F31F481E019
:102880009F3F19F403C081E001C080E080FD47C094
:102890004F81588569857A858B859C850E94A31117
:1028A0003EC086E0FE013796DE01119601900D9242
:1028B0008A95E1F7FF81E8856A857B856115710559
:1028C00031F0EF3F31F481E0FF3F19F403C081E0C4
:1028D00001C080E080FD23C02091C30230E0C90127
:1028E0000196877099274091C20250E0841795079E
:1028F000F1F1F983EA837D836C8396E0929FD001A6
:10290000939FB00D1124AC53BD4FFE013196019041
:102910000D929A95E1F78093C3020E94B31116E0DD
:102920008091C2029091C302891771F1189FC00172
:1029300011248C539D4F0E944E12882329F1E0915F
:10294000C2021E9FF0011124EC53FD4F40815181C2
:1029500062817381848195810E94A3118091C2025A
:1029600090E00196877099278093C202D9CF0E9488
:1029700067111092C3021092C202E4EFF2E086E007
:10298000DF011D928A95E9F72C960FB6F894DEBF09
:102990000FBECDBFDF91CF911F910895EF92FF92AF
:1029A0000F931F93CF93DF938C01892B09F46CC095
:1029B000F12CEE24E394E8012196F8018491843708
:1029C00040F4843008F051C0813081F0823019F138
:1029D0005BC0853709F444C0A8F19CE7980F903795
:1029E00008F052C08F770E94540E41C00E5F1F4FF7
:1029F000FE01849190E2980F983050F48770FE2D7C
:102A000001C0FF0F8A95EAF78F2F0E945B1714C051
:102A10000E94AA0D2DC00E5F1F4FFE01849190E20F
:102A2000980F983060F48770FE2D01C0FF0F8A95D3
:102A3000EAF78F2F0E9461170E94861719C00E9423
:102A4000540E16C00E5F1F4FFE01C491CC2381F0BF
:102A50008FE99FE00197F1F700C00000C150F6CF69
:102A60000E5F1F4FFE01F49003C00E94AA0D8E015D
:102A70008F2D882309F49FCFEFE9FFE03197F1F71D
:102A800000C000008150F5CFDF91CF911F910F91D1
:102A9000FF90EF900895089508950C944C150C94B0
:102AA0004D150E944F15609312037093130380938A
:102AB0001403909315030C944D110C9451150F931E
:102AC0001F9300911203109113032091140330916E
:102AD0001503602B712B822B932B1F910F910C945C
:102AE00051150F931F93009112031091130320911E
:102AF00014033091150360237123822393231F91C4
:102B00000F910C9451150F931F9300911203109184
:102B10001303209114033091150360277127822736
:102B200093271F910F910C9451150C944C150E94F2
:102B3000951560930E0370930F0380931003909389
:102B400011030C944D1160E070E0CB010C949715CB
:102B50000F931F9341E050E060E070E08A019B0119
:102B600004C0000F111F221F331F8A95D2F7C9011D
:102B7000B8011F910F910C9497150F931F9341E08B
:102B800050E060E070E004C0440F551F661F771FDF
:102B90008A95D2F780910E0390910F03A0911003B4
:102BA000B09111038A019B01082B192B2A2B3B2B77
:102BB000C901B8011F910F910C9497150F931F93A2
:102BC00041E050E060E070E004C0440F551F661F14
:102BD000771F8A95D2F740955095609570958091B2
:102BE0000E0390910F03A0911003B09111038A017D
:102BF0009B01082319232A233B23C901B8011F91F4
:102C00000F910C9497150F931F9341E050E060E0F3
:102C100070E004C0440F551F661F771F8A95D2F7D6
:102C200080910E0390910F03A0911003B0911103B6
:102C30008A019B01082719272A273B27C901B801C8
:102C40001F910F910C9497150F931F9300910E03F2
:102C500010910F032091100330911103602B712B01
:102C6000822B932B1F910F910C9497150F931F9309
:102C700000910E0310910F03209110033091110366
:102C800060237123822393231F910F910C94971536
:102C90000F931F9300910E0310910F0320911003C7
:102CA0003091110360277127822793271F910F917D
:102CB0000C9497150895292F220F920F990F890FC1
:102CC000E82FE695E695E695877051E001C0550F2F
:102CD0008A95EAF785E0E89FF0011124E650FD4F60
:102CE00020E030E070E04081CB01022E02C09695DA
:102CF00087950A94E2F7817081958427852384273C
:102D000081932F5F3F4F2530310569F70895292FB3
:102D1000220F920F990F890F682F66956695669519
:102D2000982F977085E0689FB001112440E050E033
:102D300080E0FB01E40FF51FE650FD4F208130E0FD
:102D4000092E02C0369527950A94E2F721703327A1
:102D5000042E01C0220F0A94EAF7822B4F5F5F4FC7
:102D60004530510531F70895BF92CF92DF92EF922F
:102D7000FF920F931F93CF93DF938C01C0900E03AC
:102D8000D0900F03E0901003F09011038091120394
:102D900090911303A0911403B0911503C82AD92A66
:102DA000EA2AFB2ACFE1D0E0D701C6010C2E04C0ED
:102DB000B695A795979587950A94D2F780FD04C09C
:102DC000219790F7B12C07C0BC2EB8018C2F0E9420
:102DD0001D040197A9F38B2DDF91CF911F910F91C6
:102DE000FF90EF90DF90CF90BF900895CF93DF9347
:102DF000EC010E94B416BE010E941D04DF91CF9128
:102E000008951F93CF93DF93EB019091C102992313
:102E100021F0CB010E94F61613C0882349F0CB01A4
:102E20000E94B416182F682FCE010E945B1604C0B2
:102E3000CB010E948716182FBE01812F0E941D040E
:102E4000DF91CF911F910895809116038595859507
:102E500085950895809116038770089590911603C3
:102E6000977081E009F480E0089580913A03089515
:102E700090913A03892B80933A030895809590911D
:102E80003A03892380933A03089580933A0308957F
:102E900010923A03089590913903892B8093390356
:102EA000089580959091390389238093390308957B
:102EB00010923903089590913803892B8093380339
:102EC000089580959091380389238093380308955D
:102ED00010923803089580911703089508950C9473
:102EE0006E170C946F1790911703981721F0809329
:102EF00017030C947117089580911703882329F004
:102F00001092170380E00C9471170895E091F60178
:102F1000F091F70180913A038083E091F601F091FE
:102F2000F701908180913903892B8083E091F6012C
:102F3000F091F701908180913803892B80838091F3
:102F40001703882381F0E091F601F091F701908159
:102F5000892B80838091F6019091F7010E94A3183C
:102F600081110E947C178091F6019091F7010C94D9
:102F7000640C0C946E1798E0899F90011124262B05
:102F8000209316030E94BD158091160385958595A3
:102F900085950C94B9171092160380E00C94B9171C
:102FA000209116038095822380931603982F9770A3
:102FB00079F430E0482F082E000C550B2417350704
:102FC00039F08595859585950E94DE150C94CB1773
:102FD000089580E090E00E94E32521E08C3E9E4F22
:102FE00009F020E0822F089582E090E00C94DB2528
:102FF000682F82E090E00C94E92583E090E00C9447
:10300000DB25682F83E090E00C94E925CF9384E0E2
:1030100090E00E94DB25C82F81E290E00E94DB2532
:103020002C2F30E0A901582BCA01CF910895CF93DE
:10303000C92F682F84E090E00E94E9256C2F81E27F
:1030400090E0CF910C94E92586E090E00C94DB258C
:10305000682F86E090E00C94E925AB01BC018FE07D
:1030600090E00C94FB25AB01BC0183E190E00C9453
:10307000FB2560E070E0CB010C94331860E070E059
:10308000CB010E942D180C9439186CEE7EEF80E075
:1030900090E00E94072660E082E090E00E94E9252F
:1030A00060E083E090E00E94E92510921203109204
:1030B0001303109214031092150360E084E090E073
:1030C0000E94E92560E081E290E00E94E92560E04D
:1030D00085E090E00E94E92560E086E090E00E94B3
:1030E000E9256FEF87E090E00E94E92540E050E09D
:1030F000BA0188E090E00E94FB2560E08DE090E05E
:103100000E94E92540E050E0BA0188E190E00E9489
:10311000FB2560E087E190E00E94E92540E050E077
:10312000BA018CE190E00E94FB2560E080E290E033
:103130000E94E9250C943E180C944518682F8EE0E7
:1031400090E00C94E925FC01329680910A028823D4
:1031500031F080917D0387FF02C09EE101C096E0BF
:1031600080E0915028F021912223D9F38F5FF9CF8D
:103170000895662351F120910A022223E9F020915B
:103180007D0327FF19C0462F4695469546954E313B
:10319000E0F4677021E030E002C0220F331F6A952F
:1031A000E2F7FC01E40FF11D828190E0282339232E
:1031B00081E0232B69F409C0FC0132960896219125
:1031C000621729F0E817F907D1F780E0089581E048
:1031D00008959C01FC0132969FEF80E041914617D3
:1031E00089F09F3F19F4411101C0982F8F5F8630FD
:1031F000A9F79F3F39F0F901E90FF11D97FDFA9505
:103200006283089508959C012A5F3F4FFC0142812B
:10321000461301C01282019682179307B9F70895E9
:10322000262F2695269526952E3168F4FC01E20F6F
:10323000F11D677021E030E001C0220F6A95EAF7C6
:103240008281282B22830895262F26952695269560
:103250002E3170F4FC01E20FF11D677021E030E0C7
:1032600001C0220F6A95EAF72095828128232283E4
:10327000089520910A02222329F020917D0327FD41
:103280000C9410190C94E91820910A02222329F0B9
:1032900020917D0327FD0C9424190C94031920918F
:1032A0000A02FC013296222331F080917D0387FFD0
:1032B00002C08EE101C086E0DF011D928A95E9F728
:1032C000089508950C9461190C946119CF930E948C
:1032D00064190E9470060E946219C0E08C2F0E943F
:1032E0000C06811104C0CF5FC530C1F701C081E079
:1032F000CF9108950C9461190C947A190E947C194D
:1033000080918303843061F110923C0320E488E1D2
:1033100090E00FB6F894A895809360000FBE2093BC
:10332000600080E00E943C0880E00E949C030E94B4
:103330007C1983B7817F846083BF83B7816083BF3B
:103340007894889583B78E7F83BF0FB6F894A8953D
:1033500080916000886180936000109260000FBED1
:1033600008950C9461190E9467110E942D070E9414
:10337000580C0E949C030C94B1191F920F920FB627
:103380000F9211248F939F93AF93BF9380913C032F
:10339000811113C08091790390917A03A0917B03EE
:1033A000B0917C034196A11DB11D80937903909348
:1033B0007A03A0937B03B0937C03BF91AF919F915D
:1033C0008F910F900FBE0F901F90189582E084BDD3
:1033D00093E095BD9AEF97BD80936E0008952FB747
:1033E000F8948091790390917A03A0917B03B09136
:1033F0007C032FBF08959C014FB7F8948091790307
:1034000090917A03A0917B03B0917C034FBF821B04
:10341000930B089578941F920F920FB60F92112478
:103420008F939F93AF93BF938091790390917A0389
:10343000A0917B03B0917C030196A11DB11D8093E7
:10344000790390937A03A0937B03B0937C03BF919D
:10345000AF919F918F910F900FBE0F901F90189575
:1034600087E797E790930108809300089AE088E146
:103470000FB6F894A895809360000FBE90936000FB
:10348000FFCFCF92DF92EF92FF920F931F93CF93D4
:10349000C0E0E82EF12C8C2F0E940C0600E010E01A
:1034A000C82ED12CC601002E02C0959587950A948E
:1034B000E2F780FD06C00F5F1F4F0630110591F740
:1034C0000AC0602F7C2F80E00E940204E816F906F3
:1034D00091F781E004C0CF5FC530E9F680E0CF917D
:1034E0001F910F91FF90EF90DF90CF900895CF93B1
:1034F000C82F8CE20E94411A882321F08C2FCF9193
:103500000C94411A80E0CF910895CF930E94E9175F
:10351000811102C00E949C18C5E6C15049F00E946A
:1035200070068FE39CE90197F1F700C00000F5CF2A
:1035300089E20E94771A811120C18AE20E94771ADB
:1035400081110E949C1885E00E94771A81110E94C7
:10355000301A0E94F41780933B0387E00E94771A89
:103560008823A9F18BE10E94771A882351F080917A
:103570003B0381FB222720F991E0922790FB81F900
:103580000EC08EE00E94771A882361F080913B0381
:1035900082FB222720F991E0922790FB82F9809309
:1035A0003B0315C080E10E94771A90913B0388236A
:1035B00041F093FB222720F981E0822780FB93F9D9
:1035C00004C0892F809580FB90F990933B038091F4
:1035D0003B030E94F8170E94061890937E03809385
:1035E0007D0380EE0E94771A882341F080917D034D
:1035F000982F909590FB80F980937D0389E30E943A
:10360000771A882359F080917D0381FB222720F9C6
:1036100091E0922790FB81F980937D0382EE0E94D6
:10362000771A882359F080917D0382FB222720F9A5
:1036300091E0922790FB82F980937D0386EE0E94B1
:10364000771A882359F080917D0383FB222720F984
:1036500091E0922790FB83F980937D0383EE0E9493
:10366000771A882359F080917D0384FB222720F963
:1036700091E0922790FB84F980937D0385E30E947B
:10368000771A882359F080917D0385FB222720F942
:1036900091E0922790FB85F980937D0381E30E945E
:1036A000771A882359F080917D0386FB222720F921
:1036B00091E0922790FB86F980937D0381E10E943F
:1036C000771A882359F080917D0387FB222720F900
:1036D00091E0922790FB87F980937D0380917D0391
:1036E00090917E030E94171887E20E94771AC82FD4
:1036F0008EE10E94771A8111C2608FE10E94771AD1
:103700008111C46080E20E94771A8111C86081E251
:103710000E94771A8111C06182E20E94771A81119A
:10372000C06283E20E94771A8111C06484E20E9421
:10373000771A882311F0C06802C0CC2329F08C2F9F
:103740000E9401186C2F03C00E94FD17682F70E0C3
:1037500080E090E00E945D158FE00E94771A882338
:1037600019F081E00E949E1885E10E94771A882353
:1037700021F080E0CF910C949E18CF910895809114
:10378000440380FF0BC06091FD0185E0689FB0019C
:10379000112475956795759567952BC081FF09C0B4
:1037A0006091FD0185E0689FB001112475956795D2
:1037B00020C082FF07C06091FD0185E0689FB001D5
:1037C000112417C0909143039923D1F06091FC011B
:1037D000961788F72091FD0185E0289F900111241C
:1037E000929FA001939F500D112470E0CA010E9486
:1037F00085256038710540F46115710519F406C01E
:1038000065E070E0862F08958FE7089581E00895C0
:103810008091440380FF08C06091F90170E07595C4
:1038200067957595679521C081FF06C06091F90184
:1038300070E07595679519C082FF04C06091F90129
:1038400070E010C090914303992399F06091F801C2
:103850009617A0F78091F901899FC001112470E0AB
:103860000E9485256038710540F46115710519F4D1
:1038700006C061E070E0862F08958FE7089581E02B
:103880000895803F21F40E94BF1B819504C0813FB1
:1038900029F40E94BF1B809348030895823F21F4BE
:1038A0000E94BF1B819504C0833F29F40E94BF1B67
:1038B000809347030895893F19F40E94081C05C0AE
:1038C0008A3F31F40E94081C819580934903089532
:1038D0008B3F21F40E94081C819504C08C3F29F481
:1038E0000E94081C80934A030895843F21F480912C
:1038F0004603816017C0853F21F4809146038260B2
:1039000011C0863F21F48091460384600BC0873F3D
:1039100021F480914603886005C0883F31F480918E
:10392000460380618093460308958D3F21F4809182
:10393000440381600BC08E3F21F480914403826078
:1039400005C08F3F29F48091440384608093440331
:103950000895803F39F48091480387FF6CC010922E
:10396000480369C0813F29F4809148031816BCF3CD
:1039700062C090914703823F29F497FF5CC0109288
:10398000470359C0833F19F41916CCF354C0893F3B
:1039900041F48091490318160CF04DC01092490370
:1039A0004AC08A3F29F48091490387FF44C0F6CF7B
:1039B0008B3F39F480914A0387FF3DC010924A0340
:1039C0003AC08C3F29F480914A031816BCF333C0E7
:1039D000843F21F4809146038E7F17C0853F21F4F8
:1039E000809146038D7F11C0863F21F4809146036C
:1039F0008B7F0BC0873F21F480914603877F05C0F2
:103A0000883F31F4809146038F7E8093460313C034
:103A10008D3F21F4809144038E7F0BC08E3F21F4B3
:103A2000809144038D7F05C08F3F29F4809144032A
:103A30008B7F809344038091470381110EC0809156
:103A4000480381110AC080914903811106C0809109
:103A50004A03811102C010924303089585E493E064
:103A60000E947E0C0E94EF199093420380934103C1
:103A70000895CF93DF9300D000D000D0CDB7DEB74C
:103A800086E0E5E4F3E0DE01119601900D928A955F
:103A9000E1F780914703811105C080914803882395
:103AA00009F47AC080913F03909140030E94FB1972
:103AB000AC0190914303992339F02091FE0130E04D
:103AC0002417350758F068C02091FF018AE0289F2D
:103AD000900111242417350718F05EC09F3F19F09C
:103AE0009F5F909343031092490310924A03809181
:103AF0004703181624F40E94BF1B8093470380914C
:103B0000470387FF05C00E94BF1B81958093470331
:103B100080914803181624F40E94BF1B8093480329
:103B20008091480387FF05C00E94BF1B8195809349
:103B30004803309147033323E1F0209148032223C7
:103B4000C1F045EB3403C0011124992319F090937F
:103B5000470303C081E08093470335EB2303C00193
:103B60001124992319F09093480303C081E08093B6
:103B700048030E942E1D809141039091420390932F
:103B8000400380933F0386E0FE013196A5E4B3E055
:103B900001900D928A95E1F780914903811105C04A
:103BA00080914A03882309F47AC080913D03909163
:103BB0003E030E94FB19AC0190914303992339F015
:103BC0002091FA0130E02417350758F068C02091A1
:103BD000FB018AE0289F900111242417350718F073
:103BE0005EC09F3F19F09F5F90934303109247037D
:103BF0001092480380914903181624F40E94081C6F
:103C0000809349038091490387FF05C00E94081CE7
:103C100081958093490380914A03181624F40E94E9
:103C2000081C80934A0380914A0387FF05C00E94C5
:103C3000081C819580934A03309149033323E1F0B6
:103C400020914A032223C1F045EB3403C001112423
:103C5000992319F09093490303C081E080934903AD
:103C600035EB2303C0011124992319F090934A03E3
:103C700003C081E080934A030E942E1D809141037E
:103C80009091420390933E0380933D0386E0FE01B2
:103C90003196A5E4B3E001900D928A95E1F726965E
:103CA0000FB6F894DEBF0FBECDBFDF91CF91089560
:103CB000E5E4F3E086E0DF011D928A95E9F71092D2
:103CC000430310924403089580916B030895CF93AA
:103CD000DF9300D01F92CDB7DEB79091830394306D
:103CE00019F589837B836A8382E08093E9008FEFF3
:103CF0009091E800815095FD06C095ED9A95F1F7F9
:103D000000008111F5CF8091E80085FF0DC040E0F3
:103D100050E063E070E0CE0101960E94C3208091E4
:103D2000E8008E778093E8000F900F900F90DF915E
:103D3000CF910895CF93DF93EC010E94A6208230AB
:103D400011F0843031F4BE0184E0DF91CF910C9406
:103D5000671EDF91CF910895BC0183E00C94671E2C
:103D6000CF93DF93EC010E94A620823011F08430C3
:103D7000F9F482E08093E9008FEF9091E8008150A0
:103D800095FD06C095ED9A95F1F700008111F5CFEC
:103D90008091E80085FF0CC040E050E066E070E0F4
:103DA000CE010E94C3208091E8008E778093E800C6
:103DB000DF91CF910895CF93DF93EC010E94A6206D
:103DC000823011F08430D9F580910A02882339F0CD
:103DD00080917D0387FF03C060E282E002C068E05B
:103DE00081E08093E9008FEF9091E800815095FD8C
:103DF00006C095ED9A95F1F700008111F5CF8091FD
:103E0000E80085FF1CC080910A02811105C040E0D6
:103E100050E068E070E003C070E040E050E0CE01A8
:103E20000E94C3208091E8008E778093E80080E2B2
:103E3000FE01ABE4B3E001900D928A95E1F7DF91CA
:103E4000CF91089580918203811109C00E9454226C
:103E50000E94B1228091E20084608093E200089584
:103E6000109282030895089508950C94B31942E0C6
:103E700061EC81E00E94CD2142E261EC82E00C9491
:103E8000CD2180918503833009F460C030F4813006
:103E900071F0823009F499C008958A3009F485C020
:103EA0008B3009F46BC0893009F0A7C020C0809125
:103EB0008403813A09F0A1C08091E800877F809354
:103EC000E8008091880390918903892B21F460E2B6
:103ED0008BE493E003C060E080E090E070E00E943B
:103EE0000E218091E8008B778093E80008958091FF
:103EF0008403813209F081C0809188039091890305
:103F0000029708F07AC08091E800877F8093E800EC
:103F10008091E80082FD05C0809183038111F8CF74
:103F20006CC02091F3008091F20090E0922B0297F8
:103F300029F48091F1008B7F813021F48091F10090
:103F400080936B038091E8008B7753C0809184034A
:103F5000813A09F052C08091880390918903892B9E
:103F600009F04BC08091E800877F8093E800809142
:103F7000E80080FFFCCF80910A0236C08091840364
:103F80008132D9F58091880390918903892BA9F515
:103F90008091E800877F8093E8000E940222809150
:103FA000860380930A020C94671180918403813206
:103FB00021F58091E800877F8093E8000E9402222B
:103FC0008091870380936C03089580918403813AE4
:103FD000A1F48091E800877F8093E8008091E80059
:103FE00080FFFCCF80916C038093F1008091E8000A
:103FF0008E778093E8000C940222089584B7877F1F
:1040000084BF0FB6F894A895809160008861809372
:104010006000109260000FBE90E080E80FB6F89448
:1040200080936100909361000FBE0E94C80C0E94B3
:1040300054220E94B1228091E20084608093E200C9
:1040400078940E9446250E94D20C80E092E00E9463
:10405000530C80918303853069F40E947E1980910E
:1040600081038823B1F30E946619882391F30E948B
:10407000AD20EFCF0E94DC0CECCF0C943F20292F19
:10408000332723303105C9F060F42130310581F048
:104090002230310509F04AC08BE390E020E632E09F
:1040A00049C02132310511F12232310579F13EC08A
:1040B00082E190E02BE932E03DC099278130910503
:1040C00061F040F08230910559F0039779F5E2E212
:1040D000F2E008C0ECE5F2E005C0EAE3F2E002C07D
:1040E000E8E2F2E0849190E09F0124C0611571053F
:1040F00041F061307105D1F489E090E02BE832E0C5
:1041000019C089E090E022E732E014C06115710522
:1041100041F06130710551F48CEB90E02DEA32E012
:1041200009C080E490E029E633E004C080E090E03C
:1041300020E030E0FA0131832083089580918303E9
:10414000843011F081E0089582E0089580916D033C
:10415000811102C00C949E20089580E189BD82E106
:1041600089BD09B400FEFDCF8091D8008F7D80937A
:10417000D8008091E00082608093E0008091E000B0
:1041800081FDFCCF0895CF92DF92EF92FF920F93C3
:104190001F93CF93DF93EC018B017A010E942122C0
:1041A000811133C0E114F10439F0F701808191816C
:1041B000081B190BC80FD91FC12CD12C01151105D3
:1041C00019F18091E80085FD16C08091E8008E7796
:1041D0008093E800E114F10449F0F70180819181B6
:1041E000C80ED91ED182C08285E00FC00E94212254
:1041F000882321F30AC089918093F10001501109AD
:10420000FFEFCF1ADF0ADACF80E0DF91CF911F9165
:104210000F91FF90EF90DF90CF90089520918A0347
:1042200030918B032617370748F06115710539F473
:104230002091E8002E772093E80001C0B901FC012D
:1042400020E06115710579F1809183038823F1F1F4
:104250008530F1F18091E80083FD3CC08091E80059
:1042600082FD2EC08091E80080FFEBCF2091F3000B
:104270008091F20090E0922B6115710551F0883029
:10428000910538F421912093F10061507109019654
:10429000F3CF21E0089709F020E08091E8008E77C5
:1042A0008093E800CECF2111CFCF0AC08091830345
:1042B000882361F0853061F08091E80083FD0AC0B9
:1042C0008091E80082FFF2CF80E0089582E00895B7
:1042D00083E0089581E0089520918A0330918B0353
:1042E0002617370748F06115710539F42091E80069
:1042F0002E772093E80001C0B901FC0120E0611590
:10430000710591F180918303882309F440C08530C1
:1043100009F43FC08091E80083FD3DC08091E80032
:1043200082FD2FC08091E80080FFE9CF2091F3004B
:104330008091F20090E0922B6115710559F0883060
:10434000910540F424912093F10031966150710958
:104350000196F2CF21E0089709F020E08091E80073
:104360008E778093E800CBCF2111CCCF0AC080910B
:104370008303882361F0853061F08091E80083FD3C
:104380000AC08091E80082FFF2CF80E0089582E0C9
:10439000089583E0089581E00895982F973068F597
:1043A0009093E900981739F07091EC002091ED009E
:1043B0005091F00003C0242F762F50E021FD02C061
:1043C0009F5FECCF3091EB003E7F3093EB0030915C
:1043D000ED003D7F3093ED003091EB003160309384
:1043E000EB007093EC002093ED005093F0002091CF
:1043F000EE0027FDE5CF80E008958F708093E900FF
:1044000081E008958091840387FF11C08091E800C6
:1044100082FD05C0809183038111F8CF11C0809186
:10442000E8008B770BC080918303882349F080914B
:10443000E80080FFF8CF8091E8008E778093E80055
:1044400008952091E4003091E50095E64091EC005C
:10445000842F817040FF23C08091E80080FD1DC043
:1044600080918303882399F0853099F08091EB0047
:1044700085FD11C04091E4005091E50024173507F7
:1044800029F3915011F09A01E1CF84E0089582E080
:10449000089583E0089581E0089580E008954091B3
:1044A000E80042FFDDCF08950E94C2220E94CA2286
:1044B000E0EEF0E0808181608083E8EDF0E08081D3
:1044C0008F77808319BCA7EDB0E08C918E7F8C93A1
:1044D00080818F7E80831092820308950F931F93B3
:1044E000CF93DF930E94C2220E94CA22C8EDD0E07F
:1044F00088818F77888388818068888388818F7D91
:10450000888319BC1092830310927F031092810359
:104510001092800300EE10E0F80180818B7F808391
:1045200088818160888342E060E080E00E94CD2144
:10453000E1EEF0E080818E7F8083E2EEF0E080812A
:1045400081608083808188608083F80180818E7F94
:104550008083888180618883DF91CF911F910F9143
:104560000895E8EDF0E080818F7E8083E7EDF0E054
:1045700080818160808384E082BF81E080938203B8
:104580000C946E22E8EDF0E080818E7F80831092A3
:10459000E20008951092DA001092E10008951F924F
:1045A0000F920FB60F9211242F933F934F935F9367
:1045B0006F937F938F939F93AF93BF93EF93FF93EB
:1045C0008091E10082FF0BC08091E20082FF07C072
:1045D0008091E1008B7F8093E1000E9445258091CE
:1045E000DA0080FF1FC08091D80080FF1BC080913F
:1045F000DA008E7F8093DA008091D90080FF0DC0B1
:1046000080E189BD82E189BD09B400FEFDCF81E072
:10461000809383030E94221F05C019BC109283035C
:104620000E94301F8091E10080FF19C08091E2005C
:1046300080FF15C08091E2008E7F8093E200809120
:10464000E20080618093E2008091D80080628093D4
:10465000D80019BC85E0809383030E94341F8091A9
:10466000E10084FF30C08091E20084FF2CC080E133
:1046700089BD82E189BD09B400FEFDCF8091D800DB
:104680008F7D8093D8008091E1008F7E8093E10040
:104690008091E2008F7E8093E2008091E200816051
:1046A0008093E20080917F03882311F084E007C0AB
:1046B0008091E30087FD02C081E001C083E0809328
:1046C00083030E94351F8091E10083FF29C0809100
:1046D000E20083FF25C08091E100877F8093E100A5
:1046E00082E08093830310927F038091E1008E7FAC
:1046F0008093E1008091E2008E7F8093E2008091C0
:10470000E20080618093E20042E060E080E00E948D
:10471000CD218091F00088608093F0000E94331FCB
:10472000FF91EF91BF91AF919F918F917F916F9189
:104730005F914F913F912F910F900FBE0F901F905F
:1047400018951F920F920FB60F9211242F933F933B
:104750004F935F936F937F938F939F93AF93BF9389
:10476000CF93DF93EF93FF93C091E900CF708091D7
:10477000EC00D82FD17080FDD0E81092E900809134
:10478000F000877F8093F00078940E94E5231092D8
:10479000E9008091F00088608093F000CD2BCF700D
:1047A000C093E900FF91EF91DF91CF91BF91AF915D
:1047B0009F918F917F916F915F914F913F912F9139
:1047C0000F900FBE0F901F9018951F93CF93DF93FC
:1047D000CDB7DEB7AA970FB6F894DEBF0FBECDBF38
:1047E000E4E8F3E08091F100819323E0EC38F207F4
:1047F000C9F70E94411F8091E80083FF2EC180917C
:10480000840390918503492F50E04A30510508F008
:1048100024C1FA01EC58FF4F0C94BB25803821F0DD
:10482000823809F01AC108C08091800390918103F9
:10483000992389F082600FC0809188038F70873040
:1048400008F00BC18093E9008091EB0085FB88277D
:1048500080F91092E9009091E800977F9093E8002A
:104860008093F1001092F100D1C0282F2D7F09F024
:10487000F4C0882319F0823061F0EFC08091860384
:10488000813009F0EAC0933009F080E08093810321
:104890002EC08091860381112AC0809188038F7079
:1048A0002FEF280F263008F0D8C08093E900209120
:1048B000EB0020FF1CC0933021F48091EB0080625C
:1048C00014C09091EB0090619093EB0021E030E0F8
:1048D000A90102C0440F551F8A95E2F74093EA00F0
:1048E0001092EA008091EB0088608093EB001092B8
:1048F000E9008091E800877F8093E8000E9402220F
:10490000ACC08111AAC0109186031F778091E3008B
:104910008078812B8093E3008091E800877F8093EB
:10492000E8000E9402228091E80080FFFCCF809185
:10493000E30080688093E300111102C082E001C0AF
:1049400083E08093830389C08058823008F085C05B
:1049500080918603909187038C3D53E0950779F50C
:1049600083E08A838AE289834FB7F894DE01139645
:1049700020E03EE051E2E32FF0E050935700E49155
:1049800020FF03C0E295EF703F5FEF708E2F90E045
:10499000EA3010F0C79601C0C0968D939D932F5FAB
:1049A000243149F74FBF8091E800877F8093E8006A
:1049B0006AE270E0CE0101960E940E2116C060915D
:1049C000880370918903AE014F5F5F4F0E943D20C5
:1049D000BC01892B09F441C09091E800977F909326
:1049E000E80089819A810E946C218091E8008B7790
:1049F0008093E80032C0803881F58091E800877F9D
:104A00008093E80080917F038093F1008091E8001B
:104A10008E7772CF811121C0809186039091870398
:104A200099270297D4F48091E800877F8093E8006B
:104A30008091860380937F030E94022280917F03EE
:104A4000811106C08091E30087FD02C081E001C0B2
:104A500084E0809383030E94371F8091E80083FFE6
:104A60000AC08091E800877F8093E8008091EB0086
:104A700080628093EB00AA960FB6F894DEBF0FBE5B
:104A8000CDBFDF91CF911F9108950895CF9380916D
:104A900083038823A1F0C091E900CF709091EC00CE
:104AA000892F817090FD80E8C82B1092E9008091D9
:104AB000E80083FD0E94E523CF70C093E900CF9109
:104AC0000895DB018F939F930E94D025BF91AF91F2
:104AD000A29F800D911DA39F900DB29F900D112458
:104AE0000895AA1BBB1B51E107C0AA1FBB1FA61735
:104AF000B70710F0A61BB70B881F991F5A95A9F787
:104B000080959095BC01CD01089597FB072E16F472
:104B1000009407D077FD09D00E94712507FC05D0CD
:104B20003EF4909581959F4F0895709561957F4FC4
:104B30000895A1E21A2EAA1BBB1BFD010DC0AA1FDE
:104B4000BB1FEE1FFF1FA217B307E407F50720F0F6
:104B5000A21BB30BE40BF50B661F771F881F991F71
:104B60001A9469F760957095809590959B01AC01BA
:104B7000BD01CF010895EE0FFF1F0590F491E02DC8
:104B80000994A29FB001B39FC001A39F700D811D26
:104B90001124911DB29F700D811D1124911D089546
:104BA0000E94C125A59F900DB49F900DA49F800DDC
:104BB000911D11240895F999FECF92BD81BDF89AF7
:104BC000992780B50895A8E1B0E042E050E00C9448
:104BD0000F26262FF999FECF92BD81BDF89A019735
:104BE00000B4021639F01FBA20BD0FB6F894FA9A35
:104BF000F99A0FBE08950396272F0E94EA250E9476
:104C0000E925252F0E94EA25242F0C94EA250196F8
:104C1000272F0E94EA250C94E925DC01CB01FC0139
:104C2000F999FECF06C0F2BDE1BDF89A319600B405
:0E4C30000D9241505040B8F70895F894FFCF10
:104C3E001C0229000016024C000010022900000A76
:104C4E00020000000402000000FE01000000F80156
:104C5E00000000F201000000EC012613002F0008F6
:104C6E00002F0208002F000C002F020C002F001244
:104C7E00002F0018000000000000000000000000DF
:104C8E000000000000000000000000000000000016
:104C9E000000000000000000000000000000000006
:104CAE0000000000000000000000000000000000F6
:104CBE0000000000000000000000000000000000E6
:104CCE000037001E02360023022C002A0024143660
:104CDE001425143011260226142702271408142135
:104CEE000236023702161116132F0034132F023319
:104CFE00132F1433112F13321330143013061315D0
:104D0E001336141D1437141B141F022002240235EF
:104D1E001433022E002E1464135500220262003347
:104D2E0014540035020118032808641E140A321E9A
:104D3E00641EDB1EB01EAC1E9A1E01E200E900EAE4
:104D4E0000B500B600B700CD008301CC008A0192F9
:104D5E000194012102230224022502260227022A9F
:104D6E0002B300B4006F00700081828334C6976670
:104D7E009490F731333236E200E900EA00B500B61E
:104D8E0000B700CD008301CC008A0192019401216D
:104D9E0002230224022502260227022A02B300B4AD
:084DAE00006F00700081828398
:00000001FF
