:100000000C94F4020C9411030C9411030C9411033E
:100010000C9411030C9411030C9411030C94110310
:100020000C9411030C9411030C94901A0C94CC1999
:100030000C94D2110C9411030C9411030C94110321
:100040000C9411030C9411030C9411030C941103E0
:100050000C9411030C94A0110C9411030C94110333
:100060000C9411030C9411030C9411030C941103C0
:100070000C9411030C9411030C9411030C941103B0
:100080000C9411030C9411030C9411030C941103A0
:100090000C9411030C9411030C9411030C94110390
:1000A0000C9411030C9411030C9411034807480796
:1000B00084078407DC072A0AB9092A0AFE07DC0834
:1000C000EF08EF08C609F509CE09D109DC09D60900
:1000D000DF09260B290B2C0B2F0B320B350B380BA2
:1000E000CB17F217A419F217A4193A185D18A4191E
:1000F00058196C19191F191F2C1F2C1F221F2C1F78
:100100002C1F2C1F191F191F271F2C1F2C1F271FC7
:1001100000D0D0D0D0D0D00101020408102041423C
:10012000444848000000484850608182848890A07C
:10013000C1C2C4D0D0D0D0D0D0C8000000000000D0
:1001400000000000000000000000000000000000AF
:1001500029002B003962E000640000001E0014003A
:1001600004001D00E20028001F001A0016001B00FA
:10017000E3004C00200008000700060050002A00A1
:1001800021001500090019004F002C002200170063
:100190000A00050000004A00025830000000015823
:1001A00000006500045832000000015800000358A8
:1001B00023001C000B00110000004D00240018005B
:1001C0000D00100051004B0025000C000E00360001
:1001D00052002C00260012000F003700E300280018
:1001E0002700130033003800E6004E0049002F00BE
:1001F0003972E40034000000010001000100010038
:10020000E20000003A0024146400251450000100AC
:100210003B00201464023702510001003C0021140D
:1002200022002214520001003D002E142D002D1436
:100230004F0001003E0023142E002714000001008F
:10024000010008140000010000000100010001008D
:1002500000000100000001003F0056005700370079
:100260000000010040005F005C00590062000100D6
:10027000410060005D005A0063000100420061001F
:100280005E005B0001000100430055005400340291
:10029000010001004400450001000100350000009C
:1002A000010001000100010000000000A8004B0057
:1002B0004E00160101000100AA004A0050001B0177
:1002C00001000100A90052005100060101000100D7
:1002D000BE004D004F00190101000100BD002903BF
:1002E000160A1A01000001000100085D00001C014F
:1002F000000001000100B3000000B2000000010096
:1003000001000100010001000000010001000100E6
:1003100001000100010001000100010001000100D5
:1003200001000100010001000100010001000100C5
:1003300001000100010001000100010001000100B5
:1003400001000100010000002A0000000000000080
:10035000000000000000000000000000000000009D
:10036000015A075A085A00000000105A025A095A46
:100370000A5A000000000F5A035A0B5A0C5A000088
:1003800000000000045A0D5A0E5A00000000000040
:10039000055A115A0000000000000000065A165AC3
:1003A00000002A0000000100235A1A5A1B5A0000BC
:1003B00000000000245A1C5A1D5A000000000000D2
:1003C000255A1E5A1F5A00000000195A265A205A50
:1003D000215A00000000185A275A225A295A0000B0
:1003E000000000000000000000000000000000000D
:1003F00001000100E10001003900000001000100DE
:100400000100010001002A000100010001000100BB
:1004100001002800010001000100010006002C007D
:1004200001000100010001002C004C00010001004E
:1004300001000100000001000100100000000100A7
:1004400000000100010001000000010000000100A7
:100450000100010001000100000001000100010095
:100460000100010001000100010001000100010084
:1004700001002A00010001000100010001004C0000
:100480000100010001000100010001000100010064
:10049000397201000100000005010980A1018503F6
:1004A00019012AB700150126B700950175108100C2
:1004B000C0050C0901A101850419012AA00215013A
:1004C00026A002950175108100C005010906A10151
:1004D000050719E029E71500250195087501810236
:1004E0009501750881010507190029FF150026FFF0
:1004F00000950675088100050819012905950575FF
:10050000019102950175039101C00902780004016F
:1005100000A0FA09040000010301010009211101F2
:1005200000012240000705810308000A09040100B8
:10053000010300000009211101000122320007051A
:10054000820320000A080B020202020100090402D1
:10055000000102020100052400100104240202052A
:1005600024060203070583030800FF0904030002B1
:100570000A000000070505021000050705840210A7
:10058000000512011001EF020108EDFE0713010042
:10059000010203010403300000001603450072004D
:1005A00067006F0044006F007800200045005A008B
:1005B000000030035A005300410020005400650041
:1005C000630068006E006F006C006F0067007900C8
:1005D00020004C00610062007300200049006E00A2
:1005E000630000000403090411241FBECFEFDAE00A
:1005F000DEBFCDBF12E0A0E0B1E0E8E4F6E402C067
:1006000005900D92A031B107D9F723E0A0E1B2E047
:1006100001C01D92AD31B207E1F70E94991C0C9404
:1006200022230C9400004F925F926F927F928F92E0
:100630009F92AF92BF92CF92DF92EF92FF920F9371
:100640001F93CF93DF93CDB7DEB72A970FB6F894F9
:10065000DEBF0FBECDBFFC010081D18083819481BC
:10066000892B41F044244A94D41006C091E00F3FF6
:1006700019F403C091E001C090E090FD4FC77F01E5
:1006800085E0DE01169601900D928A95E1F7F7015B
:1006900022818E819F81222349F00E94DA12182F35
:1006A000682F8E819F810E94541303C00E942713DC
:1006B000182F24E5129FF001112486E0D89EE00D4A
:1006C000F11D1124E00FF11DEE0FFF1FE05BFE4F47
:1006D0000591149108309DE5190709F042C0F70112
:1006E0008281882309F40BC19091E20281E0890F95
:1006F0008770987F853020F4892B8093E20202C0B6
:100700009093E2028091E2028770FFEF8F9FC00119
:1007100011249595879595958795992790938900AC
:100720008093880090938B0080938A0090938D0033
:1007300080938C004091E2025091E3026091E402C8
:100740007091E5028FE090E00E94B9216091B502BE
:100750007091B6028091B7029091B8020E94730E18
:10076000CEC000332AE5120759F028F4C8019A5583
:100770008A9710F1C4C001339AE5190771F0BFC020
:10078000F701408151816281738184810E94A10CB3
:10079000882309F40CC380E00CC0F701408151812B
:1007A0006281738184810E94A10C882309F4FFC2B5
:1007B00081E00E94950CFBC2D090F602DD2021F072
:1007C000F1E0DF1659F156C0F70140815181628195
:1007D000738184810E94A10CF801FF27E05FFE4F26
:1007E0009491A92FA295A695A695A370B0E0882311
:1007F00069F09D01205F3D4FF9018081892B808345
:10080000AA5EBD4F0C91E92FE02B06C0A05FBD4F43
:10081000E92FE0950C91E023EC932CC0F701408187
:1008200051816281738184810E94A10C482F802FA5
:1008300067E00E94DB21292FE82FF0E086E090E0BE
:10084000821B910921E030E001C0220F8A95EAF76E
:10085000DF01A05FBD4F442349F08C91822B8C9324
:10086000EA5EFD4F8081282B208304C020958C9167
:1008700028232C93F7014081518162817381848107
:100880000E94A10C90911C02882311F09F5F03C06D
:10089000915019161CF490931C0289C210921C02EC
:1008A000DD2079F0F1E0DF1227C080911602806828
:1008B0008093160206E112E08CE1C82E82E0D82E69
:1008C00013C006E112E09AE1C92E92E0D92EF80198
:1008D00081918F0181110E945D1CC016D106B9F76C
:1008E00080E00E945D1C08C0F80181918F010E9488
:1008F0005D1CC016D106C1F70E94860C58C2F701D4
:100900008281882369F0C801815E9C45059740F487
:100910006FE1600F6093DE028CE090E00E94A721FF
:1009200017FF71C0F7018281882309F46CC08091A0
:10093000BC0280931D021092BC028091DE028130C5
:1009400071F048F08230C1F08430E1F486EE0E940C
:100950006B2088E115C082EE0E94CF1F13C083E098
:100960000E94541F88E10E94CF1F88E10E94731FDC
:1009700083E00E94491F06C082EE0E94CF1F87E5D8
:100980000E946B208FE39CE90197F1F700C0000003
:100990005801E894B7F8BCE0CB2ED12CC5010C2C43
:1009A00002C0969587950A94E2F7282F2F7041F0A0
:1009B000822F90E02A3010F44D9604C0069702C0B2
:1009C00087E290E00E946B2094E0C91AD108ECEF16
:1009D000CE16EFEFDE0611F78091DE02813039F09E
:1009E00040F0823031F0843051F488E206C08CE26D
:1009F00004C082EE0E94731F02C00E946B2080918F
:100A00001D028093BC02033FFCE51F0709F180F43F
:100A1000083D8CE51807C9F0093D9CE5190721F14F
:100A2000073DECE51E0739F526E241EE61EE1FC0F9
:100A3000053FFCE51F07A1F078F0063F8CE518079D
:100A4000D1F427E245EE66EE12C027E245EE0EC075
:100A500026E241EE60EE0BC027E245EE64EE07C0F1
:100A600026E241EE62EE03C028E241E065EEC701F6
:100A70000E94C20F9CC1F7018281882309F43FC103
:100A800010921E020230FCE51F0708F422C1063155
:100A90002CE5120738F098012A5F3C4529303105D2
:100AA00008F017C10E9422129093F5028093F4027D
:100AB00000318CE5180709F4C3C008F041C00830C4
:100AC000ECE51E0709F49AC0F0F404302CE5120797
:100AD00009F487C068F402309CE5190709F477C06F
:100AE00003301C4509F0E5C08091F402826076C0B5
:100AF0000630FCE51F0709F46EC008F07BC080914A
:100B0000F40288606BC00C308CE5180709F485C0CE
:100B100068F40A30ECE51E0709F474C008F079C0E7
:100B20000E943E1F8091F402806858C00E302CE570
:100B3000120709F476C008F07FC08091F4028BC0E0
:100B40000B3F9CE5190709F44FC018F50331FCE58C
:100B50001F0709F47DC078F401318CE5180709F40A
:100B600073C002311C4509F0A4C00E943E1F809151
:100B7000F4028F7733C00531ECE51E0709F472C02B
:100B800008F486C00A3F1C4509F093C08091F50225
:100B90003EC00F3F8CE5180709F45FC058F40D3FC5
:100BA000ECE51E0709F444C008F43FC08091F5024B
:100BB00082602DC001302DE5120709F475C008F4DC
:100BC0005DC002301D4509F074C060E06EC08091C8
:100BD000F402816003C08091F40280618093F4028A
:100BE00068C08091F40211C08091F5028260809308
:100BF000F5025FC08091F4028062F0CF8091F40230
:100C00008064ECCF8091F40288608460E7CF8160DB
:100C1000EECF8091F4028E7FE1CF8091F4028D7F40
:100C2000DDCF8091F402877FD9CF8091F50218C083
:100C30008091F5028D7FDBCF8091F4028F7ECECF45
:100C40008091F4028F7DCACF8091F4028F7BC6CF52
:100C50008091F402877F8B7FC1CF8091F5028D7FD9
:100C60008E7FC5CF8091F40282FB222720F991E08C
:100C7000922790FB82F990FB83F9B0CF8091F50227
:100C8000982F909591708E7F892B90FB81F9AFCF33
:100C90000E943E1F8091F40287FB222720F991E0F9
:100CA000922790FB87F99ACF61E08EE090E00E9456
:100CB000A7216091F4021091F50284E090E00E9477
:100CC000A721612F81E290E00E94A7210E943E1F90
:100CD0006EC00631FCE51F0719F58091BC028A7AC7
:100CE00091E009F490E090931F02882311F065E3EE
:100CF00001C069E28CE392E00E9408120EC0063146
:100D00001C4509F077C080911F02882309F404C4B0
:100D100065E38CE392E00E94FB110E94AD1247C094
:100D20000115ECE51E0739F00E3D1C4509F062C0C7
:100D30000E9433123CC00E943E1F2FEF84E39CE0D0
:100D4000215080409040E1F700C00000F89481E01D
:100D50008093E00080E28093D8001092C900EFE118
:100D6000FEE43197F1F700C000001DBA1092680050
:100D70001CBC10BE1FBA10927A0010926E00109226
:100D80006F0010927100109272001092C9001092C0
:100D9000BC0014B817B81AB81DB810BA1092BC002D
:100DA00015B818B81BB81EB811BA0C94003F809142
:100DB000B902877009F4B2C3F7018281882309F46C
:100DC000ADC382E02A960FB6F894DEBF0FBECDBF4A
:100DD000DF91CF911F910F91FF90EF90DF90CF9017
:100DE000BF90AF909F908F907F906F905F904F904B
:100DF0000C94B113F70100811181882349F0C801D7
:100E00000E94DA12D82E682FC8010E94541304C021
:100E1000C8010E942713D82EB8018D2D0E94C70C3F
:100E2000082FD92EB82EF701C580C294AFE0CA2290
:100E3000128111111092BB028091B9028770C1F02A
:100E40001123B1F08D2D807F803449F090E2900F16
:100E5000983070F0803619F4F6EFBF1649F082E052
:100E60000E94B1138091B9028770AA24A3948111C2
:100E7000A12C9D2C92947FE09722892D90E08C30BC
:100E8000910508F0E7C2FC01EA5AFF4F0C94FB21E0
:100E90009D2D9F708D2D807FC92E19F0C29460EF1B
:100EA000C6221123B9F0CC2009F450C280E2800F91
:100EB000883010F0B11006C08091BC02C82AC092E0
:100EC000BC0205C08091BB02C82AC092BB020E942E
:100ED000AD123CC2802F0E94731FCC2009F411C3B5
:100EE000005EC094083010F0B11006C08091BC02C2
:100EF000C822C092BC0205C08091BB02C822C09229
:100F0000BB020E94AD12FDC29D2D9F708D2D807F72
:100F1000892E803219F0829450EF8522BB2029F06F
:100F200044244394B414F1F028C0112389F0809133
:100F3000BD02CC2059F055245394C51007C0882A0F
:100F4000881609F4E3C28092BD02E0C2882920C05D
:100F5000CC2029F066246394C61409F4D2C20E94FE
:100F6000A71226C0112331F0772473947C1408F45F
:100F7000CDC20DC0C110C5C21BC0112361F0CC2071
:100F800031F0F701858180FFE1C18F708583882D65
:100F90000E94691FBBC2CC2059F0F9E3BF12E5C122
:100FA0002FEF87EE93E0215080409040E1F7DBC1C6
:100FB000882D0E945E1FA5C28D2D86958695837013
:100FC00019F0813071F046C2112331F0802F9D2D30
:100FD00093700E94640C48C280E090E00E94640C10
:100FE00059C2112331F0802F9D2D93700E944E0C19
:100FF0003BC280E090E00E944E0C4CC28D2D83706D
:1010000009F069C011112AC2902F92959695977098
:10101000990F990F802F8F70482E512C612C712CB5
:10102000092E04C0440C551C661C771C0A94D2F788
:1010300004FF12C04FE050E060E070E004C0440FD5
:10104000551F661F771F9A95D2F7DB01CA0180955D
:101050009095A095B09503C080E090E0DC016D2DE7
:10106000669566956370623019F1C8F42091BE02EE
:101070003091BF024091C0025091C102613059F0DD
:1010800084299529A629B729BC01CD0162237323A0
:10109000842395230AC0422A532A642A752ABC0154
:1010A000CD0164297529862997290E94EB13D6C1A1
:1010B00084299529A629B7294090BE025090BF02E5
:1010C0006090C0027090C102BC01CD0164257525FD
:1010D00086259725EACF112319F08D2D817001C047
:1010E0008695882309F4BAC1902F929596959770AA
:1010F000990F990F802F8F70482E512C612C712CD5
:10110000092E04C0440C551C661C771C0A94D2F7A7
:1011100004FF12C04FE050E060E070E004C0440FF4
:10112000551F661F771F9A95D2F7DB01CA0180957C
:101130009095A095B09503C080E090E0DC016D2D06
:101140006695669563706230D9F068F52091B502B6
:101150003091B6024091B7025091B802613059F017
:1011600084299529A629B729BC01CD0162237323BF
:10117000842395231EC0422A532A642A752A13C049
:1011800084299529A629B7294090B5025090B60226
:101190006090B7027090B802BC01CD01642575253E
:1011A0008625972506C0BC01CD01642975298629AD
:1011B00097290E94801352C1ED2DEF70CE2E11237E
:1011C00039F08E2F0E94CA13802F0E94691F46C1DA
:1011D000802F0E945E1F8C2D0E948C133FC1802F98
:1011E000F2EFBF1609F46EC0FB1550F040EF442E2D
:1011F000B41489F031EF532EB51409F455C059C019
:1012000023EF622EB61409F467C094EF792EB71459
:1012100009F47CC04EC0112311F1C11077C12D2DEE
:101220002F7181E090E0A0E0B0E0AC01BD0104C00E
:10123000440F551F661F771F2A95D2F78091B5027C
:101240009091B602A091B702B091B8022A013B0179
:10125000482659266A267B26C301B2014EC0552472
:1012600053945C1408F44DC12D2D2F7181E090E052
:10127000A0E0B0E0AC01BD0104C0440F551F661FE3
:10128000771F2A95D2F78091B5029091B602A0916E
:10129000B702B091B8022A013B01482659266A26B6
:1012A0007B26C301B2012FC0112339F08D2D8F7120
:1012B0003CC0111148C0C1104DC08D2D8F710E94CE
:1012C0008C131FC18D2D8F71112319F00E948C1367
:1012D0001DC10E94CA1315C1112391F02D2D2F712C
:1012E00081E090E0A0E0B0E0BC01CD0104C0660F59
:1012F000771F881F991F2A95D2F70E94801306C175
:1013000060E070E0CB010E948013FBC0112381F0EC
:101310000D2D0F71802F0E94CA1328E0029FC0017B
:10132000112483608093B902802F0E94CA13EEC0FB
:1013300081E00E94B11381E08C1508F0E2C082E0E8
:101340000E94B113DEC0CC2009F4B0CF802F0E94E0
:10135000CF1FDCC0893349F49FEFE7EEF3E09150F3
:10136000E040F040E1F700C00000802F0E94731FB2
:10137000C8C08B2D90E0FC01E05FF109E730F1057A
:1013800008F03FC0EE59FF4F0C94FB21112309F4E4
:1013900081C09091450281E0892705C010934502E4
:1013A00061C081E08127809345025CC011115AC061
:1013B00081E0809345026EC0111154C069C01123B1
:1013C00039F082E08093200281E0809345024CC096
:1013D00080912002823019F481E080932002809174
:1013E0002002833009F056C051C0112339F080919A
:1013F0004402882371F21092440236C0CC2049F294
:1014000049C080914402CC20C1F0882341F09091E2
:10141000450281E089278093450210924402802F83
:10142000112319F00E94CF1F1FC00E94731F86E076
:10143000F70111928A95E9F72DC0882399F01111CF
:1014400011C09091450281E0892780934502109256
:10145000440220C088EF890D843020F40E947A0C69
:101460000E946B0E1123B1F08D2D807F803619F410
:10147000F6EFBF1679F080912002823019F483E0F4
:101480008093200280912002813021F4109220026A
:1014900010924502AA20A9F08091B90280FD11C0E6
:1014A000F70112828595859585950E94CA13C7011B
:1014B0000E9413038091B9028595859585950E94B8
:1014C0008C1385E0F701DE01119601900D928A954B
:1014D000E1F789819A810E9427139A8124E5829FEE
:1014E000F001112486E0989FE00DF11D11248981FF
:1014F000E80FF11DEE0FFF1FE05BFE4F8591949109
:101500000DC088EF890D843028F6A8CF88EF890DAB
:10151000843008F0A9CFA2CF69E2FBCB2A960FB6A0
:10152000F894DEBF0FBECDBFDF91CF911F910F9119
:10153000FF90EF90DF90CF90BF90AF909F908F90F3
:101540007F906F905F904F9008959091F40292FF7A
:101550000DC0282F2871283019F4877F846006C0B9
:10156000282F2471243011F48B7F886093FF0DC0E5
:10157000282F2871283119F4877E846106C0282F0E
:101580002471243111F48B7E88612091F50220FFB3
:101590000DC0382F3871383019F4877F816006C04C
:1015A000382F3171313011F48E7F886021FF0DC0EA
:1015B000282F2871283119F4877E816106C0282FD1
:1015C0002171213111F48E7E886194FD877E08950A
:1015D000CF93E82F873080F5809107019091080123
:1015E000892B09F047C0CE2F64E670E080E40E94AA
:1015F000E3209093080180930701892BD1F464E6DE
:1016000070E082E10E943A219093080180930701E3
:10161000892B79F481E090E001C0880FCA95EAF740
:1016200064E670E080950E943A21909308018093CF
:101630000701CF910C948F2190E0FC013797E730A0
:10164000F105C0F4E759FF4F0C94FB21209A28982C
:1016500011C0219A29980EC0229A2A980BC0239A69
:101660002B9808C0529A5A9805C0539A5B9802C0AA
:101670003E9A4698CF910895CF93873040F5809158
:10168000070190910801892B59F564E670E081E427
:101690000E94E3209093080180930701892B11F0A9
:1016A000C0E011C084E690E00E946A2197FF05C067
:1016B0009093080180930701F3CFC82FC095109233
:1016C0000801109207010E948F218C2F0AC09FB140
:1016D0008FB1807F869586959370892B809501C008
:1016E00080E0CF9108950F931F93CF93DF93CDB7F1
:1016F000DEB767970FB6F894DEBF0FBECDBF4B8B3A
:101700005C8B6D8B7E8B8F8B0E891F89011511056C
:1017100031F05F3F31F481E04F3F19F403C081E0C5
:1017200001C080E080FD32C0242F30E0A1E0B0E0B5
:10173000042E01C0AA0F0A94EAF7852F90E06623D1
:1017400019F07091450205C0FC01E25DFD4F70810A
:101750007A237723A1F046E0489FF001499FF00DDE
:101760001124E20FF31FEE0FFF1FEA5CFE4F4081D2
:101770005181FC01E25DFD4F9081A92B06C0FC0167
:10178000E25DFD4FA0958081A823A08386E0FE0145
:101790003D96DF01982F1D929A95E9F74D875E8758
:1017A0006F87198B088BDE01179601900D928A9531
:1017B000E1F7CE0107960E946B1481113EC086E0CE
:1017C000FE013796DE01119601900D928A95E1F7A0
:1017D000FF81E8856A857B856115710531F0EF3FF2
:1017E00031F481E0FF3F19F403C081E001C080E0E3
:1017F00080FD23C020914C0230E0C9010196877022
:10180000992740917D0250E08417950779F1F9837B
:10181000EA837D836C8396E0929FD001939FB00D05
:101820001124A35BBD4FFE01319601900D929A9554
:10183000E1F780934C020E94F51316E080917D023F
:1018400090914C028917F9F0189FC0011124835B15
:101850009D4F0E946B148823B1F080917D0290E02F
:1018600001968770992780937D02E8CF0E943E1FE2
:1018700010924C0210927D02E6E4F2E086E0DF0175
:101880001D928A95E9F767960FB6F894DEBF0FBEF2
:10189000CDBFDF91CF911F910F91089520912C0220
:1018A00030912D022817390771F090932D02809303
:1018B0002C02E091F702F091F802309721F00084B9
:1018C000F185E02D0994089520912A0230912B0290
:1018D0002817390771F090932B0280932A02E09128
:1018E000F702F091F802309721F00680F781E02DA1
:1018F00009940895E091F702F091F802309721F0F1
:101900000190F081E02D099480E0089586E0E0E107
:10191000F2E0DF01982F1D929A95E9F7E6E1F2E0F7
:10192000DF011D928A95E9F70895CF93C82F0E9491
:10193000860CC093F6026C2F8DE090E0CF910C9452
:10194000A721CF93DF9300D000D01F92CDB7DEB791
:101950006B837C838D838C819D81892B31F05F3FEC
:1019600031F481E04F3F19F403C081E001C080E011
:1019700080FD02C08B8102C080E090E081700F90FA
:101980000F900F900F900F90DF91CF910895CF930C
:10199000DF9324E5829FC0011124FC0146E0749F7F
:1019A000E00DF11D1124E60FF11DEE0FFF1FE05BAE
:1019B000FE4FC591D491CE01C238D10569F1B0F482
:1019C000C133D10509F475C048F4C932D10509F411
:1019D00069C0CA32D10509F473C085C0C533D105C9
:1019E00009F459C0C933D105B9F07DC0C33ED10552
:1019F00071F138F4C03ED105B1F0C23ED10511F10C
:101A000072C0C63ED105B9F1C73ED105C9F1C43E89
:101A1000D10509F068C024C02091F40220FD5DC00A
:101A200021FD5BC060C02091F40220FD50C02091D8
:101A3000F50220FF4DC18091F40284FD47C183EE81
:101A400090E046C12091F40222FF42C1F4CF809180
:101A5000F40282FD3FC08091F50280FD3EC0EBCFD5
:101A60002091F50221FF34C18091F40284FD2EC142
:101A700087EE90E02DC12091F40223FF29C1F4CF1D
:101A80008091F40283FD2CC08091F50281FFECCFA0
:101A900084EE90E01DC12091F40225FF19C189E276
:101AA00090E016C12091F40225FF12C185E390E079
:101AB0000FC12091F40226FF0BC18AE290E008C119
:101AC0002091F40226FF04C181E390E001C189E383
:101AD00090E0FEC082EE90E0FBC080EE90E0F8C0A7
:101AE00086EE90E0F5C0C11552E5D50708F06BC051
:101AF000C11521E5D20728F09C2F8827816F906AB5
:101B0000E7C0C83ED10570F5C03ED10508F0E0C081
:101B1000C83AD105B8F4C53AD10550F08C2F855A92
:101B2000C82FD0E0C252DE4F888190E09064D0C0D0
:101B3000C130D10509F4CCC008F4C8C0249708F41A
:101B4000C5C0C6C0CF3BD10508F0C0C08C2F885A95
:101B5000C82FD0E0CC0FDD1FCF51DE4F8881998197
:101B60009464B6C0C11540E5D407F0F0CE01F4E0AE
:101B700096958795FA95E1F7282F23703C2F3370BF
:101B800081E090E002C0880F991F3A95E2F79C68C7
:101B9000922B2C2F2F702695269550E2259F900191
:101BA0001124822B932B94C0C11550E4D50720F04B
:101BB000CE019F70906A8CC09E013A9521153F41DD
:101BC00008F486C083C0C11556E5D50708F03FC0AC
:101BD000C11585E5D80748F08C2F0E94A50A8F71A2
:101BE00090E0982F8827906273C0C11524E5D20732
:101BF00028F09C2F8827846F906A6AC09E0123700A
:101C000033279C2F96959695C115D34580F441E0D6
:101C100050E002C0440F551F2A95E2F780E2989FDA
:101C200090011124CA01822B932B9C6851C041E082
:101C300050E002C0440F551F2A95E2F780E2989FBA
:101C400090011124CA01822B932B9A6841C0C115BF
:101C50005AE5D50778F5C11589E5D80710F18C2F1D
:101C60008F700E94A50A9E0194E0369527959A955B
:101C7000E1F72F7030E0322F22273069A901482B7D
:101C80000EC090568115904208F58D2F8F710E94DD
:101C9000A50A9E01332730628F71A901582BCA0112
:101CA00017C0C11528E5D20788F09C2F8827806FC0
:101CB000906A0EC0C1154BE5D40740F0CE01C115A6
:101CC0005CE5D507F0F69927906602C080E090E0C9
:101CD000DF91CF91089581FF03C0279A2F9A08952D
:101CE00027982F9808958F929F92AF92BF92CF928C
:101CF000DF92EF92FF924C01AA24BB24811491043D
:101D0000A104B10411F020E103C04B015C0120E00B
:101D1000FF24EB2CDA2CC92CC114D104E104F1040A
:101D200019F0285F460157017501640154E0F694EB
:101D3000E794D794C7945A95D1F7C114D104E1041C
:101D4000F10419F02C5F460157017501640142E06E
:101D5000F694E794D794C7944A95D1F7C114D10467
:101D6000E104F10419F02E5F460157017501640189
:101D7000F694E794D794C794CD28CE28CF2809F0BD
:101D80002F5F56985E9825982D9826982E98223089
:101D900049F0233029F0213039F4259A2D9A04C0D6
:101DA000259A2D9A269A2E9AFF90EF90DF90CF9049
:101DB000BF90AF909F908F90089580E290E09093B5
:101DC0000801809307018091270281110EC00E94B3
:101DD000DD2081E0809327022FEF83ED90E32150F7
:101DE00080409040E1F700C0000064E670E080E4CD
:101DF0000E94E3209093080180930701892B09F04A
:101E00004EC064E670E080E00E943A2190930801A1
:101E100080930701892B09F042C064E670E080E0FE
:101E20000E943A219093080180930701892BB9F50C
:101E300064E670E08FE30E943A219093080180935A
:101E40000701892B61F50E948F2164E670E080E430
:101E50000E94E3209093080180930701892BF9F4F5
:101E600064E670E08CE00E943A2190930801809330
:101E70000701892BA1F464E670E080E00E943A211A
:101E80009093080180930701892B49F464E670E080
:101E90008FE30E943A2190930801809307010E94EA
:101EA0008F2180910701089556985E9825982D9866
:101EB00026982E9827982F988FEF90E0909389007E
:101EC0008093880090938B0080938A0090938D007C
:101ED00080938C00259A2D9A2FEF80E792E0215075
:101EE00080409040E1F700C00000269A2E9A2FEF24
:101EF00080E792E0215080409040E1F700C0000070
:101F0000279A2F9A2FEF80E792E02150804090404F
:101F1000E1F700C0000025982D982FEF80E792E0B0
:101F2000215080409040E1F700C0000026982E9894
:101F30002FEF80E792E0215080409040E1F700C011
:101F4000000027982F9856985E9825982D982698E7
:101F50002E9827982F98089584B1807F84B985B1F1
:101F6000807F85B98AB1837F8AB98BB1837F8BB932
:101F70003E984698089580B38C7080BB81B3836F80
:101F800081BB08950F931F93CF93DF93C62FD42F58
:101F9000122FFC0182818823C9F060931E020E94E7
:101FA000C611909329028093280280E28C0F88301A
:101FB00008F062C0C77081E001C0880FCA95EAF7D7
:101FC000DF91CF911F910F910C94691F80911E0298
:101FD00068133BC020912802309129024FB7F89432
:101FE0008091C2029091C302A091C402B091C50237
:101FF0004FBF821B930B883C910538F500E20D0F13
:102000006D17B9F080E2860F883040F4C77081E028
:1020100001C0880FCA95EAF70E945E1F083028F5B4
:1020200081E09D2F977001C0880F9A95EAF70E9472
:10203000691F812F0E946B200830F0F4D77081E077
:1020400001C0880FDA95EAF70AC080E28C0F883069
:1020500098F4C77081E001C0880FCA95EAF7DF9154
:10206000CF911F910F910C945E1F812FDF91CF9123
:102070001F910F910C946B20DF91CF911F910F91C5
:102080000895CF92DF92EF92FF920F931F93CF9319
:10209000DF938091070190910801892B91F0809145
:1020A00026028F5F8093260281110BC00E94DD0EF5
:1020B00090E09093080180930701892B11F40E940E
:1020C000540FC6EED2E07E0110E000E057E0C52ECE
:1020D000C10E812F0E94E80A8C2D0E94E80A812FF0
:1020E0000E943C0BF7019081891721F08083DD2449
:1020F000D39401C0D12C8C2D0E943C0BF701978109
:10210000891719F0878381E001C080E0D82A0D2962
:102110000E94AC0F1F5FFFEFEF1AFF0A1730B1F6F6
:102120000E94C611AC01609122027091230290932B
:1021300023028093220290912102292F30E0261B56
:10214000370BC901840F951F6BEF70E00E94E721E8
:10215000F82E8093210220912502222309F443C006
:1021600010922502E091DC02F091DD029F01225FD6
:102170003F4F10E04BEFE42EABEFB0E040814B3F20
:10218000C9F0642F70E0F41620F0AC01461B570B29
:1021900005C0AD01461B570B480F591F052E000CFB
:1021A000660B770B4E3151056105710510F0E08229
:1021B00001C011E03196E217F30701F710932502F1
:1021C000011102C0111111C010922402E091DC0231
:1021D000F091DD0290912502AAEFB2E0AF01425FDB
:1021E0005F4F80E007C00111EFCF80912402811181
:1021F000EBCF15C029913C91321741F030813B3F24
:1022000021F4F0822C9391E001C081E03196119687
:10221000E417F50779F7909325028093240281E073
:10222000DF91CF911F910F91FF90EF90DF90CF90B2
:10223000089508958091C802089520917D0290919B
:102240004C0256E02917A9F030E0529FF001539F4D
:10225000F00D1124E35BFD4F7181761306C0708190
:10226000781303C07281741306C02F5F3F4F27702D
:10227000E9CF80E0089581E00895CF93DF93209126
:102280001803243039F521E02093E9002FEF309135
:10229000E800215035FD06C035ED3A95F1F7000014
:1022A0002111F5CF2091E80025FF14C0EC0140E09A
:1022B00050E068E070E00E94B1208091E8008E77E5
:1022C0008093E80088E0FE01A9ECB2E001900D9255
:1022D0008A95E1F7DF91CF910895CF93DF9300D0F6
:1022E0001F92CDB7DEB790911803943019F589830A
:1022F0007B836A8382E08093E9008FEF9091E8000E
:10230000815095FD06C095ED9A95F1F70000811179
:10231000F5CF8091E80085FF0DC040E050E063E01C
:1023200070E0CE0101960E94B1208091E8008E7786
:102330008093E8000F900F900F90DF91CF91089558
:1023400078941F920F920FB60F9211248F939F9340
:10235000AF93BF938091C2029091C302A091C40237
:10236000B091C5020196A11DB11D8093C202909348
:10237000C302A093C402B093C502BF91AF919F91D5
:102380008F910F900FBE0F901F9018952FB7F89454
:102390008091C2029091C302A091C402B091C50283
:1023A0002FBF08951F920F920FB60F9211248F9393
:1023B0009F93AF93BF938091F902811113C08091D5
:1023C000C2029091C302A091C402B091C50241968D
:1023D000A11DB11D8093C2029093C302A093C402B9
:1023E000B093C502BF91AF919F918F910F900FBE97
:1023F0000F901F9018959C012A5F3F4FFC0142816E
:10240000461301C01282019682179307B9F7089507
:102410009C01FC0132969FEF80E04191461789F0C4
:102420009F3F19F4411101C0982F8F5F8630A9F7A3
:102430009F3F39F0F901E90FF11D97FDFA9562838D
:1024400008950895CF9384E090E00E949321C82FCF
:1024500081E290E00E9493212C2F30E0A901582BBB
:10246000CA01CF9108956CEE7EEF80E090E00E946B
:10247000C52160E082E090E00E94A72160E083E057
:1024800090E00E94A7211092BE021092BF0210920B
:10249000C0021092C10260E084E090E00E94A72197
:1024A00060E081E290E00E94A72160E085E090E09A
:1024B0000E94A72160E086E090E00E94A7216FEFD4
:1024C00087E090E00E94A72140E050E0BA0188E058
:1024D00090E00E94B92160E08DE090E00E94A72189
:1024E00040E050E0BA0188E190E00E94B92160E04C
:1024F00087E190E00E94A72140E050E0BA018CE122
:1025000090E00E94B92160E080E290E00E94A72163
:102510001092E2021092E3021092E4021092E5029D
:1025200084E080618093E2024091E2025091E302F4
:102530006091E4027091E5028FE090E00E94B92181
:1025400040E050E0BA0183E190E00C94B921809121
:10255000BD0281111092BD0208959091BC0280913C
:10256000BB02892B2091BA02982F922B90933C02A8
:102570008091BD02882389F0892B80933C02EEE391
:10258000F2E097E080E0915029F021912223D9F3E5
:102590008F5FF9CF81110E94A712E091F702F091AD
:1025A000F802309731F00280F381E02D8CE392E065
:1025B00009940895BF92CF92DF92EF92FF920F930A
:1025C0001F93CF93DF938C01C090B502D090B602D9
:1025D000E090B702F090B8028091BE029091BF02E5
:1025E000A091C002B091C102C82AD92AEA2AFB2AC6
:1025F000CFE1D0E0D701C6010C2E04C0B695A79557
:10260000979587950A94D2F780FD04C0219790F79B
:10261000B12C07C0BC2EB8018C2F0E94C70C0197AB
:10262000A9F38B2DDF91CF911F910F91FF90EF9028
:10263000DF90CF90BF900895CF93DF93EC010E947D
:10264000DA12BE010E94C70CDF91CF910895292FA5
:10265000220F920F990F890F682F669566956695E0
:10266000982F977085E0689FB001112440E050E0FA
:1026700080E0FB01E40FF51FE258FD4F208130E0C0
:10268000092E02C0369527950A94E2F72170332768
:10269000042E01C0220F0A94EAF7822B4F5F5F4F8E
:1026A0004530510531F70895292F220F920F990FC8
:1026B000890FE82FE695E695E695877051E001C011
:1026C000550F8A95EAF785E0E89FF0011124E2585A
:1026D000FD4F20E030E070E04081CB01022E02C0CF
:1026E000969587950A94E2F78170819584278523D2
:1026F000842781932F5F3F4F2530310569F7089577
:102700000E94730E6093B5027093B6028093B70275
:102710009093B8020C94301F0F931F9341E050E048
:1027200060E070E004C0440F551F661F771F8A9554
:10273000D2F740955095609570958091B502909133
:10274000B602A091B702B091B8028A019B0108239A
:1027500019232A233B23C901B8011F910F910C941F
:1027600080132091B902809582238093B902982F1B
:10277000977079F430E0482F082E000C550B241781
:10278000350739F08595859585950E948C131092B3
:10279000B90208950F931F9341E050E060E070E0AC
:1027A00004C0440F551F661F771F8A95D2F780918A
:1027B000B5029091B602A091B702B091B8028A0119
:1027C0009B01082B192B2A2B3B2BC901B8011F9108
:1027D0000F910C9480136093BE027093BF0280939C
:1027E000C0029093C1020C94301F80917D029091A1
:1027F0004C02891719F08F5F8770FBCF08950F93F4
:102800001F93CF93DF9380914B0282958F7009F0D5
:102810005DC080914802882309F458C080917D02F0
:1028200010914C026091460270914702C09149029A
:10283000D0914A0291E06F3F09F090E0292F06E025
:10284000811709F443C0209721F07F3F21F030E049
:1028500003C031E001C0322F90E030FD34C0089F4A
:10286000F001099FF00D1124DF01A35BBD4F11960C
:102870003C911197371327C03C91361324C0129610
:102880003C91129731111FC013964D915C91149792
:102890004C1B5D0B483C5105B0F480914B028F708E
:1028A000806180934B02EE5AFD4F80818F70806172
:1028B000808386E492E00E941303DF91CF911F9101
:1028C0000F910C94F51301968770BACFDF91CF91D9
:1028D0001F910F9108958F929F92AF92BF92CF92C6
:1028E000DF92EF92FF920F931F93CF93DF93CDB7B9
:1028F000DEB761970FB6F894DEBF0FBECDBF8C0177
:1029000085E0F801DE011D9601900D928A95E1F7B0
:10291000D801DC901196EC9011971296CC90909182
:102920004602209147024091490250914A024115C6
:10293000510531F02F3F31F481E09F3F19F403C07E
:1029400081E001C080E080FD58C1F801A380B4801F
:1029500086E4882E82E0982EF0904802B501641B30
:10296000750BFF2009F403C180914B02382F307F93
:10297000683C710508F0CDC0311188C02E1112C01D
:102980009D1110C0FC2CC1100DC08F708061809310
:102990004B02C4010E94130380914B02D80115968B
:1029A0008C9356C1A114B10439F0BFEFEB1206C0ED
:1029B00081E0DB1203C003C081E001C080E080FD44
:1029C00003C081E08C2502C080E090E080FF10C051
:1029D0004C2D6E2D8D2D0E941D11882349F086E40B
:1029E00092E00E941303E6E4F2E086E0DF0199C082
:1029F000AB2839F0BFEFEB1206C081E0DB1203C059
:102A000003C081E001C080E080FD03C081E08C252F
:102A100002C080E090E0E82FE170BE2E80FF2CC065
:102A20004C2D6E2D8D2D0E941D11F82E811124C06C
:102A3000DD86EE868D859E850E941C13292F2295AA
:102A40002F70223018F0243090F405C09F7059F098
:102A5000811109C0FDC09F7031F0D80115969C917D
:102A6000907F09F4F5C0805E883008F4F1C0C80199
:102A70000E941303FB2CECC0FC2CCC2009F4E8C012
:102A800080914B02816080934B024EC02E1106C094
:102A90009D1104C0C11002C0F8018BC0DD86EE8616
:102AA0008D859E850E94071F882369F1CC2059F1EE
:102AB00020914B02822F82958F7090E0029774F0E4
:102AC000809146029091470298878F831986BB8632
:102AD000AA862C87CE0107960E94130386E0F80190
:102AE000A6E4B2E001900D928A95E1F70E94FF13EF
:102AF0000DC02E15D9F0DD86EE868D859E850E944F
:102B0000071F81111DC0C8010E941303FF24F39405
:102B10009FC03111EECF86E492E00E94130386E05D
:102B2000D4011D928A95E9F7F12C92C09D11E3CF53
:102B3000C110E1CFF8018583C8010E94130357C07B
:102B4000CC2009F320914B02822F82958F7090E068
:102B5000029724F280914602909147029A838983DA
:102B60001B82BD82AC822E83CE010196B5CF683C1C
:102B70007105E8F5FC2CCC2031F22E1127C09D11F7
:102B800025C020914B0220FD18C0822F82958F70A6
:102B9000482F50E04115510581F0F80125834F3051
:102BA000510541F08F5F982F9295907F822F8F7003
:102BB000892B8583C8010E94130386E0F801A6E4EF
:102BC000B2E001900D928A95E1F742C0DD86EE8673
:102BD0008D859E850E94071F811180CF80914B02B9
:102BE000816080934B02C8010E94130331C086E0CC
:102BF000D4011D928A95E9F72BC0CC2009F483CF2C
:102C0000DD86EE868D859E850E94071FF82E88231F
:102C100009F479CF86E0F801A6E4B2E001900D92C4
:102C20008A95E1F780914602909147020E941C1319
:102C300092959F70963051F4863F41F08091450205
:102C400091E0892780934502909344020E94FF13EC
:102C50008F2D61960FB6F894DEBF0FBECDBFDF910A
:102C6000CF911F910F91FF90EF90DF90CF90BF9089
:102C7000AF909F908F9008951F93CF93DF93CDB720
:102C8000DEB7AA970FB6F894DEBF0FBECDBFE4ED56
:102C9000F2E08CED92E02091F10021938E179F07D6
:102CA000D1F78091D502833009F460C030F48130CF
:102CB00071F0823009F49AC0B1C08A3009F486C03C
:102CC0008B3009F46BC0893009F0A8C020C0809116
:102CD000D402813A09F0A2C08091E800877F8093F6
:102CE000E8008091D8029091D902892B21F468E004
:102CF00089EC92E003C060E080E090E070E00E9428
:102D0000FF1B8091E8008B778093E80087C080915B
:102D1000D402813209F082C08091D8029091D90208
:102D2000029708F07BC08091E800877F8093E800DD
:102D30008091E80082FD05C0809118038111F8CFD1
:102D400017C12091F3008091F20090E0922B02973E
:102D500029F48091F1008B7F813021F48091F10082
:102D60008093C8028091E8008B7754C08091D40290
:102D7000813A09F053C08091D8029091D902892BF1
:102D800009F04CC08091E800877F8093E800809133
:102D9000E80080FFFCCF8091060137C08091D4020B
:102DA0008132E1F58091D8029091D902892BB1F559
:102DB0008091E800877F8093E8000E94AB1B8091A0
:102DC000D602809306010E943E1F28C08091D40243
:102DD000813221F58091E800877F8093E8000E948E
:102DE000AB1B8091D7028093C70218C08091D40298
:102DF000813AA1F48091E800877F8093E800809178
:102E0000E80080FFFCCF8091C7028093F1008091A1
:102E1000E8008E778093E8000E94AB1B8091E80069
:102E200083FFA6C08091130190E02091D8023091D9
:102E3000D9022817390709F09BC08091D502813249
:102E400061F020F4803209F441C092C0823209F46A
:102E500070C0833209F481C08BC08091D402813A62
:102E600009F086C08091E800877F8093E800809118
:102E7000E80080FFFCCF8091270190912801A0916C
:102E80002901B0912A018093F100492F5A2F6B2F0D
:102E900077274093F100AD01662777274093F10033
:102EA0008B2F9927AA27BB278093F10080912B01B4
:102EB0008093F10080912C018093F10080912D018D
:102EC0008093F1008091E8008E774EC08091D4020B
:102ED000813209F04DC08091E800877F8093E8003F
:102EE0008091E80082FD05C0809118038111F8CF20
:102EF0003FC03091F1002091F1009091F10080915C
:102F0000F1003093270120932801909329018093A9
:102F10002A018091F10080932B018091F100809330
:102F20002C018091F10080932D018091E8008B7736
:102F30001BC08091D4028132D9F48091E800877F50
:102F40008093E8000E94AB1B8091D6029091D7023B
:102F500090932401809323010BC08091D40281328D
:102F600039F48091E800877F8093E8000E94AB1BD2
:102F70008091E80083FFE8C18091D4029091D5024E
:102F8000492F50E04A30510508F0DEC1FA01E059FE
:102F9000FF4F0C94FB21803821F0823809F0D4C116
:102FA00008C08091D1029091D202992389F0826069
:102FB0000FC08091D8028F70873008F0C5C1809310
:102FC000E9008091EB0085FB882780F91092E900E9
:102FD0009091E800977F9093E8008093F100109221
:102FE000F10072C1282F2D7F09F0AEC1882319F09E
:102FF000823061F0A9C18091D602813009F0A4C16C
:10300000933009F080E08093D2022EC08091D602E6
:1030100081112AC08091D8028F702FEF280F26309F
:1030200008F092C18093E9002091EB0020FF1CC0C2
:10303000933021F48091EB00806214C09091EB00FA
:1030400090619093EB0021E030E0A90102C0440FB1
:10305000551F8A95E2F74093EA001092EA008091AA
:10306000EB0088608093EB001092E9008091E8000B
:10307000877F2DC1811168C11091D6021F77809181
:10308000E3008078812B8093E3008091E800877FC4
:103090008093E8000E94AB1B8091E80080FFFCCF8A
:1030A0008091E30080688093E300111102C082E008
:1030B00001C083E08093180347C18058823008F034
:1030C00043C18091D6029091D7028C3D53E0950781
:1030D00079F583E08A838AE289834FB7F894DE0129
:1030E000139620E03EE051E2E32FF0E050935700CA
:1030F000E49120FF03C0E295EF703F5FEF708E2FE9
:1031000090E0EA3010F0C79601C0C0968D939D9371
:103110002F5F243149F74FBF8091E800877F80936C
:10312000E8006AE270E0CE0101960E94FF1BBAC07F
:103130004091D8025091D902292F332723303105ED
:10314000B1F068F42130310509F40DC122303105A8
:1031500009F0FAC088E790E0EAE0F5E050C02132DB
:10316000310581F12232310509F439C0EDC09927CA
:1031700081309105B9F070F082309105D9F0039754
:1031800009F0E2C0E4E9F5E0E4918E2F90E0E4E993
:10319000F5E032C0E4EEF5E0E4918E2F90E0E4EE4D
:1031A000F5E02AC0E2EBF5E0E4918E2F90E0E2EB4F
:1031B000F5E022C0EAE9F5E0E4918E2F90E0EAE93B
:1031C000F5E01AC04115510509F4D2C0413051054E
:1031D00009F0BAC089E090E0E5E3F5E010C04115E0
:1031E000510509F4CAC04130510509F0ADC082E370
:1031F00090E0E8E9F4E003C0009709F4A5C020914D
:10320000E800277F2093E8002091DA023091DB026A
:103210008217930708F49C0140E02115310589F1DC
:1032200080911803882309F43DC08530D9F180913D
:10323000E80083FD37C08091E80082FD2FC08091B7
:10324000E80080FFEACF4091F3008091F20090E027
:10325000942B2115310559F08830910540F44491A3
:103260004093F1003196215031090196F2CF41E0AF
:10327000089709F040E08091E8008E778093E8009D
:10328000CCCF4111CDCF0AC080911803882351F0D3
:10329000853041F08091E80083FD04C08091E80012
:1032A00082FFF2CF8091E8008B778093E8004CC0DA
:1032B000803809F049C08091E800877F8093E8005A
:1032C0008091D3028093F1008091E8008E77809303
:1032D000E8000E94AB1B38C0811136C08091D60235
:1032E0009091D702992702977CF58091E800877F1B
:1032F0008093E8001091D6021093D3020E94AB1B7A
:10330000111106C08091E30087FD02C081E001C079
:1033100084E08093180342E061EC81E00E94CA1BC4
:1033200042E261EC82E00E94CA1B42E061EC83E071
:103330000E94CA1B42E160E885E00E94CA1B42E18C
:1033400061E884E00E94CA1B8091E80083FF1AC0F4
:103350008091E800877F8093E8008091EB00806295
:103360008093EB000FC082E190E0E2E8F5E047CF08
:1033700089E090E0ECE1F5E042CF80E490E0EAEC17
:10338000F4E03DCFAA960FB6F894DEBF0FBECDBFD6
:10339000DF91CF911F9108951F920F920FB60F9258
:1033A00011242F933F934F935F936F937F938F934A
:1033B0009F93AF93BF93CF93DF93EF93FF93C0910E
:1033C000E900CF708091EC00D82FD17080FDD0E85B
:1033D0001092E9008091F000877F8093F00078944C
:1033E0000E943C161092E9008091F0008860809362
:1033F000F000CD2BCF70C093E900FF91EF91DF91EA
:10340000CF91BF91AF919F918F917F916F915F917C
:103410004F913F912F910F900FBE0F901F901895D5
:10342000E8EDF0E080818E7F80831092E2001092C0
:10343000DA001092E100A0EEB0E08C9181608C93F4
:1034400080818F77808319BCA7EDB0E08C918E7F4F
:103450008C9380818F7E80831092C6020895CF92D4
:10346000DF92EF92FF920F931F93CF93DF93C8EDFC
:10347000D0E088818F7E8883E7EDF0E080818160F5
:10348000808384E082BF81E08093C60288818E7F42
:10349000888302EE10E0F80110821092DA0081EECB
:1034A000C82ED12CF601108288818F77888388817D
:1034B0008068888388818F7D888319BC1092180367
:1034C0001092D3021092D2021092D10290EEE92E05
:1034D000F12CF70180818B7F8083888181608883D4
:1034E00042E060E080E00E94CA1BF60180818E7F8E
:1034F0008083F801808181608083808188608083FF
:10350000F70180818E7F8083888180618883DF914D
:10351000CF911F910F91FF90EF90DF90CF90089582
:103520001F920F920FB60F9211242F933F934F9338
:103530005F936F937F938F939F93AF93BF93EF931B
:10354000FF938091E10082FF09C08091E20082FF39
:1035500005C08091E1008B7F8093E1008091DA00CB
:1035600080FF2AC08091D80080FF26C08091DA00B9
:103570008E7F8093DA008091D90080FF18C080E1AF
:1035800089BD82E189BD09B400FEFDCF81E0809351
:1035900018038091C60281110FC00E94101A0E9468
:1035A0002F1A8091E20084608093E20005C019BC6C
:1035B000109218031092C6028091E10080FF17C09C
:1035C0008091E20080FF13C08091E2008E7F8093A3
:1035D000E2008091E20080618093E2008091D80057
:1035E00080628093D80019BC85E080931803809195
:1035F000E10084FF34C08091E20084FF30C080E1AC
:1036000089BD82E189BD09B400FEFDCF8091D8005B
:103610008F7D8093D8008091E1008F7E8093E100C0
:103620008091E2008F7E8093E2008091E2008160D1
:103630008093E2008091D302882311F084E007C0D8
:103640008091E30087FD02C081E001C083E08093A8
:1036500018030E943E1F0E947A0C0E946B0E8091FC
:10366000E10083FF27C08091E20083FF23C08091A7
:10367000E100877F8093E10082E08093180310923D
:10368000D3028091E1008E7F8093E1008091E2007F
:103690008E7F8093E2008091E20080618093E2005F
:1036A00042E060E080E00E94CA1B8091F0008860E8
:1036B0008093F000FF91EF91BF91AF919F918F9117
:1036C0007F916F915F914F913F912F910F900FBE1E
:1036D0000F901F9018952091E4003091E50095E639
:1036E0004091EC00842F817040FF23C08091E8005E
:1036F00080FD1DC080911803882399F0853099F0D2
:103700008091EB0085FD11C04091E4005091E500EF
:103710002417350729F3915011F09A01E1CF84E085
:10372000089582E0089583E0089581E0089580E09F
:1037300008954091E80042FFDDCF089520911803DD
:10374000243021F4BC0184E00C946D110895BC0177
:1037500083E00C946D118091D40287FF11C0809199
:10376000E80082FD05C0809118038111F8CF11C0D7
:103770008091E8008B770BC080911803882349F073
:103780008091E80080FFF8CF8091E8008E778093E9
:10379000E8000895982F973068F59093E9009817FE
:1037A00039F07091EC002091ED005091F00003C0D1
:1037B000242F762F50E021FD02C09F5FECCF309187
:1037C000EB003E7F3093EB003091ED003D7F309376
:1037D000ED003091EB0031603093EB007093EC0022
:1037E0002093ED005093F0002091EE0027FDE5CFEF
:1037F00080E008958F708093E90081E00895209122
:10380000DA023091DB022617370748F0611571059F
:1038100039F42091E8002E772093E80001C0B90127
:10382000FC0120E06115710579F18091180388236E
:10383000F1F18530F1F18091E80083FD3CC0809189
:10384000E80082FD2EC08091E80080FFEBCF209140
:10385000F3008091F20090E0922B6115710551F018
:103860008830910538F421912093F100615071095D
:103870000196F3CF21E0089709F020E08091E8005D
:103880008E778093E800CECF2111CFCF0AC08091F0
:103890001803882361F0853061F08091E80083FD92
:1038A0000AC08091E80082FFF2CF80E0089582E0B4
:1038B000089583E0089581E00895CF93C091E900D1
:1038C0002091EC00922F917020FD90E8209123012F
:1038D00020FF2DC0CF70C92B909114019F70909341
:1038E000E9009091EB0090FF1FC09091EE0097FFD0
:1038F0001BC09FEF2091E800915025FD06C025EDEB
:103900002A95F1F700009111F5CF8093F10083E142
:1039100091E00E947E208091E80080FF05C08091A8
:10392000E8008E778093E800CF70C093E900CF91D4
:103930000895CF93DF93CDB7DEB72D970FB6F894E8
:10394000DEBF0FBECDBF84B7877F84BF0FB6F894AC
:10395000A89580916000886180936000109260005B
:103960000FBE90E080E80FB6F894809361009093CA
:1039700061000FBE85B7806885BF85B7806885BF49
:103980000E94101A0E942F1A8091E2008460809396
:10399000E2007894809118038823A1F01091E90047
:1039A0001F709091EC00892F817090FD80E8182B9A
:1039B0001092E9008091E80083FD0E943C161F7080
:1039C0001093E90082E084BD93E095BD9AEF97BD26
:1039D00080936E000E94DD0E90E09093080180932A
:1039E00007010E94AC0F0E94BB0FA6EEB2E0EAEF07
:1039F000F2E011921D9223E0E830F207D1F78EE059
:103A000090E00E9401228093DC029093DD02FC0191
:103A10000E962BEF2193E817F907E1F780E090E08D
:103A20000E94A1218C3E9E4F11F00E9433128CE027
:103A300090E00E94932190E0A0E0B0E08093DE024D
:103A40009093DF02A093E002B093E10289EA8093B1
:103A5000800089E08093810024982C983F988AB157
:103A60008F7C8AB96E98479A8BB180638BB9769AAE
:103A70008FE090E00E949B216093E2027093E3024A
:103A80008093E4029093E50267708FEF689FB00126
:103A900011247595679575956795772770938900BB
:103AA0006093880070938B0060938A0070938D0000
:103AB00060938C000E94540F80E00E94950C80E07F
:103AC00090E00E94A1218C3E9E4F11F00E94331283
:103AD00082E090E00E949321809309030E942212C9
:103AE0009093F5028093F40283E090E00E9493218A
:103AF000682F70E080E090E00E94EB1380E090E09F
:103B00000E94A1218C3E9E4F11F00E9433128DE045
:103B100090E00E9493218093F60289E091E09093D7
:103B2000F8028093F70282E090E090932601809360
:103B3000250180911803843079F5809127019091B7
:103B40002801A0912901B0912A01892B8A2B8B2B66
:103B500019F180911E018F708093E90088E0EEE2F8
:103B6000F1E0DE01119601900D928A95E1F740E0B7
:103B700050E068E070E0CE0101960E94B12040E084
:103B800050E062E070E085E291E00E94B120809117
:103B9000E8008E778093E800DD24DA9480E1C82E77
:103BA00092E1B92E28E1E22EF12C30E4A32E80918F
:103BB0001803853009F04BC080911803843021F13F
:103BC0001092F9020FB6F894A895E09260000FBE2B
:103BD000A092600080E00E946B0E83B7817F8460BA
:103BE00083BF83B7816083BF7894889583B78E7FC6
:103BF00083BF0FB6F894A895809160008861809388
:103C00006000109260000FBE8091D202882309F4F8
:103C1000CECF0E94DD0E90E09093080180930701C3
:103C20000E94AC0F0E94BB0FEAEFF2E0119283E01A
:103C3000E830F807D9F70E944110EAEFF2E08191ED
:103C40008111B1C023E0E830F207C9F7B0CF0E947C
:103C50004110AAE0B3E0EAEFF2E000E010E0302F1C
:103C600021919D91922721F180E099249394492DEF
:103C70004923D1F089833A83292181E009F480E046
:103C80008B830E94C6118160782F9D838C8349812C
:103C90005A816B818D810E94730BF801E65FFC4FA6
:103CA00080819826908218C08F5F990C8630F9F633
:103CB0000F5F1F4F0E30110591F6D986DA861B86ED
:103CC0000E94C6118160782F9D878C8749855A850F
:103CD0006B858D850E94730B0E947A0C909108036E
:103CE000891731F00E947A0C809308030E946B0EB2
:103CF00080911803843009F06AC0409127015091E7
:103D000028016091290170912A0141155105610531
:103D1000710509F45CC0209119012F702093E9000E
:103D20008091E80082FF53C03091F3008091F2004F
:103D300090E0932B892B31F48091E8008B7780936E
:103D4000E80045C03091F3008091F20090E0932BA1
:103D5000E22F0097E1F120911803243011F541156D
:103D6000510561057105E9F0E093E9002091E80053
:103D700022FF17C0F091F3002091F20030E03F2BBA
:103D8000232B11F02091F100F091F3002091F2002B
:103D900030E03F2B232B29F42091E8002B77209350
:103DA000E8000197D6CFC9BCB9BC09B400FEFDCF6D
:103DB0008091D8008F7D8093D8008091E000826050
:103DC0008093E0008091E00081FDFCCFF0CE8091F7
:103DD0001803843009F0EBCE8091270190912801DF
:103DE000A0912901B0912A01892B8A2B8B2B09F4F0
:103DF000DECE809114018F708093E9008091E800FD
:103E000080FFD5CE83E191E00E947E20D0CE0E943B
:103E10001C13292F2F70E92FE295EF704E2F50E0E1
:103E2000FA013297EE30F105B8F4E658FF4F0C94E2
:103E3000FB21803F99F018F4883E70F40FC0843F56
:103E400059F40CC0883E50F0813F31F407C0822FF6
:103E5000869586958695089580E0089581E0089579
:103E60001092BB021092BA020E94AD1280E090E064
:103E70000E94640C80E090E00C944E0C1092BC0206
:103E800086E0EEE3F2E0DF011D928A95E9F70C94FB
:103E9000301F882341F080959091BB028923809345
:103EA000BB020C94AD120895882339F09091BB02A7
:103EB000892B8093BB020C94AD120895882341F0A6
:103EC00080959091BC0289238093BC020C94AD1222
:103ED0000895882339F09091BC02892B8093BC020D
:103EE0000C94AD120895882309F458C0682F8238C5
:103EF00069F40E947A0C81FF51C069E38CE392E07F
:103F00000E9408120E94AD1269E30EC0833891F43A
:103F10000E947A0C80FF42C063E58CE392E00E942D
:103F200008120E94AD1263E58CE392E00E94FB113F
:103F30000C94AD12843869F40E947A0C82FF2EC072
:103F400067E48CE392E00E9408120E94AD1267E4DD
:103F5000EBCF8CEF860F813A38F380E2860F883002
:103F600070F4677081E090E001C0880F6A95EAF70D
:103F700080959091BC0289238093BC02D9CF8BE5B8
:103F8000860F833020F480E090E00C94640C685A33
:103F9000673120F480E090E00C944E0C0895CF93AC
:103FA000882309F496C0C82F8238B1F40E947A0C95
:103FB00081FD8FC069E38CE392E00E9408120E94A9
:103FC000AD122FEF81EE94E0215080409040E1F758
:103FD00000C0000069E317C08338E1F40E947A0C46
:103FE00080FD77C063E58CE392E00E9408120E9496
:103FF000AD122FEF81EE94E0215080409040E1F728
:1040000000C0000063E58CE392E00E94FB11CF91B9
:104010000C94AD128438B1F40E947A0C82FD59C020
:1040200067E48CE392E00E9408120E94AD122FEF29
:1040300081EE94E0215080409040E1F700C0000004
:1040400067E4E1CF8CEF8C0F813A80F4EEE3F2E08D
:1040500084E492E02191C217A1F18E179F07D1F756
:104060006C2F8CE392E00E940812D1CF80E28C0F7B
:10407000883068F4C77081E090E001C0880FCA956D
:10408000EAF79091BC02892B8093BC02C0CFEBE58C
:10409000EC0FE33040F4F0E0E252FE4F808190E01C
:1040A000CF910C94640CC85AC73198F4EC2FF0E00F
:1040B000EE0FFF1FEF51FE4F80819181CF910C9445
:1040C0004E0C6C2F8CE392E00E94FB110E94AD120B
:1040D000C7CFCF910895CF93C82F0E94CF1FC93368
:1040E00049F42FEF87EE93E0215080409040E1F7B4
:1040F00000C000008C2FCF910C94731F8091180387
:10410000843069F58091270190912801A0912901BF
:10411000B0912A01892B8A2B8B2B09F180911401F4
:104120008F708093E9002091F3008091F20090E07D
:10413000922B892B91F09091E8008091E8008E7786
:104140008093E80095FD09C00E946B1B811108C097
:104150008091E8008E778093E80080E0089582E007
:104160000895EF92FF920F931F93CF93DF937C01FB
:104170008B010E946B1B811119C0E701011511050C
:10418000A1F08091E80085FD0AC08091E8008E775B
:104190008093E8000E946B1B882381F307C08991FC
:1041A0008093F10001501109E9CF80E0DF91CF91B8
:1041B0001F910F91FF90EF9008951092B9008CE03D
:1041C0008093B8000895EF92FF920F931F93CF93BF
:1041D000DF93182FEB011092BC0084EA8093BC009F
:1041E0000E94C6117C018091BC0087FD0EC0CF3FAC
:1041F0008FEFD807C1F30E94C6118E199F098C1743
:104200009D0788F38EEF9FEF2EC08091B900887FC5
:10421000883041F08091B900887F803119F08FEFAC
:104220009FEF21C01093BB0084E88093BC000E94E4
:10423000C6118C018091BC0087FD0CC0CF3F8FEF71
:10424000D807C1F30E94C611801B910B8C179D07E4
:1042500088F3D8CF8091B900887F883111F08034FD
:10426000F1F680E090E0DF91CF911F910F91FF90E8
:10427000EF9008950F931F93CF93DF93EB018093FB
:10428000BB0084E88093BC000E94C6118C01809121
:10429000BC0087FD0EC0CF3F8FEFD807C1F30E944F
:1042A000C611801B910B8C179D0788F38EEF9FEF33
:1042B0000CC02091B900287F81E090E0283211F4F1
:1042C00080E090E0919581959109DF91CF911F91C8
:1042D0000F9108950F931F93CF93DF93EC0184E820
:1042E0008093BC000E94C6118C018091BC0087FDA8
:1042F0000EC0CF3F8FEFD807C1F30E94C611801BBD
:10430000910B8C179D0788F38EEF9FEF03C0809170
:10431000BB0090E0DF91CF911F910F91089584E948
:104320008093BC000895F999FECF92BD81BDF89AA3
:10433000992780B50895A6E1B0E044E050E00C94E0
:10434000CD21A8E1B0E042E050E00C94CD21262F31
:10435000F999FECF92BD81BDF89A019700B402167B
:1043600039F01FBA20BD0FB6F894FA9AF99A0FBE29
:1043700008950396272F0E94A8210E94A721252F88
:104380000E94A821242F0C94A8210196272F0E9477
:10439000A8210C94A721DC01CB01FC01F999FECFE7
:1043A00006C0F2BDE1BDF89A319600B40D924150BD
:1043B0005040B8F70895991B79E004C0991F9617EB
:1043C00008F0961B881F7A95C9F780950895AA1B57
:1043D000BB1B51E107C0AA1FBB1FA617B70710F0F0
:1043E000A61BB70B881F991F5A95A9F78095909522
:1043F000BC01CD010895EE0FFF1F0590F491E02D53
:1044000009940F931F93CF93DF938230910510F49B
:1044100082E090E0E0911B03F0911C0320E030E08B
:10442000A0E0B0E0309719F1408151810281138101
:1044300048175907C8F08417950769F4109731F0A9
:1044400012960C93129713961C9327C000931B038C
:1044500010931C0322C02115310519F04217530790
:1044600018F49A01BD01EF01DF01F801DBCF21153E
:104470003105F9F0281B390B2430310580F48A818D
:104480009B816115710521F0FB019383828304C038
:1044900090931C0380931B03FE01329644C0FE01DF
:1044A000E20FF31F819391932250310939832883BE
:1044B0003AC02091190330911A03232B41F4209123
:1044C00002013091030130931A03209319032091C4
:1044D0000001309101012115310541F42DB73EB79E
:1044E0004091040150910501241B350BE091190303
:1044F000F0911A03E217F307A0F42E1B3F0B2817C5
:10450000390778F0AC014E5F5F4F2417350748F04C
:104510004E0F5F1F50931A03409319038193919399
:1045200002C0E0E0F0E0CF01DF91CF911F910F9149
:104530000895CF93DF93009709F481C0FC0132976F
:1045400013821282A0911B03B0911C03109781F477
:1045500020813181820F931F2091190330911A031A
:104560002817390751F5F0931A03E093190367C030
:10457000ED0120E030E0CE17DF0740F44A815B8197
:104580009E0141155105F1F0EA01F5CFD383C283B5
:1045900040815181840F951FC817D90759F488812C
:1045A0009981840F951F0296918380838A819B81D4
:1045B000938382832115310529F4F0931C03E09342
:1045C0001B033DC0E901FB83EA8349915991C40F64
:1045D000D51FEC17FD0761F480819181840F951F31
:1045E0000296E90199838883828193819B838A83E0
:1045F000E0E0F0E012968D919C911397009719F0EE
:10460000FD01DC01F7CF8D919C9111979D012E5FEB
:104610003F4F820F931F2091190330911A032817DF
:10462000390769F4309729F410921C0310921B0388
:1046300002C013821282B0931A03A0931903DF9170
:08464000CF910895F894FFCF1B
:1046480000001D0320000120001A113D111911A7B7
:104658001B9E1B0284100000010510000001830846
:104668000000010000000000000000000000A12080
:10467800000000000200000D010D020D030D040DE5
:10468800050D000C010C020C030C040C050C000BAE
:10469800010B020B030B040B050B000A010A020AAB
:1046A800030A040A050A00090109020903090409A1
:1046B800050900080108020803080408050800079E
:1046C800010702070307040705070006010602069B
:1046D8000306040605060005010502050305040591
:1046E800050500040104020403040404050400038E
:1046F800010302030303040305030002010202028B
:104708000302040205020001010102010301040180
:104718000501000001000200030004000500818279
:1047280083E200E900EA00B500B600B700CD0083D7
:1047380001CC008A0192019401210223022402255E
:1047480002260227022A02B300B4006F007000009C
:00000001FF
