:100000000C94D5010C941C020C941C020C941C0240
:100010000C941C020C941C020C941C020C941C02E8
:100020000C941C020C941C020C945C250C942E263F
:100030000C94681C0C941C020C941C020C941C0262
:100040000C941C020C941C020C941C020C941C02B8
:100050000C941C020C94B51C0C941C020C941C02F5
:100060000C941C020C941C020C941C020C941C0298
:100070000C941C020C941C020C941C020C941C0288
:100080000C941C020C941C020C941C020C941C0278
:100090000C941C020C941C020C941C020C941C0268
:1000A0000C941C020C941C020C941C028D118D11DA
:1000B000BF11BF1106122412451345132F12C4128B
:1000C000D512D5123513451345133E13FA13FA13FF
:1000D0000C140C1403140C140C140C14FA13FA134F
:1000E00008140C140C1408149B26C226BA27C22626
:1000F000BA270E273127BA2788279727060013002B
:10010000120019001A000D00070018001B00100053
:100110000F620C41084215432A5D2B5D17431642BE
:100120000441117209611C6414740B6828002C5D71
:100130000A7805640E741D613000485D495D121136
:10014000465D111364004A5D4B5D10113962475DD5
:1001500038003400455D2E110000355D32003972E3
:1001600025133B5D365D375D28002C5D385D395DBC
:100170003A5D3711191105112D5D2E5D3F5D435D0F
:100180005F006000610035005362345D2F5D305DBB
:10019000325D2D005C005D005E006272335D415D8A
:1001A0003C5D3D5D315D405D59005A005B00425D44
:1001B000A9004E0049004B00E200E6003A003B0077
:1001C0003C003D00AA004A0052004D00E100E00062
:1001D0003E003F00400041006500500051004F00CC
:1001E00028002C5D42004300440045003F5D435D14
:1001F00000001A000D00000028002C5D0000100017
:100200001B0000000600130000000441084200002B
:10021000120008420000405D2D000000435D2D00EB
:1002200000002B5D2A5D0000100347006800650098
:1002300072006B0069006E00000020033400300083
:100240002000500065007200630065006E007400BD
:10025000200043006C0075006200000004030904E4
:1002600009023B00020100A0FA0904000001030199
:100270000100092111010001224000070581030846
:10028000000A090401000103000000092111010016
:100290000122BC000705820320000A1201100100A0
:1002A000000008EDFE606001000102000105010987
:1002B00002A10185020901A10005091901290515FD
:1002C00000250195057501810295017503810105E0
:1002D00001093009311581257F95027508810609CC
:1002E000381581257F950175088106050C0A3802AD
:1002F0001581257F950175088106C0C0050109801B
:10030000A101850319012AB700150126B70095013F
:1003100075108100C0050C0901A101850419012A8D
:10032000A002150126A002950175108100C00501EB
:100330000906A1018505050719E029E71500250132
:100340009508750181020507190029EF150025019F
:1003500095F07501810205081901290595057501BA
:100360009102950175039101C005010906A10105DE
:100370000719E029E7150025019508750181029507
:1003800001750881010507190029FF150026FF00E6
:10039000950675088100050819012905950575015F
:1003A0009102950175039101C00011241FBECFEF8A
:1003B000DAE0DEBFCDBF04B603FE27C08091EF03B5
:1003C0009091F003A091F103B091F2038730904B2C
:1003D000A740B04BD1F41092EF031092F0031092AB
:1003E000F1031092F20314BE84B7877F84BF0FB667
:1003F000F894A895809160008861809360001092C5
:1004000060000FBEE0E0F8E3099512E0A0E0B1E083
:10041000E8E5F1E502C005900D92A239B107D9F7E0
:1004200023E0A2E9B2E001C01D92AF3EB207E1F7BE
:100430000E949C220C94AA280C940000EF92FF9238
:100440000F931F93CF93880F991F880F991FFC015B
:10045000E054F34700811181E280F380FB01828147
:100460008823A1F00E94D919C82F823011F0803260
:1004700049F40E94EC19C7010E94BB028C2F0E9414
:10048000E9190AC0C8010E94BB0206C0C7010E9448
:10049000D102C8010E94D10281E0CF911F910F913A
:1004A000FF90EF900895EF92FF921F93CF93DF9309
:1004B000FB0122812223C9F0FC01EE0FFF1FEE0F8A
:1004C000FF1FE451F447E080F180C281D3810E9494
:1004D000D919182F0E94EC19C7010E94E702812F39
:1004E0000E94E919CE010E94E70281E0DF91CF91DD
:1004F0001F91FF90EF9008959C0129523D452B31AB
:10050000310510F40C941E029C0124543D45283002
:10051000310510F40C94530281E008959C013A9542
:1005200021153F4138F5DC01AA27B270AC01442700
:1005300054709C012227387094FF0FC090FF02C0B6
:1005400080E101C080E0AB2B09F08062452B09F00F
:100550008064232B69F080680BC0892F8170AB2BDE
:1005600009F08260452B09F08460232B09F0886034
:10057000FB0109940895CF93DF93EC01805E91090C
:10058000089710F0209719F469E471E102C060EC5B
:1005900073E1CE010E948E028C2FDF91CF910C94DB
:1005A0002410CF93DF93EC010E94CE10CE01805E29
:1005B0009109089710F0209719F460E571E102C0E5
:1005C00067EC73E1CE01DF91CF910C948E02CF9353
:1005D000DF93EC010E94BB02CE01DF91CF910C941E
:1005E000D10281E008950C947C0208950C94F502E8
:1005F0001F93CF93DF9300D000D01F92CDB7DEB70B
:1006000049835A836B833091140389819A81311114
:1006100014C0662359F0222349F00E945819182F5C
:10062000682F89819A810E94FF1803C00E942B19AC
:10063000182F69817A81812F04C00E94581969811D
:100640007A810F900F900F900F900F90DF91CF91C4
:100650001F910C94C403FC01262F8681978100977B
:1006600039F4408151816281738184810C94F80254
:100670000895CF93DF93EC0161E00E942B03BE014C
:10068000DF91CF910C94AF0CCF93DF93EC0160E03E
:100690000E942B03BE01DF91CF910C94F6020E94C1
:1006A0008D1A811102C00E94471B0E9465080C949C
:1006B000E9050E946D0C0C94E50508950E94E8136D
:1006C0000E945D032FEF84E39CE021508040904026
:1006D000E1F700C000000C94DB1C0F931F93CF9335
:1006E000DF93EC0161E00E942B038C01BE010E94AC
:1006F000F302882379F1BE01C8010E94C60788234E
:1007000049F1BE01C8010E940D09882319F1BE01FB
:10071000C8010E945F098823E9F0BE01C8010E9458
:100720008A0A8823B9F08A81882369F001158CE54B
:10073000180731F00F3D1C4531F40E94471B0AC0D9
:100740000E945E0307C0CE01DF91CF911F910F91F0
:100750000C94F10280E0DF91CF911F910F910895E9
:1007600008950C94B00381E008950C94B303CF93E3
:10077000C82F0E94B1038C2F0E94B503CF9108951A
:1007800080E090E0089508952EE1829FC001112439
:10079000FC0126E0729FE00DF11D1124E60FF11D12
:1007A000EE0FFF1FE450FF4F859194910895880F3D
:1007B000991FFC01E85DFD4F859194910895CF93B9
:1007C000DF930E940005EC01811520E5920708F0F7
:1007D0003FC0811540E4940708F0D2C0883E9105DF
:1007E00000F5803E910508F002C1883A910570F449
:1007F000853A910508F0A6C08130910509F49FC0A3
:1008000008F4F2C0049708F0F2C0EEC08F3B9105E7
:1008100008F4A1C0803C910508F4E6C0805C910911
:10082000A5C0811550E2950760F4C11581E0D80795
:1008300008F0DDC0C03FD10508F4D6C0CE019065F8
:10084000D7C0811520E3920708F093C09F708EC037
:10085000811545E5940708F046C0811554E59507D4
:1008600008F0A6C0C11582E5D80718F5C11521E525
:10087000D20708F088C0CE01F4E096958795FA95E6
:10088000E1F7282F23703C2F337081E090E002C005
:10089000880F991F3A95E2F79C68922B2C2F2F70A6
:1008A0002695269540E2249F90011124822B932BBC
:1008B0009FC09E01237033279C2F96959695C11556
:1008C000D34508F065C041E050E002C0440F551F19
:1008D0002A95E2F780E2989F90011124CA01822BA9
:1008E000932B9C6885C0811559E5950798F4C1152F
:1008F00088E5D80708F061C0C11526E5D20708F0E1
:1009000073C08C2F0E9494058F7190E0982F8827D8
:1009100090626EC081154AE5940708F453C0905662
:100920008115904208F060C08D2F8F710E94940550
:100930009E01332730628F71A901582B53C081E08B
:1009400090E056C0855AC82FD0E0CE5ADD4F88813E
:1009500090E090644DC0885AC82FD0E0CC0FDD1FC6
:10096000CC5DDD4F88819981946442C00E94D70399
:100970003FC09927D3FF02C0986C3AC0906C38C032
:100980009F70906A35C09C2F8827816F906A30C015
:1009900041E050E002C0440F551F2A95E2F780E283
:1009A000989F90011124CA01822B932B9A6820C032
:1009B000982F8827846F906A1BC09C2F8827806F90
:1009C000906A16C08F700E9494059E0194E036953F
:1009D00027959A95E1F72F7030E0322F2227306962
:1009E000A901482BCA0104C080E090E001C0CE01FB
:1009F000DF91CF9108950E94C4030E94DF03089500
:100A00008238910569F1B0F48133910509F46DC024
:100A100048F48932910509F463C08A32910509F4DA
:100A200069C008958533910509F455C0893391054E
:100A3000B9F00895833E910569F138F4803E91053F
:100A4000B1F0823E910509F10895863E9105A9F124
:100A5000873E9105B9F1843E910509F064C023C039
:100A60002091E00320FD4FC021FD4DC008958091ED
:100A7000E00380FD44C08091E10380FF44C0809189
:100A8000E00384FD42C083EE4DC08091E00382FF0D
:100A900038C0F5CF8091E00382FD33C08091E1033F
:100AA00080FD31C0ECCF8091E10381FF32C08091A5
:100AB000E00384FD2AC087EE35C08091E00383FF08
:100AC00026C0F5CF8091E00383FD21C08091E10332
:100AD00081FD1FC0ECCF8091E00385FD1CC01DC0CF
:100AE0008091E00385FD19C016C08091E00386FD6A
:100AF00016C017C08091E00386FD13C010C089E3C3
:100B000011C082EE0FC080EE0DC080E00BC086EEFB
:100B100009C084EE07C089E205C085E303C08AE20C
:100B200001C081E390E008959091E00392FF0DC031
:100B3000282F2871283019F4877F846006C0282F59
:100B40002471243011F48B7F886093FF0DC0282F0F
:100B50002871283119F4877E846106C0282F2471FA
:100B6000243111F48B7E88612091E10320FF0DC0B8
:100B7000382F3871383019F4877F816006C0382FDC
:100B80003171313011F48E7F886021FF0DC0282F24
:100B90002871283119F4877E816106C0282F2171C0
:100BA000213111F48E7E886194FD877E0895E82FAF
:100BB000F0E0EA52FC4F80810895089580EA8A951A
:100BC000F1F7089508950C94E2050C94E3050C9454
:100BD000E2050C94E705F894E82FE295EF70F0E059
:100BE00031A1282F2F7081E090E001C0880F2A9555
:100BF000EAF7982F9095932391A392A1892B82A332
:100C0000789408950F931F93CF93DF9387EF0E94FB
:100C1000EB0581E30E94EB0583E30E94EB0582E391
:100C20000E94EB0586E30E94EB05C5E5D2E00BE5EB
:100C300012E089910E94EB050C171D07D1F7E1ED39
:100C4000F3E0A6EDB3E011921D9283E0E63DF807D4
:100C5000D1F785E00E94B506DF91CF911F910F91EA
:100C60000C944F038F929F92AF92BF92CF92DF92DC
:100C7000EF92FF920F931F93CF93DF938BE5A82EF4
:100C800082E0B82EC1EDD3E090E6E92E92E0F92E95
:100C9000912C01E010E06501F5018081F894E82FC6
:100CA000E295EF70F0E021A18F70A80102C0440F1F
:100CB000551F8A95E2F7CA01922F982B91A392A112
:100CC0008095892382A378940E94DE05E5E5F2E011
:100CD00020E030E0812C4191A42FA295AF70B0E0CC
:100CE00090968C9190E04F7002C0959587954A95AB
:100CF000E2F780FD07C0802F022E01C0880F0A9402
:100D0000EAF701C080E0882A2F5F3F4F2630310587
:100D100011F75FEFA51AB50AF60180810E94EB0575
:100D20008881881619F0888281E001C080E0982AC5
:100D30002196EA14FB0409F0AECF292D45E066EDBB
:100D400073E081ED93E00E94B6060E945903892D5D
:100D5000DF91CF911F910F91FF90EF90DF90CF9097
:100D6000BF90AF909F908F9008950895FF920F933A
:100D70001F93CF93DF938C01F62ED72FC42F2223FE
:100D800049F081E0809394020E949A1C9093930210
:100D900080939202809194028823C1F08091920204
:100DA000909193020E94A61C069780F0EF2DFD2FD4
:100DB000D8014C2F50E0CD01801B910B8417950773
:100DC0001CF48D918193F7CF10929402DF91CF9113
:100DD0001F910F91FF9008950E948D1A811102C0FA
:100DE0000E94471B0E94C81A8093DB03282F269578
:100DF0002695269530E02430310524F087708861EF
:100E00008093DB038091DB0380FF04C08695869589
:100E1000869501C080E00C94FB072091DB03822FB4
:100E2000869586958695482F50E04330510554F4B9
:100E30008F5F982F990F990F990F822F8770892BA9
:100E40008093DB038091DB0381608093DB030E944E
:100E5000CC1A8091DB038695869586950C94FB07CA
:100E60008091DB03982F969596959695A1F0915ECB
:100E7000990F990F990F8770892B8093DB03887FD7
:100E800091E009F490E08091DB0390FB80F980937E
:100E9000DB030E94CC1A8091DB03869586958695AC
:100EA0000C94FB078091DB0380FD13C0816080936D
:100EB000DB03813019F489E08093DB038091DB034D
:100EC0000E94CC1A8091DB038695869586950C94BA
:100ED000FB0708958091DB0380FF08C08E7F80931D
:100EE000DB030E94CC1A80E00C94FB0708958091EC
:100EF000DB0380FD0C946A070C9452079091DB038E
:100F0000892F8695869586958F5F8F71977084302F
:100F100038F4880F880F880F892B8093DB0302C079
:100F20009093DB038091DB03887F91E009F490E0EC
:100F30008091DB0390FB80F98093DB030E94CC1A45
:100F40008091DB038695869586950C94FB0784300B
:100F500008F083E09091DB039770282F220F220F77
:100F6000220F922B9093DB03987F21E009F420E07D
:100F70009091DB0320FB90F99093DB030C94FB072B
:100F80000E94A7078091DB030C94CC1A9C01FB0103
:100F90008281882349F12E3BFCE53F07C9F040F4EC
:100FA0002C3BECE53E0769F02D3B3C4561F0089594
:100FB000203C9CE5390791F070F0213C3C4589F0DC
:100FC000089583E001C080E00E94C00780E008959A
:100FD0000E943007FBCF0E940D07F8CF0E947707D1
:100FE000F5CF0E947E07F2CF81E00895259A2D98D3
:100FF00008952D980895CF92DF92EF92FF92CF93AC
:10100000C82F843050F4811109C0809180008F77FF
:10101000809380000E94F90706C0C3E080918000A1
:101020008068809380002C2F30E0AFEFBFEF0E94EC
:101030004E2823E030E040E050E00E942628B42F04
:10104000A32F922F8827492F5A2F6B2F7727CA015A
:101050004C3724E1520728F469E070E00E94FE2733
:1010600029C0DB01CA018A50974DAF4FBF4F662799
:10107000782F892F9A2F25EF38E241E050E00E9427
:10108000262869017A01CA01B9010E94EE279B0155
:10109000AC01C701B6010E94EE27BB27A92F982FEC
:1010A000872F009721E0A207B10511F0BC0102C013
:1010B0006FEF7FEF7093890060938800CF91FF906E
:1010C000EF90DF90CF90089508950E94F60782E890
:1010D0008093800089E1809381008FEF9FEF909350
:1010E0008700809386000C94EC06AF92BF92CF925B
:1010F000DF92EF92FF920F931F93CF93DF937C01C8
:101100005B01C42FD22FFC0182818823F9F0409328
:1011100097020E949A1C909396028093950280E217
:101120008C0F883008F06EC0C77081E001C0880F56
:10113000CA95EAF7DF91CF911F910F91FF90EF9041
:10114000DF90CF90BF90AF900C944911809197029F
:10115000481335C080919502909196020E94A61C7A
:101160006C01B701C5010E94BA16C816D90638F538
:1011700010E21D0FCD17B9F080E28C0F883040F4DB
:10118000C77081E001C0880FCA95EAF70E9450112C
:10119000183058F581E09D2F977001C0880F9A95FF
:1011A000EAF70E944911802F0E943611183050F53D
:1011B000D77081E001C0880FDA95EAF70AC080E2B3
:1011C0008C0F8830F8F4C77081E001C0880FCA9591
:1011D000EAF7DF91CF911F910F91FF90EF90DF9091
:1011E000CF90BF90AF900C945011802FDF91CF9192
:1011F0001F910F91FF90EF90DF90CF90BF90AF9035
:101200000C943611DF91CF911F910F91FF90EF90C9
:10121000DF90CF90BF90AF9008950F939C01CB01CA
:10122000243F4CE5340731F188F4293DFCE53F07C4
:10123000D9F02A3D4CE5340779F1283D3C45A9F524
:1012400006E221EE41EE68ED7CE52BC0263FFCE591
:101250003F07E1F0A8F0273F3C4539F507E225EECE
:1012600046EE67EF7CE51DC007E225EE45EE69ED31
:101270007CE517C006E221EE40EE64EF7CE511C08C
:1012800007E225EE44EE65EF7CE50BC006E221EEB9
:1012900042EE66EF7CE505C008E221E045EE6AED2E
:1012A0007CE50E94750880E008C0FC0182818823EB
:1012B00019F01092970201C081E00F910895CF9329
:1012C000DF93EC01FB018281882309F41FC1C23046
:1012D000FCE5DF0708F41BC1C6319CE5D90738F0EF
:1012E0009E012B5F3C452930310508F010C10E945A
:1012F000AA1A9093E1038093E003C031ECE5DE0786
:1013000009F4C3C008F041C0C8308CE5D80709F41F
:101310009AC0F0F4C430ECE5DE0709F487C068F445
:10132000C2308CE5D80709F477C0C330DC4509F03A
:10133000E3C08091E003826076C0C630ECE5DE0752
:1013400009F46EC008F07BC08091E00388606BC038
:10135000CC308CE5D80709F485C068F4CA30ECE5D8
:10136000DE0709F474C008F079C00E94E813809188
:10137000E003806858C0CE308CE5D80709F476C009
:1013800008F07FC08091E0038BC0CC3FECE5DE0726
:1013900009F44FC018F5C3318CE5D80709F47DC0B6
:1013A00078F4C131ECE5DE0709F473C0C231DC45E5
:1013B00009F0A2C00E94E8138091E0038F7733C048
:1013C000C5318CE5D80709F472C008F486C0CB3F5C
:1013D000DC4509F091C08091E1033EC0C115FDE5F7
:1013E000DF0709F45FC058F4CE3F9CE5D90709F444
:1013F00044C008F43FC08091E10382602DC0C23038
:10140000FDE5DF0709F475C008F45DC0C330DD45B4
:1014100009F072C080E06EC08091E003816003C07B
:101420008091E00380618093E00366C08091E003D7
:1014300011C08091E10382608093E1035DC08091DF
:10144000E0038062F0CF8091E0038064ECCF809174
:10145000E00388608460E7CF8160EECF8091E00395
:101460008E7FE1CF8091E0038D7FDDCF8091E0031F
:10147000877FD9CF8091E10318C08091E1038D7FF0
:10148000DBCF8091E0038F7ECECF8091E0038F7D14
:10149000CACF8091E0038F7BC6CF8091E003877F26
:1014A0008B7FC1CF8091E1038D7F8E7FC5CF8091EF
:1014B000E00382FB222720F991E0922790FB82F93A
:1014C00090FB83F9B0CF8091E103982F90959170B4
:1014D0008E7F892B90FB81F9AFCF0E94E81380911A
:1014E000E00387FB222720F991E0922790FB87F900
:1014F0009ACF81E00E94491B8091E0039091E10323
:101500000E94BB1A0E94E81380E001C081E0DF91D5
:10151000CF910895CF93DF9386319C4541F5EB0140
:101520000E94D919982F8A8120910F0230911002C0
:10153000882379F09A7A81E009F480E08093980218
:10154000911102C069E201C065E3C9010E94E41B78
:101550000AC080919802811102C069E201C065E36E
:10156000C9010E94EF1B0E942A1A80E001C081E09D
:10157000DF91CF91089508950F931F93CF93DF9339
:1015800080910303882309F451C0C0E0DCE080911E
:101590000303C81708F048C00C2F10E0D09FF001DB
:1015A000D19FF00D1124ED55FD4F90818181238154
:1015B0003481232B31F08F3F31F481E09F3F19F4C8
:1015C00003C081E001C080E080FD2CC0D09FD0012D
:1015D000D19FB00D1124AD55BD4F16968D919C91A4
:1015E0001797892B61F418968D919C9119978F3FCD
:1015F0002FEF920721F061E00E94BB0A0AC0208110
:1016000031814281538164817581868197810E94F5
:10161000BD16D09FF001D19FF00D1124ED55FD4F67
:1016200014821382CF5FB3CF10920303DF91CF9167
:101630001F910F9108951092050310920403409199
:101640000D0250910E02A0EDB1E020E030E096E0F6
:101650002417350799F0929FF001939FF00D112404
:10166000EC52FE4F808181FD05C08E7F80831596F0
:101670001C9215972F5F3F4F1696EACF0895BC0135
:101680004091A1028091A202942F981731F1292F45
:1016900030E0F901EE0FFF1FE756FD4F0190F0819A
:1016A000E02DE617F707A1F486E0869FF001879FFB
:1016B000F00D1124EC52FE4F8081816080839413E1
:1016C0000CC02F5F3F4F237033272093A102089552
:1016D0002F5F3F4F922F9370D8CF08955F926F92F4
:1016E0007F928F929F92AF92BF92CF92DF92EF92B2
:1016F000FF920F931F93CF93DF9350900303A3EABE
:10170000B2E020E030E0612C66E0689FA001699FB4
:10171000500D1124BA016C527E4F4B01FA01E05377
:10172000FE4F5F0161E070E0251508F062C0F40132
:10173000408140FD5AC01A96ED90FC901B97F50130
:10174000C080D1804FEF5FEF712C072D10E0F801C2
:10175000EE0FFF1FEC0DFD1DC591D491EC16FD069B
:1017600009F4A801CD2B11F07394EFCF4F3FFFEF99
:101770005F07D9F1FB0102C0EE0FFF1F4A95E2F7A8
:101780006E2AAB0102C0440F551F7A94E2F7415014
:101790005109E62DF0E04E175F0719F54CE0429F26
:1017A000F001439FF00D1124ED55FD4F46E0489F99
:1017B0009001499F300D1124D901A053BE4F1296BC
:1017C0004D915C911397578346834EEF408341833D
:1017D00091878087F901EC52FE4F2081226020839F
:1017E00008C014961C921E9213972F5F3F4F1C96B1
:1017F0009BCFDF91CF911F910F91FF90EF90DF90E2
:10180000CF90BF90AF909F908F907F906F905F90A0
:101810000C943F0B1F93CF93DF93C091A10216E06E
:101820008091A202C817A1F0D0E0FE01EE0FFF1FC9
:10183000E756FD4F80819181189FB001199F700D6F
:10184000112460537E4F0E946E0B2196C370E8CF27
:101850000E94BC0ADF91CF911F910C941B0BFF9249
:101860000F931F93CF93DF93DC010C911196FC90A3
:10187000119780E090E020E0E02FFF2DE20FF11DB6
:10188000E20FF11D4591549141155105B1F0FB0155
:101890001081318190E0E12FF32FE90FF11DE90F65
:1018A000F11DC591D491209731F04C175D0709F4D3
:1018B00081E09F5FF0CF2F5FDFCF882321F0921769
:1018C00028F0CD0104C080E090E001C0CB01DF91A1
:1018D000CF911F910F91FF90089580910C02882362
:1018E00041F18091060390910703009711F10E9446
:1018F000A61C209104033091050328173907C8F46A
:101900009091A1028091A202981759F00E940A0CAE
:10191000109205031092040310920703109206031D
:1019200008950E94BC0A10920703109206030C94BB
:101930001B0B0895109207031092060310920C02DD
:101940008091A2028093A1020C94BC0A80910C02A7
:1019500081110C949A0C81E080930C0208952F92CF
:101960003F924F925F926F927F928F929F92AF922F
:10197000BF92CF92DF92EF92FF920F931F93CF937C
:10198000DF93CDB7DEB72B970FB6F894DEBF0FBE4F
:10199000CDBF5C016B01883F2CE5920741F4FB0150
:1019A00012811123C9F081E080930C02B9C1893FF3
:1019B000FCE59F0739F4FB011281112369F00E94B5
:1019C0009A0CAEC18A3F9C4539F4FB011281112368
:1019D00019F00E94A60CA4C180910C02882309F47E
:1019E0009EC100ED11E0E12CF12C1B86882483942C
:1019F000912C9E012F5F3F4F3A87298780910D02DE
:101A000090910E02E816F90608F041C1F8014081F4
:101A1000518166246A94762C60E0262F30E0F9012B
:101A2000EE0FFF1FE40FF51F85919491A816B906DC
:101A300009F43901892B11F06F5FEFCFFFEF6F16BB
:101A40007F0609F418C126E02E9DF0012F9DF00DB0
:101A50001124EC52FE4F2081922F91705524539403
:101A60005926F6014280F8018581442009F490C08E
:101A700091118EC021FD13C0940101C0220F6A9400
:101A8000EAF7822B85838091040390910503C29726
:101A900030F422E330E030930503209304039401F3
:101AA00002C0220F331F6A95E2F721503109F80175
:101AB000858190E02817390709F0DFC0809106037F
:101AC00090910703009781F00E94A61CC39760F0D5
:101AD00026E02E9DF0012F9DF00D1124EC52FE4FBB
:101AE000808181608083CAC04090A10280E090E044
:101AF0002091A2024216B1F1642C712CF301EE0F79
:101B0000FF1FE756FD4F2081318146E0429FC00113
:101B1000439F900D1124FC01E053FE4F1F01B801BB
:101B2000CF010E942F0C0097B1F0FC0124812160AD
:101B300024838017910709F4A0C02091A1024212CA
:101B40000AC02816390639F493012F5F3F4F2370DE
:101B500033272093A10293012F5F3F4FF22FF370A1
:101B60004F2EC6CF8017910709F487C0642C712CC3
:101B7000F301EE0FFF1FE756FD4FF182E0822FEFDA
:101B8000621A720A33E0632277246092A20275C05F
:101B900046E04E9DF0014F9DF00D1124EC52FE4F9A
:101BA000208121FD15C0940102C0220F331F6A95C8
:101BB000E2F721503109482F50E02417350709F08A
:101BC0004EC0992309F44CC0C7010E943F0B47C087
:101BD00090E09C012150310928233923062C02C0B2
:101BE000959587950A94E2F7232BA9F580FF33C0DA
:101BF000F80182819381892BE1F0E985FA8528E05B
:101C000011922A95E9F73EEF39833A830E949A1C94
:101C10008160582F9D838C83F801828193818F830B
:101C2000988729813A814B816D817E810E94BD1602
:101C300004C060E0C7010E94BB0A26E02E9DF001AF
:101C40002F9DF00D1124EC52FE4F80818D7F8083FB
:101C50005524539405C0382F3170532E01C0512C98
:101C6000C40101C0880F6A94EAF78095F801958154
:101C70008923858302C0412C01C0452CFB85F429B2
:101C8000FB872FEFE21AF20A0A5F1F4FB7CEF60169
:101C90008281882379F1FB85FF2361F10E949A1CE0
:101CA000909307038093060380910303883098F58F
:101CB00091E0980F9093030398E0F601DE011196EE
:101CC00001900D929A95E1F72CE0829FC0011124BA
:101CD0008D559D4F28E0FE013196DC0101900D925B
:101CE0002A95E1F72FEF3FEFFC0131872087B3867C
:101CF000A28611C09091A1028091A202981719F0BA
:101D00000E940A0C08C00E94BC0A1092070310929D
:101D100006030E941B0B11E0FB851F2701C011E089
:101D2000812F2B960FB6F894DEBF0FBECDBFDF918B
:101D3000CF911F910F91FF90EF90DF90CF90BF90C8
:101D4000AF909F908F907F906F905F904F903F905B
:101D50002F90089590930D0380930C030895E091C4
:101D60000C03F0910D03309721F00190F081E02DEC
:101D7000099480E00895E0910C03F0910D033097F1
:101D800099F020912302222359F02091E00327FFAC
:101D900007C0DC012C9111962C93119725E02C9310
:101DA0000280F381E02D09940895E0910C03F091F5
:101DB0000D03309739F022E0DC012C930480F5818B
:101DC000E02D0994089520910A0330910B03281700
:101DD000390771F090930B0380930A03E0910C0391
:101DE000F0910D03309721F00680F781E02D0994E2
:101DF000089520910803309109032817390771F0DD
:101E00009093090380930803E0910C03F0910D0374
:101E1000309721F00084F185E02D0994089585B76D
:101E2000806885BF85B7806885BF089581E0089583
:101E30000C94160F08950C941A0F0C941A0F0C940E
:101E40001D0F0C941A0F0C94210F0C941A0F0E9462
:101E50000F0F0E94250F0C94230F0E94911C0E94CB
:101E600002060E94301D0E94EC060C941F0FAF92D8
:101E7000BF92CF92DF92EF92FF920F931F93CF9377
:101E8000DF93CDB7DEB72A970FB6F894DEBF0FBE4B
:101E9000CDBF0E941B0F0E941A0F0E9432060E94A3
:101EA000180F811111C08FEF89838A831B820E94D2
:101EB0009A1C8160782F9D838C8349815A816B8124
:101EC0008D810E94D50F40C08FE0A82E83E0B82EF0
:101ED00000E010E0C02E802F0E94D705E82EF5010B
:101EE000D1905F01D82631F40F5F1F4F05301105E7
:101EF00089F7D9CF8091A00381FD0E94DD0580E0A4
:101F0000FF24F3949D2D9F21D1F08E83CF82EF206B
:101F100081E009F480E088870E949A1C8160782F14
:101F20009A8789874E815F8168858A850E94D50F4F
:101F3000F801E15FFC4F8081F826F08205C08F5FD9
:101F4000FF0C8630F9F6D0CF0E9464080E94012071
:101F50000E94AF0E90910E038917B1F00E94AF0E50
:101F600080930E032A960FB6F894DEBF0FBECDBF46
:101F7000DF91CF911F910F91FF90EF90DF90CF9065
:101F8000BF90AF900C94B7032A960FB6F894DEBFBB
:101F90000FBECDBFDF91CF911F910F91FF90EF90BA
:101FA000DF90CF90BF90AF900895CF93DF93CDB7E0
:101FB000DEB72D970FB6F894DEBF0FBECDBF4987B1
:101FC0005A876B877C878D879E012F5F3F4F88E004
:101FD000F90111928A95E9F785E0FE013996D90158
:101FE00001900D928A95E1F789819A814C815D81FA
:101FF000452B31F09F3F31F491E08F3F19F403C03E
:1020000091E001C090E090FF0BC029813A814B81A3
:102010005C816D817E818F8198850E94BD1605C08F
:10202000C9010E9439038111F0CF2D960FB6F894A3
:10203000DEBF0FBECDBFDF91CF910895FC0180813F
:1020400091810E949A190895CF93882309F4A4C01E
:10205000C82F8238C1F40E94AF0E81FD9DC069E394
:1020600080910F02909110020E94E41B0E942A1A94
:102070002FEF81EE94E0215080409040E1F700C0C6
:10208000000069E319C0833801F50E94AF0E80FD9E
:1020900083C063E580910F02909110020E94E41BBF
:1020A0000E942A1A2FEF81EE94E021508040904048
:1020B000E1F700C0000063E580910F0290911002EB
:1020C0000E94EF1BCF910C942A1A8438C1F40E940D
:1020D000AF0E82FD61C067E480910F029091100203
:1020E0000E94E41B0E942A1A2FEF81EE94E02150F7
:1020F00080409040E1F700C0000067E4DDCF8CEF46
:102100008C0F813AD0F46C2F80910F0290911002C5
:102110000E94641B882349F06C2F80910F029091DC
:1021200010020E94EF1B0E942A1A6C2F80910F024E
:10213000909110020E94E41BC5CF80E28C0F883082
:1021400048F4C77081E001C0880FCA95EAF70E9481
:10215000DC19B8CFEBE5EC0FE33040F4F0E0E257E8
:10216000FD4F808190E0CF910C94E30EE8E5EC0FF9
:10217000E73150F4F0E0EE0FFF1FE05AFD4F808191
:102180009181CF910C94F90EC03F30F08C2F0E94BA
:10219000F61ECF910C94E31FCF910895882309F484
:1021A00064C0823879F40E94AF0E81FF5EC069E39B
:1021B00080910F02909110020E94E41B0E942A1A43
:1021C00069E310C08338B1F40E94AF0E80FF4DC0A8
:1021D00063E580910F02909110020E94E41B0E941F
:1021E0002A1A63E580910F02909110020E94EF1B62
:1021F0000C942A1A843879F40E94AF0E82FF35C0FD
:1022000067E480910F02909110020E94E41B0E94EB
:102210002A1A67E4E7CF9CEF980F913A10F4682FE1
:10222000E1CF90E2980F983050F4877091E001C0B0
:10223000990F8A95EAF7892F0E94E219D9CF9BE579
:10224000980F933020F480E090E00C94E30E98E532
:10225000980F973120F480E090E00C94F90E803FC5
:1022600020F00E945E1F0C94E31F0895CF93C82FA7
:102270000E942410C93349F42FEF87EE93E02150D8
:1022800080409040E1F700C000008C2FCF910C946B
:10229000CE10882321F00E94DC190C942A1A08958C
:1022A000882321F00E94E2190C942A1A0895CF92F3
:1022B000DF92EF92FF920F931F93CF93DF937C01F6
:1022C000062FC72FFC01158112951F70D281D111E5
:1022D0000E94FC190E94D219882399F0DD2389F00D
:1022E0008C2F807F803421F080E2800F883048F08E
:1022F00082E00E94741A0E94D21991E0D82ED92649
:1023000001C0D12CCC2EC2948FE0C8228C2D90E03D
:10231000FC01EA5AFF4F0C9448288C2F807FCF7025
:10232000882311F0C295C07FDD2399F0CC2309F4F6
:1023300087C180E2800F883010F0011104C08C2F1B
:102340000E94DC1903C08C2F0E94EF190E942A1AE8
:1023500077C1802F0E94CE10CC2309F496C180E271
:10236000800F883010F0011104C08C2F0E94E219F8
:1023700003C08C2F0E94F5190E942A1A86C18C2F47
:10238000807FCF70803211F0C295C07F002319F09A
:102390000130C9F025C0DD2371F0112341F0113067
:1023A00031F40E940F1A8C2B0E94171A6EC10E94E2
:1023B0000F1A8C2B0EC0112319F0113009F465C1CE
:1023C0000E94201A1FC0DD2339F0163008F05DC1CD
:1023D0008C2F0E94491159C1153008F056C112C006
:1023E000DD2319F01123A1F32BC1112359F0093377
:1023F00009F037C1FFEF27EE83E0F1502040804025
:10240000E1F72DC18C2F0E9450113FC18C2F869572
:102410008695837019F0813061F037C1DD2321F09A
:10242000802F9C2F937002C080E090E00E94E30E0A
:1024300034C1DD2321F0802F9C2F937002C080E0F7
:1024400090E00E94F90E29C1802FDD2319F00E942F
:10245000F61E02C00E945E1F0E94E31F1EC18C2F49
:10246000837009F045C0D11114C1402F42954695A3
:102470004770440F440F602F6F70862F90E0A0E0EC
:10248000B0E0042E04C0880F991FAA1FBB1F0A9436
:10249000D2F704FF10C00FE010E020E030E004C0ED
:1024A000000F111F221F331F4A95D2F70095109578
:1024B0002095309503C000E010E09801C695C695C0
:1024C000C370BC01CD01602B712B822B932BC230CA
:1024D00049F058F4C13019F00E941518DAC00E9472
:1024E0000318D7C00E942718D4C00E940118D1C079
:1024F000DD2319F08C2F817001C08695882309F4A3
:10250000C8C0402F429546954770440F440F602F36
:102510006F70862F90E0A0E0B0E0042E04C0880F1A
:10252000991FAA1FBB1F0A94D2F704FF10C00FE027
:1025300010E020E030E004C0000F111F221F331F05
:102540004A95D2F7009510952095309503C000E08C
:1025500010E09801C695C695C370BC01CD01602BF3
:10256000712B822B932BC23049F058F4C13019F0F3
:102570000E94DA188EC00E94C8188BC00E94EC1806
:1025800088C00E943B1885C0CF70DD2339F08C2FA6
:102590000E946118802F0E9449117BC0802F0E94E9
:1025A00050118C2F0E94821874C0023F01F128F450
:1025B000003F41F0013FA1F03FC0033FF9F0043F6D
:1025C00039F13AC0DD2341F0153008F05EC08C2FA0
:1025D0008F710E94A71859C0163008F056C0F7CF67
:1025E000DD2339F08C2F8F710E9461184EC0DD23DE
:1025F000C9F38C2F8F710E94821847C0DD2329F008
:102600008C2F8F710E944C1840C00E9447183DC00B
:10261000DD2349F0CF718C2F0E94611863E08C2F6D
:102620000E945F1A32C081E00E94741A123068F171
:1026300082E00E94741A29C0DD2331F0112391F247
:10264000802F0E94241021C0112399F2093349F4EC
:102650009FEFE7EEF3E09150E040F040E1F700C07B
:102660000000802F0E94CE1010C04C2F4F70602FA2
:10267000C7010E94C0030E9472170FC04C2F4F70F9
:10268000602FC7010E94C30308C088EF8C0D8430FF
:1026900020F40E94AF0E0E94B703DD20C9F00E9413
:1026A000CE1980FD15C0F70112820E94C8190E9440
:1026B0006118C7010E9490130E94C819DF91CF9141
:1026C0001F910F91FF90EF90DF90CF900C948218A4
:1026D000DF91CF911F910F91FF90EF90DF90CF90FE
:1026E00008950F931F93CF93DF93EC018E819F8109
:1026F000009719F00E94DF0305C0688179818A8103
:102700000E94A5198C010E94FE180E94EF17B801C3
:10271000CE010E945711DF91CF911F910F91089523
:10272000CF93DF93EC01988189812B813C81232B0E
:1027300031F08F3F31F481E09F3F19F403C081E015
:1027400001C080E080FD19C0CE010E946D0381119F
:102750000CC00E94D219882381F08A81882369F0F5
:1027600082E0DF91CF910C94741ACE010E94711314
:10277000CE01DF91CF910C944403DF91CF91089566
:10278000882321F00E94EF190C942A1A08958823B7
:1027900021F00E94F5190C942A1A08950E94FC1940
:1027A0000E940C1A0E942A1A0E9414210E94E31F00
:1027B00080E090E00E94E30E80E090E00C94F90E3F
:1027C00080910F02909110020E94FA1B0C94CE137C
:1027D0000E94EC190C94E013E92FE295EF704E2F54
:1027E00050E0FA013297EE30F105B0F4EA59FF4FAC
:1027F0000C944828803F91F018F4883E68F40EC08D
:10280000843F51F40BC0883E48F0813F29F406C054
:1028100093FB882780F9089580E0089581E008956A
:10282000FC0186819781009719F00E94DF0304C0A4
:10283000808191810E949A190E94EC130895CF9390
:10284000DF9300D000D01F92CDB7DEB70F900F906E
:102850000F900F900F90DF91CF910895CF93DF935A
:10286000CDB7DEB728970FB6F894DEBF0FBECDBF49
:1028700028960FB6F894DEBF0FBECDBFDF91CF9183
:102880000895CF93DF93C091150380911603C81765
:10289000B1F0D0E0FE0183E0EE0FFF1F8A95E1F773
:1028A000E95EFC4F208131814281538164817581D1
:1028B000868197810E942E142196C770E6CFDF9102
:1028C000CF910895209157033091580340915903B7
:1028D00050915A0360915B0370915C0380915D039A
:1028E00090915E030C942E141F93CF93DF938091ED
:1028F0005C0382958F7009F05CC080915903882336
:1029000009F457C080911503109116036091570385
:1029100070915803C0915A03D0915B0391E06F3FCF
:1029200009F090E0292F811709F443C0209721F086
:102930007F3F21F030E003C031E001C0322F90E052
:1029400030FD34C0FC0133E0EE0FFF1F3A95E1F794
:10295000DF01A95EBC4F11963C911197371326C039
:102960003C91361323C012963C91129731111EC030
:1029700013964D915C9114974C1B5D0B483C51058F
:10298000A8F480915C038F70806180935C03E45EA7
:10299000FC4F80818F708061808387E593E00E9487
:1029A0009013DF91CF911F910C9441140196877081
:1029B000BACFDF91CF911F9108959F92AF92BF92AE
:1029C000CF92DF92EF92FF920F931F93CF93DF93FB
:1029D000CDB7DEB765970FB6F894DEBF0FBECDBF9B
:1029E0008C0185E0F801DE01519601900D928A95E7
:1029F000E1F7F801E280909157036091580320912C
:102A00005A0330915B032115310531F06F3F31F4EA
:102A100081E09F3F19F403C081E001C080E0F82FFE
:102A2000F1709F2E80FD56C1F80140815181A38035
:102A3000B48077E5C72E73E0D72EF0905903F501E7
:102A4000E21BF30BFF2009F40DC180915C03E83C0D
:102A5000F10508F0BAC0282F207F09F05CC056139A
:102A60001DC049131BC060915D0370915E03F801A6
:102A7000268137816217730789F4FE2CE1100EC09E
:102A80008F70806180935C030E946214C6010E9473
:102A9000901380915C03F801858359C1AB2831F014
:102AA0005F3F31F481E04F3F19F403C081E001C082
:102AB00080E080FD03C081E08E2502C080E090E0D0
:102AC000F82FF170FF2E80FF1CC08091150320911C
:102AD0001603821709F419C190E0FC0133E0EE0FF0
:102AE000FF1F3A95E1F7E95EFC4F3181531306C0B1
:102AF0003081431303C03281E31203C00196877013
:102B0000E8CFFE2CEE2009F422C180915C038160A5
:102B100080935C036FC056131BC0491319C04091CA
:102B20005D0350915E03F8012681378142175307F8
:102B300079F4E1100DC08583C8010E94901388E0EC
:102B4000F801A7E5B3E001900D928A95E1F7DAC0AC
:102B5000C8010E941014882391F1EE2081F1209188
:102B60005C03822F82958F7090E00297A4F0809191
:102B70005703909158039A8789871B86BD86AC8638
:102B80002E8780915D0390915E03988B8F87CE0195
:102B900009960E94901388E0F801A7E5B3E0019040
:102BA0000D928A95E1F70E9474140E9462140AC083
:102BB000561711F1C8010E941014811135C0C801C7
:102BC0000E949013FF24F394C2C0282F207F81F726
:102BD0007A2DBD8AAC8A6E2D8D890E941F1487E5DF
:102BE00093E00E94901388E0F60111928A95E9F72C
:102BF0000E946214F12CABC04913DCCF40915D03FD
:102C000050915E03F801268137814217530791F6F0
:102C1000E110D0CF8583C8010E94901388E0F601AF
:102C200011928A95E9F793C0EE2049F220915C0356
:102C3000822F82958F7090E002970CF4ACCF809138
:102C40005703909158039A8389831B82BD82AC827B
:102C50002E8380915D0390915E0398878F83CE01D0
:102C6000019697CFE83CF10540F5FE2CEE2009F4E3
:102C7000A6CF561314C0491312C020915D033091A2
:102C80005E03F801868197812817390741F488E0AF
:102C9000A7E5B3E001900D928A95E1F758C0C8010D
:102CA0000E941014811177CF80915C038160809322
:102CB0005C03C8010E9490134AC07A2DBD8AAC8A79
:102CC0006E2D8D890E941F1488E0F60111928A955D
:102CD000E9F718C0EE2009F472CFC8010E94101461
:102CE000F82E882309F46BCF88E0F801A7E5B3E05C
:102CF00001900D928A95E1F787E593E00E941E10FE
:102D00000E9474140E94621422C0498B5A8B8989D4
:102D10009A890E949A19292F22952F70223028F41F
:102D20009F7039F0811105C00BC0243028F49F70CA
:102D300049F4805E883020F0C8010E9490139F2CD7
:102D4000F92C05C0F8019581907F99F7F9CF8F2D67
:102D500065960FB6F894DEBF0FBECDBFDF91CF9161
:102D60001F910F91FF90EF90DF90CF90BF90AF90A9
:102D70009F90089588EC90E00895CF93DF93CDB7AE
:102D8000DEB760970FB6F894DEBF0FBECDBF2987C0
:102D90003A874B875C876D877E878F87988BCE01BC
:102DA00009960E94DD148823E1F099858A852C8597
:102DB0003D85232B31F08F3F31F481E09F3F19F4A3
:102DC00003C081E001C080E080FD6FC029853A85A5
:102DD0004B855C856D857E858F8598890E942E1434
:102DE00064C088E0FE013996DE01119601900D92D3
:102DF0008A95E1F779856A854C855D854115510590
:102E000031F06F3F31F481E07F3F19F403C081E07E
:102E100001C080E080FD49C0A0911603B0E0CD0163
:102E20000196877099272091150330E08217930748
:102E300009F442C079836A835D834C8393E0AA0FCF
:102E4000BB1F9A95E1F7A95EBC4F98E0FE01319651
:102E500001900D929A95E1F7809316030E94411418
:102E600024C028E0829FC0011124895E9C4F0E94EB
:102E7000DD14882371F1E091150388E0E89FF001EB
:102E80001124E95EFC4F20813181428153816481AC
:102E90007581868197810E942E148091150390E0A0
:102EA000019687709927809315038091150390915F
:102EB00016038913D6CF0DC00E94E8131092160393
:102EC00010921503E7E5F3E088E0DF011D928A9593
:102ED000E9F760960FB6F894DEBF0FBECDBFDF9165
:102EE000CF910895EF92FF920F931F93CF93DF93AB
:102EF0008C01892B09F46CC0F12CEE24E394E801D9
:102F00002196F8018491843740F4843008F051C050
:102F1000813081F0823019F15BC0853709F444C0FB
:102F2000A8F19CE7980F903708F052C08F770E9465
:102F3000CE1041C00E5F1F4FFE01849190E2980FAA
:102F4000983050F48770FE2D01C0FF0F8A95EAF784
:102F50008F2F0E94FF1914C00E9424102DC00E5FF5
:102F60001F4FFE01849190E2980F983060F48770B3
:102F7000FE2D01C0FF0F8A95EAF78F2F0E94051AD8
:102F80000E942A1A19C00E94CE1016C00E5F1F4F51
:102F9000FE01C491CC2381F08FE99FE00197F1F706
:102FA00000C00000C150F6CF0E5F1F4FFE01F4902D
:102FB00003C00E9424108E018F2D882309F49FCF17
:102FC000EFE9FFE03197F1F700C000008150F5CF45
:102FD000DF91CF911F910F91FF90EF900895089589
:102FE00008950C94F0170C94F1170E94F317609356
:102FF0007703709378038093790390937A030C940A
:10300000CE130C94F5170F931F9300917703109133
:1030100078032091790330917A03602B712B822BF6
:10302000932B1F910F910C94F5170F931F93009101
:103030007703109178032091790330917A0360230C
:103040007123822393231F910F910C94F5170F93F3
:103050001F930091770310917803209179033091A9
:103060007A0360277127822793271F910F910C9471
:10307000F5170C94F0170E9439186093730370933E
:10308000740380937503909376030C94CE1360E0E1
:1030900070E0CB010C943B180F931F9341E050E07C
:1030A00060E070E08A019B0104C0000F111F221F25
:1030B000331F8A95D2F7C901B8011F910F910C9463
:1030C0003B180F931F9341E050E060E070E004C0B4
:1030D000440F551F661F771F8A95D2F7809173039F
:1030E00090917403A0917503B09176038A019B01BE
:1030F000082B192B2A2B3B2BC901B8011F910F91CB
:103100000C943B180F931F9341E050E060E070E097
:1031100004C0440F551F661F771F8A95D2F740954C
:103120005095609570958091730390917403A09170
:103130007503B09176038A019B01082319232A2382
:103140003B23C901B8011F910F910C943B180F93B9
:103150001F9341E050E060E070E004C0440F551F51
:10316000661F771F8A95D2F780917303909174033D
:10317000A0917503B09176038A019B010827192756
:103180002A273B27C901B8011F910F910C943B18C6
:103190000F931F9300917303109174032091750393
:1031A00030917603602B712B822B932B1F910F9103
:1031B0000C943B180F931F930091730310917403A9
:1031C000209175033091760360237123822393232A
:1031D0001F910F910C943B180F931F930091730351
:1031E0001091740320917503309176036027712745
:1031F000822793271F910F910C943B180895292F34
:10320000220F920F990F890FE82FE695E695E69524
:10321000877051E001C0550F8A95EAF785E0E89F75
:10322000F0011124E15AFC4F20E030E070E04081D1
:10323000CB01022E02C0969587950A94E2F7817021
:10324000819584278523842781932F5F3F4F2530E5
:10325000310569F70895292F220F920F990F890FD1
:10326000682F669566956695982F977085E0689F9C
:10327000B001112440E050E080E0FB01E40FF51FB5
:10328000E15AFC4F208130E0092E02C03695279587
:103290000A94E2F721703327042E01C0220F0A940A
:1032A000EAF7822B4F5F5F4F4530510531F70895A4
:1032B000BF92CF92DF92EF92FF920F931F93CF9323
:1032C000DF938C01C0907303D0907403E09075037A
:1032D000F09076038091770390917803A091790321
:1032E000B0917A03C82AD92AEA2AFB2ACFE1D0E092
:1032F000D701C6010C2E04C0B695A7959795879562
:103300000A94D2F780FD04C0219790F7B12C07C032
:10331000BC2EB8018C2F0E94FB040197A9F38B2DC2
:10332000DF91CF911F910F91FF90EF90DF90CF90A1
:10333000BF900895CF93DF93EC010E945819BE010E
:103340000E94FB04DF91CF9108951F93CF93DF93E9
:10335000EB0190911403992321F0CB010E949A195B
:1033600013C0882349F0CB010E945819182F682FE9
:10337000CE010E94FF1804C0CB010E942B19182F08
:10338000BE01812F0E94FB04DF91CF911F91089510
:1033900080917B03859585958595089580917B0324
:1033A0008770089590917B03977081E009F480E025
:1033B000089580919F03089590919F03892B809396
:1033C0009F030895809590919F03892380939F0385
:1033D000089580939F03089510929F0308959091FC
:1033E0009E03892B80939E030895809590919E0360
:1033F000892380939E03089510929E0308959091CF
:103400009D03892B80939D030895809590919D0342
:10341000892380939D03089510929D0308958091C0
:103420007C03089508950C94121A0C94131A909129
:103430007C03981721F080937C030C94151A08954F
:1034400080917C03882329F010927C0380E00C9407
:10345000151A0895E0910F02F091100280919F03D8
:103460008083E0910F02F0911002908180919E0381
:10347000892B8083E0910F02F0911002908180915E
:103480009D03892B808380917C03882381F0E091C8
:103490000F02F09110029081892B808380910F029E
:1034A000909110020E944E1B81110E94201A80915F
:1034B0000F02909110020C94BB0E0C94121A98E01B
:1034C000899F90011124262B20937B030E94611871
:1034D00080917B038595859585950C945D1A109256
:1034E0007B0380E00C945D1A20917B0380958223FE
:1034F00080937B03982F977079F430E0482F082E43
:10350000000C550B2417350739F085958595859561
:103510000E9482180C946F1A089580E090E00E9437
:10352000702821E08C3E9E4F09F020E0822F089504
:1035300082E090E00C946828682F82E090E00C9480
:10354000762883E090E00C946828682F83E090E070
:103550000C947628CF9384E090E00E946828C82FCE
:1035600081E290E00E9468282C2F30E0A901582BBE
:10357000CA01CF910895CF93C92F682F84E090E0BE
:103580000E9476286C2F81E290E0CF910C947628EF
:1035900086E090E00C946828682F86E090E00C9418
:1035A0007628AB01BC018FE090E00C948828AB0139
:1035B000BC0183E190E00C94882860E070E0CB01CE
:1035C0000C94D71A60E070E0CB010E94D11A0C94E1
:1035D000DD1A6CEE7EEF80E090E00E94942860E0BF
:1035E00082E090E00E94762860E083E090E00E9414
:1035F0007628109277031092780310927903109234
:103600007A0360E084E090E00E94762860E081E246
:1036100090E00E94762860E085E090E00E947628A5
:1036200060E086E090E00E9476286FEF87E090E00F
:103630000E94762840E050E0BA0188E090E00E94C5
:10364000882860E08DE090E00E94762840E050E01D
:10365000BA0188E190E00E94882860E087E190E06C
:103660000E94762840E050E0BA018CE190E00E9490
:10367000882860E080E290E00E94762840E050E0F8
:10368000BA0188E190E00E9488280C94E21A0C9418
:10369000E91A682F8EE090E00C947628FC013296AF
:1036A00080912302882331F08091E00387FF02C0DC
:1036B0009EE101C096E080E0915028F02191222304
:1036C000D9F38F5FF9CF0895662351F1209123023A
:1036D0002223E9F02091E00327FF19C0462F4695E9
:1036E000469546954E31E0F4677021E030E002C027
:1036F000220F331F6A95E2F7FC01E40FF11D82816E
:1037000090E02823392381E0232B69F409C0FC01D0
:10371000329608962191621729F0E817F907D1F738
:1037200080E0089581E008959C01FC0132969FEFAE
:1037300080E04191461789F09F3F19F4411101C083
:10374000982F8F5F8630A9F79F3F39F0F901E90F75
:10375000F11D97FDFA956283089508959C012A5FF3
:103760003F4FFC014281461301C01282019682172D
:103770009307B9F70895262F2695269526952E317D
:1037800068F4FC01E20FF11D677021E030E001C038
:10379000220F6A95EAF78281282B22830895262F2B
:1037A0002695269526952E3170F4FC01E20FF11D29
:1037B000677021E030E001C0220F6A95EAF720959A
:1037C000828128232283089520912302222329F035
:1037D0002091E00327FD0C94BB1B0C94941B2091BB
:1037E0002302222329F02091E00327FD0C94CF1B14
:1037F0000C94AE1B20912302FC013296222331F05F
:103800008091E00387FF02C08EE101C086E0DF0106
:103810001D928A95E9F7089508950C940C1C0C9458
:103820000C1CCF930E940F1C0E9432060E940D1C9C
:10383000C0E08C2F0E94D705811104C0CF5FC53036
:10384000C1F701C081E0CF9108950C940C1C0C9439
:10385000251C0E94271C8091E603843061F11092A0
:10386000A10320E488E190E00FB6F894A895809336
:1038700060000FBE2093600080E00E94FB0780E0A4
:103880000E94B7030E94271C83B7817F846083BF97
:1038900083B7816083BF7894889583B78E7F83BF19
:1038A0000FB6F894A89580916000886180936000BD
:1038B000109260000FBE08950C940C1C0E94E81337
:1038C0000E94EC060E94AF0E0E94B7030C945C1C91
:1038D0001F920F920FB60F9211248F939F93AF9365
:1038E000BF938091A103811113C08091DC0390915B
:1038F000DD03A091DE03B091DF034196A11DB11D50
:103900008093DC039093DD03A093DE03B093DF0389
:10391000BF91AF919F918F910F900FBE0F901F900D
:10392000189582E084BD93E095BD9AEF97BD809392
:103930006E0008952FB7F8948091DC039091DD0319
:10394000A091DE03B091DF032FBF08959C014FB714
:10395000F8948091DC039091DD03A091DE03B09197
:10396000DF034FBF821B930B089578941F920F9231
:103970000FB60F9211248F939F93AF93BF938091B3
:10398000DC039091DD03A091DE03B091DF0301968B
:10399000A11DB11D8093DC039093DD03A093DE0392
:1039A000B093DF03BF91AF919F918F910F900FBEA6
:1039B0000F901F90189587E797E7909301088093E1
:1039C00000089AE088E10FB6F894A895809360000B
:1039D0000FBE90936000FFCFCF92DF92EF92FF92E5
:1039E0000F931F93CF93C0E0E82EF12C8C2F0E94F1
:1039F000D70500E010E0C82ED12CC601002E02C071
:103A0000959587950A94E2F780FD06C00F5F1F4FDA
:103A10000630110591F70AC0602F7C2F80E00E94CC
:103A2000C403E816F90691F781E004C0CF5FC53002
:103A3000E9F680E0CF911F910F91FF90EF90DF901A
:103A4000CF900895CF93C82F8CE20E94EC1C88235E
:103A500021F08C2FCF910C94EC1C80E0CF91089535
:103A6000CF930E948D1A811102C00E94471BC5E6A8
:103A7000C15049F00E9432068FE39CE90197F1F7AB
:103A800000C00000F5CF89E20E94221D81112AC1E9
:103A90008AE20E94221D81110E94471B85E00E943C
:103AA000221D81110E94DB1C0E94981A8093A003A2
:103AB00087E00E94221D8823A9F18BE10E94221D2C
:103AC000882351F08091A00381FB222720F991E007
:103AD000922790FB81F90EC08EE00E94221D882360
:103AE00061F08091A00382FB222720F991E09227C8
:103AF00090FB82F98093A00315C080E10E94221DF3
:103B00009091A003882341F093FB222720F981E0C4
:103B1000822780FB93F904C0892F809580FB90F960
:103B20009093A0038091A0030E949C1A0E94AA1A5D
:103B30009093E1038093E00380EE0E94221D88238E
:103B400041F08091E003982F909590FB80F980934D
:103B5000E00389E30E94221D882359F08091E0034D
:103B600081FB222720F991E0922790FB81F9809335
:103B7000E00382EE0E94221D882359F08091E00329
:103B800082FB222720F991E0922790FB82F9809313
:103B9000E00386EE0E94221D882359F08091E00305
:103BA00083FB222720F991E0922790FB83F98093F1
:103BB000E00383EE0E94221D882359F08091E003E8
:103BC00084FB222720F991E0922790FB84F98093CF
:103BD000E00385E30E94221D882359F08091E003D1
:103BE00085FB222720F991E0922790FB85F98093AD
:103BF000E00381E30E94221D882359F08091E003B5
:103C000086FB222720F991E0922790FB86F980938A
:103C1000E00381E10E94221D882359F08091E00396
:103C200087FB222720F991E0922790FB87F9809368
:103C3000E0038091E0039091E1030E94BB1A87E2C8
:103C40000E94221DC82F8EE10E94221D8111C26098
:103C50008FE10E94221D8111C46080E20E94221D1A
:103C60008111C86081E20E94221D8111C06182E23F
:103C70000E94221D8111C06283E20E94221D8111D7
:103C8000C06484E20E94221D882311F0C06802C033
:103C9000CC2329F08C2F0E94A51A6C2F03C00E9400
:103CA000A11A682F70E080E090E00E9401186091F6
:103CB00073037091740380917503909176030E9451
:103CC00039188FE00E94221D882319F081E00E949C
:103CD000491B85E10E94221D882321F080E0CF91BD
:103CE0000C94491BCF9108958091A80380FF0BC0CD
:103CF0006091160285E0689FB00111247595679563
:103D0000759567952BC081FF09C06091160285E00B
:103D1000689FB00111247595679520C082FF07C088
:103D20006091160285E0689FB001112417C0909140
:103D3000A7039923D1F060911502961788F7209177
:103D4000160285E0289F90011124929FA001939F65
:103D5000500D112470E0CA010E94122860387105CC
:103D600040F46115710519F406C065E070E0862F16
:103D700008958FE7089581E008958091A80380FF5A
:103D800008C06091120270E075956795759567950A
:103D900021C081FF06C06091120270E075956795A1
:103DA00019C082FF04C06091120270E010C09091AF
:103DB000A603992399F0609111029617A0F78091BC
:103DC0001202899FC001112470E00E9412286038FD
:103DD000710540F46115710519F406C061E070E0E9
:103DE000862F08958FE7089581E00895803F21F49C
:103DF0000E94741E819504C0813F29F40E94741EA4
:103E00008093AC030895823F21F40E94741E819533
:103E100004C0833F29F40E94741E8093AB0308956D
:103E2000893F19F40E94BD1E05C08A3F31F40E94EB
:103E3000BD1E81958093AD0308958B3F21F40E94B0
:103E4000BD1E819504C08C3F29F40E94BD1E809345
:103E5000AE030895843F21F48091AA03816017C0C6
:103E6000853F21F48091AA03826011C0863F21F42E
:103E70008091AA0384600BC0873F21F48091AA033C
:103E8000886005C0883F31F48091AA0380618093E7
:103E9000AA0308958D3F21F48091A80381600BC08F
:103EA0008E3F21F48091A803826005C08F3F29F4E2
:103EB0008091A80384608093A8030895803F39F41B
:103EC0008091AC0387FF6AC01092AC0367C0813F4A
:103ED00029F48091AC031816BCF360C09091AB0339
:103EE000823F29F497FF5AC01092AB0357C0833F1B
:103EF00019F41916CCF352C09091AD03893F31F4F7
:103F000019160CF04BC01092AD0348C08A3F19F44B
:103F100097FF44C0F8CF8B3F39F48091AE0387FF01
:103F20003DC01092AE033AC08C3F29F48091AE039D
:103F30001816BCF333C0843F21F48091AA038E7F0E
:103F400017C0853F21F48091AA038D7F11C0863F61
:103F500021F48091AA038B7F0BC0873F21F48091CD
:103F6000AA03877F05C0883F31F48091AA038F7E22
:103F70008093AA0313C08D3F21F48091A8038E7F04
:103F80000BC08E3F21F48091A8038D7F05C08F3F29
:103F900029F48091A8038B7F8093A8038091AB03C1
:103FA000811106C08091AC03811102C01092A70359
:103FB0008091AD03811106C08091AE03811102C0D2
:103FC0001092A60308950E949A1C2091AB03211120
:103FD00004C02091AC03222321F09093A503809389
:103FE000A4032091AD03211104C02091AE0322232C
:103FF00021F09093A3038093A20389EA93E00C94A9
:10400000D50EEF92FF920F931F93CF93DF9300D0C3
:1040100000D000D0CDB7DEB786E0E9EAF3E0DE01FC
:10402000119601900D928A95E1F7E090AB03F09024
:10403000AC030091AD031091AE031092AB0310924C
:10404000AC031092AD031092AE03E11003C0FF2049
:1040500009F45DC08091A4039091A5030E94A61C61
:10406000AC019091A703992339F02091170230E019
:104070002417350758F04BC0209118028AE0289F7A
:10408000900111242417350718F041C09F3F19F003
:104090009F5F9093A703EE2061F00E94741E1E1490
:1040A00014F09FEF01C091E0989F902D1124909300
:1040B000AB03FF2061F00E94741E1F1414F09FEFE9
:1040C00001C091E0989F902D11249093AC03309102
:1040D000AB033323E1F02091AC032223C1F045EB85
:1040E0003403C0011124992319F09093AB0303C04A
:1040F00081E08093AB0335EB2303C00111249923A6
:1041000019F09093AC0303C081E08093AC030111DC
:1041100003C0112309F45DC08091A2039091A30311
:104120000E94A61CAC019091A603992339F020911E
:10413000130230E02417350758F04BC020911402C9
:104140008AE0289F900111242417350718F041C0F8
:104150009F3F19F09F5F9093A603002361F00E9498
:10416000BD1E101614F09FEF01C091E0989F902D96
:1041700011249093AD03112361F00E94BD1E11160E
:1041800014F09FEF01C091E0989F902D112490931F
:10419000AE033091AD033323E1F02091AE0322232F
:1041A000C1F045EB3403C0011124992319F0909319
:1041B000AD0303C081E08093AD0335EB2303C00161
:1041C0001124992319F09093AE0303C081E08093EA
:1041D000AE038091AB0381110BC08091AC038111C0
:1041E00007C08091AD03811103C08091AE0381119E
:1041F0000E94E31FEB82FC820D831E8386E0FE019A
:104200003196A9EAB3E001900D928A95E1F72696DE
:104210000FB6F894DEBF0FBECDBFDF91CF911F91D7
:104220000F91FF90EF900895E9EAF3E086E0DF0157
:104230001D928A95E9F71092A7031092A603109297
:10424000A80308958091CF030895CF93DF9300D002
:104250001F92CDB7DEB79091E603943019F58983AC
:104260007B836A8382E08093E9008FEF9091E8007E
:10427000815095FD06C095ED9A95F1F700008111EA
:10428000F5CF8091E80085FF0DC040E050E063E08D
:1042900070E0CE0101960E9450238091E8008E7755
:1042A0008093E8000F900F900F90DF91CF910895C9
:1042B000BC0184E00C942521BC0183E00C942521F1
:1042C00022E02093E9002FEF3091E800215035FDE6
:1042D00006C035ED3A95F1F700002111F5CF209198
:1042E000E80025FF0BC040E050E066E070E00E946F
:1042F00050238091E8008E778093E8000895CF9353
:10430000DF9320912302222339F02091E00327FF3D
:1043100003C060E222E002C068E021E02093E900EF
:104320002FEF3091E800215035FD06C035ED3A956C
:10433000F1F700002111F5CF2091E80025FF1DC005
:10434000EC0180912302811105C040E050E068E05B
:1043500070E003C070E040E050E0CE010E945023C6
:104360008091E8008E778093E80080E2FE01AFEA5A
:10437000B3E001900D928A95E1F7DF91CF91089516
:104380008091E503811109C00E94E1240E943E252D
:104390008091E20084608093E20008951092E5032A
:1043A0000895089508950C945E1C42E061EC81E04C
:1043B0000E945A2442E261EC82E00C945A248091DB
:1043C000E803833009F460C030F4813071F082304A
:1043D00009F499C008958A3009F485C08B3009F436
:1043E0006BC0893009F0A7C020C08091E703813AF3
:1043F00009F0A1C08091E800877F8093E800809158
:10440000EB039091EC03892B21F460E28FEA93E0B7
:1044100003C060E080E090E070E00E949B23809108
:10442000E8008B778093E80008958091E70381325C
:1044300009F081C08091EB039091EC03029708F0A2
:104440007AC08091E800877F8093E8008091E8003F
:1044500082FD05C08091E6038111F8CF6CC02091E8
:10446000F3008091F20090E0922B029729F4809162
:10447000F1008B7F813021F48091F1008093CF0394
:104480008091E8008B7753C08091E703813A09F06F
:1044900052C08091EB039091EC03892B09F04BC043
:1044A0008091E800877F8093E8008091E80080FF9A
:1044B000FCCF8091230236C08091E7038132D9F589
:1044C0008091EB039091EC03892BA9F58091E80092
:1044D000877F8093E8000E948F248091E903809376
:1044E00023020C94E8138091E703813221F5809137
:1044F000E800877F8093E8000E948F248091EA0380
:104500008093D00308958091E703813AA1F48091CC
:10451000E800877F8093E8008091E80080FFFCCF6F
:104520008091D0038093F1008091E8008E77809392
:10453000E8000C948F24089584B7877F84BF0FB65A
:10454000F894A89580916000886180936000109233
:1045500060000FBE90E080E80FB6F8948093610091
:10456000909361000FBE0E94270F0E94E1240E94D9
:104570003E258091E20084608093E20078940E945E
:10458000D3270E942D0F89E192E00E94AA0E80910C
:10459000E603853069F40E94291C8091E403882396
:1045A000B1F30E94111C882391F30E943A23EFCFAC
:1045B0000E94370F0E941B0F0E941A0FE8CF0C9425
:1045C000E122292F332723303105C9F060F421304F
:1045D000310581F02230310509F044C08BE390E0D1
:1045E00020E632E043C021323105E1F022323105CC
:1045F00049F138C082E190E02BE932E037C09927D9
:104600008130910549F028F0029761F5E8E2F2E087
:1046100005C0ECE5F2E002C0EAE3F2E0849190E04C
:104620009F0124C06115710541F061307105D1F41D
:1046300089E090E02BE832E019C089E090E022E7C1
:1046400032E014C06115710541F06130710551F41B
:104650008CEB90E02DEA32E009C080E490E029E69E
:1046600033E004C080E090E020E030E0FA013183E4
:104670002083089580E189BD82E189BD09B400FEEF
:10468000FDCF8091D8008F7D8093D8008091E0008D
:1046900082608093E0008091E00081FDFCCF08956E
:1046A000CF92DF92EF92FF920F931F93CF93DF93FE
:1046B000EC018B017A010E94AE24811133C0E11418
:1046C000F10439F0F70180819181081B190BC80FA3
:1046D000D91FC12CD12C0115110519F18091E800C9
:1046E00085FD16C08091E8008E778093E800E11484
:1046F000F10449F0F70180819181C80ED91ED18261
:10470000C08285E00FC00E94AE24882321F30AC036
:1047100089918093F10001501109FFEFCF1ADF0A50
:10472000DACF80E0DF91CF911F910F91FF90EF9052
:10473000DF90CF9008952091ED033091EE0326177E
:10474000370748F06115710539F42091E8002E779C
:104750002093E80001C0B901FC0120E0611571055A
:1047600079F18091E6038823F1F18530F1F18091B0
:10477000E80083FD3CC08091E80082FD2EC080915E
:10478000E80080FFEBCF2091F3008091F20090E0F1
:10479000922B6115710551F08830910538F4219103
:1047A0002093F100615071090196F3CF21E0089741
:1047B00009F020E08091E8008E778093E800CECF6A
:1047C0002111CFCF0AC08091E603882361F08530A4
:1047D00061F08091E80083FD0AC08091E80082FFCB
:1047E000F2CF80E0089582E0089583E0089581E0AB
:1047F00008952091ED033091EE032617370748F016
:104800006115710539F42091E8002E772093E800B6
:1048100001C0B901FC0120E06115710591F18091A1
:10482000E603882309F440C0853009F43FC0809135
:10483000E80083FD3DC08091E80082FD2FC080919B
:10484000E80080FFE9CF2091F3008091F20090E032
:10485000922B6115710559F08830910540F424912F
:104860002093F1003196615071090196F2CF21E059
:10487000089709F020E08091E8008E778093E800A7
:10488000CBCF2111CCCF0AC08091E603882361F001
:10489000853061F08091E80083FD0AC08091E800D6
:1048A00082FFF2CF80E0089582E0089583E00895CA
:1048B00081E00895982F973068F59093E900981754
:1048C00039F07091EC002091ED005091F00003C0A0
:1048D000242F762F50E021FD02C09F5FECCF309156
:1048E000EB003E7F3093EB003091ED003D7F309345
:1048F000ED003091EB0031603093EB007093EC00F1
:104900002093ED005093F0002091EE0027FDE5CFBD
:1049100080E008958F708093E90081E00895809190
:10492000E70387FF11C08091E80082FD05C08091F8
:10493000E6038111F8CF11C08091E8008B770BC09E
:104940008091E603882349F08091E80080FFF8CF4A
:104950008091E8008E778093E80008952091E4002C
:104960003091E50095E64091EC00842F817040FF86
:1049700023C08091E80080FD1DC08091E60388235C
:1049800099F0853099F08091EB0085FD11C0409140
:10499000E4005091E5002417350729F3915011F0F8
:1049A0009A01E1CF84E0089582E0089583E00895BC
:1049B00081E0089580E008954091E80042FFDDCF56
:1049C00008950E944F250E945725E0EEF0E0808177
:1049D00081608083E8EDF0E080818F77808319BC6F
:1049E000A7EDB0E08C918E7F8C9380818F7E808349
:1049F0001092E50308950F931F93CF93DF930E94C6
:104A00004F250E945725C8EDD0E088818F77888395
:104A100088818068888388818F7D888319BC109203
:104A2000E6031092E2031092E4031092E30300EE17
:104A300010E0F80180818B7F80838881816088838A
:104A400042E060E080E00E945A24E1EEF0E08081E4
:104A50008E7F8083E2EEF0E08081816080838081C0
:104A600088608083F80180818E7F80838881806167
:104A70008883DF91CF911F910F910895E8EDF0E0C9
:104A800080818F7E8083E7EDF0E08081816080838C
:104A900084E082BF81E08093E5030C94FB24E8ED81
:104AA000F0E080818E7F80831092E2000895109262
:104AB000DA001092E10008951F920F920FB60F9244
:104AC00011242F933F934F935F936F937F938F9313
:104AD0009F93AF93BF93EF93FF938091E10082FF89
:104AE0000BC08091E20082FF07C08091E1008B7FC4
:104AF0008093E1000E94D2278091DA0080FF1FC0DE
:104B00008091D80080FF1BC08091DA008E7F809357
:104B1000DA008091D90080FF0DC080E189BD82E17B
:104B200089BD09B400FEFDCF81E08093E6030E94B9
:104B3000C02105C019BC1092E6030E94CE218091CD
:104B4000E10080FF19C08091E20080FF15C08091D4
:104B5000E2008E7F8093E2008091E200806180938A
:104B6000E2008091D80080628093D80019BC85E073
:104B70008093E6030E94D2218091E10084FF30C03F
:104B80008091E20084FF2CC080E189BD82E189BD73
:104B900009B400FEFDCF8091D8008F7D8093D800AE
:104BA0008091E1008F7E8093E1008091E2008F7E12
:104BB0008093E2008091E20081608093E200809126
:104BC000E203882311F084E007C08091E30087FDB1
:104BD00002C081E001C083E08093E6030E94D321FC
:104BE0008091E10083FF29C08091E20083FF25C00E
:104BF0008091E100877F8093E10082E08093E6036B
:104C00001092E2038091E1008E7F8093E100809119
:104C1000E2008E7F8093E2008091E20080618093C9
:104C2000E20042E060E080E00E945A248091F000BF
:104C300088608093F0000E94D121FF91EF91BF9195
:104C4000AF919F918F917F916F915F914F913F9124
:104C50002F910F900FBE0F901F9018951F920F92DB
:104C60000FB60F9211242F933F934F935F936F933F
:104C70007F938F939F93AF93BF93CF93DF93EF93E4
:104C8000FF93C091E900CF708091EC00D82FD170D4
:104C900080FDD0E81092E9008091F000877F80933A
:104CA000F00078940E9472261092E9008091F00042
:104CB00088608093F000CD2BCF70C093E900FF9106
:104CC000EF91DF91CF91BF91AF919F918F917F91A4
:104CD0006F915F914F913F912F910F900FBE0F9069
:104CE0001F9018951F93CF93DF93CDB7DEB7AA9788
:104CF0000FB6F894DEBF0FBECDBFE7EEF3E08091B4
:104D0000F100819323E0EF3EF207C9F70E94DF2113
:104D10008091E80083FF2EC18091E7039091E80322
:104D2000492F50E04A30510508F024C1FA01EC58EF
:104D3000FF4F0C944828803821F0823809F01AC1BE
:104D400008C08091E3039091E403992389F0826085
:104D50000FC08091EB038F70873008F00BC18093F8
:104D6000E9008091EB0085FB882780F91092E9002B
:104D70009091E800977F9093E8008093F100109263
:104D8000F100D1C0282F2D7F09F0F4C0882319F03D
:104D9000823061F0EFC08091E903813009F0EAC010
:104DA000933009F080E08093E4032EC08091E90302
:104DB00081112AC08091EB038F702FEF280F2630CE
:104DC00008F0D8C08093E9002091EB0020FF1CC0C0
:104DD000933021F48091EB00806214C09091EB003D
:104DE00090619093EB0021E030E0A90102C0440FF4
:104DF000551F8A95E2F74093EA001092EA008091ED
:104E0000EB0088608093EB001092E9008091E8004D
:104E1000877F8093E8000E948F24ACC08111AAC0D4
:104E20001091E9031F778091E3008078812B8093B4
:104E3000E3008091E800877F8093E8000E948F2440
:104E40008091E80080FFFCCF8091E3008068809330
:104E5000E300111102C082E001C083E08093E60309
:104E600089C08058823008F085C08091E903909114
:104E7000EA038C3D53E0950779F583E08A838AE263
:104E800089834FB7F894DE01139620E03EE051E2AB
:104E9000E32FF0E050935700E49120FF03C0E29528
:104EA000EF703F5FEF708E2F90E0EA3010F0C79602
:104EB00001C0C0968D939D932F5F243149F74FBF5A
:104EC0008091E800877F8093E8006AE270E0CE017D
:104ED00001960E949B2316C06091EB037091EC0336
:104EE000AE014F5F5F4F0E94DF22BC01892B09F4A6
:104EF00041C09091E800977F9093E80089819A8162
:104F00000E94F9238091E8008B778093E80032C0FB
:104F1000803881F58091E800877F8093E800809158
:104F2000E2038093F1008091E8008E7772CF8111C7
:104F300021C08091E9039091EA0399270297D4F464
:104F40008091E800877F8093E8008091E903809357
:104F5000E2030E948F248091E203811106C08091B8
:104F6000E30087FD02C081E001C084E08093E60396
:104F70000E94D5218091E80083FF0AC08091E8005B
:104F8000877F8093E8008091EB0080628093EB0044
:104F9000AA960FB6F894DEBF0FBECDBFDF91CF91BA
:104FA0001F9108950895CF938091E6038823A1F07F
:104FB000C091E900CF709091EC00892F817090FD35
:104FC00080E8C82B1092E9008091E80083FD0E94E0
:104FD0007226CF70C093E900CF910895DB018F93C3
:104FE0009F930E945D28BF91AF91A29F800D911D5C
:104FF000A39F900DB29F900D11240895AA1BBB1B77
:1050000051E107C0AA1FBB1FA617B70710F0A61BC8
:10501000B70B881F991F5A95A9F780959095BC01E9
:10502000CD01089597FB072E16F4009407D077FD65
:1050300009D00E94FE2707FC05D03EF4909581958B
:105040009F4F0895709561957F4F0895A1E21A2EA4
:10505000AA1BBB1BFD010DC0AA1FBB1FEE1FFF1F1C
:10506000A217B307E407F50720F0A21BB30BE40B6C
:10507000F50B661F771F881F991F1A9469F76095B3
:105080007095809590959B01AC01BD01CF0108956D
:10509000EE0FFF1F0590F491E02D0994A29FB0013F
:1050A000B39FC001A39F700D811D1124911DB29F5C
:1050B000700D811D1124911D08950E944E28A59FF9
:1050C000900DB49F900DA49F800D911D1124089503
:1050D000F999FECF92BD81BDF89A992780B50895C0
:1050E000A8E1B0E042E050E00C949C28262FF9990A
:1050F000FECF92BD81BDF89A019700B4021639F037
:105100001FBA20BD0FB6F894FA9AF99A0FBE089507
:105110000396272F0E9477280E947628252F0E9429
:105120007728242F0C9477280196272F0E94772820
:105130000C947628DC01CB01FC01F999FECF06C066
:10514000F2BDE1BDF89A319600B40D924150504045
:08515000B8F70895F894FFCFB1
:105158002F0008002F0208002F000C002F020C005F
:105168002F0012002F0018002F000400000000007C
:105178000000000000000000000000000000000027
:105188000000000000000000000000000000000017
:105198000000000000000000000000000000000007
:1051A80000000000000000000000000000000000F7
:1051B800000000000000000037001E023600230235
:1051C8002C002A002414200225141F02260226146B
:1051D800270227140814201321021C130611211476
:1051E80037023602161116132F0034132F02331309
:1051F8002F1433112F1332133014301306131513D1
:1052080036141D1437141B141F02200224023514EF
:1052180033022E0030113314550022025700361382
:105228002202330000001C02261300001602371366
:1052380000001002081100000A0204110000040214
:1052480029000000FE014C000000F8012B000000BE
:10525800F20139000000EC0153000000010A007D52
:10526800032808641E140A321E22217F2160215C53
:1052780021582101E200E900EA00B500B600B700B4
:10528800CD008301CC008A019201940121022302FE
:1052980024022502260227022A02B300B4006F0066
:1052A800700081828334C697669490F73133323622
:1052B800E200E900EA00B500B600B700CD008301BE
:1052C800CC008A01920194012102230224022502C2
:1052D800260227022A02B300B4006F007000818200
:0252E800830041
:00000001FF
