:100000000C94D5010C941C020C941C020C941C0240
:100010000C941C020C941C020C941C020C941C02E8
:100020000C941C020C941C020C94C8220C949A236D
:100030000C94B6190C941C020C941C020C941C0217
:100040000C941C020C941C020C941C020C941C02B8
:100050000C941C020C94031A0C941C020C941C02A9
:100060000C941C020C941C020C941C020C941C0298
:100070000C941C020C941C020C941C020C941C0288
:100080000C941C020C941C020C941C020C941C0278
:100090000C941C020C941C020C941C020C941C0268
:1000A0000C941C020C941C020C941C020C0F0C0FE0
:1000B0003E0F3E0F850FA30FC410C410AE0F4310A8
:1000C00054105410B410C410C410BD107211721129
:1000D000841184117B1184118411841172117211A5
:1000E000801184118411801107242E2426252E24AA
:1000F00026257A249D242625F424032506001300B2
:10010000120019001A000D00070018001B00100053
:100110000F620C4108421543095D0A5D1743164200
:100120000441117209611C6414740B6828000B5D92
:100130000A7805640E741D613000285D295D121176
:10014000265D111364002A5D2B5D00003962275D76
:1001500038003400255D2E110000135D3200397225
:100160002513195D145D155D28000B5D165D175D87
:10017000185D3711191105110C5D0D5D1D5D225DB6
:100180005F006000610035003962125D0E5D0F5D39
:10019000115D2D005C005D005E0062721F5D205DE0
:1001A0001A5D1B5D105D1E5D59005A005B00215DEC
:1001B000A9004E0049004B00E200E6003A003B0077
:1001C0003C003D00AA004A0052004D00E100E00062
:1001D0003E003F00400041006500500051004F00CC
:1001E00028000B5D42004300440045001911051131
:1001F00000001E5D2D000000225D2D000000320079
:1002000038000000295D380000000A5D095D00002B
:100210001A000D00000010001B0000000600130073
:100220000000040330000000100347006800650070
:1002300072006B0069006E00000020033400300083
:100240002000500065007200630065006E007400BD
:10025000200043006C0075006200000004030904E4
:1002600009023B00020100A0FA0904000001030199
:100270000100092111010001224000070581030846
:10028000000A090401000103000000092111010016
:100290000122BC000705820320000A1201100100A0
:1002A000000008EDFE606001000102030105010984
:1002B00002A10185020901A10005091901290515FD
:1002C00000250195057501810295017503810105E0
:1002D00001093009311581257F95027508810609CC
:1002E000381581257F950175088106050C0A3802AD
:1002F0001581257F950175088106C0C0050109801B
:10030000A101850319012AB700150126B70095013F
:1003100075108100C0050C0901A101850419012A8D
:10032000A002150126A002950175108100C00501EB
:100330000906A1018505050719E029E71500250132
:100340009508750181020507190029EF150025019F
:1003500095F07501810205081901290595057501BA
:100360009102950175039101C005010906A10105DE
:100370000719E029E7150025019508750181029507
:1003800001750881010507190029FF150026FF00E6
:10039000950675088100050819012905950575015F
:1003A0009102950175039101C00011241FBECFEF8A
:1003B000DAE0DEBFCDBF04B603FE27C08091940310
:1003C00090919503A0919603B09197038730904B3D
:1003D000A740B04BD1F41092940310929503109261
:1003E00096031092970314BE84B7877F84BF0FB61D
:1003F000F894A895809160008861809360001092C5
:1004000060000FBEE0E0F8E3099512E0A0E0B1E083
:10041000E0E3FCE402C005900D92A038B107D9F7E3
:1004200023E0A0E8B2E001C01D92A439B207E1F7D1
:100430000E94F71F0C9416260C940000EF92FF9276
:100440000F931F93CF93880F991F880F991FFC015B
:10045000EF58F24700811181E280F380FB01828135
:100460008823A1F00E942E17C82F823011F080320D
:1004700049F40E944117C7010E94FC028C2F0E9480
:100480003E170AC0C8010E94FC0206C0C7010E94B4
:100490001203C8010E94120381E0CF911F910F91B6
:1004A000FF90EF900895EF92FF921F93CF93DF9309
:1004B000FB0122812223C9F0FC01EE0FFF1FEE0F8A
:1004C000FF1FE756F347E080F180C281D3810E948D
:1004D0002E17182F0E944117C7010E942803812F51
:1004E0000E943E17CE010E94280381E0DF91CF9148
:1004F0001F91FF90EF9008959C0128503D452B31AE
:10050000310510F40C941E029C0124523D45283004
:10051000310510F40C94530281E008958430C9F041
:1005200018F4833031F00895863001F1873051F1AD
:100530000895662359F08AE290E00E9428038AE237
:1005400090E00E94280383E390E00BC083E390E0F7
:1005500024C0662341F08AE290E00E94280388E0EC
:1005600091E10C94FC0288E091E117C0662339F018
:100570008AE290E00E94280386E293E1F2CF86E2CD
:1005800093E10BC0662339F08AE290E00E942803D1
:1005900087E393E1E6CF87E393E10C9412039C0198
:1005A0003A9521153F4138F5DC01AA27B270AC011C
:1005B000442754709C012227387094FF0FC090FF8D
:1005C00002C080E101C080E0AB2B09F08062452BC6
:1005D00009F08064232B69F080680BC0892F81703B
:1005E000AB2B09F08260452B09F08460232B09F0C6
:1005F0008860FB0109940895CF93DF93EC01805E3E
:100600009109089710F0209719F468EC7EE002C079
:1006100068E371E1CE010E94CF028C2FDF91CF9170
:100620000C94A30DCF93DF93EC010E944D0ECE01ED
:10063000805E9109089710F0209719F46FEC7EE026
:1006400002C06FE371E1CE01DF91CF910C94CF0234
:10065000CF93DF93EC010E94FC02CE01DF91CF919A
:100660000C94120381E008950C947C0208950C947C
:1006700036031F93CF93DF9300D000D01F92CDB7E6
:10068000DEB749835A836B833091C90289819A818D
:10069000311114C0662359F0222349F00E94AD168F
:1006A000182F682F89819A810E94541603C00E94D6
:1006B0008016182F69817A81812F04C00E94AD169F
:1006C00069817A810F900F900F900F900F90DF91BA
:1006D000CF911F910C94FB03FC01262F4081518187
:1006E0006281738184810C943903CF93DF93EC0191
:1006F00060E00E946C03BE01DF91CF910C94370340
:100700000E94E217811102C00E9495180E9497086A
:100710000C9417060E94E10A0C94130608950C9499
:100720008E0381E008950C949103CF93C82F0E940B
:100730008F038C2F0E949303CF91089508950E94F8
:1007400060110E949E032FEF84E39CE021508040C3
:100750009040E1F700C000000C94291A0F931F93FA
:10076000CF93DF93EC0161E00E946C038C01BE012A
:100770000E9434038823A9F1BE01C8010E94000829
:10078000882379F1BE01C8010E940E0B882349F12C
:10079000BE01C8010E941B09882319F1BE01C801CE
:1007A0000E945C098823E9F0BE01C8010E94870A03
:1007B0008823B9F08A81882369F001158CE5180730
:1007C00031F00E3D1C4531F40E9495180AC00E947C
:1007D0009F0307C0CE01DF91CF911F910F910C9421
:1007E000320380E0DF91CF911F910F91089580E057
:1007F00090E0089508952EE1829FC0011124FC012C
:1008000026E0729FE00DF11D1124E60FF11DEE0FA1
:10081000FF1FE450FF4F859194910895880F991F11
:10082000FC01EE5DFD4F859194910895CF93DF9388
:100830000E94FB030E942E05EC018115904508F0F3
:1008400041C0C11580E4D80708F0D1C0C83ED10529
:1008500010F5C03ED10508F0FDC0C83AD10578F4C6
:10086000C53AD10508F0A2C0C130D10509F4F2C0E3
:1008700008F4EEC0C430D10508F0ECC0E9C0CF3BAD
:10088000D10508F49BC0C03CD10508F4E1C0CE01FD
:10089000805C91099EC0C11590E2D90758F4C1153A
:1008A00021E0D20708F0D6C0C03FD10508F4D0C07F
:1008B000D065D0C0C11580E3D80708F08EC0CE0146
:1008C0009F7087C0C11595E5D90708F043C0C115D1
:1008D00024E5D20708F0A2C0C11582E5D80708F5C3
:1008E000C11591E5D90708F085C0CE0174E0969551
:1008F00087957A95E1F783709C2F937021E030E023
:1009000002C0220F331F9A95E2F73C68382BCF7054
:10091000C695C69580E2C89FE0011124C22BD32B57
:1009200099C09E01237033278C2F86958695C1151B
:10093000D34508F064C0C1E0D0E002C0CC0FDD1F99
:100940002A95E2F720E2829FC0011124C82BD92BFF
:10095000DC6880C0C11529E5D207A0F4C11588E57F
:10096000D80708F060C0C11596E5D90708F070C037
:100970008C2F0E94C2058F71C82FD0E0DC2FCC27AE
:10098000D06268C0C1152AE5D20708F451C0CE0173
:1009900090568115904208F05BC08D2F8F710E9498
:1009A000C205DD27D0628F71D82B54C0C55AD0E064
:1009B000CF5BDD4FC881D0E0D0644CC0C85AD0E0D6
:1009C000CC0FDD1FCD5EDD4F0990D881C02DD464E2
:1009D00041C00E940E04EC013DC0CE019927D3FF17
:1009E00003C0EC01D86C36C0EC01D06C33C0DF70B2
:1009F000D06A30C0DC2FCC27C16FD06A2BC0C1E0D9
:100A0000D0E002C0CC0FDD1F2A95E2F720E2829FE2
:100A1000C0011124C82BD92BDA681CC0DC2FCC27CD
:100A2000C46FD06A17C0DC2FCC27C06FD06A12C049
:100A30008C2F8F700E94C20594E0D695C7959A9529
:100A4000E1F7CF70D0E0DC2FCC27D069C82B02C0F3
:100A5000C0E0D0E0CE01DF91CF91089582389105BA
:100A600069F1B0F48133910509F46DC048F489321D
:100A7000910509F463C08A32910509F469C00895AB
:100A80008533910509F455C089339105B9F008956E
:100A9000833E910569F138F4803E9105B1F0823EC4
:100AA000910509F10895863E9105A9F1873E9105CA
:100AB000B9F1843E910509F064C023C020918503FB
:100AC00020FD4FC021FD4DC008958091850380FD1C
:100AD00044C08091860380FF44C08091850384FDDB
:100AE00042C083EE4DC08091850382FF38C0F5CFB0
:100AF0008091850382FD33C08091860380FD31C0E3
:100B0000ECCF8091860381FF32C08091850384FD04
:100B10002AC087EE35C08091850383FF26C0F5CFBC
:100B20008091850383FD21C08091860381FD1FC0D4
:100B3000ECCF8091850385FD1CC01DC0809185038D
:100B400085FD19C016C08091850386FD16C017C0AB
:100B50008091850386FD13C010C089E311C082EE29
:100B60000FC080EE0DC080E00BC086EE09C084EEA1
:100B700007C089E205C085E303C08AE201C081E3C2
:100B800090E008959091850392FF0DC0282F287161
:100B9000283019F4877F846006C0282F2471243000
:100BA00011F48B7F886093FF0DC0282F28712831A6
:100BB00019F4877E846106C0282F2471243111F432
:100BC0008B7E88612091860320FF0DC0382F3871FD
:100BD000383019F4877F816006C0382F3171313089
:100BE00011F48E7F886021FF0DC0282F28712831D5
:100BF00019F4877E816106C0282F2171213111F4FB
:100C00008E7E886194FD877E0895E82FF0E0E55898
:100C1000FC4F80810895089580EA8A95F1F7089540
:100C200008950C9410060C9411060C9410060C9464
:100C30001506CF93DF93AAE4B2E04FE452E061E0FF
:100C400070E08D91E82FE295EF70F0E021A18F70B8
:100C5000EB0102C0CC0FDD1F8A95E2F7CE019C2F7D
:100C60009095922391A392A1892B82A34A175B07A7
:100C700041F7A4E4B2E04AE452E061E070E08D9113
:100C8000E82FE295EF70F0E021A18F70EB0102C038
:100C9000CC0FDD1F8A95E2F7CE019C2F9095922311
:100CA00091A392A1892B82A34A175B0741F7E6E73C
:100CB000F3E0ABE7B3E08BE793E011921D928E1760
:100CC0009F07D9F785E00E94EF06DF91CF910C9442
:100CD00080036F927F928F929F92AF92BF92CF923A
:100CE000DF92EF92FF920F931F93CF93DF938AE4EB
:100CF000882E82E0982E06E713E09BE7A92E93E06A
:100D0000B92E712CCC24C394D12CF40181914F01C4
:100D1000C82FC295CF70D0E099A18F70760101C025
:100D2000EE0C8A95EAF7892F8E2989A38AA16E2C69
:100D3000609486218AA30E940C06E4E4F2E040E07D
:100D400050E020E03191A32FA295AF70B0E09096D3
:100D50008C9190E03F7002C0959587953A95E2F7A7
:100D600080FD07C08C2D042E01C0880F0A94EAF77D
:100D700001C080E0282B4F5F5F4F4630510511F7CF
:100D800089A1682269A28AA1E82AEAA2F8018081E1
:100D9000281719F0208381E001C080E0782A0F5FD6
:100DA0001F4FA016B10609F0B0CF272D45E06BE725
:100DB00073E086E793E00E94F0060E948A03872D85
:100DC000DF91CF911F910F91FF90EF90DF90CF9027
:100DD000BF90AF909F908F907F906F9008950895EF
:100DE000FF920F931F93CF93DF938C01F62ED72F93
:100DF000C42F222349F081E0809382020E94E819E7
:100E00009093810280938002809182028823C1F0B6
:100E100080918002909181020E94F419069780F0DF
:100E2000EF2DFD2FD8014C2F50E0CD01801B910BF1
:100E3000841795071CF48D918193F7CF109282024D
:100E4000DF91CF911F910F91FF9008950E94E217BB
:100E5000811102C00E9495180E941D188093800382
:100E6000282F26952695269530E02430310524F04C
:100E700087708861809380038091800380FF04C025
:100E800086958695869501C080E00C943508209162
:100E90008003822F869586958695482F50E04330B3
:100EA000510554F48F5F982F990F990F990F822F46
:100EB0008770892B80938003809180038160809369
:100EC00080030E94211880918003869586958695DF
:100ED0000C94350880918003982F96959695969559
:100EE000A1F0915E990F990F990F8770892B8093CC
:100EF0008003887F91E009F490E08091800390FB6B
:100F000080F9809380030E94211880918003869548
:100F1000869586950C9435088091800380FD13C0DA
:100F2000816080938003813019F489E0809380038D
:100F3000809180030E942118809180038695869578
:100F400086950C94350808958091800380FF08C031
:100F50008E7F809380030E94211880E00C943508D6
:100F600008958091800380FD0C94A4070C948C0755
:100F700090918003892F8695869586958F5F8F71D6
:100F80009770843038F4880F880F880F892B8093EE
:100F9000800302C09093800380918003887F91E05A
:100FA00009F490E08091800390FB80F980938003A6
:100FB0000E942118809180038695869586950C94D1
:100FC0003508843008F083E0909180039770282FD3
:100FD000220F220F220F922B90938003987F21E003
:100FE00009F420E09091800320FB90F99093800316
:100FF0000C9435080E94E107809180030C9421181D
:101000009C01FB018281882349F12D3BFCE53F07D0
:10101000C9F040F42B3BECE53E0769F02C3B3C4526
:1010200061F008952F3B9CE5390791F070F0203C6A
:101030003C4589F0089583E001C080E00E94FA07F2
:1010400080E008950E946A07FBCF0E944707F8CF0F
:101050000E94B107F5CF0E94B807F2CF81E0089552
:10106000259A2D9808952D980895CF92DF92EF92AA
:10107000FF92CF93C82F843050F4811109C0809122
:1010800080008F77809380000E94330806C0C3E001
:10109000809180008068809380002C2F30E0AFEF3B
:1010A000BFEF0E94BA2523E030E040E050E00E940C
:1010B0009225C9012C3764E1360728F469E070E015
:1010C0000E946A2529C0DA01C9018A50974DAF4FA5
:1010D000BF4F6627782F892F9A2F25EF38E241E0FE
:1010E00050E00E94922569017A01CA01B9010E946B
:1010F0005A259B01AC01C701B6010E945A25BB27A6
:10110000A92F982F872F009721E0A207B10511F092
:10111000BC0102C06FEF7FEF70938900609388007D
:10112000CF91FF90EF90DF90CF90089508950E94A7
:10113000300882E88093800089E1809381008FEFFE
:101140009FEF90938700809386000C9426070F935F
:101150001F93CF93DF93C62FD42F122FFC018281D0
:101160008823C9F0609385020E94E8199093840255
:101170008093830280E28C0F883008F057C0C770DC
:1011800081E001C0880FCA95EAF7DF91CF911F91E6
:101190000F910C94C80E80918502681330C0809125
:1011A0008302909184020E94F419883C910538F5DD
:1011B00000E20D0FCD17B9F080E28C0F883040F4BB
:1011C000C77081E001C0880FCA95EAF70E94CF0E70
:1011D000083028F581E09D2F977001C0880F9A95FF
:1011E000EAF70E94C80E812F0E94B50E0830F0F475
:1011F000D77081E001C0880FDA95EAF70AC080E273
:101200008C0F883098F4C77081E001C0880FCA95B0
:10121000EAF7DF91CF911F910F910C94CF0E812FA0
:10122000DF91CF911F910F910C94B50EDF91CF916B
:101230001F910F9108959C01CB01233F4CE534078A
:10124000F9F078F4283DFCE53F07B9F0293D4CE57D
:10125000340711F1273D3C4531F526E241EE61EEC0
:101260001EC0253FFCE53F0799F070F0263F3C4546
:10127000D1F427E245EE66EE12C027E245EE0EC03D
:1012800026E241EE60EE0BC027E245EE64EE07C0B9
:1012900026E241EE62EE03C028E241E065EE0E94E4
:1012A000A70880E00895FC018281882319F010923C
:1012B0008502089581E00895CF93DF93EC01FB014F
:1012C0008281882309F41FC1C230FCE5DF0708F4DE
:1012D0001BC1C6319CE5D90738F09E012A5F3C4509
:1012E0002930310508F010C10E94FF179093860342
:1012F00080938503C031ECE5DE0709F4C3C008F034
:1013000041C0C8308CE5D80709F49AC0F0F4C43065
:10131000ECE5DE0709F487C068F4C2308CE5D80735
:1013200009F477C0C330DC4509F0E3C08091850340
:10133000826076C0C630ECE5DE0709F46EC008F0C6
:101340007BC08091850388606BC0CC308CE5D8076A
:1013500009F485C068F4CA30ECE5DE0709F474C00E
:1013600008F079C00E94601180918503806858C0A0
:10137000CE308CE5D80709F476C008F07FC08091A4
:1013800085038BC0CB3FECE5DE0709F44FC018F5B1
:10139000C3318CE5D80709F47DC078F4C131ECE5A0
:1013A000DE0709F473C0C231DC4509F0A2C00E9417
:1013B0006011809185038F7733C0C5318CE5D807E4
:1013C00009F472C008F486C0CA3FDC4509F091C038
:1013D000809186033EC0CF3FFCE5DF0709F45FC084
:1013E00058F4CD3F9CE5D90709F444C008F43FC048
:1013F0008091860382602DC0C130FDE5DF0709F4CE
:1014000075C008F45DC0C230DD4509F072C080E0EF
:101410006EC080918503816003C0809185038061E7
:101420008093850366C08091850311C080918603F7
:101430008260809386035DC0809185038062F0CFD7
:10144000809185038064ECCF8091850388608460FF
:10145000E7CF8160EECF809185038E7FE1CF8091D1
:1014600085038D7FDDCF80918503877FD9CF8091E4
:10147000860318C0809186038D7FDBCF8091850322
:101480008F7ECECF809185038F7DCACF80918503DB
:101490008F7BC6CF80918503877F8B7FC1CF809163
:1014A00086038D7F8E7FC5CF8091850382FB2227A7
:1014B00020F991E0922790FB82F990FB83F9B0CF5D
:1014C00080918603982F909591708E7F892B90FB49
:1014D00081F9AFCF0E9460118091850387FB22279D
:1014E00020F991E0922790FB87F99ACF81E00E9442
:1014F000971880918503909186030E9410180E948E
:10150000601180E001C081E0DF91CF910895CF9319
:10151000DF9386319C4541F5EB010E942E17982FF1
:101520008A812091FE013091FF01882379F09A7A17
:1015300081E009F480E080938602911102C069E2A3
:1015400001C065E3C9010E9432190AC08091860278
:10155000811102C069E201C065E3C9010E943D1921
:101560000E947F1780E001C081E0DF91CF91089554
:101570000F931F93CF93DF939091B7029923E1F0DC
:10158000882319F010E006E003C01092B70214C0DF
:101590008091B7021817C8F7019FE0011124C957BD
:1015A000DD4F688179818A810E94FA16BC01CE01E3
:1015B0000E94D60E1F5FECCFDF91CF911F910F914C
:1015C00008958091FD018823A1F08091B8028823BD
:1015D00081F08091BB029091BC02009751F00E9473
:1015E000F419893C910528F01092B80281E00C941E
:1015F000B80A08951092B8021092FD011092BC0230
:101600001092BB0281E00C94B80A8091FD01811117
:101610000C94FA0A81E08093FD0108955F926F9225
:101620007F928F929F92AF92BF92CF92DF92EF9272
:10163000FF920F931F93CF93DF936C018B01109256
:10164000B902873F2CE5920741F4FB01C281CC230C
:10165000C9F081E08093FD010EC1883FFCE59F0742
:1016600039F4FB01C281CC2369F00E94FA0A03C15C
:10167000893F9C4539F4FB01C281CC2319F00E94BB
:10168000050BF9C08091FD01882309F4F3C0109285
:10169000BA02BB24B394A12C85E0982EC1E0D0E01F
:1016A000882483948091BA02893008F0A1C0E82E82
:1016B000F12C9E9CF0019F9CF00D1124E050FF4FF7
:1016C0004081518177247A9490E0FA01E90FF11D6D
:1016D000E90FF11D25913491C216D30609F4792E34
:1016E000232B11F09F5FF1CFFFEF7F1202C0612C1F
:1016F00066C05090B802F8016280662069F19E9C35
:10170000F0019F9CF00D1124E050FF4F9E0101C09D
:10171000220F7A94EAF73481232B2483552039F35E
:10172000AE0102C0440F551F9A95E2F7415051098E
:1017300030E04217530709F042C02281338121155E
:10174000310521F0C9010E94FC0203C061E00E9442
:101750008E028092B90233C09E0102C0220F331F55
:101760009A95E2F7215031099E9CF0019F9CF00D63
:101770001124E050FF4F448150E02417350769F4ED
:10178000228133812115310521F0C9010E94120304
:1017900005C060E00E948E0201C0512C9E9CF001A9
:1017A0009F9CF00D1124E050FF4FCE0101C0880F27
:1017B0007A94EAF78095948189238483652CA628FE
:1017C000BB2069F09E9CF0019F9CF00D1124E0501D
:1017D000FF4F91E08481811190E0892F01C080E06A
:1017E0008170B82E8091BA028F5F8093BA025ACF6F
:1017F0008091B902882351F00E94E8199093BC02AD
:101800008093BB0280E00E94B80A30C0A1100DC0D6
:1018100081E00E94B80ABB2049F11092BC021092EC
:10182000BB0281E08093B80221C0F8018281882345
:10183000E9F08091B8028823C9F00E94E8199093DA
:10184000BC028093BB02A091B702A83078F481E07B
:101850008A0F8093B70286E08A9FD0011124A9578E
:10186000BD4FF80101900D928A95E1F781E0CA2DF4
:10187000C82701C0C1E08C2FDF91CF911F910F913C
:10188000FF90EF90DF90CF90BF90AF909F908F90A0
:101890007F906F905F9008959093C2028093C102F1
:1018A0000895E091C102F091C202309721F00190B9
:1018B000F081E02D099480E00895E091C102F0915B
:1018C000C202309799F020911202222359F0209100
:1018D000850327FF07C0DC012C9111962C931197EB
:1018E00025E02C930280F381E02D09940895E09186
:1018F000C102F091C202309739F022E0DC012C9352
:101900000480F581E02D099408952091BF02309163
:10191000C0022817390771F09093C0028093BF026C
:10192000E091C102F091C202309721F00680F78168
:10193000E02D099408952091BD023091BE02281730
:10194000390771F09093BE028093BD02E091C1020D
:10195000F091C202309721F00084F185E02D0994C6
:10196000089585B7806885BF85B7806885BF08956D
:1019700008950C94B80C0C94B90C0C94B80C0C94FD
:10198000B80C0E94B10C0E94BD0C0C94BB0C81E001
:1019900008950C94C70C0E94DF190E9419060E943A
:1019A0007E1A0E9426070C94BF0CAF92BF92CF9272
:1019B000DF92EF92FF920F931F93CF93DF93CDB7F8
:1019C000DEB72A970FB6F894DEBF0FBECDBF0E94D8
:1019D00069060E94C90C811111C08FEF89838A8327
:1019E0001B820E94E8198160782F9D838C83498136
:1019F0005A816B818D810E946F0D40C084ECA82EAE
:101A000082E0B82E00E010E0C02E802F0E94050674
:101A1000E82EF501D1905F01D82631F40F5F1F4FFA
:101A20000530110589F7D9CF8091430381FD0E94CC
:101A30000B0680E0FF24F3949D2D9F21D1F08E832F
:101A4000CF82EF2081E009F480E088870E94E819C6
:101A50008160782F9A8789874E815F8168858A8522
:101A60000E946F0DF801EC53FD4F8081F826F08243
:101A700005C08F5FFF0C8630F9F6D0CF0E94960824
:101A80000E94321D0E94510C9091C3028917B1F03F
:101A90000E94510C8093C3022A960FB6F894DEBFC1
:101AA0000FBECDBFDF91CF911F910F91FF90EF90AF
:101AB000DF90CF90BF90AF900C9495032A960FB60D
:101AC000F894DEBF0FBECDBFDF91CF911F910F9174
:101AD000FF90EF90DF90CF90BF90AF900895CF939D
:101AE000DF93CDB7DEB72B970FB6F894DEBF0FBEEE
:101AF000CDBF4F83588769877A878B87DE01119620
:101B000086E0FD0111928A95E9F785E0FE0137969E
:101B100001900D928A95E1F749815A816B817C8110
:101B20008D819E810E9419142B960FB6F894DEBF0A
:101B30000FBECDBFDF91CF910895FC0180819181CF
:101B40000E94EF160895CF93882309F4A4C0C82FEC
:101B50008238C1F40E94510C81FD9DC069E38091DF
:101B6000FE019091FF010E9432190E947F172FEF12
:101B700081EE94E0215080409040E1F700C00000E9
:101B800069E319C0833801F50E94510C80FD83C0C0
:101B900063E58091FE019091FF010E9432190E943D
:101BA0007F172FEF81EE94E0215080409040E1F7C5
:101BB00000C0000063E58091FE019091FF010E944A
:101BC0003D19CF910C947F178438C1F40E94510CB9
:101BD00082FD61C067E48091FE019091FF010E9447
:101BE00032190E947F172FEF81EE94E02150804040
:101BF0009040E1F700C0000067E4DDCF8CEF8C0F70
:101C0000813AD0F46C2F8091FE019091FF010E94E7
:101C1000B218882349F06C2F8091FE019091FF014A
:101C20000E943D190E947F176C2F8091FE019091B8
:101C3000FF010E943219C5CF80E28C0F883048F432
:101C4000C77081E001C0880FCA95EAF70E9431177A
:101C5000B8CFEBE5EC0FE33040F4F0E0E358FD4F94
:101C6000808190E0CF910C94850CE8E5EC0FE73192
:101C700050F4F0E0EE0FFF1FE15BFD4F808191819A
:101C8000CF910C949B0CC03F30F08C2F0E943A1CDB
:101C9000CF910C94271DCF910895882309F464C037
:101CA000823879F40E94510C81FF5EC069E3809113
:101CB000FE019091FF010E9432190E947F1769E393
:101CC00010C08338B1F40E94510C80FF4DC063E511
:101CD0008091FE019091FF010E9432190E947F17AE
:101CE00063E58091FE019091FF010E943D190C94E3
:101CF0007F17843879F40E94510C82FF35C067E465
:101D00008091FE019091FF010E9432190E947F177D
:101D100067E4E7CF9CEF980F913A10F4682FE1CF7A
:101D200090E2980F983050F4877091E001C0990FBD
:101D30008A95EAF7892F0E943717D9CF9BE5980F2C
:101D4000933020F480E090E00C94850C98E5980F97
:101D5000973120F480E090E00C949B0C803F20F0C1
:101D60000E94A21C0C94271D0895CF93C82F0E9497
:101D7000A30DC93349F42FEF87EE93E02150804043
:101D80009040E1F700C000008C2FCF910C944D0ED5
:101D9000882321F00E9431170C947F17089588231F
:101DA00021F00E9437170C947F170895CF92DF928D
:101DB000EF92FF920F931F93CF93DF937C01062F37
:101DC000C72FFC01158112951F70D281D1110E947D
:101DD00051170E942717882399F0DD2389F08C2F53
:101DE000807F803421F080E2800F883048F082E0EC
:101DF0000E94C9170E94271791E0D82ED92601C04A
:101E0000D12CCC2EC2948FE0C8228C2D90E0FC0106
:101E1000EA5AFF4F0C94B4258C2F807FCF70882313
:101E200011F0C295C07FDD2399F0CC2309F487C15E
:101E300080E2800F883010F0011104C08C2F0E94C6
:101E4000311703C08C2F0E9444170E947F1777C15F
:101E5000802F0E944D0ECC2309F496C180E2800FA2
:101E6000883010F0011104C08C2F0E94371703C076
:101E70008C2F0E944A170E947F1786C18C2F807F6B
:101E8000CF70803211F0C295C07F002319F001306D
:101E9000C9F025C0DD2371F0112341F0113031F478
:101EA0000E9464178C2B0E946C176EC10E946417ED
:101EB0008C2B0EC0112319F0113009F465C10E945A
:101EC00075171FC0DD2339F0163008F05DC18C2F67
:101ED0000E94C80E59C1153008F056C112C0DD234A
:101EE00019F01123A1F32BC1112359F0093309F083
:101EF00037C1FFEF27EE83E0F15020408040E1F74B
:101F00002DC18C2F0E94CF0E3FC18C2F86958695B8
:101F1000837019F0813061F037C1DD2321F0802F0B
:101F20009C2F937002C080E090E00E94850C34C129
:101F3000DD2321F0802F9C2F937002C080E090E081
:101F40000E949B0C29C1802FDD2319F00E943A1CAE
:101F500002C00E94A21C0E94271D1EC18C2F8370EC
:101F600009F045C0D11114C1402F429546954770E4
:101F7000440F440F602F6F70862F90E0A0E0B0E018
:101F8000042E04C0880F991FAA1FBB1F0A94D2F702
:101F900004FF10C00FE010E020E030E004C0000FAC
:101FA000111F221F331F4A95D2F7009510952095D7
:101FB000309503C000E010E09801C695C695C37047
:101FC000BC01CD01602B712B822B932BC23049F0C9
:101FD00058F4C13019F00E946A15DAC00E945815F1
:101FE000D7C00E947C15D4C00E945615D1C0DD23F5
:101FF00019F08C2F817001C08695882309F4C8C020
:10200000402F429546954770440F440F602F6F70E4
:10201000862F90E0A0E0B0E0042E04C0880F991F46
:10202000AA1FBB1F0A94D2F704FF10C00FE010E0F4
:1020300020E030E004C0000F111F221F331F4A951B
:10204000D2F7009510952095309503C000E010E080
:102050009801C695C695C370BC01CD01602B712B4C
:10206000822B932BC23049F058F4C13019F00E94F2
:102070002F168EC00E941D168BC00E94411688C06C
:102080000E94901585C0CF70DD2339F08C2F0E94FF
:10209000B615802F0E94C80E7BC0802F0E94CF0EE5
:1020A0008C2F0E94D71574C0023F01F128F4003F25
:1020B00041F0013FA1F03FC0033FF9F0043F39F187
:1020C0003AC0DD2341F0153008F05EC08C2F8F71CF
:1020D0000E94FC1559C0163008F056C0F7CFDD231A
:1020E00039F08C2F8F710E94B6154EC0DD23C9F3D5
:1020F0008C2F8F710E94D71547C0DD2329F08C2FBC
:102100008F710E94A11540C00E949C153DC0DD2327
:1021100049F0CF718C2F0E94B61563E08C2F0E947E
:10212000B41732C081E00E94C917123068F182E012
:102130000E94C91729C0DD2331F0112391F2802FAD
:102140000E94A30D21C0112399F2093349F49FEF96
:10215000E7EEF3E09150E040F040E1F700C000000E
:10216000802F0E944D0E10C04C2F4F70602FC70162
:102170000E94F7030E94C7140FC04C2F4F70602FAE
:10218000C7010E94FA0308C088EF8C0D843020F448
:102190000E94510C0E949503DD20C9F00E94231774
:1021A00080FD15C0F70112820E941D170E94B6150E
:1021B000C7010E9408110E941D17DF91CF911F9146
:1021C0000F91FF90EF90DF90CF900C94D715DF9197
:1021D000CF911F910F91FF90EF90DF90CF900895D6
:1021E0000F931F93CF93DF93EC01688179818A81EC
:1021F0000E94FA168C010E9453160E944415B801E1
:10220000CE010E94D60EDF91CF911F910F910895BC
:10221000CF93DF93EC01988189812B813C81232B23
:1022200031F08F3F31F481E09F3F19F403C081E02A
:1022300001C080E080FD19C0CE010E94AE03811173
:102240000CC00E942717882381F08A81882369F0B7
:1022500082E0DF91CF910C94C917CE010E94F0105B
:10226000CE01DF91CF910C947503DF91CF9108954A
:10227000882321F00E9444170C947F170895882327
:1022800021F00E944A170C947F1708950E9451175D
:102290000E9461170E947F170E94511E0E94271DF5
:1022A00080E090E00E94850C80E090E00C949B0C14
:1022B0008091FE019091FF010E9448190C944611F3
:1022C0000E9441170C945811E92FE295EF704E2FA0
:1022D00050E0FA013297EE30F105B0F4EA59FF4FC1
:1022E0000C94B425803F91F018F4883E68F40EC039
:1022F000843F51F40BC0883E48F0813F29F406C06A
:1023000093FB882780F9089580E0089581E008957F
:102310000E94EF160E9464110895CF93DF9300D0BE
:1023200000D01F92CDB7DEB70F900F900F900F9097
:102330000F90DF91CF910895CF93DF9300D000D01D
:1023400000D0CDB7DEB726960FB6F894DEBF0FBE2D
:10235000CDBFDF91CF9108951F93CF93DF93C091AD
:10236000CA0216E08091CB02C81799F0D0E01C9FFA
:10237000F0011D9FF00D1124E453FD4F4081518168
:1023800062817381848195810E949C112196C7701E
:10239000E9CFDF91CF911F9108954091FC025091B8
:1023A000FD026091FE027091FF0280910003909106
:1023B00001030C949C110F931F93CF93DF93809193
:1023C000010382958F7009F05DC08091FE02882321
:1023D00009F458C08091CA021091CB026091FC02AE
:1023E0007091FD02C091FF02D091000391E06F3F18
:1023F00009F090E0292F06E0811709F443C02097E7
:1024000021F07F3F21F030E003C031E001C0322FE6
:1024100090E030FD34C0089FF001099FF00D1124B9
:10242000DF01A453BD4F11963C911197371327C07C
:102430003C91361324C012963C91129731111FC063
:1024400013964D915C9114974C1B5D0B483C5105C4
:10245000B0F4809101038F70806180930103EF528B
:10246000FD4F80818F70806180838CEF92E00E94AD
:102470000811DF91CF911F910F910C94AC1101962F
:102480008770BACFDF91CF911F910F9108959F92DE
:10249000AF92BF92CF92DF92EF92FF920F931F9372
:1024A000CF93DF93CDB7DEB761970FB6F894DEBF59
:1024B0000FBECDBF8C0185E0F801DE011D960190B5
:1024C0000D928A95E1F7F80140815181E280909167
:1024D000FC026091FD022091FF0230910003211562
:1024E000310531F06F3F31F481E09F3F19F403C0B3
:1024F00081E001C080E0F82FF1709F2E80FD46C181
:10250000F801A380B4808CEFC82E82E0D82EF09022
:10251000FE02F501E21BF30BFF2009F4DFC08091FE
:102520000103E83CF10508F09BC0282F207F09F04B
:1025300052C0561313C0491311C0FE2CE1100EC037
:102540008F708061809301030E94CD11C6010E94AB
:10255000081180910103F801858358C1AB2831F03F
:102560005F3F31F481E04F3F19F403C081E001C0C7
:1025700080E080FD03C081E08E2502C080E090E015
:10258000F82FF170FF2E80FF1CC08091CA022091AD
:10259000CB0236E0821709F417C190E0389FF001B2
:1025A000399FF00D1124E453FD4F6181561306C08D
:1025B0006081461303C06281E61203C001968770F2
:1025C000E9CFFE2CEE2009F421C180910103816046
:1025D000809301035AC0561306C0491304C0E1108A
:1025E00002C0F8019FC04D875E878D859E850E9441
:1025F0008811882379F1EE2069F120910103822F5F
:1026000082958F7090E0029774F08091FC02909117
:10261000FD0298878F831986BB86AA862C87CE01F8
:1026200007960E94081186E0F801ACEFB2E0019035
:102630000D928A95E1F70E94DB110E94CD110DC029
:10264000561729F14D875E878D859E850E948811DA
:1026500081112CC0C8010E940811FF24F394D6C038
:10266000282F207F69F77A2DB98AA88A6E2D89894B
:102670000E948D118CEF92E00E94081186E0F60115
:1026800011928A95E9F70E94CD11F12CBFC0491330
:10269000D9CFE110D7CFF8018583C8010E94081176
:1026A00086E0F60111928A95E9F7B0C0EE2091F22A
:1026B00020910103822F82958F7090E002970CF495
:1026C000B2CF8091FC029091FD029A8389831B8294
:1026D000BD82AC822E83CE010196A3CFE83CF105EA
:1026E00008F047C0FE2CEE2009F4B4CF561330C0DA
:1026F00049132EC02091010320FD21C0822F829515
:102700008F70482F50E041155105C9F0F80125831D
:102710004F30510541F08F5F982F9295907F822F17
:102720008F70892B8583C8010E94081186E0F8010B
:10273000ACEFB2E001900D928A95E1F742C086E0DD
:10274000F801ACEFB2E001900D928A95E1F75EC01E
:102750004D875E878D859E850E948811811163CF8C
:1027600080910103816080930103C8010E940811D8
:102770004DC07A2DB98AA88A6E2D89890E948D1143
:1027800086E0F60111928A95E9F71BC0EE2009F464
:1027900061CF4D875E878D859E850E948811F82EBA
:1027A000882309F457CF86E0F801ACEFB2E001903E
:1027B0000D928A95E1F78CEF92E00E949D0D0E94A8
:1027C000DB110E94CD1122C04D875E878D859E85CD
:1027D0000E94EF16292F22952F70223028F49F7027
:1027E00039F0811105C00BC0243028F49F7049F4E2
:1027F000805E883020F0C8010E9408119F2CF92CBF
:1028000005C0F8019581907F99F7F9CF8F2D6196DA
:102810000FB6F894DEBF0FBECDBFDF91CF911F91F1
:102820000F91FF90EF90DF90CF90BF90AF909F906F
:1028300008951F93CF93DF93CDB7DEB72C970FB6D4
:10284000F894DEBF0FBECDBF4F83588769877A8764
:102850008B879C87CE0107960E9447128823D1F070
:102860009F8188852A853B85232B31F08F3F31F46A
:1028700081E09F3F19F403C081E001C080E080FD4A
:1028800047C04F81588569857A858B859C850E94D4
:102890009C113EC086E0FE013796DE011196019044
:1028A0000D928A95E1F7FF81E8856A857B85611540
:1028B000710531F0EF3F31F481E0FF3F19F403C0BF
:1028C00081E001C080E080FD23C02091CB0230E098
:1028D000C9010196877099274091CA0250E0841778
:1028E0009507F1F1F983EA837D836C8396E0929FEB
:1028F000D001939FB00D1124A453BD4FFE0131961A
:1029000001900D929A95E1F78093CB020E94AC1151
:1029100016E08091CA029091CB02891771F1189F3D
:10292000C001112484539D4F0E944712882329F12E
:10293000E091CA021E9FF0011124E453FD4F408133
:10294000518162817381848195810E949C11809163
:10295000CA0290E00196877099278093CA02D9CF66
:102960000E9460111092CB021092CA02ECEFF2E0CA
:1029700086E0DF011D928A95E9F72C960FB6F89450
:10298000DEBF0FBECDBFDF91CF911F910895EF92B3
:10299000FF920F931F93CF93DF938C01892B09F440
:1029A0006CC0F12CEE24E394E8012196F8018491A7
:1029B000843740F4843008F051C0813081F0823097
:1029C00019F15BC0853709F444C0A8F19CE7980F62
:1029D000903708F052C08F770E944D0E41C00E5FB5
:1029E0001F4FFE01849190E2980F983050F4877049
:1029F000FE2D01C0FF0F8A95EAF78F2F0E94541712
:102A000014C00E94A30D2DC00E5F1F4FFE018491C4
:102A100090E2980F983060F48770FE2D01C0FF0F90
:102A20008A95EAF78F2F0E945A170E947F1719C0C4
:102A30000E944D0E16C00E5F1F4FFE01C491CC23A5
:102A400081F08FE99FE00197F1F700C00000C150CD
:102A5000F6CF0E5F1F4FFE01F49003C00E94A30D3E
:102A60008E018F2D882309F49FCFEFE9FFE0319786
:102A7000F1F700C000008150F5CFDF91CF911F9199
:102A80000F91FF90EF900895089508950C944515C7
:102A90000C9446150E94481560931A0370931B030B
:102AA00080931C0390931D030C9446110C944A15BB
:102AB0000F931F9300911A0310911B0320911C0385
:102AC00030911D03602B712B822B932B1F910F9143
:102AD0000C944A150F931F9300911A0310911B0336
:102AE00020911C0330911D036023712382239323C3
:102AF0001F910F910C944A150F931F9300911A0385
:102B000010911B0320911C0330911D036027712736
:102B1000822793271F910F910C944A150C94451509
:102B20000E948E1560931603709317038093180309
:102B3000909319030C94461160E070E0CB010C9463
:102B400090150F931F9341E050E060E070E08A0120
:102B50009B0104C0000F111F221F331F8A95D2F75B
:102B6000C901B8011F910F910C9490150F931F93F9
:102B700041E050E060E070E004C0440F551F661F64
:102B8000771F8A95D2F78091160390911703A09131
:102B90001803B09119038A019B01082B192B2A2BCA
:102BA0003B2BC901B8011F910F910C9490150F9305
:102BB0001F9341E050E060E070E004C0440F551FF7
:102BC000661F771F8A95D2F740955095609570954E
:102BD0008091160390911703A0911803B0911903E7
:102BE0008A019B01082319232A233B23C901B80129
:102BF0001F910F910C9490150F931F9341E050E09B
:102C000060E070E004C0440F551F661F771F8A956F
:102C1000D2F78091160390911703A0911803B091F9
:102C200019038A019B01082719272A273B27C90175
:102C3000B8011F910F910C9490150F931F93009161
:102C40001603109117032091180330911903602B7C
:102C5000712B822B932B1F910F910C9490150F9336
:102C60001F930091160310911703209118033091C0
:102C7000190360237123822393231F910F910C94D6
:102C800090150F931F930091160310911703209135
:102C900018033091190360277127822793271F910A
:102CA0000F910C9490150895292F220F920F990FD0
:102CB000890FE82FE695E695E695877051E001C00B
:102CC000550F8A95EAF785E0E89FF0011124EE5F41
:102CD000FC4F20E030E070E04081CB01022E02C0CA
:102CE000969587950A94E2F78170819584278523CC
:102CF000842781932F5F3F4F2530310569F7089571
:102D0000292F220F920F990F890F682F66956695CC
:102D10006695982F977085E0689FB001112440E078
:102D200050E080E0FB01E40FF51FEE5FFC4F2081D7
:102D300030E0092E02C0369527950A94E2F72170FB
:102D40003327042E01C0220F0A94EAF7822B4F5F2B
:102D50005F4F4530510531F70895BF92CF92DF9212
:102D6000EF92FF920F931F93CF93DF938C01C0904C
:102D70001603D0901703E0901803F0901903809188
:102D80001A0390911B03A0911C03B0911D03C82A44
:102D9000D92AEA2AFB2ACFE1D0E0D701C6010C2EBE
:102DA00004C0B695A795979587950A94D2F780FDAC
:102DB00004C0219790F7B12C07C0BC2EB8018C2F0E
:102DC0000E9416040197A9F38B2DDF91CF911F91DB
:102DD0000F91FF90EF90DF90CF90BF900895CF9329
:102DE000DF93EC010E94AD16BE010E941604DF9134
:102DF000CF9108951F93CF93DF93EB019091C90278
:102E0000992321F0CB010E94EF1613C0882349F0CB
:102E1000CB010E94AD16182F682FCE010E945416C8
:102E200004C0CB010E948016182FBE01812F0E9482
:102E30001604DF91CF911F91089580911E0385950F
:102E400085958595089580911E03877008959091CA
:102E50001E03977081E009F480E008958091420399
:102E6000089590914203892B8093420308958095A1
:102E700090914203892380934203089580934203F3
:102E8000089510924203089590914103892B8093F5
:102E900041030895809590914103892380934103D4
:102EA000089510924103089590914003892B8093D7
:102EB00040030895809590914003892380934003B7
:102EC000089510924003089580911F030895089576
:102ED0000C9467170C94681790911F03981721F0B2
:102EE00080931F030C946A17089580911F03882311
:102EF00029F010921F0380E00C946A170895E09166
:102F0000FE01F091FF01809142038083E091FE0178
:102F1000F091FF01908180914103892B8083E091A2
:102F2000FE01F091FF01908180914003892B808305
:102F300080911F03882381F0E091FE01F091FF0151
:102F40009081892B80838091FE019091FF010E94E6
:102F50009C1881110E9475178091FE019091FF01CC
:102F60000C945D0C0C94671798E0899F90011124D4
:102F7000262B20931E030E94B61580911E03859573
:102F8000859585950C94B21710921E0380E00C94E1
:102F9000B21720911E038095822380931E03982FE1
:102FA000977079F430E0482F082E000C550B241749
:102FB000350739F08595859585950E94D7150C9430
:102FC000C417089580E090E00E94DC2521E08C3E4B
:102FD0009E4F09F020E0822F089582E090E00C944B
:102FE000D425682F82E090E00C94E22583E090E005
:102FF0000C94D425682F83E090E00C94E225CF93C5
:1030000084E090E00E94D425C82F81E290E00E94E5
:10301000D4252C2F30E0A901582BCA01CF91089557
:10302000CF93C92F682F84E090E00E94E2256C2F97
:1030300081E290E0CF910C94E22586E090E00C9440
:10304000D425682F86E090E00C94E225AB01BC010A
:103050008FE090E00C94F425AB01BC0183E190E09B
:103060000C94F42560E070E0CB010C942C1860E027
:1030700070E0CB010E9426180C9432186CEE7EEFA3
:1030800080E090E00E94002660E082E090E00E94F4
:10309000E22560E083E090E00E94E22510921A03AE
:1030A00010921B0310921C0310921D0360E084E039
:1030B00090E00E94E22560E081E290E00E94E2253B
:1030C00060E085E090E00E94E22560E086E090E02C
:1030D0000E94E2256FEF87E090E00E94E22540E049
:1030E00050E0BA0188E090E00E94F42560E08DE0B5
:1030F00090E00E94E22540E050E0BA0188E190E0D3
:103100000E94F42560E087E190E00E94E22540E023
:1031100050E0BA018CE190E00E94F42560E080E28A
:1031200090E00E94E2250C9437180C943E18682F0A
:103130008EE090E00C94E225FC0132968091120220
:10314000882331F08091850387FF02C09EE101C092
:1031500096E080E0915028F021912223D9F38F5FEF
:10316000F9CF0895662351F1209112022223E9F04C
:103170002091850327FF19C0462F46954695469511
:103180004E31E0F4677021E030E002C0220F331FBF
:103190006A95E2F7FC01E40FF11D828190E028239B
:1031A000392381E0232B69F409C0FC01329608968B
:1031B0002191621729F0E817F907D1F780E0089507
:1031C00081E008959C01FC0132969FEF80E04191DF
:1031D000461789F09F3F19F4411101C0982F8F5F66
:1031E0008630A9F79F3F39F0F901E90FF11D97FDEE
:1031F000FA956283089508959C012A5F3F4FFC0170
:103200004281461301C01282019682179307B9F7D3
:103210000895262F2695269526952E3168F4FC01D3
:10322000E20FF11D677021E030E001C0220F6A95C6
:10323000EAF78281282B22830895262F269526954A
:1032400026952E3170F4FC01E20FF11D677021E02C
:1032500030E001C0220F6A95EAF720958281282389
:103260002283089520911202222329F020918503C0
:1032700027FD0C9409190C94E218209112022223C4
:1032800029F02091850327FD0C941D190C94FC183E
:1032900020911202FC013296222331F080918503A5
:1032A00087FF02C08EE101C086E0DF011D928A9592
:1032B000E9F7089508950C945A190C945A19CF936C
:1032C0000E945D190E9469060E945B19C0E08C2F64
:1032D0000E940506811104C0CF5FC530C1F701C04F
:1032E00081E0CF9108950C945A190C9473190E949F
:1032F000751980918B03843061F11092440320E4AE
:1033000088E190E00FB6F894A895809360000FBE16
:103310002093600080E00E94350880E00E949503C1
:103320000E94751983B7817F846083BF83B78160F2
:1033300083BF7894889583B78E7F83BF0FB6F89448
:10334000A895809160008861809360001092600071
:103350000FBE08950C945A190E9460110E9426070E
:103360000E94510C0E9495030C94AA191F920F926F
:103370000FB60F9211248F939F93AF93BF938091B9
:103380004403811113C08091810390918203A09125
:103390008303B09184034196A11DB11D80938103E5
:1033A00090938203A0938303B0938403BF91AF9162
:1033B0009F918F910F900FBE0F901F90189582E0F4
:1033C00084BD93E095BD9AEF97BD80936E000895FC
:1033D0002FB7F8948091810390918203A091830389
:1033E000B09184032FBF08959C014FB7F89480914A
:1033F000810390918203A0918303B09184034FBF16
:10340000821B930B089578941F920F920FB60F9220
:1034100011248F939F93AF93BF93809181039091D9
:103420008203A0918303B09184030196A11DB11D75
:103430008093810390938203A0938303B0938403CA
:10344000BF91AF919F918F910F900FBE0F901F90E2
:10345000189587E797E790930108809300089AE012
:1034600088E10FB6F894A895809360000FBE909302
:103470006000FFCFCF92DF92EF92FF920F931F93E6
:10348000CF93C0E0E82EF12C8C2F0E94050600E0BF
:1034900010E0C82ED12CC601002E02C0959587954C
:1034A0000A94E2F780FD06C00F5F1F4F063011053A
:1034B00091F70AC0602F7C2F80E00E94FB03E81682
:1034C000F90691F781E004C0CF5FC530E9F680E0EE
:1034D000CF911F910F91FF90EF90DF90CF900895C3
:1034E000CF93C82F8CE20E943A1A882321F08C2FA8
:1034F000CF910C943A1A80E0CF910895CF930E9417
:10350000E217811102C00E949518C5E6C15049F02A
:103510000E9469068FE39CE90197F1F700C0000063
:10352000F5CF89E20E94701A811120C18AE20E94BF
:10353000701A81110E94951885E00E94701A8111FD
:103540000E94291A0E94ED178093430387E00E948E
:10355000701A8823A9F18BE10E94701A882351F018
:103560008091430381FB222720F991E0922790FB71
:1035700081F90EC08EE00E94701A882361F080915C
:10358000430382FB222720F991E0922790FB82F9E6
:103590008093430315C080E10E94701A9091430309
:1035A000882341F093FB222720F981E0822780FBCA
:1035B00093F904C0892F809580FB90F99093430381
:1035C000809143030E94F1170E94FF179093860396
:1035D0008093850380EE0E94701A882341F08091C9
:1035E0008503982F909590FB80F98093850389E35C
:1035F0000E94701A882359F08091850381FB22274D
:1036000020F991E0922790FB81F98093850382EE67
:103610000E94701A882359F08091850382FB22272B
:1036200020F991E0922790FB82F98093850386EE42
:103630000E94701A882359F08091850383FB22270A
:1036400020F991E0922790FB83F98093850383EE24
:103650000E94701A882359F08091850384FB2227E9
:1036600020F991E0922790FB84F98093850385E30C
:103670000E94701A882359F08091850385FB2227C8
:1036800020F991E0922790FB85F98093850381E3EF
:103690000E94701A882359F08091850386FB2227A7
:1036A00020F991E0922790FB86F98093850381E1D0
:1036B0000E94701A882359F08091850387FB222786
:1036C00020F991E0922790FB87F980938503809100
:1036D0008503909186030E94101887E20E94701A59
:1036E000C82F8EE10E94701A8111C2608FE10E9482
:1036F000701A8111C46080E20E94701A8111C86042
:1037000081E20E94701A8111C06182E20E94701AE7
:103710008111C06283E20E94701A8111C06484E248
:103720000E94701A882311F0C06802C0CC2329F0CF
:103730008C2F0E94FA176C2F03C00E94F617682F77
:1037400070E080E090E00E9456158FE00E94701AB1
:10375000882319F081E00E94971885E10E94701A71
:10376000882321F080E0CF910C949718CF91089591
:1037700080914C0380FF0BC06091050285E0689F3B
:10378000B001112475956795759567952BC081FFDC
:1037900009C06091050285E0689FB001112475950C
:1037A000679520C082FF07C06091050285E0689F91
:1037B000B001112417C090914B039923D1F060916F
:1037C0000402961788F72091050285E0289F900152
:1037D0001124929FA001939F500D112470E0CA0103
:1037E0000E947E256038710540F46115710519F459
:1037F00006C065E070E0862F08958FE7089581E0A8
:10380000089580914C0380FF08C06091010270E030
:10381000759567957595679521C081FF06C0609184
:10382000010270E07595679519C082FF04C0609130
:10383000010270E010C090914B03992399F06091C0
:1038400000029617A0F780910102899FC001112400
:1038500070E00E947E256038710540F461157105A5
:1038600019F406C061E070E0862F08958FE708958F
:1038700081E00895803F21F40E94B81B819504C027
:10388000813F29F40E94B81B809350030895823F22
:1038900021F40E94B81B819504C0833F29F40E9443
:1038A000B81B80934F030895893F19F40E94011CAF
:1038B00005C08A3F31F40E94011C81958093510319
:1038C00008958B3F21F40E94011C819504C08C3F18
:1038D00029F40E94011C809352030895843F21F42F
:1038E00080914E03816017C0853F21F480914E0383
:1038F000826011C0863F21F480914E0384600BC02A
:10390000873F21F480914E03886005C0883F31F4E1
:1039100080914E03806180934E0308958D3F21F482
:1039200080914C0381600BC08E3F21F480914C0349
:10393000826005C08F3F29F480914C03846080939E
:103940004C030895803F39F48091500387FF6CC089
:103950001092500369C0813F29F4809150031816DA
:10396000BCF362C090914F03823F29F497FF5CC083
:1039700010924F0359C0833F19F41916CCF354C069
:10398000893F41F48091510318160CF04DC01092FC
:1039900051034AC08A3F29F48091510387FF44C0F4
:1039A000F6CF8B3F39F48091520387FF3DC01092D0
:1039B00052033AC08C3F29F4809152031816BCF38D
:1039C00033C0843F21F480914E038E7F17C0853F22
:1039D00021F480914E038D7F11C0863F21F48091A8
:1039E0004E038B7F0BC0873F21F480914E03877F6E
:1039F00005C0883F31F480914E038F7E80934E0343
:103A000013C08D3F21F480914C038E7F0BC08E3FFD
:103A100021F480914C038D7F05C08F3F29F4809164
:103A20004C038B7F80934C0380914F0381110EC018
:103A30008091500381110AC080915103811106C009
:103A400080915203811102C010924B0308958DE4BE
:103A500093E00E94770C0E94E81990934A038093A8
:103A600049030895CF93DF9300D000D000D0CDB7A5
:103A7000DEB786E0EDE4F3E0DE01119601900D92F1
:103A80008A95E1F780914F03811105C08091500321
:103A9000882309F47AC080914703909148030E94DB
:103AA000F419AC0190914B03992339F0209106024F
:103AB00030E02417350758F068C0209107028AE0EB
:103AC000289F900111242417350718F05EC09F3FEE
:103AD00019F09F5F90934B03109251031092520381
:103AE00080914F03181624F40E94B81B80934F0353
:103AF00080914F0387FF05C00E94B81B819580937A
:103B00004F0380915003181624F40E94B81B809331
:103B100050038091500387FF05C00E94B81B819518
:103B20008093500330914F033323E1F020915003F1
:103B30002223C1F045EB3403C0011124992319F06D
:103B400090934F0303C081E080934F0335EB230331
:103B5000C0011124992319F09093500303C081E010
:103B6000809350030E94271D8091490390914A033E
:103B7000909348038093470386E0FE013196ADE4BD
:103B8000B3E001900D928A95E1F780915103811184
:103B900005C080915203882309F47AC080914503BF
:103BA000909146030E94F419AC0190914B03992324
:103BB00039F02091020230E02417350758F068C030
:103BC000209103028AE0289F9001112424173507D1
:103BD00018F05EC09F3F19F09F5F90934B031092C7
:103BE0004F031092500380915103181624F40E9441
:103BF000011C809351038091510387FF05C00E94EF
:103C0000011C81958093510380915203181624F46E
:103C10000E94011C809352038091520387FF05C0CC
:103C20000E94011C819580935203309151033323EC
:103C3000E1F0209152032223C1F045EB3403C0018F
:103C40001124992319F09093510303C081E08093CC
:103C5000510335EB2303C0011124992319F09093EC
:103C6000520303C081E0809352030E94271D80917C
:103C7000490390914A03909346038093450386E05D
:103C8000FE013196ADE4B3E001900D928A95E1F723
:103C900026960FB6F894DEBF0FBECDBFDF91CF9151
:103CA0000895EDE4F3E086E0DF011D928A95E9F7DF
:103CB00010924B0310924C03089580917303089562
:103CC000CF93DF9300D01F92CDB7DEB790918B03D7
:103CD000943019F589837B836A8382E08093E900BD
:103CE0008FEF9091E800815095FD06C095ED9A9573
:103CF000F1F700008111F5CF8091E80085FF0DC03C
:103D000040E050E063E070E0CE0101960E94BC20EC
:103D10008091E8008E778093E8000F900F900F90CD
:103D2000DF91CF910895CF93DF93EC010E949F2004
:103D3000823011F0843031F4BE0184E0DF91CF9104
:103D40000C94601EDF91CF910895BC0183E00C9428
:103D5000601ECF93DF93EC010E949F20823011F010
:103D60008430F9F482E08093E9008FEF9091E800CD
:103D7000815095FD06C095ED9A95F1F700008111EF
:103D8000F5CF8091E80085FF0CC040E050E066E090
:103D900070E0CE010E94BC208091E8008E77809375
:103DA000E800DF91CF910895CF93DF93EC010E945B
:103DB0009F20823011F08430D9F58091120288233F
:103DC00039F08091850387FF03C060E282E002C082
:103DD00068E081E08093E9008FEF9091E8008150E6
:103DE00095FD06C095ED9A95F1F700008111F5CF8C
:103DF0008091E80085FF1CC080911202811105C0EE
:103E000040E050E068E070E003C070E040E050E067
:103E1000CE010E94BC208091E8008E778093E8005C
:103E200080E2FE01A3E5B3E001900D928A95E1F7EF
:103E3000DF91CF91089580918A03811109C00E947A
:103E40004D220E94AA228091E20084608093E200C9
:103E5000089510928A030895089508950C94AC195A
:103E600042E061EC81E00E94C62142E261EC82E026
:103E70000C94C62180918D03833009F460C030F426
:103E8000813071F0823009F499C008958A3009F4C4
:103E900085C08B3009F46BC0893009F0A7C020C001
:103EA00080918C03813A09F0A1C08091E800877F5E
:103EB0008093E8008091900390919103892B21F4E5
:103EC00060E283E593E003C060E080E090E070E0B2
:103ED0000E9407218091E8008B778093E800089585
:103EE00080918C03813209F081C080919003909180
:103EF0009103029708F07AC08091E800877F809351
:103F0000E8008091E80082FD05C080918B0381115B
:103F1000F8CF6CC02091F3008091F20090E0922BDA
:103F2000029729F48091F1008B7F813021F48091F8
:103F3000F100809373038091E8008B7753C08091E8
:103F40008C03813A09F052C08091900390919103C3
:103F5000892B09F04BC08091E800877F8093E800AF
:103F60008091E80080FFFCCF8091120236C08091E2
:103F70008C038132D9F58091900390919103892B24
:103F8000A9F58091E800877F8093E8000E94FB21DB
:103F900080918E03809312020C94601180918C03A7
:103FA000813221F58091E800877F8093E8000E94AC
:103FB000FB2180918F0380937403089580918C037B
:103FC000813AA1F48091E800877F8093E800809196
:103FD000E80080FFFCCF809174038093F100809112
:103FE000E8008E778093E8000C94FB21089584B755
:103FF000877F84BF0FB6F894A89580916000886190
:1040000080936000109260000FBE90E080E80FB6D1
:10401000F89480936100909361000FBE0E94C10CE0
:104020000E944D220E94AA228091E2008460809327
:10403000E20078940E943F250E94CB0C88E092E039
:104040000E944C0C80918B03853069F40E94771993
:10405000809189038823B1F30E945F19882391F32B
:104060000E94A620EFCF0E94D50CECCF0C943820F4
:10407000292F332723303105C9F060F42130310571
:1040800081F02230310509F04AC08BE390E020E650
:1040900032E049C02132310511F12232310579F186
:1040A0003EC082E190E02BE932E03DC099278130AB
:1040B000910561F040F08230910559F0039779F550
:1040C000E2E2F2E008C0ECE5F2E005C0EAE3F2E08B
:1040D00002C0E8E2F2E0849190E09F0124C0611503
:1040E000710541F061307105D1F489E090E02BE871
:1040F00032E019C089E090E022E732E014C0611597
:10410000710541F06130710551F48CEB90E02DEABE
:1041100032E009C080E490E029E633E004C080E0AA
:1041200090E020E030E0FA0131832083089580910F
:104130008B03843011F081E0089582E0089580912E
:104140007503811102C00C949720089580E189BD08
:1041500082E189BD09B400FEFDCF8091D8008F7D3A
:104160008093D8008091E00082608093E00080918D
:10417000E00081FDFCCF0895CF92DF92EF92FF9295
:104180000F931F93CF93DF93EC018B017A010E9471
:104190001A22811133C0E114F10439F0F701808152
:1041A0009181081B190BC80FD91FC12CD12C0115E7
:1041B000110519F18091E80085FD16C08091E80095
:1041C0008E778093E800E114F10449F0F7018081D3
:1041D0009181C80ED91ED182C08285E00FC00E9495
:1041E0001A22882321F30AC089918093F10001509B
:1041F0001109FFEFCF1ADF0ADACF80E0DF91CF910C
:104200001F910F91FF90EF90DF90CF900895209134
:104210009203309193032617370748F06115710513
:1042200039F42091E8002E772093E80001C0B9010D
:10423000FC0120E06115710579F180918B038823E1
:10424000F1F18530F1F18091E80083FD3CC080916F
:10425000E80082FD2EC08091E80080FFEBCF209126
:10426000F3008091F20090E0922B6115710551F0FE
:104270008830910538F421912093F1006150710943
:104280000196F3CF21E0089709F020E08091E80043
:104290008E778093E800CECF2111CFCF0AC08091D6
:1042A0008B03882361F0853061F08091E80083FD05
:1042B0000AC08091E80082FFF2CF80E0089582E09A
:1042C000089583E0089581E008952091920330914C
:1042D00093032617370748F06115710539F42091CB
:1042E000E8002E772093E80001C0B901FC0120E02E
:1042F0006115710591F180918B03882309F440C009
:10430000853009F43FC08091E80083FD3DC0809175
:10431000E80082FD2FC08091E80080FFE9CF209166
:10432000F3008091F20090E0922B6115710559F035
:104330008830910540F424912093F100319661502A
:1043400071090196F2CF21E0089709F020E08091F1
:10435000E8008E778093E800CBCF2111CCCF0AC044
:1043600080918B03882361F0853061F08091E800B3
:1043700083FD0AC08091E80082FFF2CF80E00895BB
:1043800082E0089583E0089581E00895982F9730A2
:1043900068F59093E900981739F07091EC0020913E
:1043A000ED005091F00003C0242F762F50E021FD46
:1043B00002C09F5FECCF3091EB003E7F3093EB006B
:1043C0003091ED003D7F3093ED003091EB00316096
:1043D0003093EB007093EC002093ED005093F000CD
:1043E0002091EE0027FDE5CF80E008958F70809347
:1043F000E90081E0089580918C0387FF11C08091CE
:10440000E80082FD05C080918B038111F8CF11C0B7
:104410008091E8008B770BC080918B03882349F053
:104420008091E80080FFF8CF8091E8008E7780933C
:10443000E80008952091E4003091E50095E6409170
:10444000EC00842F817040FF23C08091E80080FD44
:104450001DC080918B03882399F0853099F080915D
:10446000EB0085FD11C04091E4005091E500241758
:10447000350729F3915011F09A01E1CF84E00895B6
:1044800082E0089583E0089581E0089580E0089532
:104490004091E80042FFDDCF08950E94BB220E94B8
:1044A000C322E0EEF0E0808181608083E8EDF0E0FF
:1044B00080818F77808319BCA7EDB0E08C918E7FCF
:1044C0008C9380818F7E808310928A0308950F934E
:1044D0001F93CF93DF930E94BB220E94C322C8ED9B
:1044E000D0E088818F7788838881806888838881FD
:1044F0008F7D888319BC10928B03109287031092D2
:1045000089031092880300EE10E0F80180818B7F10
:10451000808388818160888342E060E080E00E943F
:10452000C621E1EEF0E080818E7F8083E2EEF0E054
:10453000808181608083808188608083F8018081B0
:104540008E7F8083888180618883DF91CF911F91E6
:104550000F910895E8EDF0E080818F7E8083E7ED94
:10456000F0E080818160808384E082BF81E080937D
:104570008A030C946722E8EDF0E080818E7F8083CF
:104580001092E20008951092DA001092E10008956E
:104590001F920F920FB60F9211242F933F934F93B8
:1045A0005F936F937F938F939F93AF93BF93EF939B
:1045B000FF938091E10082FF0BC08091E20082FFB7
:1045C00007C08091E1008B7F8093E1000E943E252F
:1045D0008091DA0080FF1FC08091D80080FF1BC04F
:1045E0008091DA008E7F8093DA008091D90080FF7D
:1045F0000DC080E189BD82E189BD09B400FEFDCF17
:1046000081E080938B030E941B1F05C019BC109290
:104610008B030E94291F8091E10080FF19C08091C7
:10462000E20080FF15C08091E2008E7F8093E2005F
:104630008091E20080618093E2008091D8008062E6
:104640008093D80019BC85E080938B030E942D1FB6
:104650008091E10084FF30C08091E20084FF2CC093
:1046600080E189BD82E189BD09B400FEFDCF809162
:10467000D8008F7D8093D8008091E1008F7E809359
:10468000E1008091E2008F7E8093E2008091E20061
:1046900081608093E20080918703882311F084E099
:1046A00007C08091E30087FD02C081E001C083E084
:1046B00080938B030E942E1F8091E10083FF29C00D
:1046C0008091E20083FF25C08091E100877F809385
:1046D000E10082E080938B03109287038091E100D8
:1046E0008E7F8093E1008091E2008E7F8093E200D4
:1046F0008091E20080618093E20042E060E080E02F
:104700000E94C6218091F00088608093F0000E9492
:104710002C1FFF91EF91BF91AF919F918F917F914E
:104720006F915F914F913F912F910F900FBE0F901E
:104730001F9018951F920F920FB60F9211242F936E
:104740003F934F935F936F937F938F939F93AF9319
:10475000BF93CF93DF93EF93FF93C091E900CF70A6
:104760008091EC00D82FD17080FDD0E81092E90044
:104770008091F000877F8093F00078940E94DE2380
:104780001092E9008091F00088608093F000CD2BBA
:10479000CF70C093E900FF91EF91DF91CF91BF916E
:1047A000AF919F918F917F916F915F914F913F91C9
:1047B0002F910F900FBE0F901F9018951F93CF93BE
:1047C000DF93CDB7DEB7AA970FB6F894DEBF0FBE62
:1047D000CDBFECE8F3E08091F100819323E0E43970
:1047E000F207C9F70E943A1F8091E80083FF2EC1AB
:1047F00080918C0390918D03492F50E04A305105F0
:1048000008F024C1FA01EC58FF4F0C94B42580380D
:1048100021F0823809F01AC108C080918803909174
:104820008903992389F082600FC0809190038F7073
:10483000873008F00BC18093E9008091EB0085FB85
:10484000882780F91092E9009091E800977F909373
:10485000E8008093F1001092F100D1C0282F2D7F45
:1048600009F0F4C0882319F0823061F0EFC0809124
:104870008E03813009F0EAC0933009F080E0809324
:1048800089032EC080918E0381112AC080919003EC
:104890008F702FEF280F263008F0D8C08093E900E2
:1048A0002091EB0020FF1CC0933021F48091EB009D
:1048B000806214C09091EB0090619093EB0021E036
:1048C00030E0A90102C0440F551F8A95E2F74093DA
:1048D000EA001092EA008091EB0088608093EB0080
:1048E0001092E9008091E800877F8093E8000E94A1
:1048F000FB21ACC08111AAC010918E031F7780915B
:10490000E3008078812B8093E3008091E800877F2B
:104910008093E8000E94FB218091E80080FFFCCF9B
:104920008091E30080688093E300111102C082E06F
:1049300001C083E080938B0389C08058823008F0E7
:1049400085C080918E0390918F038C3D53E0950735
:1049500079F583E08A838AE289834FB7F894DE0190
:10496000139620E03EE051E2E32FF0E05093570031
:10497000E49120FF03C0E295EF703F5FEF708E2F50
:1049800090E0EA3010F0C79601C0C0968D939D93D9
:104990002F5F243149F74FBF8091E800877F8093D4
:1049A000E8006AE270E0CE0101960E94072116C07D
:1049B0006091900370919103AE014F5F5F4F0E9431
:1049C0003620BC01892B09F441C09091E800977F03
:1049D0009093E80089819A810E9465218091E80086
:1049E0008B778093E80032C0803881F58091E800B1
:1049F000877F8093E800809187038093F100809106
:104A0000E8008E7772CF811121C080918E03909142
:104A10008F0399270297D4F48091E800877F8093D1
:104A2000E80080918E03809387030E94FB21809190
:104A30008703811106C08091E30087FD02C081E0F9
:104A400001C084E080938B030E94301F8091E800B6
:104A500083FF0AC08091E800877F8093E8008091FF
:104A6000EB0080628093EB00AA960FB6F894DEBF4D
:104A70000FBECDBFDF91CF911F9108950895CF93C1
:104A800080918B038823A1F0C091E900CF709091B1
:104A9000EC00892F817090FD80E8C82B1092E9000E
:104AA0008091E80083FD0E94DE23CF70C093E9006F
:104AB000CF910895DB018F939F930E94C925BF91E9
:104AC000AF91A29F800D911DA39F900DB29F900D5D
:104AD00011240895AA1BBB1B51E107C0AA1FBB1FCD
:104AE000A617B70710F0A61BB70B881F991F5A957A
:104AF000A9F780959095BC01CD01089597FB072EED
:104B000016F4009407D077FD09D00E946A2507FCAF
:104B100005D03EF4909581959F4F089570956195CD
:104B20007F4F0895A1E21A2EAA1BBB1BFD010DC0E9
:104B3000AA1FBB1FEE1FFF1FA217B307E407F5074D
:104B400020F0A21BB30BE40BF50B661F771F881F29
:104B5000991F1A9469F760957095809590959B01BF
:104B6000AC01BD01CF010895EE0FFF1F0590F49138
:104B7000E02D0994A29FB001B39FC001A39F700DC7
:104B8000811D1124911DB29F700D811D1124911D55
:104B900008950E94BA25A59F900DB49F900DA49FE3
:104BA000800D911D11240895F999FECF92BD81BD0C
:104BB000F89A992780B50895A8E1B0E042E050E066
:104BC0000C940826262FF999FECF92BD81BDF89A44
:104BD000019700B4021639F01FBA20BD0FB6F89441
:104BE000FA9AF99A0FBE08950396272F0E94E3259B
:104BF0000E94E225252F0E94E325242F0C94E32513
:104C00000196272F0E94E3250C94E225DC01CB01BD
:104C1000FC01F999FECF06C0F2BDE1BDF89A3196CC
:104C200000B40D9241505040B8F70895F894FFCF6A
:104C30001C0229000016024C000010022B00000A82
:104C4000020000000402000000FE01041100F8014F
:104C5000000000F201000000EC015300002F0008EA
:104C6000002F0208002F000C002F020C002F001252
:104C7000002F0018002F00040000000000000000BA
:104C80000000000000000000000000000000000024
:104C90000000000000000000000000000000000014
:104CA0000000000000000000000000000000000004
:104CB00000000000000000000000000000000000F4
:104CC000000000000037001E02360023022C002ADC
:104CD000002414200225141F02260226142702276E
:104CE000140814201321021C133602370216111661
:104CF000132F0034132F0233132F1433112F1332B9
:104D000013301430130613151336141D1437141BE7
:104D1000141F0220022402351433022E002E1464C4
:104D200013301133145500220257003613012003AB
:104D30002808641E140A321E5D1ED41EA91EA51E5C
:104D4000931E01E200E900EA00B500B600B700CD0D
:104D5000008301CC008A01920194012102230224E4
:104D6000022502260227022A02B300B4006F007057
:104D70000081828334C697669490F731333236E2ED
:104D800000E900EA00B500B600B700CD008301CC11
:104D9000008A0192019401210223022402250226A5
:104DA0000227022A02B300B4006F007000818283E0
:00000001FF
