:100000000C94D2010C9419020C9419020C9419024C
:100010000C9419020C9419020C9419020C941902F4
:100020000C9419020C9419020C94C5220C94972379
:100030000C94B3190C9419020C9419020C94190223
:100040000C9419020C9419020C9419020C941902C4
:100050000C9419020C94001A0C9419020C941902B5
:100060000C9419020C9419020C9419020C941902A4
:100070000C9419020C9419020C9419020C94190294
:100080000C9419020C9419020C9419020C94190284
:100090000C9419020C9419020C9419020C94190274
:1000A0000C9419020C9419020C941902090F090FEF
:1000B0003B0F3B0F820FA00FC110C110AB0F4010C0
:1000C00051105110B110C110C110BA106F116F1141
:1000D0008111811178118111811181116F116F11BD
:1000E0007D11811181117D1104242B2423252B24C2
:1000F000232577249A242325F124002506001300C4
:10010000120019001A000D00070018001B00100053
:100110000F620C4108421543095D0A5D1743164200
:100120000441117209611C6414740B6828000B5D92
:100130000A7805640E741D613000285D295D121176
:10014000265D111364002A5D2B5D00003962275D76
:1001500038003400255D2E110000135D3200397225
:100160002513195D145D155D28000B5D165D175D87
:10017000185D3711191105110C5D0D5D1D5D225DB6
:100180005F006000610035005362125D0E5D0F5D1F
:10019000115D2D005C005D005E0062721F5D205DE0
:1001A0001A5D1B5D105D1E5D59005A005B00215DEC
:1001B000A9004E0049004B00E200E6003A003B0077
:1001C0003C003D00AA004A0052004D00E100E00062
:1001D0003E003F00400041006500500051004F00CC
:1001E00028000B5D42004300440045001E5D2D00C9
:1001F0000000225D2D000000320038000000295D63
:10020000380000000A5D095D00001A000D000000C2
:1002100010001B0000000600130000000403300063
:100220000000100347006800650072006B00690061
:100230006E000000200334003000200050006500F4
:100240007200630065006E007400200043006C00C3
:100250007500620000000403090409023B0002016A
:1002600000A0FA09040000010301010009211101A5
:1002700000012240000705810308000A090401006B
:10028000010300000009211101000122BC00070543
:10029000820320000A1201100100000008EDFE6038
:1002A0006001000102030105010902A101850209A3
:1002B00001A10005091901290515002501950575FC
:1002C000018102950175038101050109300931158C
:1002D00081257F95027508810609381581257F954E
:1002E0000175088106050C0A38021581257F9501E4
:1002F00075088106C0C005010980A10185031901A7
:100300002AB700150126B700950175108100C005B8
:100310000C0901A101850419012AA002150126A0DA
:1003200002950175108100C005010906A10185052E
:10033000050719E029E715002501950875018102D7
:100340000507190029EF1500250195F075018102B7
:100350000508190129059505750191029501750397
:100360009101C005010906A101050719E029E7155A
:100370000025019508750181029501750881010527
:1003800007190029FF150026FF0095067508810052
:100390000508190129059505750191029501750357
:1003A0009101C00011241FBECFEFDAE0DEBFCDBF48
:1003B00004B603FE27C08091900390919103A09111
:1003C0009203B09193038730904BA740B04BD1F488
:1003D0001092900310929103109292031092930343
:1003E00014BE84B7877F84BF0FB6F894A895809118
:1003F0006000886180936000109260000FBEE0E0B2
:10040000F8E3099512E0A0E0B1E0EAE2FCE402C002
:1004100005900D92AC37B107D9F723E0ACE7B2E015
:1004200001C01D92A039B207E1F70E94F41F0C949D
:1004300013260C940000EF92FF920F931F93CF931B
:10044000880F991F880F991FFC01E459F24700811A
:100450001181E280F380FB0182818823A1F00E9458
:100460002B17C82F823011F0803249F40E943E17BA
:10047000C7010E94F9028C2F0E943B170AC0C801D5
:100480000E94F90206C0C7010E940F03C8010E9422
:100490000F0381E0CF911F910F91FF90EF9008958E
:1004A000EF92FF921F93CF93DF93FB0122812223D0
:1004B000C9F0FC01EE0FFF1FEE0FFF1FEC56F347D4
:1004C000E080F180C281D3810E942B17182F0E94F7
:1004D0003E17C7010E942503812F0E943B17CE01C2
:1004E0000E94250381E0DF91CF911F91FF90EF9053
:1004F00008959C0128503D452B31310510F40C9492
:100500001B029C0124523D452830310510F40C9407
:10051000500281E008958430C9F018F4833031F03E
:100520000895863001F1873051F10895662359F01E
:100530008AE290E00E9425038AE290E00E9425036F
:1005400083E390E00BC083E390E024C0662341F096
:100550008AE290E00E94250388E091E10C94F90280
:1005600088E091E117C0662339F08AE290E00E94AA
:10057000250386E293E1F2CF86E293E10BC0662386
:1005800039F08AE290E00E94250387E393E1E6CF09
:1005900087E393E10C940F039C013A9521153F41A9
:1005A00038F5DC01AA27B270AC01442754709C01D5
:1005B0002227387094FF0FC090FF02C080E101C075
:1005C00080E0AB2B09F08062452B09F08064232B7F
:1005D00069F080680BC0892F8170AB2B09F08260B5
:1005E000452B09F08460232B09F08860FB010994F6
:1005F0000895CF93DF93EC01805E9109089710F086
:10060000209719F465EC7EE002C065E371E1CE014C
:100610000E94CC028C2FDF91CF910C94A00DCF9330
:10062000DF93EC010E944A0ECE01805E910908978B
:1006300010F0209719F46CEC7EE002C06CE371E1DD
:10064000CE01DF91CF910C94CC02CF93DF93EC01DC
:100650000E94F902CE01DF91CF910C940F0381E04B
:1006600008950C94790208950C9433031F93CF934B
:10067000DF9300D000D01F92CDB7DEB749835A83F5
:100680006B833091C50289819A81311114C0662330
:1006900059F0222349F00E94AA16182F682F898149
:1006A0009A810E94511603C00E947D16182F6981FD
:1006B0007A81812F04C00E94AA1669817A810F90E5
:1006C0000F900F900F900F90DF91CF911F910C948E
:1006D000F803FC01262F408151816281738184815E
:1006E0000C943603CF93DF93EC0160E00E94690322
:1006F000BE01DF91CF910C9434030E94DF1781116A
:1007000002C00E9492180E9494080C9414060E9441
:10071000DE0A0C94100608950C948B0381E0089572
:100720000C948E03CF93C82F0E948C038C2F0E94B1
:100730009003CF91089508950E945D110E949B033C
:100740002FEF84E39CE0215080409040E1F700C00F
:1007500000000C94261A0F931F93CF93DF93EC01A4
:1007600061E00E9469038C01BE010E94310388236D
:10077000A9F1BE01C8010E94FD07882379F1BE01DD
:10078000C8010E940B0B882349F1BE01C8010E94D9
:100790001809882319F1BE01C8010E94590988234C
:1007A000E9F0BE01C8010E94840A8823B9F08A8159
:1007B000882369F001158CE5180731F00E3D1C45C2
:1007C00031F40E9492180AC00E949C0307C0CE0117
:1007D000DF91CF911F910F910C942F0380E0DF9157
:1007E000CF911F910F91089580E090E008950895B2
:1007F0002EE1829FC0011124FC0126E0729FE00DD2
:10080000F11D1124E60FF11DEE0FFF1FE450FF4F05
:10081000859194910895880F991FFC01E45EFD4F26
:10082000859194910895CF93DF930E94F8030E94DD
:100830002B05EC018115904508F041C0C11580E4FD
:10084000D80708F0D1C0C83ED10510F5C03ED1058B
:1008500008F0FDC0C83AD10578F4C53AD10508F0D2
:10086000A2C0C130D10509F4F2C008F4EEC0C43012
:10087000D10508F0ECC0E9C0CF3BD10508F49BC01E
:10088000C03CD10508F4E1C0CE01805C91099EC056
:10089000C11590E2D90758F4C11521E0D20708F03C
:1008A000D6C0C03FD10508F4D0C0D065D0C0C115B6
:1008B00080E3D80708F08EC0CE019F7087C0C115B5
:1008C00095E5D90708F043C0C11524E5D20708F023
:1008D000A2C0C11582E5D80708F5C11591E5D90771
:1008E00008F085C0CE0174E0969587957A95E1F77A
:1008F00083709C2F937021E030E002C0220F331FE1
:100900009A95E2F73C68382BCF70C695C69580E281
:10091000C89FE0011124C22BD32B99C09E012370E4
:1009200033278C2F86958695C115D34508F064C072
:10093000C1E0D0E002C0CC0FDD1F2A95E2F720E233
:10094000829FC0011124C82BD92BDC6880C0C1153F
:1009500029E5D207A0F4C11588E5D80708F060C0E2
:10096000C11596E5D90708F070C08C2F0E94BF050D
:100970008F71C82FD0E0DC2FCC27D06268C0C115A2
:100980002AE5D20708F451C0CE0190568115904255
:1009900008F05BC08D2F8F710E94BF05DD27D062EC
:1009A0008F71D82B54C0C55AD0E0C45CDD4FC881CC
:1009B000D0E0D0644CC0C85AD0E0CC0FDD1FC25F7D
:1009C000DD4F0990D881C02DD46441C00E940B0432
:1009D000EC013DC0CE019927D3FF03C0EC01D86CD8
:1009E00036C0EC01D06C33C0DF70D06A30C0DC2F71
:1009F000CC27C16FD06A2BC0C1E0D0E002C0CC0FC1
:100A0000DD1F2A95E2F720E2829FC0011124C82B46
:100A1000D92BDA681CC0DC2FCC27C46FD06A17C072
:100A2000DC2FCC27C06FD06A12C08C2F8F700E9431
:100A3000BF0594E0D695C7959A95E1F7CF70D0E0C1
:100A4000DC2FCC27D069C82B02C0C0E0D0E0CE019B
:100A5000DF91CF9108958238910569F1B0F4813327
:100A6000910509F46DC048F48932910509F463C019
:100A70008A32910509F469C008958533910509F416
:100A800055C089339105B9F00895833E910569F108
:100A900038F4803E9105B1F0823E910509F1089548
:100AA000863E9105A9F1873E9105B9F1843E9105F5
:100AB00009F064C023C02091810320FD4FC021FDB7
:100AC0004DC008958091810380FD44C080918203D0
:100AD00080FF44C08091810384FD42C083EE4DC0FD
:100AE0008091810382FF38C0F5CF8091810382FD20
:100AF00033C08091820380FD31C0ECCF80918203AE
:100B000081FF32C08091810384FD2AC087EE35C009
:100B10008091810383FF26C0F5CF8091810383FDFF
:100B200021C08091820381FD1FC0ECCF80918103A1
:100B300085FD1CC01DC08091810385FD19C016C0B4
:100B40008091810386FD16C017C08091810386FDC8
:100B500013C010C089E311C082EE0FC080EE0DC03B
:100B600080E00BC086EE09C084EE07C089E205C0B4
:100B700085E303C08AE201C081E390E0089590918B
:100B8000810392FF0DC0282F2871283019F4877F28
:100B9000846006C0282F2471243011F48B7F886074
:100BA00093FF0DC0282F2871283119F4877E8461A6
:100BB00006C0282F2471243111F48B7E8861209186
:100BC000820320FF0DC0382F3871383019F4877F29
:100BD000816006C0382F3171313011F48E7F88600A
:100BE00021FF0DC0282F2871283119F4877E8161DB
:100BF00006C0282F2171213111F48E7E886194FD69
:100C0000877E0895E82FF0E0E958FC4F8081089531
:100C1000089580EA8A95F1F7089508950C940D06D9
:100C20000C940E060C940D060C941206CF93DF93D1
:100C3000A5E4B2E04AE452E061E070E08D91E82F73
:100C4000E295EF70F0E021A18F70EB0102C0CC0FB4
:100C5000DD1F8A95E2F7CE019C2F9095922391A3F8
:100C600092A1892B82A34A175B0741F7AFE3B2E059
:100C700045E452E061E070E08D91E82FE295EF707D
:100C8000F0E021A18F70EB0102C0CC0FDD1F8A952F
:100C9000E2F7CE019C2F9095922391A392A1892BEC
:100CA00082A34A175B0741F7E2E7F3E0A7E7B3E067
:100CB00087E793E011921D928E179F07D9F785E081
:100CC0000E94EC06DF91CF910C947D036F927F928E
:100CD0008F929F92AF92BF92CF92DF92EF92FF924C
:100CE0000F931F93CF93DF9385E4882E82E0982E95
:100CF00002E713E097E7A92E93E0B92E712CCC24DC
:100D0000C394D12CF40181914F01C82FC295CF70AB
:100D1000D0E099A18F70760101C0EE0C8A95EAF7B8
:100D2000892F8E2989A38AA16E2C609486218AA39B
:100D30000E940906EFE3F2E040E050E020E031914C
:100D4000A32FA295AF70B0E090968C9190E03F7089
:100D500002C0959587953A95E2F780FD07C08C2DE6
:100D6000042E01C0880F0A94EAF701C080E0282B06
:100D70004F5F5F4F4630510511F789A1682269A284
:100D80008AA1E82AEAA2F8018081281719F02083B5
:100D900081E001C080E0782A0F5F1F4FA016B106E6
:100DA00009F0B0CF272D45E067E773E082E793E0D5
:100DB0000E94ED060E948703872DDF91CF911F913E
:100DC0000F91FF90EF90DF90CF90BF90AF909F90EA
:100DD0008F907F906F9008950895FF920F931F93C7
:100DE000CF93DF938C01F62ED72FC42F222349F007
:100DF00081E080937E020E94E51990937D028093AA
:100E00007C0280917E028823C1F080917C029091C7
:100E10007D020E94F119069780F0EF2DFD2FD80179
:100E20004C2F50E0CD01801B910B841795071CF4CB
:100E30008D918193F7CF10927E02DF91CF911F9118
:100E40000F91FF9008950E94DF17811102C00E9448
:100E500092180E941A1880937C03282F26952695B5
:100E6000269530E02430310524F087708861809326
:100E70007C0380917C0380FF04C0869586958695CF
:100E800001C080E00C94320820917C03822F86956B
:100E900086958695482F50E04330510554F48F5F76
:100EA000982F990F990F990F822F8770892B809314
:100EB0007C0380917C03816080937C030E941E18D8
:100EC00080917C038695869586950C943208809156
:100ED0007C03982F969596959695A1F0915E990F23
:100EE000990F990F8770892B80937C03887F91E0FD
:100EF00009F490E080917C0390FB80F980937C035F
:100F00000E941E1880917C038695869586950C9488
:100F1000320880917C0380FD13C0816080937C0344
:100F2000813019F489E080937C0380917C030E94D6
:100F30001E1880917C038695869586950C943208C0
:100F4000089580917C0380FF08C08E7F80937C038E
:100F50000E941E1880E00C943208089580917C0352
:100F600080FD0C94A1070C94890790917C03892F34
:100F70008695869586958F5F8F719770843038F44B
:100F8000880F880F880F892B80937C0302C0909371
:100F90007C0380917C03887F91E009F490E080914C
:100FA0007C0390FB80F980937C030E941E18809143
:100FB0007C038695869586950C943208843008F0DB
:100FC00083E090917C039770282F220F220F220F2D
:100FD000922B90937C03987F21E009F420E090917C
:100FE0007C0320FB90F990937C030C9432080E94C0
:100FF000DE0780917C030C941E189C01FB0182810A
:10100000882349F12D3BFCE53F07C9F040F42B3B19
:10101000ECE53E0769F02C3B3C4561F008952F3B21
:101020009CE5390791F070F0203C3C4589F008952B
:1010300083E001C080E00E94F70780E008950E94ED
:101040006707FBCF0E944407F8CF0E94AE07F5CF99
:101050000E94B507F2CF81E00895259A2D98089552
:101060002D980895CF92DF92EF92FF92CF93C82FE1
:10107000843050F4811109C0809180008F77809373
:1010800080000E94300806C0C3E080918000806824
:10109000809380002C2F30E0AFEFBFEF0E94B72588
:1010A00023E030E040E050E00E948F25C9012C375A
:1010B00064E1360728F469E070E00E94672529C0E2
:1010C000DA01C9018A50974DAF4FBF4F6627782F7D
:1010D000892F9A2F25EF38E241E050E00E948F25BA
:1010E00069017A01CA01B9010E9457259B01AC012F
:1010F000C701B6010E945725BB27A92F982F872F1C
:10110000009721E0A207B10511F0BC0102C06FEF0A
:101110007FEF7093890060938800CF91FF90EF90EC
:10112000DF90CF90089508950E942D0882E8809363
:10113000800089E1809381008FEF9FEF909387007B
:10114000809386000C9423070F931F93CF93DF9314
:10115000C62FD42F122FFC0182818823C9F06093FF
:1011600081020E94E5199093800280937F0280E2C1
:101170008C0F883008F057C0C77081E001C0880F1D
:10118000CA95EAF7DF91CF911F910F910C94C50E8C
:1011900080918102681330C080917F02909180021B
:1011A0000E94F119883C910538F500E20D0FCD172A
:1011B000B9F080E28C0F883040F4C77081E001C044
:1011C000880FCA95EAF70E94CC0E083028F581E016
:1011D0009D2F977001C0880F9A95EAF70E94C50E5F
:1011E000812F0E94B20E0830F0F4D77081E001C068
:1011F000880FDA95EAF70AC080E28C0F883098F4FD
:10120000C77081E001C0880FCA95EAF7DF91CF91DE
:101210001F910F910C94CC0E812FDF91CF911F91D4
:101220000F910C94B20EDF91CF911F910F91089501
:101230009C01CB01233F4CE53407F9F078F4283DBD
:10124000FCE53F07B9F0293D4CE5340711F1273D96
:101250003C4531F526E241EE61EE1EC0253FFCE53E
:101260003F0799F070F0263F3C45D1F427E245EE68
:1012700066EE12C027E245EE0EC026E241EE60EEB9
:101280000BC027E245EE64EE07C026E241EE62EEB7
:1012900003C028E241E065EE0E94A40880E00895C2
:1012A000FC018281882319F010928102089581E067
:1012B0000895CF93DF93EC01FB018281882309F429
:1012C0001FC1C230FCE5DF0708F41BC1C6319CE535
:1012D000D90738F09E012A5F3C452930310508F0D6
:1012E00010C10E94FC179093820380938103C03148
:1012F000ECE5DE0709F4C3C008F041C0C8308CE556
:10130000D80709F49AC0F0F4C430ECE5DE0709F41C
:1013100087C068F4C2308CE5D80709F477C0C330C1
:10132000DC4509F0E3C080918103826076C0C6305D
:10133000ECE5DE0709F46EC008F07BC08091810304
:1013400088606BC0CC308CE5D80709F485C068F4A0
:10135000CA30ECE5DE0709F474C008F079C00E94D9
:101360005D1180918103806858C0CE308CE5D8072C
:1013700009F476C008F07FC0809181038BC0CB3F19
:10138000ECE5DE0709F44FC018F5C3318CE5D8074A
:1013900009F47DC078F4C131ECE5DE0709F473C0CF
:1013A000C231DC4509F0A2C00E945D118091810329
:1013B0008F7733C0C5318CE5D80709F472C008F4C3
:1013C00086C0CA3FDC4509F091C0809182033EC0CF
:1013D000CF3FFCE5DF0709F45FC058F4CD3F9CE543
:1013E000D90709F444C008F43FC0809182038260A9
:1013F0002DC0C130FDE5DF0709F475C008F45DC0FC
:10140000C230DD4509F072C080E06EC0809181037A
:10141000816003C08091810380618093810366C0F5
:101420008091810311C08091820382608093820346
:101430005DC0809181038062F0CF809181038064E0
:10144000ECCF8091810388608460E7CF8160EECF2C
:10145000809181038E7FE1CF809181038D7FDDCFED
:1014600080918103877FD9CF8091820318C08091BA
:1014700082038D7FDBCF809181038F7ECECF8091E1
:1014800081038F7DCACF809181038F7BC6CF8091EE
:101490008103877F8B7FC1CF809182038D7F8E7F79
:1014A000C5CF8091810382FB222720F991E092270A
:1014B00090FB82F990FB83F9B0CF80918203982F43
:1014C000909591708E7F892B90FB81F9AFCF0E9410
:1014D0005D118091810387FB222720F991E09227FB
:1014E00090FB87F99ACF81E00E9494188091810344
:1014F000909182030E940D180E945D1180E001C04E
:1015000081E0DF91CF910895CF93DF9386319C45A1
:1015100041F5EB010E942B17982F8A812091F90148
:101520003091FA01882379F09A7A81E009F480E019
:1015300080938202911102C069E201C065E3C90192
:101540000E942F190AC080918202811102C069E2B3
:1015500001C065E3C9010E943A190E947C1780E02E
:1015600001C081E0DF91CF9108950F931F93CF9336
:10157000DF939091B3029923E1F0882319F010E0F2
:1015800006E003C01092B30214C08091B302181792
:10159000C8F7019FE0011124CD57DD4F68817981A3
:1015A0008A810E94F716BC01CE010E94D30E1F5FF4
:1015B000ECCFDF91CF911F910F9108958091F801A9
:1015C0008823A1F08091B402882381F08091B70232
:1015D0009091B802009751F00E94F119893C910551
:1015E00028F01092B40281E00C94B50A089510928C
:1015F000B4021092F8011092B8021092B70281E082
:101600000C94B50A8091F80181110C94F70A81E0DD
:101610008093F80108955F926F927F928F929F92CC
:10162000AF92BF92CF92DF92EF92FF920F931F93F0
:10163000CF93DF936C018B011092B502873F2CE5AD
:10164000920741F4FB01C281CC23C9F081E0809371
:10165000F8010EC1883FFCE59F0739F4FB01C28108
:10166000CC2369F00E94F70A03C1893F9C4539F4F5
:10167000FB01C281CC2319F00E94020BF9C08091BA
:10168000F801882309F4F3C01092B602BB24B39486
:10169000A12C85E0982EC1E0D0E08824839480912D
:1016A000B602883008F0A1C0E82EF12C9E9CF00113
:1016B0009F9CF00D1124E050FF4F40815181772411
:1016C0007A9490E0FA01E90FF11DE90FF11D2591DF
:1016D0003491C216D30609F4792E232B11F09F5FA3
:1016E000F1CFFFEF7F1202C0612C66C05090B402B0
:1016F000F8016280662069F19E9CF0019F9CF00DCC
:101700001124E050FF4F9E0101C0220F7A94EAF7A6
:101710003481232B2483552039F3AE0102C0440FBA
:10172000551F9A95E2F74150510930E0421753078F
:1017300009F042C0228133812115310521F0C90110
:101740000E94F90203C061E00E948B028092B50200
:1017500033C09E0102C0220F331F9A95E2F7215039
:1017600031099E9CF0019F9CF00D1124E050FF4F29
:10177000448150E02417350769F422813381211513
:10178000310521F0C9010E940F0305C060E00E94ED
:101790008B0201C0512C9E9CF0019F9CF00D1124E6
:1017A000E050FF4FCE0101C0880F7A94EAF7809590
:1017B000948189238483652CA628BB2069F09E9C94
:1017C000F0019F9CF00D1124E050FF4F91E08481C7
:1017D000811190E0892F01C080E08170B82E809146
:1017E000B6028F5F8093B6025ACF8091B5028823EC
:1017F00051F00E94E5199093B8028093B70280E0FF
:101800000E94B50A30C0A1100DC081E00E94B50A47
:10181000BB2049F11092B8021092B70281E0809388
:10182000B40221C0F80182818823E9F08091B402DA
:101830008823C9F00E94E5199093B8028093B702FB
:10184000A091B302A83078F481E08A0F8093B302AC
:1018500086E08A9FD0011124AD57BD4FF801019059
:101860000D928A95E1F781E0CA2DC82701C0C1E039
:101870008C2FDF91CF911F910F91FF90EF90DF9010
:10188000CF90BF90AF909F908F907F906F905F9020
:1018900008959093BE028093BD020895E091BD0229
:1018A000F091BE02309721F00190F081E02D099473
:1018B00080E00895E091BD02F091BE02309799F06A
:1018C00020910D02222359F02091810327FF07C0A8
:1018D000DC012C9111962C93119725E02C9302801A
:1018E000F381E02D09940895E091BD02F091BE02CC
:1018F000309739F022E0DC012C930480F581E02D53
:10190000099408952091BB023091BC022817390731
:1019100071F09093BC028093BB02E091BD02F09104
:10192000BE02309721F00680F781E02D09940895DA
:101930002091B9023091BA022817390771F09093BB
:10194000BA028093B902E091BD02F091BE023097D5
:1019500021F00084F185E02D0994089585B7806811
:1019600085BF85B7806885BF089508950C94B50C30
:101970000C94B60C0C94B50C0C94B50C0E94AE0CE7
:101980000E94BA0C0C94B80C81E008950C94C40C1D
:101990000E94DC190E9416060E947B1A0E942307EF
:1019A0000C94BC0CAF92BF92CF92DF92EF92FF9259
:1019B0000F931F93CF93DF93CDB7DEB72A970FB660
:1019C000F894DEBF0FBECDBF0E9466060E94C60C13
:1019D000811111C08FEF89838A831B820E94E519D0
:1019E0008160782F9D838C8349815A816B818D81A1
:1019F0000E946C0D40C080ECA82E82E0B82E00E062
:101A000010E0C02E802F0E940206E82EF501D19032
:101A10005F01D82631F40F5F1F4F0530110589F79C
:101A2000D9CF80913F0381FD0E94080680E0FF240A
:101A3000F3949D2D9F21D1F08E83CF82EF2081E002
:101A400009F480E088870E94E5198160782F9A87E1
:101A500089874E815F8168858A850E946C0DF801B7
:101A6000E054FD4F8081F826F08205C08F5FFF0CA7
:101A70008630F9F6D0CF0E9493080E942F1D0E9455
:101A80004E0C9091BF028917B1F00E944E0C8093CA
:101A9000BF022A960FB6F894DEBF0FBECDBFDF910E
:101AA000CF911F910F91FF90EF90DF90CF90BF905B
:101AB000AF900C9492032A960FB6F894DEBF0FBE37
:101AC000CDBFDF91CF911F910F91FF90EF90DF90ED
:101AD000CF90BF90AF900895CF93DF93CDB7DEB78F
:101AE0002B970FB6F894DEBF0FBECDBF4F8358873C
:101AF00069877A878B87DE01119686E0FD01119256
:101B00008A95E9F785E0FE01379601900D928A9556
:101B1000E1F749815A816B817C818D819E810E9490
:101B200016142B960FB6F894DEBF0FBECDBFDF9113
:101B3000CF910895FC01808191810E94EC16089557
:101B4000CF93882309F4A4C0C82F8238C1F40E941F
:101B50004E0C81FD9DC069E38091F9019091FA01DD
:101B60000E942F190E947C172FEF81EE94E02150E4
:101B700080409040E1F700C0000069E319C083385D
:101B800001F50E944E0C80FD83C063E58091F90150
:101B90009091FA010E942F190E947C172FEF81EE7D
:101BA00094E0215080409040E1F700C0000063E5E0
:101BB0008091F9019091FA010E943A19CF910C9409
:101BC0007C178438C1F40E944E0C82FD61C067E42A
:101BD0008091F9019091FA010E942F190E947C17BF
:101BE0002FEF81EE94E0215080409040E1F700C05B
:101BF000000067E4DDCF8CEF8C0F813AD0F46C2FBE
:101C00008091F9019091FA010E94AF18882349F060
:101C10006C2F8091F9019091FA010E943A190E946B
:101C20007C176C2F8091F9019091FA010E942F1975
:101C3000C5CF80E28C0F883048F4C77081E001C0C6
:101C4000880FCA95EAF70E942E17B8CFEBE5EC0F84
:101C5000E33040F4F0E0E858FD4F808190E0CF9110
:101C60000C94820CE8E5EC0FE73150F4F0E0EE0F55
:101C7000FF1FE65BFD4F80819181CF910C94980C02
:101C8000C03F30F08C2F0E94371CCF910C94241D44
:101C9000CF910895882309F464C0823879F40E94B2
:101CA0004E0C81FF5EC069E38091F9019091FA01C9
:101CB0000E942F190E947C1769E310C08338B1F489
:101CC0000E944E0C80FF4DC063E58091F901909118
:101CD000FA010E942F190E947C1763E58091F90197
:101CE0009091FA010E943A190C947C17843879F487
:101CF0000E944E0C82FF35C067E48091F9019091FB
:101D0000FA010E942F190E947C1767E4E7CF9CEF2D
:101D1000980F913A10F4682FE1CF90E2980F983025
:101D200050F4877091E001C0990F8A95EAF7892FE6
:101D30000E943417D9CF9BE5980F933020F480E0B0
:101D400090E00C94820C98E5980F973120F480E095
:101D500090E00C94980C803F20F00E949F1C0C9403
:101D6000241D0895CF93C82F0E94A00DC93349F4B4
:101D70002FEF87EE93E0215080409040E1F700C0C4
:101D800000008C2FCF910C944A0E882321F00E94E2
:101D90002E170C947C170895882321F00E94341785
:101DA0000C947C170895CF92DF92EF92FF920F93DD
:101DB0001F93CF93DF937C01062FC72FFC01158162
:101DC00012951F70D281D1110E944E170E942417C4
:101DD000882399F0DD2389F08C2F807F803421F0D7
:101DE00080E2800F883048F082E00E94C6170E948F
:101DF000241791E0D82ED92601C0D12CCC2EC29424
:101E00008FE0C8228C2D90E0FC01EA5AFF4F0C9421
:101E1000B1258C2F807FCF70882311F0C295C07FB1
:101E2000DD2399F0CC2309F487C180E2800F88304C
:101E300010F0011104C08C2F0E942E1703C08C2FAC
:101E40000E9441170E947C1777C1802F0E944A0E82
:101E5000CC2309F496C180E2800F883010F0011184
:101E600004C08C2F0E94341703C08C2F0E94471788
:101E70000E947C1786C18C2F807FCF70803211F03A
:101E8000C295C07F002319F00130C9F025C0DD23C1
:101E900071F0112341F0113031F40E9461178C2B45
:101EA0000E9469176EC10E9461178C2B0EC011230E
:101EB00019F0113009F465C10E9472171FC0DD23AB
:101EC00039F0163008F05DC18C2F0E94C50E59C143
:101ED000153008F056C112C0DD2319F01123A1F30B
:101EE0002BC1112359F0093309F037C1FFEF27EE59
:101EF00083E0F15020408040E1F72DC18C2F0E94FB
:101F0000CC0E3FC18C2F86958695837019F0813059
:101F100061F037C1DD2321F0802F9C2F937002C028
:101F200080E090E00E94820C34C1DD2321F0802FFC
:101F30009C2F937002C080E090E00E94980C29C111
:101F4000802FDD2319F00E94371C02C00E949F1CC5
:101F50000E94241D1EC18C2F837009F045C0D11131
:101F600014C1402F429546954770440F440F602F8F
:101F70006F70862F90E0A0E0B0E0042E04C0880FC0
:101F8000991FAA1FBB1F0A94D2F704FF10C00FE0CD
:101F900010E020E030E004C0000F111F221F331FAB
:101FA0004A95D2F7009510952095309503C000E032
:101FB00010E09801C695C695C370BC01CD01602B99
:101FC000712B822B932BC23049F058F4C13019F099
:101FD0000E946715DAC00E945515D7C00E94791576
:101FE000D4C00E945315D1C0DD2319F08C2F81700D
:101FF00001C08695882309F4C8C0402F42954695B4
:102000004770440F440F602F6F70862F90E0A0E060
:10201000B0E0042E04C0880F991FAA1FBB1F0A94AA
:10202000D2F704FF10C00FE010E020E030E004C061
:10203000000F111F221F331F4A95D2F700951095EC
:102040002095309503C000E010E09801C695C69534
:10205000C370BC01CD01602B712B822B932BC2303E
:1020600049F058F4C13019F00E942C168EC00E941D
:102070001A168BC00E943E1688C00E948D1585C01E
:10208000CF70DD2339F08C2F0E94B315802F0E9472
:10209000C50E7BC0802F0E94CC0E8C2F0E94D415C1
:1020A00074C0023F01F128F4003F41F0013FA1F06C
:1020B0003FC0033FF9F0043F39F13AC0DD2341F05E
:1020C000153008F05EC08C2F8F710E94F91559C031
:1020D000163008F056C0F7CFDD2339F08C2F8F7102
:1020E0000E94B3154EC0DD23C9F38C2F8F710E945F
:1020F000D41547C0DD2329F08C2F8F710E949E15C7
:1021000040C00E9499153DC0DD2349F0CF718C2F4E
:102110000E94B31563E08C2F0E94B11732C081E09A
:102120000E94C617123068F182E00E94C61729C0CB
:10213000DD2331F0112391F2802F0E94A00D21C0E8
:10214000112399F2093349F49FEFE7EEF3E0915040
:10215000E040F040E1F700C00000802F0E944A0EEE
:1021600010C04C2F4F70602FC7010E94F4030E94D3
:10217000C4140FC04C2F4F70602FC7010E94F7038B
:1021800008C088EF8C0D843020F40E944E0C0E9411
:102190009203DD20C9F00E94201780FD15C0F701D1
:1021A00012820E941A170E94B315C7010E940511DE
:1021B0000E941A17DF91CF911F910F91FF90EF901E
:1021C000DF90CF900C94D415DF91CF911F910F9198
:1021D000FF90EF90DF90CF9008950F931F93CF93D0
:1021E000DF93EC01688179818A810E94F7168C0166
:1021F0000E9450160E944115B801CE010E94D30ED4
:10220000DF91CF911F910F910895CF93DF93EC0150
:10221000988189812B813C81232B31F08F3F31F4D0
:1022200081E09F3F19F403C081E001C080E080FDA0
:1022300019C0CE010E94AB0381110CC00E9424176B
:10224000882381F08A81882369F082E0DF91CF9131
:102250000C94C617CE010E94ED10CE01DF91CF91F4
:102260000C947203DF91CF910895882321F00E948E
:1022700041170C947C170895882321F00E9447177A
:102280000C947C1708950E944E170E945E170E94BE
:102290007C170E944E1E0E94241D80E090E00E9448
:1022A000820C80E090E00C94980C8091F901909160
:1022B000FA010E9445190C9443110E943E170C9498
:1022C0005511E92FE295EF704E2F50E0FA01329749
:1022D000EE30F105B0F4EA59FF4F0C94B125803F80
:1022E00091F018F4883E68F40EC0843F51F40BC09E
:1022F000883E48F0813F29F406C093FB882780F987
:10230000089580E0089581E008950E94EC160E94EF
:1023100061110895CF93DF9300D000D01F92CDB705
:10232000DEB70F900F900F900F900F90DF91CF912D
:102330000895CF93DF9300D000D000D0CDB7DEB7A3
:1023400026960FB6F894DEBF0FBECDBFDF91CF91BA
:1023500008951F93CF93DF93C091C60216E080913A
:10236000C702C81799F0D0E01C9FF0011D9FF00D27
:102370001124E853FD4F4081518162817381848132
:1023800095810E9499112196C770E9CFDF91CF9175
:102390001F9108954091F8025091F9026091FA025C
:1023A0007091FB028091FC029091FD020C949911B6
:1023B0000F931F93CF93DF938091FD0282958F70CF
:1023C00009F05DC08091FA02882309F458C0809119
:1023D000C6021091C7026091F8027091F902C09193
:1023E000FB02D091FC0291E06F3F09F090E0292FB1
:1023F00006E0811709F443C0209721F07F3F21F0C8
:1024000030E003C031E001C0322F90E030FD34C035
:10241000089FF001099FF00D1124DF01A853BD4F63
:1024200011963C911197371327C03C91361324C065
:1024300012963C91129731111FC013964D915C91E9
:1024400014974C1B5D0B483C5105B0F48091FD0284
:102450008F7080618093FD02E353FD4F80818F7008
:102460008061808388EF92E00E940511DF91CF9117
:102470001F910F910C94A91101968770BACFDF912B
:10248000CF911F910F9108959F92AF92BF92CF92DB
:10249000DF92EF92FF920F931F93CF93DF93CDB70D
:1024A000DEB761970FB6F894DEBF0FBECDBF8C01CB
:1024B00085E0F801DE011D9601900D928A95E1F705
:1024C000F80140815181E2809091F8026091F90217
:1024D0002091FB023091FC022115310531F06F3F54
:1024E00031F481E09F3F19F403C081E001C080E036
:1024F000F82FF1709F2E80FD46C1F801A380B480B3
:1025000088EFC82E82E0D82EF090FA02F501E21B87
:10251000F30BFF2009F4DFC08091FD02E83CF105D8
:1025200008F09BC0282F207F09F052C0561313C01B
:10253000491311C0FE2CE1100EC08F708061809392
:10254000FD020E94CA11C6010E9405118091FD0280
:10255000F801858358C1AB2831F05F3F31F481E049
:102560004F3F19F403C081E001C080E080FD03C04B
:1025700081E08E2502C080E090E0F82FF170FF2E00
:1025800080FF1CC08091C6022091C70236E08217EE
:1025900009F417C190E0389FF001399FF00D112424
:1025A000E853FD4F6181561306C06081461303C096
:1025B0006281E61203C001968770E9CFFE2CEE20FF
:1025C00009F421C18091FD0281608093FD025AC00F
:1025D000561306C0491304C0E11002C0F8019FC0A1
:1025E0004D875E878D859E850E948511882379F1B0
:1025F000EE2069F12091FD02822F82958F7090E08C
:10260000029774F08091F8029091F90298878F8375
:102610001986BB86AA862C87CE0107960E940511D3
:1026200086E0F801A8EFB2E001900D928A95E1F7FB
:102630000E94D8110E94CA110DC0561729F14D876A
:102640005E878D859E850E94851181112CC0C801F1
:102650000E940511FF24F394D6C0282F207F69F72C
:102660007A2DB98AA88A6E2D89890E948A1188EFED
:1026700092E00E94051186E0F60111928A95E9F731
:102680000E94CA11F12CBFC04913D9CFE110D7CF96
:10269000F8018583C8010E94051186E0F6011192B8
:1026A0008A95E9F7B0C0EE2091F22091FD02822FC9
:1026B00082958F7090E002970CF4B2CF8091F8026F
:1026C0009091F9029A8389831B82BD82AC822E830A
:1026D000CE010196A3CFE83CF10508F047C0FE2CDF
:1026E000EE2009F4B4CF561330C049132EC0209108
:1026F000FD0220FD21C0822F82958F70482F50E06F
:1027000041155105C9F0F80125834F30510541F0BD
:102710008F5F982F9295907F822F8F70892B858362
:10272000C8010E94051186E0F801A8EFB2E001900F
:102730000D928A95E1F742C086E0F801A8EFB2E079
:1027400001900D928A95E1F75EC04D875E878D8579
:102750009E850E948511811163CF8091FD02816069
:102760008093FD02C8010E9405114DC07A2DB98ADF
:10277000A88A6E2D89890E948A1186E0F60111923D
:102780008A95E9F71BC0EE2009F461CF4D875E877B
:102790008D859E850E948511F82E882309F457CFD8
:1027A00086E0F801A8EFB2E001900D928A95E1F77A
:1027B00088EF92E00E949A0D0E94D8110E94CA11DF
:1027C00022C04D875E878D859E850E94EC16292F3D
:1027D00022952F70223028F49F7039F0811105C0A6
:1027E0000BC0243028F49F7049F4805E883020F0BC
:1027F000C8010E9405119F2CF92C05C0F801958194
:10280000907F99F7F9CF8F2D61960FB6F894DEBFC0
:102810000FBECDBFDF91CF911F910F91FF90EF9031
:10282000DF90CF90BF90AF909F9008951F93CF936C
:10283000DF93CDB7DEB72C970FB6F894DEBF0FBE8F
:10284000CDBF4F83588769877A878B879C87CE0156
:1028500007960E9444128823D1F09F8188852A859B
:102860003B85232B31F08F3F31F481E09F3F19F4FA
:1028700003C081E001C080E080FD47C04F815885E2
:1028800069857A858B859C850E9499113EC086E07A
:10289000FE013796DE01119601900D928A95E1F7BF
:1028A000FF81E8856A857B856115710531F0EF3F11
:1028B00031F481E0FF3F19F403C081E001C080E002
:1028C00080FD23C02091C70230E0C90101968770C6
:1028D00099274091C60250E084179507F1F1F983DA
:1028E000EA837D836C8396E0929FD001939FB00D25
:1028F0001124A853BD4FFE01319601900D929A9577
:10290000E1F78093C7020E94A91116E08091C602E8
:102910009091C702891771F1189FC0011124885343
:102920009D4F0E944412882329F1E091C6021E9F08
:10293000F0011124E853FD4F408151816281738180
:10294000848195810E9499118091C60290E0019640
:10295000877099278093C602D9CF0E945D1110928B
:10296000C7021092C602E8EFF2E086E0DF011D9296
:102970008A95E9F72C960FB6F894DEBF0FBECDBF4F
:10298000DF91CF911F910895EF92FF920F931F93C4
:10299000CF93DF938C01892B09F46CC0F12CEE24CA
:1029A000E394E8012196F8018491843740F484305F
:1029B00008F051C0813081F0823019F15BC0853759
:1029C00009F444C0A8F19CE7980F903708F052C072
:1029D0008F770E944A0E41C00E5F1F4FFE01849107
:1029E00090E2980F983050F48770FE2D01C0FF0FD1
:1029F0008A95EAF78F2F0E94511714C00E94A00DEC
:102A00002DC00E5F1F4FFE01849190E2980F983009
:102A100060F48770FE2D01C0FF0F8A95EAF78F2FB3
:102A20000E9457170E947C1719C00E944A0E16C0B8
:102A30000E5F1F4FFE01C491CC2381F08FE99FE010
:102A40000197F1F700C00000C150F6CF0E5F1F4F95
:102A5000FE01F49003C00E94A00D8E018F2D8823EB
:102A600009F49FCFEFE9FFE03197F1F700C00000D4
:102A70008150F5CFDF91CF911F910F91FF90EF9093
:102A80000895089508950C9442150C9443150E94DE
:102A90004515609316037093170380931803909362
:102AA00019030C9443110C9447150F931F93009135
:102AB0001603109117032091180330911903602B0E
:102AC000712B822B932B1F910F910C9447150F9311
:102AD0001F93009116031091170320911803309152
:102AE000190360237123822393231F910F910C9468
:102AF00047150F931F930091160310911703209110
:102B000018033091190360277127822793271F919B
:102B10000F910C9447150C9442150E948B156093ED
:102B200012037093130380931403909315030C9472
:102B3000431160E070E0CB010C948D150F931F934F
:102B400041E050E060E070E08A019B0104C0000FAA
:102B5000111F221F331F8A95D2F7C901B8011F9197
:102B60000F910C948D150F931F9341E050E060E09E
:102B700070E004C0440F551F661F771F8A95D2F777
:102B80008091120390911303A0911403B091150347
:102B90008A019B01082B192B2A2B3B2BC901B80159
:102BA0001F910F910C948D150F931F9341E050E0EE
:102BB00060E070E004C0440F551F661F771F8A95C0
:102BC000D2F7409550956095709580911203909141
:102BD0001303A0911403B09115038A019B010823EC
:102BE00019232A233B23C901B8011F910F910C948B
:102BF0008D150F931F9341E050E060E070E004C03A
:102C0000440F551F661F771F8A95D2F780911203D4
:102C100090911303A0911403B09115038A019B01B5
:102C2000082719272A273B27C901B8011F910F91AF
:102C30000C948D150F931F930091120310911303A1
:102C40002091140330911503602B712B822B932B51
:102C50001F910F910C948D150F931F9300911203E8
:102C600010911303209114033091150360237123F5
:102C7000822393231F910F910C948D150F931F9313
:102C80000091120310911303209114033091150346
:102C900060277127822793271F910F910C948D1520
:102CA0000895292F220F920F990F890FE82FE6958B
:102CB000E695E695877051E001C0550F8A95EAF7D1
:102CC00085E0E89FF0011124E250FD4F20E030E064
:102CD00070E04081CB01022E02C0969587950A9440
:102CE000E2F78170819584278523842781932F5F64
:102CF0003F4F2530310569F70895292F220F920F94
:102D0000990F890F682F669566956695982F97702D
:102D100085E0689FB001112440E050E080E0FB01B5
:102D2000E40FF51FE250FD4F208130E0092E02C074
:102D3000369527950A94E2F721703327042E01C0B7
:102D4000220F0A94EAF7822B4F5F5F4F45305105FF
:102D500031F70895BF92CF92DF92EF92FF920F93D7
:102D60001F93CF93DF938C01C0901203D090130375
:102D7000E0901403F09015038091160390911703CF
:102D8000A0911803B0911903C82AD92AEA2AFB2A6C
:102D9000CFE1D0E0D701C6010C2E04C0B695A795AF
:102DA000979587950A94D2F780FD04C0219790F7F4
:102DB000B12C07C0BC2EB8018C2F0E9413040197C0
:102DC000A9F38B2DDF91CF911F910F91FF90EF9081
:102DD000DF90CF90BF900895CF93DF93EC010E94D6
:102DE000AA16BE010E941304DF91CF9108951F938C
:102DF000CF93DF93EB019091C502992321F0CB0192
:102E00000E94EC1613C0882349F0CB010E94AA1639
:102E1000182F682FCE010E94511604C0CB010E94CA
:102E20007D16182FBE01812F0E941304DF91CF91D0
:102E30001F91089580911A0385958595859508952C
:102E400080911A038770089590911A03977081E01A
:102E500009F480E0089580913E03089590913E0327
:102E6000892B80933E030895809590913E0389239A
:102E700080933E03089580933E03089510923E038D
:102E8000089590913D03892B80933D03089580958B
:102E900090913D03892380933D03089510923D0353
:102EA000089590913C03892B80933C03089580956D
:102EB00090913C03892380933C03089510923C0336
:102EC000089580911B03089508950C9464170C9441
:102ED000651790911B03981721F080931B030C94A6
:102EE0006717089580911B03882329F010921B0314
:102EF00080E00C9467170895E091F901F091FA01D0
:102F000080913E038083E091F901F091FA01908174
:102F100080913D03892B8083E091F901F091FA01C2
:102F2000908180913C03892B808380911B038823AF
:102F300081F0E091F901F091FA019081892B808371
:102F40008091F9019091FA010E94991881110E94D3
:102F500072178091F9019091FA010C945A0C0C941B
:102F6000641798E0899F90011124262B20931A035F
:102F70000E94B31580911A038595859585950C94CB
:102F8000AF1710921A0380E00C94AF1720911A0328
:102F90008095822380931A03982F977079F430E0FC
:102FA000482F082E000C550B2417350739F085954E
:102FB000859585950E94D4150C94C117089580E0DD
:102FC00090E00E94D92521E08C3E9E4F09F020E040
:102FD000822F089582E090E00C94D125682F82E042
:102FE00090E00C94DF2583E090E00C94D125682FCD
:102FF00083E090E00C94DF25CF9384E090E00E9482
:10300000D125C82F81E290E00E94D1252C2F30E0FD
:10301000A901582BCA01CF910895CF93C92F682FCA
:1030200084E090E00E94DF256C2F81E290E0CF9158
:103030000C94DF2586E090E00C94D125682F86E083
:1030400090E00C94DF25AB01BC018FE090E00C9484
:10305000F125AB01BC0183E190E00C94F12560E027
:1030600070E0CB010C94291860E070E0CB010E9465
:1030700023180C942F186CEE7EEF80E090E00E94F5
:10308000FD2560E082E090E00E94DF2560E083E0C3
:1030900090E00E94DF251092160310921703109201
:1030A00018031092190360E084E090E00E94DF258D
:1030B00060E081E290E00E94DF2560E085E090E042
:1030C0000E94DF2560E086E090E00E94DF256FEF40
:1030D00087E090E00E94DF2540E050E0BA0188E000
:1030E00090E00E94F12560E08DE090E00E94DF25F5
:1030F00040E050E0BA0188E190E00E94F12560E0F4
:1031000087E190E00E94DF2540E050E0BA018CE1C9
:1031100090E00E94F12560E080E290E00E94DF25CF
:103120000C9434180C943B18682F8EE090E00C94AB
:10313000DF25FC01329680910D02882331F08091C9
:10314000810387FF02C09EE101C096E080E09150BC
:1031500028F021912223D9F38F5FF9CF08956623B8
:1031600051F120910D022223E9F02091810327FFE4
:1031700019C0462F4695469546954E31E0F4677046
:1031800021E030E002C0220F331F6A95E2F7FC0114
:10319000E40FF11D828190E02823392381E0232B65
:1031A00069F409C0FC01329608962191621729F052
:1031B000E817F907D1F780E0089581E008959C01B0
:1031C000FC0132969FEF80E04191461789F09F3FC6
:1031D00019F4411101C0982F8F5F8630A9F79F3FE6
:1031E00039F0F901E90FF11D97FDFA956283089511
:1031F00008959C012A5F3F4FFC014281461301C0A4
:103200001282019682179307B9F70895262F269503
:10321000269526952E3168F4FC01E20FF11D6770AA
:1032200021E030E001C0220F6A95EAF78281282B65
:1032300022830895262F2695269526952E3170F403
:10324000FC01E20FF11D677021E030E001C0220FA8
:103250006A95EAF720958281282322830895209198
:103260000D02222329F02091810327FD0C940619D9
:103270000C94DF1820910D02222329F02091810364
:1032800027FD0C941A190C94F91820910D02FC01D9
:103290003296222331F08091810387FF02C08EE1B4
:1032A00001C086E0DF011D928A95E9F7089508952F
:1032B0000C9457190C945719CF930E945A190E94D5
:1032C00066060E945819C0E08C2F0E9402068111E8
:1032D00004C0CF5FC530C1F701C081E0CF91089530
:1032E0000C9457190C9470190E94721980918703DD
:1032F000843061F11092400320E488E190E00FB641
:10330000F894A895809360000FBE2093600080E041
:103310000E94320880E00E9492030E94721983B7D3
:10332000817F846083BF83B7816083BF78948895F1
:1033300083B78E7F83BF0FB6F894A8958091600005
:10334000886180936000109260000FBE08950C9415
:1033500057190E945D110E9423070E944E0C0E9483
:1033600092030C94A7191F920F920FB60F9211247B
:103370008F939F93AF93BF9380914003811113C0AC
:1033800080917D0390917E03A0917F03B091800393
:103390004196A11DB11D80937D0390937E03A09360
:1033A0007F03B0938003BF91AF919F918F910F9056
:1033B0000FBE0F901F90189582E084BD93E095BDDD
:1033C0009AEF97BD80936E0008952FB7F89480917F
:1033D0007D0390917E03A0917F03B09180032FBF66
:1033E00008959C014FB7F89480917D0390917E03DE
:1033F000A0917F03B09180034FBF821B930B089570
:1034000078941F920F920FB60F9211248F939F936F
:10341000AF93BF9380917D0390917E03A0917F0332
:10342000B09180030196A11DB11D80937D039093FF
:103430007E03A0937F03B0938003BF91AF919F91D0
:103440008F910F900FBE0F901F90189587E797E709
:1034500090930108809300089AE088E10FB6F894F1
:10346000A895809360000FBE90936000FFCFCF922D
:10347000DF92EF92FF920F931F93CF93C0E0E82E5D
:10348000F12C8C2F0E94020600E010E0C82ED12CF7
:10349000C601002E02C0959587950A94E2F780FD3B
:1034A00006C00F5F1F4F0630110591F70AC0602F4D
:1034B0007C2F80E00E94F803E816F90691F781E07E
:1034C00004C0CF5FC530E9F680E0CF911F910F9126
:1034D000FF90EF90DF90CF900895CF93C82F8CE2AC
:1034E0000E94371A882321F08C2FCF910C94371A21
:1034F00080E0CF910895CF930E94DF17811102C021
:103500000E949218C5E6C15049F00E9466068FE3FA
:103510009CE90197F1F700C00000F5CF89E20E9415
:103520006D1A811120C18AE20E946D1A81110E94D8
:10353000921885E00E946D1A81110E94261A0E943D
:10354000EA1780933F0387E00E946D1A8823A9F150
:103550008BE10E946D1A882351F080913F0381FB1B
:10356000222720F991E0922790FB81F90EC08EE08E
:103570000E946D1A882361F080913F0382FB22270D
:1035800020F991E0922790FB82F980933F0315C0C8
:1035900080E10E946D1A90913F03882341F093FBD4
:1035A000222720F981E0822780FB93F904C0892F2C
:1035B000809580FB90F990933F0380913F030E9498
:1035C000EE170E94FC17909382038093810380EE94
:1035D0000E946D1A882341F080918103982F909565
:1035E00090FB80F98093810389E30E946D1A882300
:1035F00059F08091810381FB222720F991E09227E5
:1036000090FB81F98093810382EE0E946D1A8823DA
:1036100059F08091810382FB222720F991E09227C3
:1036200090FB82F98093810386EE0E946D1A8823B5
:1036300059F08091810383FB222720F991E09227A2
:1036400090FB83F98093810383EE0E946D1A882397
:1036500059F08091810384FB222720F991E0922781
:1036600090FB84F98093810385E30E946D1A88237F
:1036700059F08091810385FB222720F991E0922760
:1036800090FB85F98093810381E30E946D1A882362
:1036900059F08091810386FB222720F991E092273F
:1036A00090FB86F98093810381E10E946D1A882343
:1036B00059F08091810387FB222720F991E092271E
:1036C00090FB87F98093810380918103909182031D
:1036D0000E940D1887E20E946D1AC82F8EE10E9489
:1036E0006D1A8111C2608FE10E946D1A8111C46050
:1036F00080E20E946D1A8111C86081E20E946D1AF9
:103700008111C06182E20E946D1A8111C06283E260
:103710000E946D1A8111C06484E20E946D1A882390
:1037200011F0C06802C0CC2329F08C2F0E94F7173B
:103730006C2F03C00E94F317682F70E080E090E0C8
:103740000E9453158FE00E946D1A882319F081E0C2
:103750000E94941885E10E946D1A882321F080E070
:10376000CF910C949418CF9108958091480380FFD5
:103770000BC06091000285E0689FB001112475952F
:103780006795759567952BC081FF09C06091000210
:1037900085E0689FB00111247595679520C082FF70
:1037A00007C06091000285E0689FB001112417C036
:1037B000909147039923D1F06091FF01961788F704
:1037C0002091000285E0289F90011124929FA00182
:1037D000939F500D112470E0CA010E947B25603830
:1037E000710540F46115710519F406C065E070E0DB
:1037F000862F08958FE7089581E00895809148030A
:1038000080FF08C06091FC0170E075956795759523
:10381000679521C081FF06C06091FC0170E075953D
:10382000679519C082FF04C06091FC0170E010C070
:1038300090914703992399F06091FB019617A0F7A7
:103840008091FC01899FC001112470E00E947B25BA
:103850006038710540F46115710519F406C061E026
:1038600070E0862F08958FE7089581E00895803FE6
:1038700021F40E94B51B819504C0813F29F40E9468
:10388000B51B80934C030895823F21F40E94B51B21
:10389000819504C0833F29F40E94B51B80934B039C
:1038A0000895893F19F40E94FE1B05C08A3F31F438
:1038B0000E94FE1B819580934D0308958B3F21F458
:1038C0000E94FE1B819504C08C3F29F40E94FE1BC0
:1038D00080934E030895843F21F480914A038160D0
:1038E00017C0853F21F480914A03826011C0863F52
:1038F00021F480914A0384600BC0873F21F48091BA
:103900004A03886005C0883F31F480914A03806192
:1039100080934A0308958D3F21F48091480381608C
:103920000BC08E3F21F480914803826005C08F3F19
:1039300029F4809148038460809348030895803F70
:1039400039F480914C0387FF6CC010924C0369C01E
:10395000813F29F480914C031816BCF362C090910A
:103960004B03823F29F497FF5CC010924B0359C070
:10397000833F19F41916CCF354C0893F41F4809168
:103980004D0318160CF04DC010924D034AC08A3FEB
:1039900029F480914D0387FF44C0F6CF8B3F39F463
:1039A00080914E0387FF3DC010924E033AC08C3F7A
:1039B00029F480914E031816BCF333C0843F21F4E0
:1039C00080914A038E7F17C0853F21F480914A037E
:1039D0008D7F11C0863F21F480914A038B7F0BC0FD
:1039E000873F21F480914A03877F05C0883F31F4E7
:1039F00080914A038F7E80934A0313C08D3F21F448
:103A0000809148038E7F0BC08E3F21F48091480344
:103A10008D7F05C08F3F29F4809148038B7F809371
:103A2000480380914B0381110EC080914C0381119A
:103A30000AC080914D03811106C080914E0381110F
:103A400002C010924703089589E493E00E94740C29
:103A50000E94E51990934603809345030895CF9300
:103A6000DF9300D000D000D0CDB7DEB786E0E9E428
:103A7000F3E0DE01119601900D928A95E1F78091B5
:103A80004B03811105C080914C03882309F47AC04F
:103A900080914303909144030E94F119AC019091ED
:103AA0004703992339F02091010230E024173507AC
:103AB00058F068C0209102028AE0289F90011124EA
:103AC0002417350718F05EC09F3F19F09F5F909351
:103AD000470310924D0310924E0380914B0318162A
:103AE00024F40E94B51B80934B0380914B0387FF06
:103AF00005C00E94B51B819580934B0380914C03B8
:103B0000181624F40E94B51B80934C0380914C033B
:103B100087FF05C00E94B51B819580934C033091AF
:103B20004B033323E1F020914C032223C1F045EBFA
:103B30003403C0011124992319F090934B0303C05F
:103B400081E080934B0335EB2303C00111249923BB
:103B500019F090934C0303C081E080934C030E94C2
:103B6000241D8091450390914603909344038093D4
:103B7000430386E0FE013196A9E4B3E001900D9283
:103B80008A95E1F780914D03811105C080914E0324
:103B9000882309F47AC080914103909142030E94E6
:103BA000F119AC0190914703992339F02091FD015F
:103BB00030E02417350758F068C02091FE018AE0F4
:103BC000289F900111242417350718F05EC09F3FED
:103BD00019F09F5F9093470310924B0310924C0390
:103BE00080914D03181624F40E94FE1B80934D0310
:103BF00080914D0387FF05C00E94FE1B8195809335
:103C00004D0380914E03181624F40E94FE1B8093EE
:103C10004E0380914E0387FF05C00E94FE1B8195D5
:103C200080934E0330914D033323E1F020914E03F6
:103C30002223C1F045EB3403C0011124992319F06C
:103C400090934D0303C081E080934D0335EB230334
:103C5000C0011124992319F090934E0303C081E011
:103C600080934E030E94241D80914503909146034A
:103C7000909342038093410386E0FE013196A9E4CC
:103C8000B3E001900D928A95E1F726960FB6F8946D
:103C9000DEBF0FBECDBFDF91CF910895E9E4F3E021
:103CA00086E0DF011D928A95E9F710924703109292
:103CB0004803089580916F030895CF93DF9300D058
:103CC0001F92CDB7DEB790918703943019F58983A1
:103CD0007B836A8382E08093E9008FEF9091E80014
:103CE000815095FD06C095ED9A95F1F70000811180
:103CF000F5CF8091E80085FF0DC040E050E063E023
:103D000070E0CE0101960E94B9208091E8008E7784
:103D10008093E8000F900F900F90DF91CF9108955E
:103D2000CF93DF93EC010E949C20823011F084300D
:103D300031F4BE0184E0DF91CF910C945D1EDF91E0
:103D4000CF910895BC0183E00C945D1ECF93DF9367
:103D5000EC010E949C20823011F08430F9F482E062
:103D60008093E9008FEF9091E800815095FD06C0A7
:103D700095ED9A95F1F700008111F5CF8091E8005B
:103D800085FF0CC040E050E066E070E0CE010E948C
:103D9000B9208091E8008E778093E800DF91CF9181
:103DA0000895CF93DF93EC010E949C20823011F0A4
:103DB0008430D9F580910D02882339F080918103F8
:103DC00087FF03C060E282E002C068E081E0809388
:103DD000E9008FEF9091E800815095FD06C095EDC8
:103DE0009A95F1F700008111F5CF8091E80085FFE9
:103DF0001CC080910D02811105C040E050E068E0D8
:103E000070E003C070E040E050E0CE010E94B920B5
:103E10008091E8008E778093E80080E2FE01AFE4B5
:103E2000B3E001900D928A95E1F7DF91CF9108956B
:103E300080918603811109C00E944A220E94A72214
:103E40008091E20084608093E200089510928603DE
:103E50000895089508950C94A91942E061EC81E059
:103E60000E94C32142E261EC82E00C94C321809164
:103E70008903833009F460C030F4813071F08230FE
:103E800009F499C008958A3009F485C08B3009F48B
:103E90006BC0893009F0A7C020C080918803813AA7
:103EA00009F0A1C08091E800877F8093E8008091AD
:103EB0008C0390918D03892B21F460E28FE493E0D1
:103EC00003C060E080E090E070E00E9404218091F7
:103ED000E8008B778093E800089580918803813211
:103EE00009F081C080918C0390918D03029708F0B6
:103EF0007AC08091E800877F8093E8008091E80095
:103F000082FD05C0809187038111F8CF6CC020919C
:103F1000F3008091F20090E0922B029729F48091B7
:103F2000F1008B7F813021F48091F10080936F0349
:103F30008091E8008B7753C080918803813A09F023
:103F400052C080918C0390918D03892B09F04BC056
:103F50008091E800877F8093E8008091E80080FFEF
:103F6000FCCF80910D0236C0809188038132D9F553
:103F700080918C0390918D03892BA9F58091E800A5
:103F8000877F8093E8000E94F82180918A038093C4
:103F90000D020C945D1180918803813221F580918E
:103FA000E800877F8093E8000E94F82180918B03CE
:103FB00080937003089580918803813AA1F48091E1
:103FC000E800877F8093E8008091E80080FFFCCFC5
:103FD000809170038093F1008091E8008E77809348
:103FE000E8000C94F821089584B7877F84BF0FB64A
:103FF000F894A89580916000886180936000109289
:1040000060000FBE90E080E80FB6F89480936100E6
:10401000909361000FBE0E94BE0C0E944A220E9433
:10402000A7228091E20084608093E20078940E944D
:104030003C250E94C80C83E092E00E94490C8091CC
:104040008703853069F40E94741980918503882361
:10405000B1F30E945C19882391F30E94A320EFCF53
:104060000E94D20CECCF0C943520292F332723301B
:104070003105C9F060F42130310581F0223031057D
:1040800009F04AC08BE390E02AE532E049C02132D2
:10409000310511F12232310579F13EC082E190E023
:1040A00025E932E03DC099278130910561F040F06B
:1040B0008230910559F0039779F5ECE1F2E008C000
:1040C000E6E5F2E005C0E4E3F2E002C0E2E2F2E09D
:1040D000849190E09F0124C06115710541F0613029
:1040E0007105D1F489E090E025E832E019C089E05B
:1040F00090E02CE632E014C06115710541F06130AA
:10410000710551F48CEB90E027EA32E009C080E4BD
:1041100090E023E633E004C080E090E020E030E06F
:10412000FA0131832083089580918703843011F050
:1041300081E0089582E0089580917103811102C0A9
:104140000C949420089580E189BD82E189BD09B471
:1041500000FEFDCF8091D8008F7D8093D8008091A4
:10416000E00082608093E0008091E00081FDFCCF60
:104170000895CF92DF92EF92FF920F931F93CF9308
:10418000DF93EC018B017A010E941722811133C069
:10419000E114F10439F0F70180819181081B190BBA
:1041A000C80FD91FC12CD12C0115110519F180910F
:1041B000E80085FD16C08091E8008E778093E800C6
:1041C000E114F10449F0F70180819181C80ED91EF4
:1041D000D182C08285E00FC00E941722882321F37C
:1041E0000AC089918093F10001501109FFEFCF1AA5
:1041F000DF0ADACF80E0DF91CF911F910F91FF901E
:10420000EF90DF90CF90089520918E0330918F032F
:104210002617370748F06115710539F42091E80039
:104220002E772093E80001C0B901FC0120E0611560
:10423000710579F1809187038823F1F18530F1F1DF
:104240008091E80083FD3CC08091E80082FD2EC093
:104250008091E80080FFEBCF2091F3008091F20085
:1042600090E0922B6115710551F08830910538F47A
:1042700021912093F100615071090196F3CF21E063
:10428000089709F020E08091E8008E778093E8009D
:10429000CECF2111CFCF0AC080918703882361F050
:1042A000853061F08091E80083FD0AC08091E800CC
:1042B00082FFF2CF80E0089582E0089583E00895C0
:1042C00081E0089520918E0330918F0326173707E0
:1042D00048F06115710539F42091E8002E7720939C
:1042E000E80001C0B901FC0120E06115710591F100
:1042F00080918703882309F440C0853009F43FC0CA
:104300008091E80083FD3DC08091E80082FD2FC0D0
:104310008091E80080FFE9CF2091F3008091F200C6
:1043200090E0922B6115710559F08830910540F4A9
:1043300024912093F1003196615071090196F2CFDA
:1043400021E0089709F020E08091E8008E778093C3
:10435000E800CBCF2111CCCF0AC0809187038823FE
:1043600061F0853061F08091E80083FD0AC08091A2
:10437000E80082FFF2CF80E0089582E0089583E0B4
:10438000089581E00895982F973068F59093E9009B
:10439000981739F07091EC002091ED005091F000E9
:1043A00003C0242F762F50E021FD02C09F5FECCF89
:1043B0003091EB003E7F3093EB003091ED003D7F7C
:1043C0003093ED003091EB0031603093EB0070934F
:1043D000EC002093ED005093F0002091EE0027FDBB
:1043E000E5CF80E008958F708093E90081E0089523
:1043F0008091880387FF11C08091E80082FD05C08D
:10440000809187038111F8CF11C08091E8008B77EC
:104410000BC080918703882349F08091E80080FFDA
:10442000F8CF8091E8008E778093E800089520917E
:10443000E4003091E50095E64091EC00842F817016
:1044400040FF23C08091E80080FD1DC0809187035C
:10445000882399F0853099F08091EB0085FD11C09B
:104460004091E4005091E5002417350729F391505D
:1044700011F09A01E1CF84E0089582E0089583E08D
:10448000089581E0089580E008954091E80042FF9A
:10449000DDCF08950E94B8220E94C022E0EEF0E035
:1044A000808181608083E8EDF0E080818F77808378
:1044B00019BCA7EDB0E08C918E7F8C9380818F7EAC
:1044C00080831092860308950F931F93CF93DF93F9
:1044D0000E94B8220E94C022C8EDD0E088818F7768
:1044E000888388818068888388818F7D888319BCD0
:1044F0001092870310928303109285031092840315
:1045000000EE10E0F80180818B7F808388818160DC
:10451000888342E060E080E00E94C321E1EEF0E0A9
:1045200080818E7F8083E2EEF0E0808181608083F5
:10453000808188608083F80180818E7F808388817C
:1045400080618883DF91CF911F910F910895E8EDED
:10455000F0E080818F7E8083E7EDF0E080818160F4
:10456000808384E082BF81E0809386030C94642280
:10457000E8EDF0E080818E7F80831092E200089564
:104580001092DA001092E10008951F920F920FB678
:104590000F9211242F933F934F935F936F937F93C9
:1045A0008F939F93AF93BF93EF93FF938091E1001D
:1045B00082FF0BC08091E20082FF07C08091E10082
:1045C0008B7F8093E1000E943B258091DA0080FF81
:1045D0001FC08091D80080FF1BC08091DA008E7FC1
:1045E0008093DA008091D90080FF0DC080E189BD01
:1045F00082E189BD09B400FEFDCF81E0809387038D
:104600000E94181F05C019BC109287030E94261F24
:104610008091E10080FF19C08091E20080FF15C009
:104620008091E2008E7F8093E2008091E2008061C1
:104630008093E2008091D80080628093D80019BCFA
:1046400085E0809387030E942A1F8091E10084FF08
:1046500030C08091E20084FF2CC080E189BD82E1FE
:1046600089BD09B400FEFDCF8091D8008F7D809375
:10467000D8008091E1008F7E8093E1008091E2007C
:104680008F7E8093E2008091E20081608093E2005F
:1046900080918303882311F084E007C08091E300B8
:1046A00087FD02C081E001C083E0809387030E9400
:1046B0002B1F8091E10083FF29C08091E20083FFDE
:1046C00025C08091E100877F8093E10082E08093A4
:1046D0008703109283038091E1008E7F8093E10035
:1046E0008091E2008E7F8093E2008091E200806101
:1046F0008093E20042E060E080E00E94C32180916C
:10470000F00088608093F0000E94291FFF91EF91D4
:10471000BF91AF919F918F917F916F915F914F91D9
:104720003F912F910F900FBE0F901F9018951F92E1
:104730000F920FB60F9211242F933F934F935F93D5
:104740006F937F938F939F93AF93BF93CF93DF9399
:10475000EF93FF93C091E900CF708091EC00D82FC8
:10476000D17080FDD0E81092E9008091F000877F41
:104770008093F00078940E94DB231092E9008091EE
:10478000F00088608093F000CD2BCF70C093E900DB
:10479000FF91EF91DF91CF91BF91AF919F918F9159
:1047A0007F916F915F914F913F912F910F900FBE2D
:1047B0000F901F9018951F93CF93DF93CDB7DEB75F
:1047C000AA970FB6F894DEBF0FBECDBFE8E8F3E0BE
:1047D0008091F100819323E0E039F207C9F70E944C
:1047E000371F8091E80083FF2EC18091880390914C
:1047F0008903492F50E04A30510508F024C1FA01DD
:10480000EC58FF4F0C94B125803821F0823809F024
:104810001AC108C08091840390918503992389F07F
:1048200082600FC080918C038F70873008F00BC1BD
:104830008093E9008091EB0085FB882780F9109236
:10484000E9009091E800977F9093E8008093F10051
:104850001092F100D1C0282F2D7F09F0F4C08823D9
:1048600019F0823061F0EFC080918A03813009F045
:10487000EAC0933009F080E0809385032EC08091D8
:104880008A0381112AC080918C038F702FEF280F2B
:10489000263008F0D8C08093E9002091EB0020FF7B
:1048A0001CC0933021F48091EB00806214C0909181
:1048B000EB0090619093EB0021E030E0A90102C091
:1048C000440F551F8A95E2F74093EA001092EA00E0
:1048D0008091EB0088608093EB001092E90080915A
:1048E000E800877F8093E8000E94F821ACC0811126
:1048F000AAC010918A031F778091E3008078812BF2
:104900008093E3008091E800877F8093E8000E9415
:10491000F8218091E80080FFFCCF8091E30080685F
:104920008093E300111102C082E001C083E0809314
:10493000870389C08058823008F085C080918A033F
:1049400090918B038C3D53E0950779F583E08A8342
:104950008AE289834FB7F894DE01139620E03EE0A7
:1049600051E2E32FF0E050935700E49120FF03C0A1
:10497000E295EF703F5FEF708E2F90E0EA3010F01D
:10498000C79601C0C0968D939D932F5F243149F740
:104990004FBF8091E800877F8093E8006AE270E073
:1049A000CE0101960E94042116C060918C03709183
:1049B0008D03AE014F5F5F4F0E943320BC01892BF6
:1049C00009F441C09091E800977F9093E8008981B5
:1049D0009A810E9462218091E8008B778093E800A1
:1049E00032C0803881F58091E800877F8093E800AD
:1049F000809183038093F1008091E8008E7772CFDD
:104A0000811121C080918A0390918B03992702978D
:104A1000D4F48091E800877F8093E80080918A0336
:104A2000809383030E94F82180918303811106C043
:104A30008091E30087FD02C081E001C084E08093A3
:104A400087030E942D1F8091E80083FF0AC0809198
:104A5000E800877F8093E8008091EB00806280937C
:104A6000EB00AA960FB6F894DEBF0FBECDBFDF9164
:104A7000CF911F9108950895CF9380918703882344
:104A8000A1F0C091E900CF709091EC00892F817066
:104A900090FD80E8C82B1092E9008091E80083FD2A
:104AA0000E94DB23CF70C093E900CF910895DB0112
:104AB0008F939F930E94C625BF91AF91A29F800DB7
:104AC000911DA39F900DB29F900D11240895AA1BD4
:104AD000BB1B51E107C0AA1FBB1FA617B70710F0E9
:104AE000A61BB70B881F991F5A95A9F7809590951B
:104AF000BC01CD01089597FB072E16F4009407D052
:104B000077FD09D00E94672507FC05D03EF49095FB
:104B100081959F4F0895709561957F4F0895A1E20B
:104B20001A2EAA1BBB1BFD010DC0AA1FBB1FEE1F27
:104B3000FF1FA217B307E407F50720F0A21BB30B72
:104B4000E40BF50B661F771F881F991F1A9469F7EE
:104B500060957095809590959B01AC01BD01CF014A
:104B60000895EE0FFF1F0590F491E02D0994A29F88
:104B7000B001B39FC001A39F700D811D1124911D31
:104B8000B29F700D811D1124911D08950E94B725BB
:104B9000A59F900DB49F900DA49F800D911D112491
:104BA0000895F999FECF92BD81BDF89A992780B5F5
:104BB0000895A8E1B0E042E050E00C940526262FCD
:104BC000F999FECF92BD81BDF89A019700B4021603
:104BD00039F01FBA20BD0FB6F894FA9AF99A0FBEB1
:104BE00008950396272F0E94E0250E94DF25252F98
:104BF0000E94E025242F0C94E0250196272F0E9487
:104C0000E0250C94DF25DC01CB01FC01F999FECFF6
:104C100006C0F2BDE1BDF89A319600B40D92415044
:0A4C20005040B8F70895F894FFCF54
:104C2A00160229000010024C00000A022B000004A0
:104C3A0002000000FE01000000F801041100F20168
:104C4A00000000EC010000002F0008002F020800FD
:104C5A002F000C002F020C002F0012002F0018004A
:104C6A002F00040000000000000000000000000007
:104C7A00000000000000000000000000000000002A
:104C8A00000000000000000000000000000000001A
:104C9A00000000000000000000000000000000000A
:104CAA0000000000000000000000000000000000FA
:104CBA0037001E02360023022C002A002414200288
:104CCA0025141F022602261427022714081420136B
:104CDA0021021C1336023702161116132F00341341
:104CEA002F0233132F1433112F13321330143013AE
:104CFA000613151336141D1437141B141F02200231
:104D0A002402351433022E002E1464133011331486
:104D1A005500220257003613011C032808641E148A
:104D2A000A321E5A1ED11EA61EA21E901E01E200A3
:104D3A00E900EA00B500B600B700CD008301CC0057
:104D4A008A019201940121022302240225022602E9
:104D5A0027022A02B300B4006F00700081828334F4
:104D6A00C697669490F731333236E200E900EA00DA
:104D7A00B500B600B700CD008301CC008A019201CC
:104D8A0094012102230224022502260227022A0272
:0C4D9A00B300B4006F0070008182830041
:00000001FF
