:100000000C941E020C9465020C9465020C9465021B
:100010000C9465020C9465020C9465020C946502C4
:100020000C9465020C9465020C94C9250C949B26D3
:100030000C94D51C0C9465020C9465020C9465021A
:100040000C9465020C9465020C9465020C94650294
:100050000C9465020C94221D0C9465020C946502AC
:100060000C9465020C9465020C9465020C94650274
:100070000C9465020C9465020C9465020C94650264
:100080000C9465020C9465020C9465020C94650254
:100090000C9465020C9465020C9465020C94650244
:1000A0000C9465020C9465020C946502DA11DA1165
:1000B0000C120C12591277129813981382121713FC
:1000C0002813281388139813981391134D144D1463
:1000D0005F145F1456145F145F145F144D144D14B5
:1000E0005B145F145F145B1408272F2727282F2722
:1000F00027287B279E272728F5270428060013009A
:10010000120019001A000D00070018001B00100053
:100110000F000C0008001500325D335D170016005B
:100120000400110009001C0014000B0028005A5D97
:100130000A0005000E001D0030002D5D2E5D12111D
:100140002B5D111364002F5D305D101100002C5DDC
:10015000380034002A5D2E1100003F5D320000009F
:1001600000000000405D415D01000100425D435D13
:10017000445D37114A5D495D345D355D3C5D585DD8
:10018000545D555D565D595D3D5D3E5D365D375D47
:100190003B5D2D00515D525D535D4D5D465D475D9C
:1001A000385D395D3A5D4B5D4E5D4F5D505D575D2D
:1001B000A9004E0049004B00E200E6003A003B0077
:1001C0003C003D00AA004A0052004D00E100E00062
:1001D0003E003F00400041006500500051004F00CC
:1001E0000100010042004300440045000D001B00D7
:1001F00000001A001B00000019001B000000120084
:100200001B00000013001B00000006001B00000084
:100210000D00100000001A0010000000190010006E
:100220000000120010000000130010000000060083
:100230001000000005000E0000000E001D00000070
:1002400005000E001D00000009001C001400000045
:100250001C001400000009001C0000000400110034
:100260000000160004000000160004001100000049
:100270000F000C00080000000C00080000000F0038
:100280000C0000003C5D585D000028005A5D000035
:1002900010001B000000060013000000040008000E
:1002A00000001200080000004B5D2D000000585DAA
:1002B0002D000000335D325D000010034700680030
:1002C000650072006B0069006E00000020033400BE
:1002D00030002000500065007200630065006E0071
:1002E0007400200043006C007500620000000403ED
:1002F000090409023B00020100A0FA090400000100
:1003000003010100092111010001224000070581BC
:100310000308000A0904010001030000000921117B
:1003200001000122BC000705820320000A1201100F
:100330000100000008EDFE606001000102000105FF
:10034000010902A10185020901A10005091901297C
:10035000051500250195057501810295017503813B
:10036000010501093009311581257F950275088144
:100370000609381581257F950175088106050C0A47
:1003800038021581257F950175088106C0C00501D9
:100390000980A101850319012AB700150126B700BC
:1003A000950175108100C0050C0901A10185041992
:1003B000012AA002150126A002950175108100C036
:1003C00005010906A1018505050719E029E71500C2
:1003D00025019508750181020507190029EF15000F
:1003E000250195F07501810205081901290595057A
:1003F00075019102950175039101C005010906A1DE
:1004000001050719E029E715002501950875018107
:10041000029501750881010507190029FF150026BD
:10042000FF00950675088100050819012905950545
:1004300075019102950175039101C00011241FBE41
:10044000CFEFDAE0DEBFCDBF04B603FE27C0809158
:10045000690490916A04A0916B04B0916C04873098
:10046000904BA740B04BD1F41092690410926A04EB
:1004700010926B0410926C0414BE84B7877F84BF03
:100480000FB6F894A8958091600088618093600011
:10049000109260000FBEE0E0F8E3099513E0A0E0E1
:1004A000B1E0E2E3F2E502C005900D92AC30B10795
:1004B000D9F724E0ACE0B3E001C01D92A936B20741
:1004C000E1F70E9409230C9417290C940000EF9285
:1004D000FF920F931F93CF93880F991F880F991F37
:1004E000FC01E85CF34700811181E280F380FB01AD
:1004F00082818823C1F00E94461AC82F823049F4B5
:100500000E94591AC7010E9408038C2F0E94561A94
:1005100010C08032A9F30E94FC0E81FDF1CFC8010A
:100520000E94080306C0C7010E941E03C8010E9462
:100530001E0381E0CF911F910F91FF90EF900895DE
:10054000EF92FF921F93CF93DF93FB01228122232F
:10055000C9F0FC01EE0FFF1FEE0FFF1FE450F34741
:10056000E080F180C281D3810E94461A182F0E9438
:10057000591AC7010E943403812F0E94561ACE01D6
:100580000E94340381E0DF91CF911F91FF90EF90A3
:1005900008959C0121533D452A32310510F40C94F5
:1005A00067029C0129523D452830310510F40C9416
:1005B000A00281E008959C013A9521153F4138F54C
:1005C000DC01AA27B270AC01442754709C01222799
:1005D000387094FF0FC090FF02C080E101C080E03E
:1005E000AB2B09F08062452B09F08064232B69F066
:1005F00080680BC0892F8170AB2B09F08260452B7E
:1006000009F08460232B09F08860FB0109940895A8
:10061000CF93DF93EC01805E9109089710F020974B
:1006200019F466E971E102C063E174E1CE010E9450
:10063000DB028C2FDF91CF910C947110CF93DF935D
:10064000EC010E941B11CE01805E9109089710F009
:10065000209719F46DE971E102C06AE174E1CE01FD
:10066000DF91CF910C94DB02CF93DF93EC010E94DA
:100670000803CE01DF91CF910C941E0381E0089511
:100680000C94C90208950C9442031F93CF93DF93F7
:1006900000D000D01F92CDB7DEB749835A836B8359
:1006A00030918E0389819A81311114C0662359F0EB
:1006B000222349F00E94C519182F682F89819A8139
:1006C0000E946C1903C00E949819182F69817A81C1
:1006D000812F04C00E94C51969817A810F900F9003
:1006E0000F900F900F90DF91CF911F910C941104F8
:1006F000FC01262F86819781009739F44081518132
:100700006281738184810C9445030895CF93DF93B4
:10071000EC0161E00E947803BE01DF91CF910C945F
:10072000FC0CCF93DF93EC0160E00E947803BE01E4
:10073000DF91CF910C9443030E94FA1A811102C0F9
:100740000E94B41B0E94B2080C9436060E94BA0C98
:100750000C94320608950E943B140E94AA032FEFC6
:1007600084E39CE0215080409040E1F700C000000D
:100770000C94481D0F931F93CF93DF93EC0161E01E
:100780000E9478038C01BE010E944003882379F106
:10079000BE01C8010E941308882349F1BE01C801A7
:1007A0000E945A09882319F1BE01C8010E94AC09B0
:1007B0008823E9F0BE01C8010E94D70A8823B9F056
:1007C0008A81882369F001158CE5180731F00F3D07
:1007D0001C4531F40E94B41B0AC00E94AB0307C041
:1007E000CE01DF91CF911F910F910C943E0380E0D9
:1007F000DF91CF911F910F91089508950C94FD03FF
:1008000081E008950C940004CF93C82F0E94FE034A
:100810008C2F0E940204CF91089580E090E008950B
:1008200008952EE1829FC0011124FC0126E0729FF1
:10083000E00DF11D1124E60FF11DEE0FFF1FE45036
:10084000FF4F859194910895880F991FFC01E654FC
:10085000FD4F859194910895CF93DF930E944D05AC
:10086000EC01811520E5920708F03FC0811540E4B6
:10087000940708F0D2C0883E910500F5803E9105AE
:1008800008F002C1883A910570F4853A910508F0A4
:10089000A6C08130910509F49FC008F4F2C0049706
:1008A00008F0F2C0EEC08F3B910508F4A1C0803C77
:1008B000910508F4E6C0805C9109A5C0811550E25D
:1008C000950760F4C11581E0D80708F0DDC0C03F8E
:1008D000D10508F4D6C0CE019065D7C0811520E3BC
:1008E000920708F093C09F708EC0811545E594076C
:1008F00008F046C0811554E5950708F0A6C0C1155B
:1009000082E5D80718F5C11521E5D20708F088C09F
:10091000CE01F4E096958795FA95E1F7282F23709C
:100920003C2F337081E090E002C0880F991F3A9508
:10093000E2F79C68922B2C2F2F702695269540E28B
:10094000249F90011124822B932B9FC09E01237022
:1009500033279C2F96959695C115D34508F065C011
:1009600041E050E002C0440F551F2A95E2F780E2B3
:10097000989F90011124CA01822B932B9C6885C0FB
:10098000811559E5950798F4C11588E5D80708F051
:1009900061C0C11526E5D20708F073C08C2F0E94F4
:1009A000E1058F7190E0982F882790626EC08115C5
:1009B0004AE5940708F453C090568115904208F018
:1009C00060C08D2F8F710E94E1059E013327306238
:1009D0008F71A901582B53C081E090E056C0855A11
:1009E000C82FD0E0C453DD4F888190E090644DC0A3
:1009F000885AC82FD0E0CC0FDD1FC256DD4F88814A
:100A00009981946442C00E9424043FC09927D3FF77
:100A100002C0986C3AC0906C38C09F70906A35C024
:100A20009C2F8827816F906A30C041E050E002C05F
:100A3000440F551F2A95E2F780E2989F90011124F8
:100A4000CA01822B932B9A6820C0982F8827846F25
:100A5000906A1BC09C2F8827806F906A16C08F7089
:100A60000E94E1059E0194E0369527959A95E1F75D
:100A70002F7030E0322F22273069A901482BCA019C
:100A800004C080E090E001C0CE01DF91CF910895D5
:100A90000E9411040E942C0408958238910569F186
:100AA000B0F48133910509F46DC048F489329105A1
:100AB00009F463C08A32910509F469C00895853349
:100AC000910509F455C089339105B9F00895833E25
:100AD000910569F138F4803E9105B1F0823E9105AF
:100AE00009F10895863E9105A9F1873E9105B9F176
:100AF000843E910509F064C023C020915A0420FD72
:100B00004FC021FD4DC0089580915A0480FD44C01E
:100B100080915B0480FF44C080915A0484FD42C0F0
:100B200083EE4DC080915A0482FF38C0F5CF80918A
:100B30005A0482FD33C080915B0480FD31C0ECCF4C
:100B400080915B0481FF32C080915A0484FD2AC0E9
:100B500087EE35C080915A0483FF26C0F5CF80917F
:100B60005A0483FD21C080915B0481FD1FC0ECCF3E
:100B700080915A0485FD1CC01DC080915A0485FDDA
:100B800019C016C080915A0486FD16C017C0809106
:100B90005A0486FD13C010C089E311C082EE0FC055
:100BA00080EE0DC080E00BC086EE09C084EE07C069
:100BB00089E205C085E303C08AE201C081E390E0D9
:100BC000089590915A0492FF0DC0282F2871283063
:100BD00019F4877F846006C0282F2471243011F413
:100BE0008B7F886093FF0DC0282F2871283119F45E
:100BF000877E846106C0282F2471243111F48B7EF6
:100C0000886120915B0420FF0DC0382F3871383087
:100C100019F4877F816006C0382F3171313011F4AB
:100C20008E7F886021FF0DC0282F2871283119F48C
:100C3000877E816106C0282F2171213111F48E7EBB
:100C4000886194FD877E0895E82FF0E0E05BFB4F1C
:100C500080810895089580EA8A95F1F708950895AE
:100C60000C942F060C9430060C942F060C9434062A
:100C7000F894E82FE295EF70F0E031A1282F2F7063
:100C800081E090E001C0880F2A95EAF7982F9095AF
:100C9000932391A392A1892B82A3789408950F9313
:100CA0001F93CF93DF9387EF0E94380681E30E9462
:100CB000380683E30E94380682E30E94380686E302
:100CC0000E943806CFECD2E005ED12E089910E9437
:100CD00038060C171D07D1F7EBE4F4E0A0E5B4E00B
:100CE00011921D9284E0E035F807D1F785E00E946B
:100CF0000207DF91CF911F910F910C949C038F926B
:100D00009F92AF92BF92CF92DF92EF92FF920F939A
:100D10001F93CF93DF9385EDA82E82E0B82ECBE40E
:100D2000D4E09AEDE92E92E0F92E912C01E010E04A
:100D30006501F5018081F894E82FE295EF70F0E00D
:100D400021A18F70A80102C0440F551F8A95E2F7B8
:100D5000CA01922F982B91A392A18095892382A3F7
:100D600078940E942B06EFECF2E020E030E0812C3A
:100D70004191A42FA295AF70B0E090968C9190E035
:100D80004F7002C0959587954A95E2F780FD07C0A0
:100D9000802F022E01C0880F0A94EAF701C080E07C
:100DA000882A2F5F3F4F2630310511F75FEFA51AD4
:100DB000B50AF60180810E9438068881881619F0EC
:100DC000888281E001C080E0982A2196EA14FB0421
:100DD00009F0AECF292D45E060E574E08BE494E0A6
:100DE0000E9403070E94A603892DDF91CF911F91D6
:100DF0000F91FF90EF90DF90CF90BF90AF909F90BA
:100E00008F9008950895FF920F931F93CF93DF93D0
:100E10008C01F62ED72FC42F222349F081E0809336
:100E20000E030E94071D90930D0380930C03809185
:100E30000E038823C1F080910C0390910D030E9452
:100E4000131D069780F0EF2DFD2FD8014C2F50E099
:100E5000CD01801B910B841795071CF48D91819314
:100E6000F7CF10920E03DF91CF911F910F91FF905A
:100E700008950E94FA1A811102C00E94B41B0E94B8
:100E8000351B80935504282F26952695269530E00E
:100E90002430310524F08770886180935504809157
:100EA000550480FF04C086958695869501C080E034
:100EB0000C94480820915504822F86958695869536
:100EC000482F50E04330510554F48F5F982F990F0D
:100ED000990F990F822F8770892B809355048091E9
:100EE00055048160809355040E94391B80915504FC
:100EF0008695869586950C94480880915504982F80
:100F0000969596959695A1F0915E990F990F990FE8
:100F10008770892B80935504887F91E009F490E0D5
:100F20008091550490FB80F9809355040E94391BF1
:100F3000809155048695869586950C9448088091F5
:100F4000550480FD13C0816080935504813019F4ED
:100F500089E080935504809155040E94391B80914B
:100F600055048695869586950C9448080895809139
:100F7000550480FF08C08E7F809355040E94391B62
:100F800080E00C94480808958091550480FD0C94ED
:100F9000B7070C949F0790915504892F86958695E5
:100FA00086958F5F8F719770843038F4880F880F23
:100FB000880F892B8093550402C09093550480912B
:100FC0005504887F91E009F490E08091550490FBEE
:100FD00080F9809355040E94391B809155048695B1
:100FE000869586950C944808843008F083E09091AB
:100FF00055049770282F220F220F220F922B9093C7
:101000005504987F21E009F420E09091550420FBDD
:1010100090F9909355040C9448080E94F40780912D
:1010200055040C94391B9C01FB018281882349F1F2
:101030002E3BFCE53F07C9F040F42C3BECE53E07B6
:1010400069F02D3B3C4561F00895203C9CE5390753
:1010500091F070F0213C3C4589F0089583E001C097
:1010600080E00E940D0880E008950E947D07FBCF7C
:101070000E945A07F8CF0E94C407F5CF0E94CB0701
:10108000F2CF81E00895259A2D9808952D9808951E
:10109000CF92DF92EF92FF92CF93C82F843050F41B
:1010A000811109C0809180008F77809380000E9419
:1010B000460806C0C3E0809180008068809380006D
:1010C0002C2F30E0AFEFBFEF0E94BB2823E030E0D1
:1010D00040E050E00E949328B42FA32F922F88273E
:1010E000492F5A2F6B2F7727CA014C3724E152071B
:1010F00028F469E070E00E946B2829C0DB01CA0176
:101100008A50974DAF4FBF4F6627782F892F9A2F60
:1011100025EF38E241E050E00E94932869017A010E
:10112000CA01B9010E945B289B01AC01C701B6014D
:101130000E945B28BB27A92F982F872F009721E0BB
:10114000A207B10511F0BC0102C06FEF7FEF7093F1
:10115000890060938800CF91FF90EF90DF90CF904F
:10116000089508950E94430882E88093800089E1F1
:10117000809381008FEF9FEF90938700809386008C
:101180000C943907AF92BF92CF92DF92EF92FF9209
:101190000F931F93CF93DF937C015B01C42FD22F5A
:1011A000FC0182818823F9F0409311030E94071DFE
:1011B0009093100380930F0380E28C0F883008F027
:1011C0006EC0C77081E001C0880FCA95EAF7DF9151
:1011D000CF911F910F91FF90EF90DF90CF90BF9034
:1011E000AF900C94961180911103481335C08091F3
:1011F0000F03909110030E94131D6C01B701C501EC
:101200000E942717C816D90638F510E21D0FCD1712
:10121000B9F080E28C0F883040F4C77081E001C0E3
:10122000880FCA95EAF70E949D11183058F581E0A1
:101230009D2F977001C0880F9A95EAF70E9496112A
:10124000802F0E948311183050F5D77081E001C0C3
:10125000880FDA95EAF70AC080E28C0F8830F8F43C
:10126000C77081E001C0880FCA95EAF7DF91CF917E
:101270001F910F91FF90EF90DF90CF90BF90AF90B4
:101280000C949D11802FDF91CF911F910F91FF90B2
:10129000EF90DF90CF90BF90AF900C948311DF91CF
:1012A000CF911F910F91FF90EF90DF90CF90BF9063
:1012B000AF9008950F939C01CB01243F4CE5340778
:1012C00031F188F4293DFCE53F07D9F02A3D4CE592
:1012D000340779F1283D3C45A9F506E221EE41EEBF
:1012E00068ED7CE52BC0263FFCE53F07E1F0A8F068
:1012F000273F3C4539F507E225EE46EE67EF7CE5F2
:101300001DC007E225EE45EE69ED7CE517C006E25B
:1013100021EE40EE64EF7CE511C007E225EE44EEDD
:1013200065EF7CE50BC006E221EE42EE66EF7CE560
:1013300005C008E221E045EE6AED7CE50E94C208A6
:1013400080E008C0FC018281882319F0109211030B
:1013500001C081E00F910895CF93DF93EC01FB0171
:101360008281882309F41FC1C230FCE5DF0708F43D
:101370001BC1C6319CE5D90738F09E012B5F3C4567
:101380002930310508F010C10E94171B90935B04AF
:1013900080935A04C031ECE5DE0709F4C3C008F0BD
:1013A00041C0C8308CE5D80709F49AC0F0F4C430C5
:1013B000ECE5DE0709F487C068F4C2308CE5D80795
:1013C00009F477C0C330DC4509F0E3C080915A04CA
:1013D000826076C0C630ECE5DE0709F46EC008F026
:1013E0007BC080915A0488606BC0CC308CE5D807F4
:1013F00009F485C068F4CA30ECE5DE0709F474C06E
:1014000008F079C00E943B1480915A04806858C04B
:10141000CE308CE5D80709F476C008F07FC0809103
:101420005A048BC0CC3FECE5DE0709F44FC018F539
:10143000C3318CE5D80709F47DC078F4C131ECE5FF
:10144000DE0709F473C0C231DC4509F0A2C00E9476
:101450003B1480915A048F7733C0C5318CE5D8078F
:1014600009F472C008F486C0CB3FDC4509F091C096
:1014700080915B043EC0C115FDE5DF0709F45FC044
:1014800058F4CE3F9CE5D90709F444C008F43FC0A6
:1014900080915B0482602DC0C230FDE5DF0709F456
:1014A00075C008F45DC0C330DD4509F072C080E04E
:1014B0006EC080915A04816003C080915A0480619B
:1014C00080935A0466C080915A0411C080915B04D5
:1014D000826080935B045DC080915A048062F0CF8B
:1014E00080915A048064ECCF80915A0488608460B3
:1014F000E7CF8160EECF80915A048E7FE1CF80915B
:101500005A048D7FDDCF80915A04877FD9CF809197
:101510005B0418C080915B048D7FDBCF80915A04FF
:101520008F7ECECF80915A048F7DCACF80915A048E
:101530008F7BC6CF80915A04877F8B7FC1CF8091EC
:101540005B048D7F8E7FC5CF80915A0482FB22275A
:1015500020F991E0922790FB82F990FB83F9B0CFBC
:1015600080915B04982F909591708E7F892B90FBD2
:1015700081F9AFCF0E943B1480915A0487FB222748
:1015800020F991E0922790FB87F99ACF81E00E94A1
:10159000B61B80915A0490915B040E94281B0E9404
:1015A0003B1480E001C081E0DF91CF910895CF939B
:1015B000DF9386319C4541F5EB010E94461A982F36
:1015C0008A812091890230918A02882379F09A7A5F
:1015D00081E009F480E080931203911102C069E276
:1015E00001C065E3C9010E94511C0AC08091120329
:1015F000811102C069E201C065E3C9010E945C1C5F
:101600000E94971A80E001C081E0DF91CF91089598
:1016100008950F931F93CF93DF9380917D038823C9
:1016200009F451C0C0E0DCE080917D03C81708F0E8
:1016300048C00C2F10E0D09FF001D19FF00D112475
:10164000E35EFC4F9081818123813481232B31F033
:101650008F3F31F481E09F3F19F403C081E001C066
:1016600080E080FD2CC0D09FD001D19FB00D11240F
:10167000A35EBC4F16968D919C911797892B61F4B0
:1016800018968D919C9119978F3F2FEF920721F01B
:1016900061E00E94080B0AC02081318142815381A0
:1016A00064817581868197810E942A17D09FF001FD
:1016B000D19FF00D1124E35EFC4F14821382CF5FA3
:1016C000B3CF10927D03DF91CF911F910F910895B9
:1016D00010927F0310927E034091870250918802FE
:1016E000A0ECB1E020E030E096E02417350799F057
:1016F000929FF001939FF00D1124EC53FE4F8081D7
:1017000081FD05C08E7F808315961C9215972F5FF3
:101710003F4F1696EACF0895BC0140911B0380917C
:101720001C03942F981731F1292F30E0F901EE0FA7
:10173000FF1FED5EFC4F0190F081E02DE617F707EB
:10174000A1F486E0869FF001879FF00D1124EC53F1
:10175000FE4F80818160808394130CC02F5F3F4FC8
:101760002370332720931B0308952F5F3F4F922F41
:101770009370D8CF08955F926F927F928F929F92CD
:10178000AF92BF92CF92DF92EF92FF920F931F938F
:10179000CF93DF9350907D03ADE1B3E020E030E0E4
:1017A000612C66E0689FA001699F500D1124BA0169
:1017B0006C537E4F4B01FA01E054FE4F5F0161E034
:1017C00070E0251508F062C0F401408140FD5AC068
:1017D0001A96ED90FC901B97F501C080D1804FEFD9
:1017E0005FEF712C072D10E0F801EE0FFF1FEC0DDD
:1017F000FD1DC591D491EC16FD0609F4A801CD2B71
:1018000011F07394EFCF4F3FFFEF5F07D9F1FB016A
:1018100002C0EE0FFF1F4A95E2F76E2AAB0102C02D
:10182000440F551F7A94E2F741505109E62DF0E03C
:101830004E175F0719F54CE0429FF001439FF00DF2
:101840001124E35EFC4F46E0489F9001499F300D14
:101850001124D901A054BE4F12964D915C9113975B
:10186000578346834EEF4083418391878087F901F8
:10187000EC53FE4F20812260208308C014961C92F6
:101880001E9213972F5F3F4F1C969BCFDF91CF91F6
:101890001F910F91FF90EF90DF90CF90BF90AF908E
:1018A0009F908F907F906F905F900C948C0B1F9304
:1018B000CF93DF93C0911B0316E080911C03C817E0
:1018C000A1F0D0E0FE01EE0FFF1FED5EFC4F808126
:1018D0009181189FB001199F700D112460547E4FA3
:1018E0000E94BB0B2196C370E8CF0E94090BDF91C9
:1018F000CF911F910C94680BFF920F931F93CF937E
:10190000DF93DC010C911196FC90119780E090E040
:1019100020E0E02FFF2DE20FF11DE20FF11D4591B8
:10192000549141155105B1F0FB011081318190E0D6
:10193000E12FF32FE90FF11DE90FF11DC591D491AE
:10194000209731F04C175D0709F481E09F5FF0CFDD
:101950002F5FDFCF882321F0921728F0CD0104C03C
:1019600080E090E001C0CB01DF91CF911F910F91FA
:10197000FF90089580918602882341F18091800331
:1019800090918103009711F10E94131D20917E0315
:1019900030917F0328173907C8F490911B03809179
:1019A0001C03981759F00E94570C10927F03109255
:1019B0007E03109281031092800308950E94090B08
:1019C00010928103109280030C94680B089510927A
:1019D0008103109280031092860280911C038093F1
:1019E0001B030C94090B8091860281110C94E70C67
:1019F00081E08093860208952F923F924F925F92EA
:101A00006F927F928F929F92AF92BF92CF92DF920E
:101A1000EF92FF920F931F93CF93DF93CDB7DEB773
:101A20002B970FB6F894DEBF0FBECDBF5C016B01E4
:101A3000883F2CE5920741F4FB0112811123C9F084
:101A400081E080938602B9C1893FFCE59F0739F4A4
:101A5000FB011281112369F00E94E70CAEC18A3F9D
:101A60009C4539F4FB011281112319F00E94F30CFB
:101A7000A4C180918602882309F49EC100EC11E084
:101A8000E12CF12C1B8688248394912C9E012F5FDE
:101A90003F4F3A8729878091870290918802E81604
:101AA000F90608F041C1F8014081518166246A9429
:101AB000762C60E0262F30E0F901EE0FFF1FE40FD7
:101AC000F51F85919491A816B90609F43901892B5F
:101AD00011F06F5FEFCFFFEF6F167F0609F418C1AB
:101AE00026E02E9DF0012F9DF00D1124EC53FE4FAA
:101AF0002081922F9170552453945926F6014280EB
:101B0000F8018581442009F490C091118EC021FD17
:101B100013C0940101C0220F6A94EAF7822B8583D7
:101B200080917E0390917F03C29730F422E330E0EE
:101B300030937F0320937E03940102C0220F331F52
:101B40006A95E2F721503109F801858190E0281764
:101B5000390709F0DFC080918003909181030097DD
:101B600081F00E94131DC39760F026E02E9DF001C6
:101B70002F9DF00D1124EC53FE4F808181608083F6
:101B8000CAC040901B0380E090E020911C034216E5
:101B9000B1F1642C712CF301EE0FFF1FED5EFC4FD1
:101BA0002081318146E0429FC001439F900D112466
:101BB000FC01E054FE4F1F01B801CF010E947C0CD4
:101BC0000097B1F0FC0124812160248380179107E4
:101BD00009F4A0C020911B0342120AC0281639063E
:101BE00039F493012F5F3F4F2370332720931B035A
:101BF00093012F5F3F4FF22FF3704F2EC6CF801708
:101C0000910709F487C0642C712CF301EE0FFF1FBC
:101C1000ED5EFC4FF182E0822FEF621A720A33E030
:101C20006322772460921C0375C046E04E9DF0014C
:101C30004F9DF00D1124EC53FE4F208121FD15C066
:101C4000940102C0220F331F6A95E2F72150310937
:101C5000482F50E02417350709F04EC0992309F4A6
:101C60004CC0C7010E948C0B47C090E09C012150E2
:101C7000310928233923062C02C0959587950A94AB
:101C8000E2F7232BA9F580FF33C0F801828193810D
:101C9000892BE1F0E985FA8528E011922A95E9F788
:101CA0003EEF39833A830E94071D8160582F9D8340
:101CB0008C83F801828193818F83988729813A816F
:101CC0004B816D817E810E942A1704C060E0C701AC
:101CD0000E94080B26E02E9DF0012F9DF00D11248F
:101CE000EC53FE4F80818D7F80835524539405C033
:101CF000382F3170532E01C0512CC40101C0880F00
:101D00006A94EAF78095F80195818923858302C05A
:101D1000412C01C0452CFB85F429FB872FEFE21AEB
:101D2000F20A0A5F1F4FB7CEF6018281882379F14C
:101D3000FB85FF2361F10E94071D9093810380932F
:101D4000800380917D03883098F591E0980F9093FF
:101D50007D0398E0F601DE01119601900D929A95AF
:101D6000E1F72CE0829FC0011124835E9C4F28E0A4
:101D7000FE013196DC0101900D922A95E1F72FEFDB
:101D80003FEFFC0131872087B386A28611C0909176
:101D90001B0380911C03981719F00E94570C08C070
:101DA0000E94090B10928103109280030E94680B1D
:101DB00011E0FB851F2701C011E0812F2B960FB684
:101DC000F894DEBF0FBECDBFDF91CF911F910F9171
:101DD000FF90EF90DF90CF90BF90AF909F908F904B
:101DE0007F906F905F904F903F902F9008959093C9
:101DF0008703809386030895E0918603F09187031B
:101E0000309721F00190F081E02D099480E0089551
:101E1000E0918603F0918703309799F020919D021D
:101E2000222359F020915A0427FF07C0DC012C918E
:101E300011962C93119725E02C930280F381E02DCD
:101E400009940895E0918603F0918703309739F063
:101E500022E0DC012C930480F581E02D09940895A3
:101E600020918403309185032817390771F09093EE
:101E7000850380938403E0918603F0918703309774
:101E800021F00680F781E02D0994089520918203C6
:101E9000309183032817390771F09093830380935F
:101EA0008203E0918603F0918703309721F000844C
:101EB000F185E02D0994089585B7806885BF85B7C1
:101EC000806885BF089581E008950C94630F08959C
:101ED0000C94670F0C94670F0C946A0F0C94670FA7
:101EE0000C946E0F0C94670F0E945C0F0E94720F8F
:101EF0000C94700F0E94FE1C0E944F060E949D1DB4
:101F00000E9439070C946C0FAF92BF92CF92DF9270
:101F1000EF92FF920F931F93CF93DF93CDB7DEB76E
:101F20002A970FB6F894DEBF0FBECDBF0E94680F90
:101F30000E94670F0E947F060E94650F811111C0E9
:101F40008FEF89838A831B820E94071D8160782F0F
:101F50009D838C8349815A816B818D810E942210DF
:101F600040C089E8A82E83E0B82E00E010E0C02E23
:101F7000802F0E942406E82EF501D1905F01D8261B
:101F800031F40F5F1F4F0530110589F7D9CF8091CC
:101F90001A0481FD0E942A0680E0FF24F3949D2DFF
:101FA0009F21D1F08E83CF82EF2081E009F480E081
:101FB00088870E94071D8160782F9A8789874E81C4
:101FC0005F8168858A850E942210F801E757FC4FDF
:101FD0008081F826F08205C08F5FFF0C8630F9F60D
:101FE000D0CF0E94B1080E946E200E94FC0E9091FA
:101FF00088038917B1F00E94FC0E809388032A960B
:102000000FB6F894DEBF0FBECDBFDF91CF911F9109
:102010000F91FF90EF90DF90CF90BF90AF900C9416
:1020200004042A960FB6F894DEBF0FBECDBFDF9131
:10203000CF911F910F91FF90EF90DF90CF90BF90C5
:10204000AF900895CF93DF93CDB7DEB72D970FB63E
:10205000F894DEBF0FBECDBF49875A876B877C8758
:102060008D879E012F5F3F4F88E0F90111928A957D
:10207000E9F785E0FE013996D90101900D928A9524
:10208000E1F789819A814C815D81452B31F09F3F39
:1020900031F491E08F3F19F403C091E001C090E06A
:1020A00090FF0BC029813A814B815C816D817E81DB
:1020B0008F8198850E942A1705C0C9010E94860356
:1020C0008111F0CF2D960FB6F894DEBF0FBECDBFB5
:1020D000DF91CF910895FC01808191810E94071AC0
:1020E0000895CF93882309F4A4C0C82F8238C1F47F
:1020F0000E94FC0E81FD9DC069E380918902909150
:102100008A020E94511C0E94971A2FEF81EE94E0E0
:10211000215080409040E1F700C0000069E319C001
:10212000833801F50E94FC0E80FD83C063E5809139
:10213000890290918A020E94511C0E94971A2FEFE7
:1021400081EE94E0215080409040E1F700C0000013
:1021500063E58091890290918A020E945C1CCF9174
:102160000C94971A8438C1F40E94FC0E82FD61C061
:1021700067E48091890290918A020E94511C0E941A
:10218000971A2FEF81EE94E0215080409040E1F7C4
:1021900000C0000067E4DDCF8CEF8C0F813AD0F4F3
:1021A0006C2F8091890290918A020E94D11B882312
:1021B00049F06C2F8091890290918A020E945C1CE8
:1021C0000E94971A6C2F8091890290918A020E9436
:1021D000511CC5CF80E28C0F883048F4C77081E075
:1021E00001C0880FCA95EAF70E94491AB8CFEBE5FB
:1021F000EC0FE33040F4F0E0E85FFC4F808190E0CA
:10220000CF910C94300FE8E5EC0FE73150F4F0E09B
:10221000EE0FFF1FE652FD4F80819181CF910C940C
:10222000460FC03F30F08C2F0E94631FCF910C945B
:102230005020CF910895882309F464C0823879F43E
:102240000E94FC0E81FF5EC069E38091890290913B
:102250008A020E94511C0E94971A69E310C08338B9
:10226000B1F40E94FC0E80FF4DC063E580918902AD
:1022700090918A020E94511C0E94971A63E58091F6
:10228000890290918A020E945C1C0C94971A8438EF
:1022900079F40E94FC0E82FF35C067E480918902C8
:1022A00090918A020E94511C0E94971A67E4E7CF1E
:1022B0009CEF980F913A10F4682FE1CF90E2980FBD
:1022C000983050F4877091E001C0990F8A95EAF731
:1022D000892F0E944F1AD9CF9BE5980F933020F495
:1022E00080E090E00C94300F98E5980F973120F43F
:1022F00080E090E00C94460F803F20F00E94CB1FBE
:102300000C9450200895CF93C82F0E947110C933A8
:1023100049F42FEF87EE93E0215080409040E1F7A1
:1023200000C000008C2FCF910C941B11882321F04A
:102330000E94491A0C94971A0895882321F00E944C
:102340004F1A0C94971A0895CF92DF92EF92FF9252
:102350000F931F93CF93DF937C01062FC72FFC01B0
:10236000158112951F70D281D1110E94691A0E94A5
:102370003F1A882399F0DD2389F08C2F807F8034E9
:1023800021F080E2800F883048F082E00E94E11A5C
:102390000E943F1A91E0D82ED92601C0D12CCC2E14
:1023A000C2948FE0C8228C2D90E0FC01EA5AFF4FC6
:1023B0000C94B5288C2F807FCF70882311F0C295A4
:1023C000C07FDD2399F0CC2309F48DC180E2800F1A
:1023D000883010F0011104C08C2F0E94491A03C0EC
:1023E0008C2F0E945C1A0E94971A7DC1802F0E9438
:1023F0001B11CC2309F49CC180E2800F883010F0BF
:10240000011104C08C2F0E944F1A03C08C2F0E9410
:10241000621A0E94971A8CC18C2F807FCF708032F5
:1024200011F0C295C07F002319F00130C9F022C01D
:10243000DD2371F0112341F0113031F40E947C1A38
:102440008C2B0E94841A74C10E947C1A8C2B1DC094
:10245000112319F0113009F46BC10E948D1A25C0A7
:10246000DD2321F0163008F063C10EC0153008F0EE
:102470005FC11BC0DD2361F0112331F0F7018581BD
:1024800080FF31C18F7085838C2F0E94961150C1BF
:10249000112359F0093309F037C1FFEF27EE83E02C
:1024A000F15020408040E1F72DC18C2F0E949D11FA
:1024B0003FC18C2F86958695837019F0813061F02D
:1024C00037C1DD2321F0802F9C2F937002C080E064
:1024D00090E00E94300F34C1DD2321F0802F9C2F2B
:1024E000937002C080E090E00E94460F29C1802FC7
:1024F000DD2319F00E94631F02C00E94CB1F0E94BF
:1025000050201EC18C2F837009F045C0D11114C119
:10251000402F429546954770440F440F602F6F70CF
:10252000862F90E0A0E0B0E0042E04C0880F991F31
:10253000AA1FBB1F0A94D2F704FF10C00FE010E0DF
:1025400020E030E004C0000F111F221F331F4A9506
:10255000D2F7009510952095309503C000E010E06B
:102560009801C695C695C370BC01CD01602B712B37
:10257000822B932BC23049F058F4C13019F00E94DD
:102580008218DAC00E947018D7C00E949418D4C074
:102590000E946E18D1C0DD2319F08C2F817001C00C
:1025A0008695882309F4C8C0402F42954695477008
:1025B000440F440F602F6F70862F90E0A0E0B0E0D2
:1025C000042E04C0880F991FAA1FBB1F0A94D2F7BC
:1025D00004FF10C00FE010E020E030E004C0000F66
:1025E000111F221F331F4A95D2F700951095209591
:1025F000309503C000E010E09801C695C695C37001
:10260000BC01CD01602B712B822B932BC23049F082
:1026100058F4C13019F00E9447198EC00E94351934
:102620008BC00E94591988C00E94A81885C0CF701D
:10263000DD2339F08C2F0E94CE18802F0E94961136
:102640007BC0802F0E949D118C2F0E94EF1874C0B8
:10265000023F01F128F4003F41F0013FA1F03FC0EB
:10266000033FF9F0043F39F13AC0DD2341F0153062
:1026700008F05EC08C2F8F710E94141959C016305B
:1026800008F056C0F7CFDD2339F08C2F8F710E94F0
:10269000CE184EC0DD23C9F38C2F8F710E94EF1826
:1026A00047C0DD2329F08C2F8F710E94B91840C0DC
:1026B0000E94B4183DC0DD2349F0CF718C2F0E94D9
:1026C000CE1863E08C2F0E94CC1A32C081E00E94A9
:1026D000E11A123068F182E00E94E11A29C0DD237C
:1026E00031F0112391F2802F0E94711021C011232B
:1026F00099F2093349F49FEFE7EEF3E09150E0409F
:10270000F040E1F700C00000802F0E941B1110C0B4
:102710004C2F4F70602FC7010E940D040E94DF17DD
:102720000FC04C2F4F70602FC7010E94100408C0CB
:1027300088EF8C0D843020F40E94FC0E0E9404046B
:10274000DD20C9F00E943B1A80FD15C0F7011282FE
:102750000E94351A0E94CE18C7010E94E3130E94FE
:10276000351ADF91CF911F910F91FF90EF90DF907D
:10277000CF900C94EF18DF91CF911F910F91FF90A4
:10278000EF90DF90CF9008950F931F93CF93DF9337
:10279000EC018E819F81009719F00E942C0405C0E6
:1027A000688179818A810E94121A8C010E946B19BA
:1027B0000E945C18B801CE010E94A411DF91CF9154
:1027C0001F910F910895CF93DF93EC019881898138
:1027D0002B813C81232B31F08F3F31F481E09F3FEF
:1027E00019F403C081E001C080E080FD19C0CE0172
:1027F0000E94BA0381110CC00E943F1A882381F005
:102800008A81882369F082E0DF91CF910C94E11AEC
:10281000CE010E94C413CE01DF91CF910C9491039D
:10282000DF91CF910895882321F00E945C1A0C94C7
:10283000971A0895882321F00E94621A0C94971A1F
:1028400008950E94691A0E94791A0E94971A0E949C
:1028500081210E94502080E090E00E94300F80E0B3
:1028600090E00C94460F8091890290918A020E9418
:10287000671C0C9421140E94591A0C943314E92FEC
:10288000E295EF704E2F50E0FA013297EE30F105ED
:10289000B0F4EA59FF4F0C94B528803F91F018F43A
:1028A000883E68F40EC0843F51F40BC0883E48F067
:1028B000813F29F406C093FB882780F9089580E0C2
:1028C000089581E00895FC0186819781009719F0B1
:1028D0000E942C0404C0808191810E94071A0E94EA
:1028E0003F140895CF93DF9300D000D01F92CDB74F
:1028F000DEB70F900F900F900F900F90DF91CF9158
:102900000895CF93DF93CDB7DEB728970FB6F8942D
:10291000DEBF0FBECDBF28960FB6F894DEBF0FBE48
:10292000CDBFDF91CF910895CF93DF93C0918F03F7
:1029300080919003C817B1F0D0E0FE0183E0EE0F64
:10294000FF1F8A95E1F7EF56FC4F208131814281CC
:10295000538164817581868197810E9481142196BB
:10296000C770E6CFDF91CF9108952091D1033091C8
:10297000D2034091D3035091D4036091D503709159
:10298000D6038091D7039091D8030C9481141F93A0
:10299000CF93DF938091D60382958F7009F05CC04E
:1029A0008091D303882309F457C080918F0310913D
:1029B00090036091D1037091D203C091D403D09160
:1029C000D50391E06F3F09F090E0292F811709F4BA
:1029D00043C0209721F07F3F21F030E003C031E079
:1029E00001C0322F90E030FD34C0FC0133E0EE0F27
:1029F000FF1F3A95E1F7DF01AF56BC4F11963C91AE
:102A00001197371326C03C91361323C012963C9180
:102A1000129731111EC013964D915C9114974C1B67
:102A20005D0B483C5105A8F48091D6038F708061FE
:102A30008093D603EA56FC4F80818F70806180833B
:102A400081ED93E00E94E313DF91CF911F910C94ED
:102A5000941401968770BACFDF91CF911F9108959A
:102A60009F92AF92BF92CF92DF92EF92FF920F931D
:102A70001F93CF93DF93CDB7DEB765970FB6F8946A
:102A8000DEBF0FBECDBF8C0185E0F801DE0151969F
:102A900001900D928A95E1F7F801E2809091D103BF
:102AA0006091D2032091D4033091D50321153105D3
:102AB00031F06F3F31F481E09F3F19F403C081E0B2
:102AC00001C080E0F82FF1709F2E80FD70C1F801E9
:102AD00040815181A380B48071EDC72E73E0D72E61
:102AE000F090D303F501E21BF30BFF2009F401C1C1
:102AF0008091D603E83CF10508F0AEC0282F207F76
:102B000009F05CC056131DC049131BC06091D70368
:102B10007091D803F801268137816217730789F411
:102B2000FE2CE1100EC08F7080618093D6030E944E
:102B3000B514C6010E94E3138091D603F801858382
:102B400073C1AB2831F05F3F31F481E04F3F19F49E
:102B500003C081E001C080E080FD03C081E08E25DC
:102B600002C080E090E0F82FF170FF2E80FF1CC0C3
:102B700080918F0320919003821709F433C190E074
:102B8000FC0133E0EE0FFF1F3A95E1F7EF56FC4FE3
:102B90003181531306C03081431303C03281E312E5
:102BA00003C001968770E8CFFE2CEE2009F43CC1EB
:102BB0008091D60381608093D60363C056130FC003
:102BC00049130DC04091D7035091D803F8012681D5
:102BD00037814217530719F4EE2009F4B7C0C80132
:102BE0000E946314882391F1EE2081F12091D60395
:102BF000822F82958F7090E00297A4F08091D1038C
:102C00009091D2039A8789871B86BD86AC862E87D2
:102C10008091D7039091D803988B8F87CE01099626
:102C20000E94E31388E0F801A1EDB3E001900D925A
:102C30008A95E1F70E94C7140E94B5140AC056177E
:102C400011F1C8010E946314811135C0C8010E94AE
:102C5000E313FF24F394E8C0282F207F81F77A2D17
:102C6000BD8AAC8A6E2D8D890E94721481ED93E02D
:102C70000E94E31388E0F60111928A95E9F70E9419
:102C8000B514F12CD1C04913DCCF4091D70350913A
:102C9000D803F801268137814217530791F6E110D6
:102CA000D0CF8583C8010E94E31388E0F60111921A
:102CB0008A95E9F7B9C0EE2049F22091D603822F18
:102CC00082958F7090E002970CF4ACCF8091D10385
:102CD0009091D2039A8389831B82BD82AC822E831A
:102CE0008091D7039091D80398878F83CE01019666
:102CF00097CFE83CF10508F04DC0FE2CEE2009F41A
:102D0000A5CF561339C0491337C02091D70330914E
:102D1000D803F801868197812817390769F59091C2
:102D2000D60390FD20C0892F82958F70282F30E028
:102D300021153105C1F095832F30310541F08F5FAA
:102D4000982F9295907F85818F70892B8583C801FC
:102D50000E94E31388E0F801A1EDB3E001900D9229
:102D60008A95E1F73CC088E0F801A1EDB3E001905D
:102D70000D928A95E1F758C0C8010E946314811131
:102D800051CF8091D60381608093D603C8010E9401
:102D9000E3134AC07A2DBD8AAC8A6E2D8D890E94BC
:102DA000721488E0F60111928A95E9F718C0EE20B6
:102DB00009F44CCFC8010E946314F82E882309F44B
:102DC00045CF88E0F801A1EDB3E001900D928A951E
:102DD000E1F781ED93E00E946B100E94C7140E94FE
:102DE000B51422C0498B5A8B89899A890E94071A87
:102DF000292F22952F70223028F49F7039F08111ED
:102E000005C00BC0243028F49F7049F4805E8830E0
:102E100020F0C8010E94E3139F2CF92C05C0F80193
:102E20009581907F99F7F9CF8F2D65960FB6F8941D
:102E3000DEBF0FBECDBFDF91CF911F910F91FF90ED
:102E4000EF90DF90CF90BF90AF909F90089588EC67
:102E500090E00895CF93DF93CDB7DEB760970FB6BC
:102E6000F894DEBF0FBECDBF29873A874B875C87BA
:102E70006D877E878F87988BCE0109960E943015CB
:102E80008823E1F099858A852C853D85232B31F0B7
:102E90008F3F31F481E09F3F19F403C081E001C00E
:102EA00080E080FD6FC029853A854B855C856D8506
:102EB0007E858F8598890E94811464C088E0FE0118
:102EC0003996DE01119601900D928A95E1F7798588
:102ED0006A854C855D854115510531F06F3F31F4B0
:102EE00081E07F3F19F403C081E001C080E080FDF4
:102EF00049C0A0919003B0E0CD0101968770992759
:102F000020918F0330E08217930709F442C0798340
:102F10006A835D834C8393E0AA0FBB1F9A95E1F708
:102F2000AF56BC4F98E0FE01319601900D929A95F4
:102F3000E1F7809390030E94941424C028E0829FBC
:102F4000C00111248F569C4F0E943015882371F1C7
:102F5000E0918F0388E0E89FF0011124EF56FC4FC9
:102F6000208131814281538164817581868197817D
:102F70000E94811480918F0390E0019687709927B9
:102F800080938F0380918F03909190038913D6CF04
:102F90000DC00E943B141092900310928F03E1ED3C
:102FA000F3E088E0DF011D928A95E9F760960FB69D
:102FB000F894DEBF0FBECDBFDF91CF910895EF92A1
:102FC000FF920F931F93CF93DF938C01892B09F40A
:102FD0006CC0F12CEE24E394E8012196F801849171
:102FE000843740F4843008F051C0813081F0823061
:102FF00019F15BC0853709F444C0A8F19CE7980F2C
:10300000903708F052C08F770E941B1141C00E5FAD
:103010001F4FFE01849190E2980F983050F4877012
:10302000FE2D01C0FF0F8A95EAF78F2F0E946C1AC0
:1030300014C00E9471102DC00E5F1F4FFE018491BD
:1030400090E2980F983060F48770FE2D01C0FF0F5A
:103050008A95EAF78F2F0E94721A0E94971A19C058
:103060000E941B1116C00E5F1F4FFE01C491CC239E
:1030700081F08FE99FE00197F1F700C00000C15097
:10308000F6CF0E5F1F4FFE01F49003C00E94711037
:103090008E018F2D882309F49FCFEFE9FFE0319750
:1030A000F1F700C000008150F5CFDF91CF911F9163
:1030B0000F91FF90EF900895089508950C945D1876
:1030C0000C945E180E9460186093F1037093F203F1
:1030D0008093F3039093F4030C9421140C946218DE
:1030E0000F931F930091F1031091F2032091F303CA
:1030F0003091F403602B712B822B932B1F910F9136
:103100000C9462180F931F930091F1031091F20336
:103110002091F3033091F4036023712382239323DE
:103120001F910F910C9462180F931F930091F1035C
:103130001091F2032091F3033091F403602771277B
:10314000822793271F910F910C9462180C945D189D
:103150000E94A6186093ED037093EE038093EF0333
:103160009093F0030C94211460E070E0CB010C9478
:10317000A8180F931F9341E050E060E070E08A01CF
:103180009B0104C0000F111F221F331F8A95D2F725
:10319000C901B8011F910F910C94A8180F931F93A8
:1031A00041E050E060E070E004C0440F551F661F2E
:1031B000771F8A95D2F78091ED039091EE03A0914D
:1031C000EF03B091F0038A019B01082B192B2A2BE6
:1031D0003B2BC901B8011F910F910C94A8180F93B4
:1031E0001F9341E050E060E070E004C0440F551FC1
:1031F000661F771F8A95D2F7409550956095709518
:103200008091ED039091EE03A091EF03B091F00354
:103210008A019B01082319232A233B23C901B801F2
:103220001F910F910C94A8180F931F9341E050E049
:1032300060E070E004C0440F551F661F771F8A9539
:10324000D2F78091ED039091EE03A091EF03B0913E
:10325000F0038A019B01082719272A273B27C90168
:10326000B8011F910F910C94A8180F931F93009110
:10327000ED031091EE032091EF033091F003602BEA
:10328000712B822B932B1F910F910C94A8180F93E5
:103290001F930091ED031091EE032091EF03309105
:1032A000F00360237123822393231F910F910C94C9
:1032B000A8180F931F930091ED031091EE03209136
:1032C000EF033091F00360277127822793271F9126
:1032D0000F910C94A8180895292F220F920F990F7F
:1032E000890FE82FE695E695E695877051E001C0D5
:1032F000550F8A95EAF785E0E89FF0011124E7521F
:10330000FC4F20E030E070E04081CB01022E02C093
:10331000969587950A94E2F7817081958427852395
:10332000842781932F5F3F4F2530310569F708953A
:10333000292F220F920F990F890F682F6695669596
:103340006695982F977085E0689FB001112440E042
:1033500050E080E0FB01E40FF51FE752FC4F2081B5
:1033600030E0092E02C0369527950A94E2F72170C5
:103370003327042E01C0220F0A94EAF7822B4F5FF5
:103380005F4F4530510531F70895BF92CF92DF92DC
:10339000EF92FF920F931F93CF93DF938C01C09016
:1033A000ED03D090EE03E090EF03F090F0038091F6
:1033B000F1039091F203A091F303B091F403C82AB2
:1033C000D92AEA2AFB2ACFE1D0E0D701C6010C2E88
:1033D00004C0B695A795979587950A94D2F780FD76
:1033E00004C0219790F7B12C07C0BC2EB8018C2FD8
:1033F0000E9448050197A9F38B2DDF91CF911F9172
:103400000F91FF90EF90DF90CF90BF900895CF93F2
:10341000DF93EC010E94C519BE010E944805DF91AF
:10342000CF9108951F93CF93DF93EB0190918E037B
:10343000992321F0CB010E94071A13C0882349F079
:10344000CB010E94C519182F682FCE010E946C195C
:1034500004C0CB010E949819182FBE01812F0E9431
:103460004805DF91CF911F9108958091F5038595CF
:103470008595859508958091F503877008959091BD
:10348000F503977081E009F480E0089580911904B4
:10349000089590911904892B8093190408958095BB
:1034A0009091190489238093190408958093190435
:1034B000089510921904089590911804892B80930F
:1034C0001804089580959091180489238093180416
:1034D000089510921804089590911704892B8093F1
:1034E00017040895809590911704892380931704F9
:1034F00008951092170408958091F6030895089591
:103500000C947F1A0C94801A9091F603981721F06E
:103510008093F6030C94821A08958091F603882311
:1035200029F01092F60380E00C94821A0895E0913D
:103530008902F0918A02809119048083E0918902C6
:10354000F0918A02908180911804892B8083E09108
:103550008902F0918A02908180911704892B8083DF
:103560008091F603882381F0E0918902F0918A022C
:103570009081892B80838091890290918A020E9498
:10358000BB1B81110E948D1A8091890290918A0241
:103590000C94080F0C947F1A98E0899F90011124D5
:1035A000262B2093F5030E94CE188091F503859574
:1035B000859585950C94CA1A1092F50380E00C94B9
:1035C000CA1A2091F503809582238093F503982FE2
:1035D000977079F430E0482F082E000C550B241713
:1035E000350739F08595859585950E94EF180C94DF
:1035F000DC1A089580E090E00E94DD2821E08C3EF6
:103600009E4F09F020E0822F089582E090E00C9414
:10361000D528682F82E090E00C94E32883E090E0C6
:103620000C94D528682F83E090E00C94E328CF9386
:1036300084E090E00E94D528C82F81E290E00E94AB
:10364000D5282C2F30E0A901582BCA01CF9108951D
:10365000CF93C92F682F84E090E00E94E3286C2F5D
:1036600081E290E0CF910C94E32886E090E00C9406
:10367000D528682F86E090E00C94E328AB01BC01CC
:103680008FE090E00C94F528AB01BC0183E190E061
:103690000C94F52860E070E0CB010C94441B60E0D2
:1036A00070E0CB010E943E1B0C944A1B6CEE7EEF37
:1036B00080E090E00E94012960E082E090E00E94BA
:1036C000E32860E083E090E00E94E3281092F10399
:1036D0001092F2031092F3031092F40360E084E07E
:1036E00090E00E94E32860E081E290E00E94E328FD
:1036F00060E085E090E00E94E32860E086E090E0F2
:103700000E94E3286FEF87E090E00E94E32840E00A
:1037100050E0BA0188E090E00E94F52860E08DE07A
:1037200090E00E94E32840E050E0BA0188E190E098
:103730000E94F52860E087E190E00E94E32840E0E5
:1037400050E0BA018CE190E00E94F52860E080E250
:1037500090E00E94E32840E050E0BA0188E190E068
:103760000E94F5280C944F1B0C94561B682F8EE07A
:1037700090E00C94E328FC01329680919D0288230E
:1037800031F080915A0487FF02C09EE101C096E0AB
:1037900080E0915028F021912223D9F38F5FF9CF57
:1037A0000895662351F120919D022223E9F0209192
:1037B0005A0427FF19C0462F4695469546954E3127
:1037C000E0F4677021E030E002C0220F331F6A95F9
:1037D000E2F7FC01E40FF11D828190E028233923F8
:1037E00081E0232B69F409C0FC01329608962191EF
:1037F000621729F0E817F907D1F780E0089581E012
:1038000008959C01FC0132969FEF80E0419146179C
:1038100089F09F3F19F4411101C0982F8F5F8630C6
:10382000A9F79F3F39F0F901E90FF11D97FDFA95CE
:103830006283089508959C012A5F3F4FFC014281F5
:10384000461301C01282019682179307B9F70895B3
:10385000262F2695269526952E3168F4FC01E20F39
:10386000F11D677021E030E001C0220F6A95EAF790
:103870008281282B22830895262F2695269526952A
:103880002E3170F4FC01E20FF11D677021E030E091
:1038900001C0220F6A95EAF72095828128232283AE
:1038A000089520919D02222329F020915A0427FD9A
:1038B0000C94281C0C94011C20919D02222329F0B9
:1038C00020915A0427FD0C943C1C0C941B1C209145
:1038D0009D02FC013296222331F080915A0487FF29
:1038E00002C08EE101C086E0DF011D928A95E9F7F2
:1038F000089508950C94791C0C94791CCF930E9420
:103900007C1C0E947F060E947A1CC0E08C2F0E94C3
:103910002406811104C0CF5FC530C1F701C081E02A
:10392000CF9108950C94791C0C94921C0E94941CC5
:1039300080916004843061F110921B0420E488E1DE
:1039400090E00FB6F894A895809360000FBE209386
:10395000600080E00E94480880E00E9404040E9409
:10396000941C83B7817F846083BF83B7816083BFEA
:103970007894889583B78E7F83BF0FB6F894A89507
:1039800080916000886180936000109260000FBE9B
:1039900008950C94791C0E943B140E9439070E94E0
:1039A000FC0E0E9404040C94C91C1F920F920FB6C7
:1039B0000F9211248F939F93AF93BF9380911B0419
:1039C000811113C08091560490915704A09158041E
:1039D000B09159044196A11DB11D80935604909356
:1039E0005704A0935804B0935904BF91AF919F918D
:1039F0008F910F900FBE0F901F90189582E084BD9D
:103A000093E095BD9AEF97BD80936E0008952FB710
:103A1000F8948091560490915704A0915804B09165
:103A200059042FBF08959C014FB7F8948091560414
:103A300090915704A0915804B09159044FBF821B34
:103A4000930B089578941F920F920FB60F92112442
:103A50008F939F93AF93BF93809156049091570497
:103A6000A0915804B09159040196A11DB11D8093F5
:103A7000560490935704A0935804B0935904BF91EF
:103A8000AF919F918F910F900FBE0F901F9018953F
:103A900087E797E790930108809300089AE088E110
:103AA0000FB6F894A895809360000FBE90936000C5
:103AB000FFCFCF92DF92EF92FF920F931F93CF939E
:103AC000C0E0E82EF12C8C2F0E94240600E010E0CC
:103AD000C82ED12CC601002E02C0959587950A9458
:103AE000E2F780FD06C00F5F1F4F0630110591F70A
:103AF0000AC0602F7C2F80E00E941104E816F906AE
:103B000091F781E004C0CF5FC530E9F680E0CF9146
:103B10001F910F91FF90EF90DF90CF900895CF937A
:103B2000C82F8CE20E94591D882321F08C2FCF9141
:103B30000C94591D80E0CF910895CF930E94FA1AFA
:103B4000811102C00E94B41BC5E6C15049F00E9419
:103B50007F068FE39CE90197F1F700C00000F5CFE5
:103B600089E20E948F1D81112AC18AE20E948F1D65
:103B700081110E94B41B85E00E948F1D81110E945B
:103B8000481D0E94051B80931A0487E00E948F1D28
:103B90008823A9F18BE10E948F1D882351F0809129
:103BA0001A0481FB222720F991E0922790FB81F9EA
:103BB0000EC08EE00E948F1D882361F080911A0450
:103BC00082FB222720F991E0922790FB82F98093D3
:103BD0001A0415C080E10E948F1D90911A04882359
:103BE00041F093FB222720F981E0822780FB93F9A3
:103BF00004C0892F809580FB90F990931A048091DE
:103C00001A040E94091B0E94171B90935B04809367
:103C10005A0480EE0E948F1D882341F080915A043F
:103C2000982F909590FB80F980935A0489E30E9425
:103C30008F1D882359F080915A0481FB222720F997
:103C400091E0922790FB81F980935A0482EE0E94C2
:103C50008F1D882359F080915A0482FB222720F976
:103C600091E0922790FB82F980935A0486EE0E949D
:103C70008F1D882359F080915A0483FB222720F955
:103C800091E0922790FB83F980935A0483EE0E947F
:103C90008F1D882359F080915A0484FB222720F934
:103CA00091E0922790FB84F980935A0485E30E9467
:103CB0008F1D882359F080915A0485FB222720F913
:103CC00091E0922790FB85F980935A0481E30E944A
:103CD0008F1D882359F080915A0486FB222720F9F2
:103CE00091E0922790FB86F980935A0481E10E942B
:103CF0008F1D882359F080915A0487FB222720F9D1
:103D000091E0922790FB87F980935A0480915A049E
:103D100090915B040E94281B87E20E948F1DC82F90
:103D20008EE10E948F1D8111C2608FE10E948F1D64
:103D30008111C46080E20E948F1D8111C86081E200
:103D40000E948F1D8111C06182E20E948F1D81112E
:103D5000C06283E20E948F1D8111C06484E20E94D0
:103D60008F1D882311F0C06802C0CC2329F08C2F4E
:103D70000E94121B6C2F03C00E940E1B682F70E064
:103D800080E090E00E946E186091ED037091EE0368
:103D90008091EF039091F0030E94A6188FE00E949B
:103DA0008F1D882319F081E00E94B61B85E10E94D7
:103DB0008F1D882321F080E0CF910C94B61BCF910A
:103DC00008958091220480FF0BC06091900285E0ED
:103DD000689FB001112475956795759567952BC0FF
:103DE00081FF09C06091900285E0689FB0011124B5
:103DF0007595679520C082FF07C06091900285E0AD
:103E0000689FB001112417C0909121049923D1F02B
:103E100060918F02961788F72091900285E0289F85
:103E200090011124929FA001939F500D112470E0E6
:103E3000CA010E947F286038710540F46115710540
:103E400019F406C065E070E0862F08958FE70895A5
:103E500081E008958091220480FF08C060918C0267
:103E600070E0759567957595679521C081FF06C0CF
:103E700060918C0270E07595679519C082FF04C04F
:103E800060918C0270E010C090912004992399F009
:103E900060918B029617A0F780918C02899FC001D8
:103EA000112470E00E947F286038710540F461158C
:103EB000710519F406C061E070E0862F08958FE760
:103EC000089581E00895803F21F40E94E11E8195CC
:103ED00004C0813F29F40E94E11E809326040895C6
:103EE000823F21F40E94E11E819504C0833F29F4A2
:103EF0000E94E11E809325040895893F19F40E94D1
:103F00002A1F05C08A3F31F40E942A1F81958093A1
:103F1000270408958B3F21F40E942A1F819504C035
:103F20008C3F29F40E942A1F809328040895843F1F
:103F300021F480912404816017C0853F21F4809191
:103F40002404826011C0863F21F48091240484609F
:103F50000BC0873F21F480912404886005C0883F0E
:103F600031F48091240480618093240408958D3F6E
:103F700021F48091220481600BC08E3F21F4809156
:103F80002204826005C08F3F29F48091220484605E
:103F9000809322040895803F39F48091260487FF9E
:103FA0006AC01092260467C0813F29F480912604DC
:103FB0001816BCF360C090912504823F29F497FF46
:103FC0005AC01092250457C0833F19F41916CCF338
:103FD00052C090912704893F31F419160CF04BC060
:103FE0001092270448C08A3F19F497FF44C0F8CFC5
:103FF0008B3F39F48091280487FF3DC0109228043C
:104000003AC08C3F29F4809128041816BCF333C0C1
:10401000843F21F4809124048E7F17C0853F21F4D2
:10402000809124048D7F11C0863F21F48091240467
:104030008B7F0BC0873F21F480912404877F05C0CC
:10404000883F31F4809124048F7E8093240413C030
:104050008D3F21F4809122048E7F0BC08E3F21F48E
:10406000809122048D7F05C08F3F29F48091220426
:104070008B7F8093220480912504811106C080915A
:104080002604811102C0109221048091270481111D
:1040900006C080912804811102C010922004089566
:1040A0000E94071D20912504211104C0209126049F
:1040B000222321F090931F0480931E042091270453
:1040C000211104C020912804222321F090931D0483
:1040D00080931C0483E294E00C94220FEF92FF92F1
:1040E0000F931F93CF93DF9300D000D000D0CDB7B4
:1040F000DEB786E0E3E2F4E0DE01119601900D9276
:104100008A95E1F7E0902504F090260400912704B9
:10411000109128041092250410922604109227046E
:1041200010922804E11003C0FF2009F45DC08091C3
:104130001E0490911F040E94131DAC019091210454
:10414000992339F02091910230E02417350758F077
:104150004BC0209192028AE0289F900111242417DD
:10416000350718F041C09F3F19F09F5F90932104DD
:10417000EE2061F00E94E11E1E1414F09FEF01C0BA
:1041800091E0989F902D112490932504FF2061F0D9
:104190000E94E11E1F1414F09FEF01C091E0989F50
:1041A000902D112490932604309125043323E1F0BF
:1041B000209126042223C1F045EB3403C0011124D1
:1041C000992319F09093250403C081E0809325047E
:1041D00035EB2303C0011124992319F09093260491
:1041E00003C081E080932604011103C0112309F468
:1041F0005DC080911C0490911D040E94131DAC01B0
:1042000090912004992339F020918D0230E02417F9
:10421000350758F04BC020918E028AE0289F90010C
:1042200011242417350718F041C09F3F19F09F5FF4
:1042300090932004002361F00E942A1F101614F0AE
:104240009FEF01C091E0989F902D11249093270437
:10425000112361F00E942A1F111614F09FEF01C074
:1042600091E0989F902D1124909328043091270479
:104270003323E1F0209128042223C1F045EB3403DD
:10428000C0011124992319F09093270403C081E001
:104290008093270435EB2303C0011124992319F0DF
:1042A0009093280403C081E0809328048091250422
:1042B00081110BC080912604811107C080912704D1
:1042C000811103C08091280481110E945020EB824B
:1042D000FC820D831E8386E0FE013196A3E2B4E0EA
:1042E00001900D928A95E1F726960FB6F894DEBFFD
:1042F0000FBECDBFDF91CF911F910F91FF90EF9037
:104300000895E3E2F4E086E0DF011D928A95E9F783
:10431000109221041092200410922204089580919A
:1043200049040895CF93DF9300D01F92CDB7DEB735
:1043300090916004943019F589837B836A8382E0CD
:104340008093E9008FEF9091E800815095FD06C0C1
:1043500095ED9A95F1F700008111F5CF8091E80075
:1043600085FF0DC040E050E063E070E0CE010196B3
:104370000E94BD238091E8008E778093E8000F9023
:104380000F900F90DF91CF910895BC0184E00C94C1
:104390009221BC0183E00C94922122E02093E90059
:1043A0002FEF3091E800215035FD06C035ED3A95EC
:1043B000F1F700002111F5CF2091E80025FF0BC097
:1043C00040E050E066E070E00E94BD238091E8008C
:1043D0008E778093E8000895CF93DF9320919D021C
:1043E000222339F020915A0427FF03C060E222E023
:1043F00002C068E021E02093E9002FEF3091E8004F
:10440000215035FD06C035ED3A95F1F70000211138
:10441000F5CF2091E80025FF1DC0EC0180919D02A1
:10442000811105C040E050E068E070E003C070E03A
:1044300040E050E0CE010E94BD238091E8008E77DD
:104440008093E80080E2FE01A9E2B4E001900D92C1
:104450008A95E1F7DF91CF91089580915F048111F2
:1044600009C00E944E250E94AB258091E200846025
:104470008093E200089510925F04089508950895CE
:104480000C94CB1C42E061EC81E00E94C72442E224
:1044900061EC82E00C94C72480916204833009F4BB
:1044A00060C030F4813071F0823009F499C0089511
:1044B0008A3009F485C08B3009F46BC0893009F06B
:1044C000A7C020C080916104813A09F0A1C0809109
:1044D000E800877F8093E8008091650490916604EE
:1044E000892B21F460E289E294E003C060E080E07F
:1044F00090E070E00E9408248091E8008B77809320
:10450000E800089580916104813209F081C08091B2
:10451000650490916604029708F07AC08091E800E3
:10452000877F8093E8008091E80082FD05C080913C
:1045300060048111F8CF6CC02091F3008091F200EB
:1045400090E0922B029729F48091F1008B7F8130CB
:1045500021F48091F100809349048091E8008B77E9
:1045600053C080916104813A09F052C08091650482
:1045700090916604892B09F04BC08091E800877FF9
:104580008093E8008091E80080FFFCCF80919D023D
:1045900036C0809161048132D9F580916504909193
:1045A0006604892BA9F58091E800877F8093E80055
:1045B0000E94FC248091630480939D020C943B1420
:1045C00080916104813221F58091E800877F80939A
:1045D000E8000E94FC248091640480934A040895BA
:1045E00080916104813AA1F48091E800877F8093F3
:1045F000E8008091E80080FFFCCF80914A0480931E
:10460000F1008091E8008E778093E8000C94FC2400
:10461000089584B7877F84BF0FB6F894A8958091DA
:104620006000886180936000109260000FBE90E08F
:1046300080E80FB6F89480936100909361000FBEFC
:104640000E94740F0E944E250E94AB258091E200CB
:1046500084608093E20078940E9440280E947A0F40
:1046600083E992E00E94F70E80916004853069F43E
:104670000E94961C80915E048823B1F30E947E1CE8
:10468000882391F30E94A723EFCF0E94840F0E94FA
:10469000680F0E94670FE8CF0C944E23292F332711
:1046A00023303105C9F060F42130310581F022302A
:1046B000310509F044C08BE390E022EF32E043C0C3
:1046C00021323105E1F02232310549F138C082E171
:1046D00090E02DE233E037C099278130910549F011
:1046E00028F0029761F5EAEBF2E005C0EEEEF2E0A9
:1046F00002C0ECECF2E0849190E09F0124C06115CF
:10470000710541F061307105D1F489E090E02DE14F
:1047100033E019C089E090E024E033E014C0611573
:10472000710541F06130710551F48CEB90E02FE39D
:1047300033E009C080E490E02BEF33E004C080E078
:1047400090E020E030E0FA0131832083089580E199
:1047500089BD82E189BD09B400FEFDCF8091D800FA
:104760008F7D8093D8008091E00082608093E0008C
:104770008091E00081FDFCCF0895CF92DF92EF920F
:10478000FF920F931F93CF93DF93EC018B017A017C
:104790000E941B25811133C0E114F10439F0F701A7
:1047A00080819181081B190BC80FD91FC12CD12CF6
:1047B0000115110519F18091E80085FD16C0809161
:1047C000E8008E778093E800E114F10449F0F701E6
:1047D00080819181C80ED91ED182C08285E00FC030
:1047E0000E941B25882321F30AC089918093F10040
:1047F00001501109FFEFCF1ADF0ADACF80E0DF9115
:10480000CF911F910F91FF90EF90DF90CF9008957F
:1048100020916704309168042617370748F0611526
:10482000710539F42091E8002E772093E80001C04B
:10483000B901FC0120E06115710579F180916004F6
:104840008823F1F18530F1F18091E80083FD3CC0CF
:104850008091E80082FD2EC08091E80080FFEBCFC0
:104860002091F3008091F20090E0922B6115710588
:1048700051F08830910538F421912093F100615076
:1048800071090196F3CF21E0089709F020E08091AB
:10489000E8008E778093E800CECF2111CFCF0AC0F9
:1048A00080916004882361F0853061F08091E80098
:1048B00083FD0AC08091E80082FFF2CF80E0089576
:1048C00082E0089583E0089581E0089520916704CF
:1048D000309168042617370748F06115710539F4DF
:1048E0002091E8002E772093E80001C0B901FC0177
:1048F00020E06115710591F180916004882309F42D
:1049000040C0853009F43FC08091E80083FD3DC080
:104910008091E80082FD2FC08091E80080FFE9CF00
:104920002091F3008091F20090E0922B61157105C7
:1049300059F08830910540F424912093F10031968C
:10494000615071090196F2CF21E0089709F020E04B
:104950008091E8008E778093E800CBCF2111CCCFF7
:104960000AC080916004882361F0853061F08091F5
:10497000E80083FD0AC08091E80082FFF2CF80E06A
:10498000089582E0089583E0089581E00895982FC6
:10499000973068F59093E900981739F07091EC0022
:1049A0002091ED005091F00003C0242F762F50E0AD
:1049B00021FD02C09F5FECCF3091EB003E7F309332
:1049C000EB003091ED003D7F3093ED003091EB0036
:1049D00031603093EB007093EC002093ED00509326
:1049E000F0002091EE0027FDE5CF80E008958F7064
:1049F0008093E90081E008958091610487FF11C0F0
:104A00008091E80082FD05C0809160048111F8CF9B
:104A100011C08091E8008B770BC0809160048823DF
:104A200049F08091E80080FFF8CF8091E8008E7710
:104A30008093E80008952091E4003091E50095E628
:104A40004091EC00842F817040FF23C08091E800EA
:104A500080FD1DC080916004882399F0853099F015
:104A60008091EB0085FD11C04091E4005091E5007C
:104A70002417350729F3915011F09A01E1CF84E012
:104A8000089582E0089583E0089581E0089580E02C
:104A900008954091E80042FFDDCF08950E94BC25B3
:104AA0000E94C425E0EEF0E0808181608083E8ED23
:104AB000F0E080818F77808319BCA7EDB0E08C9106
:104AC0008E7F8C9380818F7E808310925F04089507
:104AD0000F931F93CF93DF930E94BC250E94C425A0
:104AE000C8EDD0E088818F7788838881806888834B
:104AF00088818F7D888319BC1092600410925C04B9
:104B000010925E0410925D0400EE10E0F8018081C6
:104B10008B7F808388818160888342E060E080E0D1
:104B20000E94C724E1EEF0E080818E7F8083E2EE78
:104B3000F0E0808181608083808188608083F801DB
:104B400080818E7F8083888180618883DF91CF918F
:104B50001F910F910895E8EDF0E080818F7E8083B2
:104B6000E7EDF0E080818160808384E082BF81E0B6
:104B700080935F040C946825E8EDF0E080818E7FDF
:104B800080831092E20008951092DA001092E10002
:104B900008951F920F920FB60F9211242F933F93F7
:104BA0004F935F936F937F938F939F93AF93BF9335
:104BB000EF93FF938091E10082FF0BC08091E200B0
:104BC00082FF07C08091E1008B7F8093E1000E940B
:104BD0003F288091DA0080FF1FC08091D80080FFBD
:104BE0001BC08091DA008E7F8093DA008091D9001B
:104BF00080FF0DC080E189BD82E189BD09B400FE5E
:104C0000FDCF81E0809360040E942D2205C019BC75
:104C1000109260040E943B228091E10080FF19C045
:104C20008091E20080FF15C08091E2008E7F80932A
:104C3000E2008091E20080618093E2008091D800E0
:104C400080628093D80019BC85E0809360040E9444
:104C50003F228091E10084FF30C08091E20084FF18
:104C60002CC080E189BD82E189BD09B400FEFDCF81
:104C70008091D8008F7D8093D8008091E1008F7E55
:104C80008093E1008091E2008F7E8093E20080912A
:104C9000E20081608093E20080915C04882311F03F
:104CA00084E007C08091E30087FD02C081E001C07D
:104CB00083E0809360040E9440228091E10083FFA2
:104CC00029C08091E20083FF25C08091E100877FA9
:104CD0008093E10082E08093600410925C048091F4
:104CE000E1008E7F8093E1008091E2008E7F8093CF
:104CF000E2008091E20080618093E20042E060E0A7
:104D000080E00E94C7248091F00088608093F000CA
:104D10000E943E22FF91EF91BF91AF919F918F91A1
:104D20007F916F915F914F913F912F910F900FBEA7
:104D30000F901F9018951F920F920FB60F9211248B
:104D40002F933F934F935F936F937F938F939F9393
:104D5000AF93BF93CF93DF93EF93FF93C091E9009D
:104D6000CF708091EC00D82FD17080FDD0E81092E8
:104D7000E9008091F000877F8093F00078940E9492
:104D8000DF261092E9008091F00088608093F000A7
:104D9000CD2BCF70C093E900FF91EF91DF91CF91C0
:104DA000BF91AF919F918F917F916F915F914F9143
:104DB0003F912F910F900FBE0F901F9018951F934A
:104DC000CF93DF93CDB7DEB7AA970FB6F894DEBFC7
:104DD0000FBECDBFE1E6F4E08091F100819324E0C5
:104DE000E936F207C9F70E944C228091E80083FF60
:104DF0002EC18091610490916204492F50E04A30A5
:104E0000510508F024C1FA01EC58FF4F0C94B52865
:104E1000803821F0823809F01AC108C080915D0401
:104E200090915E04992389F082600FC0809165049F
:104E30008F70873008F00BC18093E9008091EB0000
:104E400085FB882780F91092E9009091E800977F10
:104E50009093E8008093F1001092F100D1C0282FC8
:104E60002D7F09F0F4C0882319F0823061F0EFC083
:104E700080916304813009F0EAC0933009F080E04A
:104E800080935E042EC08091630481112AC08091BA
:104E900065048F702FEF280F263008F0D8C080935C
:104EA000E9002091EB0020FF1CC0933021F4809199
:104EB000EB00806214C09091EB0090619093EB0046
:104EC00021E030E0A90102C0440F551F8A95E2F7A6
:104ED0004093EA001092EA008091EB008860809392
:104EE000EB001092E9008091E800877F8093E80052
:104EF0000E94FC24ACC08111AAC0109163041F77EA
:104F00008091E3008078812B8093E3008091E8001A
:104F1000877F8093E8000E94FC248091E80080FF56
:104F2000FCCF8091E30080688093E300111102C000
:104F300082E001C083E08093600489C080588230A1
:104F400008F085C080916304909164048C3D53E027
:104F5000950779F583E08A838AE289834FB7F894CD
:104F6000DE01139620E03EE051E2E32FF0E05093A3
:104F70005700E49120FF03C0E295EF703F5FEF70B0
:104F80008E2F90E0EA3010F0C79601C0C0968D9346
:104F90009D932F5F243149F74FBF8091E800877FB1
:104FA0008093E8006AE270E0CE0101960E94082436
:104FB00016C06091650470916604AE014F5F5F4F4B
:104FC0000E944C23BC01892B09F441C09091E80058
:104FD000977F9093E80089819A810E94662480914E
:104FE000E8008B778093E80032C0803881F58091AB
:104FF000E800877F8093E80080915C048093F10053
:105000008091E8008E7772CF811121C08091630476
:105010009091640499270297D4F48091E800877FE7
:105020008093E8008091630480935C040E94FC24D8
:1050300080915C04811106C08091E30087FD02C06D
:1050400081E001C084E0809360040E94422280914C
:10505000E80083FF0AC08091E800877F8093E80022
:105060008091EB0080628093EB00AA960FB6F894D3
:10507000DEBF0FBECDBFDF91CF911F910895089580
:10508000CF93809160048823A1F0C091E900CF7094
:105090009091EC00892F817090FD80E8C82B1092D0
:1050A000E9008091E80083FD0E94DF26CF70C09365
:1050B000E900CF910895DB018F939F930E94CA2846
:1050C000BF91AF91A29F800D911DA39F900DB29FA4
:1050D000900D11240895AA1BBB1B51E107C0AA1F04
:1050E000BB1FA617B70710F0A61BB70B881F991F89
:1050F0005A95A9F780959095BC01CD01089597FB2D
:10510000072E16F4009407D077FD09D00E946B2873
:1051100007FC05D03EF4909581959F4F08957095BA
:1051200061957F4F0895A1E21A2EAA1BBB1BFD01BA
:105130000DC0AA1FBB1FEE1FFF1FA217B307E40776
:10514000F50720F0A21BB30BE40BF50B661F771FCE
:10515000881F991F1A9469F76095709580959095AE
:105160009B01AC01BD01CF010895EE0FFF1F05901B
:10517000F491E02D0994A29FB001B39FC001A39FB9
:10518000700D811D1124911DB29F700D811D112480
:10519000911D08950E94BB28A59F900DB49F900D6E
:1051A000A49F800D911D11240895F999FECF92BD01
:1051B00081BDF89A992780B50895A8E1B0E042E052
:1051C00050E00C940929262FF999FECF92BD81BD9C
:1051D000F89A019700B4021639F01FBA20BD0FB635
:1051E000F894FA9AF99A0FBE08950396272F0E9411
:1051F000E4280E94E328252F0E94E428242F0C9401
:10520000E4280196272F0E94E4280C94E328DC016F
:10521000CB01FC01F999FECF06C0F2BDE1BDF89AC1
:10522000319600B40D9241505040B8F70895F8946B
:02523000FFCFAE
:1052320037001E0236002302241406132514151308
:1052420026021913270205132714200227141F020E
:105252000814201321021C130611211437021911FC
:1052620036020511161116132F0034132F023313B1
:105272002F1433112F133213301430130613151356
:1052820036141D1437141B141F0220022402251386
:105292003514641333022E003011331462003314B8
:1052A20059001E115A001F115B0020115C002111D0
:1052B2005D0022115E0023115F00221360002313A0
:1052C20061002413550022025700361335003502BF
:1052D2002C002A002F0008002F0208002F000C00CB
:1052E2002F020C002F0012002F0018002F000400C4
:1052F200B40233000000AE0226130000A8023713E6
:105302000000A202081100009C0204110000960293
:105312002900000090024C0000008A022B000000CD
:105322008402530000007E023962000078020151BB
:105332000000700202510000680202510000620285
:10534200015100005C02397200005602E0000000C8
:105352005002E20000004802E30000004002E700C1
:1053620000003A02E60000003402E00000002E02D3
:105372003A00000028023B00000022023C0000002C
:105382001C023D00000016023E00000010023F0019
:1053920000000A0240000000040241000000FE0179
:1053A20042000000F80143000000F2014400000046
:1053B200EC0145000000012100F7032808641E14D7
:1053C2000A321E8F21EC21CD21C921C52101E20023
:1053D200E900EA00B500B600B700CD008301CC00B9
:1053E2008A0192019401210223022402250226024B
:1053F20027022A02B300B4006F0070008182833456
:10540200C697669490F731333236E200E900EA003B
:10541200B500B600B700CD008301CC008A0192012D
:1054220094012102230224022502260227022A02D3
:0C543200B300B4006F00700081828300A2
:00000001FF
