:100000000C945D010C94A4010C94A4010C94A40123
:100010000C94A4010C94A4010C94A4010C94A401CC
:100020000C94A4010C94A4010C94D71F0C94A92047
:100030000C94E3160C94A4010C94A4010C94A40158
:100040000C94A4010C94A4010C94A4010C94A4019C
:100050000C94A4010C9430170C94A4010C94A401EA
:100060000C94A4010C94A4010C94A4010C94A4017C
:100070000C94A4010C94A4010C94A4010C94A4016C
:100080000C94A4010C94A4010C94A4010C94A4015C
:100090000C94A4010C94A4010C94A4010C94A4014C
:1000A0000C94A4010C94A4010C94A401430C430CE3
:1000B000750C750CC20CE00C010E010EEB0C800DE2
:1000C000910D910DF10D010E010EFA0DA10EA10E73
:1000D000B30EB30EAA0EB30EB30EB30EA10EA10E45
:1000E000AF0EB30EB30EAF0E16213D2135223D21CA
:1000F00035228921AC213522032212223A003B000D
:100100003C003D003E003F004000410042004300F3
:1001100044004500680069006A006B006C006D00D7
:100120006E006F0070007100720073003E003F00AF
:100130004000410042004300100347006800650092
:1001400072006B0069006E00000020033400300074
:100150002000500065007200630065006E007400AE
:10016000200043006C0075006200000004030904D5
:1001700009023B00020100A0FA090400000103018A
:100180000100092111010001224000070581030837
:10019000000A090401000103000000092111010007
:1001A0000122BC000705820320000A120110010091
:1001B000000008EDFE606001000102000105010978
:1001C00002A10185020901A10005091901290515EE
:1001D00000250195057501810295017503810105D1
:1001E00001093009311581257F95027508810609BD
:1001F000381581257F950175088106050C0A38029E
:100200001581257F950175088106C0C0050109800B
:10021000A101850319012AB700150126B700950130
:1002200075108100C0050C0901A101850419012A7E
:10023000A002150126A002950175108100C00501DC
:100240000906A1018505050719E029E71500250123
:100250009508750181020507190029EF1500250190
:1002600095F07501810205081901290595057501AB
:100270009102950175039101C005010906A10105CF
:100280000719E029E71500250195087501810295F8
:1002900001750881010507190029FF150026FF00D7
:1002A0009506750881000508190129059505750150
:1002B0009102950175039101C00011241FBECFEF7B
:1002C000DAE0DEBFCDBF04B603FE27C080915E0238
:1002D00090915F02A0916002B09161028730904BD3
:1002E000A740B04BD1F410925E0210925F021092C0
:1002F00060021092610214BE84B7877F84BF0FB67C
:10030000F894A895809160008861809360001092B5
:1003100060000FBEE0E0F8E3099511E0A0E0B1E075
:10032000EEE4F6E402C005900D92A238B107D9F7C9
:1003300022E0A2E8B1E001C01D92AE35B207E1F7BC
:100340000E94171D0C9425230C94000081E0089551
:1003500081E008950C94A80108950C94AC011F93BA
:10036000CF93DF9300D000D01F92CDB7DEB7498383
:100370005A836B833091950189819A81311114C020
:10038000662359F0222349F00E94D613182F682FB4
:1003900089819A810E947D1303C00E94A913182F9E
:1003A00069817A81812F04C00E94D61369817A8184
:1003B0000F900F900F900F900F90DF91CF911F91A2
:1003C0000C946B02FC01262F408151816281738164
:1003D00084810C94AF0181E00895CF93DF93EC0109
:1003E00060E00E94E201BE01DF91CF910C94AD016B
:1003F0000E940815811102C00E94C2150E940C07BC
:100400000C9490040C948C0408950E948F0E0E940A
:1004100004022FEF84E39CE0215080409040E1F7FC
:1004200000C000000C9456170F931F93CF93DF93D7
:10043000EC0161E00E94E2018C01BE010E94AA0170
:10044000882379F1BE01C8010E946D06882349F115
:10045000BE01C8010E94B407882319F1BE01C8017A
:100460000E9406088823E9F0BE01C8010E943109F4
:100470008823B9F08A81882369F001158CE5180773
:1004800031F00F3D1C4531F40E94C2150AC00E9494
:10049000050207C0CE01DF91CF911F910F910C94FF
:1004A000A60180E0DF91CF911F910F9108950895EB
:1004B0000C94570281E008950C945A02CF93C82FF0
:1004C0000E9458028C2F0E945C02CF91089580E018
:1004D00090E0089508952EE1829FC0011124FC014F
:1004E00026E0729FE00DF11D1124E60FF11DEE0FC5
:1004F000FF1FE450FF4F859194910895880F991F35
:10050000FC01E85CFE4F859194910895CF93DF93B1
:100510000E94A703EC01811520E5920708F03FC077
:10052000811540E4940708F0D2C0883E910500F59B
:10053000803E910508F002C1883A910570F4853A31
:10054000910508F0A6C08130910509F49FC008F418
:10055000F2C0049708F0F2C0EEC08F3B910508F49A
:10056000A1C0803C910508F4E6C0805C9109A5C05B
:10057000811550E2950760F4C11581E0D80708F0B5
:10058000DDC0C03FD10508F4D6C0CE019065D7C00C
:10059000811520E3920708F093C09F708EC08115EB
:1005A00045E5940708F046C0811554E5950708F025
:1005B000A6C0C11582E5D80718F5C11521E5D207F7
:1005C00008F088C0CE01F4E096958795FA95E1F79A
:1005D000282F23703C2F337081E090E002C0880FF9
:1005E000991F3A95E2F79C68922B2C2F2F70269535
:1005F000269540E2249F90011124822B932B9FC0CB
:100600009E01237033279C2F96959695C115D3454F
:1006100008F065C041E050E002C0440F551F2A9524
:10062000E2F780E2989F90011124CA01822B932B5C
:100630009C6885C0811559E5950798F4C11588E532
:10064000D80708F061C0C11526E5D20708F073C0CD
:100650008C2F0E943B048F7190E0982F8827906226
:100660006EC081154AE5940708F453C09056811571
:10067000904208F060C08D2F8F710E943B049E0154
:10068000332730628F71A901582B53C081E090E06D
:1006900056C0855AC82FD0E0CD5BDE4F888190E0F0
:1006A00090644DC0885AC82FD0E0CC0FDD1FCB5EC0
:1006B000DE4F88819981946442C00E947E023FC0CF
:1006C0009927D3FF02C0986C3AC0906C38C09F70D5
:1006D000906A35C09C2F8827816F906A30C041E0B6
:1006E00050E002C0440F551F2A95E2F780E2989F20
:1006F00090011124CA01822B932B9A6820C0982F55
:100700008827846F906A1BC09C2F8827806F906A0F
:1007100016C08F700E943B049E0194E03695279589
:100720009A95E1F72F7030E0322F22273069A90126
:10073000482BCA0104C080E090E001C0CE01DF91E7
:10074000CF9108950E946B020E948602089582381C
:10075000910569F1B0F48133910509F46DC048F455
:100760008932910509F463C08A32910509F469C0A0
:1007700008958533910509F455C089339105B9F081
:100780000895833E910569F138F4803E9105B1F0FA
:10079000823E910509F10895863E9105A9F1873EB3
:1007A0009105B9F1843E910509F064C023C0209100
:1007B0004F0220FD4FC021FD4DC0089580914F0292
:1007C00080FD44C08091500280FF44C080914F0260
:1007D00084FD42C083EE4DC080914F0282FF38C03D
:1007E000F5CF80914F0282FD33C08091500280FD91
:1007F00031C0ECCF8091500281FF32C080914F0216
:1008000084FD2AC087EE35C080914F0283FF26C049
:10081000F5CF80914F0283FD21C08091500281FD70
:100820001FC0ECCF80914F0285FD1CC01DC0809180
:100830004F0285FD19C016C080914F0286FD16C07B
:1008400017C080914F0286FD13C010C089E311C00C
:1008500082EE0FC080EE0DC080E00BC086EE09C0B6
:1008600084EE07C089E205C085E303C08AE201C0C7
:1008700081E390E0089590914F0292FF0DC0282FE0
:100880002871283019F4877F846006C0282F2471CE
:10089000243011F48B7F886093FF0DC0282F2871BE
:1008A000283119F4877E846106C0282F24712431F1
:1008B00011F48B7E88612091500220FF0DC0382FEB
:1008C0003871383019F4877F816006C0382F317154
:1008D000313011F48E7F886021FF0DC0282F2871E0
:1008E000283119F4877E816106C0282F21712131BA
:1008F00011F48E7E886194FD877E0895E82FF0E0E4
:10090000EB5BFD4F80810895089580EA8A95F1F7A9
:10091000089508950C9489040C948A040C94890415
:100920000C948E04F894E82FE295EF70F0E031A17A
:10093000282F2F7081E090E001C0880F2A95EAF7F8
:10094000982F9095932391A392A1892B82A37894B9
:1009500008950F931F93CF93DF9387EF0E94920424
:1009600081E30E94920483E30E94920482E30E9446
:10097000920486E30E949204C6E4D1E00CE411E004
:1009800089910E9492040C171D07D1F7E0E4F2E070
:10099000A5E4B2E011921D9282E0E534F807D1F7A8
:1009A00085E00E945C05DF91CF911F910F910C941F
:1009B000F8018F929F92AF92BF92CF92DF92EF9207
:1009C000FF920F931F93CF93DF938CE4A82E81E0C7
:1009D000B82EC0E4D2E091E5E92E91E0F92E912CF9
:1009E00001E010E06501F5018081F894E82FE295BF
:1009F000EF70F0E021A18F70A80102C0440F551FD5
:100A00008A95E2F7CA01922F982B91A392A1809523
:100A1000892382A378940E948504E6E4F1E020E033
:100A200030E0812C4191A42FA295AF70B0E0909658
:100A30008C9190E04F7002C0959587954A95E2F7AA
:100A400080FD07C0802F022E01C0880F0A94EAF7AC
:100A500001C080E0882A2F5F3F4F2630310511F713
:100A60005FEFA51AB50AF60180810E949204888181
:100A7000881619F0888281E001C080E0982A2196CA
:100A8000EA14FB0409F0AECF292D45E065E472E0DD
:100A900080E492E00E945D050E940202892DDF91B0
:100AA000CF911F910F91FF90EF90DF90CF90BF906B
:100AB000AF909F908F9008950895FF920F931F938A
:100AC000CF93DF938C01F62ED72FC42F222349F02A
:100AD00081E0809384010E94151790938301809395
:100AE0008201809184018823C1F0809182019091DC
:100AF00083010E942117069780F0EF2DFD2FD8016A
:100B00004C2F50E0CD01801B910B841795071CF4EE
:100B10008D918193F7CF10928401DF91CF911F9136
:100B20000F91FF9008950E940815811102C00E9444
:100B3000C2150E94431580934A02282F26952695B8
:100B4000269530E02430310524F087708861809349
:100B50004A0280914A0280FF04C086958695869558
:100B600001C080E00C94A20620914A02822F869553
:100B700086958695482F50E04330510554F48F5F99
:100B8000982F990F990F990F822F8770892B809337
:100B90004A0280914A02816080934A020E9447156E
:100BA00080914A028695869586950C94A20680913E
:100BB0004A02982F969596959695A1F0915E990F79
:100BC000990F990F8770892B80934A02887F91E053
:100BD00009F490E080914A0290FB80F980934A02E8
:100BE0000E94471580914A028695869586950C94B9
:100BF000A20680914A0280FD13C0816080934A0260
:100C0000813019F489E080934A0280914A020E945F
:100C1000471580914A028695869586950C94A20682
:100C2000089580914A0280FF08C08E7F80934A0217
:100C30000E94471580E00C94A206089580914A0214
:100C400080FD0C9411060C94F90590914A02892FAD
:100C50008695869586958F5F8F719770843038F46E
:100C6000880F880F880F892B80934A0202C09093C7
:100C70004A0280914A02887F91E009F490E08091D5
:100C80004A0290FB80F980934A020E9447158091A6
:100C90004A028695869586950C94A206843008F0C3
:100CA00083E090914A029770282F220F220F220F83
:100CB000922B90934A02987F21E009F420E09091D2
:100CC0004A0220FB90F990934A020C94A2060E94DB
:100CD0004E0680914A020C9447159C01FB018281CB
:100CE000882349F12E3BFCE53F07C9F040F42C3B3B
:100CF000ECE53E0769F02D3B3C4561F00895203C52
:100D00009CE5390791F070F0213C3C4589F008954D
:100D100083E001C080E00E94670680E008950E94A1
:100D2000D705FBCF0E94B405F8CF0E941E06F5CF71
:100D30000E942506F2CF81E00895259A2D98089506
:100D40002D980895CF92DF92EF92FF92CF93C82F04
:100D5000843050F4811109C0809180008F77809396
:100D600080000E94A00606C0C3E0809180008068D9
:100D7000809380002C2F30E0AFEFBFEF0E94C9229C
:100D800023E030E040E050E00E94A122B42FA32FE6
:100D9000922F8827492F5A2F6B2F7727CA014C375C
:100DA00024E1520728F469E070E00E94792229C00A
:100DB000DB01CA018A50974DAF4FBF4F6627782F8E
:100DC000892F9A2F25EF38E241E050E00E94A122BE
:100DD00069017A01CA01B9010E9469229B01AC0133
:100DE000C701B6010E946922BB27A92F982F872F20
:100DF000009721E0A207B10511F0BC0102C06FEF1E
:100E00007FEF7093890060938800CF91FF90EF90FF
:100E1000DF90CF90089508950E949D0682E8809308
:100E2000800089E1809381008FEF9FEF909387008E
:100E3000809386000C949305AF92BF92CF92DF927D
:100E4000EF92FF920F931F93CF93DF937C015B018F
:100E5000C42FD22FFC0182818823F9F040938701AF
:100E60000E941517909386018093850180E28C0F74
:100E7000883008F06EC0C77081E001C0880FCA9545
:100E8000EAF7DF91CF911F910F91FF90EF90DF90E4
:100E9000CF90BF90AF900C94FF0B809187014813C7
:100EA00035C080918501909186010E9421176C01C7
:100EB000B701C5010E943F11C816D90638F510E2E6
:100EC0001D0FCD17B9F080E28C0F883040F4C77049
:100ED00081E001C0880FCA95EAF70E94060C18301D
:100EE00058F581E09D2F977001C0880F9A95EAF719
:100EF0000E94FF0B802F0E94EC0B183050F5D7702A
:100F000081E001C0880FDA95EAF70AC080E28C0F11
:100F10008830F8F4C77081E001C0880FCA95EAF7FD
:100F2000DF91CF911F910F91FF90EF90DF90CF90C5
:100F3000BF90AF900C94060C802FDF91CF911F9142
:100F40000F91FF90EF90DF90CF90BF90AF900C94F7
:100F5000EC0BDF91CF911F910F91FF90EF90DF90FD
:100F6000CF90BF90AF9008950F939C01CB01243F89
:100F70004CE5340731F188F4293DFCE53F07D9F011
:100F80002A3D4CE5340779F1283D3C45A9F506E2B8
:100F900021EE41EE68ED7CE52BC0263FFCE53F07E6
:100FA000E1F0A8F0273F3C4539F507E225EE46EE93
:100FB00067EF7CE51DC007E225EE45EE69ED7CE5B7
:100FC00017C006E221EE40EE64EF7CE511C007E2B7
:100FD00025EE44EE65EF7CE50BC006E221EE42EE25
:100FE00066EF7CE505C008E221E045EE6AED7CE5B0
:100FF0000E941C0780E008C0FC018281882319F050
:101000001092870101C081E00F910895CF93DF9383
:10101000EC01FB018281882309F41FC1C230FCE589
:10102000DF0708F41BC1C6319CE5D90738F09E01E3
:101030002B5F3C452930310508F010C10E94251571
:101040009093500280934F02C031ECE5DE0709F423
:10105000C3C008F041C0C8308CE5D80709F49AC075
:10106000F0F4C430ECE5DE0709F487C068F4C23060
:101070008CE5D80709F477C0C330DC4509F0E3C03C
:1010800080914F02826076C0C630ECE5DE0709F43D
:101090006EC008F07BC080914F0288606BC0CC307E
:1010A0008CE5D80709F485C068F4CA30ECE5DE07A2
:1010B00009F474C008F079C00E948F0E80914F022D
:1010C000806858C0CE308CE5D80709F476C008F0A7
:1010D0007FC080914F028BC0CC3FECE5DE0709F466
:1010E0004FC018F5C3318CE5D80709F47DC078F4FA
:1010F000C131ECE5DE0709F473C0C231DC4509F00B
:10110000A2C00E948F0E80914F028F7733C0C531ED
:101110008CE5D80709F472C008F486C0CB3FDC45E3
:1011200009F091C0809150023EC0C115FDE5DF0776
:1011300009F45FC058F4CE3F9CE5D90709F444C0D8
:1011400008F43FC08091500282602DC0C230FDE59E
:10115000DF0709F475C008F45DC0C330DD4509F050
:1011600072C080E06EC080914F02816003C08091A8
:101170004F02806180934F0266C080914F0211C080
:10118000809150028260809350025DC080914F0236
:101190008062F0CF80914F028064ECCF80914F024B
:1011A00088608460E7CF8160EECF80914F028E7FB0
:1011B000E1CF80914F028D7FDDCF80914F02877FFD
:1011C000D9CF8091500218C0809150028D7FDBCF23
:1011D00080914F028F7ECECF80914F028F7DCACFFC
:1011E00080914F028F7BC6CF80914F02877F8B7F8C
:1011F000C1CF809150028D7F8E7FC5CF80914F02ED
:1012000082FB222720F991E0922790FB82F990FB44
:1012100083F9B0CF80915002982F909591708E7F76
:10122000892B90FB81F9AFCF0E948F0E80914F02E6
:1012300087FB222720F991E0922790FB87F99ACF2C
:1012400081E00E94C41580914F02909150020E944B
:1012500036150E948F0E80E001C081E0DF91CF91B2
:101260000895CF93DF9386319C4541F5EB010E94B1
:101270005714982F8A812091000130910101882311
:1012800079F09A7A81E009F480E0809388019111E5
:1012900002C069E201C065E3C9010E945F160AC08D
:1012A00080918801811102C069E201C065E3C90132
:1012B0000E946A160E94A51480E001C081E0DF91BF
:1012C000CF91089590938E0180938D010895E091C0
:1012D0008D01F0918E01309721F00190F081E02D89
:1012E000099480E00895E0918D01F0918E0130978E
:1012F00099F020911401222359F020914F0227FFE9
:1013000007C0DC012C9111962C93119725E02C93AA
:101310000280F381E02D09940895E0918D01F09110
:101320008E01309739F022E0DC012C930480F581A6
:10133000E02D0994089520918B0130918C0128179C
:10134000390771F090938C0180938B01E0918D01AE
:10135000F0918E01309721F00680F781E02D0994FD
:1013600008952091890130918A012817390771F079
:1013700090938A0180938901E0918D01F0918E0113
:10138000309721F00084F185E02D0994089585B708
:10139000806885BF85B7806885BF089581E008951E
:1013A0000C94CE0908950C94D2090C94D2090C9493
:1013B000D5090C94D2090C94D9090C94D2090E9435
:1013C000C7090E94DD090C94DB090E940C170E94DA
:1013D000A9040E94AB170E9493050C94D709AF9201
:1013E000BF92CF92DF92EF92FF920F931F93CF9312
:1013F000DF93CDB7DEB72A970FB6F894DEBF0FBEE6
:10140000CDBF0E94D3090E94D2090E94D9040E9434
:10141000D009811111C08FEF89838A831B820E94BA
:1014200015178160782F9D838C8349815A816B8148
:101430008D810E948D0A40C080E9A82E81E0B82EDF
:1014400000E010E0C02E802F0E947E04E82EF501FF
:10145000D1905F01D82631F40F5F1F4F0530110581
:1014600089F7D9CF80910F0281FD0E94840480E02A
:10147000FF24F3949D2D9F21D1F08E83CF82EF2006
:1014800081E009F480E088870E9415178160782F39
:101490009A8789874E815F8168858A850E948D0A37
:1014A000F801E057FE4F8081F826F08205C08F5F7B
:1014B000FF0C8630F9F6D0CF0E940B070E947C1AF1
:1014C0000E94670990918F018917B1F00E94670906
:1014D00080938F012A960FB6F894DEBF0FBECDBF62
:1014E000DF91CF911F910F91FF90EF90DF90CF9000
:1014F000BF90AF900C945E022A960FB6F894DEBFB0
:101500000FBECDBFDF91CF911F910F91FF90EF9054
:10151000DF90CF90BF90AF900895CF93DF93CDB77A
:10152000DEB72B970FB6F894DEBF0FBECDBF4F834B
:10153000588769877A878B879E012F5F3F4F86E0A8
:10154000F90111928A95E9F785E0FE013796D901F4
:1015500001900D928A95E1F789819A814C815D8194
:10156000452B31F09F3F31F491E08F3F19F403C0D8
:1015700091E001C090E090FF09C049815A816B81E0
:101580007C818D819E810E94421105C0C9010E940B
:10159000EB018111F2CF2B960FB6F894DEBF0FBE90
:1015A000CDBFDF91CF910895FC01808191810E9490
:1015B00018140895CF93882309F4A4C0C82F823843
:1015C000C1F40E94670981FD9DC069E3809100011B
:1015D000909101010E945F160E94A5142FEF81EEE9
:1015E00094E0215080409040E1F700C0000069E3A2
:1015F00019C0833801F50E94670980FD83C063E547
:1016000080910001909101010E945F160E94A51433
:101610002FEF81EE94E0215080409040E1F700C030
:10162000000063E580910001909101010E946A161B
:10163000CF910C94A5148438C1F40E94670982FDEF
:1016400061C067E480910001909101010E945F16E2
:101650000E94A5142FEF81EE94E02150804090402D
:10166000E1F700C0000067E4DDCF8CEF8C0F813A1A
:10167000D0F46C2F80910001909101010E94DF1540
:10168000882349F06C2F80910001909101010E9404
:101690006A160E94A5146C2F80910001909101019F
:1016A0000E945F16C5CF80E28C0F883048F4C77067
:1016B00081E001C0880FCA95EAF70E945A14B8CF9A
:1016C000EBE5EC0FE33040F4F0E0E158FE4F8081B1
:1016D00090E0CF910C949B09E8E5EC0FE73150F4D2
:1016E000F0E0EE0FFF1FEF5AFE4F80819181CF9106
:1016F0000C94B109C03F30F08C2F0E947119CF912A
:101700000C945E1ACF910895882309F464C082383E
:1017100079F40E94670981FF5EC069E3809100014E
:10172000909101010E945F160E94A51469E310C008
:101730008338B1F40E94670980FF4DC063E5809152
:101740000001909101010E945F160E94A51463E5BB
:1017500080910001909101010E946A160C94A514D9
:10176000843879F40E94670982FF35C067E480916C
:101770000001909101010E945F160E94A51467E488
:10178000E7CF9CEF980F913A10F4682FE1CF90E2E9
:10179000980F983050F4877091E001C0990F8A95A6
:1017A000EAF7892F0E946014D9CF9BE5980F9330F8
:1017B00020F480E090E00C949B0998E5980F973115
:1017C00020F480E090E00C94B109803F20F00E946A
:1017D000D9190C945E1A0895CF93C82F0E94DA0A83
:1017E000C93349F42FEF87EE93E0215080409040B9
:1017F000E1F700C000008C2FCF910C94840B88235C
:1018000021F00E945A140C94A5140895882321F005
:101810000E9460140C94A5140895CF92DF92EF9269
:10182000FF920F931F93CF93DF937C01062FC72F57
:10183000FC01158112951F70D281D1110E9477147D
:101840000E945014882399F0DD2389F08C2F807F2B
:10185000803421F080E2800F883048F082E00E94DE
:10186000EF140E94501491E0D82ED92601C0D12C3B
:10187000CC2EC2948FE0C8228C2D90E0FC01EA5A55
:10188000FF4F0C94C3228C2F807FCF70882311F0E0
:10189000C295C07FDD2399F0CC2309F48DC180E28D
:1018A000800F883010F0011104C08C2F0E945A1450
:1018B00003C08C2F0E946A140E94A5147DC1802F42
:1018C0000E94840BCC2309F49CC180E2800F8830F5
:1018D00010F0011104C08C2F0E94601403C08C2FE3
:1018E0000E9470140E94A5148CC18C2F807FCF7031
:1018F000803211F0C295C07F002319F00130C9F089
:1019000022C0DD2371F0112341F0113031F40E9427
:101910008A148C2B0E94921474C10E948A148C2BFE
:101920001DC0112319F0113009F46BC10E949B14E2
:1019300025C0DD2321F0163008F063C10EC015303C
:1019400008F05FC11BC0DD2361F0112331F0F70106
:10195000858180FF31C18F7085838C2F0E94FF0BA2
:1019600050C1112359F0093309F037C1FFEF27EEB9
:1019700083E0F15020408040E1F72DC18C2F0E9480
:10198000060C3FC18C2F86958695837019F08130A7
:1019900061F037C1DD2321F0802F9C2F937002C0AE
:1019A00080E090E00E949B0934C1DD2321F0802F6C
:1019B0009C2F937002C080E090E00E94B10929C181
:1019C000802FDD2319F00E94711902C00E94D919DD
:1019D0000E945E1A1EC18C2F837009F045C0D11180
:1019E00014C1402F429546954770440F440F602F15
:1019F0006F70862F90E0A0E0B0E0042E04C0880F46
:101A0000991FAA1FBB1F0A94D2F704FF10C00FE052
:101A100010E020E030E004C0000F111F221F331F30
:101A20004A95D2F7009510952095309503C000E0B7
:101A300010E09801C695C695C370BC01CD01602B1E
:101A4000712B822B932BC23049F058F4C13019F01E
:101A50000E949312DAC00E948112D7C00E94A51280
:101A6000D4C00E947F12D1C0DD2319F08C2F817069
:101A700001C08695882309F4C8C0402F4295469539
:101A80004770440F440F602F6F70862F90E0A0E0E6
:101A9000B0E0042E04C0880F991FAA1FBB1F0A9430
:101AA000D2F704FF10C00FE010E020E030E004C0E7
:101AB000000F111F221F331F4A95D2F70095109572
:101AC0002095309503C000E010E09801C695C695BA
:101AD000C370BC01CD01602B712B822B932BC230C4
:101AE00049F058F4C13019F00E9458138EC00E947A
:101AF00046138BC00E946A1388C00E94B91285C029
:101B0000CF70DD2339F08C2F0E94DF12802F0E94CE
:101B1000FF0B7BC0802F0E94060C8C2F0E940013AD
:101B200074C0023F01F128F4003F41F0013FA1F0F1
:101B30003FC0033FF9F0043F39F13AC0DD2341F0E3
:101B4000153008F05EC08C2F8F710E94251359C08C
:101B5000163008F056C0F7CFDD2339F08C2F8F7187
:101B60000E94DF124EC0DD23C9F38C2F8F710E94BB
:101B7000001347C0DD2329F08C2F8F710E94CA12F9
:101B800040C00E94C5123DC0DD2349F0CF718C2FAB
:101B90000E94DF1263E08C2F0E94DA1432C081E0D1
:101BA0000E94EF14123068F182E00E94EF1429C005
:101BB000DD2331F0112391F2802F0E94DA0A21C037
:101BC000112399F2093349F49FEFE7EEF3E09150C6
:101BD000E040F040E1F700C00000802F0E94840B3D
:101BE00010C04C2F4F70602FC7010E9467020E94E7
:101BF000F0110FC04C2F4F70602FC7010E946A0276
:101C000008C088EF8C0D843020F40E9467090E9480
:101C10005E02DD20C9F00E944C1480FD15C0F70162
:101C200012820E9446140E94DF12C7010E94450ED4
:101C30000E944614DF91CF911F910F91FF90EF907A
:101C4000DF90CF900C940013DF91CF911F910F91F3
:101C5000FF90EF90DF90CF9008950F931F93CF9355
:101C6000DF93EC01688179818A810E9423148C01C1
:101C70000E947C130E946D12B801CE010E940D0CCF
:101C8000DF91CF911F910F910895CF93DF93EC01D6
:101C9000988189812B813C81232B31F08F3F31F456
:101CA00081E09F3F19F403C081E001C080E080FD26
:101CB00019C0CE010E94140281110CC00E94501460
:101CC000882381F08A81882369F082E0DF91CF91B7
:101CD0000C94EF14CE010E942D0ECE01DF91CF9116
:101CE0000C94ED01DF91CF9108950E9477140E942A
:101CF00087140E94A5140E948F1B0E945E1A80E028
:101D000090E00E949B0980E090E00C94B1098091E2
:101D10000001909101010E9475160C94750E0E94AD
:101D200067140C94870EE92FE295EF704E2F50E068
:101D3000FA013297EE30F105B0F4EA59FF4F0C94F6
:101D4000C322803F91F018F4883E68F40EC0843FAF
:101D500051F40BC0883E48F0813F29F406C093FB44
:101D6000882780F9089580E0089581E00895FC01B6
:101D7000808191810E9418140E94930E0895CF9340
:101D8000DF9300D000D01F92CDB7DEB70F900F9039
:101D90000F900F900F90DF91CF910895CF93DF9325
:101DA00000D000D000D0CDB7DEB726960FB6F8949D
:101DB000DEBF0FBECDBFDF91CF9108951F93CF93AC
:101DC000DF93C091960116E080919701C81799F0B2
:101DD000D0E01C9FF0011D9FF00D1124E856FE4F2E
:101DE0004081518162817381848195810E94CE0EF0
:101DF0002196C770E9CFDF91CF911F91089540914F
:101E0000C8015091C9016091CA017091CB018091C4
:101E1000CC019091CD010C94CE0E0F931F93CF93D4
:101E2000DF938091CD0182958F7009F05DC0809124
:101E3000CA01882309F458C0809196011091970136
:101E40006091C8017091C901C091CB01D091CC01C2
:101E500091E06F3F09F090E0292F06E0811709F427
:101E600043C0209721F07F3F21F030E003C031E0F4
:101E700001C0322F90E030FD34C0089FF001099F6F
:101E8000F00D1124DF01A856BE4F11963C91119719
:101E9000371327C03C91361324C012963C911297F9
:101EA00031111FC013964D915C9114974C1B5D0B23
:101EB000483C5105B0F48091CD018F7080618093D2
:101EC000CD01E356FE4F80818F708061808388EC66
:101ED00091E00E94450EDF91CF911F910F910C94DC
:101EE000DE0E01968770BACFDF91CF911F910F91CF
:101EF00008959F92AF92BF92CF92DF92EF92FF929E
:101F00000F931F93CF93DF93CDB7DEB761970FB6D3
:101F1000F894DEBF0FBECDBF8C0185E0F801DE0175
:101F20001D9601900D928A95E1F7F801E28090915B
:101F3000C8016091C9012091CB013091CC012115DC
:101F4000310531F06F3F31F481E09F3F19F403C058
:101F500081E001C080E0F82FF1709F2E80FD3FC12D
:101F6000F80140815181A380B48088ECC82E81E0C3
:101F7000D82EF090CA01F501E21BF30BFF2009F403
:101F8000D9C08091CD01E83CF10508F095C0282F1B
:101F9000207F09F052C0561313C0491311C0FE2C04
:101FA000E1100EC08F7080618093CD010E94FF0E02
:101FB000C6010E94450E8091CD01F80185834CC178
:101FC000AB2831F05F3F31F481E04F3F19F403C09B
:101FD00081E001C080E080FD03C081E08E2502C069
:101FE00080E090E0F82FF170FF2E80FF1CC0809100
:101FF00096012091970136E0821709F40BC190E019
:10200000389FF001399FF00D1124E856FE4F618191
:10201000561306C06081461303C06281E61203C0F6
:1020200001968770E9CFFE2CEE2009F415C180914E
:10203000CD0181608093CD0154C0561306C0491371
:1020400004C0E11002C0F80199C0C8010E94B70E97
:10205000882361F1EE2051F12091CD01822F8295EC
:102060008F7090E0029774F08091C8019091C9013F
:1020700098878F831986BB86AA862C87CE01079600
:102080000E94450E86E0F801A8ECB1E001900D92A7
:102090008A95E1F70E940D0F0E94FF0E0AC05617A5
:1020A00011F1C8010E94B70E81112CC0C8010E9415
:1020B000450EFF24F394D0C0282F207F81F77A2D7E
:1020C000B98AA88A6E2D89890E94BF0E88EC91E09A
:1020D0000E94450E86E0F60111928A95E9F70E946A
:1020E000FF0EF12CB9C04913DCCFE110DACFF801B3
:1020F0008583C8010E94450E86E0F60111928A95FB
:10210000E9F7AAC0EE2091F22091CD01822F8295AD
:102110008F7090E002970CF4B5CF8091C801909138
:10212000C9019A8389831B82BD82AC822E83CE0132
:102130000196A6CFE83CF10508F044C0FE2CEE2045
:1021400009F4B4CF561330C049132EC02091CD01ED
:1021500020FD21C0822F82958F70482F50E04115BD
:102160005105C9F0F80125834F30510541F08F5FCB
:10217000982F9295907F822F8F70892B8583C8012D
:102180000E94450E86E0F801A8ECB1E001900D92A6
:102190008A95E1F73CC086E0F801A8ECB1E0019037
:1021A0000D928A95E1F758C0C8010E94B70E8111BF
:1021B00069CF8091CD0181608093CD01C8010E94DB
:1021C000450E4AC07A2DB98AA88A6E2D89890E9447
:1021D000BF0E86E0F60111928A95E9F718C0EE204D
:1021E00009F464CFC8010E94B70EF82E882309F4C1
:1021F0005DCF86E0F801A8ECB1E001900D928A95E0
:10220000E1F788EC91E00E94D40A0E940D0F0E9431
:10221000FF0E22C04D875E878D859E850E94181413
:10222000292F22952F70223028F49F7039F08111C8
:1022300005C00BC0243028F49F7049F4805E8830BC
:1022400020F0C8010E94450E9F2CF92C05C0F80112
:102250009581907F99F7F9CF8F2D61960FB6F894FD
:10226000DEBF0FBECDBFDF91CF911F910F91FF90C9
:10227000EF90DF90CF90BF90AF909F90089588EC43
:1022800090E008951F93CF93DF93CDB7DEB72C97DF
:102290000FB6F894DEBF0FBECDBF4F835887698756
:1022A0007A878B879C87CE0107960E94790F8823B7
:1022B000D1F09F8188852A853B85232B31F08F3F84
:1022C00031F481E09F3F19F403C081E001C080E058
:1022D00080FD47C04F81588569857A858B859C85AF
:1022E0000E94CE0E3EC086E0FE013796DE011196BA
:1022F00001900D928A95E1F7FF81E8856A857B85DB
:102300006115710531F0EF3F31F481E0FF3F19F4C1
:1023100003C081E001C080E080FD23C020919701CF
:1023200030E0C9010196877099274091960150E0ED
:1023300084179507F1F1F983EA837D836C8396E036
:10234000929FD001939FB00D1124A856BE4FFE015D
:10235000319601900D929A95E1F7809397010E9432
:10236000DE0E16E08091960190919701891771F128
:10237000189FC001112488569E4F0E94790F882310
:1023800029F1E09196011E9FF0011124E856FE4FBD
:102390004081518162817381848195810E94CE0E3A
:1023A0008091960190E0019687709927809396011D
:1023B000D9CF0E948F0E1092970110929601E8ECEF
:1023C000F1E086E0DF011D928A95E9F72C960FB6C1
:1023D000F894DEBF0FBECDBFDF91CF911F9108955E
:1023E000EF92FF920F931F93CF93DF938C01892B72
:1023F00009F46CC0F12CEE24E394E8012196F80175
:102400008491843740F4843008F051C0813081F0E9
:10241000823019F15BC0853709F444C0A8F19CE70C
:10242000980F903708F052C08F770E94840B41C0FC
:102430000E5F1F4FFE01849190E2980F983050F488
:102440008770FE2D01C0FF0F8A95EAF78F2F0E943B
:102450007A1414C00E94DA0A2DC00E5F1F4FFE01CD
:10246000849190E2980F983060F48770FE2D01C03F
:10247000FF0F8A95EAF78F2F0E9480140E94A514FF
:1024800019C00E94840B16C00E5F1F4FFE01C4913D
:10249000CC2381F08FE99FE00197F1F700C00000A5
:1024A000C150F6CF0E5F1F4FFE01F49003C00E9493
:1024B000DA0A8E018F2D882309F49FCFEFE9FFE020
:1024C0003197F1F700C000008150F5CFDF91CF9137
:1024D0001F910F91FF90EF900895089508950C9427
:1024E0006E120C946F120E9471126093E601709349
:1024F000E7018093E8019093E9010C94750E0C9428
:1025000073120F931F930091E6011091E701209140
:10251000E8013091E901602B712B822B932B1F91E5
:102520000F910C9473120F931F930091E601109179
:10253000E7012091E8013091E901602371238223B2
:1025400093231F910F910C9473120F931F9300917B
:10255000E6011091E7012091E8013091E90160273F
:102560007127822793271F910F910C9473120C945B
:102570006E120E94B7126093E2017093E3018093A0
:10258000E4019093E5010C94750E60E070E0CB01DE
:102590000C94B9120F931F9341E050E060E070E09B
:1025A0008A019B0104C0000F111F221F331F8A954F
:1025B000D2F7C901B8011F910F910C94B9120F9372
:1025C0001F9341E050E060E070E004C0440F551FED
:1025D000661F771F8A95D2F78091E2019091E301FF
:1025E000A091E401B091E5018A019B01082B192B10
:1025F0002A2B3B2BC901B8011F910F910C94B912E2
:102600000F931F9341E050E060E070E004C0440F7E
:10261000551F661F771F8A95D2F740955095609594
:1026200070958091E2019091E301A091E401B09155
:10263000E5018A019B01082319232A233B23C901B1
:10264000B8011F910F910C94B9120F931F9341E0A1
:1026500050E060E070E004C0440F551F661F771F14
:102660008A95D2F78091E2019091E301A091E40173
:10267000B091E5018A019B01082719272A273B27EA
:10268000C901B8011F910F910C94B9120F931F93B8
:102690000091E2011091E3012091E4013091E50104
:1026A000602B712B822B932B1F910F910C94B912DD
:1026B0000F931F930091E2011091E3012091E40137
:1026C0003091E50160237123822393231F910F91A1
:1026D0000C94B9120F931F930091E2011091E30142
:1026E0002091E4013091E50160277127822793272B
:1026F0001F910F910C94B9120895292F220F920F58
:10270000990F890FE82FE695E695E695877051E0D9
:1027100001C0550F8A95EAF785E0E89FF001112482
:10272000E253FE4F20E030E070E04081CB01022E0A
:1027300002C0969587950A94E2F781708195842767
:102740008523842781932F5F3F4F2530310569F71B
:102750000895292F220F920F990F890F682F6695E0
:1027600066956695982F977085E0689FB001112453
:1027700040E050E080E0FB01E40FF51FE253FE4F24
:10278000208130E0092E02C0369527950A94E2F7A1
:1027900021703327042E01C0220F0A94EAF7822BFE
:1027A0004F5F5F4F4530510531F70895BF92CF928B
:1027B000DF92EF92FF920F931F93CF93DF938C01E1
:1027C000C090E201D090E301E090E401F090E501D7
:1027D0008091E6019091E701A091E801B091E901B3
:1027E000C82AD92AEA2AFB2ACFE1D0E0D701C601BC
:1027F0000C2E04C0B695A795979587950A94D2F7A5
:1028000080FD04C0219790F7B12C07C0BC2EB80101
:102810008C2F0E94A2030197A9F38B2DDF91CF91FA
:102820001F910F91FF90EF90DF90CF90BF90089590
:10283000CF93DF93EC010E94D613BE010E94A20346
:10284000DF91CF9108951F93CF93DF93EB01909188
:102850009501992321F0CB010E94181413C08823FD
:1028600049F0CB010E94D613182F682FCE010E9489
:102870007D1304C0CB010E94A913182FBE01812F24
:102880000E94A203DF91CF911F9108958091EA01E8
:1028900085958595859508958091EA0187700895BD
:1028A0009091EA01977081E009F480E008958091A9
:1028B0000E02089590910E02892B80930E020895C6
:1028C000809590910E02892380930E0208951092B4
:1028D0000E02089590910D02892B80930D020895A8
:1028E000809590910D02892380930D020895109296
:1028F0000D02089590910C02892B80930C0208958B
:10290000809590910C02892380930C020895109277
:102910000C0208958091EB01089508950C948D1494
:102920000C948E149091EB01981721F08093EB0199
:102930000C94901408958091EB01882329F0109253
:10294000EB0180E00C9490140895E0910001F09167
:10295000010180910E028083E0910001F09101015C
:10296000908180910D02892B8083E0910001F0918C
:102970000101908180910C02892B80838091EB0171
:10298000882381F0E0910001F09101019081892B71
:10299000808380910001909101010E94C9158111ED
:1029A0000E949B1480910001909101010C94730985
:1029B0000C948D1498E0899F90011124262B20936C
:1029C000EA010E94DF128091EA018595859585953F
:1029D0000C94D8141092EA0180E00C94D814209141
:1029E000EA01809582238093EA01982F977079F409
:1029F00030E0482F082E000C550B2417350739F00E
:102A00008595859585950E9400130C94EA14089588
:102A100080E090E00E94EB2221E08C3E9E4F09F086
:102A200020E0822F089582E090E00C94E322682F4A
:102A300082E090E00C94F12283E090E00C94E32299
:102A4000682F83E090E00C94F122CF9384E090E033
:102A50000E94E322C82F81E290E00E94E3222C2F03
:102A600030E0A901582BCA01CF910895CF93C92F07
:102A7000682F84E090E00E94F1226C2F81E290E0C8
:102A8000CF910C94F12286E090E00C94E322682F21
:102A900086E090E00C94F122AB01BC018FE090E065
:102AA0000C940323AB01BC0183E190E00C9403235D
:102AB00060E070E0CB010C94521560E070E0CB0157
:102AC0000E944C150C9458156CEE7EEF80E090E05F
:102AD0000E940F2360E082E090E00E94F12260E01B
:102AE00083E090E00E94F1221092E6011092E7014B
:102AF0001092E8011092E90160E084E090E00E9409
:102B0000F12260E081E290E00E94F12260E085E045
:102B100090E00E94F12260E086E090E00E94F122C5
:102B20006FEF87E090E00E94F12240E050E0BA01B0
:102B300088E090E00E94032360E08DE090E00E9436
:102B4000F12240E050E0BA0188E190E00E940323C6
:102B500060E087E190E00E94F12240E050E0BA019D
:102B60008CE190E00E94032360E080E290E00E940C
:102B7000F12240E050E0BA0188E190E00E94032396
:102B80000C945D150C946415682F8EE090E00C9405
:102B9000F122FC01329680911401882331F080915A
:102BA0004F0287FF02C09EE101C096E080E0915095
:102BB00028F021912223D9F38F5FF9CF089566235E
:102BC00051F1209114012223E9F020914F0227FFB7
:102BD00019C0462F4695469546954E31E0F46770EC
:102BE00021E030E002C0220F331F6A95E2F7FC01BA
:102BF000E40FF11D828190E02823392381E0232B0B
:102C000069F409C0FC01329608962191621729F0F7
:102C1000E817F907D1F780E0089581E008959C0155
:102C2000FC0132969FEF80E04191461789F09F3F6B
:102C300019F4411101C0982F8F5F8630A9F79F3F8B
:102C400039F0F901E90FF11D97FDFA9562830895B6
:102C500008959C012A5F3F4FFC014281461301C049
:102C60001282019682179307B9F70895262F2695A9
:102C7000269526952E3168F4FC01E20FF11D677050
:102C800021E030E001C0220F6A95EAF78281282B0B
:102C900022830895262F2695269526952E3170F4A9
:102CA000FC01E20FF11D677021E030E001C0220F4E
:102CB0006A95EAF72095828128232283089520913E
:102CC0001401222329F020914F0227FD0C9436167F
:102CD0000C940F1620911401222329F020914F0209
:102CE00027FD0C944A160C94291620911401FC011E
:102CF0003296222331F080914F0287FF02C08EE18D
:102D000001C086E0DF011D928A95E9F708950895D4
:102D10000C9487160C948716CF930E948A160E94F3
:102D2000D9040E948816C0E08C2F0E947E04811175
:102D300004C0CF5FC530C1F701C081E0CF910895D5
:102D40000C9487160C94A0160E94A216809155022E
:102D5000843061F11092100220E488E190E00FB617
:102D6000F894A895809360000FBE2093600080E0E7
:102D70000E94A20680E00E945E020E94A21683B713
:102D8000817F846083BF83B7816083BF7894889597
:102D900083B78E7F83BF0FB6F894A89580916000AB
:102DA000886180936000109260000FBE08950C94BB
:102DB00087160E948F0E0E9493050E9467090E9449
:102DC0005E020C94D7161F920F920FB60F92112429
:102DD0008F939F93AF93BF9380911002811113C083
:102DE00080914B0290914C02A0914D02B0914E0205
:102DF0004196A11DB11D80934B0290934C02A0936C
:102E00004D02B0934E02BF91AF919F918F910F9061
:102E10000FBE0F901F90189582E084BD93E095BD82
:102E20009AEF97BD80936E0008952FB7F894809124
:102E30004B0290914C02A0914D02B0914E022FBFD7
:102E400008959C014FB7F89480914B0290914C02E9
:102E5000A0914D02B0914E024FBF821B930B08957B
:102E600078941F920F920FB60F9211248F939F9315
:102E7000AF93BF9380914B0290914C02A0914D0271
:102E8000B0914E020196A11DB11D80934B0290930B
:102E90004C02A0934D02B0934E02BF91AF919F910F
:102EA0008F910F900FBE0F901F90189587E797E7AF
:102EB00090930108809300089AE088E10FB6F89497
:102EC000A895809360000FBE90936000FFCFCF92D3
:102ED000DF92EF92FF920F931F93CF93C0E0E82E03
:102EE000F12C8C2F0E947E0400E010E0C82ED12C23
:102EF000C601002E02C0959587950A94E2F780FDE1
:102F000006C00F5F1F4F0630110591F70AC0602FF2
:102F10007C2F80E00E946B02E816F90691F781E0B1
:102F200004C0CF5FC530E9F680E0CF911F910F91CB
:102F3000FF90EF90DF90CF900895CF93C82F8CE251
:102F40000E946717882321F08C2FCF910C9467176C
:102F500080E0CF910895CF930E940815811102C09F
:102F60000E94C215C5E6C15049F00E94D9048FE302
:102F70009CE90197F1F700C00000F5CF89E20E94BB
:102F80009D1781112AC18AE20E949D1781110E941A
:102F9000C21585E00E949D1781110E9456170E945C
:102FA000131580930F0287E00E949D178823A9F1D3
:102FB0008BE10E949D17882351F080910F0281FBC5
:102FC000222720F991E0922790FB81F90EC08EE034
:102FD0000E949D17882361F080910F0282FB2227B7
:102FE00020F991E0922790FB82F980930F0215C09F
:102FF00080E10E949D1790910F02882341F093FB7E
:10300000222720F981E0822780FB93F904C0892FD1
:10301000809580FB90F990930F0280910F020E949F
:1030200017150E9425159093500280934F0280EE51
:103030000E949D17882341F080914F02982F909510
:1030400090FB80F980934F0289E30E949D178823AB
:1030500059F080914F0281FB222720F991E09227BD
:1030600090FB81F980934F0282EE0E949D17882386
:1030700059F080914F0282FB222720F991E092279C
:1030800090FB82F980934F0286EE0E949D17882361
:1030900059F080914F0283FB222720F991E092277B
:1030A00090FB83F980934F0283EE0E949D17882343
:1030B00059F080914F0284FB222720F991E092275A
:1030C00090FB84F980934F0285E30E949D1788232B
:1030D00059F080914F0285FB222720F991E0922739
:1030E00090FB85F980934F0281E30E949D1788230E
:1030F00059F080914F0286FB222720F991E0922718
:1031000090FB86F980934F0281E10E949D178823EE
:1031100059F080914F0287FB222720F991E09227F6
:1031200090FB87F980934F0280914F02909150025B
:103130000E94361587E20E949D17C82F8EE10E94DB
:103140009D178111C2608FE10E949D178111C4609B
:1031500080E20E949D178111C86081E20E949D1744
:103160008111C06182E20E949D178111C06283E2D9
:103170000E949D178111C06484E20E949D178823DC
:1031800011F0C06802C0CC2329F08C2F0E942015BA
:103190006C2F03C00E941C15682F70E080E090E047
:1031A0000E947F126091E2017091E3018091E4013D
:1031B0009091E5010E94B7128FE00E949D1788232D
:1031C00019F081E00E94C41585E10E949D178823B3
:1031D00021F080E0CF910C94C415CF910895809197
:1031E000170280FF0BC06091070185E0689FB00166
:1031F000112475956795759567952BC081FF09C05A
:103200006091070185E0689FB0011124759567956D
:1032100020C082FF07C06091070185E0689FB00170
:10322000112417C0909116029923D1F060910601E4
:10323000961788F72091070185E0289F90011124B7
:10324000929FA001939F500D112470E0CA010E942B
:103250008D226038710540F46115710519F406C0BE
:1032600065E070E0862F08958FE7089581E0089566
:103270008091170280FF08C06091030170E075958E
:1032800067957595679521C081FF06C06091030120
:1032900070E07595679519C082FF04C060910301C5
:1032A00070E010C090911502992399F0609102018D
:1032B0009617A0F780910301899FC001112470E047
:1032C0000E948D226038710540F46115710519F472
:1032D00006C061E070E0862F08958FE7089581E0D1
:1032E0000895803F21F40E94EF18819504C0813F2A
:1032F00029F40E94EF1880931B020895823F21F465
:103300000E94EF18819504C0833F29F40E94EF18B2
:1033100080931A020895893F19F40E94381905C054
:103320008A3F31F40E943819819580931C020895D8
:103330008B3F21F40E943819819504C08C3F29F4F9
:103340000E94381980931D020895843F21F48091D2
:103350001902816017C0853F21F4809119028260B3
:1033600011C0863F21F48091190284600BC0873F11
:1033700021F480911902886005C0883F31F4809162
:10338000190280618093190208958D3F21F4809184
:10339000170281600BC08E3F21F48091170282607A
:1033A00005C08F3F29F48091170284608093170233
:1033B0000895803F39F480911B0287FF6AC0109204
:1033C0001B0267C0813F29F480911B021816BCF3D1
:1033D00060C090911A02823F29F497FF5AC0109260
:1033E0001A0257C0833F19F41916CCF352C09091BA
:1033F0001C02893F31F419160CF04BC010921C02CC
:1034000048C08A3F19F497FF44C0F8CF8B3F39F486
:1034100080911D0287FF3DC010921D023AC08C3F73
:1034200029F480911D021816BCF333C0843F21F4A7
:10343000809119028E7F17C0853F21F48091190277
:103440008D7F11C0863F21F4809119028B7F0BC0C4
:10345000873F21F480911902877F05C0883F31F4AE
:10346000809119028F7E8093190213C08D3F21F441
:10347000809117028E7F0BC08E3F21F4809117023E
:103480008D7F05C08F3F29F4809117028B7F809339
:10349000170280911A02811106C080911B028111CE
:1034A00002C01092160280911C02811106C0809108
:1034B0001D02811102C01092150208950E94151775
:1034C00020911A02211104C020911B02222321F015
:1034D000909314028093130220911C02211104C0C6
:1034E00020911D02222321F0909312028093110259
:1034F00088E192E00C948D09EF92FF920F931F9355
:10350000CF93DF9300D000D000D0CDB7DEB786E0F8
:10351000E8E1F2E0DE01119601900D928A95E1F763
:10352000E0901A02F0901B0200911C0210911D0203
:1035300010921A0210921B0210921C0210921D028D
:10354000E11003C0FF2009F45DC080911302909147
:1035500014020E942117AC0190911602992339F0B0
:103560002091080130E02417350758F04BC0209116
:1035700009018AE0289F900111242417350718F0CB
:1035800041C09F3F19F09F5F90931602EE2061F0BB
:103590000E94EF181E1414F09FEF01C091E0989F55
:1035A000902D112490931A02FF2061F00E94EF18D1
:1035B0001F1414F09FEF01C091E0989F902D1124EB
:1035C00090931B0230911A023323E1F020911B02E9
:1035D0002223C1F045EB3403C0011124992319F0D3
:1035E00090931A0203C081E080931A0235EB230303
:1035F000C0011124992319F090931B0203C081E0AC
:1036000080931B02011103C0112309F45DC0809156
:103610001102909112020E942117AC0190911502A3
:10362000992339F02091040130E02417350758F030
:103630004BC0209105018AE0289F90011124241796
:10364000350718F041C09F3F19F09F5F9093150216
:10365000002361F00E943819101614F09FEF01C08A
:1036600091E0989F902D112490931C02112361F0FA
:103670000E943819111614F09FEF01C091E0989F35
:10368000902D112490931D0230911C023323E1F000
:1036900020911D022223C1F045EB3403C001112407
:1036A000992319F090931C0203C081E080931C02BF
:1036B00035EB2303C0011124992319F090931D02C7
:1036C00003C081E080931D0280911A0281110BC01A
:1036D00080911B02811107C080911C02811103C0DF
:1036E00080911D0281110E945E1AEB82FC820D8383
:1036F0001E8386E0FE013196A8E1B2E001900D92B2
:103700008A95E1F726960FB6F894DEBF0FBECDBFBF
:10371000DF91CF911F910F91FF90EF900895E8E115
:10372000F2E086E0DF011D928A95E9F71092160219
:103730001092150210921702089580913E0208958A
:10374000CF93DF9300D01F92CDB7DEB79091550293
:10375000943019F589837B836A8382E08093E90042
:103760008FEF9091E800815095FD06C095ED9A95F8
:10377000F1F700008111F5CF8091E80085FF0DC0C1
:1037800040E050E063E070E0CE0101960E94CB1D66
:103790008091E8008E778093E8000F900F900F9053
:1037A000DF91CF910895BC0184E00C94A01BBC0173
:1037B00083E00C94A01B22E02093E9002FEF3091CE
:1037C000E800215035FD06C035ED3A95F1F70000CF
:1037D0002111F5CF2091E80025FF0BC040E050E01B
:1037E00066E070E00E94CB1D8091E8008E778093A8
:1037F000E8000895CF93DF9320911401222339F03C
:1038000020914F0227FF03C060E222E002C068E07F
:1038100021E02093E9002FEF3091E800215035FDA1
:1038200006C035ED3A95F1F700002111F5CF209152
:10383000E80025FF1DC0EC0180911401811105C035
:1038400040E050E068E070E003C070E040E050E02D
:10385000CE010E94CB1D8091E8008E778093E80016
:1038600080E2FE01AEE1B2E001900D928A95E1F7AF
:10387000DF91CF91089580915402811109C00E9477
:103880005C1F0E94B91F8091E20084608093E20077
:103890000895109254020895089508950C94D9162D
:1038A00042E061EC81E00E94D51E42E261EC82E0E0
:1038B0000C94D51E80915702833009F460C030F417
:1038C000813071F0823009F499C008958A3009F48A
:1038D00085C08B3009F46BC0893009F0A7C020C0C7
:1038E00080915602813A09F0A1C08091E800877F5B
:1038F0008093E80080915A0290915B02892B21F419
:1039000060E28EE192E003C060E080E090E070E071
:103910000E94161E8091E8008B778093E80008953E
:1039200080915602813209F081C080915A029091B3
:103930005B02029708F07AC08091E800877F80934D
:10394000E8008091E80082FD05C080915502811158
:10395000F8CF6CC02091F3008091F20090E0922BA0
:10396000029729F48091F1008B7F813021F48091BE
:10397000F10080933E028091E8008B7753C08091E4
:103980005602813A09F052C080915A0290915B022E
:10399000892B09F04BC08091E800877F8093E80075
:1039A0008091E80080FFFCCF8091140136C08091A7
:1039B00056028132D9F580915A0290915B02892B8F
:1039C000A9F58091E800877F8093E8000E940A1F94
:1039D00080915802809314010C948F0E80915602AE
:1039E000813221F58091E800877F8093E8000E9472
:1039F0000A1F8091590280933F02089580915602D8
:103A0000813AA1F48091E800877F8093E80080915B
:103A1000E80080FFFCCF80913F028093F10080910D
:103A2000E8008E778093E8000C940A1F089584B70D
:103A3000877F84BF0FB6F894A89580916000886155
:103A400080936000109260000FBE90E080E80FB697
:103A5000F89480936100909361000FBE0E94DF098B
:103A60000E945C1F0E94B91F8091E20084608093D5
:103A7000E20078940E944E220E94E5098AE091E0DB
:103A80000E94620980915502853069F40E94A41653
:103A9000809153028823B1F30E948C16882391F3FE
:103AA0000E94B51DEFCF0E94EF090E94D3090E942A
:103AB000D209E8CF0C945C1D292F33272330310520
:103AC000C9F060F42130310581F02230310509F070
:103AD00044C08BE390E020E731E043C02132310560
:103AE000E1F02232310549F138C082E190E02BEA61
:103AF00031E037C099278130910549F028F00297CD
:103B000061F5E8E3F1E005C0ECE6F1E002C0EAE4CB
:103B1000F1E0849190E09F0124C06115710541F0AE
:103B200061307105D1F489E090E02BE931E019C0F2
:103B300089E090E022E831E014C06115710541F0A0
:103B40006130710551F48CEB90E02DEB31E009C050
:103B500080E490E029E732E004C080E090E020E0DB
:103B600030E0FA0131832083089580E189BD82E14C
:103B700089BD09B400FEFDCF8091D8008F7D809370
:103B8000D8008091E00082608093E0008091E000A6
:103B900081FDFCCF0895CF92DF92EF92FF920F93B9
:103BA0001F93CF93DF93EC018B017A010E94291FB1
:103BB000811133C0E114F10439F0F7018081918162
:103BC000081B190BC80FD91FC12CD12C01151105C9
:103BD00019F18091E80085FD16C08091E8008E778C
:103BE0008093E800E114F10449F0F70180819181AC
:103BF000C80ED91ED182C08285E00FC00E94291F45
:103C0000882321F30AC089918093F10001501109A2
:103C1000FFEFCF1ADF0ADACF80E0DF91CF911F915B
:103C20000F91FF90EF90DF90CF90089520915C026C
:103C300030915D022617370748F06115710539F498
:103C40002091E8002E772093E80001C0B901FC0123
:103C500020E06115710579F1809155028823F1F119
:103C60008530F1F18091E80083FD3CC08091E8004F
:103C700082FD2EC08091E80080FFEBCF2091F30001
:103C80008091F20090E0922B6115710551F088301F
:103C9000910538F421912093F1006150710901964A
:103CA000F3CF21E0089709F020E08091E8008E77BB
:103CB0008093E800CECF2111CFCF0AC0809155026A
:103CC000882361F0853061F08091E80083FD0AC0AF
:103CD0008091E80082FFF2CF80E0089582E00895AD
:103CE00083E0089581E0089520915C0230915D02A7
:103CF0002617370748F06115710539F42091E8005F
:103D00002E772093E80001C0B901FC0120E0611585
:103D1000710591F180915502882309F440C08530E6
:103D200009F43FC08091E80083FD3DC08091E80028
:103D300082FD2FC08091E80080FFE9CF2091F30041
:103D40008091F20090E0922B6115710559F0883056
:103D5000910540F424912093F1003196615071094E
:103D60000196F2CF21E0089709F020E08091E80069
:103D70008E778093E800CBCF2111CCCF0AC0809101
:103D80005502882361F0853061F08091E80083FD61
:103D90000AC08091E80082FFF2CF80E0089582E0BF
:103DA000089583E0089581E00895982F973068F58D
:103DB0009093E900981739F07091EC002091ED0094
:103DC0005091F00003C0242F762F50E021FD02C057
:103DD0009F5FECCF3091EB003E7F3093EB00309152
:103DE000ED003D7F3093ED003091EB00316030937A
:103DF000EB007093EC002093ED005093F0002091C5
:103E0000EE0027FDE5CF80E008958F708093E900F4
:103E100081E008958091560287FF11C08091E800EB
:103E200082FD05C0809155028111F8CF11C08091AB
:103E3000E8008B770BC080915502882349F0809170
:103E4000E80080FFF8CF8091E8008E778093E8004B
:103E500008952091E4003091E50095E64091EC0052
:103E6000842F817040FF23C08091E80080FD1DC039
:103E700080915502882399F0853099F08091EB006C
:103E800085FD11C04091E4005091E50024173507ED
:103E900029F3915011F09A01E1CF84E0089582E076
:103EA000089583E0089581E0089580E008954091A9
:103EB000E80042FFDDCF08950E94CA1F0E94D21F72
:103EC000E0EEF0E0808181608083E8EDF0E08081C9
:103ED0008F77808319BCA7EDB0E08C918E7F8C9397
:103EE00080818F7E80831092540208950F931F93D8
:103EF000CF93DF930E94CA1F0E94D21FC8EDD0E06B
:103F000088818F77888388818068888388818F7D86
:103F1000888319BC109255021092510210925302DC
:103F20001092520200EE10E0F80180818B7F8083B6
:103F300088818160888342E060E080E00E94D51E35
:103F4000E1EEF0E080818E7F8083E2EEF0E0808120
:103F500081608083808188608083F80180818E7F8A
:103F60008083888180618883DF91CF911F910F9139
:103F70000895E8EDF0E080818F7E8083E7EDF0E04A
:103F800080818160808384E082BF81E080935402DD
:103F90000C94761FE8EDF0E080818E7F8083109294
:103FA000E20008951092DA001092E10008951F9245
:103FB0000F920FB60F9211242F933F934F935F935D
:103FC0006F937F938F939F93AF93BF93EF93FF93E1
:103FD0008091E10082FF0BC08091E20082FF07C068
:103FE0008091E1008B7F8093E1000E944D228091BF
:103FF000DA0080FF1FC08091D80080FF1BC0809135
:10400000DA008E7F8093DA008091D90080FF0DC0A6
:1040100080E189BD82E189BD09B400FEFDCF81E068
:10402000809355020E943B1C05C019BC109255029A
:104030000E94491C8091E10080FF19C08091E2003C
:1040400080FF15C08091E2008E7F8093E200809116
:10405000E20080618093E2008091D80080628093CA
:10406000D80019BC85E0809355020E944D1C8091B8
:10407000E10084FF30C08091E20084FF2CC080E129
:1040800089BD82E189BD09B400FEFDCF8091D800D1
:104090008F7D8093D8008091E1008F7E8093E10036
:1040A0008091E2008F7E8093E2008091E200816047
:1040B0008093E20080915102882311F084E007C0D0
:1040C0008091E30087FD02C081E001C083E080931E
:1040D00055020E944E1C8091E10083FF29C080910F
:1040E000E20083FF25C08091E100877F8093E1009B
:1040F00082E080935502109251028091E1008E7F00
:104100008093E1008091E2008E7F8093E2008091B5
:10411000E20080618093E20042E060E080E00E9483
:10412000D51E8091F00088608093F0000E944C1CA6
:10413000FF91EF91BF91AF919F918F917F916F917F
:104140005F914F913F912F910F900FBE0F901F9055
:1041500018951F920F920FB60F9211242F933F9331
:104160004F935F936F937F938F939F93AF93BF937F
:10417000CF93DF93EF93FF93C091E900CF708091CD
:10418000EC00D82FD17080FDD0E81092E90080912A
:10419000F000877F8093F00078940E94ED201092C9
:1041A000E9008091F00088608093F000CD2BCF7003
:1041B000C093E900FF91EF91DF91CF91BF91AF9153
:1041C0009F918F917F916F915F914F913F912F912F
:1041D0000F900FBE0F901F9018951F93CF93DF93F2
:1041E000CDB7DEB7AA970FB6F894DEBF0FBECDBF2E
:1041F000E6E5F2E08091F100819322E0EE35F207EE
:10420000C9F70E945A1C8091E80083FF2EC180915B
:10421000560290915702492F50E04A30510508F05C
:1042200024C1FA01EC58FF4F0C94C322803821F0CE
:10423000823809F01AC108C080915202909153024D
:10424000992389F082600FC080915A028F70873065
:1042500008F00BC18093E9008091EB0085FB882773
:1042600080F91092E9009091E800977F9093E80020
:104270008093F1001092F100D1C0282F2D7F09F01A
:10428000F4C0882319F0823061F0EFC080915802A9
:10429000813009F0EAC0933009F080E08093530246
:1042A0002EC08091580281112AC080915A028F70CD
:1042B0002FEF280F263008F0D8C08093E900209116
:1042C000EB0020FF1CC0933021F48091EB00806252
:1042D00014C09091EB0090619093EB0021E030E0EE
:1042E000A90102C0440F551F8A95E2F74093EA00E6
:1042F0001092EA008091EB0088608093EB001092AE
:10430000E9008091E800877F8093E8000E940A1FFF
:10431000ACC08111AAC0109158021F778091E300B0
:104320008078812B8093E3008091E800877F8093E1
:10433000E8000E940A1F8091E80080FFFCCF809176
:10434000E30080688093E300111102C082E001C0A5
:1043500083E08093550289C08058823008F085C080
:1043600080915802909159028C3D53E0950779F560
:1043700083E08A838AE289834FB7F894DE0113963B
:1043800020E03EE051E2E32FF0E050935700E4914B
:1043900020FF03C0E295EF703F5FEF708E2F90E03B
:1043A000EA3010F0C79601C0C0968D939D932F5FA1
:1043B000243149F74FBF8091E800877F8093E80060
:1043C0006AE270E0CE0101960E94161E16C060914E
:1043D0005A0270915B02AE014F5F5F4F0E945A1DFF
:1043E000BC01892B09F441C09091E800977F90931C
:1043F000E80089819A810E94741E8091E8008B7781
:104400008093E80032C0803881F58091E800877F92
:104410008093E800809151028093F1008091E80040
:104420008E7772CF811121C08091580290915902EC
:1044300099270297D4F48091E800877F8093E80061
:1044400080915802809351020E940A1F809151026C
:10445000811106C08091E30087FD02C081E001C0A8
:1044600084E0809355020E94501C8091E80083FFF5
:104470000AC08091E800877F8093E8008091EB007C
:1044800080628093EB00AA960FB6F894DEBF0FBE51
:10449000CDBFDF91CF911F9108950895CF93809163
:1044A00055028823A1F0C091E900CF709091EC00F3
:1044B000892F817090FD80E8C82B1092E9008091CF
:1044C000E80083FD0E94ED20CF70C093E900CF91FA
:1044D0000895DB018F939F930E94D822BF91AF91E3
:1044E000A29F800D911DA39F900DB29F900D11244E
:1044F0000895AA1BBB1B51E107C0AA1FBB1FA6172B
:10450000B70710F0A61BB70B881F991F5A95A9F77C
:1045100080959095BC01CD01089597FB072E16F468
:10452000009407D077FD09D00E94792207FC05D0BE
:104530003EF4909581959F4F0895709561957F4FBA
:104540000895A1E21A2EAA1BBB1BFD010DC0AA1FD4
:10455000BB1FEE1FFF1FA217B307E407F50720F0EC
:10456000A21BB30BE40BF50B661F771F881F991F67
:104570001A9469F760957095809590959B01AC01B0
:10458000BD01CF010895EE0FFF1F0590F491E02DBE
:104590000994A29FB001B39FC001A39F700D811D1C
:1045A0001124911DB29F700D811D1124911D08953C
:1045B0000E94C922A59F900DB49F900DA49F800DCD
:1045C000911D11240895F999FECF92BD81BDF89AED
:1045D000992780B50895A8E1B0E042E050E00C943E
:1045E0001723262FF999FECF92BD81BDF89A019726
:1045F00000B4021639F01FBA20BD0FB6F894FA9A2B
:10460000F99A0FBE08950396272F0E94F2220E9466
:10461000F122252F0E94F222242F0C94F2220196DF
:10462000272F0E94F2220C94F122DC01CB01FC0125
:10463000F999FECF06C0F2BDE1BDF89A319600B4FB
:0E4640000D9241505040B8F70895F894FFCF06
:10464E00EC012808641E140A321E9D1BFA1BDB1B8C
:10465E00D71BD31B01E200E900EA00B500B600B794
:10466E0000CD008301CC008A019201940121022326
:10467E000224022502260227022A02B300B4006F8A
:10468E0000700081828334C697669490F73133327E
:10469E0036E200E900EA00B500B600B700CD0083AF
:1046AE0001CC008A019201940121022302240225E9
:1046BE0002260227022A02B300B4006F00700081A6
:0246CE008283E5
:00000001FF
