:100000000C94D2010C9419020C9419020C9419024C
:100010000C9419020C9419020C9419020C941902F4
:100020000C9419020C9419020C94E3220C94B5233D
:100030000C94E9190C9419020C9419020C941902ED
:100040000C9419020C9419020C9419020C941902C4
:100050000C9419020C94361A0C9419020C9419027F
:100060000C9419020C9419020C9419020C941902A4
:100070000C9419020C9419020C9419020C94190294
:100080000C9419020C9419020C9419020C94190284
:100090000C9419020C9419020C9419020C94190274
:1000A0000C9419020C9419020C9419024F0F4F0F63
:1000B000810F810FC80FE60F07110711F10F86108E
:1000C00097109710F710071107110011B511B5110E
:1000D000C711C711BE11C711C711C711B511B5118D
:1000E000C311C711C711C311222449244125492432
:1000F00041259524B82441250F251E25060013000F
:10010000120019001A000D00070018001B00100053
:100110000F620C41084215432A5D2B5D17431642BE
:100120000441117209611C6414740B6828002C5D71
:100130000A7805640E741D613000495D4A5D121134
:10014000475D111364004B5D4C5D00003962485DF2
:1001500038003400465D2E110000345D32003972E3
:1001600025133A5D355D365D28002C5D375D385DC1
:10017000395D3711191105112D5D2E5D3E5D435D11
:100180005F006000610035005362335D2F5D305DBC
:10019000325D2D005C005D005E006272405D415D7D
:1001A0003B5D3C5D315D3F5D59005A005B00425D47
:1001B000A9004E0049004B00E200E6003A003B0077
:1001C0003C003D00AA004A0052004D00E100E00062
:1001D0003E003F00400041006500500051004F00CC
:1001E00028002C5D42004300440045003F5D2D0087
:1001F0000000435D2D0000003200380000004A5D21
:10020000380000002B5D2A5D00001A000D00000080
:1002100010001B0000000600130000000403300063
:100220000000100347006800650072006B00690061
:100230006E000000200334003000200050006500F4
:100240007200630065006E007400200043006C00C3
:100250007500620000000403090409023B0002016A
:1002600000A0FA09040000010301010009211101A5
:1002700000012240000705810308000A090401006B
:10028000010300000009211101000122BC00070543
:10029000820320000A1201100100000008EDFE6038
:1002A0006001000102030105010902A101850209A3
:1002B00001A10005091901290515002501950575FC
:1002C000018102950175038101050109300931158C
:1002D00081257F95027508810609381581257F954E
:1002E0000175088106050C0A38021581257F9501E4
:1002F00075088106C0C005010980A10185031901A7
:100300002AB700150126B700950175108100C005B8
:100310000C0901A101850419012AA002150126A0DA
:1003200002950175108100C005010906A10185052E
:10033000050719E029E715002501950875018102D7
:100340000507190029EF1500250195F075018102B7
:100350000508190129059505750191029501750397
:100360009101C005010906A101050719E029E7155A
:100370000025019508750181029501750881010527
:1003800007190029FF150026FF0095067508810052
:100390000508190129059505750191029501750357
:1003A0009101C00011241FBECFEFDAE0DEBFCDBF48
:1003B00004B603FE27C080918F0390919003A09113
:1003C0009103B09192038730904BA740B04BD1F48A
:1003D00010928F0310929003109291031092920347
:1003E00014BE84B7877F84BF0FB6F894A895809118
:1003F0006000886180936000109260000FBEE0E0B2
:10040000F8E3099512E0A0E0B1E0E6E6FCE402C002
:1004100005900D92AC37B107D9F723E0ACE7B2E015
:1004200001C01D92AF38B207E1F70E941D200C9465
:1004300031260C940000EF92FF920F931F93CF93FD
:10044000880F991F880F991FFC01E851F34700811D
:100450001181E280F380FB0182818823A1F00E9458
:100460005A17C82F823011F0803249F40E946D175C
:10047000C7010E94FB028C2F0E946A170AC0C801A4
:100480000E94FB0206C0C7010E941103C8010E941E
:10049000110381E0CF911F910F91FF90EF9008958C
:1004A000EF92FF921F93CF93DF93FB0122812223D0
:1004B000C9F0FC01EE0FFF1FEE0FFF1FE05FF347D7
:1004C000E080F180C281D3810E945A17182F0E94C8
:1004D0006D17C7010E942703812F0E946A17CE0162
:1004E0000E94270381E0DF91CF911F91FF90EF9051
:1004F00008959C0129523D452B31310510F40C948F
:100500001B029C0125543D452830310510F40C9404
:10051000500281E0089584309105D1F018F40397DA
:1005200039F008958630910501F1079751F108954A
:10053000662359F08AE290E00E9427038AE290E065
:100540000E94270383E390E00BC083E390E024C084
:10055000662341F08AE290E00E94270388E091E15F
:100560000C94FB0288E091E117C0662339F08AE21F
:1005700090E00E94270386E293E1F2CF86E293E1C6
:100580000BC0662339F08AE290E00E94270387E3DC
:1005900093E1E6CF87E393E10C9411039C013A9534
:1005A00021153F4138F5DC01AA27B270AC01442780
:1005B00054709C012227387094FF0FC090FF02C036
:1005C00080E101C080E0AB2B09F08062452B09F08F
:1005D0008064232B69F080680BC0892F8170AB2B5E
:1005E00009F08260452B09F08460232B09F08860B4
:1005F000FB0109940895CF93DF93EC01805E91098C
:10060000089710F0209719F46BE07FE002C06BE7C9
:1006100071E1CE010E94CE028C2FDF91CF910C941C
:10062000E60DCF93DF93EC010E94900ECE01805E29
:100630009109089710F0209719F462E17FE002C059
:1006400062E871E1CE01DF91CF910C94CE02CF939D
:10065000DF93EC010E94FB02CE01DF91CF910C945D
:10066000110381E008950C94790208950C943503E8
:100670001F93CF93DF9300D000D01F92CDB7DEB78A
:1006800049835A836B833091C60289819A813111E3
:1006900014C0662359F0222349F00E94D916182F5E
:1006A000682F89819A810E94801603C00E94AC162F
:1006B000182F69817A81812F04C00E94D91669811F
:1006C0007A810F900F900F900F900F90DF91CF9144
:1006D0001F910C94FA03FC01262F40815181628105
:1006E000738184810C943803CF93DF93EC0160E035
:1006F0000E946B03BE01DF91CF910C9436030E94E0
:100700000E18811102C00E94C8180E9492080C9411
:1007100016060E94110B0C94120608950E94A31154
:100720000E948D032FEF84E39CE021508040904095
:10073000E1F700C000000C945C1A0F931F93CF9355
:10074000DF93EC0161E00E946B038C01BE010E940B
:1007500033038823A9F1BE01C8010E94F30788234F
:1007600079F1BE01C8010E943E0B882349F1BE0108
:10077000C8010E943A09882319F1BE01C8010E94EC
:100780008C098823E9F0BE01C8010E94B70A8823BA
:10079000B9F08A81882369F001158CE5180731F0DA
:1007A0000F3D1C4531F40E94C8180AC00E948E03F8
:1007B00007C0CE01DF91CF911F910F910C943103AF
:1007C00080E0DF91CF911F910F91089508950C94CF
:1007D000E60381E008950C94E903CF93C82F0E94AB
:1007E000E7038C2F0E94EB03CF91089580E090E007
:1007F000089508952EE1829FC0011124FC0126E096
:10080000729FE00DF11D1124E60FF11DEE0FFF1F89
:10081000E450FF4F859194910895880F991FFC0132
:10082000E45EFD4F859194910895CF93DF930E94EC
:10083000FA030E942D05EC018115904508F041C096
:10084000C11580E4D80708F0D1C0C83ED10510F525
:10085000C03ED10508F0FDC0C83AD10578F4C53ACC
:10086000D10508F0A2C0C130D10509F4F2C008F4E6
:10087000EEC0C430D10508F0ECC0E9C0CF3BD105D3
:1008800008F49BC0C03CD10508F4E1C0CE01805CF7
:1008900091099EC0C11590E2D90758F4C11521E015
:1008A000D20708F0D6C0C03FD10508F4D0C0D0654B
:1008B000D0C0C11580E3D80708F08EC0CE019F706C
:1008C00087C0C11595E5D90708F043C0C11524E5D7
:1008D000D20708F0A2C0C11582E5D80708F5C115F6
:1008E00091E5D90708F085C0CE0174E0969587950B
:1008F0007A95E1F783709C2F937021E030E002C07D
:10090000220F331F9A95E2F73C68382BCF70C695BB
:10091000C69580E2C89FE0011124C22BD32B99C059
:100920009E01237033278C2F86958695C115D3455C
:1009300008F064C0C1E0D0E002C0CC0FDD1F2A95F2
:10094000E2F720E2829FC0011124C82BD92BDC687A
:1009500080C0C11529E5D207A0F4C11588E5D807E4
:1009600008F060C0C11596E5D90708F070C08C2F5B
:100970000E94C1058F71C82FD0E0DC2FCC27D06238
:1009800068C0C1152AE5D20708F451C0CE019056BF
:100990008115904208F05BC08D2F8F710E94C105B8
:1009A000DD27D0628F71D82B54C0C55AD0E0C45C0B
:1009B000DD4FC881D0E0D0644CC0C85AD0E0CC0F25
:1009C000DD1FC25FDD4F0990D881C02DD46441C0C6
:1009D0000E940D04EC013DC0CE019927D3FF03C056
:1009E000EC01D86C36C0EC01D06C33C0DF70D06A3B
:1009F00030C0DC2FCC27C16FD06A2BC0C1E0D0E063
:100A000002C0CC0FDD1F2A95E2F720E2829FC001D1
:100A10001124C82BD92BDA681CC0DC2FCC27C46F5B
:100A2000D06A17C0DC2FCC27C06FD06A12C08C2FC1
:100A30008F700E94C10594E0D695C7959A95E1F70D
:100A4000CF70D0E0DC2FCC27D069C82B02C0C0E02B
:100A5000D0E0CE01DF91CF9108958238910569F100
:100A6000B0F48133910509F46DC048F489329105E1
:100A700009F463C08A32910509F469C00895853389
:100A8000910509F455C089339105B9F00895833E65
:100A9000910569F138F4803E9105B1F0823E9105EF
:100AA00009F10895863E9105A9F1873E9105B9F1B6
:100AB000843E910509F064C023C02091800320FD8D
:100AC0004FC021FD4DC008958091800380FD44C03A
:100AD0008091810380FF44C08091800384FD42C0E7
:100AE00083EE4DC08091800382FF38C0F5CF8091A6
:100AF000800382FD33C08091810380FD31C0ECCF43
:100B00008091810381FF32C08091800384FD2AC0DF
:100B100087EE35C08091800383FF26C0F5CF80919A
:100B2000800383FD21C08091810381FD1FC0ECCF34
:100B30008091800385FD1CC01DC08091800385FDD0
:100B400019C016C08091800386FD16C017C0809121
:100B5000800386FD13C010C089E311C082EE0FC070
:100B600080EE0DC080E00BC086EE09C084EE07C0A9
:100B700089E205C085E303C08AE201C081E390E019
:100B800008959091800392FF0DC0282F287128307E
:100B900019F4877F846006C0282F2471243011F453
:100BA0008B7F886093FF0DC0282F2871283119F49E
:100BB000877E846106C0282F2471243111F48B7E36
:100BC00088612091810320FF0DC0382F38713830A3
:100BD00019F4877F816006C0382F3171313011F4EC
:100BE0008E7F886021FF0DC0282F2871283119F4CD
:100BF000877E816106C0282F2171213111F48E7EFC
:100C0000886194FD877E0895E82FF0E0EA58FC4F54
:100C100080810895089580EA8A95F1F708950895EE
:100C20000C940F060C9410060C940F060C941406EA
:100C3000F894E82FE295EF70F0E031A1282F2F70A3
:100C400081E090E001C0880F2A95EAF7982F9095EF
:100C5000932391A392A1892B82A3789408950F9353
:100C60001F93CF93DF9387EF0E94180681E30E94C2
:100C7000180683E30E94180682E30E94180686E3A2
:100C80000E941806CFE3D2E005E412E089910E94A9
:100C900018060C171D07D1F7E1E7F3E0A6E7B3E06C
:100CA00011921D9283E0E637F807D1F785E00E94A4
:100CB000E206DF91CF911F910F910C947F038F92E9
:100CC0009F92AF92BF92CF92DF92EF92FF920F93DB
:100CD0001F93CF93DF9385E4A82E82E0B82EC1E75F
:100CE000D3E09AE4E92E92E0F92E912C01E010E095
:100CF0006501F5018081F894E82FE295EF70F0E04E
:100D000021A18F70A80102C0440F551F8A95E2F7F8
:100D1000CA01922F982B91A392A18095892382A337
:100D200078940E940B06EFE3F2E020E030E0812CA3
:100D30004191A42FA295AF70B0E090968C9190E075
:100D40004F7002C0959587954A95E2F780FD07C0E0
:100D5000802F022E01C0880F0A94EAF701C080E0BC
:100D6000882A2F5F3F4F2630310511F75FEFA51A14
:100D7000B50AF60180810E9418068881881619F04C
:100D8000888281E001C080E0982A2196EA14FB0461
:100D900009F0AECF292D45E066E773E081E793E0E7
:100DA0000E94E3060E948903892DDF91CF911F9154
:100DB0000F91FF90EF90DF90CF90BF90AF909F90FA
:100DC0008F9008950895FF920F931F93CF93DF9311
:100DD0008C01F62ED72FC42F222349F081E0809377
:100DE0007E020E941B1A90937D0280937C02809168
:100DF0007E028823C1F080917C0290917D020E9446
:100E0000271A069780F0EF2DFD2FD8014C2F50E0C8
:100E1000CD01801B910B841795071CF48D91819354
:100E2000F7CF10927E02DF91CF911F910F91FF902B
:100E300008950E940E18811102C00E94C8180E94D5
:100E4000491880937B03282F26952695269530E018
:100E50002430310524F08770886180937B03809172
:100E60007B0380FF04C086958695869501C080E04F
:100E70000C94280820917B03822F86958695869571
:100E8000482F50E04330510554F48F5F982F990F4D
:100E9000990F990F822F8770892B80937B03809104
:100EA0007B03816080937B030E944D1880917B03BC
:100EB0008695869586950C94280880917B03982FBB
:100EC000969596959695A1F0915E990F990F990F29
:100ED0008770892B80937B03887F91E009F490E0F1
:100EE00080917B0390FB80F980937B030E944D18D7
:100EF00080917B038695869586950C942808809131
:100F00007B0380FD13C0816080937B03813019F4E3
:100F100089E080937B0380917B030E944D18809130
:100F20007B038695869586950C9428080895809174
:100F30007B0380FF08C08E7F80937B030E944D1847
:100F400080E00C942808089580917B0380FD0C9428
:100F500097070C947F0790917B03892F8695869540
:100F600086958F5F8F719770843038F4880F880F63
:100F7000880F892B80937B0302C090937B03809121
:100F80007B03887F91E009F490E080917B0390FBE4
:100F900080F980937B030E944D1880917B03869596
:100FA000869586950C942808843008F083E090910B
:100FB0007B039770282F220F220F220F922B9093E2
:100FC0007B03987F21E009F420E090917B0320FBD4
:100FD00090F990937B030C9428080E94D407809189
:100FE0007B030C944D189C01FB018281882349F1FD
:100FF0002E3BFCE53F07C9F040F42C3BECE53E07F7
:1010000069F02D3B3C4561F00895203C9CE5390793
:1010100091F070F0213C3C4589F0089583E001C0D7
:1010200080E00E94ED0780E008950E945D07FBCFFD
:101030000E943A07F8CF0E94A407F5CF0E94AB07A1
:10104000F2CF81E00895259A2D9808952D9808955E
:10105000CF92DF92EF92FF92CF93C82F843050F45B
:10106000811109C0809180008F77809380000E9459
:10107000260806C0C3E080918000806880938000CD
:101080002C2F30E0AFEFBFEF0E94D52523E030E0FA
:1010900040E050E00E94AD25B42FA32F922F882767
:1010A000492F5A2F6B2F7727CA014C3724E152075B
:1010B00028F469E070E00E94852529C0DB01CA019F
:1010C0008A50974DAF4FBF4F6627782F892F9A2FA1
:1010D00025EF38E241E050E00E94AD2569017A0138
:1010E000CA01B9010E9475259B01AC01C701B60177
:1010F0000E947525BB27A92F982F872F009721E0E5
:10110000A207B10511F0BC0102C06FEF7FEF709331
:10111000890060938800CF91FF90EF90DF90CF908F
:10112000089508950E94230882E88093800089E151
:10113000809381008FEF9FEF9093870080938600CC
:101140000C941907AF92BF92CF92DF92EF92FF9269
:101150000F931F93CF93DF937C015B01C42FD22F9A
:10116000FC0182818823F9F0409381020E941B1ABE
:101170009093800280937F0280E28C0F883008F089
:101180006EC0C77081E001C0880FCA95EAF7DF9191
:10119000CF911F910F91FF90EF90DF90CF90BF9074
:1011A000AF900C940B0F80918102481335C0809151
:1011B0007F02909180020E94271A6C01B701C5013D
:1011C0000E944214C816D90638F510E21D0FCD173B
:1011D000B9F080E28C0F883040F4C77081E001C024
:1011E000880FCA95EAF70E94120F183058F581E06F
:1011F0009D2F977001C0880F9A95EAF70E940B0FF8
:10120000802F0E94F80E183050F5D77081E001C091
:10121000880FDA95EAF70AC080E28C0F8830F8F47C
:10122000C77081E001C0880FCA95EAF7DF91CF91BE
:101230001F910F91FF90EF90DF90CF90BF90AF90F4
:101240000C94120F802FDF91CF911F910F91FF907F
:10125000EF90DF90CF90BF90AF900C94F80EDF919D
:10126000CF911F910F91FF90EF90DF90CF90BF90A3
:10127000AF9008950F939C01CB01243F4CE53407B8
:1012800031F188F4293DFCE53F07D9F02A3D4CE5D2
:10129000340779F1283D3C45A9F506E221EE41EEFF
:1012A00068ED7CE52BC0263FFCE53F07E1F0A8F0A8
:1012B000273F3C4539F507E225EE46EE67EF7CE532
:1012C0001DC007E225EE45EE69ED7CE517C006E29C
:1012D00021EE40EE64EF7CE511C007E225EE44EE1E
:1012E00065EF7CE50BC006E221EE42EE66EF7CE5A1
:1012F00005C008E221E045EE6AED7CE50E94A20807
:1013000080E008C0FC018281882319F010928102DC
:1013100001C081E00F910895CF93DF93EC01FB01B1
:101320008281882309F41FC1C230FCE5DF0708F47D
:101330001BC1C6319CE5D90738F09E012B5F3C45A7
:101340002930310508F010C10E942B1890938103B9
:1013500080938003C031ECE5DE0709F4C3C008F0D8
:1013600041C0C8308CE5D80709F49AC0F0F4C43005
:10137000ECE5DE0709F487C068F4C2308CE5D807D5
:1013800009F477C0C330DC4509F0E3C080918003E5
:10139000826076C0C630ECE5DE0709F46EC008F066
:1013A0007BC08091800388606BC0CC308CE5D8070F
:1013B00009F485C068F4CA30ECE5DE0709F474C0AE
:1013C00008F079C00E94A31180918003806858C002
:1013D000CE308CE5D80709F476C008F07FC0809144
:1013E00080038BC0CC3FECE5DE0709F44FC018F555
:1013F000C3318CE5D80709F47DC078F4C131ECE540
:10140000DE0709F473C0C231DC4509F0A2C00E94B6
:10141000A311809180038F7733C0C5318CE5D80745
:1014200009F472C008F486C0CB3FDC4509F091C0D6
:10143000809181033EC0C115FDE5DF0709F45FC05F
:1014400058F4CE3F9CE5D90709F444C008F43FC0E6
:101450008091810382602DC0C230FDE5DF0709F471
:1014600075C008F45DC0C330DD4509F072C080E08E
:101470006EC080918003816003C080918003806191
:101480008093800366C08091800311C080918103A6
:101490008260809381035DC0809180038062F0CF81
:1014A000809180038064ECCF8091800388608460A9
:1014B000E7CF8160EECF809180038E7FE1CF809176
:1014C00080038D7FDDCF80918003877FD9CF80918E
:1014D000810318C0809181038D7FDBCF80918003D1
:1014E0008F7ECECF809180038F7DCACF8091800385
:1014F0008F7BC6CF80918003877F8B7FC1CF809108
:1015000081038D7F8E7FC5CF8091800382FB222750
:1015100020F991E0922790FB82F990FB83F9B0CFFC
:1015200080918103982F909591708E7F892B90FBED
:1015300081F9AFCF0E94A3118091800387FB2227FE
:1015400020F991E0922790FB87F99ACF81E00E94E1
:10155000CA1880918003909181030E943C180E94D8
:10156000A31180E001C081E0DF91CF910895CF9376
:10157000DF9386319C4541F5EB010E945A17982F65
:101580008A812091F9013091FA01882379F09A7AC1
:1015900081E009F480E080938202911102C069E247
:1015A00001C065E3C9010E9465190AC080918202E9
:1015B000811102C069E201C065E3C9010E9470198E
:1015C0000E94AB1780E001C081E0DF91CF910895C8
:1015D0000F931F93CF93DF939091B3029923E1F080
:1015E000882319F010E006E003C01092B30214C083
:1015F0008091B3021817C8F7019FE0011124CD575D
:10160000DD4F688179818A810E942617BC01CE0155
:101610000E94190F1F5FECCFDF91CF911F910F91A7
:1016200008958091F8018823A1F08091B402882365
:1016300081F08091B8029091B902009751F00E9418
:10164000271A893C910528F01092B40281E00C948D
:10165000E80A08951092B4021092F8011092B902AB
:101660001092B80281E00C94E80A8091F80181118F
:101670000C942A0B81E08093F80108955F926F9299
:101680007F928F929F92AF92BF92CF92DF92EF9212
:10169000FF920F931F93CF93DF936C017B01109206
:1016A000B50288EFC8168CE5D80641F4FB01C2816B
:1016B000CC23E1F081E08093F80118C1F9EFCF1657
:1016C000FCE5DF0639F4FB01C281CC2379F00E94EE
:1016D0002A0B0CC1FAEFCF16FCE5DF0639F4FB014B
:1016E000C281CC2319F00E94350B00C18091F80112
:1016F000882309F4FAC01092B7021092B602BB24F4
:10170000B394A12C85E0982EC1E0D0E08824839486
:101710000091B6021091B7020830110508F0A3C07D
:10172000909EF001919EF00D1124E050FF4F9081AA
:10173000418177247A9480E0E92FF42FE80FF11D9E
:10174000E80FF11D25913491C216D30609F4782EC5
:10175000232B11F08F5FF0CFFFEF7F1202C0612CBF
:1017600065C05090B402F7016280662069F1909ED6
:10177000F001919EF00D1124E050FF4F9E0101C039
:10178000220F7A94EAF79481292B2483552039F388
:10179000AE0102C0440F551F8A95E2F7415051092E
:1017A000822F90E04817590709F040C08281938149
:1017B000009719F00E94FB0204C061E0C8010E947A
:1017C0008B028092B50232C09E0102C0220F331FED
:1017D0008A95E2F721503109909EF001919EF00D1B
:1017E0001124E050FF4F848190E02817390761F4FD
:1017F00082819381009719F00E94110306C060E076
:10180000C8010E948B0201C0512C909EF001919E54
:10181000F00D1124E050FF4FCE0101C0880F7A94E3
:10182000EAF78095948189238483652CA628BB20C0
:1018300069F0909EF001919EF00D1124E050FF4F51
:1018400091E08481811190E0892F01C080E0817056
:10185000B82E8091B6029091B70201969093B7028C
:101860008093B60255CF8091B502882351F00E9433
:101870001B1A9093B9028093B80280E00E94E80A94
:1018800030C0A1100DC081E00E94E80ABB2049F1E0
:101890001092B9021092B80281E08093B40221C084
:1018A000F70182818823E9F08091B4028823C9F08E
:1018B0000E941B1A9093B9028093B802A091B302C0
:1018C000A83078F481E08A0F8093B30286E08A9F83
:1018D000D0011124AD57BD4FF70101900D928A95AB
:1018E000E1F781E0CA2DC82701C0C1E08C2FDF914C
:1018F000CF911F910F91FF90EF90DF90CF90BF900D
:10190000AF909F908F907F906F905F90089590938D
:10191000BF028093BE020895E091BE02F091BF0223
:10192000309721F00190F081E02D099480E0089536
:10193000E091BE02F091BF02309799F020910D0224
:10194000222359F02091800327FF07C0DC012C914E
:1019500011962C93119725E02C930280F381E02DB2
:1019600009940895E091BE02F091BF02309739F0DA
:1019700022E0DC012C930480F581E02D0994089588
:101980002091BC023091BD022817390771F0909365
:10199000BD028093BC02E091BE02F091BF0230977D
:1019A00021F00680F781E02D099408952091BA0274
:1019B0003091BB022817390771F09093BB028093D6
:1019C000BA02E091BE02F091BF02309721F000848C
:1019D000F185E02D0994089585B7806885BF85B7A6
:1019E000806885BF089581E008950C94F30C0895F4
:1019F0000C94F70C0C94F70C0C94FA0C0C94F70C58
:101A00000C94FE0C0C94F70C0E94EC0C0E94020D3E
:101A10000C94000D0E94121A0E942F060E94B11A07
:101A20000E9419070C94FC0CAF92BF92CF92DF92E8
:101A3000EF92FF920F931F93CF93DF93CDB7DEB753
:101A40002A970FB6F894DEBF0FBECDBF0E94F80CE8
:101A50000E94F70C0E945F060E94F50C811111C0D4
:101A60008FEF89838A831B820E941B1A8160782FE3
:101A70009D838C8349815A816B818D810E94B20D37
:101A800040C081ECA82E82E0B82E00E010E0C02E0D
:101A9000802F0E940406E82EF501D1905F01D82620
:101AA00031F40F5F1F4F0530110589F7D9CF8091B1
:101AB000400381FD0E940A0680E0FF24F3949D2DDF
:101AC0009F21D1F08E83CF82EF2081E009F480E066
:101AD00088870E941B1A8160782F9A8789874E8198
:101AE0005F8168858A850E94B20DF801EF53FD4F32
:101AF0008081F826F08205C08F5FFF0C8630F9F6F2
:101B0000D0CF0E9491080E94821D0E948C0C90915F
:101B1000C0028917B1F00E948C0C8093C0022A96F3
:101B20000FB6F894DEBF0FBECDBFDF91CF911F91EE
:101B30000F91FF90EF90DF90CF90BF90AF900C94FB
:101B4000ED032A960FB6F894DEBF0FBECDBFDF912E
:101B5000CF911F910F91FF90EF90DF90CF90BF90AA
:101B6000AF900895CF93DF93CDB7DEB72B970FB625
:101B7000F894DEBF0FBECDBF4F83588769877A8741
:101B80008B87DE01119686E0FD0111928A95E9F7B7
:101B900085E0FE01379601900D928A95E1F7498123
:101BA0005A816B817C818D819E810E9445142B9688
:101BB0000FB6F894DEBF0FBECDBFDF91CF91089571
:101BC000FC01808191810E941B170895CF93882387
:101BD00009F4A4C0C82F8238C1F40E948C0C81FD86
:101BE0009DC069E38091F9019091FA010E94651905
:101BF0000E94AB172FEF81EE94E02150804090407F
:101C0000E1F700C0000069E319C0833801F50E94C4
:101C10008C0C80FD83C063E58091F9019091FA01FD
:101C20000E9465190E94AB172FEF81EE94E02150BE
:101C300080409040E1F700C0000063E58091F90129
:101C40009091FA010E947019CF910C94AB178438CF
:101C5000C1F40E948C0C82FD61C067E48091F9019F
:101C60009091FA010E9465190E94AB172FEF81EE47
:101C700094E0215080409040E1F700C0000067E40C
:101C8000DDCF8CEF8C0F813AD0F46C2F8091F9016D
:101C90009091FA010E94E518882349F06C2F8091F9
:101CA000F9019091FA010E9470190E94AB176C2FF4
:101CB0008091F9019091FA010E946519C5CF80E2E7
:101CC0008C0F883048F4C77081E001C0880FCA9536
:101CD000EAF70E945D17B8CFEBE5EC0FE33040F474
:101CE000F0E0E858FD4F808190E0CF910C94C00C5B
:101CF000E8E5EC0FE73150F4F0E0EE0FFF1FE65B94
:101D0000FD4F80819181CF910C94D60CC03F30F073
:101D10008C2F0E94771CCF910C94641DCF91089555
:101D2000882309F464C0823879F40E948C0C81FF06
:101D30005EC069E38091F9019091FA010E946519F2
:101D40000E94AB1769E310C08338B1F40E948C0C79
:101D500080FF4DC063E58091F9019091FA010E94E6
:101D600065190E94AB1763E58091F9019091FA0122
:101D70000E9470190C94AB17843879F40E948C0C73
:101D800082FF35C067E48091F9019091FA010E94C9
:101D900065190E94AB1767E4E7CF9CEF980F913A63
:101DA00010F4682FE1CF90E2980F983050F48770CC
:101DB00091E001C0990F8A95EAF7892F0E94631775
:101DC000D9CF9BE5980F933020F480E090E00C94FD
:101DD000C00C98E5980F973120F480E090E00C94C7
:101DE000D60C803F20F00E94DF1C0C94641D0895E7
:101DF000CF93C82F0E94E60DC93349F42FEF87EE29
:101E000093E0215080409040E1F700C000008C2F0B
:101E1000CF910C94900E882321F00E945D170C94B2
:101E2000AB170895882321F00E9463170C94AB1719
:101E30000895CF92DF92EF92FF920F931F93CF936B
:101E4000DF937C01062FC72FFC01158112951F70AF
:101E5000D281D1110E947D170E945317882399F0D7
:101E6000DD2389F08C2F807F803421F080E2800F89
:101E7000883048F082E00E94F5170E94531791E0E5
:101E8000D82ED92601C0D12CCC2EC2948FE0C822E6
:101E90008C2D90E0FC01EA5AFF4F0C94CF258C2F3B
:101EA000807FCF70882311F0C295C07FDD2399F029
:101EB000CC2309F487C180E2800F883010F0011133
:101EC00004C08C2F0E945D1703C08C2F0E947017D6
:101ED0000E94AB1777C1802F0E94900ECC2309F48B
:101EE00096C180E2800F883010F0011104C08C2F61
:101EF0000E94631703C08C2F0E9476170E94AB17B5
:101F000086C18C2F807FCF70803211F0C295C07F48
:101F1000002319F00130C9F025C0DD2371F0112331
:101F200041F0113031F40E9490178C2B0E949817C9
:101F30006EC10E9490178C2B0EC0112319F0113026
:101F400009F465C10E94A1171FC0DD2339F01630C6
:101F500008F05DC18C2F0E940B0F59C1153008F09D
:101F600056C112C0DD2319F01123A1F32BC1112397
:101F700059F0093309F037C1FFEF27EE83E0F15044
:101F800020408040E1F72DC18C2F0E94120F3FC1ED
:101F90008C2F86958695837019F0813061F037C15A
:101FA000DD2321F0802F9C2F937002C080E090E011
:101FB0000E94C00C34C1DD2321F0802F9C2F937030
:101FC00002C080E090E00E94D60C29C1802FDD2362
:101FD00019F00E94771C02C00E94DF1C0E94641D41
:101FE0001EC18C2F837009F045C0D11114C1402F40
:101FF000429546954770440F440F602F6F70862FAF
:1020000090E0A0E0B0E0042E04C0880F991FAA1F42
:10201000BB1F0A94D2F704FF10C00FE010E020E0CD
:1020200030E004C0000F111F221F331F4A95D2F762
:10203000009510952095309503C000E010E09801C0
:10204000C695C695C370BC01CD01602B712B822B48
:10205000932BC23049F058F4C13019F00E94961504
:10206000DAC00E948415D7C00E94A815D4C00E946F
:102070008215D1C0DD2319F08C2F817001C08695A7
:10208000882309F4C8C0402F429546954770440FF5
:10209000440F602F6F70862F90E0A0E0B0E0042E18
:1020A00004C0880F991FAA1FBB1F0A94D2F704FF10
:1020B00010C00FE010E020E030E004C0000F111F5E
:1020C000221F331F4A95D2F7009510952095309521
:1020D00003C000E010E09801C695C695C370BC012E
:1020E000CD01602B712B822B932BC23049F058F419
:1020F000C13019F00E945B168EC00E9449168BC039
:102100000E946D1688C00E94BC1585C0CF70DD236B
:1021100039F08C2F0E94E215802F0E940B0F7BC09C
:10212000802F0E94120F8C2F0E94031674C0023F52
:1021300001F128F4003F41F0013FA1F03FC0033F0F
:10214000F9F0043F39F13AC0DD2341F0153008F0D1
:102150005EC08C2F8F710E94281659C0163008F06F
:1021600056C0F7CFDD2339F08C2F8F710E94E21516
:102170004EC0DD23C9F38C2F8F710E94031647C018
:10218000DD2329F08C2F8F710E94CD1540C00E9455
:10219000C8153DC0DD2349F0CF718C2F0E94E21598
:1021A00063E08C2F0E94E01732C081E00E94F51797
:1021B000123068F182E00E94F51729C0DD2331F06A
:1021C000112391F2802F0E94E60D21C0112399F274
:1021D000093349F49FEFE7EEF3E09150E040F0401F
:1021E000E1F700C00000802F0E94900E10C04C2F1D
:1021F0004F70602FC7010E94F6030E94F3140FC0B6
:102200004C2F4F70602FC7010E94F90308C088EF60
:102210008C0D843020F40E948C0C0E94ED03DD2094
:10222000C9F00E944F1780FD15C0F70112820E946D
:1022300049170E94E215C7010E944B110E944917DD
:10224000DF91CF911F910F91FF90EF90DF90CF9092
:102250000C940316DF91CF911F910F91FF90EF9097
:10226000DF90CF9008950F931F93CF93DF93EC01EE
:10227000688179818A810E9426178C010E947F16CD
:102280000E947015B801CE010E94190FDF91CF9105
:102290001F910F910895CF93DF93EC01988189816D
:1022A0002B813C81232B31F08F3F31F481E09F3F24
:1022B00019F403C081E001C080E080FD19C0CE01A7
:1022C0000E949D0381110CC00E945317882381F046
:1022D0008A81882369F082E0DF91CF910C94F51711
:1022E000CE010E943311CE01DF91CF910C94740383
:1022F000DF91CF910895882321F00E9470170C94EC
:10230000AB170895882321F00E9476170C94AB1721
:1023100008950E947D170E948D170E94AB170E949E
:10232000951E0E94641D80E090E00E94C00C80E039
:1023300090E00C94D60C8091F9019091FA010E94E2
:102340007B190C9489110E946D170C949B11E92F35
:10235000E295EF704E2F50E0FA013297EE30F10522
:10236000B0F4EA59FF4F0C94CF25803F91F018F458
:10237000883E68F40EC0843F51F40BC0883E48F09C
:10238000813F29F406C093FB882780F9089580E0F7
:10239000089581E008950E941B170E94A7110895D7
:1023A000CF93DF9300D000D01F92CDB7DEB70F9050
:1023B0000F900F900F900F90DF91CF910895CF93D2
:1023C000DF9300D000D000D0CDB7DEB726960FB691
:1023D000F894DEBF0FBECDBFDF91CF9108951F935C
:1023E000CF93DF93C091C70216E08091C802C8174F
:1023F00099F0D0E01C9FF0011D9FF00D1124E753D0
:10240000FD4F4081518162817381848195810E9459
:10241000DF112196C770E9CFDF91CF911F91089509
:102420004091F9025091FA026091FB027091FC0216
:102430008091FD029091FE020C94DF110F931F9387
:10244000CF93DF938091FE0282958F7009F05DC07B
:102450008091FB02882309F458C08091C702109133
:10246000C8026091F9027091FA02C091FC02D09109
:10247000FD0291E06F3F09F090E0292F06E08117FF
:1024800009F443C0209721F07F3F21F030E003C0E2
:1024900031E001C0322F90E030FD34C0089FF001E0
:1024A000099FF00D1124DF01A753BD4F11963C91F8
:1024B0001197371327C03C91361324C012963C91D4
:1024C000129731111FC013964D915C9114974C1BBC
:1024D0005D0B483C5105B0F48091FE028F70806125
:1024E0008093FE02E253FD4F80818F708061808374
:1024F00089EF92E00E944B11DF91CF911F910F91D4
:102500000C94EF1101968770BACFDF91CF911F9194
:102510000F9108959F92AF92BF92CF92DF92EF9268
:10252000FF920F931F93CF93DF93CDB7DEB76197E1
:102530000FB6F894DEBF0FBECDBF8C0185E0F80169
:10254000DE011D9601900D928A95E1F7F801408118
:102550005181E2809091F9026091FA022091FC028F
:102560003091FD022115310531F06F3F31F481E0EA
:102570009F3F19F403C081E001C080E0F82FF170A3
:102580009F2E80FD2CC1F801A380B48089EFC82E56
:1025900082E0D82EF090FB02F501E21BF30BFF2046
:1025A00009F4EBC08091FE02E83CF10508F0A7C0F9
:1025B000282F207F09F052C0561313C0491311C0B1
:1025C000FE2CE1100EC08F7080618093FE020E948D
:1025D0001012C6010E944B118091FE02F801858302
:1025E0003EC1AB2831F05F3F31F481E04F3F19F439
:1025F00003C081E001C080E080FD03C081E08E2542
:1026000002C080E090E0F82FF170FF2E80FF1CC028
:102610008091C7022091C80236E0821709F4FDC0FC
:1026200090E0389FF001399FF00D1124E753FD4FE2
:102630006181561306C06081461303C06281E612B1
:1026400003C001968770E9CFFE2CEE2009F407C184
:102650008091FE0281608093FE0266C0561312C014
:10266000491310C0E1100EC0F8018583C8010E9413
:102670004B1186E0F801A9EFB2E001900D928A9526
:10268000E1F7C8C04D875E878D859E850E94CB117E
:10269000882379F1EE2069F12091FE02822F829544
:1026A0008F7090E0029774F08091F9029091FA0295
:1026B00098878F831986BB86AA862C87CE010796BA
:1026C0000E944B1186E0F801A9EFB2E001900D9253
:1026D0008A95E1F70E941E120E9410120DC0561733
:1026E00029F14D875E878D859E850E94CB118111D2
:1026F0002CC0C8010E944B11FF24F394B0C0282FB6
:10270000207F69F77A2DB98AA88A6E2D89890E945F
:10271000D01189EF92E00E944B1186E0F6011192F0
:102720008A95E9F70E941012F12C99C04913D9CF6C
:10273000E110D7CFF8018583C8010E944B1186E0D4
:10274000F60111928A95E9F78AC0EE2091F2209164
:10275000FE02822F82958F7090E002970CF4B2CF28
:102760008091F9029091FA029A8389831B82BD823B
:10277000AC822E83CE010196A3CFE83CF10510F583
:10278000FE2CEE2009F4B5CF56130BC0491309C037
:1027900086E0F801A9EFB2E001900D928A95E1F789
:1027A0005EC04D875E878D859E850E94CB1181110D
:1027B00089CF8091FE0281608093FE02C8010E9451
:1027C0004B114DC07A2DB98AA88A6E2D89890E9435
:1027D000D01186E0F60111928A95E9F71BC0EE2030
:1027E00009F487CF4D875E878D859E850E94CB112A
:1027F000F82E882309F47DCF86E0F801A9EFB2E036
:1028000001900D928A95E1F789EF92E00E94E00D28
:102810000E941E120E94101222C04D875E878D8575
:102820009E850E941B17292F22952F70223028F495
:102830009F7039F0811105C00BC0243028F49F70BF
:1028400049F4805E883020F0C8010E944B119F2C13
:10285000F92C05C0F8019581907F99F7F9CF8F2D5C
:1028600061960FB6F894DEBF0FBECDBFDF91CF915A
:102870001F910F91FF90EF90DF90CF90BF90AF909E
:102880009F90089588EC90E008951F93CF93DF9375
:10289000CDB7DEB72C970FB6F894DEBF0FBECDBF15
:1028A0004F83588769877A878B879C87CE010796E5
:1028B0000E948A128823D1F09F8188852A853B85D2
:1028C000232B31F08F3F31F481E09F3F19F403C097
:1028D00081E001C080E080FD47C04F815885698557
:1028E0007A858B859C850E94DF113EC086E0FE01C3
:1028F0003796DE01119601900D928A95E1F7FF81DE
:10290000E8856A857B856115710531F0EF3F31F40B
:1029100081E0FF3F19F403C081E001C080E080FD49
:1029200023C02091C80230E0C90101968770992721
:102930004091C70250E084179507F1F1F983EA83CB
:102940007D836C8396E0929FD001939FB00D1124FC
:10295000A753BD4FFE01319601900D929A95E1F774
:102960008093C8020E94EF1116E08091C7029091F7
:10297000C802891771F1189FC001112487539D4F18
:102980000E948A12882329F1E091C7021E9FF0015C
:102990001124E753FD4F408151816281738184810D
:1029A00095810E94DF118091C70290E001968770A7
:1029B00099278093C702D9CF0E94A3111092C80211
:1029C0001092C702E9EFF2E086E0DF011D928A95DE
:1029D000E9F72C960FB6F894DEBF0FBECDBFDF919E
:1029E000CF911F910895EF92FF920F931F93CF9372
:1029F000DF938C01892B09F46CC0F12CEE24E39455
:102A0000E8012196F8018491843740F4843008F07D
:102A100051C0813081F0823019F15BC0853709F4F3
:102A200044C0A8F19CE7980F903708F052C08F7708
:102A30000E94900E41C00E5F1F4FFE01849190E2F4
:102A4000980F983050F48770FE2D01C0FF0F8A95C3
:102A5000EAF78F2F0E94801714C00E94E60D2DC048
:102A60000E5F1F4FFE01849190E2980F983060F442
:102A70008770FE2D01C0FF0F8A95EAF78F2F0E9405
:102A800086170E94AB1719C00E94900E16C00E5FE9
:102A90001F4FFE01C491CC2381F08FE99FE0019785
:102AA000F1F700C00000C150F6CF0E5F1F4FFE01CE
:102AB000F49003C00E94E60D8E018F2D882309F447
:102AC0009FCFEFE9FFE03197F1F700C000008150A0
:102AD000F5CFDF91CF911F910F91FF90EF90089567
:102AE000089508950C9471150C9472150E94741534
:102AF00060931703709318038093190390931A033C
:102B00000C9489110C9476150F931F930091170361
:102B1000109118032091190330911A03602B712B27
:102B2000822B932B1F910F910C9476150F931F936B
:102B300000911703109118032091190330911A0383
:102B400060237123822393231F910F910C94761598
:102B50000F931F93009117031091180320911903ED
:102B600030911A0360277127822793271F910F91B5
:102B70000C9476150C9471150E94BA15609313038A
:102B80007093140380931503909316030C9489118A
:102B900060E070E0CB010C94BC150F931F9341E0F3
:102BA00050E060E070E08A019B0104C0000F111F3B
:102BB000221F331F8A95D2F7C901B8011F910F91C7
:102BC0000C94BC150F931F9341E050E060E070E05F
:102BD00004C0440F551F661F771F8A95D2F7809156
:102BE000130390911403A0911503B09116038A0169
:102BF0009B01082B192B2A2B3B2BC901B8011F91D4
:102C00000F910C94BC150F931F9341E050E060E0CE
:102C100070E004C0440F551F661F771F8A95D2F7D6
:102C20004095509560957095809113039091140391
:102C3000A0911503B09116038A019B010823192363
:102C40002A233B23C901B8011F910F910C94BC1595
:102C50000F931F9341E050E060E070E004C0440F28
:102C6000551F661F771F8A95D2F7809113039091A5
:102C70001403A0911503B09116038A019B01082744
:102C800019272A273B27C901B8011F910F910C94DE
:102C9000BC150F931F9300911303109114032091FF
:102CA000150330911603602B712B822B932B1F91F0
:102CB0000F910C94BC150F931F9300911303109167
:102CC000140320911503309116036023712382238E
:102CD00093231F910F910C94BC150F931F93009198
:102CE00013031091140320911503309116036027EC
:102CF0007127822793271F910F910C94BC1508957B
:102D0000292F220F920F990F890FE82FE695E6954C
:102D1000E695877051E001C0550F8A95EAF785E086
:102D2000E89FF0011124E150FD4F20E030E070E019
:102D30004081CB01022E02C0969587950A94E2F756
:102D40008170819584278523842781932F5F3F4F4E
:102D50002530310569F70895292F220F920F990F19
:102D6000890F682F669566956695982F977085E010
:102D7000689FB001112440E050E080E0FB01E40FC7
:102D8000F51FE150FD4F208130E0092E02C036953D
:102D900027950A94E2F721703327042E01C0220FF1
:102DA0000A94EAF7822B4F5F5F4F4530510531F7A8
:102DB0000895BF92CF92DF92EF92FF920F931F93ED
:102DC000CF93DF938C01C0901303D0901403E09055
:102DD0001503F09016038091170390911803A091AA
:102DE0001903B0911A03C82AD92AEA2AFB2ACFE18B
:102DF000D0E0D701C6010C2E04C0B695A7959795D3
:102E000087950A94D2F780FD04C0219790F7B12CE2
:102E100007C0BC2EB8018C2F0E9415040197A9F39E
:102E20008B2DDF91CF911F910F91FF90EF90DF904D
:102E3000CF90BF900895CF93DF93EC010E94D916F5
:102E4000BE010E941504DF91CF9108951F93CF9387
:102E5000DF93EB019091C602992321F0CB010E94F0
:102E60001B1713C0882349F0CB010E94D916182FD5
:102E7000682FCE010E94801604C0CB010E94AC16C0
:102E8000182FBE01812F0E941504DF91CF911F9151
:102E9000089580911B03859585958595089580916A
:102EA0001B038770089590911B03977081E009F4CC
:102EB00080E0089580913F03089590913F03892B0E
:102EC00080933F030895809590913F0389238093D9
:102ED0003F03089580933F03089510923F030895A0
:102EE00090913E03892B80933E03089580959091A5
:102EF0003E03892380933E03089510923E03089574
:102F000090913D03892B80933D0308958095909186
:102F10003D03892380933D03089510923D03089556
:102F200080911C03089508950C9493170C949417A2
:102F300090911C03981721F080931C030C94961712
:102F4000089580911C03882329F010921C0380E0CF
:102F50000C9496170895E091F901F091FA0180918F
:102F60003F038083E091F901F091FA019081809113
:102F70003E03892B8083E091F901F091FA01908161
:102F800080913D03892B808380911C03882381F0ED
:102F9000E091F901F091FA019081892B8083809171
:102FA000F9019091FA010E94CF1881110E94A11796
:102FB0008091F9019091FA010C94980C0C9493175C
:102FC00098E0899F90011124262B20931B030E94D7
:102FD000E21580911B038595859585950C94DE17E8
:102FE00010921B0380E00C94DE1720911B03809548
:102FF000822380931B03982F977079F430E0482F39
:10300000082E000C550B2417350739F0859585954A
:1030100085950E9403160C94F017089580E090E0C7
:103020000E94F72521E08C3E9E4F09F020E0822F80
:10303000089582E090E00C94EF25682F82E090E004
:103040000C94FD2583E090E00C94EF25682F83E03D
:1030500090E00C94FD25CF9384E090E00E94EF2552
:10306000C82F81E290E00E94EF252C2F30E0A901CB
:10307000582BCA01CF910895CF93C92F682F84E0B0
:1030800090E00E94FD256C2F81E290E0CF910C949E
:10309000FD2586E090E00C94EF25682F86E090E017
:1030A0000C94FD25AB01BC018FE090E00C940F2641
:1030B000AB01BC0183E190E00C940F2660E070E06E
:1030C000CB010C94581860E070E0CB010E945218BC
:1030D0000C945E186CEE7EEF80E090E00E941B2660
:1030E00060E082E090E00E94FD2560E083E090E0F7
:1030F0000E94FD25109217031092180310921903D5
:1031000010921A0360E084E090E00E94FD2560E0E8
:1031100081E290E00E94FD2560E085E090E00E9461
:10312000FD2560E086E090E00E94FD256FEF87E0DE
:1031300090E00E94FD2540E050E0BA0188E090E078
:103140000E940F2660E08DE090E00E94FD2540E0A7
:1031500050E0BA0188E190E00E940F2660E087E12C
:1031600090E00E94FD2540E050E0BA018CE190E043
:103170000E940F2660E080E290E00E94FD2540E082
:1031800050E0BA0188E190E00E940F260C94631889
:103190000C946A18682F8EE090E00C94FD25FC01D9
:1031A000329680910D02882331F08091800387FF51
:1031B00002C09EE101C096E080E0915028F021918C
:1031C0002223D9F38F5FF9CF0895662351F120911F
:1031D0000D022223E9F02091800327FF19C0462F1A
:1031E0004695469546954E31E0F4677021E030E013
:1031F00002C0220F331F6A95E2F7FC01E40FF11DB4
:10320000828190E02823392381E0232B69F409C0CF
:10321000FC01329608962191621729F0E817F90708
:10322000D1F780E0089581E008959C01FC01329679
:103230009FEF80E04191461789F09F3F19F44111BB
:1032400001C0982F8F5F8630A9F79F3F39F0F901B1
:10325000E90FF11D97FDFA956283089508959C0189
:103260002A5F3F4FFC014281461301C01282019642
:1032700082179307B9F70895262F26952695269548
:103280002E3168F4FC01E20FF11D677021E030E09F
:1032900001C0220F6A95EAF78281282B22830895C4
:1032A000262F2695269526952E3170F4FC01E20FE7
:1032B000F11D677021E030E001C0220F6A95EAF746
:1032C0002095828128232283089520910D022223B4
:1032D00029F02091800327FD0C943C190C941519BA
:1032E00020910D02222329F02091800327FD0C94C8
:1032F00050190C942F1920910D02FC0132962223B3
:1033000031F08091800387FF02C08EE101C086E02A
:10331000DF011D928A95E9F7089508950C948D199F
:103320000C948D19CF930E9490190E945F060E9401
:103330008E19C0E08C2F0E940406811104C0CF5F5B
:10334000C530C1F701C081E0CF9108950C948D196B
:103350000C94A6190E94A81980918603843061F10B
:103360001092410320E488E190E00FB6F894A8950C
:10337000809360000FBE2093600080E00E942808C8
:1033800080E00E94ED030E94A81983B7817F8460CA
:1033900083BF83B7816083BF7894889583B78E7F1E
:1033A00083BF0FB6F894A8958091600088618093E0
:1033B0006000109260000FBE08950C948D190E9459
:1033C000A3110E9419070E948C0C0E94ED030C941B
:1033D000DD191F920F920FB60F9211248F939F93B6
:1033E000AF93BF9380914103811113C080917C03FF
:1033F00090917D03A0917E03B0917F034196A11D22
:10340000B11D80937C0390937D03A0937E03B093C2
:103410007F03BF91AF919F918F910F900FBE0F903F
:103420001F90189582E084BD93E095BD9AEF97BDFB
:1034300080936E0008952FB7F89480917C0390914B
:103440007D03A0917E03B0917F032FBF08959C015F
:103450004FB7F89480917C0390917D03A0917E03F7
:10346000B0917F034FBF821B930B089578941F92F6
:103470000F920FB60F9211248F939F93AF93BF9328
:1034800080917C0390917D03A0917E03B0917F0396
:103490000196A11DB11D80937C0390937D03A093A1
:1034A0007E03B0937F03BF91AF919F918F910F9057
:1034B0000FBE0F901F90189587E797E7909301082C
:1034C000809300089AE088E10FB6F894A89580935D
:1034D00060000FBE90936000FFCFCF92DF92EF921B
:1034E000FF920F931F93CF93C0E0E82EF12C8C2F07
:1034F0000E94040600E010E0C82ED12CC601002E68
:1035000002C0959587950A94E2F780FD06C00F5F8B
:103510001F4F0630110591F70AC0602F7C2F80E005
:103520000E94FA03E816F90691F781E004C0CF5F24
:10353000C530E9F680E0CF911F910F91FF90EF9099
:10354000DF90CF900895CF93C82F8CE20E946D1A20
:10355000882321F08C2FCF910C946D1A80E0CF91AD
:103560000895CF930E940E18811102C00E94C818BE
:10357000C5E6C15049F00E945F068FE39CE90197C0
:10358000F1F700C00000F5CF89E20E94A31A811173
:103590002AC18AE20E94A31A81110E94C81885E0FC
:1035A0000E94A31A81110E945C1A0E94191880932C
:1035B000400387E00E94A31A8823A9F18BE10E94AF
:1035C000A31A882351F08091400381FB222720F920
:1035D00091E0922790FB81F90EC08EE00E94A31A21
:1035E000882361F08091400382FB222720F991E03B
:1035F000922790FB82F98093400315C080E10E94DE
:10360000A31A90914003882341F093FB222720F9CD
:1036100081E0822780FB93F904C0892F809580FB8D
:1036200090F990934003809140030E941D180E94DE
:103630002B18909381038093800380EE0E94A31A3D
:10364000882341F080918003982F909590FB80F91A
:103650008093800389E30E94A31A882359F0809104
:10366000800381FB222720F991E0922790FB81F9CA
:103670008093800382EE0E94A31A882359F08091E0
:10368000800382FB222720F991E0922790FB82F9A8
:103690008093800386EE0E94A31A882359F08091BC
:1036A000800383FB222720F991E0922790FB83F986
:1036B0008093800383EE0E94A31A882359F080919F
:1036C000800384FB222720F991E0922790FB84F964
:1036D0008093800385E30E94A31A882359F0809188
:1036E000800385FB222720F991E0922790FB85F942
:1036F0008093800381E30E94A31A882359F080916C
:10370000800386FB222720F991E0922790FB86F91F
:103710008093800381E10E94A31A882359F080914D
:10372000800387FB222720F991E0922790FB87F9FD
:103730008093800380918003909181030E943C18C4
:1037400087E20E94A31AC82F8EE10E94A31A81115A
:10375000C2608FE10E94A31A8111C46080E20E94BE
:10376000A31A8111C86081E20E94A31A8111C0616D
:1037700082E20E94A31A8111C06283E20E94A31A0E
:103780008111C06484E20E94A31A882311F0C068EA
:1037900002C0CC2329F08C2F0E9426186C2F03C066
:1037A0000E942218682F70E080E090E00E9482154D
:1037B0006091130370911403809115039091160387
:1037C0000E94BA158FE00E94A31A882319F081E0A5
:1037D0000E94CA1885E10E94A31A882321F080E084
:1037E000CF910C94CA18CF9108958091480380FF1F
:1037F0000BC06091000285E0689FB00111247595AF
:103800006795759567952BC081FF09C0609100028F
:1038100085E0689FB00111247595679520C082FFEF
:1038200007C06091000285E0689FB001112417C0B5
:10383000909147039923D1F06091FF01961788F783
:103840002091000285E0289F90011124929FA00101
:10385000939F500D112470E0CA010E949925603891
:10386000710540F46115710519F406C065E070E05A
:10387000862F08958FE7089581E008958091480389
:1038800080FF08C06091FC0170E0759567957595A3
:10389000679521C081FF06C06091FC0170E07595BD
:1038A000679519C082FF04C06091FC0170E010C0F0
:1038B00090914603992399F06091FB019617A0F728
:1038C0008091FC01899FC001112470E00E9499251C
:1038D0006038710540F46115710519F406C061E0A6
:1038E00070E0862F08958FE7089581E00895803F66
:1038F00021F40E94F51B819504C0813F29F40E94A8
:10390000F51B80934C030895823F21F40E94F51B20
:10391000819504C0833F29F40E94F51B80934B03DB
:103920000895893F19F40E943E1C05C08A3F31F476
:103930000E943E1C819580934D0308958B3F21F496
:103940000E943E1C819504C08C3F29F40E943E1CBD
:1039500080934E030895843F21F480914A0381604F
:1039600017C0853F21F480914A03826011C0863FD1
:1039700021F480914A0384600BC0873F21F4809139
:103980004A03886005C0883F31F480914A03806112
:1039900080934A0308958D3F21F48091480381600C
:1039A0000BC08E3F21F480914803826005C08F3F99
:1039B00029F4809148038460809348030895803FF0
:1039C00039F480914C0387FF6AC010924C0367C0A2
:1039D000813F29F480914C031816BCF360C090918C
:1039E0004B03823F29F497FF5AC010924B0357C0F4
:1039F000833F19F41916CCF352C090914D03893FBF
:103A000031F419160CF04BC010924D0348C08A3F98
:103A100019F497FF44C0F8CF8B3F39F480914E03DF
:103A200087FF3DC010924E033AC08C3F29F480912D
:103A30004E031816BCF333C0843F21F480914A032F
:103A40008E7F17C0853F21F480914A038D7F11C07E
:103A5000863F21F480914A038B7F0BC0873F21F47E
:103A600080914A03877F05C0883F31F480914A03E3
:103A70008F7E80934A0313C08D3F21F480914803C9
:103A80008E7F0BC08E3F21F4809148038D7F05C04F
:103A90008F3F29F4809148038B7F80934803809166
:103AA0004B03811106C080914C03811102C010921A
:103AB000470380914D03811106C080914E0381110F
:103AC00002C01092460308950E941B1A20914B03D6
:103AD000211104C020914C03222321F0909345032F
:103AE0008093440320914D03211104C020914E0383
:103AF000222321F0909343038093420389E493E0CF
:103B00000C94B20CEF92FF920F931F93CF93DF931D
:103B100000D000D000D0CDB7DEB786E0E9E4F3E016
:103B2000DE01119601900D928A95E1F7E0904B032A
:103B3000F0904C0300914D0310914E0310924B03F3
:103B400010924C0310924D0310924E03E11003C0EB
:103B5000FF2009F45DC080914403909145030E94C9
:103B6000271AAC0190914703992339F02091010263
:103B700030E02417350758F04BC0209102028AE04C
:103B8000289F900111242417350718F041C09F3F4A
:103B900019F09F5F90934703EE2061F00E94F51BA0
:103BA0001E1414F09FEF01C091E0989F902D1124F6
:103BB00090934B03FF2061F00E94F51B1F1414F03B
:103BC0009FEF01C091E0989F902D112490934C039A
:103BD00030914B033323E1F020914C032223C1F0B9
:103BE00045EB3403C0011124992319F090934B0342
:103BF00003C081E080934B0335EB2303C001112404
:103C0000992319F090934C0303C081E080934C03F7
:103C1000011103C0112309F45DC08091420390910A
:103C200043030E94271AAC0190914603992339F06F
:103C30002091FD0130E02417350758F04BC020914A
:103C4000FE018AE0289F900111242417350718F0FF
:103C500041C09F3F19F09F5F90934603002361F09E
:103C60000E943E1C101614F09FEF01C091E0989F37
:103C7000902D112490934D03112361F00E943E1C5E
:103C8000111614F09FEF01C091E0989F902D112420
:103C900090934E0330914D033323E1F020914E0376
:103CA0002223C1F045EB3403C0011124992319F0FC
:103CB00090934D0303C081E080934D0335EB2303C4
:103CC000C0011124992319F090934E0303C081E0A1
:103CD00080934E0380914B0381110BC080914C0364
:103CE000811107C080914D03811103C080914E0363
:103CF00081110E94641DEB82FC820D831E8386E08D
:103D0000FE013196A9E4B3E001900D928A95E1F7A6
:103D100026960FB6F894DEBF0FBECDBFDF91CF91D0
:103D20001F910F91FF90EF900895E9E4F3E086E092
:103D3000DF011D928A95E9F710924703109246031E
:103D400010924803089580916F030895CF93DF93F5
:103D500000D01F92CDB7DEB790918603943019F54D
:103D600089837B836A8382E08093E9008FEF90915F
:103D7000E800815095FD06C095ED9A95F1F7000099
:103D80008111F5CF8091E80085FF0DC040E050E043
:103D900063E070E0CE0101960E94D7208091E80098
:103DA0008E778093E8000F900F900F90DF91CF9166
:103DB0000895BC0184E00C94A61EBC0183E00C9421
:103DC000A61E22E02093E9002FEF3091E800215059
:103DD00035FD06C035ED3A95F1F700002111F5CF1C
:103DE0002091E80025FF0BC040E050E066E070E065
:103DF0000E94D7208091E8008E778093E800089594
:103E0000CF93DF9320910D02222339F0209180037C
:103E100027FF03C060E222E002C068E021E02093B7
:103E2000E9002FEF3091E800215035FD06C035ED57
:103E30003A95F1F700002111F5CF2091E80025FF18
:103E40001DC0EC0180910D02811105C040E050E0E1
:103E500068E070E003C070E040E050E0CE010E94F6
:103E6000D7208091E8008E778093E80080E2FE0101
:103E7000AFE4B3E001900D928A95E1F7DF91CF9125
:103E8000089580918503811109C00E9468220E94D3
:103E9000C5228091E20084608093E2000895109230
:103EA00085030895089508950C94DF1942E061ECAC
:103EB00081E00E94E12142E261EC82E00C94E12188
:103EC00080918803833009F460C030F4813071F050
:103ED000823009F499C008958A3009F485C08B3086
:103EE00009F46BC0893009F0A7C020C08091870316
:103EF000813A09F0A1C08091E800877F8093E800B3
:103F000080918B0390918C03892B21F460E28FE4E4
:103F100093E003C060E080E090E070E00E94222126
:103F20008091E8008B778093E80008958091870363
:103F3000813209F081C080918B0390918C030297AC
:103F400008F07AC08091E800877F8093E800809134
:103F5000E80082FD05C0809186038111F8CF6CC016
:103F60002091F3008091F20090E0922B029729F4C7
:103F70008091F1008B7F813021F48091F10080935A
:103F80006F038091E8008B7753C080918703813A5B
:103F900009F052C080918B0390918C03892B09F01A
:103FA0004BC08091E800877F8093E8008091E80013
:103FB00080FFFCCF80910D0236C080918703813253
:103FC000D9F580918B0390918C03892BA9F5809171
:103FD000E800877F8093E8000E9416228091890381
:103FE00080930D020C94A31180918703813221F5F7
:103FF0008091E800877F8093E8000E9416228091DC
:104000008A0380937003089580918703813AA1F415
:104010008091E800877F8093E8008091E80080FF2E
:10402000FCCF809170038093F1008091E8008E773F
:104030008093E8000C941622089584B7877F84BF8C
:104040000FB6F894A8958091600088618093600015
:10405000109260000FBE90E080E80FB6F894809355
:104060006100909361000FBE0E94040D0E946822BF
:104070000E94C5228091E20084608093E2007894DF
:104080000E945A250E940A0D83E092E00E94870C4C
:1040900080918603853069F40E94AA198091840377
:1040A0008823B1F30E949219882391F30E94C120C2
:1040B000EFCF0E94140D0E94F80C0E94F70CE8CF7D
:1040C0000C946220292F332723303105C9F060F486
:1040D0002130310581F02230310509F04AC08BE3EF
:1040E00090E02AE532E049C02132310511F1223257
:1040F000310579F13EC082E190E025E932E03DC032
:1041000099278130910561F040F08230910559F096
:10411000039779F5ECE1F2E008C0E6E5F2E005C0CE
:10412000E4E3F2E002C0E2E2F2E0849190E09F0179
:1041300024C06115710541F061307105D1F489E049
:1041400090E025E832E019C089E090E02CE632E00A
:1041500014C06115710541F06130710551F48CEBAB
:1041600090E027EA32E009C080E490E023E633E003
:1041700004C080E090E020E030E0FA013183208349
:10418000089580E189BD82E189BD09B400FEFDCFBB
:104190008091D8008F7D8093D8008091E00082606C
:1041A0008093E0008091E00081FDFCCF0895CF92E4
:1041B000DF92EF92FF920F931F93CF93DF93EC0167
:1041C0008B017A010E943522811133C0E114F10480
:1041D00039F0F70180819181081B190BC80FD91F95
:1041E000C12CD12C0115110519F18091E80085FD34
:1041F00016C08091E8008E778093E800E114F10406
:1042000049F0F70180819181C80ED91ED182C08208
:1042100085E00FC00E943522882321F30AC08991CE
:104220008093F10001501109FFEFCF1ADF0ADACFB6
:1042300080E0DF91CF911F910F91FF90EF90DF9081
:10424000CF90089520918D0330918E032617370764
:1042500048F06115710539F42091E8002E7720931C
:10426000E80001C0B901FC0120E06115710579F198
:10427000809186038823F1F18530F1F18091E80087
:1042800083FD3CC08091E80082FD2EC08091E80053
:1042900080FFEBCF2091F3008091F20090E0922B11
:1042A0006115710551F08830910538F42191209302
:1042B000F100615071090196F3CF21E0089709F0F0
:1042C00020E08091E8008E778093E800CECF211126
:1042D000CFCF0AC080918603882361F0853061F0DA
:1042E0008091E80083FD0AC08091E80082FFF2CF50
:1042F00080E0089582E0089583E0089581E00895C4
:1043000020918D0330918E032617370748F06115F1
:10431000710539F42091E8002E772093E80001C060
:10432000B901FC0120E06115710591F180918603CE
:10433000882309F440C0853009F43FC08091E8002B
:1043400083FD3DC08091E80082FD2FC08091E80090
:1043500080FFE9CF2091F3008091F20090E0922B52
:104360006115710559F08830910540F4249120932E
:10437000F1003196615071090196F2CF21E0089762
:1043800009F020E08091E8008E778093E800CBCFA1
:104390002111CCCF0AC080918603882361F085303B
:1043A00061F08091E80083FD0AC08091E80082FFFF
:1043B000F2CF80E0089582E0089583E0089581E0DF
:1043C0000895982F973068F59093E900981739F081
:1043D0007091EC002091ED005091F00003C0242F6B
:1043E000762F50E021FD02C09F5FECCF3091EB00B3
:1043F0003E7F3093EB003091ED003D7F3093ED0038
:104400003091EB0031603093EB007093EC0020931F
:10441000ED005093F0002091EE0027FDE5CF80E005
:1044200008958F708093E90081E00895809187035B
:1044300087FF11C08091E80082FD05C0809186034E
:104440008111F8CF11C08091E8008B770BC080916B
:104450008603882349F08091E80080FFF8CF80919F
:10446000E8008E778093E80008952091E400309171
:10447000E50095E64091EC00842F817040FF23C059
:104480008091E80080FD1DC080918603882399F00B
:10449000853099F08091EB0085FD11C04091E400DA
:1044A0005091E5002417350729F3915011F09A0136
:1044B000E1CF84E0089582E0089583E0089581E0EB
:1044C000089580E008954091E80042FFDDCF08950F
:1044D0000E94D6220E94DE22E0EEF0E08081816020
:1044E0008083E8EDF0E080818F77808319BCA7EDB1
:1044F000B0E08C918E7F8C9380818F7E8083109230
:10450000850308950F931F93CF93DF930E94D622C4
:104510000E94DE22C8EDD0E088818F778883888171
:104520008068888388818F7D888319BC1092860378
:1045300010928203109284031092830300EE10E025
:10454000F80180818B7F808388818160888342E04D
:1045500060E080E00E94E121E1EEF0E080818E7F6A
:104560008083E2EEF0E080818160808380818860DA
:104570008083F80180818E7F808388818061888339
:10458000DF91CF911F910F910895E8EDF0E08081C8
:104590008F7E8083E7EDF0E080818160808384E01E
:1045A00082BF81E0809385030C948222E8EDF0E0E5
:1045B00080818E7F80831092E20008951092DA004D
:1045C0001092E10008951F920F920FB60F921124DE
:1045D0002F933F934F935F936F937F938F939F930B
:1045E000AF93BF93EF93FF938091E10082FF0BC0E5
:1045F0008091E20082FF07C08091E1008B7F809371
:10460000E1000E9459258091DA0080FF1FC080914F
:10461000D80080FF1BC08091DA008E7F8093DA0083
:104620008091D90080FF0DC080E189BD82E189BD04
:1046300009B400FEFDCF81E0809386030E94411FF4
:1046400005C019BC109286030E944F1F8091E100A3
:1046500080FF19C08091E20080FF15C08091E200C8
:104660008E7F8093E2008091E20080618093E2007F
:104670008091D80080628093D80019BC85E0809337
:1046800086030E94531F8091E10084FF30C0809117
:10469000E20084FF2CC080E189BD82E189BD09B4BC
:1046A00000FEFDCF8091D8008F7D8093D80080914F
:1046B000E1008F7E8093E1008091E2008F7E809305
:1046C000E2008091E20081608093E20080918203A9
:1046D000882311F084E007C08091E30087FD02C0C9
:1046E00081E001C083E0809386030E94541F809183
:1046F000E10083FF29C08091E20083FF25C0809103
:10470000E100877F8093E10082E08093860310922E
:1047100082038091E1008E7F8093E1008091E2002E
:104720008E7F8093E2008091E20080618093E200BE
:1047300042E060E080E00E94E1218091F00088602A
:104740008093F0000E94521FFF91EF91BF91AF91B3
:104750009F918F917F916F915F914F913F912F9199
:104760000F900FBE0F901F9018951F920F920FB6CB
:104770000F9211242F933F934F935F936F937F93E7
:104780008F939F93AF93BF93CF93DF93EF93FF9359
:10479000C091E900CF708091EC00D82FD17080FDDE
:1047A000D0E81092E9008091F000877F8093F000BC
:1047B00078940E94F9231092E9008091F0008860BB
:1047C0008093F000CD2BCF70C093E900FF91EF9163
:1047D000DF91CF91BF91AF919F918F917F916F9119
:1047E0005F914F913F912F910F900FBE0F901F90AF
:1047F00018951F93CF93DF93CDB7DEB7AA970FB667
:10480000F894DEBF0FBECDBFE7E8F3E08091F10082
:10481000819323E0EF38F207C9F70E94601F80916F
:10482000E80083FF2EC18091870390918803492F70
:1048300050E04A30510508F024C1FA01EC58FF4F0E
:104840000C94CF25803821F0823809F01AC108C0B5
:104850008091830390918403992389F082600FC033
:1048600080918B038F70873008F00BC18093E90033
:104870008091EB0085FB882780F91092E9009091E8
:10488000E800977F9093E8008093F1001092F10088
:10489000D1C0282F2D7F09F0F4C0882319F0823071
:1048A00061F0EFC080918903813009F0EAC0933054
:1048B00009F080E0809384032EC0809189038111E8
:1048C0002AC080918B038F702FEF280F263008F0BD
:1048D000D8C08093E9002091EB0020FF1CC09330EA
:1048E00021F48091EB00806214C09091EB00906104
:1048F0009093EB0021E030E0A90102C0440F551F66
:104900008A95E2F74093EA001092EA008091EB006A
:1049100088608093EB001092E9008091E800877F27
:104920008093E8000E941622ACC08111AAC01091A9
:1049300089031F778091E3008078812B8093E300C7
:104940008091E800877F8093E8000E941622809182
:10495000E80080FFFCCF8091E30080688093E30053
:10496000111102C082E001C083E08093860389C0F8
:104970008058823008F085C08091890390918A0325
:104980008C3D53E0950779F583E08A838AE2898339
:104990004FB7F894DE01139620E03EE051E2E32F9A
:1049A000F0E050935700E49120FF03C0E295EF70D0
:1049B0003F5FEF708E2F90E0EA3010F0C79601C095
:1049C000C0968D939D932F5F243149F74FBF8091FF
:1049D000E800877F8093E8006AE270E0CE010196EC
:1049E0000E94222116C060918B0370918C03AE014E
:1049F0004F5F5F4F0E946020BC01892B09F441C0CA
:104A00009091E800977F9093E80089819A810E94B5
:104A100080218091E8008B778093E80032C0803855
:104A200081F58091E800877F8093E8008091820380
:104A30008093F1008091E8008E7772CF811121C0C0
:104A40008091890390918A0399270297D4F48091E9
:104A5000E800877F8093E800809189038093820338
:104A60000E94162280918203811106C08091E3008A
:104A700087FD02C081E001C084E0809386030E942C
:104A8000561F8091E80083FF0AC08091E800877F6D
:104A90008093E8008091EB0080628093EB00AA96FF
:104AA0000FB6F894DEBF0FBECDBFDF91CF911F913F
:104AB00008950895CF93809186038823A1F0C09133
:104AC000E900CF709091EC00892F817090FD80E813
:104AD000C82B1092E9008091E80083FD0E94F92321
:104AE000CF70C093E900CF910895DB018F939F931E
:104AF0000E94E425BF91AF91A29F800D911DA39FBD
:104B0000900DB29F900D11240895AA1BBB1B51E17B
:104B100007C0AA1FBB1FA617B70710F0A61BB70B2D
:104B2000881F991F5A95A9F780959095BC01CD01D2
:104B3000089597FB072E16F4009407D077FD09D04F
:104B40000E94852507FC05D03EF4909581959F4FE6
:104B50000895709561957F4F0895A1E21A2EAA1BC2
:104B6000BB1BFD010DC0AA1FBB1FEE1FFF1FA2171D
:104B7000B307E407F50720F0A21BB30BE40BF50B1A
:104B8000661F771F881F991F1A9469F760957095A3
:104B9000809590959B01AC01BD01CF010895EE0F6A
:104BA000FF1F0590F491E02D0994A29FB001B39FDF
:104BB000C001A39F700D811D1124911DB29F700D26
:104BC000811D1124911D08950E94D525A59F900D4A
:104BD000B49F900DA49F800D911D11240895F99903
:104BE000FECF92BD81BDF89A992780B50895A8E1BE
:104BF000B0E042E050E00C942326262FF999FECF36
:104C000092BD81BDF89A019700B4021639F01FBA1F
:104C100020BD0FB6F894FA9AF99A0FBE089503963C
:104C2000272F0E94FE250E94FD25252F0E94FE258C
:104C3000242F0C94FE250196272F0E94FE250C940C
:104C4000FD25DC01CB01FC01F999FECF06C0F2BDC8
:104C5000E1BDF89A319600B40D9241505040B8F73A
:064C60000895F894FFCF57
:104C6600160229000010024C00000A022B00000464
:104C760002000000FE01000000F801041100F2012C
:104C8600000000EC010000002F0008002F020800C1
:104C96002F000C002F020C002F0012002F0018000E
:104CA6002F000400000000000000000000000000CB
:104CB60000000000000000000000000000000000EE
:104CC60000000000000000000000000000000000DE
:104CD60000000000000000000000000000000000CE
:104CE60000000000000000000000000000000000BE
:104CF60037001E02360023022C002A00241420024C
:104D060025141F022602261427022714081420132E
:104D160021021C1337023602161116132F00341304
:104D26002F0233132F1433112F1332133014301371
:104D36000613151336141B14371406141F0220020B
:104D46002402351433022E002E146413301133144A
:104D56005500220257003613011D032808641E144D
:104D66000A321EA31E001FE11EDD1ED91E01E2002F
:104D7600E900EA00B500B600B700CD008301CC001B
:104D86008A019201940121022302240225022602AD
:104D960027022A02B300B4006F00700081828334B8
:104DA600C697669490F731333236E200E900EA009E
:104DB600B500B600B700CD008301CC008A01920190
:104DC60094012102230224022502260227022A0236
:0C4DD600B300B4006F0070008182830005
:00000001FF
